{
  "transactions": [
    {
      "hash": "0x395165951931ff459e33f11f23fedc4df603789102ff17f2bbe861689670b2da",
      "transactionType": "CALL",
      "contractName": null,
      "contractAddress": "0x0000206329b97DB379d5E1Bf586BbDB969C63274",
      "function": "approve(address,uint256)",
      "arguments": [
        "0xBBBBBbbBBb9cC5e90e3b3Af64bdAF62C37EEFFCb",
        "115792089237316195423570985008687907853269984665640564039457584007913129639935"
      ],
      "transaction": {
        "type": "0x02",
        "from": "0xa9ddd91249dfdd450e81e1c56ab60e1a62651701",
        "to": "0x0000206329b97db379d5e1bf586bbdb969c63274",
        "gas": "0x132d0",
        "value": "0x0",
        "data": "0x095ea7b3000000000000000000000000bbbbbbbbbb9cc5e90e3b3af64bdaf62c37eeffcbffffffffffffffffffffffffffffffffffffffffffffffffffffffffffffffff",
        "nonce": "0xde",
        "accessList": []
      },
      "additionalContracts": [],
      "isFixedGasLimit": false
    },
    {
      "hash": "0x476f91105ee4949285fe4e0adae67dd80eeec2f9673c095656162336bebc292c",
      "transactionType": "CREATE",
      "contractName": "MockERC4626",
      "contractAddress": "0xbB2527E5D51d82d9FDB5188a9B86E7DA9f5ec733",
      "function": null,
      "arguments": [
        "0xdd0f28e19C1780eb6396170735D45153D261490d",
        "1009336"
      ],
      "transaction": {
        "type": "0x02",
        "from": "0xa9ddd91249dfdd450e81e1c56ab60e1a62651701",
        "gas": "0x1ebb35",
        "value": "0x0",
        "data": "0x60a060405234801562000010575f80fd5b5060405162001c4e38038062001c4e8339810160408190526200003391620000b2565b816040518060400160405280600b81526020016a26b7b1b5a2a9219a1b191b60a91b8152506040518060400160405280600881526020016726a2a9219a1b191b60c11b81525081600390816200008a919062000189565b50600462000099828262000189565b5050506001600160a01b03166080526005555062000255565b5f8060408385031215620000c4575f80fd5b82516001600160a01b0381168114620000db575f80fd5b6020939093015192949293505050565b634e487b7160e01b5f52604160045260245ffd5b600181811c908216806200011457607f821691505b6020821081036200013357634e487b7160e01b5f52602260045260245ffd5b50919050565b601f8211156200018457805f5260205f20601f840160051c81016020851015620001605750805b601f840160051c820191505b8181101562000181575f81556001016200016c565b50505b505050565b81516001600160401b03811115620001a557620001a5620000eb565b620001bd81620001b68454620000ff565b8462000139565b602080601f831160018114620001f3575f8415620001db5750858301515b5f19600386901b1c1916600185901b1785556200024d565b5f85815260208120601f198616915b82811015620002235788860151825594840194600190910190840162000202565b50858210156200024157878501515f19600388901b60f8161c191681555b505060018460011b0185555b505050505050565b6080516119bd620002915f395f818161029a0152818161046701528181610a5a01528181610dcd01528181610e620152610f2201526119bd5ff3fe608060405234801561000f575f80fd5b50600436106101c6575f3560e01c80636e553f65116100fe578063b460af941161009e578063ce96cb771161006e578063ce96cb77146103d9578063d905777e146103ec578063dd62ed3e146103ff578063ef8b30f7146103c6575f80fd5b8063b460af941461038c578063ba0876521461039f578063c63d75b6146103b2578063c6e6f592146103c6575f80fd5b806395d89b41116100d957806395d89b411461034b578063a457c2d714610353578063a9059cbb14610366578063b3d7f6b914610379575f80fd5b80636e553f65146102fd57806370a082311461031057806394bf804d14610338575f80fd5b80632c4e722e1161016957806338d52e0f1161014457806338d52e0f1461028d57806339509351146102c4578063402d267d146102d75780634cdad506146102ea575f80fd5b80632c4e722e14610260578063313ce5671461026957806334fcf43714610278575f80fd5b8063095ea7b3116101a4578063095ea7b31461020f5780630a28a4771461023257806318160ddd1461024557806323b872dd1461024d575f80fd5b806301e1d114146101ca57806306fdde03146101e557806307a2d13a146101fa575b5f80fd5b6101d2610437565b6040519081526020015b60405180910390f35b6101ed6104dd565b6040516101dc9190611625565b6101d2610208366004611657565b5060055490565b61022261021d366004611689565b61056d565b60405190151581526020016101dc565b6101d2610240366004611657565b610586565b6002546101d2565b61022261025b3660046116b1565b610592565b6101d260055481565b604051601281526020016101dc565b61028b610286366004611657565b600555565b005b6040516001600160a01b037f00000000000000000000000000000000000000000000000000000000000000001681526020016101dc565b6102226102d2366004611689565b6105b7565b6101d26102e53660046116ea565b6105f5565b6101d26102f8366004611657565b610610565b6101d261030b366004611703565b61061b565b6101d261031e3660046116ea565b6001600160a01b03165f9081526020819052604090205490565b6101d2610346366004611703565b610691565b6101ed6106aa565b610222610361366004611689565b6106b9565b610222610374366004611689565b61076d565b6101d2610387366004611657565b61077a565b6101d261039a36600461172d565b610786565b6101d26103ad36600461172d565b610800565b6101d26103c03660046116ea565b505f1990565b6101d26103d4366004611657565b610872565b6101d26103e73660046116ea565b61087d565b6101d26103fa3660046116ea565b61089f565b6101d261040d366004611766565b6001600160a01b039182165f90815260016020908152604080832093909416825291909152205490565b6040517f70a082310000000000000000000000000000000000000000000000000000000081523060048201525f907f00000000000000000000000000000000000000000000000000000000000000006001600160a01b0316906370a0823190602401602060405180830381865afa1580156104b4573d5f803e3d5ffd5b505050506040513d601f19601f820116820180604052508101906104d8919061178e565b905090565b6060600380546104ec906117a5565b80601f0160208091040260200160405190810160405280929190818152602001828054610518906117a5565b80156105635780601f1061053a57610100808354040283529160200191610563565b820191905f5260205f20905b81548152906001019060200180831161054657829003601f168201915b5050505050905090565b5f3361057a8185856108bc565b60019150505b92915050565b5f610580826001610a13565b5f3361059f858285610ae3565b6105aa858585610b73565b60019150505b9392505050565b335f8181526001602090815260408083206001600160a01b038716845290915281205490919061057a90829086906105f09087906117f1565b6108bc565b5f6105fe610d88565b610608575f610580565b5f1992915050565b5f610580825f610da1565b5f610625826105f5565b8311156106795760405162461bcd60e51b815260206004820152601e60248201527f455243343632363a206465706f736974206d6f7265207468616e206d6178000060448201526064015b60405180910390fd5b5f61068384610872565b90506105b033848684610e5d565b5f8061069c8461077a565b90506105b033848387610e5d565b6060600480546104ec906117a5565b335f8181526001602090815260408083206001600160a01b0387168452909152812054909190838110156107555760405162461bcd60e51b815260206004820152602560248201527f45524332303a2064656372656173656420616c6c6f77616e63652062656c6f7760448201527f207a65726f0000000000000000000000000000000000000000000000000000006064820152608401610670565b61076282868684036108bc565b506001949350505050565b5f3361057a818585610b73565b5f610580826001610da1565b5f6107908261087d565b8411156107df5760405162461bcd60e51b815260206004820152601f60248201527f455243343632363a207769746864726177206d6f7265207468616e206d6178006044820152606401610670565b5f6107e985610586565b90506107f83385858885610eef565b949350505050565b5f61080a8261089f565b8411156108595760405162461bcd60e51b815260206004820152601d60248201527f455243343632363a2072656465656d206d6f7265207468616e206d61780000006044820152606401610670565b5f61086385610610565b90506107f83385858489610eef565b5f610580825f610a13565b6001600160a01b0381165f90815260208190526040812054610580905f610da1565b6001600160a01b0381165f90815260208190526040812054610580565b6001600160a01b0383166109375760405162461bcd60e51b8152602060048201526024808201527f45524332303a20617070726f76652066726f6d20746865207a65726f2061646460448201527f72657373000000000000000000000000000000000000000000000000000000006064820152608401610670565b6001600160a01b0382166109b35760405162461bcd60e51b815260206004820152602260248201527f45524332303a20617070726f766520746f20746865207a65726f20616464726560448201527f73730000000000000000000000000000000000000000000000000000000000006064820152608401610670565b6001600160a01b038381165f8181526001602090815260408083209487168084529482529182902085905590518481527f8c5be1e5ebec7d5bd14f71427d1e84f3dd0314c0f7b2291e5b200ac8c7c3b925910160405180910390a3505050565b5f80610a1e60025490565b9050831580610a2b575080155b610a4957610a4481610a3b610437565b86919086610faf565b6107f8565b6107f8610a586012600a6118e4565b7f00000000000000000000000000000000000000000000000000000000000000006001600160a01b031663313ce5676040518163ffffffff1660e01b8152600401602060405180830381865afa158015610ab4573d5f803e3d5ffd5b505050506040513d601f19601f82011682018060405250810190610ad891906118f2565b610a3b90600a6118e4565b6001600160a01b038381165f908152600160209081526040808320938616835292905220545f198114610b6d5781811015610b605760405162461bcd60e51b815260206004820152601d60248201527f45524332303a20696e73756666696369656e7420616c6c6f77616e63650000006044820152606401610670565b610b6d84848484036108bc565b50505050565b6001600160a01b038316610bef5760405162461bcd60e51b815260206004820152602560248201527f45524332303a207472616e736665722066726f6d20746865207a65726f20616460448201527f64726573730000000000000000000000000000000000000000000000000000006064820152608401610670565b6001600160a01b038216610c6b5760405162461bcd60e51b815260206004820152602360248201527f45524332303a207472616e7366657220746f20746865207a65726f206164647260448201527f65737300000000000000000000000000000000000000000000000000000000006064820152608401610670565b6001600160a01b0383165f9081526020819052604090205481811015610cf95760405162461bcd60e51b815260206004820152602660248201527f45524332303a207472616e7366657220616d6f756e742065786365656473206260448201527f616c616e636500000000000000000000000000000000000000000000000000006064820152608401610670565b6001600160a01b038085165f90815260208190526040808220858503905591851681529081208054849290610d2f9084906117f1565b92505081905550826001600160a01b0316846001600160a01b03167fddf252ad1be2c89b69c2b068fc378daa952ba7f163c4a11628f55a4df523b3ef84604051610d7b91815260200190565b60405180910390a3610b6d565b5f80610d92610437565b11806104d85750506002541590565b5f80610dac60025490565b90508015610dc857610a44610dbf610437565b85908386610faf565b6107f87f00000000000000000000000000000000000000000000000000000000000000006001600160a01b031663313ce5676040518163ffffffff1660e01b8152600401602060405180830381865afa158015610e27573d5f803e3d5ffd5b505050506040513d601f19601f82011682018060405250810190610e4b91906118f2565b610e5690600a6118e4565b6012610ad8565b610e897f000000000000000000000000000000000000000000000000000000000000000085308561100f565b610e9383826110c0565b826001600160a01b0316846001600160a01b03167fdcbc1c05240f31ff3ad067ef1ee35ce4997762752e3a095284754544f4c709d78484604051610ee1929190918252602082015260400190565b60405180910390a350505050565b826001600160a01b0316856001600160a01b031614610f1357610f13838683610ae3565b610f1d838261119c565b610f487f0000000000000000000000000000000000000000000000000000000000000000858461131e565b826001600160a01b0316846001600160a01b0316866001600160a01b03167ffbde797d201c681b91056529119e0b02407c7bb96a4a2c75c01fc9667232c8db8585604051610fa0929190918252602082015260400190565b60405180910390a45050505050565b5f80610fbc868686611367565b90506001836002811115610fd257610fd2611912565b148015610fee57505f8480610fe957610fe9611926565b868809115b1561100157610ffe6001826117f1565b90505b95945050505050565b505050565b6040516001600160a01b0380851660248301528316604482015260648101829052610b6d9085907f23b872dd00000000000000000000000000000000000000000000000000000000906084015b60408051601f198184030181529190526020810180517bffffffffffffffffffffffffffffffffffffffffffffffffffffffff167fffffffff0000000000000000000000000000000000000000000000000000000090931692909217909152611410565b6001600160a01b0382166111165760405162461bcd60e51b815260206004820152601f60248201527f45524332303a206d696e7420746f20746865207a65726f2061646472657373006044820152606401610670565b8060025f82825461112791906117f1565b90915550506001600160a01b0382165f90815260208190526040812080548392906111539084906117f1565b90915550506040518181526001600160a01b038316905f907fddf252ad1be2c89b69c2b068fc378daa952ba7f163c4a11628f55a4df523b3ef9060200160405180910390a35050565b6001600160a01b0382166112185760405162461bcd60e51b815260206004820152602160248201527f45524332303a206275726e2066726f6d20746865207a65726f2061646472657360448201527f73000000000000000000000000000000000000000000000000000000000000006064820152608401610670565b6001600160a01b0382165f90815260208190526040902054818110156112a65760405162461bcd60e51b815260206004820152602260248201527f45524332303a206275726e20616d6f756e7420657863656564732062616c616e60448201527f63650000000000000000000000000000000000000000000000000000000000006064820152608401610670565b6001600160a01b0383165f9081526020819052604081208383039055600280548492906112d490849061193a565b90915550506040518281525f906001600160a01b038516907fddf252ad1be2c89b69c2b068fc378daa952ba7f163c4a11628f55a4df523b3ef9060200160405180910390a3505050565b6040516001600160a01b03831660248201526044810182905261100a9084907fa9059cbb000000000000000000000000000000000000000000000000000000009060640161105c565b5f80805f19858709858702925082811083820303915050805f0361139e5783828161139457611394611926565b04925050506105b0565b8084116113a9575f80fd5b5f8486880960026001871981018816978890046003810283188082028403028082028403028082028403028082028403028082028403029081029092039091025f889003889004909101858311909403939093029303949094049190911702949350505050565b5f611464826040518060400160405280602081526020017f5361666545524332303a206c6f772d6c6576656c2063616c6c206661696c6564815250856001600160a01b03166114f49092919063ffffffff16565b80519091501561100a5780806020019051810190611482919061194d565b61100a5760405162461bcd60e51b815260206004820152602a60248201527f5361666545524332303a204552433230206f7065726174696f6e20646964206e60448201527f6f742073756363656564000000000000000000000000000000000000000000006064820152608401610670565b60606107f884845f85856001600160a01b0385163b6115555760405162461bcd60e51b815260206004820152601d60248201527f416464726573733a2063616c6c20746f206e6f6e2d636f6e74726163740000006044820152606401610670565b5f80866001600160a01b03168587604051611570919061196c565b5f6040518083038185875af1925050503d805f81146115aa576040519150601f19603f3d011682016040523d82523d5f602084013e6115af565b606091505b50915091506115bf8282866115ca565b979650505050505050565b606083156115d95750816105b0565b8251156115e95782518084602001fd5b8160405162461bcd60e51b81526004016106709190611625565b5f5b8381101561161d578181015183820152602001611605565b50505f910152565b602081525f8251806020840152611643816040850160208701611603565b601f01601f19169190910160400192915050565b5f60208284031215611667575f80fd5b5035919050565b80356001600160a01b0381168114611684575f80fd5b919050565b5f806040838503121561169a575f80fd5b6116a38361166e565b946020939093013593505050565b5f805f606084860312156116c3575f80fd5b6116cc8461166e565b92506116da6020850161166e565b9150604084013590509250925092565b5f602082840312156116fa575f80fd5b6105b08261166e565b5f8060408385031215611714575f80fd5b823591506117246020840161166e565b90509250929050565b5f805f6060848603121561173f575f80fd5b8335925061174f6020850161166e565b915061175d6040850161166e565b90509250925092565b5f8060408385031215611777575f80fd5b6117808361166e565b91506117246020840161166e565b5f6020828403121561179e575f80fd5b5051919050565b600181811c908216806117b957607f821691505b6020821081036117d757634e487b7160e01b5f52602260045260245ffd5b50919050565b634e487b7160e01b5f52601160045260245ffd5b80820180821115610580576105806117dd565b600181815b8085111561183e57815f1904821115611824576118246117dd565b8085161561183157918102915b93841c9390800290611809565b509250929050565b5f8261185457506001610580565b8161186057505f610580565b816001811461187657600281146118805761189c565b6001915050610580565b60ff841115611891576118916117dd565b50506001821b610580565b5060208310610133831016604e8410600b84101617156118bf575081810a610580565b6118c98383611804565b805f19048211156118dc576118dc6117dd565b029392505050565b5f6105b060ff841683611846565b5f60208284031215611902575f80fd5b815160ff811681146105b0575f80fd5b634e487b7160e01b5f52602160045260245ffd5b634e487b7160e01b5f52601260045260245ffd5b81810381811115610580576105806117dd565b5f6020828403121561195d575f80fd5b815180151581146105b0575f80fd5b5f825161197d818460208701611603565b919091019291505056fea2646970667358221220150da1ec95d6e8da608044c6da247cf4f6b3f74c8fb58ff28065932a86a78f2164736f6c63430008160033000000000000000000000000dd0f28e19c1780eb6396170735d45153d261490d00000000000000000000000000000000000000000000000000000000000f66b8",
        "nonce": "0xdf",
        "accessList": []
      },
      "additionalContracts": [],
      "isFixedGasLimit": false
    },
    {
      "hash": "0xa5875f4f95965a99b74a1cdaf7b66ec019292207d6a51a606a0ecda0d71aefe6",
      "transactionType": "CALL",
      "contractName": null,
      "contractAddress": "0x3A7bB36Ee3f3eE32A60e9f2b33c1e5f2E83ad766",
      "function": null,
      "arguments": null,
      "transaction": {
        "type": "0x02",
        "from": "0xa9ddd91249dfdd450e81e1c56ab60e1a62651701",
        "to": "0x3a7bb36ee3f3ee32a60e9f2b33c1e5f2e83ad766",
        "gas": "0xce97b",
        "value": "0x0",
        "data": "0xb32cddf4000000000000000000000000bb2527e5d51d82d9fdb5188a9b86e7da9f5ec7330000000000000000000000000000000000000000000000000de0b6b3a76400000000000000000000000000008fffffd4afb6115b954bd326cbe7b4ba576818f600000000000000000000000000000000000000000000000000000000000000000000000000000000000000000000000000000000000000000000000000000006000000000000000000000000000000000000000000000000000000000000000000000000000000000000000000000000000000000000000000000000000000010000000000000000000000000000000000000000000000000000000000000000000000000000000000000000000000000000000000000000000000000000000000000000000000000000000000000000000000000000000000000000000000120000000000000000000000000000000000000000000000000000000000000000",
        "nonce": "0xe0",
        "accessList": []
      },
      "additionalContracts": [
        {
          "transactionType": "CREATE2",
          "address": "0x408DCf46138F69a16c713e28BAAFccEe7a5280E7",
          "initCode": "0x6101a08060405234620002fa578062000f1e803803809162000022828562000331565b833961014092839181010312620002fa576200003e8162000355565b91602082015190620000536040840162000355565b90620000626060850162000355565b926080850151956200007760a0870162000355565b9060c0870151956200008c60e0890162000355565b95610100996200009e8b8b0162000355565b6101209a8b0151956001600160a01b0386811615801590620002ef575b620000d190620000ca6200036a565b90620003bf565b811615801590620002e4575b620000ec90620000ca6200036a565b8715956200015a6040516200010181620002ff565b601f8152620001397f7661756c7420636f6e76657273696f6e2073616d706c65206973207a65726f00918260208201528a15620003bf565b604051906200014882620002ff565b601f825260208201528d1515620003bf565b6080528760a05260c0528960e052828c52838b5288885261016098818a52602496870190818811620002cf57620001bd620001ca94620001c4620001bd95620001b6620001bd620001d19b9a97620001b6620001ca986200045b565b9062000429565b916200045b565b6200044d565b906200044d565b604d8111620002ba57600a0a868102968188041490151715620002a5576200029157506101809304835260405193610a269586620004f8873960805186818161014b0152610304015260a0518681816102e301526105b9015260c0518681816103ac0152610560015260e05186818161038b01526104f301525185818160d9015261032d0152518481816101b9015261035c0152518381816103d5015261049a01525182818161027f01526103fe01525181818161021201526104250152f35b634e487b7160e01b60009081526012600452fd5b50634e487b7160e01b60009081526011600452fd5b82634e487b7160e01b60005260116004526000fd5b87634e487b7160e01b60005260116004526000fd5b5060018b14620000dd565b5060018914620000bb565b600080fd5b604081019081106001600160401b038211176200031b57604052565b634e487b7160e01b600052604160045260246000fd5b601f909101601f19168101906001600160401b038211908210176200031b57604052565b51906001600160a01b0382168203620002fa57565b60405190606082016001600160401b038111838210176200031b5760405260228252616e6560f01b6040837f7661756c7420636f6e76657273696f6e2073616d706c65206973206e6f74206f60208201520152565b15620003c85750565b6040519062461bcd60e51b82528160208060048301528251908160248401526000935b8285106200040f575050604492506000838284010152601f80199101168101030190fd5b8481018201518686016044015293810193859350620003eb565b919082018092116200043757565b634e487b7160e01b600052601160045260246000fd5b919082039182116200043757565b6001600160a01b03168015620004f15760206004916040519283809263313ce56760e01b82525afa908115620004e5576000916200049b575b5060ff1690565b6020813d8211620004dc575b81620004b66020938362000331565b81010312620004d857519060ff82168203620004d5575060ff62000494565b80fd5b5080fd5b3d9150620004a7565b6040513d6000823e3d90fd5b5060009056fe60806040818152600436101561001457600080fd5b600091823560e01c908163054f7ac014610584575080632e6f20a614610516578063461739d2146104be57806356095e1114610450578063a035b1fe146102a3578063acfbd39e14610235578063ce4b5bbe146101dd578063dc53858c1461016f578063eaa2d7b4146101015763f50a47181461009057600080fd5b346100fd57817ffffffffffffffffffffffffffffffffffffffffffffffffffffffffffffffffc3601126100fd576020905173ffffffffffffffffffffffffffffffffffffffff7f0000000000000000000000000000000000000000000000000000000000000000168152f35b5080fd5b50346100fd57817ffffffffffffffffffffffffffffffffffffffffffffffffffffffffffffffffc3601126100fd576020905173ffffffffffffffffffffffffffffffffffffffff7f0000000000000000000000000000000000000000000000000000000000000000168152f35b50346100fd57817ffffffffffffffffffffffffffffffffffffffffffffffffffffffffffffffffc3601126100fd576020905173ffffffffffffffffffffffffffffffffffffffff7f0000000000000000000000000000000000000000000000000000000000000000168152f35b50346100fd57817ffffffffffffffffffffffffffffffffffffffffffffffffffffffffffffffffc3601126100fd57602090517f00000000000000000000000000000000000000000000000000000000000000008152f35b50346100fd57817ffffffffffffffffffffffffffffffffffffffffffffffffffffffffffffffffc3601126100fd576020905173ffffffffffffffffffffffffffffffffffffffff7f0000000000000000000000000000000000000000000000000000000000000000168152f35b50346100fd57817ffffffffffffffffffffffffffffffffffffffffffffffffffffffffffffffffc3601126100fd576020906104496103806103576103287f00000000000000000000000000000000000000000000000000000000000000007f000000000000000000000000000000000000000000000000000000000000000061094a565b6103517f00000000000000000000000000000000000000000000000000000000000000006107a5565b906105dc565b6103517f00000000000000000000000000000000000000000000000000000000000000006107a5565b6104226103f96103d07f00000000000000000000000000000000000000000000000000000000000000007f000000000000000000000000000000000000000000000000000000000000000061094a565b6103517f00000000000000000000000000000000000000000000000000000000000000006107a5565b6103517f00000000000000000000000000000000000000000000000000000000000000006107a5565b907f000000000000000000000000000000000000000000000000000000000000000061061e565b9051908152f35b50346100fd57817ffffffffffffffffffffffffffffffffffffffffffffffffffffffffffffffffc3601126100fd576020905173ffffffffffffffffffffffffffffffffffffffff7f0000000000000000000000000000000000000000000000000000000000000000168152f35b50346100fd57817ffffffffffffffffffffffffffffffffffffffffffffffffffffffffffffffffc3601126100fd57602090517f00000000000000000000000000000000000000000000000000000000000000008152f35b50346100fd57817ffffffffffffffffffffffffffffffffffffffffffffffffffffffffffffffffc3601126100fd576020905173ffffffffffffffffffffffffffffffffffffffff7f0000000000000000000000000000000000000000000000000000000000000000168152f35b8390346100fd57817ffffffffffffffffffffffffffffffffffffffffffffffffffffffffffffffffc3601126100fd576020907f00000000000000000000000000000000000000000000000000000000000000008152f35b818102929181159184041417156105ef57565b7f4e487b7100000000000000000000000000000000000000000000000000000000600052601160045260246000fd5b9091828202917fffffffffffffffffffffffffffffffffffffffffffffffffffffffffffffffff848209938380861095039480860395146106dc57848311156106b25782910981600003821680920460028082600302188083028203028083028203028083028203028083028203028083028203028092029003029360018380600003040190848311900302920304170290565b60046040517f227bc153000000000000000000000000000000000000000000000000000000008152fd5b5050809250156106ea570490565b7f4e487b7100000000000000000000000000000000000000000000000000000000600052601260045260246000fd5b90601f7fffffffffffffffffffffffffffffffffffffffffffffffffffffffffffffffe0910116810190811067ffffffffffffffff82111761075a57604052565b7f4e487b7100000000000000000000000000000000000000000000000000000000600052604160045260246000fd5b519069ffffffffffffffffffff821682036107a057565b600080fd5b73ffffffffffffffffffffffffffffffffffffffff1680156109445760049060a06040918251938480927ffeaf968c0000000000000000000000000000000000000000000000000000000082525afa918215610939576000926108e8575b50805181810181811067ffffffffffffffff82111761075a578252600f81526020917f6e6567617469766520616e73776572000000000000000000000000000000000083830152600084126108585750505090565b5180927f08c379a000000000000000000000000000000000000000000000000000000000825280600483015282519283602484015260005b8481106108d1575050507fffffffffffffffffffffffffffffffffffffffffffffffffffffffffffffffe0601f836000604480968601015201168101030190fd5b818101830151868201604401528593508201610890565b909160a0823d8211610931575b8161090260a09383610719565b8101031261092e575061091481610789565b50610926608060208301519201610789565b509038610803565b80fd5b3d91506108f5565b50513d6000823e3d90fd5b50600190565b73ffffffffffffffffffffffffffffffffffffffff169081156109e9576020906024604051809481937f07a2d13a00000000000000000000000000000000000000000000000000000000835260048301525afa9081156109dd576000916109af575090565b906020823d82116109d5575b816109c860209383610719565b8101031261092e57505190565b3d91506109bb565b6040513d6000823e3d90fd5b505060019056fea2646970667358221220de25ff8dd5708a691db44b0da1e6e734e7659c3f9a1801595bc1fa7bf902c00564736f6c63430008150033000000000000000000000000bb2527e5d51d82d9fdb5188a9b86e7da9f5ec7330000000000000000000000000000000000000000000000000de0b6b3a76400000000000000000000000000008fffffd4afb6115b954bd326cbe7b4ba576818f60000000000000000000000000000000000000000000000000000000000000000000000000000000000000000000000000000000000000000000000000000000600000000000000000000000000000000000000000000000000000000000000000000000000000000000000000000000000000000000000000000000000000001000000000000000000000000000000000000000000000000000000000000000000000000000000000000000000000000000000000000000000000000000000000000000000000000000000000000000000000000000000000000000000000012"
        }
      ],
      "isFixedGasLimit": false
    },
    {
      "hash": "0xe808ef870be141b89cba67a15c075f88a8196679c7c28ef06332857594e5952a",
      "transactionType": "CALL",
      "contractName": null,
      "contractAddress": "0xBBBBBbbBBb9cC5e90e3b3Af64bdAF62C37EEFFCb",
      "function": null,
      "arguments": null,
      "transaction": {
        "type": "0x02",
        "from": "0xa9ddd91249dfdd450e81e1c56ab60e1a62651701",
        "to": "0xbbbbbbbbbb9cc5e90e3b3af64bdaf62c37eeffcb",
        "gas": "0x47336",
        "value": "0x0",
        "data": "0x8c1358a20000000000000000000000000000206329b97db379d5e1bf586bbdb969c63274000000000000000000000000dd0f28e19c1780eb6396170735d45153d261490d000000000000000000000000408dcf46138f69a16c713e28baafccee7a5280e7000000000000000000000000870ac11d48b15db9a138cf899d20f13f79ba00bc0000000000000000000000000000000000000000000000000bef55718ad60000",
        "nonce": "0xe1",
        "accessList": []
      },
      "additionalContracts": [],
      "isFixedGasLimit": false
    },
    {
      "hash": "0xc58726a3f63fc5ef5c1e1f1fae632935fba0bd36c34badc9674fbd27428418a6",
      "transactionType": "CALL",
      "contractName": null,
      "contractAddress": "0xBBBBBbbBBb9cC5e90e3b3Af64bdAF62C37EEFFCb",
      "function": null,
      "arguments": null,
      "transaction": {
        "type": "0x02",
        "from": "0xa9ddd91249dfdd450e81e1c56ab60e1a62651701",
        "to": "0xbbbbbbbbbb9cc5e90e3b3af64bdaf62c37eeffcb",
        "gas": "0x22a1e",
        "value": "0x0",
        "data": "0xa99aad890000000000000000000000000000206329b97db379d5e1bf586bbdb969c63274000000000000000000000000dd0f28e19c1780eb6396170735d45153d261490d000000000000000000000000408dcf46138f69a16c713e28baafccee7a5280e7000000000000000000000000870ac11d48b15db9a138cf899d20f13f79ba00bc0000000000000000000000000000000000000000000000000bef55718ad60000000000000000000000000000000000000000000000000001e5b8fa8fe2ac00000000000000000000000000000000000000000000000000000000000000000000000000000000000000000000a9ddd91249dfdd450e81e1c56ab60e1a6265170100000000000000000000000000000000000000000000000000000000000001200000000000000000000000000000000000000000000000000000000000000000",
        "nonce": "0xe2",
        "accessList": []
      },
      "additionalContracts": [],
      "isFixedGasLimit": false
    },
    {
      "hash": "0xe607a3bc083a88314e321486370994f9149f47ba7262231621947bf4a1611046",
      "transactionType": "CALL",
      "contractName": null,
      "contractAddress": "0xdd0f28e19C1780eb6396170735D45153D261490d",
      "function": "approve(address,uint256)",
      "arguments": [
        "0xBBBBBbbBBb9cC5e90e3b3Af64bdAF62C37EEFFCb",
        "100000000000000000000"
      ],
      "transaction": {
        "type": "0x02",
        "from": "0xa9ddd91249dfdd450e81e1c56ab60e1a62651701",
        "to": "0xdd0f28e19c1780eb6396170735d45153d261490d",
        "gas": "0xf873",
        "value": "0x0",
        "data": "0x095ea7b3000000000000000000000000bbbbbbbbbb9cc5e90e3b3af64bdaf62c37eeffcb0000000000000000000000000000000000000000000000056bc75e2d63100000",
        "nonce": "0xe3",
        "accessList": []
      },
      "additionalContracts": [],
      "isFixedGasLimit": false
    },
    {
      "hash": "0x3620d708e024cc8a5accf17138ffb34642c3fb660b28b897309d878b1bff96f5",
      "transactionType": "CALL",
      "contractName": null,
      "contractAddress": "0xBBBBBbbBBb9cC5e90e3b3Af64bdAF62C37EEFFCb",
      "function": null,
      "arguments": null,
      "transaction": {
        "type": "0x02",
        "from": "0xa9ddd91249dfdd450e81e1c56ab60e1a62651701",
        "to": "0xbbbbbbbbbb9cc5e90e3b3af64bdaf62c37eeffcb",
        "gas": "0x18f38",
        "value": "0x0",
        "data": "0x238d65790000000000000000000000000000206329b97db379d5e1bf586bbdb969c63274000000000000000000000000dd0f28e19c1780eb6396170735d45153d261490d000000000000000000000000408dcf46138f69a16c713e28baafccee7a5280e7000000000000000000000000870ac11d48b15db9a138cf899d20f13f79ba00bc0000000000000000000000000000000000000000000000000bef55718ad60000000000000000000000000000000000000000000000000002b5e3af16b1880000000000000000000000000000a9ddd91249dfdd450e81e1c56ab60e1a6265170100000000000000000000000000000000000000000000000000000000000001000000000000000000000000000000000000000000000000000000000000000000",
        "nonce": "0xe4",
        "accessList": []
      },
      "additionalContracts": [],
      "isFixedGasLimit": false
    },
    {
      "hash": "0x8fb8f0352f557751873ef7e51ac3506e5be2f158ab5f52a04665f11edd82f360",
      "transactionType": "CALL",
      "contractName": null,
      "contractAddress": "0xBBBBBbbBBb9cC5e90e3b3Af64bdAF62C37EEFFCb",
      "function": null,
      "arguments": null,
      "transaction": {
        "type": "0x02",
        "from": "0xa9ddd91249dfdd450e81e1c56ab60e1a62651701",
        "to": "0xbbbbbbbbbb9cc5e90e3b3af64bdaf62c37eeffcb",
        "gas": "0x27395",
        "value": "0x0",
        "data": "0x50d8cd4b0000000000000000000000000000206329b97db379d5e1bf586bbdb969c63274000000000000000000000000dd0f28e19c1780eb6396170735d45153d261490d000000000000000000000000408dcf46138f69a16c713e28baafccee7a5280e7000000000000000000000000870ac11d48b15db9a138cf899d20f13f79ba00bc0000000000000000000000000000000000000000000000000bef55718ad60000000000000000000000000000000000000000000000000001158e460913d000000000000000000000000000000000000000000000000000000000000000000000000000000000000000000000a9ddd91249dfdd450e81e1c56ab60e1a62651701000000000000000000000000a9ddd91249dfdd450e81e1c56ab60e1a62651701",
        "nonce": "0xe5",
        "accessList": []
      },
      "additionalContracts": [],
      "isFixedGasLimit": false
    },
    {
      "hash": "0x7e75d018f15cdcde903cf5a2d313be5f73f8021c323afc5737c532d81a95f982",
      "transactionType": "CALL",
      "contractName": "MockERC4626",
      "contractAddress": "0xbB2527E5D51d82d9FDB5188a9B86E7DA9f5ec733",
      "function": "setRate(uint256)",
      "arguments": [
        "100933"
      ],
      "transaction": {
        "type": "0x02",
        "from": "0xa9ddd91249dfdd450e81e1c56ab60e1a62651701",
        "to": "0xbb2527e5d51d82d9fdb5188a9b86e7da9f5ec733",
        "gas": "0x8f21",
        "value": "0x0",
        "data": "0x34fcf4370000000000000000000000000000000000000000000000000000000000018a45",
        "nonce": "0xe6",
        "accessList": []
      },
      "additionalContracts": [],
      "isFixedGasLimit": false
    }
  ],
  "receipts": [
    {
      "transactionHash": "0x395165951931ff459e33f11f23fedc4df603789102ff17f2bbe861689670b2da",
      "transactionIndex": "0x0",
      "blockHash": "0xa84928951eb833848ad22561a43a91d1d39a6d98ccab4bcdc2e036ce1ec1660f",
      "blockNumber": "0x12cf6de",
      "from": "0xA9DdD91249DFdd450E81E1c56Ab60E1A62651701",
      "to": "0x0000206329b97DB379d5E1Bf586BbDB969C63274",
      "cumulativeGasUsed": "0xd1ca",
      "gasUsed": "0xd1ca",
      "contractAddress": null,
      "logs": [
        {
          "address": "0x0000206329b97DB379d5E1Bf586BbDB969C63274",
          "topics": [
            "0x8c5be1e5ebec7d5bd14f71427d1e84f3dd0314c0f7b2291e5b200ac8c7c3b925",
            "0x000000000000000000000000a9ddd91249dfdd450e81e1c56ab60e1a62651701",
            "0x000000000000000000000000bbbbbbbbbb9cc5e90e3b3af64bdaf62c37eeffcb"
          ],
          "data": "0xffffffffffffffffffffffffffffffffffffffffffffffffffffffffffffffff",
          "blockHash": "0xa84928951eb833848ad22561a43a91d1d39a6d98ccab4bcdc2e036ce1ec1660f",
          "blockNumber": "0x12cf6de",
          "transactionHash": "0x395165951931ff459e33f11f23fedc4df603789102ff17f2bbe861689670b2da",
          "transactionIndex": "0x0",
          "logIndex": "0x0",
          "removed": false
        }
      ],
      "status": "0x1",
      "logsBloom": "0x00000000000000000000000000000080000000000000000000000000000000000000000000000000000000000000000000000000000000000000000000200000000000000000000000000000000004000000000000000000000000000000000000000000000000000000000000000000000000000000000000000000000000000000000000000000000000000000000000000000000000000000000000000000820000000000000000000000000000000000000000000000800000080000000000000000000000000000000000000000000000004000000000000000000000000010000001000000000000200000000000000000000000000000000000004000",
      "type": "0x2",
      "effectiveGasPrice": "0x2dfc62d1c"
    },
    {
      "transactionHash": "0x476f91105ee4949285fe4e0adae67dd80eeec2f9673c095656162336bebc292c",
      "transactionIndex": "0x1",
      "blockHash": "0xa84928951eb833848ad22561a43a91d1d39a6d98ccab4bcdc2e036ce1ec1660f",
      "blockNumber": "0x12cf6de",
      "from": "0xA9DdD91249DFdd450E81E1c56Ab60E1A62651701",
      "to": null,
      "cumulativeGasUsed": "0x18757d",
      "gasUsed": "0x17a3b3",
      "contractAddress": "0xbB2527E5D51d82d9FDB5188a9B86E7DA9f5ec733",
      "logs": [],
      "status": "0x1",
      "logsBloom": "0x00000000000000000000000000000000000000000000000000000000000000000000000000000000000000000000000000000000000000000000000000000000000000000000000000000000000000000000000000000000000000000000000000000000000000000000000000000000000000000000000000000000000000000000000000000000000000000000000000000000000000000000000000000000000000000000000000000000000000000000000000000000000000000000000000000000000000000000000000000000000000000000000000000000000000000000000000000000000000000000000000000000000000000000000000000000",
      "type": "0x2",
      "effectiveGasPrice": "0x2dfc62d1c"
    },
    {
      "transactionHash": "0xa5875f4f95965a99b74a1cdaf7b66ec019292207d6a51a606a0ecda0d71aefe6",
      "transactionIndex": "0x2",
      "blockHash": "0xa84928951eb833848ad22561a43a91d1d39a6d98ccab4bcdc2e036ce1ec1660f",
      "blockNumber": "0x12cf6de",
      "from": "0xA9DdD91249DFdd450E81E1c56Ab60E1A62651701",
      "to": "0x3A7bB36Ee3f3eE32A60e9f2b33c1e5f2E83ad766",
      "cumulativeGasUsed": "0x21ce9a",
      "gasUsed": "0x9591d",
      "contractAddress": null,
      "logs": [
        {
          "address": "0x3A7bB36Ee3f3eE32A60e9f2b33c1e5f2E83ad766",
          "topics": [
            "0x6436acb89463dbc9036f1e52aebf32ac0bf5f69e3987c067110c3ac403ebda33"
          ],
          "data": "0x000000000000000000000000a9ddd91249dfdd450e81e1c56ab60e1a62651701000000000000000000000000408dcf46138f69a16c713e28baafccee7a5280e7",
          "blockHash": "0xa84928951eb833848ad22561a43a91d1d39a6d98ccab4bcdc2e036ce1ec1660f",
          "blockNumber": "0x12cf6de",
          "transactionHash": "0xa5875f4f95965a99b74a1cdaf7b66ec019292207d6a51a606a0ecda0d71aefe6",
          "transactionIndex": "0x2",
          "logIndex": "0x2",
          "removed": false
        }
      ],
      "status": "0x1",
      "logsBloom": "0x00000000000000000000000000000000000000000000000000000000000000000000000000000000000000000000000000000000000000000000000000000000000000000000000000000000000000000000000000000000000000000000000000000000000000000000000000000000000000000000000000000000000000000000000000000000000000000000000000002000000000000000000000000000000000000000000000000000010000000000000000100000000000000000000000000000000000000000000000000000000000000000000000000000000000000000000000000080000000006000000000000000000000000000000000000000",
      "type": "0x2",
      "effectiveGasPrice": "0x2dfc62d1c"
    },
    {
      "transactionHash": "0xe808ef870be141b89cba67a15c075f88a8196679c7c28ef06332857594e5952a",
      "transactionIndex": "0x3",
      "blockHash": "0xa84928951eb833848ad22561a43a91d1d39a6d98ccab4bcdc2e036ce1ec1660f",
      "blockNumber": "0x12cf6de",
      "from": "0xA9DdD91249DFdd450E81E1c56Ab60E1A62651701",
      "to": "0xBBBBBbbBBb9cC5e90e3b3Af64bdAF62C37EEFFCb",
      "cumulativeGasUsed": "0x24d98d",
      "gasUsed": "0x30af3",
      "contractAddress": null,
      "logs": [
        {
          "address": "0xBBBBBbbBBb9cC5e90e3b3Af64bdAF62C37EEFFCb",
          "topics": [
            "0xac4b2400f169220b0c0afdde7a0b32e775ba727ea1cb30b35f935cdaab8683ac",
            "0xbc010589ee2c9f4b0d3eb80b144684b0c2c64260a1338c1bd18516ce196df78f"
          ],
          "data": "0x0000000000000000000000000000206329b97db379d5e1bf586bbdb969c63274000000000000000000000000dd0f28e19c1780eb6396170735d45153d261490d000000000000000000000000408dcf46138f69a16c713e28baafccee7a5280e7000000000000000000000000870ac11d48b15db9a138cf899d20f13f79ba00bc0000000000000000000000000000000000000000000000000bef55718ad60000",
          "blockHash": "0xa84928951eb833848ad22561a43a91d1d39a6d98ccab4bcdc2e036ce1ec1660f",
          "blockNumber": "0x12cf6de",
          "transactionHash": "0xe808ef870be141b89cba67a15c075f88a8196679c7c28ef06332857594e5952a",
          "transactionIndex": "0x3",
          "logIndex": "0x6",
          "removed": false
        },
        {
          "address": "0x870aC11D48B15DB9a138Cf899d20F13F79Ba00BC",
          "topics": [
            "0x7120161a7b3d31251e01294ab351ef15a41b91659a36032e4641bb89b121e321",
            "0xbc010589ee2c9f4b0d3eb80b144684b0c2c64260a1338c1bd18516ce196df78f"
          ],
          "data": "0x0000000000000000000000000000000000000000000000000000000012e687bf000000000000000000000000000000000000000000000000000000004b9a1eff",
          "blockHash": "0xa84928951eb833848ad22561a43a91d1d39a6d98ccab4bcdc2e036ce1ec1660f",
          "blockNumber": "0x12cf6de",
          "transactionHash": "0xe808ef870be141b89cba67a15c075f88a8196679c7c28ef06332857594e5952a",
          "transactionIndex": "0x3",
          "logIndex": "0x7",
          "removed": false
        }
      ],
      "status": "0x1",
      "logsBloom": "0x00000000000000000000000000000800000000000000000000000000000000000000000000000000000000000000000000000000000000000000000000844000000000000010000002000000000000000000000000200000000000000000000000000000000000000000000000000000000000000000000000000040000000000000000000000008000000000000000000000000000000000000000000000000000000000000000000000000000000000000020000000000000000000000000020000000000000000001000000000000000000000000000000000000000000000000000000000000000000000001000000000000000200000000000000000010",
      "type": "0x2",
      "effectiveGasPrice": "0x2dfc62d1c"
    },
    {
      "transactionHash": "0xc58726a3f63fc5ef5c1e1f1fae632935fba0bd36c34badc9674fbd27428418a6",
      "transactionIndex": "0x4",
      "blockHash": "0xa84928951eb833848ad22561a43a91d1d39a6d98ccab4bcdc2e036ce1ec1660f",
      "blockNumber": "0x12cf6de",
      "from": "0xA9DdD91249DFdd450E81E1c56Ab60E1A62651701",
      "to": "0xBBBBBbbBBb9cC5e90e3b3Af64bdAF62C37EEFFCb",
      "cumulativeGasUsed": "0x266aba",
      "gasUsed": "0x1912d",
      "contractAddress": null,
      "logs": [
        {
          "address": "0xBBBBBbbBBb9cC5e90e3b3Af64bdAF62C37EEFFCb",
          "topics": [
            "0xedf8870433c83823eb071d3df1caa8d008f12f6440918c20d75a3602cda30fe0",
            "0xbc010589ee2c9f4b0d3eb80b144684b0c2c64260a1338c1bd18516ce196df78f",
            "0x000000000000000000000000a9ddd91249dfdd450e81e1c56ab60e1a62651701",
            "0x000000000000000000000000a9ddd91249dfdd450e81e1c56ab60e1a62651701"
          ],
          "data": "0x000000000000000000000000000000000000000000000001e5b8fa8fe2ac00000000000000000000000000000000000000000000001cf389cd46047d03000000",
          "blockHash": "0xa84928951eb833848ad22561a43a91d1d39a6d98ccab4bcdc2e036ce1ec1660f",
          "blockNumber": "0x12cf6de",
          "transactionHash": "0xc58726a3f63fc5ef5c1e1f1fae632935fba0bd36c34badc9674fbd27428418a6",
          "transactionIndex": "0x4",
          "logIndex": "0x8",
          "removed": false
        },
        {
          "address": "0x0000206329b97DB379d5E1Bf586BbDB969C63274",
          "topics": [
            "0xddf252ad1be2c89b69c2b068fc378daa952ba7f163c4a11628f55a4df523b3ef",
            "0x000000000000000000000000a9ddd91249dfdd450e81e1c56ab60e1a62651701",
            "0x000000000000000000000000bbbbbbbbbb9cc5e90e3b3af64bdaf62c37eeffcb"
          ],
          "data": "0x000000000000000000000000000000000000000000000001e5b8fa8fe2ac0000",
          "blockHash": "0xa84928951eb833848ad22561a43a91d1d39a6d98ccab4bcdc2e036ce1ec1660f",
          "blockNumber": "0x12cf6de",
          "transactionHash": "0xc58726a3f63fc5ef5c1e1f1fae632935fba0bd36c34badc9674fbd27428418a6",
          "transactionIndex": "0x4",
          "logIndex": "0x9",
          "removed": false
        }
      ],
      "status": "0x1",
      "logsBloom": "0x00000000000000000000000000000080000000000000000000000000000000000000000000000000000000000000000000000000000000000000000000000000000000000010000002000008800004000000000800000000000000000000000000000000000000000000000000000000000000000000000000000010000000000000000000000008000000000000000000000000000000000000000000000000800000000000000000000000000000000000020000000000800000080000000020000002000000000000000000000000000000004000000000000000000000400000000001000000000000200000000000000000000200000000000000004000",
      "type": "0x2",
      "effectiveGasPrice": "0x2dfc62d1c"
    },
    {
      "transactionHash": "0xe607a3bc083a88314e321486370994f9149f47ba7262231621947bf4a1611046",
      "transactionIndex": "0x5",
      "blockHash": "0xa84928951eb833848ad22561a43a91d1d39a6d98ccab4bcdc2e036ce1ec1660f",
      "blockNumber": "0x12cf6de",
      "from": "0xA9DdD91249DFdd450E81E1c56Ab60E1A62651701",
      "to": "0xdd0f28e19C1780eb6396170735D45153D261490d",
      "cumulativeGasUsed": "0x271e9a",
      "gasUsed": "0xb3e0",
      "contractAddress": null,
      "logs": [
        {
          "address": "0xdd0f28e19C1780eb6396170735D45153D261490d",
          "topics": [
            "0x8c5be1e5ebec7d5bd14f71427d1e84f3dd0314c0f7b2291e5b200ac8c7c3b925",
            "0x000000000000000000000000a9ddd91249dfdd450e81e1c56ab60e1a62651701",
            "0x000000000000000000000000bbbbbbbbbb9cc5e90e3b3af64bdaf62c37eeffcb"
          ],
          "data": "0x0000000000000000000000000000000000000000000000056bc75e2d63100000",
          "blockHash": "0xa84928951eb833848ad22561a43a91d1d39a6d98ccab4bcdc2e036ce1ec1660f",
          "blockNumber": "0x12cf6de",
          "transactionHash": "0xe607a3bc083a88314e321486370994f9149f47ba7262231621947bf4a1611046",
          "transactionIndex": "0x5",
          "logIndex": "0x5",
          "removed": false
        }
      ],
      "status": "0x1",
      "logsBloom": "0x00000000000000000000000000000080000080000000000000000000000000000000000000000000000000000000000000000000000000000000000000200000000000000000000000000000000000000000000000000000000000000000000000000000000000000000000000000000000000000000000000000000000000000000000000000002000000000000000000000000000000000000000000000000820000000000000000000002000000000000000000000000800000080000000000000000000000000000000000000000000000000000000000000000000000000010000001000000000000200000000000000000000000000000000000000000",
      "type": "0x2",
      "effectiveGasPrice": "0x2dfc62d1c"
    },
    {
      "transactionHash": "0x3620d708e024cc8a5accf17138ffb34642c3fb660b28b897309d878b1bff96f5",
      "transactionIndex": "0x6",
      "blockHash": "0xa84928951eb833848ad22561a43a91d1d39a6d98ccab4bcdc2e036ce1ec1660f",
      "blockNumber": "0x12cf6de",
      "from": "0xA9DdD91249DFdd450E81E1c56Ab60E1A62651701",
      "to": "0xBBBBBbbBBb9cC5e90e3b3Af64bdAF62C37EEFFCb",
      "cumulativeGasUsed": "0x283fa2",
      "gasUsed": "0x12108",
      "contractAddress": null,
      "logs": [
        {
          "address": "0xBBBBBbbBBb9cC5e90e3b3Af64bdAF62C37EEFFCb",
          "topics": [
            "0xa3b9472a1399e17e123f3c2e6586c23e504184d504de59cdaa2b375e880c6184",
            "0xbc010589ee2c9f4b0d3eb80b144684b0c2c64260a1338c1bd18516ce196df78f",
            "0x000000000000000000000000a9ddd91249dfdd450e81e1c56ab60e1a62651701",
            "0x000000000000000000000000a9ddd91249dfdd450e81e1c56ab60e1a62651701"
          ],
          "data": "0x000000000000000000000000000000000000000000000002b5e3af16b1880000",
          "blockHash": "0xa84928951eb833848ad22561a43a91d1d39a6d98ccab4bcdc2e036ce1ec1660f",
          "blockNumber": "0x12cf6de",
          "transactionHash": "0x3620d708e024cc8a5accf17138ffb34642c3fb660b28b897309d878b1bff96f5",
          "transactionIndex": "0x6",
          "logIndex": "0xc",
          "removed": false
        },
        {
          "address": "0xdd0f28e19C1780eb6396170735D45153D261490d",
          "topics": [
            "0xddf252ad1be2c89b69c2b068fc378daa952ba7f163c4a11628f55a4df523b3ef",
            "0x000000000000000000000000a9ddd91249dfdd450e81e1c56ab60e1a62651701",
            "0x000000000000000000000000bbbbbbbbbb9cc5e90e3b3af64bdaf62c37eeffcb"
          ],
          "data": "0x000000000000000000000000000000000000000000000002b5e3af16b1880000",
          "blockHash": "0xa84928951eb833848ad22561a43a91d1d39a6d98ccab4bcdc2e036ce1ec1660f",
          "blockNumber": "0x12cf6de",
          "transactionHash": "0x3620d708e024cc8a5accf17138ffb34642c3fb660b28b897309d878b1bff96f5",
          "transactionIndex": "0x6",
          "logIndex": "0xd",
          "removed": false
        }
      ],
      "status": "0x1",
      "logsBloom": "0x0000000000000000000000000000008000008000000000000000000000000000000000000000000000000000000000000000000000000000000000000000000000000000001000000200000800000000000000000000000000000000000000000000000000000000000000000000000000000000000000000000001000000000000000800000000a000000000000000000000000000000000000000000000000800000000000000000000002000000000000020000000000800000080000000020000002000000000000000000000000000000000000000400000000000000000000000001000000000000200000200000000000000200000000000000000000",
      "type": "0x2",
      "effectiveGasPrice": "0x2dfc62d1c"
    },
    {
      "transactionHash": "0x8fb8f0352f557751873ef7e51ac3506e5be2f158ab5f52a04665f11edd82f360",
      "transactionIndex": "0x0",
      "blockHash": "0xe39135e09e5c710868b6c809044eb6925717cf9a1cca3add8de4c91d48a7edba",
      "blockNumber": "0x12cf6df",
      "from": "0xA9DdD91249DFdd450E81E1c56Ab60E1A62651701",
      "to": "0xBBBBBbbBBb9cC5e90e3b3Af64bdAF62C37EEFFCb",
      "cumulativeGasUsed": "0x2252a",
      "gasUsed": "0x2252a",
      "contractAddress": null,
      "logs": [
        {
          "address": "0x870aC11D48B15DB9a138Cf899d20F13F79Ba00BC",
          "topics": [
            "0x7120161a7b3d31251e01294ab351ef15a41b91659a36032e4641bb89b121e321",
            "0xbc010589ee2c9f4b0d3eb80b144684b0c2c64260a1338c1bd18516ce196df78f"
          ],
          "data": "0x0000000000000000000000000000000000000000000000000000000012e686c4000000000000000000000000000000000000000000000000000000004b9a1723",
          "blockHash": "0xe39135e09e5c710868b6c809044eb6925717cf9a1cca3add8de4c91d48a7edba",
          "blockNumber": "0x12cf6df",
          "transactionHash": "0x8fb8f0352f557751873ef7e51ac3506e5be2f158ab5f52a04665f11edd82f360",
          "transactionIndex": "0x0",
          "logIndex": "0x0",
          "removed": false
        },
        {
          "address": "0xBBBBBbbBBb9cC5e90e3b3Af64bdAF62C37EEFFCb",
          "topics": [
            "0x9d9bd501d0657d7dfe415f779a620a62b78bc508ddc0891fbbd8b7ac0f8fce87",
            "0xbc010589ee2c9f4b0d3eb80b144684b0c2c64260a1338c1bd18516ce196df78f"
          ],
          "data": "0x0000000000000000000000000000000000000000000000000000000012e686c400000000000000000000000000000000000000000000000000000000000000000000000000000000000000000000000000000000000000000000000000000000",
          "blockHash": "0xe39135e09e5c710868b6c809044eb6925717cf9a1cca3add8de4c91d48a7edba",
          "blockNumber": "0x12cf6df",
          "transactionHash": "0x8fb8f0352f557751873ef7e51ac3506e5be2f158ab5f52a04665f11edd82f360",
          "transactionIndex": "0x0",
          "logIndex": "0x1",
          "removed": false
        },
        {
          "address": "0xBBBBBbbBBb9cC5e90e3b3Af64bdAF62C37EEFFCb",
          "topics": [
            "0x570954540bed6b1304a87dfe815a5eda4a648f7097a16240dcd85c9b5fd42a43",
            "0xbc010589ee2c9f4b0d3eb80b144684b0c2c64260a1338c1bd18516ce196df78f",
            "0x000000000000000000000000a9ddd91249dfdd450e81e1c56ab60e1a62651701",
            "0x000000000000000000000000a9ddd91249dfdd450e81e1c56ab60e1a62651701"
          ],
          "data": "0x000000000000000000000000a9ddd91249dfdd450e81e1c56ab60e1a62651701000000000000000000000000000000000000000000000001158e460913d00000000000000000000000000000000000000000000000108b2a2c28029094000000",
          "blockHash": "0xe39135e09e5c710868b6c809044eb6925717cf9a1cca3add8de4c91d48a7edba",
          "blockNumber": "0x12cf6df",
          "transactionHash": "0x8fb8f0352f557751873ef7e51ac3506e5be2f158ab5f52a04665f11edd82f360",
          "transactionIndex": "0x0",
          "logIndex": "0x2",
          "removed": false
        },
        {
          "address": "0x0000206329b97DB379d5E1Bf586BbDB969C63274",
          "topics": [
            "0xddf252ad1be2c89b69c2b068fc378daa952ba7f163c4a11628f55a4df523b3ef",
            "0x000000000000000000000000bbbbbbbbbb9cc5e90e3b3af64bdaf62c37eeffcb",
            "0x000000000000000000000000a9ddd91249dfdd450e81e1c56ab60e1a62651701"
          ],
          "data": "0x000000000000000000000000000000000000000000000001158e460913d00000",
          "blockHash": "0xe39135e09e5c710868b6c809044eb6925717cf9a1cca3add8de4c91d48a7edba",
          "blockNumber": "0x12cf6df",
          "transactionHash": "0x8fb8f0352f557751873ef7e51ac3506e5be2f158ab5f52a04665f11edd82f360",
          "transactionIndex": "0x0",
          "logIndex": "0x3",
          "removed": false
        }
      ],
      "status": "0x1",
      "logsBloom": "0x00000000000000000002000000000080000000000000000000000000000000000000400000000000000000000000000000000000000000000000000020844000000000000010000002000008000004000000000000200000000000080000000000000000000000000000000000000000000000000000000000000010000000000000000000000008000000000000000000000000000000000000000000000000800000000000000000000000000000000000020000000000800000080000000020000002000000000001000000000000000000004000000000000000000000000000004001000008000000200001000000000000000200000000000000004000",
      "type": "0x2",
      "effectiveGasPrice": "0x2a6658d7f"
    },
    {
      "transactionHash": "0x7e75d018f15cdcde903cf5a2d313be5f73f8021c323afc5737c532d81a95f982",
      "transactionIndex": "0x1",
      "blockHash": "0xe39135e09e5c710868b6c809044eb6925717cf9a1cca3add8de4c91d48a7edba",
      "blockNumber": "0x12cf6df",
      "from": "0xA9DdD91249DFdd450E81E1c56Ab60E1A62651701",
      "to": "0xbB2527E5D51d82d9FDB5188a9B86E7DA9f5ec733",
      "cumulativeGasUsed": "0x28cca",
      "gasUsed": "0x67a0",
      "contractAddress": null,
      "logs": [],
      "status": "0x1",
      "logsBloom": "0x00000000000000000000000000000000000000000000000000000000000000000000000000000000000000000000000000000000000000000000000000000000000000000000000000000000000000000000000000000000000000000000000000000000000000000000000000000000000000000000000000000000000000000000000000000000000000000000000000000000000000000000000000000000000000000000000000000000000000000000000000000000000000000000000000000000000000000000000000000000000000000000000000000000000000000000000000000000000000000000000000000000000000000000000000000000",
      "type": "0x2",
      "effectiveGasPrice": "0x2a6658d7f"
    }
  ],
  "libraries": [],
  "pending": [],
  "returns": {},
  "timestamp": 1713946814,
  "chain": 1,
  "multi": false,
  "commit": "2355add"
}