{
  "transactions": [
    {
      "hash": "0x1248a3f9049707427d4821645f149a1101225a5dd24d11cf5d575e50367a49da",
      "transactionType": "CREATE",
      "contractName": "MockCoreBorrow",
      "contractAddress": "0x147f4163756DB2EEE9092bb848603A9e7054c52D",
      "function": null,
      "arguments": null,
      "transaction": {
        "type": "0x02",
        "from": "0xa9ddd91249dfdd450e81e1c56ab60e1a62651701",
        "gas": "0x66588",
        "value": "0x0",
        "data": "0x608060405234801561000f575f80fd5b506104e38061001d5f395ff3fe608060405234801561000f575f80fd5b50600436106100da575f3560e01c80636166632d11610088578063e42456c811610063578063e42456c814610212578063e43581b814610248578063f02dd8a214610273578063fce53df61461029e575f80fd5b80636166632d146101a757806366234daa146101dd578063e3eece26146101f0575f80fd5b80634bf15fab116100b85780634bf15fab1461014b578063521d4de91461015e5780635480278b14610171575f80fd5b80630633b14a146100de5780632d3a1a05146101145780633b529ddf14610136575b5f80fd5b6101006100ec366004610454565b60026020525f908152604090205460ff1681565b604051901515815260200160405180910390f35b610100610122366004610454565b5f6020819052908152604090205460ff1681565b610149610144366004610476565b6102b1565b005b610149610159366004610476565b610325565b61010061016c366004610454565b61036c565b61014961017f366004610454565b6001600160a01b03165f908152600260205260409020805460ff19811660ff90911615179055565b6101496101b5366004610454565b6001600160a01b03165f908152600160205260409020805460ff19811660ff90911615179055565b6101496101eb366004610476565b6103af565b6101006101fe366004610454565b60016020525f908152604090205460ff1681565b610149610220366004610454565b6001600160a01b03165f908152602081905260409020805460ff19811660ff90911615179055565b610100610256366004610454565b6001600160a01b03165f9081526001602052604090205460ff1690565b610100610281366004610454565b6001600160a01b03165f9081526020819052604090205460ff1690565b6101496102ac366004610476565b6103f6565b6040517f543bd6470000000000000000000000000000000000000000000000000000000081526001600160a01b03828116600483015283169063543bd647906024015b5f604051808303815f87803b15801561030b575f80fd5b505af115801561031d573d5f803e3d5ffd5b505050505050565b6040517f800096300000000000000000000000000000000000000000000000000000000081526001600160a01b0382811660048301528316906380009630906024016102f4565b6001600160a01b0381165f9081526001602052604081205460ff16806103a957506001600160a01b0382165f9081526002602052604090205460ff165b92915050565b6040517f21c29f920000000000000000000000000000000000000000000000000000000081526001600160a01b0382811660048301528316906321c29f92906024016102f4565b6040517f442320c10000000000000000000000000000000000000000000000000000000081526001600160a01b03828116600483015283169063442320c1906024016102f4565b6001600160a01b0381168114610451575f80fd5b50565b5f60208284031215610464575f80fd5b813561046f8161043d565b9392505050565b5f8060408385031215610487575f80fd5b82356104928161043d565b915060208301356104a28161043d565b80915050925092905056fea2646970667358221220393f7b4f94809c524807212a6f69aa55a2bf7207586f41c5ebbb10bedd44638e64736f6c63430008160033",
        "nonce": "0xa0",
        "accessList": []
      },
      "additionalContracts": [],
      "isFixedGasLimit": false
    },
    {
      "hash": "0x79def31ca37632f9e53bc333d2164729408cf2ce801b060d367a3c8cbf7cb1a0",
      "transactionType": "CALL",
      "contractName": "MockCoreBorrow",
      "contractAddress": "0x147f4163756DB2EEE9092bb848603A9e7054c52D",
      "function": "toggleGuardian(address)",
      "arguments": [
        "0xA9DdD91249DFdd450E81E1c56Ab60E1A62651701"
      ],
      "transaction": {
        "type": "0x02",
        "from": "0xa9ddd91249dfdd450e81e1c56ab60e1a62651701",
        "to": "0x147f4163756db2eee9092bb848603a9e7054c52d",
        "gas": "0xfb61",
        "value": "0x0",
        "data": "0x5480278b000000000000000000000000a9ddd91249dfdd450e81e1c56ab60e1a62651701",
        "nonce": "0xa1",
        "accessList": []
      },
      "additionalContracts": [],
      "isFixedGasLimit": false
    },
    {
      "hash": "0xa65d1d7cbbd905e8cf4b7b434f2157d21cc097610a6fcdf9fc2c8627d2237287",
      "transactionType": "CALL",
      "contractName": null,
      "contractAddress": "0x0000206329b97DB379d5E1Bf586BbDB969C63274",
      "function": "approve(address,uint256)",
      "arguments": [
        "0xBBBBBbbBBb9cC5e90e3b3Af64bdAF62C37EEFFCb",
        "115792089237316195423570985008687907853269984665640564039457584007913129639935"
      ],
      "transaction": {
        "type": "0x02",
        "from": "0xa9ddd91249dfdd450e81e1c56ab60e1a62651701",
        "to": "0x0000206329b97db379d5e1bf586bbdb969c63274",
        "gas": "0xb665",
        "value": "0x0",
        "data": "0x095ea7b3000000000000000000000000bbbbbbbbbb9cc5e90e3b3af64bdaf62c37eeffcbffffffffffffffffffffffffffffffffffffffffffffffffffffffffffffffff",
        "nonce": "0xa2",
        "accessList": []
      },
      "additionalContracts": [],
      "isFixedGasLimit": false
    },
    {
      "hash": "0x6e4c7464ba7acca081cd6a0fd9c249ff582c3d101ad04ab316c29b382da25d6e",
      "transactionType": "CREATE",
      "contractName": "ERC4626LevSwapperMorphoGauntletUSDCPrime",
      "contractAddress": "0xC9dfD5c18F12a3BA6293001700810602efe0c45B",
      "function": null,
      "arguments": [
        "0x147f4163756DB2EEE9092bb848603A9e7054c52D",
        "0xE592427A0AEce92De3Edee1F18E0157C05861564",
        "0x111111125421cA6dc452d289314280a0f8842A65",
        "0x4579709627CA36BCe92f51ac975746f431890930",
        "0xBBBBBbbBBb9cC5e90e3b3Af64bdAF62C37EEFFCb"
      ],
      "transaction": {
        "type": "0x02",
        "from": "0xa9ddd91249dfdd450e81e1c56ab60e1a62651701",
        "gas": "0x2aaa1b",
        "value": "0x0",
        "data": "0x60e060405234801562000010575f80fd5b5060405162002b1a38038062002b1a83398101604081905262000033916200055f565b8484848484848484848484848484838383836001600160a01b03841615806200006357506001600160a01b038216155b806200007657506001600160a01b038116155b15620000955760405163d92e233d60e01b815260040160405180910390fd5b6001600160a01b0393841660805291831660a0525f80546001600160a01b031916918416919091178155911660c052620000cc5f90565b6001600160a01b0316146200015757620001575f5f195f6001600160a01b03166338d52e0f6040518163ffffffff1660e01b81526004016020604051808303815f875af115801562000120573d5f803e3d5ffd5b505050506040513d601f19601f82011682018060405250810190620001469190620005db565b6001600160a01b03169190620001e3565b5050600180546001600160a01b0319166001600160a01b039490941693909317909255505f94506200018e9350620002c692505050565b6001600160a01b031614620001d357620001d373dd0f28e19c1780eb6396170735d45153d261490d5f1973a0b86991c6218b36c1d19d4a2e9eb0ce3606eb4862000146565b50505050505050505050620006cd565b604051636eb1769f60e11b81523060048201526001600160a01b0383811660248301525f91839186169063dd62ed3e90604401602060405180830381865afa15801562000232573d5f803e3d5ffd5b505050506040513d601f19601f82011682018060405250810190620002589190620005f9565b62000264919062000611565b604080516001600160a01b038616602482015260448082018490528251808303909101815260649091019091526020810180516001600160e01b0390811663095ea7b360e01b17909152919250620002c091869190620002de16565b50505050565b73a0b86991c6218b36c1d19d4a2e9eb0ce3606eb4890565b6040805180820190915260208082527f5361666545524332303a206c6f772d6c6576656c2063616c6c206661696c6564908201525f906200032c906001600160a01b038516908490620003b7565b805190915015620003b257808060200190518101906200034d919062000637565b620003b25760405162461bcd60e51b815260206004820152602a60248201527f5361666545524332303a204552433230206f7065726174696f6e20646964206e6044820152691bdd081cdd58d8d9595960b21b60648201526084015b60405180910390fd5b505050565b6060620003c784845f85620003d1565b90505b9392505050565b606082471015620004345760405162461bcd60e51b815260206004820152602660248201527f416464726573733a20696e73756666696369656e742062616c616e636520666f6044820152651c8818d85b1b60d21b6064820152608401620003a9565b6001600160a01b0385163b6200048d5760405162461bcd60e51b815260206004820152601d60248201527f416464726573733a2063616c6c20746f206e6f6e2d636f6e74726163740000006044820152606401620003a9565b5f80866001600160a01b03168587604051620004aa91906200067c565b5f6040518083038185875af1925050503d805f8114620004e6576040519150601f19603f3d011682016040523d82523d5f602084013e620004eb565b606091505b509092509050620004fe82828662000509565b979650505050505050565b606083156200051a575081620003ca565b8251156200052b5782518084602001fd5b8160405162461bcd60e51b8152600401620003a9919062000699565b6001600160a01b03811681146200055c575f80fd5b50565b5f805f805f60a0868803121562000574575f80fd5b8551620005818162000547565b6020870151909550620005948162000547565b6040870151909450620005a78162000547565b6060870151909350620005ba8162000547565b6080870151909250620005cd8162000547565b809150509295509295909350565b5f60208284031215620005ec575f80fd5b8151620003ca8162000547565b5f602082840312156200060a575f80fd5b5051919050565b808201808211156200063157634e487b7160e01b5f52601160045260245ffd5b92915050565b5f6020828403121562000648575f80fd5b81518015158114620003ca575f80fd5b5f5b83811015620006745781810151838201526020016200065a565b50505f910152565b5f82516200068f81846020870162000658565b9190910192915050565b602081525f8251806020840152620006b981604085016020870162000658565b601f01601f19169190910160400192915050565b60805160a05160c0516123f2620007285f395f818160ee01528181610f660152610fbf01525f818161015d01528181610dad0152610e2601525f8181610211015281816102fd0152818161066101526107d601526123f25ff3fe608060405234801561000f575f80fd5b50600436106100e5575f3560e01c8063a5d4096b11610088578063cf7ea19611610063578063cf7ea196146101e6578063d8fbc833146101f9578063f2f4eb261461020c578063fc0c546a14610233575f80fd5b8063a5d4096b146101ad578063b82c4dc1146101c0578063c56a6c01146101d3575f80fd5b80635fafa589116100c35780635fafa5891461015857806387cb0f511461017f5780638a971d91146101945780639fe4ee471461019a575f80fd5b80630b6942c2146100e9578063245a7bfc1461012c57806338d52e0f1461013e575b5f80fd5b6101107f000000000000000000000000000000000000000000000000000000000000000081565b6040516001600160a01b03909116815260200160405180910390f35b5f54610110906001600160a01b031681565b73a0b86991c6218b36c1d19d4a2e9eb0ce3606eb48610110565b6101107f000000000000000000000000000000000000000000000000000000000000000081565b61019261018d3660046118dc565b61024d565b005b5f610110565b6101926101a83660046119a5565b6102e8565b6101926101bb366004611a39565b6103f9565b6101926101ce366004611afc565b61064c565b6101926101e13660046119a5565b6107c1565b6101926101f4366004611b8f565b6108d4565b600154610110906001600160a01b031681565b6101107f000000000000000000000000000000000000000000000000000000000000000081565b73dd0f28e19c1780eb6396170735d45153d261490d610110565b6001546040517fd8eabcb80000000000000000000000000000000000000000000000000000000081526001600160a01b039091169063d8eabcb8906102a0908890889088905f9089908990600401611bd3565b60408051808303815f875af11580156102bb573d5f803e3d5ffd5b505050506040513d601f19601f820116820180604052508101906102df9190611c5e565b50505050505050565b60405163521d4de960e01b81523360048201527f00000000000000000000000000000000000000000000000000000000000000006001600160a01b03169063521d4de990602401602060405180830381865afa15801561034a573d5f803e3d5ffd5b505050506040513d601f19601f8201168201806040525081019061036e9190611c8f565b61038b57604051632678482f60e21b815260040160405180910390fd5b6001600160a01b03811615806103ad57505f546001600160a01b038281169116145b156103cb5760405163d92e233d60e01b815260040160405180910390fd5b5f805473ffffffffffffffffffffffffffffffffffffffff19166001600160a01b0392909216919091179055565b5f805f838060200190518101906104109190611d0c565b9650919450925090506001600160a01b0383161561042e5782610430565b865b925061044f898683600481111561044957610449611d6d565b87610ad4565b6040516370a0823160e01b81523060048201525f906001600160a01b038a16906370a0823190602401602060405180830381865afa158015610493573d5f803e3d5ffd5b505050506040513d601f19601f820116820180604052508101906104b79190611d81565b9050828110156104da5760405163a1aabbe160e01b815260040160405180910390fd5b6040516370a0823160e01b81526001600160a01b0389811660048301525f91908b16906370a0823190602401602060405180830381865afa158015610521573d5f803e3d5ffd5b505050506040513d601f19601f820116820180604052508101906105459190611d81565b905087811015806105675750886001600160a01b0316856001600160a01b0316145b15610585576105806001600160a01b038b168684610b72565b6105bd565b6105a489610593838b611dac565b6001600160a01b038d169190610b72565b6105bd85896105b38585611dc5565b6105939190611dac565b6040516370a0823160e01b81523060048201526001600160a01b038c16906370a0823190602401602060405180830381865afa1580156105ff573d5f803e3d5ffd5b505050506040513d601f19601f820116820180604052508101906106239190611d81565b9650861561063f5761063f6001600160a01b038c168689610b72565b5050505050505050505050565b60405163521d4de960e01b81523360048201527f00000000000000000000000000000000000000000000000000000000000000006001600160a01b03169063521d4de990602401602060405180830381865afa1580156106ae573d5f803e3d5ffd5b505050506040513d601f19601f820116820180604052508101906106d29190611c8f565b6106ef57604051632678482f60e21b815260040160405180910390fd5b8483811415806106ff5750808214155b15610736576040517f46282e8d00000000000000000000000000000000000000000000000000000000815260040160405180910390fd5b5f5b818110156107b7576107af88888381811061075557610755611dd8565b905060200201602081019061076a91906119a5565b87878481811061077c5761077c611dd8565b905060200201602081019061079191906119a5565b8686858181106107a3576107a3611dd8565b90506020020135610c20565b600101610738565b5050505050505050565b60405163521d4de960e01b81523360048201527f00000000000000000000000000000000000000000000000000000000000000006001600160a01b03169063521d4de990602401602060405180830381865afa158015610823573d5f803e3d5ffd5b505050506040513d601f19601f820116820180604052508101906108479190611c8f565b61086457604051632678482f60e21b815260040160405180910390fd5b6001600160a01b038116158061088757506001546001600160a01b038281169116145b156108a55760405163d92e233d60e01b815260040160405180910390fd5b6001805473ffffffffffffffffffffffffffffffffffffffff19166001600160a01b0392909216919091179055565b6001546001600160a01b03163314610918576040517fc22a648e00000000000000000000000000000000000000000000000000000000815260040160405180910390fd5b5f805f8380602001905181019061092f9190611dec565b805190975092955090935091505f90819081906109559088016020908101908901611d0c565b99509194509250905061097b868583600481111561097557610975611d6d565b8a610ad4565b6040516370a0823160e01b81523060048201525f906001600160a01b038716906370a0823190602401602060405180830381865afa1580156109bf573d5f803e3d5ffd5b505050506040513d601f19601f820116820180604052508101906109e39190611d81565b905082811015610a065760405163a1aabbe160e01b815260040160405180910390fd5b88811115610a2d57610a2d84610a1c8b84611dac565b6001600160a01b0389169190610b72565b6040516370a0823160e01b81523060048201526001600160a01b038816906370a0823190602401602060405180830381865afa158015610a6f573d5f803e3d5ffd5b505050506040513d601f19601f82011682018060405250810190610a939190611d81565b94508415610aaf57610aaf6001600160a01b0388168587610b72565b600154610ac9906001600160a01b0388811691168b610cf7565b505050505050505050565b5f826004811115610ae757610ae7611d6d565b03610afd57610af7848483610da6565b50610b6c565b6001826004811115610b1157610b11611d6d565b03610b2057610af78482610ea2565b6002826004811115610b3457610b34611d6d565b03610b4857610b438482610f46565b610b6c565b6003826004811115610b5c57610b5c611d6d565b03610b6c57610b6a81611021565b505b50505050565b6040516001600160a01b038316602482015260448101829052610c1b9084907fa9059cbb00000000000000000000000000000000000000000000000000000000906064015b60408051601f198184030181529190526020810180517bffffffffffffffffffffffffffffffffffffffffffffffffffffffff167fffffffff00000000000000000000000000000000000000000000000000000000909316929092179091526110c4565b505050565b604051636eb1769f60e11b81523060048201526001600160a01b0383811660248301525f919085169063dd62ed3e90604401602060405180830381865afa158015610c6d573d5f803e3d5ffd5b505050506040513d601f19601f82011682018060405250810190610c919190611d81565b90508181108015610cac5750610ca960025f19611e3e565b81105b15610cd057610b4383610cbf8385611dac565b6001600160a01b0387169190610cf7565b81811115610b6c57610b6c83610ce68484611dac565b6001600160a01b03871691906111ad565b604051636eb1769f60e11b81523060048201526001600160a01b0383811660248301525f91839186169063dd62ed3e90604401602060405180830381865afa158015610d45573d5f803e3d5ffd5b505050506040513d601f19601f82011682018060405250810190610d699190611d81565b610d739190611dc5565b6040516001600160a01b038516602482015260448101829052909150610b6c90859063095ea7b360e01b90606401610bb7565b5f610dd2847f0000000000000000000000000000000000000000000000000000000000000000856112ca565b6040805160a0810182528381523060208201524281830152606081018590525f608082015290517fc04b8d590000000000000000000000000000000000000000000000000000000081526001600160a01b037f0000000000000000000000000000000000000000000000000000000000000000169163c04b8d5991610e5a9190600401611e88565b6020604051808303815f875af1158015610e76573d5f803e3d5ffd5b505050506040513d601f19601f82011682018060405250810190610e9a9190611d81565b949350505050565b5f8054610ebb9084906001600160a01b03165f19610c20565b5f805460405182916001600160a01b031690610ed8908690611ee0565b5f604051808303815f865af19150503d805f8114610f11576040519150601f19603f3d011682016040523d82523d5f602084013e610f16565b606091505b509150915081610f2957610f2981611354565b80806020019051810190610f3d9190611d81565b95945050505050565b5f8082806020019051810190610f5c9190611fa4565b91509150610f8c847f00000000000000000000000000000000000000000000000000000000000000005f19610c20565b6040517f848c48da0000000000000000000000000000000000000000000000000000000081526060906001600160a01b037f0000000000000000000000000000000000000000000000000000000000000000169063848c48da90610ff89084908790879060040161210a565b5f604051808303815f87803b15801561100f575f80fd5b505af1158015610ac9573d5f803e3d5ffd5b5f805f60608480602001905181019061103a91906121c3565b965090935091508215611078578480602001905181019061105b9190612220565b9550905061106881611395565b61107185611414565b93506110bc565b5f806060878060200190518101906110909190612276565b9b509650919450925090506110a5828961153a565b6110ae84611395565b6110b8818661161a565b5050505b505050919050565b5f611118826040518060400160405280602081526020017f5361666545524332303a206c6f772d6c6576656c2063616c6c206661696c6564815250856001600160a01b03166116f39092919063ffffffff16565b805190915015610c1b57808060200190518101906111369190611c8f565b610c1b5760405162461bcd60e51b815260206004820152602a60248201527f5361666545524332303a204552433230206f7065726174696f6e20646964206e60448201527f6f7420737563636565640000000000000000000000000000000000000000000060648201526084015b60405180910390fd5b604051636eb1769f60e11b81523060048201526001600160a01b0383811660248301525f919085169063dd62ed3e90604401602060405180830381865afa1580156111fa573d5f803e3d5ffd5b505050506040513d601f19601f8201168201806040525081019061121e9190611d81565b9050818110156112965760405162461bcd60e51b815260206004820152602960248201527f5361666545524332303a2064656372656173656420616c6c6f77616e6365206260448201527f656c6f77207a65726f000000000000000000000000000000000000000000000060648201526084016111a4565b6040516001600160a01b03841660248201528282036044820181905290610b6a90869063095ea7b360e01b90606401610bb7565b604051636eb1769f60e11b81523060048201526001600160a01b0383811660248301525f919085169063dd62ed3e90604401602060405180830381865afa158015611317573d5f803e3d5ffd5b505050506040513d601f19601f8201168201806040525081019061133b9190611d81565b905081811015610b6c57610b6c83610cbf835f19611dac565b80511561136357805181602001fd5b6040517f6a8df6a800000000000000000000000000000000000000000000000000000000815260040160405180910390fd5b80515f5b81811015610c1b575f805f8584815181106113b6576113b6611dd8565b60200260200101518060200190518101906113d1919061236a565b9250925092505f6113e28483610ea2565b9050828110156114055760405163a1aabbe160e01b815260040160405180910390fd5b50505050806001019050611399565b5f8073a0b86991c6218b36c1d19d4a2e9eb0ce3606eb486040516370a0823160e01b81523060048201526001600160a01b0391909116906370a0823190602401602060405180830381865afa15801561146f573d5f803e3d5ffd5b505050506040513d601f19601f820116820180604052508101906114939190611d81565b905073dd0f28e19c1780eb6396170735d45153d261490d6040517f6e553f65000000000000000000000000000000000000000000000000000000008152600481018390523060248201526001600160a01b039190911690636e553f65906044016020604051808303815f875af115801561150f573d5f803e3d5ffd5b505050506040513d601f19601f820116820180604052508101906115339190611d81565b9392505050565b5f8180602001905181019061154f9190611d81565b90505f73dd0f28e19c1780eb6396170735d45153d261490d6040517fba08765200000000000000000000000000000000000000000000000000000000815260048101869052306024820181905260448201526001600160a01b03919091169063ba087652906064016020604051808303815f875af11580156115d3573d5f803e3d5ffd5b505050506040513d601f19601f820116820180604052508101906115f79190611d81565b905081811015610b6c5760405163a1aabbe160e01b815260040160405180910390fd5b81515f5b81811015610b6c575f84828151811061163957611639611dd8565b60209081029190910101516040516370a0823160e01b81523060048201526001600160a01b03909116906370a0823190602401602060405180830381865afa158015611687573d5f803e3d5ffd5b505050506040513d601f19601f820116820180604052508101906116ab9190611d81565b905080156116ea576116ea84828785815181106116ca576116ca611dd8565b60200260200101516001600160a01b0316610b729092919063ffffffff16565b5060010161161e565b6060610e9a84845f85856001600160a01b0385163b6117545760405162461bcd60e51b815260206004820152601d60248201527f416464726573733a2063616c6c20746f206e6f6e2d636f6e747261637400000060448201526064016111a4565b5f80866001600160a01b0316858760405161176f9190611ee0565b5f6040518083038185875af1925050503d805f81146117a9576040519150601f19603f3d011682016040523d82523d5f602084013e6117ae565b606091505b50915091506117be8282866117c9565b979650505050505050565b606083156117d8575081611533565b8251156117e85782518084602001fd5b8160405162461bcd60e51b81526004016111a491906123aa565b634e487b7160e01b5f52604160045260245ffd5b60405160a0810167ffffffffffffffff8111828210171561183957611839611802565b60405290565b604051601f8201601f1916810167ffffffffffffffff8111828210171561186857611868611802565b604052919050565b6001600160a01b0381168114611884575f80fd5b50565b803561189281611870565b919050565b5f8083601f8401126118a7575f80fd5b50813567ffffffffffffffff8111156118be575f80fd5b6020830191508360208285010111156118d5575f80fd5b9250929050565b5f805f805f8587036101008112156118f2575f80fd5b60a08112156118ff575f80fd5b50611908611816565b863561191381611870565b8152602087013561192381611870565b6020820152604087013561193681611870565b6040820152606087013561194981611870565b606082015260808781013590820152945061196660a08701611887565b935060c0860135925060e086013567ffffffffffffffff811115611988575f80fd5b61199488828901611897565b969995985093965092949392505050565b5f602082840312156119b5575f80fd5b813561153381611870565b5f67ffffffffffffffff8211156119d9576119d9611802565b50601f01601f191660200190565b5f82601f8301126119f6575f80fd5b8135611a09611a04826119c0565b61183f565b818152846020838601011115611a1d575f80fd5b816020850160208301375f918101602001919091529392505050565b5f805f805f8060c08789031215611a4e575f80fd5b8635611a5981611870565b95506020870135611a6981611870565b94506040870135611a7981611870565b9350606087013592506080870135915060a087013567ffffffffffffffff811115611aa2575f80fd5b611aae89828a016119e7565b9150509295509295509295565b5f8083601f840112611acb575f80fd5b50813567ffffffffffffffff811115611ae2575f80fd5b6020830191508360208260051b85010111156118d5575f80fd5b5f805f805f8060608789031215611b11575f80fd5b863567ffffffffffffffff80821115611b28575f80fd5b611b348a838b01611abb565b90985096506020890135915080821115611b4c575f80fd5b611b588a838b01611abb565b90965094506040890135915080821115611b70575f80fd5b50611b7d89828a01611abb565b979a9699509497509295939492505050565b5f8060408385031215611ba0575f80fd5b82359150602083013567ffffffffffffffff811115611bbd575f80fd5b611bc9858286016119e7565b9150509250929050565b5f6101206001600160a01b03808a511684528060208b01511660208501528060408b01511660408501528060608b015116606085015260808a0151608085015280891660a0850152508660c08401528560e0840152806101008401528381840152506101408385828501375f838501820152601f909301601f19169091019091019695505050505050565b5f8060408385031215611c6f575f80fd5b505080516020909101519092909150565b80518015158114611892575f80fd5b5f60208284031215611c9f575f80fd5b61153382611c80565b5f5b83811015611cc2578181015183820152602001611caa565b50505f910152565b5f82601f830112611cd9575f80fd5b8151611ce7611a04826119c0565b818152846020838601011115611cfb575f80fd5b610e9a826020830160208701611ca8565b5f805f8060808587031215611d1f575f80fd5b8451611d2a81611870565b809450506020850151925060408501519150606085015167ffffffffffffffff811115611d55575f80fd5b611d6187828801611cca565b91505092959194509250565b634e487b7160e01b5f52602160045260245ffd5b5f60208284031215611d91575f80fd5b5051919050565b634e487b7160e01b5f52601160045260245ffd5b81810381811115611dbf57611dbf611d98565b92915050565b80820180821115611dbf57611dbf611d98565b634e487b7160e01b5f52603260045260245ffd5b5f805f8060808587031215611dff575f80fd5b8451611e0a81611870565b6020860151909450611e1b81611870565b60408601516060870151919450925067ffffffffffffffff811115611d55575f80fd5b5f82611e5857634e487b7160e01b5f52601260045260245ffd5b500490565b5f8151808452611e74816020860160208601611ca8565b601f01601f19169290920160200192915050565b602081525f825160a06020840152611ea360c0840182611e5d565b90506001600160a01b0360208501511660408401526040840151606084015260608401516080840152608084015160a08401528091505092915050565b5f8251611ef1818460208701611ca8565b9190910192915050565b5f67ffffffffffffffff821115611f1457611f14611802565b5060051b60200190565b5f82601f830112611f2d575f80fd5b81516020611f3d611a0483611efb565b82815260059290921b84018101918181019086841115611f5b575f80fd5b8286015b84811015611f9957805167ffffffffffffffff811115611f7d575f80fd5b611f8b8986838b0101611cca565b845250918301918301611f5f565b509695505050505050565b5f8060408385031215611fb5575f80fd5b825167ffffffffffffffff80821115611fcc575f80fd5b818501915085601f830112611fdf575f80fd5b81516020611fef611a0483611efb565b82815260059290921b8401810191818101908984111561200d575f80fd5b948201945b83861015612037578551600e8110612028575f80fd5b82529482019490820190612012565b9188015191965090935050508082111561204f575f80fd5b50611bc985828601611f1e565b5f815180845260208085019450602084015f5b838110156120a7578151600e811061209557634e487b7160e01b5f52602160045260245ffd5b8752958201959082019060010161206f565b509495945050505050565b5f8282518085526020808601955060208260051b840101602086015f5b848110156120fd57601f198684030189526120eb838351611e5d565b988401989250908301906001016120cf565b5090979650505050505050565b606080825284518282018190525f9190608090818501906020808a01865b8381101561218d57815180516001600160a01b0390811687528482015116848701526040808201519087015287810151888701528681015160ff168787015260a0808201519087015260c0908101519086015260e09094019390820190600101612128565b5050505084810360208601526121a3818861205c565b9250505082810360408401526121b981856120b2565b9695505050505050565b5f805f606084860312156121d5575f80fd5b6121de84611c80565b925060208401516121ee81611870565b604085015190925067ffffffffffffffff81111561220a575f80fd5b61221686828701611cca565b9150509250925092565b5f8060408385031215612231575f80fd5b825167ffffffffffffffff80821115612248575f80fd5b61225486838701611f1e565b93506020850151915080821115612269575f80fd5b50611bc985828601611cca565b5f805f805f60a0868803121561228a575f80fd5b855194506020808701519450604087015167ffffffffffffffff808211156122b0575f80fd5b818901915089601f8301126122c3575f80fd5b81516122d1611a0482611efb565b81815260059190911b8301840190848101908c8311156122ef575f80fd5b938501935b8285101561231657845161230781611870565b825293850193908501906122f4565b60608c0151909850945050508083111561232e575f80fd5b61233a8a848b01611f1e565b9450608089015192508083111561234f575f80fd5b505061235d88828901611cca565b9150509295509295909350565b5f805f6060848603121561237c575f80fd5b835161238781611870565b60208501516040860151919450925067ffffffffffffffff81111561220a575f80fd5b602081525f6115336020830184611e5d56fea2646970667358221220f4ae1ee567f8a8662faf30a72dcdc4fd31baa79050f1829dbca76a6d5487127364736f6c63430008160033000000000000000000000000147f4163756db2eee9092bb848603a9e7054c52d000000000000000000000000e592427a0aece92de3edee1f18e0157c05861564000000000000000000000000111111125421ca6dc452d289314280a0f8842a650000000000000000000000004579709627ca36bce92f51ac975746f431890930000000000000000000000000bbbbbbbbbb9cc5e90e3b3af64bdaf62c37eeffcb",
        "nonce": "0xa3",
        "accessList": []
      },
      "additionalContracts": [],
      "isFixedGasLimit": false
    },
    {
      "hash": "0xaed089d5c5b8190ab074d89c69dc34c692bb15e3d39fd2cf1f2d3c80fe324906",
      "transactionType": "CALL",
      "contractName": null,
      "contractAddress": "0x3A7bB36Ee3f3eE32A60e9f2b33c1e5f2E83ad766",
      "function": null,
      "arguments": null,
      "transaction": {
        "type": "0x02",
        "from": "0xa9ddd91249dfdd450e81e1c56ab60e1a62651701",
        "to": "0x3a7bb36ee3f3ee32a60e9f2b33c1e5f2e83ad766",
        "gas": "0xce97b",
        "value": "0x0",
        "data": "0xb32cddf4000000000000000000000000dd0f28e19c1780eb6396170735d45153d261490d0000000000000000000000000000000000000000000000000de0b6b3a76400000000000000000000000000008fffffd4afb6115b954bd326cbe7b4ba576818f600000000000000000000000000000000000000000000000000000000000000000000000000000000000000000000000000000000000000000000000000000006000000000000000000000000000000000000000000000000000000000000000000000000000000000000000000000000000000000000000000000000000000010000000000000000000000000000000000000000000000000000000000000000000000000000000000000000000000000000000000000000000000000000000000000000000000000000000000000000000000000000000000000000000000120000000000000000000000000000000000000000000000000000000000000000",
        "nonce": "0xa4",
        "accessList": []
      },
      "additionalContracts": [
        {
          "transactionType": "CREATE2",
          "address": "0x3B8c4A340336941524DE276FF730b3Be71157B55",
          "initCode": "0x6101a08060405234620002fa578062000f1e803803809162000022828562000331565b833961014092839181010312620002fa576200003e8162000355565b91602082015190620000536040840162000355565b90620000626060850162000355565b926080850151956200007760a0870162000355565b9060c0870151956200008c60e0890162000355565b95610100996200009e8b8b0162000355565b6101209a8b0151956001600160a01b0386811615801590620002ef575b620000d190620000ca6200036a565b90620003bf565b811615801590620002e4575b620000ec90620000ca6200036a565b8715956200015a6040516200010181620002ff565b601f8152620001397f7661756c7420636f6e76657273696f6e2073616d706c65206973207a65726f00918260208201528a15620003bf565b604051906200014882620002ff565b601f825260208201528d1515620003bf565b6080528760a05260c0528960e052828c52838b5288885261016098818a52602496870190818811620002cf57620001bd620001ca94620001c4620001bd95620001b6620001bd620001d19b9a97620001b6620001ca986200045b565b9062000429565b916200045b565b6200044d565b906200044d565b604d8111620002ba57600a0a868102968188041490151715620002a5576200029157506101809304835260405193610a269586620004f8873960805186818161014b0152610304015260a0518681816102e301526105b9015260c0518681816103ac0152610560015260e05186818161038b01526104f301525185818160d9015261032d0152518481816101b9015261035c0152518381816103d5015261049a01525182818161027f01526103fe01525181818161021201526104250152f35b634e487b7160e01b60009081526012600452fd5b50634e487b7160e01b60009081526011600452fd5b82634e487b7160e01b60005260116004526000fd5b87634e487b7160e01b60005260116004526000fd5b5060018b14620000dd565b5060018914620000bb565b600080fd5b604081019081106001600160401b038211176200031b57604052565b634e487b7160e01b600052604160045260246000fd5b601f909101601f19168101906001600160401b038211908210176200031b57604052565b51906001600160a01b0382168203620002fa57565b60405190606082016001600160401b038111838210176200031b5760405260228252616e6560f01b6040837f7661756c7420636f6e76657273696f6e2073616d706c65206973206e6f74206f60208201520152565b15620003c85750565b6040519062461bcd60e51b82528160208060048301528251908160248401526000935b8285106200040f575050604492506000838284010152601f80199101168101030190fd5b8481018201518686016044015293810193859350620003eb565b919082018092116200043757565b634e487b7160e01b600052601160045260246000fd5b919082039182116200043757565b6001600160a01b03168015620004f15760206004916040519283809263313ce56760e01b82525afa908115620004e5576000916200049b575b5060ff1690565b6020813d8211620004dc575b81620004b66020938362000331565b81010312620004d857519060ff82168203620004d5575060ff62000494565b80fd5b5080fd5b3d9150620004a7565b6040513d6000823e3d90fd5b5060009056fe60806040818152600436101561001457600080fd5b600091823560e01c908163054f7ac014610584575080632e6f20a614610516578063461739d2146104be57806356095e1114610450578063a035b1fe146102a3578063acfbd39e14610235578063ce4b5bbe146101dd578063dc53858c1461016f578063eaa2d7b4146101015763f50a47181461009057600080fd5b346100fd57817ffffffffffffffffffffffffffffffffffffffffffffffffffffffffffffffffc3601126100fd576020905173ffffffffffffffffffffffffffffffffffffffff7f0000000000000000000000000000000000000000000000000000000000000000168152f35b5080fd5b50346100fd57817ffffffffffffffffffffffffffffffffffffffffffffffffffffffffffffffffc3601126100fd576020905173ffffffffffffffffffffffffffffffffffffffff7f0000000000000000000000000000000000000000000000000000000000000000168152f35b50346100fd57817ffffffffffffffffffffffffffffffffffffffffffffffffffffffffffffffffc3601126100fd576020905173ffffffffffffffffffffffffffffffffffffffff7f0000000000000000000000000000000000000000000000000000000000000000168152f35b50346100fd57817ffffffffffffffffffffffffffffffffffffffffffffffffffffffffffffffffc3601126100fd57602090517f00000000000000000000000000000000000000000000000000000000000000008152f35b50346100fd57817ffffffffffffffffffffffffffffffffffffffffffffffffffffffffffffffffc3601126100fd576020905173ffffffffffffffffffffffffffffffffffffffff7f0000000000000000000000000000000000000000000000000000000000000000168152f35b50346100fd57817ffffffffffffffffffffffffffffffffffffffffffffffffffffffffffffffffc3601126100fd576020906104496103806103576103287f00000000000000000000000000000000000000000000000000000000000000007f000000000000000000000000000000000000000000000000000000000000000061094a565b6103517f00000000000000000000000000000000000000000000000000000000000000006107a5565b906105dc565b6103517f00000000000000000000000000000000000000000000000000000000000000006107a5565b6104226103f96103d07f00000000000000000000000000000000000000000000000000000000000000007f000000000000000000000000000000000000000000000000000000000000000061094a565b6103517f00000000000000000000000000000000000000000000000000000000000000006107a5565b6103517f00000000000000000000000000000000000000000000000000000000000000006107a5565b907f000000000000000000000000000000000000000000000000000000000000000061061e565b9051908152f35b50346100fd57817ffffffffffffffffffffffffffffffffffffffffffffffffffffffffffffffffc3601126100fd576020905173ffffffffffffffffffffffffffffffffffffffff7f0000000000000000000000000000000000000000000000000000000000000000168152f35b50346100fd57817ffffffffffffffffffffffffffffffffffffffffffffffffffffffffffffffffc3601126100fd57602090517f00000000000000000000000000000000000000000000000000000000000000008152f35b50346100fd57817ffffffffffffffffffffffffffffffffffffffffffffffffffffffffffffffffc3601126100fd576020905173ffffffffffffffffffffffffffffffffffffffff7f0000000000000000000000000000000000000000000000000000000000000000168152f35b8390346100fd57817ffffffffffffffffffffffffffffffffffffffffffffffffffffffffffffffffc3601126100fd576020907f00000000000000000000000000000000000000000000000000000000000000008152f35b818102929181159184041417156105ef57565b7f4e487b7100000000000000000000000000000000000000000000000000000000600052601160045260246000fd5b9091828202917fffffffffffffffffffffffffffffffffffffffffffffffffffffffffffffffff848209938380861095039480860395146106dc57848311156106b25782910981600003821680920460028082600302188083028203028083028203028083028203028083028203028083028203028092029003029360018380600003040190848311900302920304170290565b60046040517f227bc153000000000000000000000000000000000000000000000000000000008152fd5b5050809250156106ea570490565b7f4e487b7100000000000000000000000000000000000000000000000000000000600052601260045260246000fd5b90601f7fffffffffffffffffffffffffffffffffffffffffffffffffffffffffffffffe0910116810190811067ffffffffffffffff82111761075a57604052565b7f4e487b7100000000000000000000000000000000000000000000000000000000600052604160045260246000fd5b519069ffffffffffffffffffff821682036107a057565b600080fd5b73ffffffffffffffffffffffffffffffffffffffff1680156109445760049060a06040918251938480927ffeaf968c0000000000000000000000000000000000000000000000000000000082525afa918215610939576000926108e8575b50805181810181811067ffffffffffffffff82111761075a578252600f81526020917f6e6567617469766520616e73776572000000000000000000000000000000000083830152600084126108585750505090565b5180927f08c379a000000000000000000000000000000000000000000000000000000000825280600483015282519283602484015260005b8481106108d1575050507fffffffffffffffffffffffffffffffffffffffffffffffffffffffffffffffe0601f836000604480968601015201168101030190fd5b818101830151868201604401528593508201610890565b909160a0823d8211610931575b8161090260a09383610719565b8101031261092e575061091481610789565b50610926608060208301519201610789565b509038610803565b80fd5b3d91506108f5565b50513d6000823e3d90fd5b50600190565b73ffffffffffffffffffffffffffffffffffffffff169081156109e9576020906024604051809481937f07a2d13a00000000000000000000000000000000000000000000000000000000835260048301525afa9081156109dd576000916109af575090565b906020823d82116109d5575b816109c860209383610719565b8101031261092e57505190565b3d91506109bb565b6040513d6000823e3d90fd5b505060019056fea2646970667358221220de25ff8dd5708a691db44b0da1e6e734e7659c3f9a1801595bc1fa7bf902c00564736f6c63430008150033000000000000000000000000dd0f28e19c1780eb6396170735d45153d261490d0000000000000000000000000000000000000000000000000de0b6b3a76400000000000000000000000000008fffffd4afb6115b954bd326cbe7b4ba576818f60000000000000000000000000000000000000000000000000000000000000000000000000000000000000000000000000000000000000000000000000000000600000000000000000000000000000000000000000000000000000000000000000000000000000000000000000000000000000000000000000000000000000001000000000000000000000000000000000000000000000000000000000000000000000000000000000000000000000000000000000000000000000000000000000000000000000000000000000000000000000000000000000000000000000012"
        }
      ],
      "isFixedGasLimit": false
    },
    {
      "hash": "0xaaa09bb638c24e31f271e7cad055a9a5c2379a4174d49940dc8b56040ae6edf1",
      "transactionType": "CALL",
      "contractName": null,
      "contractAddress": "0xBBBBBbbBBb9cC5e90e3b3Af64bdAF62C37EEFFCb",
      "function": null,
      "arguments": null,
      "transaction": {
        "type": "0x02",
        "from": "0xa9ddd91249dfdd450e81e1c56ab60e1a62651701",
        "to": "0xbbbbbbbbbb9cc5e90e3b3af64bdaf62c37eeffcb",
        "gas": "0x47336",
        "value": "0x0",
        "data": "0x8c1358a20000000000000000000000000000206329b97db379d5e1bf586bbdb969c63274000000000000000000000000dd0f28e19c1780eb6396170735d45153d261490d0000000000000000000000003b8c4a340336941524de276ff730b3be71157b55000000000000000000000000870ac11d48b15db9a138cf899d20f13f79ba00bc0000000000000000000000000000000000000000000000000bef55718ad60000",
        "nonce": "0xa5",
        "accessList": []
      },
      "additionalContracts": [],
      "isFixedGasLimit": false
    },
    {
      "hash": "0x45f2b5dafc29e3ec41b86b17375c3907b5bb64ce4d65c040f8b936d4d55eec35",
      "transactionType": "CALL",
      "contractName": null,
      "contractAddress": "0xBBBBBbbBBb9cC5e90e3b3Af64bdAF62C37EEFFCb",
      "function": null,
      "arguments": null,
      "transaction": {
        "type": "0x02",
        "from": "0xa9ddd91249dfdd450e81e1c56ab60e1a62651701",
        "to": "0xbbbbbbbbbb9cc5e90e3b3af64bdaf62c37eeffcb",
        "gas": "0x22a1e",
        "value": "0x0",
        "data": "0xa99aad890000000000000000000000000000206329b97db379d5e1bf586bbdb969c63274000000000000000000000000dd0f28e19c1780eb6396170735d45153d261490d0000000000000000000000003b8c4a340336941524de276ff730b3be71157b55000000000000000000000000870ac11d48b15db9a138cf899d20f13f79ba00bc0000000000000000000000000000000000000000000000000bef55718ad60000000000000000000000000000000000000000000000000001e5b8fa8fe2ac00000000000000000000000000000000000000000000000000000000000000000000000000000000000000000000a9ddd91249dfdd450e81e1c56ab60e1a6265170100000000000000000000000000000000000000000000000000000000000001200000000000000000000000000000000000000000000000000000000000000000",
        "nonce": "0xa6",
        "accessList": []
      },
      "additionalContracts": [],
      "isFixedGasLimit": false
    },
    {
      "hash": "0x186ba131f2f5cbd1f6fbc898c421c6087b358552b910f7e6e94b1651b1e707af",
      "transactionType": "CALL",
      "contractName": null,
      "contractAddress": "0xdd0f28e19C1780eb6396170735D45153D261490d",
      "function": "approve(address,uint256)",
      "arguments": [
        "0xBBBBBbbBBb9cC5e90e3b3Af64bdAF62C37EEFFCb",
        "100000000000000000000"
      ],
      "transaction": {
        "type": "0x02",
        "from": "0xa9ddd91249dfdd450e81e1c56ab60e1a62651701",
        "to": "0xdd0f28e19c1780eb6396170735d45153d261490d",
        "gas": "0xf873",
        "value": "0x0",
        "data": "0x095ea7b3000000000000000000000000bbbbbbbbbb9cc5e90e3b3af64bdaf62c37eeffcb0000000000000000000000000000000000000000000000056bc75e2d63100000",
        "nonce": "0xa7",
        "accessList": []
      },
      "additionalContracts": [],
      "isFixedGasLimit": false
    },
    {
      "hash": "0xd70d5e4f53e9e9e25af3a8e992c6914bea780c1a3265775ce72ca7236ded3589",
      "transactionType": "CALL",
      "contractName": null,
      "contractAddress": "0xBBBBBbbBBb9cC5e90e3b3Af64bdAF62C37EEFFCb",
      "function": null,
      "arguments": null,
      "transaction": {
        "type": "0x02",
        "from": "0xa9ddd91249dfdd450e81e1c56ab60e1a62651701",
        "to": "0xbbbbbbbbbb9cc5e90e3b3af64bdaf62c37eeffcb",
        "gas": "0x1d196",
        "value": "0x0",
        "data": "0x238d65790000000000000000000000000000206329b97db379d5e1bf586bbdb969c63274000000000000000000000000dd0f28e19c1780eb6396170735d45153d261490d0000000000000000000000003b8c4a340336941524de276ff730b3be71157b55000000000000000000000000870ac11d48b15db9a138cf899d20f13f79ba00bc0000000000000000000000000000000000000000000000000bef55718ad600000000000000000000000000000000000000000000000000056bc75e2d63100000000000000000000000000000a9ddd91249dfdd450e81e1c56ab60e1a6265170100000000000000000000000000000000000000000000000000000000000001000000000000000000000000000000000000000000000000000000000000000000",
        "nonce": "0xa8",
        "accessList": []
      },
      "additionalContracts": [],
      "isFixedGasLimit": false
    },
    {
      "hash": "0xf81ddaad29a36a7eefdd7a94e4d0804561d388a3205abe1bd9390f5a06f30598",
      "transactionType": "CALL",
      "contractName": null,
      "contractAddress": "0xBBBBBbbBBb9cC5e90e3b3Af64bdAF62C37EEFFCb",
      "function": null,
      "arguments": null,
      "transaction": {
        "type": "0x02",
        "from": "0xa9ddd91249dfdd450e81e1c56ab60e1a62651701",
        "to": "0xbbbbbbbbbb9cc5e90e3b3af64bdaf62c37eeffcb",
        "gas": "0x4e8e3",
        "value": "0x0",
        "data": "0x50d8cd4b0000000000000000000000000000206329b97db379d5e1bf586bbdb969c63274000000000000000000000000dd0f28e19c1780eb6396170735d45153d261490d0000000000000000000000003b8c4a340336941524de276ff730b3be71157b55000000000000000000000000870ac11d48b15db9a138cf899d20f13f79ba00bc0000000000000000000000000000000000000000000000000bef55718ad60000000000000000000000000000000000000000000000000001158e460913d000000000000000000000000000000000000000000000000000000000000000000000000000000000000000000000a9ddd91249dfdd450e81e1c56ab60e1a62651701000000000000000000000000a9ddd91249dfdd450e81e1c56ab60e1a62651701",
        "nonce": "0xa9",
        "accessList": []
      },
      "additionalContracts": [],
      "isFixedGasLimit": false
    }
  ],
  "receipts": [
    {
      "transactionHash": "0x1248a3f9049707427d4821645f149a1101225a5dd24d11cf5d575e50367a49da",
      "transactionIndex": "0x0",
      "blockHash": "0x7a78ac0fbd9330cc724997dda4126ffb79f822f97145591ad2e88fe3946f68a1",
      "blockNumber": "0x12c1fa3",
      "from": "0xA9DdD91249DFdd450E81E1c56Ab60E1A62651701",
      "to": null,
      "cumulativeGasUsed": "0x4eba4",
      "gasUsed": "0x4eba4",
      "contractAddress": "0x147f4163756DB2EEE9092bb848603A9e7054c52D",
      "logs": [],
      "status": "0x1",
      "logsBloom": "0x00000000000000000000000000000000000000000000000000000000000000000000000000000000000000000000000000000000000000000000000000000000000000000000000000000000000000000000000000000000000000000000000000000000000000000000000000000000000000000000000000000000000000000000000000000000000000000000000000000000000000000000000000000000000000000000000000000000000000000000000000000000000000000000000000000000000000000000000000000000000000000000000000000000000000000000000000000000000000000000000000000000000000000000000000000000",
      "type": "0x2",
      "effectiveGasPrice": "0x409543e40"
    },
    {
      "transactionHash": "0x79def31ca37632f9e53bc333d2164729408cf2ce801b060d367a3c8cbf7cb1a0",
      "transactionIndex": "0x0",
      "blockHash": "0xfe695debef2747fe129fbd05c0553c4edb0f4e639733d145200a5e22d7609237",
      "blockNumber": "0x12c1fa4",
      "from": "0xA9DdD91249DFdd450E81E1c56Ab60E1A62651701",
      "to": "0x147f4163756DB2EEE9092bb848603A9e7054c52D",
      "cumulativeGasUsed": "0xabe3",
      "gasUsed": "0xabe3",
      "contractAddress": null,
      "logs": [],
      "status": "0x1",
      "logsBloom": "0x00000000000000000000000000000000000000000000000000000000000000000000000000000000000000000000000000000000000000000000000000000000000000000000000000000000000000000000000000000000000000000000000000000000000000000000000000000000000000000000000000000000000000000000000000000000000000000000000000000000000000000000000000000000000000000000000000000000000000000000000000000000000000000000000000000000000000000000000000000000000000000000000000000000000000000000000000000000000000000000000000000000000000000000000000000000",
      "type": "0x2",
      "effectiveGasPrice": "0x3a0cf9b54"
    },
    {
      "transactionHash": "0xa65d1d7cbbd905e8cf4b7b434f2157d21cc097610a6fcdf9fc2c8627d2237287",
      "transactionIndex": "0x0",
      "blockHash": "0xee9141aa42023739bc466c93b34e236096a53079ded97a750c1d0a4ada7113f7",
      "blockNumber": "0x12c1fa5",
      "from": "0xA9DdD91249DFdd450E81E1c56Ab60E1A62651701",
      "to": "0x0000206329b97DB379d5E1Bf586BbDB969C63274",
      "cumulativeGasUsed": "0x840e",
      "gasUsed": "0x840e",
      "contractAddress": null,
      "logs": [
        {
          "address": "0x0000206329b97DB379d5E1Bf586BbDB969C63274",
          "topics": [
            "0x8c5be1e5ebec7d5bd14f71427d1e84f3dd0314c0f7b2291e5b200ac8c7c3b925",
            "0x000000000000000000000000a9ddd91249dfdd450e81e1c56ab60e1a62651701",
            "0x000000000000000000000000bbbbbbbbbb9cc5e90e3b3af64bdaf62c37eeffcb"
          ],
          "data": "0xffffffffffffffffffffffffffffffffffffffffffffffffffffffffffffffff",
          "blockHash": "0xee9141aa42023739bc466c93b34e236096a53079ded97a750c1d0a4ada7113f7",
          "blockNumber": "0x12c1fa5",
          "transactionHash": "0xa65d1d7cbbd905e8cf4b7b434f2157d21cc097610a6fcdf9fc2c8627d2237287",
          "transactionIndex": "0x0",
          "logIndex": "0x0",
          "removed": false
        }
      ],
      "status": "0x1",
      "logsBloom": "0x00000000000000000000000000000080000000000000000000000000000000000000000000000000000000000000000000000000000000000000000000200000000000000000000000000000000004000000000000000000000000000000000000000000000000000000000000000000000000000000000000000000000000000000000000000000000000000000000000000000000000000000000000000000820000000000000000000000000000000000000000000000800000080000000000000000000000000000000000000000000000004000000000000000000000000010000001000000000000200000000000000000000000000000000000004000",
      "type": "0x2",
      "effectiveGasPrice": "0x343561b39"
    },
    {
      "transactionHash": "0x6e4c7464ba7acca081cd6a0fd9c249ff582c3d101ad04ab316c29b382da25d6e",
      "transactionIndex": "0x0",
      "blockHash": "0xaa957734988999b2e43d33635a6bb00ba37f4db91dc033c3fae203928cc6385b",
      "blockNumber": "0x12c1fa6",
      "from": "0xA9DdD91249DFdd450E81E1c56Ab60E1A62651701",
      "to": null,
      "cumulativeGasUsed": "0x20d19f",
      "gasUsed": "0x20d19f",
      "contractAddress": "0xC9dfD5c18F12a3BA6293001700810602efe0c45B",
      "logs": [
        {
          "address": "0xA0b86991c6218b36c1d19D4a2e9Eb0cE3606eB48",
          "topics": [
            "0x8c5be1e5ebec7d5bd14f71427d1e84f3dd0314c0f7b2291e5b200ac8c7c3b925",
            "0x000000000000000000000000c9dfd5c18f12a3ba6293001700810602efe0c45b",
            "0x000000000000000000000000dd0f28e19c1780eb6396170735d45153d261490d"
          ],
          "data": "0xffffffffffffffffffffffffffffffffffffffffffffffffffffffffffffffff",
          "blockHash": "0xaa957734988999b2e43d33635a6bb00ba37f4db91dc033c3fae203928cc6385b",
          "blockNumber": "0x12c1fa6",
          "transactionHash": "0x6e4c7464ba7acca081cd6a0fd9c249ff582c3d101ad04ab316c29b382da25d6e",
          "transactionIndex": "0x0",
          "logIndex": "0x0",
          "removed": false
        }
      ],
      "status": "0x1",
      "logsBloom": "0x00000000000000000000000000000000000000000000000000100000000000000000000000000000000000000000000000000000000000000000000000200000000000000000000008000000000000000000000000000000000000000000000001000000000000000000000000000000000000000000000000000000400000000000000000000000000000000000000000000000010000000000000000000000020040000000200000000000000000000000000000000000000000000000000000000000000000000000000000000000000000000402000000000000000000000010000000000000000000000000000000000000000000000000000000000000",
      "type": "0x2",
      "effectiveGasPrice": "0x2f174bcac"
    },
    {
      "transactionHash": "0xaed089d5c5b8190ab074d89c69dc34c692bb15e3d39fd2cf1f2d3c80fe324906",
      "transactionIndex": "0x0",
      "blockHash": "0xb3d8d289e5873d613c77339fe844619a93ce869b10f6c5cb65846f1f31e50cc3",
      "blockNumber": "0x12c1fa7",
      "from": "0xA9DdD91249DFdd450E81E1c56Ab60E1A62651701",
      "to": "0x3A7bB36Ee3f3eE32A60e9f2b33c1e5f2E83ad766",
      "cumulativeGasUsed": "0x9591d",
      "gasUsed": "0x9591d",
      "contractAddress": null,
      "logs": [
        {
          "address": "0x3A7bB36Ee3f3eE32A60e9f2b33c1e5f2E83ad766",
          "topics": [
            "0x6436acb89463dbc9036f1e52aebf32ac0bf5f69e3987c067110c3ac403ebda33"
          ],
          "data": "0x000000000000000000000000a9ddd91249dfdd450e81e1c56ab60e1a626517010000000000000000000000003b8c4a340336941524de276ff730b3be71157b55",
          "blockHash": "0xb3d8d289e5873d613c77339fe844619a93ce869b10f6c5cb65846f1f31e50cc3",
          "blockNumber": "0x12c1fa7",
          "transactionHash": "0xaed089d5c5b8190ab074d89c69dc34c692bb15e3d39fd2cf1f2d3c80fe324906",
          "transactionIndex": "0x0",
          "logIndex": "0x0",
          "removed": false
        }
      ],
      "status": "0x1",
      "logsBloom": "0x00000000000000000000000000000000000000000000000000000000000000000000000000000000000000000000000000000000000000000000000000000000000000000000000000000000000000000000000000000000000000000000000000000000000000000000000000000000000000000000000000000000000000000000000000000000000000000000000000002000000000000000000000000000000000000000000000000000010000000000000000100000000000000000000000000000000000000000000000000000000000000000000000000000000000000000000000000080000000006000000000000000000000000000000000000000",
      "type": "0x2",
      "effectiveGasPrice": "0x2b3ece1ab"
    },
    {
      "transactionHash": "0xaaa09bb638c24e31f271e7cad055a9a5c2379a4174d49940dc8b56040ae6edf1",
      "transactionIndex": "0x0",
      "blockHash": "0xb8eec39528b0d6e44670c029d5da54ea4cf713c8363f829b9e66354042e845bd",
      "blockNumber": "0x12c1fa8",
      "from": "0xA9DdD91249DFdd450E81E1c56Ab60E1A62651701",
      "to": "0xBBBBBbbBBb9cC5e90e3b3Af64bdAF62C37EEFFCb",
      "cumulativeGasUsed": "0x30af3",
      "gasUsed": "0x30af3",
      "contractAddress": null,
      "logs": [
        {
          "address": "0xBBBBBbbBBb9cC5e90e3b3Af64bdAF62C37EEFFCb",
          "topics": [
            "0xac4b2400f169220b0c0afdde7a0b32e775ba727ea1cb30b35f935cdaab8683ac",
            "0x7f2eec1f78d0412e61fa3be531e36052460583e7f9b5c1efc1407f10c48a775d"
          ],
          "data": "0x0000000000000000000000000000206329b97db379d5e1bf586bbdb969c63274000000000000000000000000dd0f28e19c1780eb6396170735d45153d261490d0000000000000000000000003b8c4a340336941524de276ff730b3be71157b55000000000000000000000000870ac11d48b15db9a138cf899d20f13f79ba00bc0000000000000000000000000000000000000000000000000bef55718ad60000",
          "blockHash": "0xb8eec39528b0d6e44670c029d5da54ea4cf713c8363f829b9e66354042e845bd",
          "blockNumber": "0x12c1fa8",
          "transactionHash": "0xaaa09bb638c24e31f271e7cad055a9a5c2379a4174d49940dc8b56040ae6edf1",
          "transactionIndex": "0x0",
          "logIndex": "0x0",
          "removed": false
        },
        {
          "address": "0x870aC11D48B15DB9a138Cf899d20F13F79Ba00BC",
          "topics": [
            "0x7120161a7b3d31251e01294ab351ef15a41b91659a36032e4641bb89b121e321",
            "0x7f2eec1f78d0412e61fa3be531e36052460583e7f9b5c1efc1407f10c48a775d"
          ],
          "data": "0x0000000000000000000000000000000000000000000000000000000012e687bf000000000000000000000000000000000000000000000000000000004b9a1eff",
          "blockHash": "0xb8eec39528b0d6e44670c029d5da54ea4cf713c8363f829b9e66354042e845bd",
          "blockNumber": "0x12c1fa8",
          "transactionHash": "0xaaa09bb638c24e31f271e7cad055a9a5c2379a4174d49940dc8b56040ae6edf1",
          "transactionIndex": "0x0",
          "logIndex": "0x1",
          "removed": false
        }
      ],
      "status": "0x1",
      "logsBloom": "0x00000000000000000000000000000800000000000000000000000000000000000000000000000000000000000000000000000000000000000000000000844000000000000010000000000000000000000000000000200000000000000000000000000000000000000000000000000000000000000000000000000040000000000000000000000008000000000000000000000000010000000000000000000000000000000000000000000000000000000000000000000000200000000000000020000000000000000001000000000000000000000000000000000000000000000000000000000000000000000001000000000000000000000040000000000010",
      "type": "0x2",
      "effectiveGasPrice": "0x27667eec8"
    },
    {
      "transactionHash": "0x45f2b5dafc29e3ec41b86b17375c3907b5bb64ce4d65c040f8b936d4d55eec35",
      "transactionIndex": "0x0",
      "blockHash": "0xcf9e001f4d9fca61a33240c4b10033bbc07aff18fdca83fe684a3175c64d097a",
      "blockNumber": "0x12c1fa9",
      "from": "0xA9DdD91249DFdd450E81E1c56Ab60E1A62651701",
      "to": "0xBBBBBbbBBb9cC5e90e3b3Af64bdAF62C37EEFFCb",
      "cumulativeGasUsed": "0x1f6bd",
      "gasUsed": "0x1f6bd",
      "contractAddress": null,
      "logs": [
        {
          "address": "0x870aC11D48B15DB9a138Cf899d20F13F79Ba00BC",
          "topics": [
            "0x7120161a7b3d31251e01294ab351ef15a41b91659a36032e4641bb89b121e321",
            "0x7f2eec1f78d0412e61fa3be531e36052460583e7f9b5c1efc1407f10c48a775d"
          ],
          "data": "0x0000000000000000000000000000000000000000000000000000000012e686c4000000000000000000000000000000000000000000000000000000004b9a1723",
          "blockHash": "0xcf9e001f4d9fca61a33240c4b10033bbc07aff18fdca83fe684a3175c64d097a",
          "blockNumber": "0x12c1fa9",
          "transactionHash": "0x45f2b5dafc29e3ec41b86b17375c3907b5bb64ce4d65c040f8b936d4d55eec35",
          "transactionIndex": "0x0",
          "logIndex": "0x0",
          "removed": false
        },
        {
          "address": "0xBBBBBbbBBb9cC5e90e3b3Af64bdAF62C37EEFFCb",
          "topics": [
            "0x9d9bd501d0657d7dfe415f779a620a62b78bc508ddc0891fbbd8b7ac0f8fce87",
            "0x7f2eec1f78d0412e61fa3be531e36052460583e7f9b5c1efc1407f10c48a775d"
          ],
          "data": "0x0000000000000000000000000000000000000000000000000000000012e686c400000000000000000000000000000000000000000000000000000000000000000000000000000000000000000000000000000000000000000000000000000000",
          "blockHash": "0xcf9e001f4d9fca61a33240c4b10033bbc07aff18fdca83fe684a3175c64d097a",
          "blockNumber": "0x12c1fa9",
          "transactionHash": "0x45f2b5dafc29e3ec41b86b17375c3907b5bb64ce4d65c040f8b936d4d55eec35",
          "transactionIndex": "0x0",
          "logIndex": "0x1",
          "removed": false
        },
        {
          "address": "0xBBBBBbbBBb9cC5e90e3b3Af64bdAF62C37EEFFCb",
          "topics": [
            "0xedf8870433c83823eb071d3df1caa8d008f12f6440918c20d75a3602cda30fe0",
            "0x7f2eec1f78d0412e61fa3be531e36052460583e7f9b5c1efc1407f10c48a775d",
            "0x000000000000000000000000a9ddd91249dfdd450e81e1c56ab60e1a62651701",
            "0x000000000000000000000000a9ddd91249dfdd450e81e1c56ab60e1a62651701"
          ],
          "data": "0x000000000000000000000000000000000000000000000001e5b8fa8fe2ac00000000000000000000000000000000000000000000001cf389cd46047d03000000",
          "blockHash": "0xcf9e001f4d9fca61a33240c4b10033bbc07aff18fdca83fe684a3175c64d097a",
          "blockNumber": "0x12c1fa9",
          "transactionHash": "0x45f2b5dafc29e3ec41b86b17375c3907b5bb64ce4d65c040f8b936d4d55eec35",
          "transactionIndex": "0x0",
          "logIndex": "0x2",
          "removed": false
        },
        {
          "address": "0x0000206329b97DB379d5E1Bf586BbDB969C63274",
          "topics": [
            "0xddf252ad1be2c89b69c2b068fc378daa952ba7f163c4a11628f55a4df523b3ef",
            "0x000000000000000000000000a9ddd91249dfdd450e81e1c56ab60e1a62651701",
            "0x000000000000000000000000bbbbbbbbbb9cc5e90e3b3af64bdaf62c37eeffcb"
          ],
          "data": "0x000000000000000000000000000000000000000000000001e5b8fa8fe2ac0000",
          "blockHash": "0xcf9e001f4d9fca61a33240c4b10033bbc07aff18fdca83fe684a3175c64d097a",
          "blockNumber": "0x12c1fa9",
          "transactionHash": "0x45f2b5dafc29e3ec41b86b17375c3907b5bb64ce4d65c040f8b936d4d55eec35",
          "transactionIndex": "0x0",
          "logIndex": "0x3",
          "removed": false
        }
      ],
      "status": "0x1",
      "logsBloom": "0x00000000000000000000000000000080000000000000000000000000000000000000400000000000000000000000000000000000000000000000000020844000000000000010000000000008800004000000000800200000000000080000000000000000000000000000000000000000000000000000000000000010000000000000000000000008000000000000000000000000010000000000000000000000800000000000000000000000000000000000000000000000a00000080000000020000002000000000001000000000000000000004000000000000000000000400000000001000000000000200001000000000000000000000040000000004000",
      "type": "0x2",
      "effectiveGasPrice": "0x23eb51951"
    },
    {
      "transactionHash": "0x186ba131f2f5cbd1f6fbc898c421c6087b358552b910f7e6e94b1651b1e707af",
      "transactionIndex": "0x0",
      "blockHash": "0x7e201e749ee89f3704b1bf3de817d9326881576c35706cfc7048a1689b18e63f",
      "blockNumber": "0x12c1faa",
      "from": "0xA9DdD91249DFdd450E81E1c56Ab60E1A62651701",
      "to": "0xdd0f28e19C1780eb6396170735D45153D261490d",
      "cumulativeGasUsed": "0xb3e0",
      "gasUsed": "0xb3e0",
      "contractAddress": null,
      "logs": [
        {
          "address": "0xdd0f28e19C1780eb6396170735D45153D261490d",
          "topics": [
            "0x8c5be1e5ebec7d5bd14f71427d1e84f3dd0314c0f7b2291e5b200ac8c7c3b925",
            "0x000000000000000000000000a9ddd91249dfdd450e81e1c56ab60e1a62651701",
            "0x000000000000000000000000bbbbbbbbbb9cc5e90e3b3af64bdaf62c37eeffcb"
          ],
          "data": "0x0000000000000000000000000000000000000000000000056bc75e2d63100000",
          "blockHash": "0x7e201e749ee89f3704b1bf3de817d9326881576c35706cfc7048a1689b18e63f",
          "blockNumber": "0x12c1faa",
          "transactionHash": "0x186ba131f2f5cbd1f6fbc898c421c6087b358552b910f7e6e94b1651b1e707af",
          "transactionIndex": "0x0",
          "logIndex": "0x0",
          "removed": false
        }
      ],
      "status": "0x1",
      "logsBloom": "0x00000000000000000000000000000080000080000000000000000000000000000000000000000000000000000000000000000000000000000000000000200000000000000000000000000000000000000000000000000000000000000000000000000000000000000000000000000000000000000000000000000000000000000000000000000002000000000000000000000000000000000000000000000000820000000000000000000002000000000000000000000000800000080000000000000000000000000000000000000000000000000000000000000000000000000010000001000000000000200000000000000000000000000000000000000000",
      "type": "0x2",
      "effectiveGasPrice": "0x20da5346e"
    },
    {
      "transactionHash": "0xd70d5e4f53e9e9e25af3a8e992c6914bea780c1a3265775ce72ca7236ded3589",
      "transactionIndex": "0x0",
      "blockHash": "0x6abad4a4dbe1b43f02bf763deb04c67d5df8121e7ecb8f13426192af23ccd0a4",
      "blockNumber": "0x12c1fab",
      "from": "0xA9DdD91249DFdd450E81E1c56Ab60E1A62651701",
      "to": "0xBBBBBbbBBb9cC5e90e3b3Af64bdAF62C37EEFFCb",
      "cumulativeGasUsed": "0x15114",
      "gasUsed": "0x15114",
      "contractAddress": null,
      "logs": [
        {
          "address": "0xBBBBBbbBBb9cC5e90e3b3Af64bdAF62C37EEFFCb",
          "topics": [
            "0xa3b9472a1399e17e123f3c2e6586c23e504184d504de59cdaa2b375e880c6184",
            "0x7f2eec1f78d0412e61fa3be531e36052460583e7f9b5c1efc1407f10c48a775d",
            "0x000000000000000000000000a9ddd91249dfdd450e81e1c56ab60e1a62651701",
            "0x000000000000000000000000a9ddd91249dfdd450e81e1c56ab60e1a62651701"
          ],
          "data": "0x0000000000000000000000000000000000000000000000056bc75e2d63100000",
          "blockHash": "0x6abad4a4dbe1b43f02bf763deb04c67d5df8121e7ecb8f13426192af23ccd0a4",
          "blockNumber": "0x12c1fab",
          "transactionHash": "0xd70d5e4f53e9e9e25af3a8e992c6914bea780c1a3265775ce72ca7236ded3589",
          "transactionIndex": "0x0",
          "logIndex": "0x0",
          "removed": false
        },
        {
          "address": "0xdd0f28e19C1780eb6396170735D45153D261490d",
          "topics": [
            "0xddf252ad1be2c89b69c2b068fc378daa952ba7f163c4a11628f55a4df523b3ef",
            "0x000000000000000000000000a9ddd91249dfdd450e81e1c56ab60e1a62651701",
            "0x000000000000000000000000bbbbbbbbbb9cc5e90e3b3af64bdaf62c37eeffcb"
          ],
          "data": "0x0000000000000000000000000000000000000000000000056bc75e2d63100000",
          "blockHash": "0x6abad4a4dbe1b43f02bf763deb04c67d5df8121e7ecb8f13426192af23ccd0a4",
          "blockNumber": "0x12c1fab",
          "transactionHash": "0xd70d5e4f53e9e9e25af3a8e992c6914bea780c1a3265775ce72ca7236ded3589",
          "transactionIndex": "0x0",
          "logIndex": "0x1",
          "removed": false
        }
      ],
      "status": "0x1",
      "logsBloom": "0x0000000000000000000000000000008000008000000000000000000000000000000000000000000000000000000000000000000000000000000000000000000000000000001000000000000800000000000000000000000000000000000000000000000000000000000000000000000000000000000000000000001000000000000000800000000a000000000000000000000000010000000000000000000000800000000000000000000002000000000000000000000000a00000080000000020000002000000000000000000000000000000000000000400000000000000000000000001000000000000200000200000000000000000000040000000000000",
      "type": "0x2",
      "effectiveGasPrice": "0x1e26cabdd"
    },
    {
      "transactionHash": "0xf81ddaad29a36a7eefdd7a94e4d0804561d388a3205abe1bd9390f5a06f30598",
      "transactionIndex": "0x0",
      "blockHash": "0x3e0429cbdcbd47911bf023fe79094b651226d68b1f913d4b6194a9f6366fad4f",
      "blockNumber": "0x12c1fac",
      "from": "0xA9DdD91249DFdd450E81E1c56Ab60E1A62651701",
      "to": "0xBBBBBbbBBb9cC5e90e3b3Af64bdAF62C37EEFFCb",
      "cumulativeGasUsed": "0x3e300",
      "gasUsed": "0x3e300",
      "contractAddress": null,
      "logs": [
        {
          "address": "0x870aC11D48B15DB9a138Cf899d20F13F79Ba00BC",
          "topics": [
            "0x7120161a7b3d31251e01294ab351ef15a41b91659a36032e4641bb89b121e321",
            "0x7f2eec1f78d0412e61fa3be531e36052460583e7f9b5c1efc1407f10c48a775d"
          ],
          "data": "0x0000000000000000000000000000000000000000000000000000000012e682d6000000000000000000000000000000000000000000000000000000004b99ff91",
          "blockHash": "0x3e0429cbdcbd47911bf023fe79094b651226d68b1f913d4b6194a9f6366fad4f",
          "blockNumber": "0x12c1fac",
          "transactionHash": "0xf81ddaad29a36a7eefdd7a94e4d0804561d388a3205abe1bd9390f5a06f30598",
          "transactionIndex": "0x0",
          "logIndex": "0x0",
          "removed": false
        },
        {
          "address": "0xBBBBBbbBBb9cC5e90e3b3Af64bdAF62C37EEFFCb",
          "topics": [
            "0x9d9bd501d0657d7dfe415f779a620a62b78bc508ddc0891fbbd8b7ac0f8fce87",
            "0x7f2eec1f78d0412e61fa3be531e36052460583e7f9b5c1efc1407f10c48a775d"
          ],
          "data": "0x0000000000000000000000000000000000000000000000000000000012e682d600000000000000000000000000000000000000000000000000000000000000000000000000000000000000000000000000000000000000000000000000000000",
          "blockHash": "0x3e0429cbdcbd47911bf023fe79094b651226d68b1f913d4b6194a9f6366fad4f",
          "blockNumber": "0x12c1fac",
          "transactionHash": "0xf81ddaad29a36a7eefdd7a94e4d0804561d388a3205abe1bd9390f5a06f30598",
          "transactionIndex": "0x0",
          "logIndex": "0x1",
          "removed": false
        },
        {
          "address": "0xBBBBBbbBBb9cC5e90e3b3Af64bdAF62C37EEFFCb",
          "topics": [
            "0x570954540bed6b1304a87dfe815a5eda4a648f7097a16240dcd85c9b5fd42a43",
            "0x7f2eec1f78d0412e61fa3be531e36052460583e7f9b5c1efc1407f10c48a775d",
            "0x000000000000000000000000a9ddd91249dfdd450e81e1c56ab60e1a62651701",
            "0x000000000000000000000000a9ddd91249dfdd450e81e1c56ab60e1a62651701"
          ],
          "data": "0x000000000000000000000000a9ddd91249dfdd450e81e1c56ab60e1a62651701000000000000000000000000000000000000000000000001158e460913d00000000000000000000000000000000000000000000000108b2a2c28029094000000",
          "blockHash": "0x3e0429cbdcbd47911bf023fe79094b651226d68b1f913d4b6194a9f6366fad4f",
          "blockNumber": "0x12c1fac",
          "transactionHash": "0xf81ddaad29a36a7eefdd7a94e4d0804561d388a3205abe1bd9390f5a06f30598",
          "transactionIndex": "0x0",
          "logIndex": "0x2",
          "removed": false
        },
        {
          "address": "0x0000206329b97DB379d5E1Bf586BbDB969C63274",
          "topics": [
            "0xddf252ad1be2c89b69c2b068fc378daa952ba7f163c4a11628f55a4df523b3ef",
            "0x000000000000000000000000bbbbbbbbbb9cc5e90e3b3af64bdaf62c37eeffcb",
            "0x000000000000000000000000a9ddd91249dfdd450e81e1c56ab60e1a62651701"
          ],
          "data": "0x000000000000000000000000000000000000000000000001158e460913d00000",
          "blockHash": "0x3e0429cbdcbd47911bf023fe79094b651226d68b1f913d4b6194a9f6366fad4f",
          "blockNumber": "0x12c1fac",
          "transactionHash": "0xf81ddaad29a36a7eefdd7a94e4d0804561d388a3205abe1bd9390f5a06f30598",
          "transactionIndex": "0x0",
          "logIndex": "0x3",
          "removed": false
        }
      ],
      "status": "0x1",
      "logsBloom": "0x00000000000000000002000000000080000000000000000000000000000000000000400000000000000000000000000000000000000000000000000020844000000000000010000000000008000004000000000000200000000000080000000000000000000000000000000000000000000000000000000000000010000000000000000000000008000000000000000000000000010000000000000000000000800000000000000000000000000000000000000000000000a00000080000000020000002000000000001000000000000000000004000000000000000000000000000004001000008000000200001000000000000000000000040000000004000",
      "type": "0x2",
      "effectiveGasPrice": "0x1bcb1065e"
    }
  ],
  "libraries": [],
  "pending": [],
  "returns": {},
  "timestamp": 1713281282,
  "chain": 1,
  "multi": false,
  "commit": "7e1c394"
}