{
  "transactions": [
    {
      "hash": "0x15ab0dcf018b754dbb8899301d04cce09fe57f059302fc26bf13efb94ca3b401",
      "transactionType": "CALL",
      "contractName": null,
      "contractAddress": "0x102aa79ee06c3c65a23abbe338714b91f9d12a04",
      "function": "liquidate((address,address,address,address,uint256),address,uint256,bytes)",
      "arguments": [
        "(0x0000206329b97DB379d5E1Bf586BbDB969C63274, 0xc69Ad9baB1dEE23F4605a82b3354F8E40d1E5966, 0x5441731eED05A8208e795086a5dF41416DD34104, 0x870aC11D48B15DB9a138Cf899d20F13F79Ba00BC, 860000000000000000)",
        "0x36dfe6EDdef7d32497e15cdF826D6Cf4ee9293aF",
        "4838661537579587905",
        "0x000000000000000000000000c69ad9bab1dee23f4605a82b3354f8e40d1e59660000000000000000000000000000206329b97db379d5e1bf586bbdb969c632740000000000000000000000000000000000000000000000004326610837c6d94100000000000000000000000000000000000000000000000000000000000000800000000000000000000000000000000000000000000000000000000000000780000000000000000000000000a9bbbdde822789f123667044443dc7001fb43c010000000000000000000000000000000000000000000002f9cd5004a49d9367e00000000000000000000000000000000000000000000000000000000000000003000000000000000000000000000000000000000000000000000000000000008000000000000000000000000000000000000000000000000000000000000006e00000000000000000000000000000000000000000000000000000000000000000000000000000000000000000a9bbbdde822789f123667044443dc7001fb43c010000000000000000000000000000000000000000000000000000000000000060000000000000000000000000000000000000000000000000000000000000066000000000000000000000000000000000000000000000000042d06d58d1190ded00000000000000000000000000000000000000000000000042d06d58d1190ded00000000000000000000000000000000000000000000000000000000000000a000000000000000000000000000000000000000000000000000000000000000e000000000000000000000000000000000000000000000000000000000000005a00000000000000000000000000000000000000000000000000000000000000001000000000000000000000000cd5fe23c85820f7b72d0926fc9b05b43e359b7ee000000000000000000000000000000000000000000000000000000000000000100000000000000000000000000000000000000000000000000000000000000200000000000000000000000000000000000000000000000000000000000000460000000000000000000000000cd5fe23c85820f7b72d0926fc9b05b43e359b7ee000000000000000000000000000000000000000000000348ba7e358955001e6e000000000000000000000000000000000000000000000000000000000000006000000000000000000000000000000000000000000000000000000000000003c807ed2379000000000000000000000000e37e799d5077682fa0a244d46e5649f71457bd09000000000000000000000000cd5fe23c85820f7b72d0926fc9b05b43e359b7ee0000000000000000000000000000206329b97db379d5e1bf586bbdb969c63274000000000000000000000000e37e799d5077682fa0a244d46e5649f71457bd09000000000000000000000000102aa79ee06c3c65a23abbe338714b91f9d12a040000000000000000000000000000000000000000000000003f4cd2fdf9f89c5900000000000000000000000000000000000000000000034802def7622f377c0000000000000000000000000000000000000000000000000000000000000000000000000000000000000000000000000000000000000000000000000000000120000000000000000000000000000000000000000000000000000000000000027b00000000000000000000000000000000000000000000000000025d00022f00a007e5c0d200000000000000000000000000000000000000000000020b00011b00004f02a00000000000000000000000000000000000000000000000003e851dccafac15adee63c1e5007a415b19932c0105c82fdb6b720bb01b0cc2cae3cd5fe23c85820f7b72d0926fc9b05b43e359b7ee00a0c9e75c4800000000000000001b1700000000000000000000000000000000000000000000000000009e00004f02a000000000000000000000000000000000000000000000000000000001a8f2a3a6ee63c1e5001ac1a8feaaea1900c4166deeed0c11cc10669d36c02aaa39b223fe8d0a0e5c4f27ead9083c756cc202a000000000000000000000000000000000000000000000000000000001f2a77f72ee63c1e50088e6a0c2ddd26feeb64f039a2c41296fcb3f5640c02aaa39b223fe8d0a0e5c4f27ead9083c756cc25120222222fd79264bbe280b4986f6fefbc3524d0137a0b86991c6218b36c1d19d4a2e9eb0ce3606eb4800043b6a1fe000000000000000000000000000000000000000000000000000000000000000000000000000000000000000000000000000000000000000000000000000000000000000000000000000000000a0b86991c6218b36c1d19d4a2e9eb0ce3606eb480000000000000000000000000000206329b97db379d5e1bf586bbdb969c63274000000000000000000000000111111125421ca6dc452d289314280a0f8842a6500000000000000000000000000000000000000000000000000000000000000000020d6bdbf780000206329b97db379d5e1bf586bbdb969c63274111111125421ca6dc452d289314280a0f8842a650000000000f737be4600000000000000000000000000000000000000000000000000000000000000000000000000000000000000000000000000000000000000a0000000000000000000000000cd5fe23c85820f7b72d0926fc9b05b43e359b7ee000000000000000000000000ac0047886a985071476a1186be89222659970d65000000000000000000000000f32e58f92e60f4b0a37a69b95d642a471365eae8000000000000000000000000c69ad9bab1dee23f4605a82b3354f8e40d1e59660000000000000000000000000000000000000000000000003f4cd2fdf9f89c59"
      ],
      "transaction": {
        "from": "0xa9bbbdde822789f123667044443dc7001fb43c01",
        "to": "0x102aa79ee06c3c65a23abbe338714b91f9d12a04",
        "gas": "0x147946",
        "value": "0x0",
        "input": "0x87cb0f510000000000000000000000000000206329b97db379d5e1bf586bbdb969c63274000000000000000000000000c69ad9bab1dee23f4605a82b3354f8e40d1e59660000000000000000000000005441731eed05a8208e795086a5df41416dd34104000000000000000000000000870ac11d48b15db9a138cf899d20f13f79ba00bc0000000000000000000000000000000000000000000000000bef55718ad6000000000000000000000000000036dfe6eddef7d32497e15cdf826d6cf4ee9293af0000000000000000000000000000000000000000000000004326610837c6d94100000000000000000000000000000000000000000000000000000000000001000000000000000000000000000000000000000000000000000000000000000820000000000000000000000000c69ad9bab1dee23f4605a82b3354f8e40d1e59660000000000000000000000000000206329b97db379d5e1bf586bbdb969c632740000000000000000000000000000000000000000000000004326610837c6d94100000000000000000000000000000000000000000000000000000000000000800000000000000000000000000000000000000000000000000000000000000780000000000000000000000000a9bbbdde822789f123667044443dc7001fb43c010000000000000000000000000000000000000000000002f9cd5004a49d9367e00000000000000000000000000000000000000000000000000000000000000003000000000000000000000000000000000000000000000000000000000000008000000000000000000000000000000000000000000000000000000000000006e00000000000000000000000000000000000000000000000000000000000000000000000000000000000000000a9bbbdde822789f123667044443dc7001fb43c010000000000000000000000000000000000000000000000000000000000000060000000000000000000000000000000000000000000000000000000000000066000000000000000000000000000000000000000000000000042d06d58d1190ded00000000000000000000000000000000000000000000000042d06d58d1190ded00000000000000000000000000000000000000000000000000000000000000a000000000000000000000000000000000000000000000000000000000000000e000000000000000000000000000000000000000000000000000000000000005a00000000000000000000000000000000000000000000000000000000000000001000000000000000000000000cd5fe23c85820f7b72d0926fc9b05b43e359b7ee000000000000000000000000000000000000000000000000000000000000000100000000000000000000000000000000000000000000000000000000000000200000000000000000000000000000000000000000000000000000000000000460000000000000000000000000cd5fe23c85820f7b72d0926fc9b05b43e359b7ee000000000000000000000000000000000000000000000348ba7e358955001e6e000000000000000000000000000000000000000000000000000000000000006000000000000000000000000000000000000000000000000000000000000003c807ed2379000000000000000000000000e37e799d5077682fa0a244d46e5649f71457bd09000000000000000000000000cd5fe23c85820f7b72d0926fc9b05b43e359b7ee0000000000000000000000000000206329b97db379d5e1bf586bbdb969c63274000000000000000000000000e37e799d5077682fa0a244d46e5649f71457bd09000000000000000000000000102aa79ee06c3c65a23abbe338714b91f9d12a040000000000000000000000000000000000000000000000003f4cd2fdf9f89c5900000000000000000000000000000000000000000000034802def7622f377c0000000000000000000000000000000000000000000000000000000000000000000000000000000000000000000000000000000000000000000000000000000120000000000000000000000000000000000000000000000000000000000000027b00000000000000000000000000000000000000000000000000025d00022f00a007e5c0d200000000000000000000000000000000000000000000020b00011b00004f02a00000000000000000000000000000000000000000000000003e851dccafac15adee63c1e5007a415b19932c0105c82fdb6b720bb01b0cc2cae3cd5fe23c85820f7b72d0926fc9b05b43e359b7ee00a0c9e75c4800000000000000001b1700000000000000000000000000000000000000000000000000009e00004f02a000000000000000000000000000000000000000000000000000000001a8f2a3a6ee63c1e5001ac1a8feaaea1900c4166deeed0c11cc10669d36c02aaa39b223fe8d0a0e5c4f27ead9083c756cc202a000000000000000000000000000000000000000000000000000000001f2a77f72ee63c1e50088e6a0c2ddd26feeb64f039a2c41296fcb3f5640c02aaa39b223fe8d0a0e5c4f27ead9083c756cc25120222222fd79264bbe280b4986f6fefbc3524d0137a0b86991c6218b36c1d19d4a2e9eb0ce3606eb4800043b6a1fe000000000000000000000000000000000000000000000000000000000000000000000000000000000000000000000000000000000000000000000000000000000000000000000000000000000a0b86991c6218b36c1d19d4a2e9eb0ce3606eb480000000000000000000000000000206329b97db379d5e1bf586bbdb969c63274000000000000000000000000111111125421ca6dc452d289314280a0f8842a6500000000000000000000000000000000000000000000000000000000000000000020d6bdbf780000206329b97db379d5e1bf586bbdb969c63274111111125421ca6dc452d289314280a0f8842a650000000000f737be4600000000000000000000000000000000000000000000000000000000000000000000000000000000000000000000000000000000000000a0000000000000000000000000cd5fe23c85820f7b72d0926fc9b05b43e359b7ee000000000000000000000000ac0047886a985071476a1186be89222659970d65000000000000000000000000f32e58f92e60f4b0a37a69b95d642a471365eae8000000000000000000000000c69ad9bab1dee23f4605a82b3354f8e40d1e59660000000000000000000000000000000000000000000000003f4cd2fdf9f89c59",
        "nonce": "0x4e",
        "chainId": "0x1"
      },
      "additionalContracts": [],
      "isFixedGasLimit": false
    }
  ],
  "receipts": [],
  "libraries": [],
  "pending": [],
  "returns": {},
  "timestamp": 1718699698,
  "chain": 1,
  "commit": "b73230c"
}