{
  "transactions": [
    {
      "hash": "0x35d7cdf9251533ab83fd57ae42c7f1ae30fce2f530e5a35b7610c973f3a8e93f",
      "transactionType": "CALL",
      "contractName": null,
      "contractAddress": "0x2dc205f24bcb6b311e5cdf0745b0741648aebd3d",
      "function": "createMorphoChainlinkOracleV2(address,uint256,address,address,uint256,address,uint256,address,address,uint256,bytes32)",
      "arguments": [
        "0x0000000000000000000000000000000000000000",
        "1",
        "0x806b4Ac04501c29769051e42783cF04dCE41440b",
        "0x71041dddad3595F9CEd3DcCFBe3D1F4b0a16Bb70",
        "18",
        "0x0000000000000000000000000000000000000000",
        "1",
        "0x0000000000000000000000000000000000000000",
        "0x0000000000000000000000000000000000000000",
        "18",
        "0x0000000000000000000000000000000000000000000000000000000000000000"
      ],
      "transaction": {
        "from": "0xa9bbbdde822789f123667044443dc7001fb43c01",
        "to": "0x2dc205f24bcb6b311e5cdf0745b0741648aebd3d",
        "gas": "0xd16f2",
        "value": "0x0",
        "input": "0xb32cddf400000000000000000000000000000000000000000000000000000000000000000000000000000000000000000000000000000000000000000000000000000001000000000000000000000000806b4ac04501c29769051e42783cf04dce41440b00000000000000000000000071041dddad3595f9ced3dccfbe3d1f4b0a16bb700000000000000000000000000000000000000000000000000000000000000012000000000000000000000000000000000000000000000000000000000000000000000000000000000000000000000000000000000000000000000000000000010000000000000000000000000000000000000000000000000000000000000000000000000000000000000000000000000000000000000000000000000000000000000000000000000000000000000000000000000000000000000000000000120000000000000000000000000000000000000000000000000000000000000000",
        "nonce": "0x13",
        "chainId": "0x2105"
      },
      "additionalContracts": [
        {
          "transactionType": "CREATE2",
          "address": "0x826943587ffdaa11c3bfd730644d6dc299e51278",
          "initCode": "0x6101a08060405234620002fa578062000f1e803803809162000022828562000331565b833961014092839181010312620002fa576200003e8162000355565b91602082015190620000536040840162000355565b90620000626060850162000355565b926080850151956200007760a0870162000355565b9060c0870151956200008c60e0890162000355565b95610100996200009e8b8b0162000355565b6101209a8b0151956001600160a01b0386811615801590620002ef575b620000d190620000ca6200036a565b90620003bf565b811615801590620002e4575b620000ec90620000ca6200036a565b8715956200015a6040516200010181620002ff565b601f8152620001397f7661756c7420636f6e76657273696f6e2073616d706c65206973207a65726f00918260208201528a15620003bf565b604051906200014882620002ff565b601f825260208201528d1515620003bf565b6080528760a05260c0528960e052828c52838b5288885261016098818a52602496870190818811620002cf57620001bd620001ca94620001c4620001bd95620001b6620001bd620001d19b9a97620001b6620001ca986200045b565b9062000429565b916200045b565b6200044d565b906200044d565b604d8111620002ba57600a0a868102968188041490151715620002a5576200029157506101809304835260405193610a269586620004f8873960805186818161014b0152610304015260a0518681816102e301526105b9015260c0518681816103ac0152610560015260e05186818161038b01526104f301525185818160d9015261032d0152518481816101b9015261035c0152518381816103d5015261049a01525182818161027f01526103fe01525181818161021201526104250152f35b634e487b7160e01b60009081526012600452fd5b50634e487b7160e01b60009081526011600452fd5b82634e487b7160e01b60005260116004526000fd5b87634e487b7160e01b60005260116004526000fd5b5060018b14620000dd565b5060018914620000bb565b600080fd5b604081019081106001600160401b038211176200031b57604052565b634e487b7160e01b600052604160045260246000fd5b601f909101601f19168101906001600160401b038211908210176200031b57604052565b51906001600160a01b0382168203620002fa57565b60405190606082016001600160401b038111838210176200031b5760405260228252616e6560f01b6040837f7661756c7420636f6e76657273696f6e2073616d706c65206973206e6f74206f60208201520152565b15620003c85750565b6040519062461bcd60e51b82528160208060048301528251908160248401526000935b8285106200040f575050604492506000838284010152601f80199101168101030190fd5b8481018201518686016044015293810193859350620003eb565b919082018092116200043757565b634e487b7160e01b600052601160045260246000fd5b919082039182116200043757565b6001600160a01b03168015620004f15760206004916040519283809263313ce56760e01b82525afa908115620004e5576000916200049b575b5060ff1690565b6020813d8211620004dc575b81620004b66020938362000331565b81010312620004d857519060ff82168203620004d5575060ff62000494565b80fd5b5080fd5b3d9150620004a7565b6040513d6000823e3d90fd5b5060009056fe60806040818152600436101561001457600080fd5b600091823560e01c908163054f7ac014610584575080632e6f20a614610516578063461739d2146104be57806356095e1114610450578063a035b1fe146102a3578063acfbd39e14610235578063ce4b5bbe146101dd578063dc53858c1461016f578063eaa2d7b4146101015763f50a47181461009057600080fd5b346100fd57817ffffffffffffffffffffffffffffffffffffffffffffffffffffffffffffffffc3601126100fd576020905173ffffffffffffffffffffffffffffffffffffffff7f0000000000000000000000000000000000000000000000000000000000000000168152f35b5080fd5b50346100fd57817ffffffffffffffffffffffffffffffffffffffffffffffffffffffffffffffffc3601126100fd576020905173ffffffffffffffffffffffffffffffffffffffff7f0000000000000000000000000000000000000000000000000000000000000000168152f35b50346100fd57817ffffffffffffffffffffffffffffffffffffffffffffffffffffffffffffffffc3601126100fd576020905173ffffffffffffffffffffffffffffffffffffffff7f0000000000000000000000000000000000000000000000000000000000000000168152f35b50346100fd57817ffffffffffffffffffffffffffffffffffffffffffffffffffffffffffffffffc3601126100fd57602090517f00000000000000000000000000000000000000000000000000000000000000008152f35b50346100fd57817ffffffffffffffffffffffffffffffffffffffffffffffffffffffffffffffffc3601126100fd576020905173ffffffffffffffffffffffffffffffffffffffff7f0000000000000000000000000000000000000000000000000000000000000000168152f35b50346100fd57817ffffffffffffffffffffffffffffffffffffffffffffffffffffffffffffffffc3601126100fd576020906104496103806103576103287f00000000000000000000000000000000000000000000000000000000000000007f000000000000000000000000000000000000000000000000000000000000000061094a565b6103517f00000000000000000000000000000000000000000000000000000000000000006107a5565b906105dc565b6103517f00000000000000000000000000000000000000000000000000000000000000006107a5565b6104226103f96103d07f00000000000000000000000000000000000000000000000000000000000000007f000000000000000000000000000000000000000000000000000000000000000061094a565b6103517f00000000000000000000000000000000000000000000000000000000000000006107a5565b6103517f00000000000000000000000000000000000000000000000000000000000000006107a5565b907f000000000000000000000000000000000000000000000000000000000000000061061e565b9051908152f35b50346100fd57817ffffffffffffffffffffffffffffffffffffffffffffffffffffffffffffffffc3601126100fd576020905173ffffffffffffffffffffffffffffffffffffffff7f0000000000000000000000000000000000000000000000000000000000000000168152f35b50346100fd57817ffffffffffffffffffffffffffffffffffffffffffffffffffffffffffffffffc3601126100fd57602090517f00000000000000000000000000000000000000000000000000000000000000008152f35b50346100fd57817ffffffffffffffffffffffffffffffffffffffffffffffffffffffffffffffffc3601126100fd576020905173ffffffffffffffffffffffffffffffffffffffff7f0000000000000000000000000000000000000000000000000000000000000000168152f35b8390346100fd57817ffffffffffffffffffffffffffffffffffffffffffffffffffffffffffffffffc3601126100fd576020907f00000000000000000000000000000000000000000000000000000000000000008152f35b818102929181159184041417156105ef57565b7f4e487b7100000000000000000000000000000000000000000000000000000000600052601160045260246000fd5b9091828202917fffffffffffffffffffffffffffffffffffffffffffffffffffffffffffffffff848209938380861095039480860395146106dc57848311156106b25782910981600003821680920460028082600302188083028203028083028203028083028203028083028203028083028203028092029003029360018380600003040190848311900302920304170290565b60046040517f227bc153000000000000000000000000000000000000000000000000000000008152fd5b5050809250156106ea570490565b7f4e487b7100000000000000000000000000000000000000000000000000000000600052601260045260246000fd5b90601f7fffffffffffffffffffffffffffffffffffffffffffffffffffffffffffffffe0910116810190811067ffffffffffffffff82111761075a57604052565b7f4e487b7100000000000000000000000000000000000000000000000000000000600052604160045260246000fd5b519069ffffffffffffffffffff821682036107a057565b600080fd5b73ffffffffffffffffffffffffffffffffffffffff1680156109445760049060a06040918251938480927ffeaf968c0000000000000000000000000000000000000000000000000000000082525afa918215610939576000926108e8575b50805181810181811067ffffffffffffffff82111761075a578252600f81526020917f6e6567617469766520616e73776572000000000000000000000000000000000083830152600084126108585750505090565b5180927f08c379a000000000000000000000000000000000000000000000000000000000825280600483015282519283602484015260005b8481106108d1575050507fffffffffffffffffffffffffffffffffffffffffffffffffffffffffffffffe0601f836000604480968601015201168101030190fd5b818101830151868201604401528593508201610890565b909160a0823d8211610931575b8161090260a09383610719565b8101031261092e575061091481610789565b50610926608060208301519201610789565b509038610803565b80fd5b3d91506108f5565b50513d6000823e3d90fd5b50600190565b73ffffffffffffffffffffffffffffffffffffffff169081156109e9576020906024604051809481937f07a2d13a00000000000000000000000000000000000000000000000000000000835260048301525afa9081156109dd576000916109af575090565b906020823d82116109d5575b816109c860209383610719565b8101031261092e57505190565b3d91506109bb565b6040513d6000823e3d90fd5b505060019056fea2646970667358221220de25ff8dd5708a691db44b0da1e6e734e7659c3f9a1801595bc1fa7bf902c00564736f6c6343000815003300000000000000000000000000000000000000000000000000000000000000000000000000000000000000000000000000000000000000000000000000000001000000000000000000000000806b4ac04501c29769051e42783cf04dce41440b00000000000000000000000071041dddad3595f9ced3dccfbe3d1f4b0a16bb70000000000000000000000000000000000000000000000000000000000000001200000000000000000000000000000000000000000000000000000000000000000000000000000000000000000000000000000000000000000000000000000001000000000000000000000000000000000000000000000000000000000000000000000000000000000000000000000000000000000000000000000000000000000000000000000000000000000000000000000000000000000000000000000012"
        }
      ],
      "isFixedGasLimit": false
    },
    {
      "hash": "0xaa9e0765c394c67c26efffa7ed16ad1a65af6868b323b7923da9184e24a43362",
      "transactionType": "CALL",
      "contractName": null,
      "contractAddress": "0xbbbbbbbbbb9cc5e90e3b3af64bdaf62c37eeffcb",
      "function": "createMarket((address,address,address,address,uint256))",
      "arguments": [
        "(0x0000206329b97DB379d5E1Bf586BbDB969C63274, 0x2Ae3F1Ec7F1F5012CFEab0185bfc7aa3cf0DEc22, 0x826943587FfdAA11c3BFd730644d6dc299E51278, 0x46415998764C29aB2a25CbeA6254146D50D22687, 860000000000000000)"
      ],
      "transaction": {
        "from": "0xa9bbbdde822789f123667044443dc7001fb43c01",
        "to": "0xbbbbbbbbbb9cc5e90e3b3af64bdaf62c37eeffcb",
        "gas": "0x42a17",
        "value": "0x0",
        "input": "0x8c1358a20000000000000000000000000000206329b97db379d5e1bf586bbdb969c632740000000000000000000000002ae3f1ec7f1f5012cfeab0185bfc7aa3cf0dec22000000000000000000000000826943587ffdaa11c3bfd730644d6dc299e5127800000000000000000000000046415998764c29ab2a25cbea6254146d50d226870000000000000000000000000000000000000000000000000bef55718ad60000",
        "nonce": "0x14",
        "chainId": "0x2105"
      },
      "additionalContracts": [],
      "isFixedGasLimit": false
    },
    {
      "hash": "0x31ccdfe29d21657f2f6c25d43ac85cf1075bfb84abbf17a2a1dcc09c3b3092ec",
      "transactionType": "CALL",
      "contractName": null,
      "contractAddress": "0x0000206329b97db379d5e1bf586bbdb969c63274",
      "function": "approve(address,uint256)",
      "arguments": [
        "0xBBBBBbbBBb9cC5e90e3b3Af64bdAF62C37EEFFCb",
        "1000000000000000000"
      ],
      "transaction": {
        "from": "0xa9bbbdde822789f123667044443dc7001fb43c01",
        "to": "0x0000206329b97db379d5e1bf586bbdb969c63274",
        "gas": "0x12025",
        "value": "0x0",
        "input": "0x095ea7b3000000000000000000000000bbbbbbbbbb9cc5e90e3b3af64bdaf62c37eeffcb0000000000000000000000000000000000000000000000000de0b6b3a7640000",
        "nonce": "0x15",
        "chainId": "0x2105"
      },
      "additionalContracts": [],
      "isFixedGasLimit": false
    },
    {
      "hash": "0xbcaf4ff94d61eab7bbf713dd90915aaa3f1b4db94c8537ca25022f48bebbbcb4",
      "transactionType": "CALL",
      "contractName": null,
      "contractAddress": "0xbbbbbbbbbb9cc5e90e3b3af64bdaf62c37eeffcb",
      "function": "supply((address,address,address,address,uint256),uint256,uint256,address,bytes)",
      "arguments": [
        "(0x0000206329b97DB379d5E1Bf586BbDB969C63274, 0x2Ae3F1Ec7F1F5012CFEab0185bfc7aa3cf0DEc22, 0x826943587FfdAA11c3BFd730644d6dc299E51278, 0x46415998764C29aB2a25CbeA6254146D50D22687, 860000000000000000)",
        "1000000000000000000",
        "0",
        "0xa9bbbDDe822789F123667044443dc7001fb43C01",
        "0x"
      ],
      "transaction": {
        "from": "0xa9bbbdde822789f123667044443dc7001fb43c01",
        "to": "0xbbbbbbbbbb9cc5e90e3b3af64bdaf62c37eeffcb",
        "gas": "0x28766",
        "value": "0x0",
        "input": "0xa99aad890000000000000000000000000000206329b97db379d5e1bf586bbdb969c632740000000000000000000000002ae3f1ec7f1f5012cfeab0185bfc7aa3cf0dec22000000000000000000000000826943587ffdaa11c3bfd730644d6dc299e5127800000000000000000000000046415998764c29ab2a25cbea6254146d50d226870000000000000000000000000000000000000000000000000bef55718ad600000000000000000000000000000000000000000000000000000de0b6b3a76400000000000000000000000000000000000000000000000000000000000000000000000000000000000000000000a9bbbdde822789f123667044443dc7001fb43c0100000000000000000000000000000000000000000000000000000000000001200000000000000000000000000000000000000000000000000000000000000000",
        "nonce": "0x16",
        "chainId": "0x2105"
      },
      "additionalContracts": [],
      "isFixedGasLimit": false
    },
    {
      "hash": "0x624969d7126b6299877afdc9121550e05b719c60057805b342549ce280b6c4e8",
      "transactionType": "CALL",
      "contractName": null,
      "contractAddress": "0x2ae3f1ec7f1f5012cfeab0185bfc7aa3cf0dec22",
      "function": "approve(address,uint256)",
      "arguments": [
        "0xBBBBBbbBBb9cC5e90e3b3Af64bdAF62C37EEFFCb",
        "2000000000000000"
      ],
      "transaction": {
        "from": "0xa9bbbdde822789f123667044443dc7001fb43c01",
        "to": "0x2ae3f1ec7f1f5012cfeab0185bfc7aa3cf0dec22",
        "gas": "0x1143c",
        "value": "0x0",
        "input": "0x095ea7b3000000000000000000000000bbbbbbbbbb9cc5e90e3b3af64bdaf62c37eeffcb00000000000000000000000000000000000000000000000000071afd498d0000",
        "nonce": "0x17",
        "chainId": "0x2105"
      },
      "additionalContracts": [],
      "isFixedGasLimit": false
    },
    {
      "hash": "0x7ad59c0e954be5ff8014351f152d06ee0236ec6d45b531a5a57238bef5f2bb52",
      "transactionType": "CALL",
      "contractName": null,
      "contractAddress": "0xbbbbbbbbbb9cc5e90e3b3af64bdaf62c37eeffcb",
      "function": "supplyCollateral((address,address,address,address,uint256),uint256,address,bytes)",
      "arguments": [
        "(0x0000206329b97DB379d5E1Bf586BbDB969C63274, 0x2Ae3F1Ec7F1F5012CFEab0185bfc7aa3cf0DEc22, 0x826943587FfdAA11c3BFd730644d6dc299E51278, 0x46415998764C29aB2a25CbeA6254146D50D22687, 860000000000000000)",
        "2000000000000000",
        "0xa9bbbDDe822789F123667044443dc7001fb43C01",
        "0x"
      ],
      "transaction": {
        "from": "0xa9bbbdde822789f123667044443dc7001fb43c01",
        "to": "0xbbbbbbbbbb9cc5e90e3b3af64bdaf62c37eeffcb",
        "gas": "0x19b15",
        "value": "0x0",
        "input": "0x238d65790000000000000000000000000000206329b97db379d5e1bf586bbdb969c632740000000000000000000000002ae3f1ec7f1f5012cfeab0185bfc7aa3cf0dec22000000000000000000000000826943587ffdaa11c3bfd730644d6dc299e5127800000000000000000000000046415998764c29ab2a25cbea6254146d50d226870000000000000000000000000000000000000000000000000bef55718ad6000000000000000000000000000000000000000000000000000000071afd498d0000000000000000000000000000a9bbbdde822789f123667044443dc7001fb43c0100000000000000000000000000000000000000000000000000000000000001000000000000000000000000000000000000000000000000000000000000000000",
        "nonce": "0x18",
        "chainId": "0x2105"
      },
      "additionalContracts": [],
      "isFixedGasLimit": false
    },
    {
      "hash": "0x608b117cd91e2d715036a8fd798d1e32590561c887246b3c5df5646de17cf7fe",
      "transactionType": "CALL",
      "contractName": null,
      "contractAddress": "0xbbbbbbbbbb9cc5e90e3b3af64bdaf62c37eeffcb",
      "function": "borrow((address,address,address,address,uint256),uint256,uint256,address,address)",
      "arguments": [
        "(0x0000206329b97DB379d5E1Bf586BbDB969C63274, 0x2Ae3F1Ec7F1F5012CFEab0185bfc7aa3cf0DEc22, 0x826943587FfdAA11c3BFd730644d6dc299E51278, 0x46415998764C29aB2a25CbeA6254146D50D22687, 860000000000000000)",
        "900000000000000000",
        "0",
        "0xa9bbbDDe822789F123667044443dc7001fb43C01",
        "0xa9bbbDDe822789F123667044443dc7001fb43C01"
      ],
      "transaction": {
        "from": "0xa9bbbdde822789f123667044443dc7001fb43c01",
        "to": "0xbbbbbbbbbb9cc5e90e3b3af64bdaf62c37eeffcb",
        "gas": "0x2bd4f",
        "value": "0x0",
        "input": "0x50d8cd4b0000000000000000000000000000206329b97db379d5e1bf586bbdb969c632740000000000000000000000002ae3f1ec7f1f5012cfeab0185bfc7aa3cf0dec22000000000000000000000000826943587ffdaa11c3bfd730644d6dc299e5127800000000000000000000000046415998764c29ab2a25cbea6254146d50d226870000000000000000000000000000000000000000000000000bef55718ad600000000000000000000000000000000000000000000000000000c7d713b49da00000000000000000000000000000000000000000000000000000000000000000000000000000000000000000000a9bbbdde822789f123667044443dc7001fb43c01000000000000000000000000a9bbbdde822789f123667044443dc7001fb43c01",
        "nonce": "0x19",
        "chainId": "0x2105"
      },
      "additionalContracts": [],
      "isFixedGasLimit": false
    },
    {
      "hash": "0xa587d75b317cf972b5d561195e3006eb5c2ef5b5d45e091dc164b3205cc3bede",
      "transactionType": "CALL",
      "contractName": null,
      "contractAddress": "0xbbbbbbbbbb9cc5e90e3b3af64bdaf62c37eeffcb",
      "function": "createMarket((address,address,address,address,uint256))",
      "arguments": [
        "(0x0000206329b97DB379d5E1Bf586BbDB969C63274, 0x2416092f143378750bb29b79eD961ab195CcEea5, 0x4B5086653F9db675df31a618971e0EC26f6f081F, 0x46415998764C29aB2a25CbeA6254146D50D22687, 860000000000000000)"
      ],
      "transaction": {
        "from": "0xa9bbbdde822789f123667044443dc7001fb43c01",
        "to": "0xbbbbbbbbbb9cc5e90e3b3af64bdaf62c37eeffcb",
        "gas": "0x42a17",
        "value": "0x0",
        "input": "0x8c1358a20000000000000000000000000000206329b97db379d5e1bf586bbdb969c632740000000000000000000000002416092f143378750bb29b79ed961ab195cceea50000000000000000000000004b5086653f9db675df31a618971e0ec26f6f081f00000000000000000000000046415998764c29ab2a25cbea6254146d50d226870000000000000000000000000000000000000000000000000bef55718ad60000",
        "nonce": "0x1a",
        "chainId": "0x2105"
      },
      "additionalContracts": [],
      "isFixedGasLimit": false
    },
    {
      "hash": "0xe4bbde01aade8cf0c9214f532e3094a64fa73a6ed38633b20f768ae3d9ee2746",
      "transactionType": "CALL",
      "contractName": null,
      "contractAddress": "0x0000206329b97db379d5e1bf586bbdb969c63274",
      "function": "approve(address,uint256)",
      "arguments": [
        "0xBBBBBbbBBb9cC5e90e3b3Af64bdAF62C37EEFFCb",
        "1000000000000000000"
      ],
      "transaction": {
        "from": "0xa9bbbdde822789f123667044443dc7001fb43c01",
        "to": "0x0000206329b97db379d5e1bf586bbdb969c63274",
        "gas": "0x12025",
        "value": "0x0",
        "input": "0x095ea7b3000000000000000000000000bbbbbbbbbb9cc5e90e3b3af64bdaf62c37eeffcb0000000000000000000000000000000000000000000000000de0b6b3a7640000",
        "nonce": "0x1b",
        "chainId": "0x2105"
      },
      "additionalContracts": [],
      "isFixedGasLimit": false
    },
    {
      "hash": "0x0d8310255560bd85c6ecbed057b345287b31dd809589f4bc828ffd970ffc6c60",
      "transactionType": "CALL",
      "contractName": null,
      "contractAddress": "0xbbbbbbbbbb9cc5e90e3b3af64bdaf62c37eeffcb",
      "function": "supply((address,address,address,address,uint256),uint256,uint256,address,bytes)",
      "arguments": [
        "(0x0000206329b97DB379d5E1Bf586BbDB969C63274, 0x2416092f143378750bb29b79eD961ab195CcEea5, 0x4B5086653F9db675df31a618971e0EC26f6f081F, 0x46415998764C29aB2a25CbeA6254146D50D22687, 860000000000000000)",
        "1000000000000000000",
        "0",
        "0xa9bbbDDe822789F123667044443dc7001fb43C01",
        "0x"
      ],
      "transaction": {
        "from": "0xa9bbbdde822789f123667044443dc7001fb43c01",
        "to": "0xbbbbbbbbbb9cc5e90e3b3af64bdaf62c37eeffcb",
        "gas": "0x24bcb",
        "value": "0x0",
        "input": "0xa99aad890000000000000000000000000000206329b97db379d5e1bf586bbdb969c632740000000000000000000000002416092f143378750bb29b79ed961ab195cceea50000000000000000000000004b5086653f9db675df31a618971e0ec26f6f081f00000000000000000000000046415998764c29ab2a25cbea6254146d50d226870000000000000000000000000000000000000000000000000bef55718ad600000000000000000000000000000000000000000000000000000de0b6b3a76400000000000000000000000000000000000000000000000000000000000000000000000000000000000000000000a9bbbdde822789f123667044443dc7001fb43c0100000000000000000000000000000000000000000000000000000000000001200000000000000000000000000000000000000000000000000000000000000000",
        "nonce": "0x1c",
        "chainId": "0x2105"
      },
      "additionalContracts": [],
      "isFixedGasLimit": false
    },
    {
      "hash": "0x09c63f5f864637bbe38c963c3479caad0d71c368110d5ba7c4788dacaaf29757",
      "transactionType": "CALL",
      "contractName": null,
      "contractAddress": "0x2416092f143378750bb29b79ed961ab195cceea5",
      "function": "approve(address,uint256)",
      "arguments": [
        "0xBBBBBbbBBb9cC5e90e3b3Af64bdAF62C37EEFFCb",
        "2000000000000000"
      ],
      "transaction": {
        "from": "0xa9bbbdde822789f123667044443dc7001fb43c01",
        "to": "0x2416092f143378750bb29b79ed961ab195cceea5",
        "gas": "0x13166",
        "value": "0x0",
        "input": "0x095ea7b3000000000000000000000000bbbbbbbbbb9cc5e90e3b3af64bdaf62c37eeffcb00000000000000000000000000000000000000000000000000071afd498d0000",
        "nonce": "0x1d",
        "chainId": "0x2105"
      },
      "additionalContracts": [],
      "isFixedGasLimit": false
    },
    {
      "hash": "0x8dc7b6d03b10eb4d4ef48f1d252f2b4a1dd1e4376f5287b5289621885f76fcc4",
      "transactionType": "CALL",
      "contractName": null,
      "contractAddress": "0xbbbbbbbbbb9cc5e90e3b3af64bdaf62c37eeffcb",
      "function": "supplyCollateral((address,address,address,address,uint256),uint256,address,bytes)",
      "arguments": [
        "(0x0000206329b97DB379d5E1Bf586BbDB969C63274, 0x2416092f143378750bb29b79eD961ab195CcEea5, 0x4B5086653F9db675df31a618971e0EC26f6f081F, 0x46415998764C29aB2a25CbeA6254146D50D22687, 860000000000000000)",
        "2000000000000000",
        "0xa9bbbDDe822789F123667044443dc7001fb43C01",
        "0x"
      ],
      "transaction": {
        "from": "0xa9bbbdde822789f123667044443dc7001fb43c01",
        "to": "0xbbbbbbbbbb9cc5e90e3b3af64bdaf62c37eeffcb",
        "gas": "0x1c071",
        "value": "0x0",
        "input": "0x238d65790000000000000000000000000000206329b97db379d5e1bf586bbdb969c632740000000000000000000000002416092f143378750bb29b79ed961ab195cceea50000000000000000000000004b5086653f9db675df31a618971e0ec26f6f081f00000000000000000000000046415998764c29ab2a25cbea6254146d50d226870000000000000000000000000000000000000000000000000bef55718ad6000000000000000000000000000000000000000000000000000000071afd498d0000000000000000000000000000a9bbbdde822789f123667044443dc7001fb43c0100000000000000000000000000000000000000000000000000000000000001000000000000000000000000000000000000000000000000000000000000000000",
        "nonce": "0x1e",
        "chainId": "0x2105"
      },
      "additionalContracts": [],
      "isFixedGasLimit": false
    },
    {
      "hash": "0x7e632a8ea6eec95e3f40d17e58ca437f4a96304a5edbeb954d35a679ea1ac12d",
      "transactionType": "CALL",
      "contractName": null,
      "contractAddress": "0xbbbbbbbbbb9cc5e90e3b3af64bdaf62c37eeffcb",
      "function": "borrow((address,address,address,address,uint256),uint256,uint256,address,address)",
      "arguments": [
        "(0x0000206329b97DB379d5E1Bf586BbDB969C63274, 0x2416092f143378750bb29b79eD961ab195CcEea5, 0x4B5086653F9db675df31a618971e0EC26f6f081F, 0x46415998764C29aB2a25CbeA6254146D50D22687, 860000000000000000)",
        "900000000000000000",
        "0",
        "0xa9bbbDDe822789F123667044443dc7001fb43C01",
        "0xa9bbbDDe822789F123667044443dc7001fb43C01"
      ],
      "transaction": {
        "from": "0xa9bbbdde822789f123667044443dc7001fb43c01",
        "to": "0xbbbbbbbbbb9cc5e90e3b3af64bdaf62c37eeffcb",
        "gas": "0x2bd4f",
        "value": "0x0",
        "input": "0x50d8cd4b0000000000000000000000000000206329b97db379d5e1bf586bbdb969c632740000000000000000000000002416092f143378750bb29b79ed961ab195cceea50000000000000000000000004b5086653f9db675df31a618971e0ec26f6f081f00000000000000000000000046415998764c29ab2a25cbea6254146d50d226870000000000000000000000000000000000000000000000000bef55718ad600000000000000000000000000000000000000000000000000000c7d713b49da00000000000000000000000000000000000000000000000000000000000000000000000000000000000000000000a9bbbdde822789f123667044443dc7001fb43c01000000000000000000000000a9bbbdde822789f123667044443dc7001fb43c01",
        "nonce": "0x1f",
        "chainId": "0x2105"
      },
      "additionalContracts": [],
      "isFixedGasLimit": false
    },
    {
      "hash": "0xfd7f36b9020f37488e5c26a39cd220eefa30e434159ba1de67872b3cd6e0f449",
      "transactionType": "CALL",
      "contractName": null,
      "contractAddress": "0xbbbbbbbbbb9cc5e90e3b3af64bdaf62c37eeffcb",
      "function": "createMarket((address,address,address,address,uint256))",
      "arguments": [
        "(0x0000206329b97DB379d5E1Bf586BbDB969C63274, 0xc1CBa3fCea344f92D9239c08C0568f6F2F0ee452, 0x040ba460Ed355833a0693348421C7f1fd831D0c7, 0x46415998764C29aB2a25CbeA6254146D50D22687, 860000000000000000)"
      ],
      "transaction": {
        "from": "0xa9bbbdde822789f123667044443dc7001fb43c01",
        "to": "0xbbbbbbbbbb9cc5e90e3b3af64bdaf62c37eeffcb",
        "gas": "0x42a17",
        "value": "0x0",
        "input": "0x8c1358a20000000000000000000000000000206329b97db379d5e1bf586bbdb969c63274000000000000000000000000c1cba3fcea344f92d9239c08c0568f6f2f0ee452000000000000000000000000040ba460ed355833a0693348421c7f1fd831d0c700000000000000000000000046415998764c29ab2a25cbea6254146d50d226870000000000000000000000000000000000000000000000000bef55718ad60000",
        "nonce": "0x20",
        "chainId": "0x2105"
      },
      "additionalContracts": [],
      "isFixedGasLimit": false
    },
    {
      "hash": "0x8566f7f10249d162f46e19f19c307a49b222a796853676d93efc7d9b03d43525",
      "transactionType": "CALL",
      "contractName": null,
      "contractAddress": "0x0000206329b97db379d5e1bf586bbdb969c63274",
      "function": "approve(address,uint256)",
      "arguments": [
        "0xBBBBBbbBBb9cC5e90e3b3Af64bdAF62C37EEFFCb",
        "1000000000000000000"
      ],
      "transaction": {
        "from": "0xa9bbbdde822789f123667044443dc7001fb43c01",
        "to": "0x0000206329b97db379d5e1bf586bbdb969c63274",
        "gas": "0x12025",
        "value": "0x0",
        "input": "0x095ea7b3000000000000000000000000bbbbbbbbbb9cc5e90e3b3af64bdaf62c37eeffcb0000000000000000000000000000000000000000000000000de0b6b3a7640000",
        "nonce": "0x21",
        "chainId": "0x2105"
      },
      "additionalContracts": [],
      "isFixedGasLimit": false
    },
    {
      "hash": "0xe44000bff98e58c040f4b523e99c3b6c333f9179979f7f9254eb6e3105af5414",
      "transactionType": "CALL",
      "contractName": null,
      "contractAddress": "0xbbbbbbbbbb9cc5e90e3b3af64bdaf62c37eeffcb",
      "function": "supply((address,address,address,address,uint256),uint256,uint256,address,bytes)",
      "arguments": [
        "(0x0000206329b97DB379d5E1Bf586BbDB969C63274, 0xc1CBa3fCea344f92D9239c08C0568f6F2F0ee452, 0x040ba460Ed355833a0693348421C7f1fd831D0c7, 0x46415998764C29aB2a25CbeA6254146D50D22687, 860000000000000000)",
        "1000000000000000000",
        "0",
        "0xa9bbbDDe822789F123667044443dc7001fb43C01",
        "0x"
      ],
      "transaction": {
        "from": "0xa9bbbdde822789f123667044443dc7001fb43c01",
        "to": "0xbbbbbbbbbb9cc5e90e3b3af64bdaf62c37eeffcb",
        "gas": "0x24bcb",
        "value": "0x0",
        "input": "0xa99aad890000000000000000000000000000206329b97db379d5e1bf586bbdb969c63274000000000000000000000000c1cba3fcea344f92d9239c08c0568f6f2f0ee452000000000000000000000000040ba460ed355833a0693348421c7f1fd831d0c700000000000000000000000046415998764c29ab2a25cbea6254146d50d226870000000000000000000000000000000000000000000000000bef55718ad600000000000000000000000000000000000000000000000000000de0b6b3a76400000000000000000000000000000000000000000000000000000000000000000000000000000000000000000000a9bbbdde822789f123667044443dc7001fb43c0100000000000000000000000000000000000000000000000000000000000001200000000000000000000000000000000000000000000000000000000000000000",
        "nonce": "0x22",
        "chainId": "0x2105"
      },
      "additionalContracts": [],
      "isFixedGasLimit": false
    },
    {
      "hash": "0xe9f2053714c26d1526b5b32df019648dd0d6dbfe81b9062b5efafd65665013dc",
      "transactionType": "CALL",
      "contractName": null,
      "contractAddress": "0xc1cba3fcea344f92d9239c08c0568f6f2f0ee452",
      "function": "approve(address,uint256)",
      "arguments": [
        "0xBBBBBbbBBb9cC5e90e3b3Af64bdAF62C37EEFFCb",
        "2000000000000000"
      ],
      "transaction": {
        "from": "0xa9bbbdde822789f123667044443dc7001fb43c01",
        "to": "0xc1cba3fcea344f92d9239c08c0568f6f2f0ee452",
        "gas": "0x124ed",
        "value": "0x0",
        "input": "0x095ea7b3000000000000000000000000bbbbbbbbbb9cc5e90e3b3af64bdaf62c37eeffcb00000000000000000000000000000000000000000000000000071afd498d0000",
        "nonce": "0x23",
        "chainId": "0x2105"
      },
      "additionalContracts": [],
      "isFixedGasLimit": false
    },
    {
      "hash": "0xc2703b1a693d3aa1159513030b45a0d4d3e737e91c8d02d2b4defcd31bdd7d4b",
      "transactionType": "CALL",
      "contractName": null,
      "contractAddress": "0xbbbbbbbbbb9cc5e90e3b3af64bdaf62c37eeffcb",
      "function": "supplyCollateral((address,address,address,address,uint256),uint256,address,bytes)",
      "arguments": [
        "(0x0000206329b97DB379d5E1Bf586BbDB969C63274, 0xc1CBa3fCea344f92D9239c08C0568f6F2F0ee452, 0x040ba460Ed355833a0693348421C7f1fd831D0c7, 0x46415998764C29aB2a25CbeA6254146D50D22687, 860000000000000000)",
        "2000000000000000",
        "0xa9bbbDDe822789F123667044443dc7001fb43C01",
        "0x"
      ],
      "transaction": {
        "from": "0xa9bbbdde822789f123667044443dc7001fb43c01",
        "to": "0xbbbbbbbbbb9cc5e90e3b3af64bdaf62c37eeffcb",
        "gas": "0x1b3ed",
        "value": "0x0",
        "input": "0x238d65790000000000000000000000000000206329b97db379d5e1bf586bbdb969c63274000000000000000000000000c1cba3fcea344f92d9239c08c0568f6f2f0ee452000000000000000000000000040ba460ed355833a0693348421c7f1fd831d0c700000000000000000000000046415998764c29ab2a25cbea6254146d50d226870000000000000000000000000000000000000000000000000bef55718ad6000000000000000000000000000000000000000000000000000000071afd498d0000000000000000000000000000a9bbbdde822789f123667044443dc7001fb43c0100000000000000000000000000000000000000000000000000000000000001000000000000000000000000000000000000000000000000000000000000000000",
        "nonce": "0x24",
        "chainId": "0x2105"
      },
      "additionalContracts": [],
      "isFixedGasLimit": false
    },
    {
      "hash": "0x1590a8e238f56a8463a1484e11872d5d89c19db1ad7b978efb859a4bc7f706cc",
      "transactionType": "CALL",
      "contractName": null,
      "contractAddress": "0xbbbbbbbbbb9cc5e90e3b3af64bdaf62c37eeffcb",
      "function": "borrow((address,address,address,address,uint256),uint256,uint256,address,address)",
      "arguments": [
        "(0x0000206329b97DB379d5E1Bf586BbDB969C63274, 0xc1CBa3fCea344f92D9239c08C0568f6F2F0ee452, 0x040ba460Ed355833a0693348421C7f1fd831D0c7, 0x46415998764C29aB2a25CbeA6254146D50D22687, 860000000000000000)",
        "900000000000000000",
        "0",
        "0xa9bbbDDe822789F123667044443dc7001fb43C01",
        "0xa9bbbDDe822789F123667044443dc7001fb43C01"
      ],
      "transaction": {
        "from": "0xa9bbbdde822789f123667044443dc7001fb43c01",
        "to": "0xbbbbbbbbbb9cc5e90e3b3af64bdaf62c37eeffcb",
        "gas": "0x2e853",
        "value": "0x0",
        "input": "0x50d8cd4b0000000000000000000000000000206329b97db379d5e1bf586bbdb969c63274000000000000000000000000c1cba3fcea344f92d9239c08c0568f6f2f0ee452000000000000000000000000040ba460ed355833a0693348421c7f1fd831d0c700000000000000000000000046415998764c29ab2a25cbea6254146d50d226870000000000000000000000000000000000000000000000000bef55718ad600000000000000000000000000000000000000000000000000000c7d713b49da00000000000000000000000000000000000000000000000000000000000000000000000000000000000000000000a9bbbdde822789f123667044443dc7001fb43c01000000000000000000000000a9bbbdde822789f123667044443dc7001fb43c01",
        "nonce": "0x25",
        "chainId": "0x2105"
      },
      "additionalContracts": [],
      "isFixedGasLimit": false
    }
  ],
  "receipts": [
    {
      "status": "0x1",
      "cumulativeGasUsed": "0x97a07",
      "logs": [
        {
          "address": "0x2dc205f24bcb6b311e5cdf0745b0741648aebd3d",
          "topics": [
            "0x6436acb89463dbc9036f1e52aebf32ac0bf5f69e3987c067110c3ac403ebda33"
          ],
          "data": "0x000000000000000000000000a9bbbdde822789f123667044443dc7001fb43c01000000000000000000000000826943587ffdaa11c3bfd730644d6dc299e51278",
          "blockHash": "0x5fcb251b23b83a74d77406f07980a36dc917a85c58bc1aa55f62c01d38b42133",
          "blockNumber": "0xf443fc",
          "blockTimestamp": "0x6672e502",
          "transactionHash": "0x35d7cdf9251533ab83fd57ae42c7f1ae30fce2f530e5a35b7610c973f3a8e93f",
          "transactionIndex": "0x0",
          "logIndex": "0x0",
          "removed": false
        }
      ],
      "logsBloom": "0x00000000000000000000000000000000000000000000000000000000000200000000000000000000000000000000000000000000000000000000000000000000000000000000000000000000000000000000000000000000000000000000000000000000000000000000000000000000000000000000000000000000000000000000000000000000000000000000000000002000000000000000000000000000000000000000000000000000000000000000000000000000000000000000000000000000000000000000004000000000000000000000000000000000000000000000000000000080000000002000000000000040000000000000000000000000",
      "type": "0x2",
      "transactionHash": "0x35d7cdf9251533ab83fd57ae42c7f1ae30fce2f530e5a35b7610c973f3a8e93f",
      "transactionIndex": "0x0",
      "blockHash": "0x5fcb251b23b83a74d77406f07980a36dc917a85c58bc1aa55f62c01d38b42133",
      "blockNumber": "0xf443fc",
      "gasUsed": "0x97a07",
      "effectiveGasPrice": "0x12e640e",
      "blobGasPrice": "0x1",
      "from": "0xa9bbbdde822789f123667044443dc7001fb43c01",
      "to": "0x2dc205f24bcb6b311e5cdf0745b0741648aebd3d",
      "contractAddress": null,
      "root": "0x0000000000000000000000000000000000000000000000000000000000000000"
    },
    {
      "status": "0x1",
      "cumulativeGasUsed": "0x303d5",
      "logs": [
        {
          "address": "0xbbbbbbbbbb9cc5e90e3b3af64bdaf62c37eeffcb",
          "topics": [
            "0xac4b2400f169220b0c0afdde7a0b32e775ba727ea1cb30b35f935cdaab8683ac",
            "0xfba4338b51c9d9b00023dd66a7e62a2d58b815ca15a998b49771591a815a41b2"
          ],
          "data": "0x0000000000000000000000000000206329b97db379d5e1bf586bbdb969c632740000000000000000000000002ae3f1ec7f1f5012cfeab0185bfc7aa3cf0dec22000000000000000000000000826943587ffdaa11c3bfd730644d6dc299e5127800000000000000000000000046415998764c29ab2a25cbea6254146d50d226870000000000000000000000000000000000000000000000000bef55718ad60000",
          "blockHash": "0x94cac61835975958cb455d9f74d8e3b57534e3720db65093198635e7776b188f",
          "blockNumber": "0xf443fd",
          "blockTimestamp": "0x6672e503",
          "transactionHash": "0xaa9e0765c394c67c26efffa7ed16ad1a65af6868b323b7923da9184e24a43362",
          "transactionIndex": "0x0",
          "logIndex": "0x0",
          "removed": false
        },
        {
          "address": "0x46415998764c29ab2a25cbea6254146d50d22687",
          "topics": [
            "0x7120161a7b3d31251e01294ab351ef15a41b91659a36032e4641bb89b121e321",
            "0xfba4338b51c9d9b00023dd66a7e62a2d58b815ca15a998b49771591a815a41b2"
          ],
          "data": "0x0000000000000000000000000000000000000000000000000000000012e687bf000000000000000000000000000000000000000000000000000000004b9a1eff",
          "blockHash": "0x94cac61835975958cb455d9f74d8e3b57534e3720db65093198635e7776b188f",
          "blockNumber": "0xf443fd",
          "blockTimestamp": "0x6672e503",
          "transactionHash": "0xaa9e0765c394c67c26efffa7ed16ad1a65af6868b323b7923da9184e24a43362",
          "transactionIndex": "0x0",
          "logIndex": "0x1",
          "removed": false
        }
      ],
      "logsBloom": "0x00000000000000000000000000000800000000000000000000000000000000000000000000000100000000000000000000000000000000000000000000804000000000000010000000000000000000000000000000000000000000000000000000000000000000002000000000000000000000000000000000000040000000000000000000000008000000000000000000000000000000000008000000000000000000000000000000000000000000000000000000000000000000000000000020000000000008000000000000000000000140000000000000000000000000000000000000000000000000000001000000000000000000000000000000000010",
      "type": "0x2",
      "transactionHash": "0xaa9e0765c394c67c26efffa7ed16ad1a65af6868b323b7923da9184e24a43362",
      "transactionIndex": "0x0",
      "blockHash": "0x94cac61835975958cb455d9f74d8e3b57534e3720db65093198635e7776b188f",
      "blockNumber": "0xf443fd",
      "gasUsed": "0x303d5",
      "effectiveGasPrice": "0x109b4b3",
      "blobGasPrice": "0x1",
      "from": "0xa9bbbdde822789f123667044443dc7001fb43c01",
      "to": "0xbbbbbbbbbb9cc5e90e3b3af64bdaf62c37eeffcb",
      "contractAddress": null,
      "root": "0x0000000000000000000000000000000000000000000000000000000000000000"
    },
    {
      "status": "0x1",
      "cumulativeGasUsed": "0xd09e",
      "logs": [
        {
          "address": "0x0000206329b97db379d5e1bf586bbdb969c63274",
          "topics": [
            "0x8c5be1e5ebec7d5bd14f71427d1e84f3dd0314c0f7b2291e5b200ac8c7c3b925",
            "0x000000000000000000000000a9bbbdde822789f123667044443dc7001fb43c01",
            "0x000000000000000000000000bbbbbbbbbb9cc5e90e3b3af64bdaf62c37eeffcb"
          ],
          "data": "0x0000000000000000000000000000000000000000000000000de0b6b3a7640000",
          "blockHash": "0x80f5faf47cb55e599976ec76c0bf410c4a40e4e676da95bfa3aa78de175c8101",
          "blockNumber": "0xf443fe",
          "blockTimestamp": "0x6672e504",
          "transactionHash": "0x31ccdfe29d21657f2f6c25d43ac85cf1075bfb84abbf17a2a1dcc09c3b3092ec",
          "transactionIndex": "0x0",
          "logIndex": "0x0",
          "removed": false
        }
      ],
      "logsBloom": "0x00000000000000000000000000000080000000000000000000000008000000000000000000000000000000000000000000008000000000000000000000200000000000000000000000000000000004000000000000000000000002000000000000000000000000000000000000000000000000000000000000000000000000000000000000000000000000000000000000000000000000000000000000000000020000000000000000000000000000000000000000000000000000000000000000000000000000000000000000000000000000004000000000000000000000000010000001000000000000200000000000000000000000000000000000004000",
      "type": "0x2",
      "transactionHash": "0x31ccdfe29d21657f2f6c25d43ac85cf1075bfb84abbf17a2a1dcc09c3b3092ec",
      "transactionIndex": "0x0",
      "blockHash": "0x80f5faf47cb55e599976ec76c0bf410c4a40e4e676da95bfa3aa78de175c8101",
      "blockNumber": "0xf443fe",
      "gasUsed": "0xd09e",
      "effectiveGasPrice": "0xe943e0",
      "blobGasPrice": "0x1",
      "from": "0xa9bbbdde822789f123667044443dc7001fb43c01",
      "to": "0x0000206329b97db379d5e1bf586bbdb969c63274",
      "contractAddress": null,
      "root": "0x0000000000000000000000000000000000000000000000000000000000000000"
    },
    {
      "status": "0x1",
      "cumulativeGasUsed": "0x22e03",
      "logs": [
        {
          "address": "0x46415998764c29ab2a25cbea6254146d50d22687",
          "topics": [
            "0x7120161a7b3d31251e01294ab351ef15a41b91659a36032e4641bb89b121e321",
            "0xfba4338b51c9d9b00023dd66a7e62a2d58b815ca15a998b49771591a815a41b2"
          ],
          "data": "0x0000000000000000000000000000000000000000000000000000000012e685c8000000000000000000000000000000000000000000000000000000004b9a0f48",
          "blockHash": "0xe753555525eb5730f1f01e554f5e7c264ae0c1cc77140ed7afeef51da98d4b5c",
          "blockNumber": "0xf443ff",
          "blockTimestamp": "0x6672e505",
          "transactionHash": "0xbcaf4ff94d61eab7bbf713dd90915aaa3f1b4db94c8537ca25022f48bebbbcb4",
          "transactionIndex": "0x0",
          "logIndex": "0x0",
          "removed": false
        },
        {
          "address": "0xbbbbbbbbbb9cc5e90e3b3af64bdaf62c37eeffcb",
          "topics": [
            "0x9d9bd501d0657d7dfe415f779a620a62b78bc508ddc0891fbbd8b7ac0f8fce87",
            "0xfba4338b51c9d9b00023dd66a7e62a2d58b815ca15a998b49771591a815a41b2"
          ],
          "data": "0x0000000000000000000000000000000000000000000000000000000012e685c800000000000000000000000000000000000000000000000000000000000000000000000000000000000000000000000000000000000000000000000000000000",
          "blockHash": "0xe753555525eb5730f1f01e554f5e7c264ae0c1cc77140ed7afeef51da98d4b5c",
          "blockNumber": "0xf443ff",
          "blockTimestamp": "0x6672e505",
          "transactionHash": "0xbcaf4ff94d61eab7bbf713dd90915aaa3f1b4db94c8537ca25022f48bebbbcb4",
          "transactionIndex": "0x0",
          "logIndex": "0x1",
          "removed": false
        },
        {
          "address": "0xbbbbbbbbbb9cc5e90e3b3af64bdaf62c37eeffcb",
          "topics": [
            "0xedf8870433c83823eb071d3df1caa8d008f12f6440918c20d75a3602cda30fe0",
            "0xfba4338b51c9d9b00023dd66a7e62a2d58b815ca15a998b49771591a815a41b2",
            "0x000000000000000000000000a9bbbdde822789f123667044443dc7001fb43c01",
            "0x000000000000000000000000a9bbbdde822789f123667044443dc7001fb43c01"
          ],
          "data": "0x0000000000000000000000000000000000000000000000000de0b6b3a764000000000000000000000000000000000000000000000000d3c21bcecceda1000000",
          "blockHash": "0xe753555525eb5730f1f01e554f5e7c264ae0c1cc77140ed7afeef51da98d4b5c",
          "blockNumber": "0xf443ff",
          "blockTimestamp": "0x6672e505",
          "transactionHash": "0xbcaf4ff94d61eab7bbf713dd90915aaa3f1b4db94c8537ca25022f48bebbbcb4",
          "transactionIndex": "0x0",
          "logIndex": "0x2",
          "removed": false
        },
        {
          "address": "0x0000206329b97db379d5e1bf586bbdb969c63274",
          "topics": [
            "0x8c5be1e5ebec7d5bd14f71427d1e84f3dd0314c0f7b2291e5b200ac8c7c3b925",
            "0x000000000000000000000000a9bbbdde822789f123667044443dc7001fb43c01",
            "0x000000000000000000000000bbbbbbbbbb9cc5e90e3b3af64bdaf62c37eeffcb"
          ],
          "data": "0x0000000000000000000000000000000000000000000000000000000000000000",
          "blockHash": "0xe753555525eb5730f1f01e554f5e7c264ae0c1cc77140ed7afeef51da98d4b5c",
          "blockNumber": "0xf443ff",
          "blockTimestamp": "0x6672e505",
          "transactionHash": "0xbcaf4ff94d61eab7bbf713dd90915aaa3f1b4db94c8537ca25022f48bebbbcb4",
          "transactionIndex": "0x0",
          "logIndex": "0x3",
          "removed": false
        },
        {
          "address": "0x0000206329b97db379d5e1bf586bbdb969c63274",
          "topics": [
            "0xddf252ad1be2c89b69c2b068fc378daa952ba7f163c4a11628f55a4df523b3ef",
            "0x000000000000000000000000a9bbbdde822789f123667044443dc7001fb43c01",
            "0x000000000000000000000000bbbbbbbbbb9cc5e90e3b3af64bdaf62c37eeffcb"
          ],
          "data": "0x0000000000000000000000000000000000000000000000000de0b6b3a7640000",
          "blockHash": "0xe753555525eb5730f1f01e554f5e7c264ae0c1cc77140ed7afeef51da98d4b5c",
          "blockNumber": "0xf443ff",
          "blockTimestamp": "0x6672e505",
          "transactionHash": "0xbcaf4ff94d61eab7bbf713dd90915aaa3f1b4db94c8537ca25022f48bebbbcb4",
          "transactionIndex": "0x0",
          "logIndex": "0x4",
          "removed": false
        }
      ],
      "logsBloom": "0x00000000000000000000000000000080000000000000000000000008000000000000400000000100000000000000000000008000000000000000000020a04000000000000010000000000008800004000000000800000000000002080000000000000000000000002000000000000000000000000000000000000010000000000000000000000008000000000000000000000000000000000008000000000000020000000000000000000000000000000000000000000000000000000000000020000002000008000000000000000000000140004000000000000000000000400010000001000000000000200001000000000000000000000000000000004000",
      "type": "0x2",
      "transactionHash": "0xbcaf4ff94d61eab7bbf713dd90915aaa3f1b4db94c8537ca25022f48bebbbcb4",
      "transactionIndex": "0x0",
      "blockHash": "0xe753555525eb5730f1f01e554f5e7c264ae0c1cc77140ed7afeef51da98d4b5c",
      "blockNumber": "0xf443ff",
      "gasUsed": "0x22e03",
      "effectiveGasPrice": "0xccc75b",
      "blobGasPrice": "0x1",
      "from": "0xa9bbbdde822789f123667044443dc7001fb43c01",
      "to": "0xbbbbbbbbbb9cc5e90e3b3af64bdaf62c37eeffcb",
      "contractAddress": null,
      "root": "0x0000000000000000000000000000000000000000000000000000000000000000"
    },
    {
      "status": "0x1",
      "cumulativeGasUsed": "0xc7fe",
      "logs": [
        {
          "address": "0x2ae3f1ec7f1f5012cfeab0185bfc7aa3cf0dec22",
          "topics": [
            "0x8c5be1e5ebec7d5bd14f71427d1e84f3dd0314c0f7b2291e5b200ac8c7c3b925",
            "0x000000000000000000000000a9bbbdde822789f123667044443dc7001fb43c01",
            "0x000000000000000000000000bbbbbbbbbb9cc5e90e3b3af64bdaf62c37eeffcb"
          ],
          "data": "0x00000000000000000000000000000000000000000000000000071afd498d0000",
          "blockHash": "0x07bee11008ad0cddce5f3d510e0dcce56174d6e192720e02f9c5e75ffd6f6abb",
          "blockNumber": "0xf44400",
          "blockTimestamp": "0x6672e506",
          "transactionHash": "0x624969d7126b6299877afdc9121550e05b719c60057805b342549ce280b6c4e8",
          "transactionIndex": "0x0",
          "logIndex": "0x0",
          "removed": false
        }
      ],
      "logsBloom": "0x00000000000000000000000000000080000000000000000000000008000000000000000000000000000000000000000000008000000000000000000000200000000000000000000000000000000000000000000000000000000002000000000000000000000000000000000000000000000000000000000000000000000000000000000000000000000000000000000000000000000000000000000000000000020000000000000000000000000000000001000000000000000000000000000000000000000000000000000000000000000000000000000000000000000000000010000001000000100000200000000004000000000000000000000000000000",
      "type": "0x2",
      "transactionHash": "0x624969d7126b6299877afdc9121550e05b719c60057805b342549ce280b6c4e8",
      "transactionIndex": "0x0",
      "blockHash": "0x07bee11008ad0cddce5f3d510e0dcce56174d6e192720e02f9c5e75ffd6f6abb",
      "blockNumber": "0xf44400",
      "gasUsed": "0xc7fe",
      "effectiveGasPrice": "0xb3e51f",
      "blobGasPrice": "0x1",
      "from": "0xa9bbbdde822789f123667044443dc7001fb43c01",
      "to": "0x2ae3f1ec7f1f5012cfeab0185bfc7aa3cf0dec22",
      "contractAddress": null,
      "root": "0x0000000000000000000000000000000000000000000000000000000000000000"
    },
    {
      "status": "0x1",
      "cumulativeGasUsed": "0x1299f",
      "logs": [
        {
          "address": "0xbbbbbbbbbb9cc5e90e3b3af64bdaf62c37eeffcb",
          "topics": [
            "0xa3b9472a1399e17e123f3c2e6586c23e504184d504de59cdaa2b375e880c6184",
            "0xfba4338b51c9d9b00023dd66a7e62a2d58b815ca15a998b49771591a815a41b2",
            "0x000000000000000000000000a9bbbdde822789f123667044443dc7001fb43c01",
            "0x000000000000000000000000a9bbbdde822789f123667044443dc7001fb43c01"
          ],
          "data": "0x00000000000000000000000000000000000000000000000000071afd498d0000",
          "blockHash": "0x0f7d947b48b61f2bd0e161f149dace3ef4823cacfb8cea90b307a8df08ef9146",
          "blockNumber": "0xf44401",
          "blockTimestamp": "0x6672e507",
          "transactionHash": "0x7ad59c0e954be5ff8014351f152d06ee0236ec6d45b531a5a57238bef5f2bb52",
          "transactionIndex": "0x0",
          "logIndex": "0x0",
          "removed": false
        },
        {
          "address": "0x2ae3f1ec7f1f5012cfeab0185bfc7aa3cf0dec22",
          "topics": [
            "0x8c5be1e5ebec7d5bd14f71427d1e84f3dd0314c0f7b2291e5b200ac8c7c3b925",
            "0x000000000000000000000000a9bbbdde822789f123667044443dc7001fb43c01",
            "0x000000000000000000000000bbbbbbbbbb9cc5e90e3b3af64bdaf62c37eeffcb"
          ],
          "data": "0x0000000000000000000000000000000000000000000000000000000000000000",
          "blockHash": "0x0f7d947b48b61f2bd0e161f149dace3ef4823cacfb8cea90b307a8df08ef9146",
          "blockNumber": "0xf44401",
          "blockTimestamp": "0x6672e507",
          "transactionHash": "0x7ad59c0e954be5ff8014351f152d06ee0236ec6d45b531a5a57238bef5f2bb52",
          "transactionIndex": "0x0",
          "logIndex": "0x1",
          "removed": false
        },
        {
          "address": "0x2ae3f1ec7f1f5012cfeab0185bfc7aa3cf0dec22",
          "topics": [
            "0xddf252ad1be2c89b69c2b068fc378daa952ba7f163c4a11628f55a4df523b3ef",
            "0x000000000000000000000000a9bbbdde822789f123667044443dc7001fb43c01",
            "0x000000000000000000000000bbbbbbbbbb9cc5e90e3b3af64bdaf62c37eeffcb"
          ],
          "data": "0x00000000000000000000000000000000000000000000000000071afd498d0000",
          "blockHash": "0x0f7d947b48b61f2bd0e161f149dace3ef4823cacfb8cea90b307a8df08ef9146",
          "blockNumber": "0xf44401",
          "blockTimestamp": "0x6672e507",
          "transactionHash": "0x7ad59c0e954be5ff8014351f152d06ee0236ec6d45b531a5a57238bef5f2bb52",
          "transactionIndex": "0x0",
          "logIndex": "0x2",
          "removed": false
        }
      ],
      "logsBloom": "0x00000000000000000000000000000080000000000000000000000008000000000000000000000000000000000000000000008000000000000000000000200000000000000010000000000008000000000000000000000000000002000000000000000000000000002000000000000000000000000000000000000010000000000000008000000008000000000000000000000000000000000000000000000000020000000000000000000000000000000001000000000000000000000000000020000002000008000000000000000000000040000000000400000000000000000010000001000000100000200000200004000000000000000000000000000000",
      "type": "0x2",
      "transactionHash": "0x7ad59c0e954be5ff8014351f152d06ee0236ec6d45b531a5a57238bef5f2bb52",
      "transactionIndex": "0x0",
      "blockHash": "0x0f7d947b48b61f2bd0e161f149dace3ef4823cacfb8cea90b307a8df08ef9146",
      "blockNumber": "0xf44401",
      "gasUsed": "0x1299f",
      "effectiveGasPrice": "0x9e1252",
      "blobGasPrice": "0x1",
      "from": "0xa9bbbdde822789f123667044443dc7001fb43c01",
      "to": "0xbbbbbbbbbb9cc5e90e3b3af64bdaf62c37eeffcb",
      "contractAddress": null,
      "root": "0x0000000000000000000000000000000000000000000000000000000000000000"
    },
    {
      "status": "0x1",
      "cumulativeGasUsed": "0x24d8d",
      "logs": [
        {
          "address": "0x46415998764c29ab2a25cbea6254146d50d22687",
          "topics": [
            "0x7120161a7b3d31251e01294ab351ef15a41b91659a36032e4641bb89b121e321",
            "0xfba4338b51c9d9b00023dd66a7e62a2d58b815ca15a998b49771591a815a41b2"
          ],
          "data": "0x0000000000000000000000000000000000000000000000000000000012e680df000000000000000000000000000000000000000000000000000000004b99f7b6",
          "blockHash": "0xfd1189f8c65ee6c24a47be042bfc12bb391a33671838e40e3dcbc3869fca2f7f",
          "blockNumber": "0xf44402",
          "blockTimestamp": "0x6672e508",
          "transactionHash": "0x608b117cd91e2d715036a8fd798d1e32590561c887246b3c5df5646de17cf7fe",
          "transactionIndex": "0x0",
          "logIndex": "0x0",
          "removed": false
        },
        {
          "address": "0xbbbbbbbbbb9cc5e90e3b3af64bdaf62c37eeffcb",
          "topics": [
            "0x9d9bd501d0657d7dfe415f779a620a62b78bc508ddc0891fbbd8b7ac0f8fce87",
            "0xfba4338b51c9d9b00023dd66a7e62a2d58b815ca15a998b49771591a815a41b2"
          ],
          "data": "0x0000000000000000000000000000000000000000000000000000000012e680df00000000000000000000000000000000000000000000000000000000000000000000000000000000000000000000000000000000000000000000000000000000",
          "blockHash": "0xfd1189f8c65ee6c24a47be042bfc12bb391a33671838e40e3dcbc3869fca2f7f",
          "blockNumber": "0xf44402",
          "blockTimestamp": "0x6672e508",
          "transactionHash": "0x608b117cd91e2d715036a8fd798d1e32590561c887246b3c5df5646de17cf7fe",
          "transactionIndex": "0x0",
          "logIndex": "0x1",
          "removed": false
        },
        {
          "address": "0xbbbbbbbbbb9cc5e90e3b3af64bdaf62c37eeffcb",
          "topics": [
            "0x570954540bed6b1304a87dfe815a5eda4a648f7097a16240dcd85c9b5fd42a43",
            "0xfba4338b51c9d9b00023dd66a7e62a2d58b815ca15a998b49771591a815a41b2",
            "0x000000000000000000000000a9bbbdde822789f123667044443dc7001fb43c01",
            "0x000000000000000000000000a9bbbdde822789f123667044443dc7001fb43c01"
          ],
          "data": "0x000000000000000000000000a9bbbdde822789f123667044443dc7001fb43c010000000000000000000000000000000000000000000000000c7d713b49da000000000000000000000000000000000000000000000000be951906eba2aa800000",
          "blockHash": "0xfd1189f8c65ee6c24a47be042bfc12bb391a33671838e40e3dcbc3869fca2f7f",
          "blockNumber": "0xf44402",
          "blockTimestamp": "0x6672e508",
          "transactionHash": "0x608b117cd91e2d715036a8fd798d1e32590561c887246b3c5df5646de17cf7fe",
          "transactionIndex": "0x0",
          "logIndex": "0x2",
          "removed": false
        },
        {
          "address": "0x0000206329b97db379d5e1bf586bbdb969c63274",
          "topics": [
            "0xddf252ad1be2c89b69c2b068fc378daa952ba7f163c4a11628f55a4df523b3ef",
            "0x000000000000000000000000bbbbbbbbbb9cc5e90e3b3af64bdaf62c37eeffcb",
            "0x000000000000000000000000a9bbbdde822789f123667044443dc7001fb43c01"
          ],
          "data": "0x0000000000000000000000000000000000000000000000000c7d713b49da0000",
          "blockHash": "0xfd1189f8c65ee6c24a47be042bfc12bb391a33671838e40e3dcbc3869fca2f7f",
          "blockNumber": "0xf44402",
          "blockTimestamp": "0x6672e508",
          "transactionHash": "0x608b117cd91e2d715036a8fd798d1e32590561c887246b3c5df5646de17cf7fe",
          "transactionIndex": "0x0",
          "logIndex": "0x3",
          "removed": false
        }
      ],
      "logsBloom": "0x00000000000000000002000000000080000000000000000000000008000000000000400000000100000000000000000000008000000000000000000020804000000000000010000000000008000004000000000000000000000002080000000000000000000000002000000000000000000000000000000000000010000000000000000000000008000000000000000000000000000000000008000000000000000000000000000000000000000000000000000000000000000000000000000020000002000008000000000000000000000140004000000000000000000000000000004001000008000000200001000000000000000000000000000000004000",
      "type": "0x2",
      "transactionHash": "0x608b117cd91e2d715036a8fd798d1e32590561c887246b3c5df5646de17cf7fe",
      "transactionIndex": "0x0",
      "blockHash": "0xfd1189f8c65ee6c24a47be042bfc12bb391a33671838e40e3dcbc3869fca2f7f",
      "blockNumber": "0xf44402",
      "gasUsed": "0x24d8d",
      "effectiveGasPrice": "0x8afba5",
      "blobGasPrice": "0x1",
      "from": "0xa9bbbdde822789f123667044443dc7001fb43c01",
      "to": "0xbbbbbbbbbb9cc5e90e3b3af64bdaf62c37eeffcb",
      "contractAddress": null,
      "root": "0x0000000000000000000000000000000000000000000000000000000000000000"
    },
    {
      "status": "0x1",
      "cumulativeGasUsed": "0x303d5",
      "logs": [
        {
          "address": "0xbbbbbbbbbb9cc5e90e3b3af64bdaf62c37eeffcb",
          "topics": [
            "0xac4b2400f169220b0c0afdde7a0b32e775ba727ea1cb30b35f935cdaab8683ac",
            "0x2e211437b3f7efbd1c016b9d492899735e831b8dd16cc5d58c66f1252693dd0a"
          ],
          "data": "0x0000000000000000000000000000206329b97db379d5e1bf586bbdb969c632740000000000000000000000002416092f143378750bb29b79ed961ab195cceea50000000000000000000000004b5086653f9db675df31a618971e0ec26f6f081f00000000000000000000000046415998764c29ab2a25cbea6254146d50d226870000000000000000000000000000000000000000000000000bef55718ad60000",
          "blockHash": "0x5b6eeb01ab7c5c471c830db2d8718cab133114bf7f74c9737994e7f87bfabacc",
          "blockNumber": "0xf44403",
          "blockTimestamp": "0x6672e509",
          "transactionHash": "0xa587d75b317cf972b5d561195e3006eb5c2ef5b5d45e091dc164b3205cc3bede",
          "transactionIndex": "0x0",
          "logIndex": "0x0",
          "removed": false
        },
        {
          "address": "0x46415998764c29ab2a25cbea6254146d50d22687",
          "topics": [
            "0x7120161a7b3d31251e01294ab351ef15a41b91659a36032e4641bb89b121e321",
            "0x2e211437b3f7efbd1c016b9d492899735e831b8dd16cc5d58c66f1252693dd0a"
          ],
          "data": "0x0000000000000000000000000000000000000000000000000000000012e687bf000000000000000000000000000000000000000000000000000000004b9a1eff",
          "blockHash": "0x5b6eeb01ab7c5c471c830db2d8718cab133114bf7f74c9737994e7f87bfabacc",
          "blockNumber": "0xf44403",
          "blockTimestamp": "0x6672e509",
          "transactionHash": "0xa587d75b317cf972b5d561195e3006eb5c2ef5b5d45e091dc164b3205cc3bede",
          "transactionIndex": "0x0",
          "logIndex": "0x1",
          "removed": false
        }
      ],
      "logsBloom": "0x00000000000000000000000000000800000000000000000000000000000000000000000000000100000000000000000000000000000000000000000000804000000000000010000000000000000000000000000000000000000000000000000000000000000000000000000000000000000000400000000000000040000000000000000000000008000000000000000000000000000000000008000000000000000000000000000000000000000000000000000000000000000000000000000020000000000000000000000000000000000100000000000000000000400000000000000000400000000000000001000000000000000000000000000000000010",
      "type": "0x2",
      "transactionHash": "0xa587d75b317cf972b5d561195e3006eb5c2ef5b5d45e091dc164b3205cc3bede",
      "transactionIndex": "0x0",
      "blockHash": "0x5b6eeb01ab7c5c471c830db2d8718cab133114bf7f74c9737994e7f87bfabacc",
      "blockNumber": "0xf44403",
      "gasUsed": "0x303d5",
      "effectiveGasPrice": "0x7a4d6a",
      "blobGasPrice": "0x1",
      "from": "0xa9bbbdde822789f123667044443dc7001fb43c01",
      "to": "0xbbbbbbbbbb9cc5e90e3b3af64bdaf62c37eeffcb",
      "contractAddress": null,
      "root": "0x0000000000000000000000000000000000000000000000000000000000000000"
    },
    {
      "status": "0x1",
      "cumulativeGasUsed": "0xd09e",
      "logs": [
        {
          "address": "0x0000206329b97db379d5e1bf586bbdb969c63274",
          "topics": [
            "0x8c5be1e5ebec7d5bd14f71427d1e84f3dd0314c0f7b2291e5b200ac8c7c3b925",
            "0x000000000000000000000000a9bbbdde822789f123667044443dc7001fb43c01",
            "0x000000000000000000000000bbbbbbbbbb9cc5e90e3b3af64bdaf62c37eeffcb"
          ],
          "data": "0x0000000000000000000000000000000000000000000000000de0b6b3a7640000",
          "blockHash": "0xcd1975289faffb43bd253f7da3ce4238a1c4add72a2e1fc58dc833376422e64b",
          "blockNumber": "0xf44404",
          "blockTimestamp": "0x6672e50a",
          "transactionHash": "0xe4bbde01aade8cf0c9214f532e3094a64fa73a6ed38633b20f768ae3d9ee2746",
          "transactionIndex": "0x0",
          "logIndex": "0x0",
          "removed": false
        }
      ],
      "logsBloom": "0x00000000000000000000000000000080000000000000000000000008000000000000000000000000000000000000000000008000000000000000000000200000000000000000000000000000000004000000000000000000000002000000000000000000000000000000000000000000000000000000000000000000000000000000000000000000000000000000000000000000000000000000000000000000020000000000000000000000000000000000000000000000000000000000000000000000000000000000000000000000000000004000000000000000000000000010000001000000000000200000000000000000000000000000000000004000",
      "type": "0x2",
      "transactionHash": "0xe4bbde01aade8cf0c9214f532e3094a64fa73a6ed38633b20f768ae3d9ee2746",
      "transactionIndex": "0x0",
      "blockHash": "0xcd1975289faffb43bd253f7da3ce4238a1c4add72a2e1fc58dc833376422e64b",
      "blockNumber": "0xf44404",
      "gasUsed": "0xd09e",
      "effectiveGasPrice": "0x6bb6e7",
      "blobGasPrice": "0x1",
      "from": "0xa9bbbdde822789f123667044443dc7001fb43c01",
      "to": "0x0000206329b97db379d5e1bf586bbdb969c63274",
      "contractAddress": null,
      "root": "0x0000000000000000000000000000000000000000000000000000000000000000"
    },
    {
      "status": "0x1",
      "cumulativeGasUsed": "0x1eb37",
      "logs": [
        {
          "address": "0x46415998764c29ab2a25cbea6254146d50d22687",
          "topics": [
            "0x7120161a7b3d31251e01294ab351ef15a41b91659a36032e4641bb89b121e321",
            "0x2e211437b3f7efbd1c016b9d492899735e831b8dd16cc5d58c66f1252693dd0a"
          ],
          "data": "0x0000000000000000000000000000000000000000000000000000000012e685c8000000000000000000000000000000000000000000000000000000004b9a0f48",
          "blockHash": "0xd9496446bdc8eae485036156d40d31bb82d0b9ca53d385a3f277075e3082500c",
          "blockNumber": "0xf44405",
          "blockTimestamp": "0x6672e50b",
          "transactionHash": "0x0d8310255560bd85c6ecbed057b345287b31dd809589f4bc828ffd970ffc6c60",
          "transactionIndex": "0x0",
          "logIndex": "0x0",
          "removed": false
        },
        {
          "address": "0xbbbbbbbbbb9cc5e90e3b3af64bdaf62c37eeffcb",
          "topics": [
            "0x9d9bd501d0657d7dfe415f779a620a62b78bc508ddc0891fbbd8b7ac0f8fce87",
            "0x2e211437b3f7efbd1c016b9d492899735e831b8dd16cc5d58c66f1252693dd0a"
          ],
          "data": "0x0000000000000000000000000000000000000000000000000000000012e685c800000000000000000000000000000000000000000000000000000000000000000000000000000000000000000000000000000000000000000000000000000000",
          "blockHash": "0xd9496446bdc8eae485036156d40d31bb82d0b9ca53d385a3f277075e3082500c",
          "blockNumber": "0xf44405",
          "blockTimestamp": "0x6672e50b",
          "transactionHash": "0x0d8310255560bd85c6ecbed057b345287b31dd809589f4bc828ffd970ffc6c60",
          "transactionIndex": "0x0",
          "logIndex": "0x1",
          "removed": false
        },
        {
          "address": "0xbbbbbbbbbb9cc5e90e3b3af64bdaf62c37eeffcb",
          "topics": [
            "0xedf8870433c83823eb071d3df1caa8d008f12f6440918c20d75a3602cda30fe0",
            "0x2e211437b3f7efbd1c016b9d492899735e831b8dd16cc5d58c66f1252693dd0a",
            "0x000000000000000000000000a9bbbdde822789f123667044443dc7001fb43c01",
            "0x000000000000000000000000a9bbbdde822789f123667044443dc7001fb43c01"
          ],
          "data": "0x0000000000000000000000000000000000000000000000000de0b6b3a764000000000000000000000000000000000000000000000000d3c21bcecceda1000000",
          "blockHash": "0xd9496446bdc8eae485036156d40d31bb82d0b9ca53d385a3f277075e3082500c",
          "blockNumber": "0xf44405",
          "blockTimestamp": "0x6672e50b",
          "transactionHash": "0x0d8310255560bd85c6ecbed057b345287b31dd809589f4bc828ffd970ffc6c60",
          "transactionIndex": "0x0",
          "logIndex": "0x2",
          "removed": false
        },
        {
          "address": "0x0000206329b97db379d5e1bf586bbdb969c63274",
          "topics": [
            "0x8c5be1e5ebec7d5bd14f71427d1e84f3dd0314c0f7b2291e5b200ac8c7c3b925",
            "0x000000000000000000000000a9bbbdde822789f123667044443dc7001fb43c01",
            "0x000000000000000000000000bbbbbbbbbb9cc5e90e3b3af64bdaf62c37eeffcb"
          ],
          "data": "0x0000000000000000000000000000000000000000000000000000000000000000",
          "blockHash": "0xd9496446bdc8eae485036156d40d31bb82d0b9ca53d385a3f277075e3082500c",
          "blockNumber": "0xf44405",
          "blockTimestamp": "0x6672e50b",
          "transactionHash": "0x0d8310255560bd85c6ecbed057b345287b31dd809589f4bc828ffd970ffc6c60",
          "transactionIndex": "0x0",
          "logIndex": "0x3",
          "removed": false
        },
        {
          "address": "0x0000206329b97db379d5e1bf586bbdb969c63274",
          "topics": [
            "0xddf252ad1be2c89b69c2b068fc378daa952ba7f163c4a11628f55a4df523b3ef",
            "0x000000000000000000000000a9bbbdde822789f123667044443dc7001fb43c01",
            "0x000000000000000000000000bbbbbbbbbb9cc5e90e3b3af64bdaf62c37eeffcb"
          ],
          "data": "0x0000000000000000000000000000000000000000000000000de0b6b3a7640000",
          "blockHash": "0xd9496446bdc8eae485036156d40d31bb82d0b9ca53d385a3f277075e3082500c",
          "blockNumber": "0xf44405",
          "blockTimestamp": "0x6672e50b",
          "transactionHash": "0x0d8310255560bd85c6ecbed057b345287b31dd809589f4bc828ffd970ffc6c60",
          "transactionIndex": "0x0",
          "logIndex": "0x4",
          "removed": false
        }
      ],
      "logsBloom": "0x00000000000000000000000000000080000000000000000000000008000000000000400000000100000000000000000000008000000000000000000020a04000000000000010000000000008800004000000000800000000000002080000000000000000000000000000000000000000000000400000000000000010000000000000000000000008000000000000000000000000000000000008000000000000020000000000000000000000000000000000000000000000000000000000000020000002000000000000000000000000000100004000000000000000400000400010000001400000000000200001000000000000000000000000000000004000",
      "type": "0x2",
      "transactionHash": "0x0d8310255560bd85c6ecbed057b345287b31dd809589f4bc828ffd970ffc6c60",
      "transactionIndex": "0x0",
      "blockHash": "0xd9496446bdc8eae485036156d40d31bb82d0b9ca53d385a3f277075e3082500c",
      "blockNumber": "0xf44405",
      "gasUsed": "0x1eb37",
      "effectiveGasPrice": "0x5ee79a",
      "blobGasPrice": "0x1",
      "from": "0xa9bbbdde822789f123667044443dc7001fb43c01",
      "to": "0xbbbbbbbbbb9cc5e90e3b3af64bdaf62c37eeffcb",
      "contractAddress": null,
      "root": "0x0000000000000000000000000000000000000000000000000000000000000000"
    },
    {
      "status": "0x1",
      "cumulativeGasUsed": "0xd0d2",
      "logs": [
        {
          "address": "0x2416092f143378750bb29b79ed961ab195cceea5",
          "topics": [
            "0x8c5be1e5ebec7d5bd14f71427d1e84f3dd0314c0f7b2291e5b200ac8c7c3b925",
            "0x000000000000000000000000a9bbbdde822789f123667044443dc7001fb43c01",
            "0x000000000000000000000000bbbbbbbbbb9cc5e90e3b3af64bdaf62c37eeffcb"
          ],
          "data": "0x00000000000000000000000000000000000000000000000000071afd498d0000",
          "blockHash": "0x40e8358ce28ae80c8caec8f8ce6c3b5996c7eb14f6ea410b55cc3dd78cbde38d",
          "blockNumber": "0xf44406",
          "blockTimestamp": "0x6672e50c",
          "transactionHash": "0x09c63f5f864637bbe38c963c3479caad0d71c368110d5ba7c4788dacaaf29757",
          "transactionIndex": "0x0",
          "logIndex": "0x0",
          "removed": false
        }
      ],
      "logsBloom": "0x00000000000000000000000000000080000000000000000000000008000000040000000000000080000000000000000000008000000000000000000000200000000000000400000000000000000000000000000000000000000002000000000000000000000000000000000000000000000000000000000000000000000000000000000000000000000000000000000000000000000000000000000000000000020000000000000000000000000000000000000000000000000000000000000000000000000000000000000000000000000000000000000000000000000000000010000001000000000000200000000000000000000000000000000000000000",
      "type": "0x2",
      "transactionHash": "0x09c63f5f864637bbe38c963c3479caad0d71c368110d5ba7c4788dacaaf29757",
      "transactionIndex": "0x0",
      "blockHash": "0x40e8358ce28ae80c8caec8f8ce6c3b5996c7eb14f6ea410b55cc3dd78cbde38d",
      "blockNumber": "0xf44406",
      "gasUsed": "0xd0d2",
      "effectiveGasPrice": "0x53b607",
      "blobGasPrice": "0x1",
      "from": "0xa9bbbdde822789f123667044443dc7001fb43c01",
      "to": "0x2416092f143378750bb29b79ed961ab195cceea5",
      "contractAddress": null,
      "root": "0x0000000000000000000000000000000000000000000000000000000000000000"
    },
    {
      "status": "0x1",
      "cumulativeGasUsed": "0x132a1",
      "logs": [
        {
          "address": "0xbbbbbbbbbb9cc5e90e3b3af64bdaf62c37eeffcb",
          "topics": [
            "0xa3b9472a1399e17e123f3c2e6586c23e504184d504de59cdaa2b375e880c6184",
            "0x2e211437b3f7efbd1c016b9d492899735e831b8dd16cc5d58c66f1252693dd0a",
            "0x000000000000000000000000a9bbbdde822789f123667044443dc7001fb43c01",
            "0x000000000000000000000000a9bbbdde822789f123667044443dc7001fb43c01"
          ],
          "data": "0x00000000000000000000000000000000000000000000000000071afd498d0000",
          "blockHash": "0xdc74e8de940478aa9641637dc7873f97ccb59062d2a0582e2c8ff78384f85f22",
          "blockNumber": "0xf44407",
          "blockTimestamp": "0x6672e50d",
          "transactionHash": "0x8dc7b6d03b10eb4d4ef48f1d252f2b4a1dd1e4376f5287b5289621885f76fcc4",
          "transactionIndex": "0x0",
          "logIndex": "0x0",
          "removed": false
        },
        {
          "address": "0x2416092f143378750bb29b79ed961ab195cceea5",
          "topics": [
            "0x8c5be1e5ebec7d5bd14f71427d1e84f3dd0314c0f7b2291e5b200ac8c7c3b925",
            "0x000000000000000000000000a9bbbdde822789f123667044443dc7001fb43c01",
            "0x000000000000000000000000bbbbbbbbbb9cc5e90e3b3af64bdaf62c37eeffcb"
          ],
          "data": "0x0000000000000000000000000000000000000000000000000000000000000000",
          "blockHash": "0xdc74e8de940478aa9641637dc7873f97ccb59062d2a0582e2c8ff78384f85f22",
          "blockNumber": "0xf44407",
          "blockTimestamp": "0x6672e50d",
          "transactionHash": "0x8dc7b6d03b10eb4d4ef48f1d252f2b4a1dd1e4376f5287b5289621885f76fcc4",
          "transactionIndex": "0x0",
          "logIndex": "0x1",
          "removed": false
        },
        {
          "address": "0x2416092f143378750bb29b79ed961ab195cceea5",
          "topics": [
            "0xddf252ad1be2c89b69c2b068fc378daa952ba7f163c4a11628f55a4df523b3ef",
            "0x000000000000000000000000a9bbbdde822789f123667044443dc7001fb43c01",
            "0x000000000000000000000000bbbbbbbbbb9cc5e90e3b3af64bdaf62c37eeffcb"
          ],
          "data": "0x00000000000000000000000000000000000000000000000000071afd498d0000",
          "blockHash": "0xdc74e8de940478aa9641637dc7873f97ccb59062d2a0582e2c8ff78384f85f22",
          "blockNumber": "0xf44407",
          "blockTimestamp": "0x6672e50d",
          "transactionHash": "0x8dc7b6d03b10eb4d4ef48f1d252f2b4a1dd1e4376f5287b5289621885f76fcc4",
          "transactionIndex": "0x0",
          "logIndex": "0x2",
          "removed": false
        }
      ],
      "logsBloom": "0x00000000000000000000000000000080000000000000000000000008000000040000000000000080000000000000000000008000000000000000000000200000000000000410000000000008000000000000000000000000000002000000000000000000000000000000000000000000000000400000000000000010000000000000008000000008000000000000000000000000000000000000000000000000020000000000000000000000000000000000000000000000000000000000000020000002000000000000000000000000000000000000000400000000400000000010000001400000000000200000200000000000000000000000000000000000",
      "type": "0x2",
      "transactionHash": "0x8dc7b6d03b10eb4d4ef48f1d252f2b4a1dd1e4376f5287b5289621885f76fcc4",
      "transactionIndex": "0x0",
      "blockHash": "0xdc74e8de940478aa9641637dc7873f97ccb59062d2a0582e2c8ff78384f85f22",
      "blockNumber": "0xf44407",
      "gasUsed": "0x132a1",
      "effectiveGasPrice": "0x49e5ff",
      "blobGasPrice": "0x1",
      "from": "0xa9bbbdde822789f123667044443dc7001fb43c01",
      "to": "0xbbbbbbbbbb9cc5e90e3b3af64bdaf62c37eeffcb",
      "contractAddress": null,
      "root": "0x0000000000000000000000000000000000000000000000000000000000000000"
    },
    {
      "status": "0x1",
      "cumulativeGasUsed": "0x24d8d",
      "logs": [
        {
          "address": "0x46415998764c29ab2a25cbea6254146d50d22687",
          "topics": [
            "0x7120161a7b3d31251e01294ab351ef15a41b91659a36032e4641bb89b121e321",
            "0x2e211437b3f7efbd1c016b9d492899735e831b8dd16cc5d58c66f1252693dd0a"
          ],
          "data": "0x0000000000000000000000000000000000000000000000000000000012e680df000000000000000000000000000000000000000000000000000000004b99f7b6",
          "blockHash": "0xa235798e5b5eab21f9c6c5fe4d8e46e6b9971a1d38ed65ba5abfdbd80c469b91",
          "blockNumber": "0xf44408",
          "blockTimestamp": "0x6672e50e",
          "transactionHash": "0x7e632a8ea6eec95e3f40d17e58ca437f4a96304a5edbeb954d35a679ea1ac12d",
          "transactionIndex": "0x0",
          "logIndex": "0x0",
          "removed": false
        },
        {
          "address": "0xbbbbbbbbbb9cc5e90e3b3af64bdaf62c37eeffcb",
          "topics": [
            "0x9d9bd501d0657d7dfe415f779a620a62b78bc508ddc0891fbbd8b7ac0f8fce87",
            "0x2e211437b3f7efbd1c016b9d492899735e831b8dd16cc5d58c66f1252693dd0a"
          ],
          "data": "0x0000000000000000000000000000000000000000000000000000000012e680df00000000000000000000000000000000000000000000000000000000000000000000000000000000000000000000000000000000000000000000000000000000",
          "blockHash": "0xa235798e5b5eab21f9c6c5fe4d8e46e6b9971a1d38ed65ba5abfdbd80c469b91",
          "blockNumber": "0xf44408",
          "blockTimestamp": "0x6672e50e",
          "transactionHash": "0x7e632a8ea6eec95e3f40d17e58ca437f4a96304a5edbeb954d35a679ea1ac12d",
          "transactionIndex": "0x0",
          "logIndex": "0x1",
          "removed": false
        },
        {
          "address": "0xbbbbbbbbbb9cc5e90e3b3af64bdaf62c37eeffcb",
          "topics": [
            "0x570954540bed6b1304a87dfe815a5eda4a648f7097a16240dcd85c9b5fd42a43",
            "0x2e211437b3f7efbd1c016b9d492899735e831b8dd16cc5d58c66f1252693dd0a",
            "0x000000000000000000000000a9bbbdde822789f123667044443dc7001fb43c01",
            "0x000000000000000000000000a9bbbdde822789f123667044443dc7001fb43c01"
          ],
          "data": "0x000000000000000000000000a9bbbdde822789f123667044443dc7001fb43c010000000000000000000000000000000000000000000000000c7d713b49da000000000000000000000000000000000000000000000000be951906eba2aa800000",
          "blockHash": "0xa235798e5b5eab21f9c6c5fe4d8e46e6b9971a1d38ed65ba5abfdbd80c469b91",
          "blockNumber": "0xf44408",
          "blockTimestamp": "0x6672e50e",
          "transactionHash": "0x7e632a8ea6eec95e3f40d17e58ca437f4a96304a5edbeb954d35a679ea1ac12d",
          "transactionIndex": "0x0",
          "logIndex": "0x2",
          "removed": false
        },
        {
          "address": "0x0000206329b97db379d5e1bf586bbdb969c63274",
          "topics": [
            "0xddf252ad1be2c89b69c2b068fc378daa952ba7f163c4a11628f55a4df523b3ef",
            "0x000000000000000000000000bbbbbbbbbb9cc5e90e3b3af64bdaf62c37eeffcb",
            "0x000000000000000000000000a9bbbdde822789f123667044443dc7001fb43c01"
          ],
          "data": "0x0000000000000000000000000000000000000000000000000c7d713b49da0000",
          "blockHash": "0xa235798e5b5eab21f9c6c5fe4d8e46e6b9971a1d38ed65ba5abfdbd80c469b91",
          "blockNumber": "0xf44408",
          "blockTimestamp": "0x6672e50e",
          "transactionHash": "0x7e632a8ea6eec95e3f40d17e58ca437f4a96304a5edbeb954d35a679ea1ac12d",
          "transactionIndex": "0x0",
          "logIndex": "0x3",
          "removed": false
        }
      ],
      "logsBloom": "0x00000000000000000002000000000080000000000000000000000008000000000000400000000100000000000000000000008000000000000000000020804000000000000010000000000008000004000000000000000000000002080000000000000000000000000000000000000000000000400000000000000010000000000000000000000008000000000000000000000000000000000008000000000000000000000000000000000000000000000000000000000000000000000000000020000002000000000000000000000000000100004000000000000000400000000000004001400008000000200001000000000000000000000000000000004000",
      "type": "0x2",
      "transactionHash": "0x7e632a8ea6eec95e3f40d17e58ca437f4a96304a5edbeb954d35a679ea1ac12d",
      "transactionIndex": "0x0",
      "blockHash": "0xa235798e5b5eab21f9c6c5fe4d8e46e6b9971a1d38ed65ba5abfdbd80c469b91",
      "blockNumber": "0xf44408",
      "gasUsed": "0x24d8d",
      "effectiveGasPrice": "0x4150c1",
      "blobGasPrice": "0x1",
      "from": "0xa9bbbdde822789f123667044443dc7001fb43c01",
      "to": "0xbbbbbbbbbb9cc5e90e3b3af64bdaf62c37eeffcb",
      "contractAddress": null,
      "root": "0x0000000000000000000000000000000000000000000000000000000000000000"
    },
    {
      "status": "0x1",
      "cumulativeGasUsed": "0x303d5",
      "logs": [
        {
          "address": "0xbbbbbbbbbb9cc5e90e3b3af64bdaf62c37eeffcb",
          "topics": [
            "0xac4b2400f169220b0c0afdde7a0b32e775ba727ea1cb30b35f935cdaab8683ac",
            "0x72defbe3b6b9f9799801c74b727bc614d81ede34761c967e2f32da7ddec8a1ce"
          ],
          "data": "0x0000000000000000000000000000206329b97db379d5e1bf586bbdb969c63274000000000000000000000000c1cba3fcea344f92d9239c08c0568f6f2f0ee452000000000000000000000000040ba460ed355833a0693348421c7f1fd831d0c700000000000000000000000046415998764c29ab2a25cbea6254146d50d226870000000000000000000000000000000000000000000000000bef55718ad60000",
          "blockHash": "0x04ecd21e419f88345445872165e5c4b13955cdee4a3d9b9bdb2f0c6220247f5c",
          "blockNumber": "0xf44409",
          "blockTimestamp": "0x6672e50f",
          "transactionHash": "0xfd7f36b9020f37488e5c26a39cd220eefa30e434159ba1de67872b3cd6e0f449",
          "transactionIndex": "0x0",
          "logIndex": "0x0",
          "removed": false
        },
        {
          "address": "0x46415998764c29ab2a25cbea6254146d50d22687",
          "topics": [
            "0x7120161a7b3d31251e01294ab351ef15a41b91659a36032e4641bb89b121e321",
            "0x72defbe3b6b9f9799801c74b727bc614d81ede34761c967e2f32da7ddec8a1ce"
          ],
          "data": "0x0000000000000000000000000000000000000000000000000000000012e687bf000000000000000000000000000000000000000000000000000000004b9a1eff",
          "blockHash": "0x04ecd21e419f88345445872165e5c4b13955cdee4a3d9b9bdb2f0c6220247f5c",
          "blockNumber": "0xf44409",
          "blockTimestamp": "0x6672e50f",
          "transactionHash": "0xfd7f36b9020f37488e5c26a39cd220eefa30e434159ba1de67872b3cd6e0f449",
          "transactionIndex": "0x0",
          "logIndex": "0x1",
          "removed": false
        }
      ],
      "logsBloom": "0x00000000000000000000000000000800000000000000000000000200000000000000000000000100000000000000000000000000000000000000000000804000000000000010000000000000000000000000000000000000000000000000000000000000000000000000000000000000000000000000000000000040000000000000000000000008000000000000000000000000000000000008000000000000000000000000000000000000000000000000000000000000000000000000000020000000000000000000000000000000000110000000000000000000000000000000000000000040000000000001000000000000000000000000000000000010",
      "type": "0x2",
      "transactionHash": "0xfd7f36b9020f37488e5c26a39cd220eefa30e434159ba1de67872b3cd6e0f449",
      "transactionIndex": "0x0",
      "blockHash": "0x04ecd21e419f88345445872165e5c4b13955cdee4a3d9b9bdb2f0c6220247f5c",
      "blockNumber": "0xf44409",
      "gasUsed": "0x303d5",
      "effectiveGasPrice": "0x39d097",
      "blobGasPrice": "0x1",
      "from": "0xa9bbbdde822789f123667044443dc7001fb43c01",
      "to": "0xbbbbbbbbbb9cc5e90e3b3af64bdaf62c37eeffcb",
      "contractAddress": null,
      "root": "0x0000000000000000000000000000000000000000000000000000000000000000"
    },
    {
      "status": "0x1",
      "cumulativeGasUsed": "0xd09e",
      "logs": [
        {
          "address": "0x0000206329b97db379d5e1bf586bbdb969c63274",
          "topics": [
            "0x8c5be1e5ebec7d5bd14f71427d1e84f3dd0314c0f7b2291e5b200ac8c7c3b925",
            "0x000000000000000000000000a9bbbdde822789f123667044443dc7001fb43c01",
            "0x000000000000000000000000bbbbbbbbbb9cc5e90e3b3af64bdaf62c37eeffcb"
          ],
          "data": "0x0000000000000000000000000000000000000000000000000de0b6b3a7640000",
          "blockHash": "0xf241430b7387d97503c897a9e4311784da897b6a0af8484df4f1eb050b249f42",
          "blockNumber": "0xf4440a",
          "blockTimestamp": "0x6672e510",
          "transactionHash": "0x8566f7f10249d162f46e19f19c307a49b222a796853676d93efc7d9b03d43525",
          "transactionIndex": "0x0",
          "logIndex": "0x0",
          "removed": false
        }
      ],
      "logsBloom": "0x00000000000000000000000000000080000000000000000000000008000000000000000000000000000000000000000000008000000000000000000000200000000000000000000000000000000004000000000000000000000002000000000000000000000000000000000000000000000000000000000000000000000000000000000000000000000000000000000000000000000000000000000000000000020000000000000000000000000000000000000000000000000000000000000000000000000000000000000000000000000000004000000000000000000000000010000001000000000000200000000000000000000000000000000000004000",
      "type": "0x2",
      "transactionHash": "0x8566f7f10249d162f46e19f19c307a49b222a796853676d93efc7d9b03d43525",
      "transactionIndex": "0x0",
      "blockHash": "0xf241430b7387d97503c897a9e4311784da897b6a0af8484df4f1eb050b249f42",
      "blockNumber": "0xf4440a",
      "gasUsed": "0xd09e",
      "effectiveGasPrice": "0x334151",
      "blobGasPrice": "0x1",
      "from": "0xa9bbbdde822789f123667044443dc7001fb43c01",
      "to": "0x0000206329b97db379d5e1bf586bbdb969c63274",
      "contractAddress": null,
      "root": "0x0000000000000000000000000000000000000000000000000000000000000000"
    },
    {
      "status": "0x1",
      "cumulativeGasUsed": "0x1eb37",
      "logs": [
        {
          "address": "0x46415998764c29ab2a25cbea6254146d50d22687",
          "topics": [
            "0x7120161a7b3d31251e01294ab351ef15a41b91659a36032e4641bb89b121e321",
            "0x72defbe3b6b9f9799801c74b727bc614d81ede34761c967e2f32da7ddec8a1ce"
          ],
          "data": "0x0000000000000000000000000000000000000000000000000000000012e685c8000000000000000000000000000000000000000000000000000000004b9a0f48",
          "blockHash": "0x37116663210bf025fea9cc1175ea6c8728eb17664fe8819a882fa139f317f094",
          "blockNumber": "0xf4440b",
          "blockTimestamp": "0x6672e511",
          "transactionHash": "0xe44000bff98e58c040f4b523e99c3b6c333f9179979f7f9254eb6e3105af5414",
          "transactionIndex": "0x0",
          "logIndex": "0x0",
          "removed": false
        },
        {
          "address": "0xbbbbbbbbbb9cc5e90e3b3af64bdaf62c37eeffcb",
          "topics": [
            "0x9d9bd501d0657d7dfe415f779a620a62b78bc508ddc0891fbbd8b7ac0f8fce87",
            "0x72defbe3b6b9f9799801c74b727bc614d81ede34761c967e2f32da7ddec8a1ce"
          ],
          "data": "0x0000000000000000000000000000000000000000000000000000000012e685c800000000000000000000000000000000000000000000000000000000000000000000000000000000000000000000000000000000000000000000000000000000",
          "blockHash": "0x37116663210bf025fea9cc1175ea6c8728eb17664fe8819a882fa139f317f094",
          "blockNumber": "0xf4440b",
          "blockTimestamp": "0x6672e511",
          "transactionHash": "0xe44000bff98e58c040f4b523e99c3b6c333f9179979f7f9254eb6e3105af5414",
          "transactionIndex": "0x0",
          "logIndex": "0x1",
          "removed": false
        },
        {
          "address": "0xbbbbbbbbbb9cc5e90e3b3af64bdaf62c37eeffcb",
          "topics": [
            "0xedf8870433c83823eb071d3df1caa8d008f12f6440918c20d75a3602cda30fe0",
            "0x72defbe3b6b9f9799801c74b727bc614d81ede34761c967e2f32da7ddec8a1ce",
            "0x000000000000000000000000a9bbbdde822789f123667044443dc7001fb43c01",
            "0x000000000000000000000000a9bbbdde822789f123667044443dc7001fb43c01"
          ],
          "data": "0x0000000000000000000000000000000000000000000000000de0b6b3a764000000000000000000000000000000000000000000000000d3c21bcecceda1000000",
          "blockHash": "0x37116663210bf025fea9cc1175ea6c8728eb17664fe8819a882fa139f317f094",
          "blockNumber": "0xf4440b",
          "blockTimestamp": "0x6672e511",
          "transactionHash": "0xe44000bff98e58c040f4b523e99c3b6c333f9179979f7f9254eb6e3105af5414",
          "transactionIndex": "0x0",
          "logIndex": "0x2",
          "removed": false
        },
        {
          "address": "0x0000206329b97db379d5e1bf586bbdb969c63274",
          "topics": [
            "0x8c5be1e5ebec7d5bd14f71427d1e84f3dd0314c0f7b2291e5b200ac8c7c3b925",
            "0x000000000000000000000000a9bbbdde822789f123667044443dc7001fb43c01",
            "0x000000000000000000000000bbbbbbbbbb9cc5e90e3b3af64bdaf62c37eeffcb"
          ],
          "data": "0x0000000000000000000000000000000000000000000000000000000000000000",
          "blockHash": "0x37116663210bf025fea9cc1175ea6c8728eb17664fe8819a882fa139f317f094",
          "blockNumber": "0xf4440b",
          "blockTimestamp": "0x6672e511",
          "transactionHash": "0xe44000bff98e58c040f4b523e99c3b6c333f9179979f7f9254eb6e3105af5414",
          "transactionIndex": "0x0",
          "logIndex": "0x3",
          "removed": false
        },
        {
          "address": "0x0000206329b97db379d5e1bf586bbdb969c63274",
          "topics": [
            "0xddf252ad1be2c89b69c2b068fc378daa952ba7f163c4a11628f55a4df523b3ef",
            "0x000000000000000000000000a9bbbdde822789f123667044443dc7001fb43c01",
            "0x000000000000000000000000bbbbbbbbbb9cc5e90e3b3af64bdaf62c37eeffcb"
          ],
          "data": "0x0000000000000000000000000000000000000000000000000de0b6b3a7640000",
          "blockHash": "0x37116663210bf025fea9cc1175ea6c8728eb17664fe8819a882fa139f317f094",
          "blockNumber": "0xf4440b",
          "blockTimestamp": "0x6672e511",
          "transactionHash": "0xe44000bff98e58c040f4b523e99c3b6c333f9179979f7f9254eb6e3105af5414",
          "transactionIndex": "0x0",
          "logIndex": "0x4",
          "removed": false
        }
      ],
      "logsBloom": "0x00000000000000000000000000000080000000000000000000000208000000000000400000000100000000000000000000008000000000000000000020a04000000000000010000000000008800004000000000800000000000002080000000000000000000000000000000000000000000000000000000000000010000000000000000000000008000000000000000000000000000000000008000000000000020000000000000000000000000000000000000000000000000000000000000020000002000000000000000000000000000110004000000000000000000000400010000001000040000000200001000000000000000000000000000000004000",
      "type": "0x2",
      "transactionHash": "0xe44000bff98e58c040f4b523e99c3b6c333f9179979f7f9254eb6e3105af5414",
      "transactionIndex": "0x0",
      "blockHash": "0x37116663210bf025fea9cc1175ea6c8728eb17664fe8819a882fa139f317f094",
      "blockNumber": "0xf4440b",
      "gasUsed": "0x1eb37",
      "effectiveGasPrice": "0x2d7ebc",
      "blobGasPrice": "0x1",
      "from": "0xa9bbbdde822789f123667044443dc7001fb43c01",
      "to": "0xbbbbbbbbbb9cc5e90e3b3af64bdaf62c37eeffcb",
      "contractAddress": null,
      "root": "0x0000000000000000000000000000000000000000000000000000000000000000"
    },
    {
      "status": "0x1",
      "cumulativeGasUsed": "0xc84b",
      "logs": [
        {
          "address": "0xc1cba3fcea344f92d9239c08c0568f6f2f0ee452",
          "topics": [
            "0x8c5be1e5ebec7d5bd14f71427d1e84f3dd0314c0f7b2291e5b200ac8c7c3b925",
            "0x000000000000000000000000a9bbbdde822789f123667044443dc7001fb43c01",
            "0x000000000000000000000000bbbbbbbbbb9cc5e90e3b3af64bdaf62c37eeffcb"
          ],
          "data": "0x00000000000000000000000000000000000000000000000000071afd498d0000",
          "blockHash": "0x98e4cd703a85ba2d7ff979724e596c8b734a70e1aa1871cd2245617970d4b7af",
          "blockNumber": "0xf4440c",
          "blockTimestamp": "0x6672e512",
          "transactionHash": "0xe9f2053714c26d1526b5b32df019648dd0d6dbfe81b9062b5efafd65665013dc",
          "transactionIndex": "0x0",
          "logIndex": "0x0",
          "removed": false
        }
      ],
      "logsBloom": "0x00000000000000000000000000000080000000000000000000000008000000000000000000000000000000000000000000008000000000000000000000200000000000000000000000000000400000000000000000000000000002000000000000000000000000000000000000000000000000000000000000000000000000000000000000000000000000000000000000000000000000000000000000000000020000000000000000000000000000000000000000000000000000000000000040000000000000000000000000000000000000000000000000000000000000000010000001000000000000200000000000000080000000000000000000000000",
      "type": "0x2",
      "transactionHash": "0xe9f2053714c26d1526b5b32df019648dd0d6dbfe81b9062b5efafd65665013dc",
      "transactionIndex": "0x0",
      "blockHash": "0x98e4cd703a85ba2d7ff979724e596c8b734a70e1aa1871cd2245617970d4b7af",
      "blockNumber": "0xf4440c",
      "gasUsed": "0xc84b",
      "effectiveGasPrice": "0x287631",
      "blobGasPrice": "0x1",
      "from": "0xa9bbbdde822789f123667044443dc7001fb43c01",
      "to": "0xc1cba3fcea344f92d9239c08c0568f6f2f0ee452",
      "contractAddress": null,
      "root": "0x0000000000000000000000000000000000000000000000000000000000000000"
    },
    {
      "status": "0x1",
      "cumulativeGasUsed": "0x12a12",
      "logs": [
        {
          "address": "0xbbbbbbbbbb9cc5e90e3b3af64bdaf62c37eeffcb",
          "topics": [
            "0xa3b9472a1399e17e123f3c2e6586c23e504184d504de59cdaa2b375e880c6184",
            "0x72defbe3b6b9f9799801c74b727bc614d81ede34761c967e2f32da7ddec8a1ce",
            "0x000000000000000000000000a9bbbdde822789f123667044443dc7001fb43c01",
            "0x000000000000000000000000a9bbbdde822789f123667044443dc7001fb43c01"
          ],
          "data": "0x00000000000000000000000000000000000000000000000000071afd498d0000",
          "blockHash": "0x68f751e0d149657dd39997e97438c6d41de04d580553d938a6290fa992a7420e",
          "blockNumber": "0xf4440d",
          "blockTimestamp": "0x6672e513",
          "transactionHash": "0xc2703b1a693d3aa1159513030b45a0d4d3e737e91c8d02d2b4defcd31bdd7d4b",
          "transactionIndex": "0x0",
          "logIndex": "0x0",
          "removed": false
        },
        {
          "address": "0xc1cba3fcea344f92d9239c08c0568f6f2f0ee452",
          "topics": [
            "0x8c5be1e5ebec7d5bd14f71427d1e84f3dd0314c0f7b2291e5b200ac8c7c3b925",
            "0x000000000000000000000000a9bbbdde822789f123667044443dc7001fb43c01",
            "0x000000000000000000000000bbbbbbbbbb9cc5e90e3b3af64bdaf62c37eeffcb"
          ],
          "data": "0x0000000000000000000000000000000000000000000000000000000000000000",
          "blockHash": "0x68f751e0d149657dd39997e97438c6d41de04d580553d938a6290fa992a7420e",
          "blockNumber": "0xf4440d",
          "blockTimestamp": "0x6672e513",
          "transactionHash": "0xc2703b1a693d3aa1159513030b45a0d4d3e737e91c8d02d2b4defcd31bdd7d4b",
          "transactionIndex": "0x0",
          "logIndex": "0x1",
          "removed": false
        },
        {
          "address": "0xc1cba3fcea344f92d9239c08c0568f6f2f0ee452",
          "topics": [
            "0xddf252ad1be2c89b69c2b068fc378daa952ba7f163c4a11628f55a4df523b3ef",
            "0x000000000000000000000000a9bbbdde822789f123667044443dc7001fb43c01",
            "0x000000000000000000000000bbbbbbbbbb9cc5e90e3b3af64bdaf62c37eeffcb"
          ],
          "data": "0x00000000000000000000000000000000000000000000000000071afd498d0000",
          "blockHash": "0x68f751e0d149657dd39997e97438c6d41de04d580553d938a6290fa992a7420e",
          "blockNumber": "0xf4440d",
          "blockTimestamp": "0x6672e513",
          "transactionHash": "0xc2703b1a693d3aa1159513030b45a0d4d3e737e91c8d02d2b4defcd31bdd7d4b",
          "transactionIndex": "0x0",
          "logIndex": "0x2",
          "removed": false
        }
      ],
      "logsBloom": "0x00000000000000000000000000000080000000000000000000000208000000000000000000000000000000000000000000008000000000000000000000200000000000000010000000000008400000000000000000000000000002000000000000000000000000000000000000000000000000000000000000000010000000000000008000000008000000000000000000000000000000000000000000000000020000000000000000000000000000000000000000000000000000000000000060000002000000000000000000000000000010000000000400000000000000000010000001000040000000200000200000000080000000000000000000000000",
      "type": "0x2",
      "transactionHash": "0xc2703b1a693d3aa1159513030b45a0d4d3e737e91c8d02d2b4defcd31bdd7d4b",
      "transactionIndex": "0x0",
      "blockHash": "0x68f751e0d149657dd39997e97438c6d41de04d580553d938a6290fa992a7420e",
      "blockNumber": "0xf4440d",
      "gasUsed": "0x12a12",
      "effectiveGasPrice": "0x240c92",
      "blobGasPrice": "0x1",
      "from": "0xa9bbbdde822789f123667044443dc7001fb43c01",
      "to": "0xbbbbbbbbbb9cc5e90e3b3af64bdaf62c37eeffcb",
      "contractAddress": null,
      "root": "0x0000000000000000000000000000000000000000000000000000000000000000"
    },
    {
      "status": "0x1",
      "cumulativeGasUsed": "0x24ec1",
      "logs": [
        {
          "address": "0x46415998764c29ab2a25cbea6254146d50d22687",
          "topics": [
            "0x7120161a7b3d31251e01294ab351ef15a41b91659a36032e4641bb89b121e321",
            "0x72defbe3b6b9f9799801c74b727bc614d81ede34761c967e2f32da7ddec8a1ce"
          ],
          "data": "0x0000000000000000000000000000000000000000000000000000000012e680df000000000000000000000000000000000000000000000000000000004b99f7b6",
          "blockHash": "0xc16f32771a098aaa9b05c1e94aadea33e74bbd2f181014283d3ba1a39f379450",
          "blockNumber": "0xf4440e",
          "blockTimestamp": "0x6672e514",
          "transactionHash": "0x1590a8e238f56a8463a1484e11872d5d89c19db1ad7b978efb859a4bc7f706cc",
          "transactionIndex": "0x0",
          "logIndex": "0x0",
          "removed": false
        },
        {
          "address": "0xbbbbbbbbbb9cc5e90e3b3af64bdaf62c37eeffcb",
          "topics": [
            "0x9d9bd501d0657d7dfe415f779a620a62b78bc508ddc0891fbbd8b7ac0f8fce87",
            "0x72defbe3b6b9f9799801c74b727bc614d81ede34761c967e2f32da7ddec8a1ce"
          ],
          "data": "0x0000000000000000000000000000000000000000000000000000000012e680df00000000000000000000000000000000000000000000000000000000000000000000000000000000000000000000000000000000000000000000000000000000",
          "blockHash": "0xc16f32771a098aaa9b05c1e94aadea33e74bbd2f181014283d3ba1a39f379450",
          "blockNumber": "0xf4440e",
          "blockTimestamp": "0x6672e514",
          "transactionHash": "0x1590a8e238f56a8463a1484e11872d5d89c19db1ad7b978efb859a4bc7f706cc",
          "transactionIndex": "0x0",
          "logIndex": "0x1",
          "removed": false
        },
        {
          "address": "0xbbbbbbbbbb9cc5e90e3b3af64bdaf62c37eeffcb",
          "topics": [
            "0x570954540bed6b1304a87dfe815a5eda4a648f7097a16240dcd85c9b5fd42a43",
            "0x72defbe3b6b9f9799801c74b727bc614d81ede34761c967e2f32da7ddec8a1ce",
            "0x000000000000000000000000a9bbbdde822789f123667044443dc7001fb43c01",
            "0x000000000000000000000000a9bbbdde822789f123667044443dc7001fb43c01"
          ],
          "data": "0x000000000000000000000000a9bbbdde822789f123667044443dc7001fb43c010000000000000000000000000000000000000000000000000c7d713b49da000000000000000000000000000000000000000000000000be951906eba2aa800000",
          "blockHash": "0xc16f32771a098aaa9b05c1e94aadea33e74bbd2f181014283d3ba1a39f379450",
          "blockNumber": "0xf4440e",
          "blockTimestamp": "0x6672e514",
          "transactionHash": "0x1590a8e238f56a8463a1484e11872d5d89c19db1ad7b978efb859a4bc7f706cc",
          "transactionIndex": "0x0",
          "logIndex": "0x2",
          "removed": false
        },
        {
          "address": "0x0000206329b97db379d5e1bf586bbdb969c63274",
          "topics": [
            "0xddf252ad1be2c89b69c2b068fc378daa952ba7f163c4a11628f55a4df523b3ef",
            "0x000000000000000000000000bbbbbbbbbb9cc5e90e3b3af64bdaf62c37eeffcb",
            "0x000000000000000000000000a9bbbdde822789f123667044443dc7001fb43c01"
          ],
          "data": "0x0000000000000000000000000000000000000000000000000c7d713b49da0000",
          "blockHash": "0xc16f32771a098aaa9b05c1e94aadea33e74bbd2f181014283d3ba1a39f379450",
          "blockNumber": "0xf4440e",
          "blockTimestamp": "0x6672e514",
          "transactionHash": "0x1590a8e238f56a8463a1484e11872d5d89c19db1ad7b978efb859a4bc7f706cc",
          "transactionIndex": "0x0",
          "logIndex": "0x3",
          "removed": false
        }
      ],
      "logsBloom": "0x00000000000000000002000000000080000000000000000000000208000000000000400000000100000000000000000000008000000000000000000020804000000000000010000000000008000004000000000000000000000002080000000000000000000000000000000000000000000000000000000000000010000000000000000000000008000000000000000000000000000000000008000000000000000000000000000000000000000000000000000000000000000000000000000020000002000000000000000000000000000110004000000000000000000000000000004001000048000000200001000000000000000000000000000000004000",
      "type": "0x2",
      "transactionHash": "0x1590a8e238f56a8463a1484e11872d5d89c19db1ad7b978efb859a4bc7f706cc",
      "transactionIndex": "0x0",
      "blockHash": "0xc16f32771a098aaa9b05c1e94aadea33e74bbd2f181014283d3ba1a39f379450",
      "blockNumber": "0xf4440e",
      "gasUsed": "0x24ec1",
      "effectiveGasPrice": "0x203083",
      "blobGasPrice": "0x1",
      "from": "0xa9bbbdde822789f123667044443dc7001fb43c01",
      "to": "0xbbbbbbbbbb9cc5e90e3b3af64bdaf62c37eeffcb",
      "contractAddress": null,
      "root": "0x0000000000000000000000000000000000000000000000000000000000000000"
    }
  ],
  "libraries": [],
  "pending": [],
  "returns": {},
  "timestamp": 1718805764,
  "chain": 8453,
  "commit": "0489249"
}