{
  "transactions": [
    {
      "hash": "0x53db03c000bc412b737e3feacce1d6b751e043050909ad8be9094d49e345011d",
      "transactionType": "CREATE",
      "contractName": "PythAggregatorV3",
      "contractAddress": "0xd148676be0f419e760a2584352358e473d212391",
      "function": null,
      "arguments": [
        "0x8250f4aF4B972684F7b336503E2D6dFeDeB1487a",
        "0x9ee4e7c60b940440a261eb54b6d8149c23b580ed7da3139f7f08f4ea29dad395"
      ],
      "transaction": {
        "from": "0xa9bbbdde822789f123667044443dc7001fb43c01",
        "gas": "0xd9a17",
        "value": "0x0",
        "input": "0x60c060405234801561000f575f80fd5b50604051610c5e380380610c5e83398101604081905261002e91610042565b6080526001600160a01b031660a052610079565b5f8060408385031215610053575f80fd5b82516001600160a01b0381168114610069575f80fd5b6020939093015192949293505050565b60805160a051610b716100ed5f395f8181610268015281816102f7015281816103ba0152818161049c015281816105170152818161062b015281816106a5015261077301525f818160e3015281816102c5015281816103880152818161046a0152818161054601526107a20152610b715ff3fe6080604052600436106100ce575f3560e01c80638205bf6a1161007c578063b633620c11610057578063b633620c14610223578063bc36c0a914610242578063f98d06f014610257578063feaf968c146102a2575f80fd5b80638205bf6a1461019a5780639a6fc8f5146101ae578063b5ab58dc14610204575f80fd5b806354fd4d50116100ac57806354fd4d5014610152578063668a0f02146101655780637284e41614610179575f80fd5b806331189334146100d2578063313ce5671461011857806350d25bcd1461013e575b5f80fd5b3480156100dd575f80fd5b506101057f000000000000000000000000000000000000000000000000000000000000000081565b6040519081526020015b60405180910390f35b348015610123575f80fd5b5061012c6102b6565b60405160ff909116815260200161010f565b348015610149575f80fd5b50610105610379565b34801561015d575f80fd5b506001610105565b348015610170575f80fd5b5061010561042d565b348015610184575f80fd5b5061018d61043b565b60405161010f919061083d565b3480156101a5575f80fd5b5061010561045b565b3480156101b9575f80fd5b506101cd6101c8366004610889565b61050f565b6040805169ffffffffffffffffffff968716815260208101959095528401929092526060830152909116608082015260a00161010f565b34801561020f575f80fd5b5061010561021e3660046108b9565b6105e1565b34801561022e575f80fd5b5061010561023d3660046108b9565b6105f0565b6102556102503660046108d0565b6105f9565b005b348015610262575f80fd5b5061028a7f000000000000000000000000000000000000000000000000000000000000000081565b6040516001600160a01b03909116815260200161010f565b3480156102ad575f80fd5b506101cd61076b565b6040516396834ad360e01b81527f000000000000000000000000000000000000000000000000000000000000000060048201525f9081906001600160a01b037f000000000000000000000000000000000000000000000000000000000000000016906396834ad390602401608060405180830381865afa15801561033c573d5f803e3d5ffd5b505050506040513d601f19601f82011682018060405250810190610360919061096c565b905080604001515f1961037391906109f7565b91505090565b6040516396834ad360e01b81527f000000000000000000000000000000000000000000000000000000000000000060048201525f9081906001600160a01b037f000000000000000000000000000000000000000000000000000000000000000016906396834ad390602401608060405180830381865afa1580156103ff573d5f803e3d5ffd5b505050506040513d601f19601f82011682018060405250810190610423919061096c565b5160070b92915050565b5f61043661045b565b905090565b60606040518060600160405280603e8152602001610afe603e9139905090565b6040516396834ad360e01b81527f000000000000000000000000000000000000000000000000000000000000000060048201525f9081906001600160a01b037f000000000000000000000000000000000000000000000000000000000000000016906396834ad390602401608060405180830381865afa1580156104e1573d5f803e3d5ffd5b505050506040513d601f19601f82011682018060405250810190610505919061096c565b6060015192915050565b5f805f805f807f00000000000000000000000000000000000000000000000000000000000000006001600160a01b03166396834ad37f00000000000000000000000000000000000000000000000000000000000000006040518263ffffffff1660e01b815260040161058391815260200190565b608060405180830381865afa15801561059e573d5f803e3d5ffd5b505050506040513d601f19601f820116820180604052508101906105c2919061096c565b8051606090910151979860079190910b97965086955088945092505050565b5f6105ea610379565b92915050565b5f6105ea61045b565b6040517fd47eed450000000000000000000000000000000000000000000000000000000081525f906001600160a01b037f0000000000000000000000000000000000000000000000000000000000000000169063d47eed45906106629086908690600401610a4e565b602060405180830381865afa15801561067d573d5f803e3d5ffd5b505050506040513d601f19601f820116820180604052508101906106a19190610ae6565b90507f00000000000000000000000000000000000000000000000000000000000000006001600160a01b031663ef9e5e288285856040518463ffffffff1660e01b81526004016106f2929190610a4e565b5f604051808303818588803b158015610709575f80fd5b505af115801561071b573d5f803e3d5ffd5b505060405133935047925090505f81818185875af1925050503d805f811461075e576040519150601f19603f3d011682016040523d82523d5f602084013e610763565b606091505b505050505050565b5f805f805f807f00000000000000000000000000000000000000000000000000000000000000006001600160a01b03166396834ad37f00000000000000000000000000000000000000000000000000000000000000006040518263ffffffff1660e01b81526004016107df91815260200190565b608060405180830381865afa1580156107fa573d5f803e3d5ffd5b505050506040513d601f19601f8201168201806040525081019061081e919061096c565b60608101519051909760079190910b9650879550859450849350915050565b5f602080835283518060208501525f5b818110156108695785810183015185820160400152820161084d565b505f604082860101526040601f19601f8301168501019250505092915050565b5f60208284031215610899575f80fd5b813569ffffffffffffffffffff811681146108b2575f80fd5b9392505050565b5f602082840312156108c9575f80fd5b5035919050565b5f80602083850312156108e1575f80fd5b823567ffffffffffffffff808211156108f8575f80fd5b818501915085601f83011261090b575f80fd5b813581811115610919575f80fd5b8660208260051b850101111561092d575f80fd5b60209290920196919550909350505050565b805167ffffffffffffffff81168114610956575f80fd5b919050565b8051600381900b8114610956575f80fd5b5f6080828403121561097c575f80fd5b6040516080810181811067ffffffffffffffff821117156109ab57634e487b7160e01b5f52604160045260245ffd5b6040528251600781900b81146109bf575f80fd5b81526109cd6020840161093f565b60208201526109de6040840161095b565b6040820152606083015160608201528091505092915050565b5f825f0b825f0b02805f0b9150808214610a1f57634e487b7160e01b5f52601160045260245ffd5b5092915050565b81835281816020850137505f828201602090810191909152601f909101601f19169091010190565b60208082528181018390525f906040600585901b8401810190840186845b87811015610ad957868403603f190183528135368a9003601e19018112610a91575f80fd5b8901858101903567ffffffffffffffff811115610aac575f80fd5b803603821315610aba575f80fd5b610ac5868284610a26565b955050509184019190840190600101610a6c565b5091979650505050505050565b5f60208284031215610af6575f80fd5b505191905056fe4120706f7274206f66206120636861696e6c696e6b2061676772656761746f7220706f77657265642062792070797468206e6574776f726b206665656473a26469706673582212203da0b7f79b7205237bf31a97fb9e9c6944d0ed0ccb4bee2c7ba9c6594a81afe464736f6c634300081600330000000000000000000000008250f4af4b972684f7b336503e2d6dfedeb1487a9ee4e7c60b940440a261eb54b6d8149c23b580ed7da3139f7f08f4ea29dad395",
        "nonce": "0x29",
        "chainId": "0x2105"
      },
      "additionalContracts": [],
      "isFixedGasLimit": false
    },
    {
      "hash": "0xd395accb825cda3a1198eefa063e30392d0da46818a715873b99b917f63dfc36",
      "transactionType": "CALL",
      "contractName": null,
      "contractAddress": "0x2dc205f24bcb6b311e5cdf0745b0741648aebd3d",
      "function": "createMorphoChainlinkOracleV2(address,uint256,address,address,uint256,address,uint256,address,address,uint256,bytes32)",
      "arguments": [
        "0x0000000000000000000000000000000000000000",
        "1",
        "0xD148676BE0F419e760a2584352358e473d212391",
        "0x0000000000000000000000000000000000000000",
        "18",
        "0x0000000000000000000000000000000000000000",
        "1",
        "0x0000000000000000000000000000000000000000",
        "0x0000000000000000000000000000000000000000",
        "18",
        "0x0000000000000000000000000000000000000000000000000000000000000000"
      ],
      "transaction": {
        "from": "0xa9bbbdde822789f123667044443dc7001fb43c01",
        "to": "0x2dc205f24bcb6b311e5cdf0745b0741648aebd3d",
        "gas": "0xd0864",
        "value": "0x0",
        "input": "0xb32cddf400000000000000000000000000000000000000000000000000000000000000000000000000000000000000000000000000000000000000000000000000000001000000000000000000000000d148676be0f419e760a2584352358e473d21239100000000000000000000000000000000000000000000000000000000000000000000000000000000000000000000000000000000000000000000000000000012000000000000000000000000000000000000000000000000000000000000000000000000000000000000000000000000000000000000000000000000000000010000000000000000000000000000000000000000000000000000000000000000000000000000000000000000000000000000000000000000000000000000000000000000000000000000000000000000000000000000000000000000000000120000000000000000000000000000000000000000000000000000000000000000",
        "nonce": "0x2a",
        "chainId": "0x2105"
      },
      "additionalContracts": [
        {
          "transactionType": "CREATE2",
          "address": "0xf13c74a2663f81090e9e5256d4d7dbc9fc655b59",
          "initCode": "0x6101a08060405234620002fa578062000f1e803803809162000022828562000331565b833961014092839181010312620002fa576200003e8162000355565b91602082015190620000536040840162000355565b90620000626060850162000355565b926080850151956200007760a0870162000355565b9060c0870151956200008c60e0890162000355565b95610100996200009e8b8b0162000355565b6101209a8b0151956001600160a01b0386811615801590620002ef575b620000d190620000ca6200036a565b90620003bf565b811615801590620002e4575b620000ec90620000ca6200036a565b8715956200015a6040516200010181620002ff565b601f8152620001397f7661756c7420636f6e76657273696f6e2073616d706c65206973207a65726f00918260208201528a15620003bf565b604051906200014882620002ff565b601f825260208201528d1515620003bf565b6080528760a05260c0528960e052828c52838b5288885261016098818a52602496870190818811620002cf57620001bd620001ca94620001c4620001bd95620001b6620001bd620001d19b9a97620001b6620001ca986200045b565b9062000429565b916200045b565b6200044d565b906200044d565b604d8111620002ba57600a0a868102968188041490151715620002a5576200029157506101809304835260405193610a269586620004f8873960805186818161014b0152610304015260a0518681816102e301526105b9015260c0518681816103ac0152610560015260e05186818161038b01526104f301525185818160d9015261032d0152518481816101b9015261035c0152518381816103d5015261049a01525182818161027f01526103fe01525181818161021201526104250152f35b634e487b7160e01b60009081526012600452fd5b50634e487b7160e01b60009081526011600452fd5b82634e487b7160e01b60005260116004526000fd5b87634e487b7160e01b60005260116004526000fd5b5060018b14620000dd565b5060018914620000bb565b600080fd5b604081019081106001600160401b038211176200031b57604052565b634e487b7160e01b600052604160045260246000fd5b601f909101601f19168101906001600160401b038211908210176200031b57604052565b51906001600160a01b0382168203620002fa57565b60405190606082016001600160401b038111838210176200031b5760405260228252616e6560f01b6040837f7661756c7420636f6e76657273696f6e2073616d706c65206973206e6f74206f60208201520152565b15620003c85750565b6040519062461bcd60e51b82528160208060048301528251908160248401526000935b8285106200040f575050604492506000838284010152601f80199101168101030190fd5b8481018201518686016044015293810193859350620003eb565b919082018092116200043757565b634e487b7160e01b600052601160045260246000fd5b919082039182116200043757565b6001600160a01b03168015620004f15760206004916040519283809263313ce56760e01b82525afa908115620004e5576000916200049b575b5060ff1690565b6020813d8211620004dc575b81620004b66020938362000331565b81010312620004d857519060ff82168203620004d5575060ff62000494565b80fd5b5080fd5b3d9150620004a7565b6040513d6000823e3d90fd5b5060009056fe60806040818152600436101561001457600080fd5b600091823560e01c908163054f7ac014610584575080632e6f20a614610516578063461739d2146104be57806356095e1114610450578063a035b1fe146102a3578063acfbd39e14610235578063ce4b5bbe146101dd578063dc53858c1461016f578063eaa2d7b4146101015763f50a47181461009057600080fd5b346100fd57817ffffffffffffffffffffffffffffffffffffffffffffffffffffffffffffffffc3601126100fd576020905173ffffffffffffffffffffffffffffffffffffffff7f0000000000000000000000000000000000000000000000000000000000000000168152f35b5080fd5b50346100fd57817ffffffffffffffffffffffffffffffffffffffffffffffffffffffffffffffffc3601126100fd576020905173ffffffffffffffffffffffffffffffffffffffff7f0000000000000000000000000000000000000000000000000000000000000000168152f35b50346100fd57817ffffffffffffffffffffffffffffffffffffffffffffffffffffffffffffffffc3601126100fd576020905173ffffffffffffffffffffffffffffffffffffffff7f0000000000000000000000000000000000000000000000000000000000000000168152f35b50346100fd57817ffffffffffffffffffffffffffffffffffffffffffffffffffffffffffffffffc3601126100fd57602090517f00000000000000000000000000000000000000000000000000000000000000008152f35b50346100fd57817ffffffffffffffffffffffffffffffffffffffffffffffffffffffffffffffffc3601126100fd576020905173ffffffffffffffffffffffffffffffffffffffff7f0000000000000000000000000000000000000000000000000000000000000000168152f35b50346100fd57817ffffffffffffffffffffffffffffffffffffffffffffffffffffffffffffffffc3601126100fd576020906104496103806103576103287f00000000000000000000000000000000000000000000000000000000000000007f000000000000000000000000000000000000000000000000000000000000000061094a565b6103517f00000000000000000000000000000000000000000000000000000000000000006107a5565b906105dc565b6103517f00000000000000000000000000000000000000000000000000000000000000006107a5565b6104226103f96103d07f00000000000000000000000000000000000000000000000000000000000000007f000000000000000000000000000000000000000000000000000000000000000061094a565b6103517f00000000000000000000000000000000000000000000000000000000000000006107a5565b6103517f00000000000000000000000000000000000000000000000000000000000000006107a5565b907f000000000000000000000000000000000000000000000000000000000000000061061e565b9051908152f35b50346100fd57817ffffffffffffffffffffffffffffffffffffffffffffffffffffffffffffffffc3601126100fd576020905173ffffffffffffffffffffffffffffffffffffffff7f0000000000000000000000000000000000000000000000000000000000000000168152f35b50346100fd57817ffffffffffffffffffffffffffffffffffffffffffffffffffffffffffffffffc3601126100fd57602090517f00000000000000000000000000000000000000000000000000000000000000008152f35b50346100fd57817ffffffffffffffffffffffffffffffffffffffffffffffffffffffffffffffffc3601126100fd576020905173ffffffffffffffffffffffffffffffffffffffff7f0000000000000000000000000000000000000000000000000000000000000000168152f35b8390346100fd57817ffffffffffffffffffffffffffffffffffffffffffffffffffffffffffffffffc3601126100fd576020907f00000000000000000000000000000000000000000000000000000000000000008152f35b818102929181159184041417156105ef57565b7f4e487b7100000000000000000000000000000000000000000000000000000000600052601160045260246000fd5b9091828202917fffffffffffffffffffffffffffffffffffffffffffffffffffffffffffffffff848209938380861095039480860395146106dc57848311156106b25782910981600003821680920460028082600302188083028203028083028203028083028203028083028203028083028203028092029003029360018380600003040190848311900302920304170290565b60046040517f227bc153000000000000000000000000000000000000000000000000000000008152fd5b5050809250156106ea570490565b7f4e487b7100000000000000000000000000000000000000000000000000000000600052601260045260246000fd5b90601f7fffffffffffffffffffffffffffffffffffffffffffffffffffffffffffffffe0910116810190811067ffffffffffffffff82111761075a57604052565b7f4e487b7100000000000000000000000000000000000000000000000000000000600052604160045260246000fd5b519069ffffffffffffffffffff821682036107a057565b600080fd5b73ffffffffffffffffffffffffffffffffffffffff1680156109445760049060a06040918251938480927ffeaf968c0000000000000000000000000000000000000000000000000000000082525afa918215610939576000926108e8575b50805181810181811067ffffffffffffffff82111761075a578252600f81526020917f6e6567617469766520616e73776572000000000000000000000000000000000083830152600084126108585750505090565b5180927f08c379a000000000000000000000000000000000000000000000000000000000825280600483015282519283602484015260005b8481106108d1575050507fffffffffffffffffffffffffffffffffffffffffffffffffffffffffffffffe0601f836000604480968601015201168101030190fd5b818101830151868201604401528593508201610890565b909160a0823d8211610931575b8161090260a09383610719565b8101031261092e575061091481610789565b50610926608060208301519201610789565b509038610803565b80fd5b3d91506108f5565b50513d6000823e3d90fd5b50600190565b73ffffffffffffffffffffffffffffffffffffffff169081156109e9576020906024604051809481937f07a2d13a00000000000000000000000000000000000000000000000000000000835260048301525afa9081156109dd576000916109af575090565b906020823d82116109d5575b816109c860209383610719565b8101031261092e57505190565b3d91506109bb565b6040513d6000823e3d90fd5b505060019056fea2646970667358221220de25ff8dd5708a691db44b0da1e6e734e7659c3f9a1801595bc1fa7bf902c00564736f6c6343000815003300000000000000000000000000000000000000000000000000000000000000000000000000000000000000000000000000000000000000000000000000000001000000000000000000000000d148676be0f419e760a2584352358e473d2123910000000000000000000000000000000000000000000000000000000000000000000000000000000000000000000000000000000000000000000000000000001200000000000000000000000000000000000000000000000000000000000000000000000000000000000000000000000000000000000000000000000000000001000000000000000000000000000000000000000000000000000000000000000000000000000000000000000000000000000000000000000000000000000000000000000000000000000000000000000000000000000000000000000000000012"
        }
      ],
      "isFixedGasLimit": false
    },
    {
      "hash": "0x43975b31c3c4c5105161a63e12fa396b55ccad250127814440ca11f61fb57212",
      "transactionType": "CALL",
      "contractName": null,
      "contractAddress": "0xbbbbbbbbbb9cc5e90e3b3af64bdaf62c37eeffcb",
      "function": "createMarket((address,address,address,address,uint256))",
      "arguments": [
        "(0x0000206329b97DB379d5E1Bf586BbDB969C63274, 0x04C0599Ae5A44757c0af6F9eC3b93da8976c150A, 0xf13C74a2663f81090e9E5256D4D7dbC9Fc655b59, 0x46415998764C29aB2a25CbeA6254146D50D22687, 860000000000000000)"
      ],
      "transaction": {
        "from": "0xa9bbbdde822789f123667044443dc7001fb43c01",
        "to": "0xbbbbbbbbbb9cc5e90e3b3af64bdaf62c37eeffcb",
        "gas": "0x42a17",
        "value": "0x0",
        "input": "0x8c1358a20000000000000000000000000000206329b97db379d5e1bf586bbdb969c6327400000000000000000000000004c0599ae5a44757c0af6f9ec3b93da8976c150a000000000000000000000000f13c74a2663f81090e9e5256d4d7dbc9fc655b5900000000000000000000000046415998764c29ab2a25cbea6254146d50d226870000000000000000000000000000000000000000000000000bef55718ad60000",
        "nonce": "0x2b",
        "chainId": "0x2105"
      },
      "additionalContracts": [],
      "isFixedGasLimit": false
    },
    {
      "hash": "0x8ccfa280ff9df9db47c6f3c9d1a4bb5d615ba0f7e0ce11ba3119bb210b4273b1",
      "transactionType": "CALL",
      "contractName": null,
      "contractAddress": "0x0000206329b97db379d5e1bf586bbdb969c63274",
      "function": "approve(address,uint256)",
      "arguments": [
        "0xBBBBBbbBBb9cC5e90e3b3Af64bdAF62C37EEFFCb",
        "1000000000000000000"
      ],
      "transaction": {
        "from": "0xa9bbbdde822789f123667044443dc7001fb43c01",
        "to": "0x0000206329b97db379d5e1bf586bbdb969c63274",
        "gas": "0x12025",
        "value": "0x0",
        "input": "0x095ea7b3000000000000000000000000bbbbbbbbbb9cc5e90e3b3af64bdaf62c37eeffcb0000000000000000000000000000000000000000000000000de0b6b3a7640000",
        "nonce": "0x2c",
        "chainId": "0x2105"
      },
      "additionalContracts": [],
      "isFixedGasLimit": false
    },
    {
      "hash": "0x972899d83d6c07fef20f6c8cf1baea3cf138d74b7573a30f7c49e3797803c69f",
      "transactionType": "CALL",
      "contractName": null,
      "contractAddress": "0xbbbbbbbbbb9cc5e90e3b3af64bdaf62c37eeffcb",
      "function": "supply((address,address,address,address,uint256),uint256,uint256,address,bytes)",
      "arguments": [
        "(0x0000206329b97DB379d5E1Bf586BbDB969C63274, 0x04C0599Ae5A44757c0af6F9eC3b93da8976c150A, 0xf13C74a2663f81090e9E5256D4D7dbC9Fc655b59, 0x46415998764C29aB2a25CbeA6254146D50D22687, 860000000000000000)",
        "1000000000000000000",
        "0",
        "0xa9bbbDDe822789F123667044443dc7001fb43C01",
        "0x"
      ],
      "transaction": {
        "from": "0xa9bbbdde822789f123667044443dc7001fb43c01",
        "to": "0xbbbbbbbbbb9cc5e90e3b3af64bdaf62c37eeffcb",
        "gas": "0x24bcb",
        "value": "0x0",
        "input": "0xa99aad890000000000000000000000000000206329b97db379d5e1bf586bbdb969c6327400000000000000000000000004c0599ae5a44757c0af6f9ec3b93da8976c150a000000000000000000000000f13c74a2663f81090e9e5256d4d7dbc9fc655b5900000000000000000000000046415998764c29ab2a25cbea6254146d50d226870000000000000000000000000000000000000000000000000bef55718ad600000000000000000000000000000000000000000000000000000de0b6b3a76400000000000000000000000000000000000000000000000000000000000000000000000000000000000000000000a9bbbdde822789f123667044443dc7001fb43c0100000000000000000000000000000000000000000000000000000000000001200000000000000000000000000000000000000000000000000000000000000000",
        "nonce": "0x2d",
        "chainId": "0x2105"
      },
      "additionalContracts": [],
      "isFixedGasLimit": false
    },
    {
      "hash": "0x2937b665e96fe095ba3ce61c725130f1858c1efebf27f2f40d9f3dcf4fbca6c8",
      "transactionType": "CALL",
      "contractName": null,
      "contractAddress": "0x04c0599ae5a44757c0af6f9ec3b93da8976c150a",
      "function": "approve(address,uint256)",
      "arguments": [
        "0xBBBBBbbBBb9cC5e90e3b3Af64bdAF62C37EEFFCb",
        "2000000000000000"
      ],
      "transaction": {
        "from": "0xa9bbbdde822789f123667044443dc7001fb43c01",
        "to": "0x04c0599ae5a44757c0af6f9ec3b93da8976c150a",
        "gas": "0x11572",
        "value": "0x0",
        "input": "0x095ea7b3000000000000000000000000bbbbbbbbbb9cc5e90e3b3af64bdaf62c37eeffcb00000000000000000000000000000000000000000000000000071afd498d0000",
        "nonce": "0x2e",
        "chainId": "0x2105"
      },
      "additionalContracts": [],
      "isFixedGasLimit": false
    },
    {
      "hash": "0x2b1d02152e9f4169463d746d1c89596ee6ea33430137d3533cfc9c5a2f77970b",
      "transactionType": "CALL",
      "contractName": null,
      "contractAddress": "0xbbbbbbbbbb9cc5e90e3b3af64bdaf62c37eeffcb",
      "function": "supplyCollateral((address,address,address,address,uint256),uint256,address,bytes)",
      "arguments": [
        "(0x0000206329b97DB379d5E1Bf586BbDB969C63274, 0x04C0599Ae5A44757c0af6F9eC3b93da8976c150A, 0xf13C74a2663f81090e9E5256D4D7dbC9Fc655b59, 0x46415998764C29aB2a25CbeA6254146D50D22687, 860000000000000000)",
        "2000000000000000",
        "0xa9bbbDDe822789F123667044443dc7001fb43C01",
        "0x"
      ],
      "transaction": {
        "from": "0xa9bbbdde822789f123667044443dc7001fb43c01",
        "to": "0xbbbbbbbbbb9cc5e90e3b3af64bdaf62c37eeffcb",
        "gas": "0x19388",
        "value": "0x0",
        "input": "0x238d65790000000000000000000000000000206329b97db379d5e1bf586bbdb969c6327400000000000000000000000004c0599ae5a44757c0af6f9ec3b93da8976c150a000000000000000000000000f13c74a2663f81090e9e5256d4d7dbc9fc655b5900000000000000000000000046415998764c29ab2a25cbea6254146d50d226870000000000000000000000000000000000000000000000000bef55718ad6000000000000000000000000000000000000000000000000000000071afd498d0000000000000000000000000000a9bbbdde822789f123667044443dc7001fb43c0100000000000000000000000000000000000000000000000000000000000001000000000000000000000000000000000000000000000000000000000000000000",
        "nonce": "0x2f",
        "chainId": "0x2105"
      },
      "additionalContracts": [],
      "isFixedGasLimit": false
    },
    {
      "hash": "0x2f38194f8bf281ba66bc1cce9afc06919d2a1ef5fc56223345aeeb4dbe0567e1",
      "transactionType": "CALL",
      "contractName": null,
      "contractAddress": "0xbbbbbbbbbb9cc5e90e3b3af64bdaf62c37eeffcb",
      "function": "borrow((address,address,address,address,uint256),uint256,uint256,address,address)",
      "arguments": [
        "(0x0000206329b97DB379d5E1Bf586BbDB969C63274, 0x04C0599Ae5A44757c0af6F9eC3b93da8976c150A, 0xf13C74a2663f81090e9E5256D4D7dbC9Fc655b59, 0x46415998764C29aB2a25CbeA6254146D50D22687, 860000000000000000)",
        "900000000000000000",
        "0",
        "0xa9bbbDDe822789F123667044443dc7001fb43C01",
        "0xa9bbbDDe822789F123667044443dc7001fb43C01"
      ],
      "transaction": {
        "from": "0xa9bbbdde822789f123667044443dc7001fb43c01",
        "to": "0xbbbbbbbbbb9cc5e90e3b3af64bdaf62c37eeffcb",
        "gas": "0x241e6",
        "value": "0x0",
        "input": "0x50d8cd4b0000000000000000000000000000206329b97db379d5e1bf586bbdb969c6327400000000000000000000000004c0599ae5a44757c0af6f9ec3b93da8976c150a000000000000000000000000f13c74a2663f81090e9e5256d4d7dbc9fc655b5900000000000000000000000046415998764c29ab2a25cbea6254146d50d226870000000000000000000000000000000000000000000000000bef55718ad600000000000000000000000000000000000000000000000000000c7d713b49da00000000000000000000000000000000000000000000000000000000000000000000000000000000000000000000a9bbbdde822789f123667044443dc7001fb43c01000000000000000000000000a9bbbdde822789f123667044443dc7001fb43c01",
        "nonce": "0x30",
        "chainId": "0x2105"
      },
      "additionalContracts": [],
      "isFixedGasLimit": false
    }
  ],
  "receipts": [
    {
      "status": "0x1",
      "cumulativeGasUsed": "0xa7688",
      "logs": [],
      "logsBloom": "0x00000000000000000000000000000000000000000000000000000000000000000000000000000000000000000000000000000000000000000000000000000000000000000000000000000000000000000000000000000000000000000000000000000000000000000000000000000000000000000000000000000000000000000000000000000000000000000000000000000000000000000000000000000000000000000000000000000000000000000000000000000000000000000000000000000000000000000000000000000000000000000000000000000000000000000000000000000000000000000000000000000000000000000000000000000000",
      "type": "0x2",
      "transactionHash": "0x53db03c000bc412b737e3feacce1d6b751e043050909ad8be9094d49e345011d",
      "transactionIndex": "0x0",
      "blockHash": "0xa88b5680f7ccaea66f7cb91b4dad75c05f93da3de8ed810ff29d2e2097e222a0",
      "blockNumber": "0xf5791c",
      "gasUsed": "0xa7688",
      "effectiveGasPrice": "0xe60b2a",
      "blobGasPrice": "0x1",
      "from": "0xa9bbbdde822789f123667044443dc7001fb43c01",
      "to": null,
      "contractAddress": "0xd148676be0f419e760a2584352358e473d212391",
      "root": "0x0000000000000000000000000000000000000000000000000000000000000000"
    },
    {
      "status": "0x1",
      "cumulativeGasUsed": "0x13e606",
      "logs": [
        {
          "address": "0x2dc205f24bcb6b311e5cdf0745b0741648aebd3d",
          "topics": [
            "0x6436acb89463dbc9036f1e52aebf32ac0bf5f69e3987c067110c3ac403ebda33"
          ],
          "data": "0x000000000000000000000000a9bbbdde822789f123667044443dc7001fb43c01000000000000000000000000f13c74a2663f81090e9e5256d4d7dbc9fc655b59",
          "blockHash": "0xa88b5680f7ccaea66f7cb91b4dad75c05f93da3de8ed810ff29d2e2097e222a0",
          "blockNumber": "0xf5791c",
          "blockTimestamp": "0x66754f78",
          "transactionHash": "0xd395accb825cda3a1198eefa063e30392d0da46818a715873b99b917f63dfc36",
          "transactionIndex": "0x1",
          "logIndex": "0x0",
          "removed": false
        }
      ],
      "logsBloom": "0x00000000000000000000000000000000000000000000000000000000000200000000000000000000000000000000000000000000000000000000000000000000000000000000000000000000000000000000000000000000000000000000000000000000000000000000000000000000000000000000000000000000000000000000000000000000000000000000000000002000000000000000000000000000000000000000000000000000000000000000000000000000000000000000000000000000000000000000004000000000000000000000000000000000000000000000000000000080000000002000000000000040000000000000000000000000",
      "type": "0x2",
      "transactionHash": "0xd395accb825cda3a1198eefa063e30392d0da46818a715873b99b917f63dfc36",
      "transactionIndex": "0x1",
      "blockHash": "0xa88b5680f7ccaea66f7cb91b4dad75c05f93da3de8ed810ff29d2e2097e222a0",
      "blockNumber": "0xf5791c",
      "gasUsed": "0x96f7e",
      "effectiveGasPrice": "0xe60b2a",
      "blobGasPrice": "0x1",
      "from": "0xa9bbbdde822789f123667044443dc7001fb43c01",
      "to": "0x2dc205f24bcb6b311e5cdf0745b0741648aebd3d",
      "contractAddress": null,
      "root": "0x0000000000000000000000000000000000000000000000000000000000000000"
    },
    {
      "status": "0x1",
      "cumulativeGasUsed": "0x16e9db",
      "logs": [
        {
          "address": "0xbbbbbbbbbb9cc5e90e3b3af64bdaf62c37eeffcb",
          "topics": [
            "0xac4b2400f169220b0c0afdde7a0b32e775ba727ea1cb30b35f935cdaab8683ac",
            "0xcb8639e6a834fa517601f27199c408797d2574a49754d5183aac2c69eaf7b265"
          ],
          "data": "0x0000000000000000000000000000206329b97db379d5e1bf586bbdb969c6327400000000000000000000000004c0599ae5a44757c0af6f9ec3b93da8976c150a000000000000000000000000f13c74a2663f81090e9e5256d4d7dbc9fc655b5900000000000000000000000046415998764c29ab2a25cbea6254146d50d226870000000000000000000000000000000000000000000000000bef55718ad60000",
          "blockHash": "0xa88b5680f7ccaea66f7cb91b4dad75c05f93da3de8ed810ff29d2e2097e222a0",
          "blockNumber": "0xf5791c",
          "blockTimestamp": "0x66754f78",
          "transactionHash": "0x43975b31c3c4c5105161a63e12fa396b55ccad250127814440ca11f61fb57212",
          "transactionIndex": "0x2",
          "logIndex": "0x1",
          "removed": false
        },
        {
          "address": "0x46415998764c29ab2a25cbea6254146d50d22687",
          "topics": [
            "0x7120161a7b3d31251e01294ab351ef15a41b91659a36032e4641bb89b121e321",
            "0xcb8639e6a834fa517601f27199c408797d2574a49754d5183aac2c69eaf7b265"
          ],
          "data": "0x0000000000000000000000000000000000000000000000000000000012e687bf000000000000000000000000000000000000000000000000000000004b9a1eff",
          "blockHash": "0xa88b5680f7ccaea66f7cb91b4dad75c05f93da3de8ed810ff29d2e2097e222a0",
          "blockNumber": "0xf5791c",
          "blockTimestamp": "0x66754f78",
          "transactionHash": "0x43975b31c3c4c5105161a63e12fa396b55ccad250127814440ca11f61fb57212",
          "transactionIndex": "0x2",
          "logIndex": "0x2",
          "removed": false
        }
      ],
      "logsBloom": "0x00000000000000000000000000000800000000000000000000000000000000000000000000000100000020000000000000000000000000000000000000804000000000000010000000000000000000000000000000000000000000000000000000000000000000000000000000000000000000000000000000000040000000000000000000000008000000000000000000000000000000000008000000000000000000000000000000000000000000008000000000000000000000000000000020000000000000000000000000000000000100000000000000000000000800000000000000000000000000000001000000000000000000000000000000000010",
      "type": "0x2",
      "transactionHash": "0x43975b31c3c4c5105161a63e12fa396b55ccad250127814440ca11f61fb57212",
      "transactionIndex": "0x2",
      "blockHash": "0xa88b5680f7ccaea66f7cb91b4dad75c05f93da3de8ed810ff29d2e2097e222a0",
      "blockNumber": "0xf5791c",
      "gasUsed": "0x303d5",
      "effectiveGasPrice": "0xe60b2a",
      "blobGasPrice": "0x1",
      "from": "0xa9bbbdde822789f123667044443dc7001fb43c01",
      "to": "0xbbbbbbbbbb9cc5e90e3b3af64bdaf62c37eeffcb",
      "contractAddress": null,
      "root": "0x0000000000000000000000000000000000000000000000000000000000000000"
    },
    {
      "status": "0x1",
      "cumulativeGasUsed": "0x17ba79",
      "logs": [
        {
          "address": "0x0000206329b97db379d5e1bf586bbdb969c63274",
          "topics": [
            "0x8c5be1e5ebec7d5bd14f71427d1e84f3dd0314c0f7b2291e5b200ac8c7c3b925",
            "0x000000000000000000000000a9bbbdde822789f123667044443dc7001fb43c01",
            "0x000000000000000000000000bbbbbbbbbb9cc5e90e3b3af64bdaf62c37eeffcb"
          ],
          "data": "0x0000000000000000000000000000000000000000000000000de0b6b3a7640000",
          "blockHash": "0xa88b5680f7ccaea66f7cb91b4dad75c05f93da3de8ed810ff29d2e2097e222a0",
          "blockNumber": "0xf5791c",
          "blockTimestamp": "0x66754f78",
          "transactionHash": "0x8ccfa280ff9df9db47c6f3c9d1a4bb5d615ba0f7e0ce11ba3119bb210b4273b1",
          "transactionIndex": "0x3",
          "logIndex": "0x3",
          "removed": false
        }
      ],
      "logsBloom": "0x00000000000000000000000000000080000000000000000000000008000000000000000000000000000000000000000000008000000000000000000000200000000000000000000000000000000004000000000000000000000002000000000000000000000000000000000000000000000000000000000000000000000000000000000000000000000000000000000000000000000000000000000000000000020000000000000000000000000000000000000000000000000000000000000000000000000000000000000000000000000000004000000000000000000000000010000001000000000000200000000000000000000000000000000000004000",
      "type": "0x2",
      "transactionHash": "0x8ccfa280ff9df9db47c6f3c9d1a4bb5d615ba0f7e0ce11ba3119bb210b4273b1",
      "transactionIndex": "0x3",
      "blockHash": "0xa88b5680f7ccaea66f7cb91b4dad75c05f93da3de8ed810ff29d2e2097e222a0",
      "blockNumber": "0xf5791c",
      "gasUsed": "0xd09e",
      "effectiveGasPrice": "0xe60b2a",
      "blobGasPrice": "0x1",
      "from": "0xa9bbbdde822789f123667044443dc7001fb43c01",
      "to": "0x0000206329b97db379d5e1bf586bbdb969c63274",
      "contractAddress": null,
      "root": "0x0000000000000000000000000000000000000000000000000000000000000000"
    },
    {
      "status": "0x1",
      "cumulativeGasUsed": "0x194c62",
      "logs": [
        {
          "address": "0xbbbbbbbbbb9cc5e90e3b3af64bdaf62c37eeffcb",
          "topics": [
            "0xedf8870433c83823eb071d3df1caa8d008f12f6440918c20d75a3602cda30fe0",
            "0xcb8639e6a834fa517601f27199c408797d2574a49754d5183aac2c69eaf7b265",
            "0x000000000000000000000000a9bbbdde822789f123667044443dc7001fb43c01",
            "0x000000000000000000000000a9bbbdde822789f123667044443dc7001fb43c01"
          ],
          "data": "0x0000000000000000000000000000000000000000000000000de0b6b3a764000000000000000000000000000000000000000000000000d3c21bcecceda1000000",
          "blockHash": "0xa88b5680f7ccaea66f7cb91b4dad75c05f93da3de8ed810ff29d2e2097e222a0",
          "blockNumber": "0xf5791c",
          "blockTimestamp": "0x66754f78",
          "transactionHash": "0x972899d83d6c07fef20f6c8cf1baea3cf138d74b7573a30f7c49e3797803c69f",
          "transactionIndex": "0x4",
          "logIndex": "0x4",
          "removed": false
        },
        {
          "address": "0x0000206329b97db379d5e1bf586bbdb969c63274",
          "topics": [
            "0x8c5be1e5ebec7d5bd14f71427d1e84f3dd0314c0f7b2291e5b200ac8c7c3b925",
            "0x000000000000000000000000a9bbbdde822789f123667044443dc7001fb43c01",
            "0x000000000000000000000000bbbbbbbbbb9cc5e90e3b3af64bdaf62c37eeffcb"
          ],
          "data": "0x0000000000000000000000000000000000000000000000000000000000000000",
          "blockHash": "0xa88b5680f7ccaea66f7cb91b4dad75c05f93da3de8ed810ff29d2e2097e222a0",
          "blockNumber": "0xf5791c",
          "blockTimestamp": "0x66754f78",
          "transactionHash": "0x972899d83d6c07fef20f6c8cf1baea3cf138d74b7573a30f7c49e3797803c69f",
          "transactionIndex": "0x4",
          "logIndex": "0x5",
          "removed": false
        },
        {
          "address": "0x0000206329b97db379d5e1bf586bbdb969c63274",
          "topics": [
            "0xddf252ad1be2c89b69c2b068fc378daa952ba7f163c4a11628f55a4df523b3ef",
            "0x000000000000000000000000a9bbbdde822789f123667044443dc7001fb43c01",
            "0x000000000000000000000000bbbbbbbbbb9cc5e90e3b3af64bdaf62c37eeffcb"
          ],
          "data": "0x0000000000000000000000000000000000000000000000000de0b6b3a7640000",
          "blockHash": "0xa88b5680f7ccaea66f7cb91b4dad75c05f93da3de8ed810ff29d2e2097e222a0",
          "blockNumber": "0xf5791c",
          "blockTimestamp": "0x66754f78",
          "transactionHash": "0x972899d83d6c07fef20f6c8cf1baea3cf138d74b7573a30f7c49e3797803c69f",
          "transactionIndex": "0x4",
          "logIndex": "0x6",
          "removed": false
        }
      ],
      "logsBloom": "0x00000000000000000000000000000080000000000000000000000008000000000000000000000000000020000000000000008000000000000000000000200000000000000010000000000008800004000000000800000000000002000000000000000000000000000000000000000000000000000000000000000010000000000000000000000008000000000000000000000000000000000000000000000000020000000000000000000000000000008000000000000000000000000000000020000002000000000000000000000000000000004000000000000000000800400010000001000000000000200000000000000000000000000000000000004000",
      "type": "0x2",
      "transactionHash": "0x972899d83d6c07fef20f6c8cf1baea3cf138d74b7573a30f7c49e3797803c69f",
      "transactionIndex": "0x4",
      "blockHash": "0xa88b5680f7ccaea66f7cb91b4dad75c05f93da3de8ed810ff29d2e2097e222a0",
      "blockNumber": "0xf5791c",
      "gasUsed": "0x191e9",
      "effectiveGasPrice": "0xe60b2a",
      "blobGasPrice": "0x1",
      "from": "0xa9bbbdde822789f123667044443dc7001fb43c01",
      "to": "0xbbbbbbbbbb9cc5e90e3b3af64bdaf62c37eeffcb",
      "contractAddress": null,
      "root": "0x0000000000000000000000000000000000000000000000000000000000000000"
    },
    {
      "status": "0x1",
      "cumulativeGasUsed": "0x1a1541",
      "logs": [
        {
          "address": "0x04c0599ae5a44757c0af6f9ec3b93da8976c150a",
          "topics": [
            "0x8c5be1e5ebec7d5bd14f71427d1e84f3dd0314c0f7b2291e5b200ac8c7c3b925",
            "0x000000000000000000000000a9bbbdde822789f123667044443dc7001fb43c01",
            "0x000000000000000000000000bbbbbbbbbb9cc5e90e3b3af64bdaf62c37eeffcb"
          ],
          "data": "0x00000000000000000000000000000000000000000000000000071afd498d0000",
          "blockHash": "0xa88b5680f7ccaea66f7cb91b4dad75c05f93da3de8ed810ff29d2e2097e222a0",
          "blockNumber": "0xf5791c",
          "blockTimestamp": "0x66754f78",
          "transactionHash": "0x2937b665e96fe095ba3ce61c725130f1858c1efebf27f2f40d9f3dcf4fbca6c8",
          "transactionIndex": "0x5",
          "logIndex": "0x7",
          "removed": false
        }
      ],
      "logsBloom": "0x00000000000000000000000000000080000000000000000000000008000000104000000000000000000000000000000000008000000000000000000000200000000000000000000000000000000000000000000000000000000002000000000000000000000000000000000000000000000000000000000000000000000000000000000000000000000000000000000100000000000000000000000000000000020000000000000000000000000000000000000000000000000000000000000000000000000000000000000000000000000000000000000000000000000000000010000001000000000000200000000000000000000000000000000000000000",
      "type": "0x2",
      "transactionHash": "0x2937b665e96fe095ba3ce61c725130f1858c1efebf27f2f40d9f3dcf4fbca6c8",
      "transactionIndex": "0x5",
      "blockHash": "0xa88b5680f7ccaea66f7cb91b4dad75c05f93da3de8ed810ff29d2e2097e222a0",
      "blockNumber": "0xf5791c",
      "gasUsed": "0xc8df",
      "effectiveGasPrice": "0xe60b2a",
      "blobGasPrice": "0x1",
      "from": "0xa9bbbdde822789f123667044443dc7001fb43c01",
      "to": "0x04c0599ae5a44757c0af6f9ec3b93da8976c150a",
      "contractAddress": null,
      "root": "0x0000000000000000000000000000000000000000000000000000000000000000"
    },
    {
      "status": "0x1",
      "cumulativeGasUsed": "0x1b3968",
      "logs": [
        {
          "address": "0xbbbbbbbbbb9cc5e90e3b3af64bdaf62c37eeffcb",
          "topics": [
            "0xa3b9472a1399e17e123f3c2e6586c23e504184d504de59cdaa2b375e880c6184",
            "0xcb8639e6a834fa517601f27199c408797d2574a49754d5183aac2c69eaf7b265",
            "0x000000000000000000000000a9bbbdde822789f123667044443dc7001fb43c01",
            "0x000000000000000000000000a9bbbdde822789f123667044443dc7001fb43c01"
          ],
          "data": "0x00000000000000000000000000000000000000000000000000071afd498d0000",
          "blockHash": "0xa88b5680f7ccaea66f7cb91b4dad75c05f93da3de8ed810ff29d2e2097e222a0",
          "blockNumber": "0xf5791c",
          "blockTimestamp": "0x66754f78",
          "transactionHash": "0x2b1d02152e9f4169463d746d1c89596ee6ea33430137d3533cfc9c5a2f77970b",
          "transactionIndex": "0x6",
          "logIndex": "0x8",
          "removed": false
        },
        {
          "address": "0x04c0599ae5a44757c0af6f9ec3b93da8976c150a",
          "topics": [
            "0xddf252ad1be2c89b69c2b068fc378daa952ba7f163c4a11628f55a4df523b3ef",
            "0x000000000000000000000000a9bbbdde822789f123667044443dc7001fb43c01",
            "0x000000000000000000000000bbbbbbbbbb9cc5e90e3b3af64bdaf62c37eeffcb"
          ],
          "data": "0x00000000000000000000000000000000000000000000000000071afd498d0000",
          "blockHash": "0xa88b5680f7ccaea66f7cb91b4dad75c05f93da3de8ed810ff29d2e2097e222a0",
          "blockNumber": "0xf5791c",
          "blockTimestamp": "0x66754f78",
          "transactionHash": "0x2b1d02152e9f4169463d746d1c89596ee6ea33430137d3533cfc9c5a2f77970b",
          "transactionIndex": "0x6",
          "logIndex": "0x9",
          "removed": false
        }
      ],
      "logsBloom": "0x00000000000000000000000000000080000000000000000000000008000000104000000000000000000020000000000000008000000000000000000000000000000000000010000000000008000000000000000000000000000002000000000000000000000000000000000000000000000000000000000000000010000000000000008000000008000000000000000100000000000000000000000000000000000000000000000000000000000000008000000000000000000000000000000020000002000000000000000000000000000000000000000400000000000800000000000001000000000000200000200000000000000000000000000000000000",
      "type": "0x2",
      "transactionHash": "0x2b1d02152e9f4169463d746d1c89596ee6ea33430137d3533cfc9c5a2f77970b",
      "transactionIndex": "0x6",
      "blockHash": "0xa88b5680f7ccaea66f7cb91b4dad75c05f93da3de8ed810ff29d2e2097e222a0",
      "blockNumber": "0xf5791c",
      "gasUsed": "0x12427",
      "effectiveGasPrice": "0xe60b2a",
      "blobGasPrice": "0x1",
      "from": "0xa9bbbdde822789f123667044443dc7001fb43c01",
      "to": "0xbbbbbbbbbb9cc5e90e3b3af64bdaf62c37eeffcb",
      "contractAddress": null,
      "root": "0x0000000000000000000000000000000000000000000000000000000000000000"
    },
    {
      "status": "0x1",
      "cumulativeGasUsed": "0x1f434",
      "logs": [
        {
          "address": "0x46415998764c29ab2a25cbea6254146d50d22687",
          "topics": [
            "0x7120161a7b3d31251e01294ab351ef15a41b91659a36032e4641bb89b121e321",
            "0xcb8639e6a834fa517601f27199c408797d2574a49754d5183aac2c69eaf7b265"
          ],
          "data": "0x0000000000000000000000000000000000000000000000000000000012e686c4000000000000000000000000000000000000000000000000000000004b9a1723",
          "blockHash": "0x9540e22e23ee90d367d1f24f48134cbde6e4cc2b199346f60c765b1b9cb32dae",
          "blockNumber": "0xf5791d",
          "blockTimestamp": "0x66754f79",
          "transactionHash": "0x2f38194f8bf281ba66bc1cce9afc06919d2a1ef5fc56223345aeeb4dbe0567e1",
          "transactionIndex": "0x0",
          "logIndex": "0x0",
          "removed": false
        },
        {
          "address": "0xbbbbbbbbbb9cc5e90e3b3af64bdaf62c37eeffcb",
          "topics": [
            "0x9d9bd501d0657d7dfe415f779a620a62b78bc508ddc0891fbbd8b7ac0f8fce87",
            "0xcb8639e6a834fa517601f27199c408797d2574a49754d5183aac2c69eaf7b265"
          ],
          "data": "0x0000000000000000000000000000000000000000000000000000000012e686c400000000000000000000000000000000000000000000000000000000000000000000000000000000000000000000000000000000000000000000000000000000",
          "blockHash": "0x9540e22e23ee90d367d1f24f48134cbde6e4cc2b199346f60c765b1b9cb32dae",
          "blockNumber": "0xf5791d",
          "blockTimestamp": "0x66754f79",
          "transactionHash": "0x2f38194f8bf281ba66bc1cce9afc06919d2a1ef5fc56223345aeeb4dbe0567e1",
          "transactionIndex": "0x0",
          "logIndex": "0x1",
          "removed": false
        },
        {
          "address": "0xbbbbbbbbbb9cc5e90e3b3af64bdaf62c37eeffcb",
          "topics": [
            "0x570954540bed6b1304a87dfe815a5eda4a648f7097a16240dcd85c9b5fd42a43",
            "0xcb8639e6a834fa517601f27199c408797d2574a49754d5183aac2c69eaf7b265",
            "0x000000000000000000000000a9bbbdde822789f123667044443dc7001fb43c01",
            "0x000000000000000000000000a9bbbdde822789f123667044443dc7001fb43c01"
          ],
          "data": "0x000000000000000000000000a9bbbdde822789f123667044443dc7001fb43c010000000000000000000000000000000000000000000000000c7d713b49da000000000000000000000000000000000000000000000000be951906eba2aa800000",
          "blockHash": "0x9540e22e23ee90d367d1f24f48134cbde6e4cc2b199346f60c765b1b9cb32dae",
          "blockNumber": "0xf5791d",
          "blockTimestamp": "0x66754f79",
          "transactionHash": "0x2f38194f8bf281ba66bc1cce9afc06919d2a1ef5fc56223345aeeb4dbe0567e1",
          "transactionIndex": "0x0",
          "logIndex": "0x2",
          "removed": false
        },
        {
          "address": "0x0000206329b97db379d5e1bf586bbdb969c63274",
          "topics": [
            "0xddf252ad1be2c89b69c2b068fc378daa952ba7f163c4a11628f55a4df523b3ef",
            "0x000000000000000000000000bbbbbbbbbb9cc5e90e3b3af64bdaf62c37eeffcb",
            "0x000000000000000000000000a9bbbdde822789f123667044443dc7001fb43c01"
          ],
          "data": "0x0000000000000000000000000000000000000000000000000c7d713b49da0000",
          "blockHash": "0x9540e22e23ee90d367d1f24f48134cbde6e4cc2b199346f60c765b1b9cb32dae",
          "blockNumber": "0xf5791d",
          "blockTimestamp": "0x66754f79",
          "transactionHash": "0x2f38194f8bf281ba66bc1cce9afc06919d2a1ef5fc56223345aeeb4dbe0567e1",
          "transactionIndex": "0x0",
          "logIndex": "0x3",
          "removed": false
        }
      ],
      "logsBloom": "0x00000000000000000002000000000080000000000000000000000008000000000000400000000100000020000000000000008000000000000000000020804000000000000010000000000008000004000000000000000000000002080000000000000000000000000000000000000000000000000000000000000010000000000000000000000008000000000000000000000000000000000008000000000000000000000000000000000000000000008000000000000000000000000000000020000002000000000000000000000000000100004000000000000000000800000000004001000008000000200001000000000000000000000000000000004000",
      "type": "0x2",
      "transactionHash": "0x2f38194f8bf281ba66bc1cce9afc06919d2a1ef5fc56223345aeeb4dbe0567e1",
      "transactionIndex": "0x0",
      "blockHash": "0x9540e22e23ee90d367d1f24f48134cbde6e4cc2b199346f60c765b1b9cb32dae",
      "blockNumber": "0xf5791d",
      "gasUsed": "0x1f434",
      "effectiveGasPrice": "0xcb8d4d",
      "blobGasPrice": "0x1",
      "from": "0xa9bbbdde822789f123667044443dc7001fb43c01",
      "to": "0xbbbbbbbbbb9cc5e90e3b3af64bdaf62c37eeffcb",
      "contractAddress": null,
      "root": "0x0000000000000000000000000000000000000000000000000000000000000000"
    }
  ],
  "libraries": [],
  "pending": [],
  "returns": {},
  "timestamp": 1718964091,
  "chain": 8453,
  "commit": "371fb94"
}