{
  "transactions": [
    {
      "hash": "0xef5b493a07a9f11b6eebd18be98590e8c6f1c473c0d055953e23117768abc23e",
      "transactionType": "CALL",
      "contractName": null,
      "contractAddress": "0x2dc205f24bcb6b311e5cdf0745b0741648aebd3d",
      "function": "createMorphoChainlinkOracleV2(address,uint256,address,address,uint256,address,uint256,address,address,uint256,bytes32)",
      "arguments": [
        "0x0000000000000000000000000000000000000000",
        "1",
        "0x806b4Ac04501c29769051e42783cF04dCE41440b",
        "0x71041dddad3595F9CEd3DcCFBe3D1F4b0a16Bb70",
        "18",
        "0x0000000000000000000000000000000000000000",
        "1",
        "0x0000000000000000000000000000000000000000",
        "0x0000000000000000000000000000000000000000",
        "18",
        "0x0000000000000000000000000000000000000000000000000000000000000000"
      ],
      "transaction": {
        "from": "0xa9bbbdde822789f123667044443dc7001fb43c01",
        "to": "0x2dc205f24bcb6b311e5cdf0745b0741648aebd3d",
        "gas": "0xd16f2",
        "value": "0x0",
        "input": "0xb32cddf400000000000000000000000000000000000000000000000000000000000000000000000000000000000000000000000000000000000000000000000000000001000000000000000000000000806b4ac04501c29769051e42783cf04dce41440b00000000000000000000000071041dddad3595f9ced3dccfbe3d1f4b0a16bb700000000000000000000000000000000000000000000000000000000000000012000000000000000000000000000000000000000000000000000000000000000000000000000000000000000000000000000000000000000000000000000000010000000000000000000000000000000000000000000000000000000000000000000000000000000000000000000000000000000000000000000000000000000000000000000000000000000000000000000000000000000000000000000000120000000000000000000000000000000000000000000000000000000000000000",
        "nonce": "0x13",
        "chainId": "0x2105"
      },
      "additionalContracts": [
        {
          "transactionType": "CREATE2",
          "address": "0x826943587ffdaa11c3bfd730644d6dc299e51278",
          "initCode": "0x6101a08060405234620002fa578062000f1e803803809162000022828562000331565b833961014092839181010312620002fa576200003e8162000355565b91602082015190620000536040840162000355565b90620000626060850162000355565b926080850151956200007760a0870162000355565b9060c0870151956200008c60e0890162000355565b95610100996200009e8b8b0162000355565b6101209a8b0151956001600160a01b0386811615801590620002ef575b620000d190620000ca6200036a565b90620003bf565b811615801590620002e4575b620000ec90620000ca6200036a565b8715956200015a6040516200010181620002ff565b601f8152620001397f7661756c7420636f6e76657273696f6e2073616d706c65206973207a65726f00918260208201528a15620003bf565b604051906200014882620002ff565b601f825260208201528d1515620003bf565b6080528760a05260c0528960e052828c52838b5288885261016098818a52602496870190818811620002cf57620001bd620001ca94620001c4620001bd95620001b6620001bd620001d19b9a97620001b6620001ca986200045b565b9062000429565b916200045b565b6200044d565b906200044d565b604d8111620002ba57600a0a868102968188041490151715620002a5576200029157506101809304835260405193610a269586620004f8873960805186818161014b0152610304015260a0518681816102e301526105b9015260c0518681816103ac0152610560015260e05186818161038b01526104f301525185818160d9015261032d0152518481816101b9015261035c0152518381816103d5015261049a01525182818161027f01526103fe01525181818161021201526104250152f35b634e487b7160e01b60009081526012600452fd5b50634e487b7160e01b60009081526011600452fd5b82634e487b7160e01b60005260116004526000fd5b87634e487b7160e01b60005260116004526000fd5b5060018b14620000dd565b5060018914620000bb565b600080fd5b604081019081106001600160401b038211176200031b57604052565b634e487b7160e01b600052604160045260246000fd5b601f909101601f19168101906001600160401b038211908210176200031b57604052565b51906001600160a01b0382168203620002fa57565b60405190606082016001600160401b038111838210176200031b5760405260228252616e6560f01b6040837f7661756c7420636f6e76657273696f6e2073616d706c65206973206e6f74206f60208201520152565b15620003c85750565b6040519062461bcd60e51b82528160208060048301528251908160248401526000935b8285106200040f575050604492506000838284010152601f80199101168101030190fd5b8481018201518686016044015293810193859350620003eb565b919082018092116200043757565b634e487b7160e01b600052601160045260246000fd5b919082039182116200043757565b6001600160a01b03168015620004f15760206004916040519283809263313ce56760e01b82525afa908115620004e5576000916200049b575b5060ff1690565b6020813d8211620004dc575b81620004b66020938362000331565b81010312620004d857519060ff82168203620004d5575060ff62000494565b80fd5b5080fd5b3d9150620004a7565b6040513d6000823e3d90fd5b5060009056fe60806040818152600436101561001457600080fd5b600091823560e01c908163054f7ac014610584575080632e6f20a614610516578063461739d2146104be57806356095e1114610450578063a035b1fe146102a3578063acfbd39e14610235578063ce4b5bbe146101dd578063dc53858c1461016f578063eaa2d7b4146101015763f50a47181461009057600080fd5b346100fd57817ffffffffffffffffffffffffffffffffffffffffffffffffffffffffffffffffc3601126100fd576020905173ffffffffffffffffffffffffffffffffffffffff7f0000000000000000000000000000000000000000000000000000000000000000168152f35b5080fd5b50346100fd57817ffffffffffffffffffffffffffffffffffffffffffffffffffffffffffffffffc3601126100fd576020905173ffffffffffffffffffffffffffffffffffffffff7f0000000000000000000000000000000000000000000000000000000000000000168152f35b50346100fd57817ffffffffffffffffffffffffffffffffffffffffffffffffffffffffffffffffc3601126100fd576020905173ffffffffffffffffffffffffffffffffffffffff7f0000000000000000000000000000000000000000000000000000000000000000168152f35b50346100fd57817ffffffffffffffffffffffffffffffffffffffffffffffffffffffffffffffffc3601126100fd57602090517f00000000000000000000000000000000000000000000000000000000000000008152f35b50346100fd57817ffffffffffffffffffffffffffffffffffffffffffffffffffffffffffffffffc3601126100fd576020905173ffffffffffffffffffffffffffffffffffffffff7f0000000000000000000000000000000000000000000000000000000000000000168152f35b50346100fd57817ffffffffffffffffffffffffffffffffffffffffffffffffffffffffffffffffc3601126100fd576020906104496103806103576103287f00000000000000000000000000000000000000000000000000000000000000007f000000000000000000000000000000000000000000000000000000000000000061094a565b6103517f00000000000000000000000000000000000000000000000000000000000000006107a5565b906105dc565b6103517f00000000000000000000000000000000000000000000000000000000000000006107a5565b6104226103f96103d07f00000000000000000000000000000000000000000000000000000000000000007f000000000000000000000000000000000000000000000000000000000000000061094a565b6103517f00000000000000000000000000000000000000000000000000000000000000006107a5565b6103517f00000000000000000000000000000000000000000000000000000000000000006107a5565b907f000000000000000000000000000000000000000000000000000000000000000061061e565b9051908152f35b50346100fd57817ffffffffffffffffffffffffffffffffffffffffffffffffffffffffffffffffc3601126100fd576020905173ffffffffffffffffffffffffffffffffffffffff7f0000000000000000000000000000000000000000000000000000000000000000168152f35b50346100fd57817ffffffffffffffffffffffffffffffffffffffffffffffffffffffffffffffffc3601126100fd57602090517f00000000000000000000000000000000000000000000000000000000000000008152f35b50346100fd57817ffffffffffffffffffffffffffffffffffffffffffffffffffffffffffffffffc3601126100fd576020905173ffffffffffffffffffffffffffffffffffffffff7f0000000000000000000000000000000000000000000000000000000000000000168152f35b8390346100fd57817ffffffffffffffffffffffffffffffffffffffffffffffffffffffffffffffffc3601126100fd576020907f00000000000000000000000000000000000000000000000000000000000000008152f35b818102929181159184041417156105ef57565b7f4e487b7100000000000000000000000000000000000000000000000000000000600052601160045260246000fd5b9091828202917fffffffffffffffffffffffffffffffffffffffffffffffffffffffffffffffff848209938380861095039480860395146106dc57848311156106b25782910981600003821680920460028082600302188083028203028083028203028083028203028083028203028083028203028092029003029360018380600003040190848311900302920304170290565b60046040517f227bc153000000000000000000000000000000000000000000000000000000008152fd5b5050809250156106ea570490565b7f4e487b7100000000000000000000000000000000000000000000000000000000600052601260045260246000fd5b90601f7fffffffffffffffffffffffffffffffffffffffffffffffffffffffffffffffe0910116810190811067ffffffffffffffff82111761075a57604052565b7f4e487b7100000000000000000000000000000000000000000000000000000000600052604160045260246000fd5b519069ffffffffffffffffffff821682036107a057565b600080fd5b73ffffffffffffffffffffffffffffffffffffffff1680156109445760049060a06040918251938480927ffeaf968c0000000000000000000000000000000000000000000000000000000082525afa918215610939576000926108e8575b50805181810181811067ffffffffffffffff82111761075a578252600f81526020917f6e6567617469766520616e73776572000000000000000000000000000000000083830152600084126108585750505090565b5180927f08c379a000000000000000000000000000000000000000000000000000000000825280600483015282519283602484015260005b8481106108d1575050507fffffffffffffffffffffffffffffffffffffffffffffffffffffffffffffffe0601f836000604480968601015201168101030190fd5b818101830151868201604401528593508201610890565b909160a0823d8211610931575b8161090260a09383610719565b8101031261092e575061091481610789565b50610926608060208301519201610789565b509038610803565b80fd5b3d91506108f5565b50513d6000823e3d90fd5b50600190565b73ffffffffffffffffffffffffffffffffffffffff169081156109e9576020906024604051809481937f07a2d13a00000000000000000000000000000000000000000000000000000000835260048301525afa9081156109dd576000916109af575090565b906020823d82116109d5575b816109c860209383610719565b8101031261092e57505190565b3d91506109bb565b6040513d6000823e3d90fd5b505060019056fea2646970667358221220de25ff8dd5708a691db44b0da1e6e734e7659c3f9a1801595bc1fa7bf902c00564736f6c6343000815003300000000000000000000000000000000000000000000000000000000000000000000000000000000000000000000000000000000000000000000000000000001000000000000000000000000806b4ac04501c29769051e42783cf04dce41440b00000000000000000000000071041dddad3595f9ced3dccfbe3d1f4b0a16bb70000000000000000000000000000000000000000000000000000000000000001200000000000000000000000000000000000000000000000000000000000000000000000000000000000000000000000000000000000000000000000000000001000000000000000000000000000000000000000000000000000000000000000000000000000000000000000000000000000000000000000000000000000000000000000000000000000000000000000000000000000000000000000000000012"
        }
      ],
      "isFixedGasLimit": false
    },
    {
      "hash": "0xa2324786bfd7f6e82b552977c49b286af6ce8bf7551accf95c9d2070780733e6",
      "transactionType": "CALL",
      "contractName": null,
      "contractAddress": "0xbbbbbbbbbb9cc5e90e3b3af64bdaf62c37eeffcb",
      "function": "createMarket((address,address,address,address,uint256))",
      "arguments": [
        "(0x0000206329b97DB379d5E1Bf586BbDB969C63274, 0x2Ae3F1Ec7F1F5012CFEab0185bfc7aa3cf0DEc22, 0x826943587FfdAA11c3BFd730644d6dc299E51278, 0x46415998764C29aB2a25CbeA6254146D50D22687, 860000000000000000)"
      ],
      "transaction": {
        "from": "0xa9bbbdde822789f123667044443dc7001fb43c01",
        "to": "0xbbbbbbbbbb9cc5e90e3b3af64bdaf62c37eeffcb",
        "gas": "0x42a17",
        "value": "0x0",
        "input": "0x8c1358a20000000000000000000000000000206329b97db379d5e1bf586bbdb969c632740000000000000000000000002ae3f1ec7f1f5012cfeab0185bfc7aa3cf0dec22000000000000000000000000826943587ffdaa11c3bfd730644d6dc299e5127800000000000000000000000046415998764c29ab2a25cbea6254146d50d226870000000000000000000000000000000000000000000000000bef55718ad60000",
        "nonce": "0x14",
        "chainId": "0x2105"
      },
      "additionalContracts": [],
      "isFixedGasLimit": false
    },
    {
      "hash": "0x241b522e2b4efea8b8d9c609b311a25c106f6a83df9043521079eda66a8ca58d",
      "transactionType": "CALL",
      "contractName": null,
      "contractAddress": "0x0000206329b97db379d5e1bf586bbdb969c63274",
      "function": "approve(address,uint256)",
      "arguments": [
        "0xBBBBBbbBBb9cC5e90e3b3Af64bdAF62C37EEFFCb",
        "1000000000000000000"
      ],
      "transaction": {
        "from": "0xa9bbbdde822789f123667044443dc7001fb43c01",
        "to": "0x0000206329b97db379d5e1bf586bbdb969c63274",
        "gas": "0x12025",
        "value": "0x0",
        "input": "0x095ea7b3000000000000000000000000bbbbbbbbbb9cc5e90e3b3af64bdaf62c37eeffcb0000000000000000000000000000000000000000000000000de0b6b3a7640000",
        "nonce": "0x15",
        "chainId": "0x2105"
      },
      "additionalContracts": [],
      "isFixedGasLimit": false
    },
    {
      "hash": "0x64568e7f18b7eb5b4f45f8218b0aca91a6b272ad6c899a808762a70e4cc8e433",
      "transactionType": "CALL",
      "contractName": null,
      "contractAddress": "0xbbbbbbbbbb9cc5e90e3b3af64bdaf62c37eeffcb",
      "function": "supply((address,address,address,address,uint256),uint256,uint256,address,bytes)",
      "arguments": [
        "(0x0000206329b97DB379d5E1Bf586BbDB969C63274, 0x2Ae3F1Ec7F1F5012CFEab0185bfc7aa3cf0DEc22, 0x826943587FfdAA11c3BFd730644d6dc299E51278, 0x46415998764C29aB2a25CbeA6254146D50D22687, 860000000000000000)",
        "1000000000000000000",
        "0",
        "0xa9bbbDDe822789F123667044443dc7001fb43C01",
        "0x"
      ],
      "transaction": {
        "from": "0xa9bbbdde822789f123667044443dc7001fb43c01",
        "to": "0xbbbbbbbbbb9cc5e90e3b3af64bdaf62c37eeffcb",
        "gas": "0x28766",
        "value": "0x0",
        "input": "0xa99aad890000000000000000000000000000206329b97db379d5e1bf586bbdb969c632740000000000000000000000002ae3f1ec7f1f5012cfeab0185bfc7aa3cf0dec22000000000000000000000000826943587ffdaa11c3bfd730644d6dc299e5127800000000000000000000000046415998764c29ab2a25cbea6254146d50d226870000000000000000000000000000000000000000000000000bef55718ad600000000000000000000000000000000000000000000000000000de0b6b3a76400000000000000000000000000000000000000000000000000000000000000000000000000000000000000000000a9bbbdde822789f123667044443dc7001fb43c0100000000000000000000000000000000000000000000000000000000000001200000000000000000000000000000000000000000000000000000000000000000",
        "nonce": "0x16",
        "chainId": "0x2105"
      },
      "additionalContracts": [],
      "isFixedGasLimit": false
    },
    {
      "hash": "0x135491a23c0901b32df1e3c3a28b14c5e9a23ff43d87c78329e74919d5d31345",
      "transactionType": "CALL",
      "contractName": null,
      "contractAddress": "0x2ae3f1ec7f1f5012cfeab0185bfc7aa3cf0dec22",
      "function": "approve(address,uint256)",
      "arguments": [
        "0xBBBBBbbBBb9cC5e90e3b3Af64bdAF62C37EEFFCb",
        "2000000000000000"
      ],
      "transaction": {
        "from": "0xa9bbbdde822789f123667044443dc7001fb43c01",
        "to": "0x2ae3f1ec7f1f5012cfeab0185bfc7aa3cf0dec22",
        "gas": "0x1143c",
        "value": "0x0",
        "input": "0x095ea7b3000000000000000000000000bbbbbbbbbb9cc5e90e3b3af64bdaf62c37eeffcb00000000000000000000000000000000000000000000000000071afd498d0000",
        "nonce": "0x17",
        "chainId": "0x2105"
      },
      "additionalContracts": [],
      "isFixedGasLimit": false
    },
    {
      "hash": "0xb4d801e3744bdb37deb2391cdb091ba9dd2511e2673af2797bb1ad8f667588f3",
      "transactionType": "CALL",
      "contractName": null,
      "contractAddress": "0xbbbbbbbbbb9cc5e90e3b3af64bdaf62c37eeffcb",
      "function": "supplyCollateral((address,address,address,address,uint256),uint256,address,bytes)",
      "arguments": [
        "(0x0000206329b97DB379d5E1Bf586BbDB969C63274, 0x2Ae3F1Ec7F1F5012CFEab0185bfc7aa3cf0DEc22, 0x826943587FfdAA11c3BFd730644d6dc299E51278, 0x46415998764C29aB2a25CbeA6254146D50D22687, 860000000000000000)",
        "2000000000000000",
        "0xa9bbbDDe822789F123667044443dc7001fb43C01",
        "0x"
      ],
      "transaction": {
        "from": "0xa9bbbdde822789f123667044443dc7001fb43c01",
        "to": "0xbbbbbbbbbb9cc5e90e3b3af64bdaf62c37eeffcb",
        "gas": "0x19b15",
        "value": "0x0",
        "input": "0x238d65790000000000000000000000000000206329b97db379d5e1bf586bbdb969c632740000000000000000000000002ae3f1ec7f1f5012cfeab0185bfc7aa3cf0dec22000000000000000000000000826943587ffdaa11c3bfd730644d6dc299e5127800000000000000000000000046415998764c29ab2a25cbea6254146d50d226870000000000000000000000000000000000000000000000000bef55718ad6000000000000000000000000000000000000000000000000000000071afd498d0000000000000000000000000000a9bbbdde822789f123667044443dc7001fb43c0100000000000000000000000000000000000000000000000000000000000001000000000000000000000000000000000000000000000000000000000000000000",
        "nonce": "0x18",
        "chainId": "0x2105"
      },
      "additionalContracts": [],
      "isFixedGasLimit": false
    },
    {
      "hash": "0x856aab6bae28b9051043482e16e52a1bc0128522f50a40d59619baf4287c18bc",
      "transactionType": "CALL",
      "contractName": null,
      "contractAddress": "0xbbbbbbbbbb9cc5e90e3b3af64bdaf62c37eeffcb",
      "function": "borrow((address,address,address,address,uint256),uint256,uint256,address,address)",
      "arguments": [
        "(0x0000206329b97DB379d5E1Bf586BbDB969C63274, 0x2Ae3F1Ec7F1F5012CFEab0185bfc7aa3cf0DEc22, 0x826943587FfdAA11c3BFd730644d6dc299E51278, 0x46415998764C29aB2a25CbeA6254146D50D22687, 860000000000000000)",
        "900000000000000000",
        "0",
        "0xa9bbbDDe822789F123667044443dc7001fb43C01",
        "0xa9bbbDDe822789F123667044443dc7001fb43C01"
      ],
      "transaction": {
        "from": "0xa9bbbdde822789f123667044443dc7001fb43c01",
        "to": "0xbbbbbbbbbb9cc5e90e3b3af64bdaf62c37eeffcb",
        "gas": "0x2bd4f",
        "value": "0x0",
        "input": "0x50d8cd4b0000000000000000000000000000206329b97db379d5e1bf586bbdb969c632740000000000000000000000002ae3f1ec7f1f5012cfeab0185bfc7aa3cf0dec22000000000000000000000000826943587ffdaa11c3bfd730644d6dc299e5127800000000000000000000000046415998764c29ab2a25cbea6254146d50d226870000000000000000000000000000000000000000000000000bef55718ad600000000000000000000000000000000000000000000000000000c7d713b49da00000000000000000000000000000000000000000000000000000000000000000000000000000000000000000000a9bbbdde822789f123667044443dc7001fb43c01000000000000000000000000a9bbbdde822789f123667044443dc7001fb43c01",
        "nonce": "0x19",
        "chainId": "0x2105"
      },
      "additionalContracts": [],
      "isFixedGasLimit": false
    },
    {
      "hash": "0xa8e8b2ccbad36f5e052973db069724a80885ec4d342bb873e5d83d5680099c47",
      "transactionType": "CALL",
      "contractName": null,
      "contractAddress": "0xbbbbbbbbbb9cc5e90e3b3af64bdaf62c37eeffcb",
      "function": "createMarket((address,address,address,address,uint256))",
      "arguments": [
        "(0x0000206329b97DB379d5E1Bf586BbDB969C63274, 0x2416092f143378750bb29b79eD961ab195CcEea5, 0x4B5086653F9db675df31a618971e0EC26f6f081F, 0x46415998764C29aB2a25CbeA6254146D50D22687, 860000000000000000)"
      ],
      "transaction": {
        "from": "0xa9bbbdde822789f123667044443dc7001fb43c01",
        "to": "0xbbbbbbbbbb9cc5e90e3b3af64bdaf62c37eeffcb",
        "gas": "0x42a17",
        "value": "0x0",
        "input": "0x8c1358a20000000000000000000000000000206329b97db379d5e1bf586bbdb969c632740000000000000000000000002416092f143378750bb29b79ed961ab195cceea50000000000000000000000004b5086653f9db675df31a618971e0ec26f6f081f00000000000000000000000046415998764c29ab2a25cbea6254146d50d226870000000000000000000000000000000000000000000000000bef55718ad60000",
        "nonce": "0x1a",
        "chainId": "0x2105"
      },
      "additionalContracts": [],
      "isFixedGasLimit": false
    },
    {
      "hash": "0x337af0c05f0b3341c21acb0b92213dbba8f1a792f7cce4fc619d2c573a0d51fb",
      "transactionType": "CALL",
      "contractName": null,
      "contractAddress": "0x0000206329b97db379d5e1bf586bbdb969c63274",
      "function": "approve(address,uint256)",
      "arguments": [
        "0xBBBBBbbBBb9cC5e90e3b3Af64bdAF62C37EEFFCb",
        "1000000000000000000"
      ],
      "transaction": {
        "from": "0xa9bbbdde822789f123667044443dc7001fb43c01",
        "to": "0x0000206329b97db379d5e1bf586bbdb969c63274",
        "gas": "0x12025",
        "value": "0x0",
        "input": "0x095ea7b3000000000000000000000000bbbbbbbbbb9cc5e90e3b3af64bdaf62c37eeffcb0000000000000000000000000000000000000000000000000de0b6b3a7640000",
        "nonce": "0x1b",
        "chainId": "0x2105"
      },
      "additionalContracts": [],
      "isFixedGasLimit": false
    },
    {
      "hash": "0x9c2aabf64903fe9f8aa0554faddba3a9878d5a2ea1471fef0e0e10505208e1b7",
      "transactionType": "CALL",
      "contractName": null,
      "contractAddress": "0xbbbbbbbbbb9cc5e90e3b3af64bdaf62c37eeffcb",
      "function": "supply((address,address,address,address,uint256),uint256,uint256,address,bytes)",
      "arguments": [
        "(0x0000206329b97DB379d5E1Bf586BbDB969C63274, 0x2416092f143378750bb29b79eD961ab195CcEea5, 0x4B5086653F9db675df31a618971e0EC26f6f081F, 0x46415998764C29aB2a25CbeA6254146D50D22687, 860000000000000000)",
        "1000000000000000000",
        "0",
        "0xa9bbbDDe822789F123667044443dc7001fb43C01",
        "0x"
      ],
      "transaction": {
        "from": "0xa9bbbdde822789f123667044443dc7001fb43c01",
        "to": "0xbbbbbbbbbb9cc5e90e3b3af64bdaf62c37eeffcb",
        "gas": "0x24bcb",
        "value": "0x0",
        "input": "0xa99aad890000000000000000000000000000206329b97db379d5e1bf586bbdb969c632740000000000000000000000002416092f143378750bb29b79ed961ab195cceea50000000000000000000000004b5086653f9db675df31a618971e0ec26f6f081f00000000000000000000000046415998764c29ab2a25cbea6254146d50d226870000000000000000000000000000000000000000000000000bef55718ad600000000000000000000000000000000000000000000000000000de0b6b3a76400000000000000000000000000000000000000000000000000000000000000000000000000000000000000000000a9bbbdde822789f123667044443dc7001fb43c0100000000000000000000000000000000000000000000000000000000000001200000000000000000000000000000000000000000000000000000000000000000",
        "nonce": "0x1c",
        "chainId": "0x2105"
      },
      "additionalContracts": [],
      "isFixedGasLimit": false
    },
    {
      "hash": "0xeedcf47f18b42dcca7bf9ff8c5587df4c469615b15c73628fb62fccc6fb78403",
      "transactionType": "CALL",
      "contractName": null,
      "contractAddress": "0x2416092f143378750bb29b79ed961ab195cceea5",
      "function": "approve(address,uint256)",
      "arguments": [
        "0xBBBBBbbBBb9cC5e90e3b3Af64bdAF62C37EEFFCb",
        "2000000000000000"
      ],
      "transaction": {
        "from": "0xa9bbbdde822789f123667044443dc7001fb43c01",
        "to": "0x2416092f143378750bb29b79ed961ab195cceea5",
        "gas": "0x13166",
        "value": "0x0",
        "input": "0x095ea7b3000000000000000000000000bbbbbbbbbb9cc5e90e3b3af64bdaf62c37eeffcb00000000000000000000000000000000000000000000000000071afd498d0000",
        "nonce": "0x1d",
        "chainId": "0x2105"
      },
      "additionalContracts": [],
      "isFixedGasLimit": false
    },
    {
      "hash": "0xb70eb8779ddcb0e0bcebde4377f0e1ef6cb383bb40b1a145c08438afa0134e94",
      "transactionType": "CALL",
      "contractName": null,
      "contractAddress": "0xbbbbbbbbbb9cc5e90e3b3af64bdaf62c37eeffcb",
      "function": "supplyCollateral((address,address,address,address,uint256),uint256,address,bytes)",
      "arguments": [
        "(0x0000206329b97DB379d5E1Bf586BbDB969C63274, 0x2416092f143378750bb29b79eD961ab195CcEea5, 0x4B5086653F9db675df31a618971e0EC26f6f081F, 0x46415998764C29aB2a25CbeA6254146D50D22687, 860000000000000000)",
        "2000000000000000",
        "0xa9bbbDDe822789F123667044443dc7001fb43C01",
        "0x"
      ],
      "transaction": {
        "from": "0xa9bbbdde822789f123667044443dc7001fb43c01",
        "to": "0xbbbbbbbbbb9cc5e90e3b3af64bdaf62c37eeffcb",
        "gas": "0x1c071",
        "value": "0x0",
        "input": "0x238d65790000000000000000000000000000206329b97db379d5e1bf586bbdb969c632740000000000000000000000002416092f143378750bb29b79ed961ab195cceea50000000000000000000000004b5086653f9db675df31a618971e0ec26f6f081f00000000000000000000000046415998764c29ab2a25cbea6254146d50d226870000000000000000000000000000000000000000000000000bef55718ad6000000000000000000000000000000000000000000000000000000071afd498d0000000000000000000000000000a9bbbdde822789f123667044443dc7001fb43c0100000000000000000000000000000000000000000000000000000000000001000000000000000000000000000000000000000000000000000000000000000000",
        "nonce": "0x1e",
        "chainId": "0x2105"
      },
      "additionalContracts": [],
      "isFixedGasLimit": false
    },
    {
      "hash": "0xcc7e662c481abaf2384c4120af62017da69b1c0168495c0ca78129e4af081374",
      "transactionType": "CALL",
      "contractName": null,
      "contractAddress": "0xbbbbbbbbbb9cc5e90e3b3af64bdaf62c37eeffcb",
      "function": "borrow((address,address,address,address,uint256),uint256,uint256,address,address)",
      "arguments": [
        "(0x0000206329b97DB379d5E1Bf586BbDB969C63274, 0x2416092f143378750bb29b79eD961ab195CcEea5, 0x4B5086653F9db675df31a618971e0EC26f6f081F, 0x46415998764C29aB2a25CbeA6254146D50D22687, 860000000000000000)",
        "900000000000000000",
        "0",
        "0xa9bbbDDe822789F123667044443dc7001fb43C01",
        "0xa9bbbDDe822789F123667044443dc7001fb43C01"
      ],
      "transaction": {
        "from": "0xa9bbbdde822789f123667044443dc7001fb43c01",
        "to": "0xbbbbbbbbbb9cc5e90e3b3af64bdaf62c37eeffcb",
        "gas": "0x2bd4f",
        "value": "0x0",
        "input": "0x50d8cd4b0000000000000000000000000000206329b97db379d5e1bf586bbdb969c632740000000000000000000000002416092f143378750bb29b79ed961ab195cceea50000000000000000000000004b5086653f9db675df31a618971e0ec26f6f081f00000000000000000000000046415998764c29ab2a25cbea6254146d50d226870000000000000000000000000000000000000000000000000bef55718ad600000000000000000000000000000000000000000000000000000c7d713b49da00000000000000000000000000000000000000000000000000000000000000000000000000000000000000000000a9bbbdde822789f123667044443dc7001fb43c01000000000000000000000000a9bbbdde822789f123667044443dc7001fb43c01",
        "nonce": "0x1f",
        "chainId": "0x2105"
      },
      "additionalContracts": [],
      "isFixedGasLimit": false
    },
    {
      "hash": "0x5250c36999550591f53ddbb1f6e773bebef16879c02079c76345190645ec0db9",
      "transactionType": "CALL",
      "contractName": null,
      "contractAddress": "0xbbbbbbbbbb9cc5e90e3b3af64bdaf62c37eeffcb",
      "function": "createMarket((address,address,address,address,uint256))",
      "arguments": [
        "(0x0000206329b97DB379d5E1Bf586BbDB969C63274, 0xc1CBa3fCea344f92D9239c08C0568f6F2F0ee452, 0x040ba460Ed355833a0693348421C7f1fd831D0c7, 0x46415998764C29aB2a25CbeA6254146D50D22687, 860000000000000000)"
      ],
      "transaction": {
        "from": "0xa9bbbdde822789f123667044443dc7001fb43c01",
        "to": "0xbbbbbbbbbb9cc5e90e3b3af64bdaf62c37eeffcb",
        "gas": "0x42a17",
        "value": "0x0",
        "input": "0x8c1358a20000000000000000000000000000206329b97db379d5e1bf586bbdb969c63274000000000000000000000000c1cba3fcea344f92d9239c08c0568f6f2f0ee452000000000000000000000000040ba460ed355833a0693348421c7f1fd831d0c700000000000000000000000046415998764c29ab2a25cbea6254146d50d226870000000000000000000000000000000000000000000000000bef55718ad60000",
        "nonce": "0x20",
        "chainId": "0x2105"
      },
      "additionalContracts": [],
      "isFixedGasLimit": false
    },
    {
      "hash": "0x32c86c9b7ea052f32394029959824bcab18e50075af2694c5529d129430a6b63",
      "transactionType": "CALL",
      "contractName": null,
      "contractAddress": "0x0000206329b97db379d5e1bf586bbdb969c63274",
      "function": "approve(address,uint256)",
      "arguments": [
        "0xBBBBBbbBBb9cC5e90e3b3Af64bdAF62C37EEFFCb",
        "1000000000000000000"
      ],
      "transaction": {
        "from": "0xa9bbbdde822789f123667044443dc7001fb43c01",
        "to": "0x0000206329b97db379d5e1bf586bbdb969c63274",
        "gas": "0x12025",
        "value": "0x0",
        "input": "0x095ea7b3000000000000000000000000bbbbbbbbbb9cc5e90e3b3af64bdaf62c37eeffcb0000000000000000000000000000000000000000000000000de0b6b3a7640000",
        "nonce": "0x21",
        "chainId": "0x2105"
      },
      "additionalContracts": [],
      "isFixedGasLimit": false
    },
    {
      "hash": "0xbf78e12b7c9681d4f2351023e3b3f24d054243a199f280146a56c857af5e810f",
      "transactionType": "CALL",
      "contractName": null,
      "contractAddress": "0xbbbbbbbbbb9cc5e90e3b3af64bdaf62c37eeffcb",
      "function": "supply((address,address,address,address,uint256),uint256,uint256,address,bytes)",
      "arguments": [
        "(0x0000206329b97DB379d5E1Bf586BbDB969C63274, 0xc1CBa3fCea344f92D9239c08C0568f6F2F0ee452, 0x040ba460Ed355833a0693348421C7f1fd831D0c7, 0x46415998764C29aB2a25CbeA6254146D50D22687, 860000000000000000)",
        "1000000000000000000",
        "0",
        "0xa9bbbDDe822789F123667044443dc7001fb43C01",
        "0x"
      ],
      "transaction": {
        "from": "0xa9bbbdde822789f123667044443dc7001fb43c01",
        "to": "0xbbbbbbbbbb9cc5e90e3b3af64bdaf62c37eeffcb",
        "gas": "0x24bcb",
        "value": "0x0",
        "input": "0xa99aad890000000000000000000000000000206329b97db379d5e1bf586bbdb969c63274000000000000000000000000c1cba3fcea344f92d9239c08c0568f6f2f0ee452000000000000000000000000040ba460ed355833a0693348421c7f1fd831d0c700000000000000000000000046415998764c29ab2a25cbea6254146d50d226870000000000000000000000000000000000000000000000000bef55718ad600000000000000000000000000000000000000000000000000000de0b6b3a76400000000000000000000000000000000000000000000000000000000000000000000000000000000000000000000a9bbbdde822789f123667044443dc7001fb43c0100000000000000000000000000000000000000000000000000000000000001200000000000000000000000000000000000000000000000000000000000000000",
        "nonce": "0x22",
        "chainId": "0x2105"
      },
      "additionalContracts": [],
      "isFixedGasLimit": false
    },
    {
      "hash": "0x0daa710fb288c97e24a969e8b7062912ad74a7856c389dd3c263bac8bb1707c8",
      "transactionType": "CALL",
      "contractName": null,
      "contractAddress": "0xc1cba3fcea344f92d9239c08c0568f6f2f0ee452",
      "function": "approve(address,uint256)",
      "arguments": [
        "0xBBBBBbbBBb9cC5e90e3b3Af64bdAF62C37EEFFCb",
        "2000000000000000"
      ],
      "transaction": {
        "from": "0xa9bbbdde822789f123667044443dc7001fb43c01",
        "to": "0xc1cba3fcea344f92d9239c08c0568f6f2f0ee452",
        "gas": "0x124ed",
        "value": "0x0",
        "input": "0x095ea7b3000000000000000000000000bbbbbbbbbb9cc5e90e3b3af64bdaf62c37eeffcb00000000000000000000000000000000000000000000000000071afd498d0000",
        "nonce": "0x23",
        "chainId": "0x2105"
      },
      "additionalContracts": [],
      "isFixedGasLimit": false
    },
    {
      "hash": "0x31fcb171cd9cc12fc5841474c909e3613ef848946e76ecd3525bbed4ef4b904f",
      "transactionType": "CALL",
      "contractName": null,
      "contractAddress": "0xbbbbbbbbbb9cc5e90e3b3af64bdaf62c37eeffcb",
      "function": "supplyCollateral((address,address,address,address,uint256),uint256,address,bytes)",
      "arguments": [
        "(0x0000206329b97DB379d5E1Bf586BbDB969C63274, 0xc1CBa3fCea344f92D9239c08C0568f6F2F0ee452, 0x040ba460Ed355833a0693348421C7f1fd831D0c7, 0x46415998764C29aB2a25CbeA6254146D50D22687, 860000000000000000)",
        "2000000000000000",
        "0xa9bbbDDe822789F123667044443dc7001fb43C01",
        "0x"
      ],
      "transaction": {
        "from": "0xa9bbbdde822789f123667044443dc7001fb43c01",
        "to": "0xbbbbbbbbbb9cc5e90e3b3af64bdaf62c37eeffcb",
        "gas": "0x1b3ed",
        "value": "0x0",
        "input": "0x238d65790000000000000000000000000000206329b97db379d5e1bf586bbdb969c63274000000000000000000000000c1cba3fcea344f92d9239c08c0568f6f2f0ee452000000000000000000000000040ba460ed355833a0693348421c7f1fd831d0c700000000000000000000000046415998764c29ab2a25cbea6254146d50d226870000000000000000000000000000000000000000000000000bef55718ad6000000000000000000000000000000000000000000000000000000071afd498d0000000000000000000000000000a9bbbdde822789f123667044443dc7001fb43c0100000000000000000000000000000000000000000000000000000000000001000000000000000000000000000000000000000000000000000000000000000000",
        "nonce": "0x24",
        "chainId": "0x2105"
      },
      "additionalContracts": [],
      "isFixedGasLimit": false
    },
    {
      "hash": "0xd4a4a43a8de21ec9a7c69588164e19174228e927a07fe2db7584e700ae05f01a",
      "transactionType": "CALL",
      "contractName": null,
      "contractAddress": "0xbbbbbbbbbb9cc5e90e3b3af64bdaf62c37eeffcb",
      "function": "borrow((address,address,address,address,uint256),uint256,uint256,address,address)",
      "arguments": [
        "(0x0000206329b97DB379d5E1Bf586BbDB969C63274, 0xc1CBa3fCea344f92D9239c08C0568f6F2F0ee452, 0x040ba460Ed355833a0693348421C7f1fd831D0c7, 0x46415998764C29aB2a25CbeA6254146D50D22687, 860000000000000000)",
        "900000000000000000",
        "0",
        "0xa9bbbDDe822789F123667044443dc7001fb43C01",
        "0xa9bbbDDe822789F123667044443dc7001fb43C01"
      ],
      "transaction": {
        "from": "0xa9bbbdde822789f123667044443dc7001fb43c01",
        "to": "0xbbbbbbbbbb9cc5e90e3b3af64bdaf62c37eeffcb",
        "gas": "0x2e853",
        "value": "0x0",
        "input": "0x50d8cd4b0000000000000000000000000000206329b97db379d5e1bf586bbdb969c63274000000000000000000000000c1cba3fcea344f92d9239c08c0568f6f2f0ee452000000000000000000000000040ba460ed355833a0693348421c7f1fd831d0c700000000000000000000000046415998764c29ab2a25cbea6254146d50d226870000000000000000000000000000000000000000000000000bef55718ad600000000000000000000000000000000000000000000000000000c7d713b49da00000000000000000000000000000000000000000000000000000000000000000000000000000000000000000000a9bbbdde822789f123667044443dc7001fb43c01000000000000000000000000a9bbbdde822789f123667044443dc7001fb43c01",
        "nonce": "0x25",
        "chainId": "0x2105"
      },
      "additionalContracts": [],
      "isFixedGasLimit": false
    }
  ],
  "receipts": [
    {
      "status": "0x1",
      "cumulativeGasUsed": "0x98b1ff",
      "logs": [
        {
          "address": "0x2dc205f24bcb6b311e5cdf0745b0741648aebd3d",
          "topics": [
            "0x6436acb89463dbc9036f1e52aebf32ac0bf5f69e3987c067110c3ac403ebda33"
          ],
          "data": "0x000000000000000000000000a9bbbdde822789f123667044443dc7001fb43c01000000000000000000000000826943587ffdaa11c3bfd730644d6dc299e51278",
          "blockHash": "0xe60151a27aabee5baadd60a1e43ec327e8e99355e410a47cfa53b98f9e41c743",
          "blockNumber": "0xf4443a",
          "transactionHash": "0xef5b493a07a9f11b6eebd18be98590e8c6f1c473c0d055953e23117768abc23e",
          "transactionIndex": "0x36",
          "logIndex": "0xb7",
          "removed": false
        }
      ],
      "logsBloom": "0x00000000000000000000000000000000000000000000000000000000000200000000000000000000000000000000000000000000000000000000000000000000000000000000000000000000000000000000000000000000000000000000000000000000000000000000000000000000000000000000000000000000000000000000000000000000000000000000000000002000000000000000000000000000000000000000000000000000000000000000000000000000000000000000000000000000000000000000004000000000000000000000000000000000000000000000000000000080000000002000000000000040000000000000000000000000",
      "type": "0x2",
      "transactionHash": "0xef5b493a07a9f11b6eebd18be98590e8c6f1c473c0d055953e23117768abc23e",
      "transactionIndex": "0x36",
      "blockHash": "0xe60151a27aabee5baadd60a1e43ec327e8e99355e410a47cfa53b98f9e41c743",
      "blockNumber": "0xf4443a",
      "gasUsed": "0x97a07",
      "effectiveGasPrice": "0x157ab00",
      "from": "0xa9bbbdde822789f123667044443dc7001fb43c01",
      "to": "0x2dc205f24bcb6b311e5cdf0745b0741648aebd3d",
      "contractAddress": null,
      "l1Fee": "0x972bb916e",
      "l1GasPrice": "0x23e7d81a6",
      "l1GasUsed": "0xef0"
    },
    {
      "status": "0x1",
      "cumulativeGasUsed": "0x114d4be",
      "logs": [
        {
          "address": "0xbbbbbbbbbb9cc5e90e3b3af64bdaf62c37eeffcb",
          "topics": [
            "0xac4b2400f169220b0c0afdde7a0b32e775ba727ea1cb30b35f935cdaab8683ac",
            "0xfba4338b51c9d9b00023dd66a7e62a2d58b815ca15a998b49771591a815a41b2"
          ],
          "data": "0x0000000000000000000000000000206329b97db379d5e1bf586bbdb969c632740000000000000000000000002ae3f1ec7f1f5012cfeab0185bfc7aa3cf0dec22000000000000000000000000826943587ffdaa11c3bfd730644d6dc299e5127800000000000000000000000046415998764c29ab2a25cbea6254146d50d226870000000000000000000000000000000000000000000000000bef55718ad60000",
          "blockHash": "0x9eeebbfcf93324e53ff8b6f9df825e46d5186c728ed55aa482907c497f5958c8",
          "blockNumber": "0xf4443e",
          "transactionHash": "0xa2324786bfd7f6e82b552977c49b286af6ce8bf7551accf95c9d2070780733e6",
          "transactionIndex": "0x48",
          "logIndex": "0x1eb",
          "removed": false
        },
        {
          "address": "0x46415998764c29ab2a25cbea6254146d50d22687",
          "topics": [
            "0x7120161a7b3d31251e01294ab351ef15a41b91659a36032e4641bb89b121e321",
            "0xfba4338b51c9d9b00023dd66a7e62a2d58b815ca15a998b49771591a815a41b2"
          ],
          "data": "0x0000000000000000000000000000000000000000000000000000000012e687bf000000000000000000000000000000000000000000000000000000004b9a1eff",
          "blockHash": "0x9eeebbfcf93324e53ff8b6f9df825e46d5186c728ed55aa482907c497f5958c8",
          "blockNumber": "0xf4443e",
          "transactionHash": "0xa2324786bfd7f6e82b552977c49b286af6ce8bf7551accf95c9d2070780733e6",
          "transactionIndex": "0x48",
          "logIndex": "0x1ec",
          "removed": false
        }
      ],
      "logsBloom": "0x00000000000000000000000000000800000000000000000000000000000000000000000000000100000000000000000000000000000000000000000000804000000000000010000000000000000000000000000000000000000000000000000000000000000000002000000000000000000000000000000000000040000000000000000000000008000000000000000000000000000000000008000000000000000000000000000000000000000000000000000000000000000000000000000020000000000008000000000000000000000140000000000000000000000000000000000000000000000000000001000000000000000000000000000000000010",
      "type": "0x2",
      "transactionHash": "0xa2324786bfd7f6e82b552977c49b286af6ce8bf7551accf95c9d2070780733e6",
      "transactionIndex": "0x48",
      "blockHash": "0x9eeebbfcf93324e53ff8b6f9df825e46d5186c728ed55aa482907c497f5958c8",
      "blockNumber": "0xf4443e",
      "gasUsed": "0x303d5",
      "effectiveGasPrice": "0x157a10f",
      "from": "0xa9bbbdde822789f123667044443dc7001fb43c01",
      "to": "0xbbbbbbbbbb9cc5e90e3b3af64bdaf62c37eeffcb",
      "contractAddress": null,
      "l1Fee": "0x85c87c8df",
      "l1GasPrice": "0x228522187",
      "l1GasUsed": "0xdc0"
    },
    {
      "status": "0x1",
      "cumulativeGasUsed": "0x1163476",
      "logs": [
        {
          "address": "0x0000206329b97db379d5e1bf586bbdb969c63274",
          "topics": [
            "0x8c5be1e5ebec7d5bd14f71427d1e84f3dd0314c0f7b2291e5b200ac8c7c3b925",
            "0x000000000000000000000000a9bbbdde822789f123667044443dc7001fb43c01",
            "0x000000000000000000000000bbbbbbbbbb9cc5e90e3b3af64bdaf62c37eeffcb"
          ],
          "data": "0x0000000000000000000000000000000000000000000000000de0b6b3a7640000",
          "blockHash": "0xfb79cdcd14af9cf5f23deb63bb6e781b0ab618a55fe40389a3eef292aacaab5c",
          "blockNumber": "0xf44442",
          "transactionHash": "0x241b522e2b4efea8b8d9c609b311a25c106f6a83df9043521079eda66a8ca58d",
          "transactionIndex": "0x5e",
          "logIndex": "0x1ba",
          "removed": false
        }
      ],
      "logsBloom": "0x00000000000000000000000000000080000000000000000000000008000000000000000000000000000000000000000000008000000000000000000000200000000000000000000000000000000004000000000000000000000002000000000000000000000000000000000000000000000000000000000000000000000000000000000000000000000000000000000000000000000000000000000000000000020000000000000000000000000000000000000000000000000000000000000000000000000000000000000000000000000000004000000000000000000000000010000001000000000000200000000000000000000000000000000000004000",
      "type": "0x2",
      "transactionHash": "0x241b522e2b4efea8b8d9c609b311a25c106f6a83df9043521079eda66a8ca58d",
      "transactionIndex": "0x5e",
      "blockHash": "0xfb79cdcd14af9cf5f23deb63bb6e781b0ab618a55fe40389a3eef292aacaab5c",
      "blockNumber": "0xf44442",
      "gasUsed": "0xd09e",
      "effectiveGasPrice": "0x157ec8d",
      "from": "0xa9bbbdde822789f123667044443dc7001fb43c01",
      "to": "0x0000206329b97db379d5e1bf586bbdb969c63274",
      "contractAddress": null,
      "l1Fee": "0x5b373da69",
      "l1GasPrice": "0x228522187",
      "l1GasUsed": "0x960"
    },
    {
      "status": "0x1",
      "cumulativeGasUsed": "0xe24a3c",
      "logs": [
        {
          "address": "0x46415998764c29ab2a25cbea6254146d50d22687",
          "topics": [
            "0x7120161a7b3d31251e01294ab351ef15a41b91659a36032e4641bb89b121e321",
            "0xfba4338b51c9d9b00023dd66a7e62a2d58b815ca15a998b49771591a815a41b2"
          ],
          "data": "0x0000000000000000000000000000000000000000000000000000000012e67809000000000000000000000000000000000000000000000000000000004b99a14f",
          "blockHash": "0x7b785d9c46332f47eaacf32dbc943240942d72287ff4ed2883ce1546d7076417",
          "blockNumber": "0xf44446",
          "transactionHash": "0x64568e7f18b7eb5b4f45f8218b0aca91a6b272ad6c899a808762a70e4cc8e433",
          "transactionIndex": "0x42",
          "logIndex": "0x107",
          "removed": false
        },
        {
          "address": "0xbbbbbbbbbb9cc5e90e3b3af64bdaf62c37eeffcb",
          "topics": [
            "0x9d9bd501d0657d7dfe415f779a620a62b78bc508ddc0891fbbd8b7ac0f8fce87",
            "0xfba4338b51c9d9b00023dd66a7e62a2d58b815ca15a998b49771591a815a41b2"
          ],
          "data": "0x0000000000000000000000000000000000000000000000000000000012e6780900000000000000000000000000000000000000000000000000000000000000000000000000000000000000000000000000000000000000000000000000000000",
          "blockHash": "0x7b785d9c46332f47eaacf32dbc943240942d72287ff4ed2883ce1546d7076417",
          "blockNumber": "0xf44446",
          "transactionHash": "0x64568e7f18b7eb5b4f45f8218b0aca91a6b272ad6c899a808762a70e4cc8e433",
          "transactionIndex": "0x42",
          "logIndex": "0x108",
          "removed": false
        },
        {
          "address": "0xbbbbbbbbbb9cc5e90e3b3af64bdaf62c37eeffcb",
          "topics": [
            "0xedf8870433c83823eb071d3df1caa8d008f12f6440918c20d75a3602cda30fe0",
            "0xfba4338b51c9d9b00023dd66a7e62a2d58b815ca15a998b49771591a815a41b2",
            "0x000000000000000000000000a9bbbdde822789f123667044443dc7001fb43c01",
            "0x000000000000000000000000a9bbbdde822789f123667044443dc7001fb43c01"
          ],
          "data": "0x0000000000000000000000000000000000000000000000000de0b6b3a764000000000000000000000000000000000000000000000000d3c21bcecceda1000000",
          "blockHash": "0x7b785d9c46332f47eaacf32dbc943240942d72287ff4ed2883ce1546d7076417",
          "blockNumber": "0xf44446",
          "transactionHash": "0x64568e7f18b7eb5b4f45f8218b0aca91a6b272ad6c899a808762a70e4cc8e433",
          "transactionIndex": "0x42",
          "logIndex": "0x109",
          "removed": false
        },
        {
          "address": "0x0000206329b97db379d5e1bf586bbdb969c63274",
          "topics": [
            "0x8c5be1e5ebec7d5bd14f71427d1e84f3dd0314c0f7b2291e5b200ac8c7c3b925",
            "0x000000000000000000000000a9bbbdde822789f123667044443dc7001fb43c01",
            "0x000000000000000000000000bbbbbbbbbb9cc5e90e3b3af64bdaf62c37eeffcb"
          ],
          "data": "0x0000000000000000000000000000000000000000000000000000000000000000",
          "blockHash": "0x7b785d9c46332f47eaacf32dbc943240942d72287ff4ed2883ce1546d7076417",
          "blockNumber": "0xf44446",
          "transactionHash": "0x64568e7f18b7eb5b4f45f8218b0aca91a6b272ad6c899a808762a70e4cc8e433",
          "transactionIndex": "0x42",
          "logIndex": "0x10a",
          "removed": false
        },
        {
          "address": "0x0000206329b97db379d5e1bf586bbdb969c63274",
          "topics": [
            "0xddf252ad1be2c89b69c2b068fc378daa952ba7f163c4a11628f55a4df523b3ef",
            "0x000000000000000000000000a9bbbdde822789f123667044443dc7001fb43c01",
            "0x000000000000000000000000bbbbbbbbbb9cc5e90e3b3af64bdaf62c37eeffcb"
          ],
          "data": "0x0000000000000000000000000000000000000000000000000de0b6b3a7640000",
          "blockHash": "0x7b785d9c46332f47eaacf32dbc943240942d72287ff4ed2883ce1546d7076417",
          "blockNumber": "0xf44446",
          "transactionHash": "0x64568e7f18b7eb5b4f45f8218b0aca91a6b272ad6c899a808762a70e4cc8e433",
          "transactionIndex": "0x42",
          "logIndex": "0x10b",
          "removed": false
        }
      ],
      "logsBloom": "0x00000000000000000000000000000080000000000000000000000008000000000000400000000100000000000000000000008000000000000000000020a04000000000000010000000000008800004000000000800000000000002080000000000000000000000002000000000000000000000000000000000000010000000000000000000000008000000000000000000000000000000000008000000000000020000000000000000000000000000000000000000000000000000000000000020000002000008000000000000000000000140004000000000000000000000400010000001000000000000200001000000000000000000000000000000004000",
      "type": "0x2",
      "transactionHash": "0x64568e7f18b7eb5b4f45f8218b0aca91a6b272ad6c899a808762a70e4cc8e433",
      "transactionIndex": "0x42",
      "blockHash": "0x7b785d9c46332f47eaacf32dbc943240942d72287ff4ed2883ce1546d7076417",
      "blockNumber": "0xf44446",
      "gasUsed": "0x22e03",
      "effectiveGasPrice": "0x15916f0",
      "from": "0xa9bbbdde822789f123667044443dc7001fb43c01",
      "to": "0xbbbbbbbbbb9cc5e90e3b3af64bdaf62c37eeffcb",
      "contractAddress": null,
      "l1Fee": "0xa869d7ffb",
      "l1GasPrice": "0x22153949c",
      "l1GasUsed": "0x1188"
    },
    {
      "status": "0x1",
      "cumulativeGasUsed": "0xfdec7d",
      "logs": [
        {
          "address": "0x2ae3f1ec7f1f5012cfeab0185bfc7aa3cf0dec22",
          "topics": [
            "0x8c5be1e5ebec7d5bd14f71427d1e84f3dd0314c0f7b2291e5b200ac8c7c3b925",
            "0x000000000000000000000000a9bbbdde822789f123667044443dc7001fb43c01",
            "0x000000000000000000000000bbbbbbbbbb9cc5e90e3b3af64bdaf62c37eeffcb"
          ],
          "data": "0x00000000000000000000000000000000000000000000000000071afd498d0000",
          "blockHash": "0x9e27f828a6224629fa01cef88ceb57461d5b782b31982680377e4702549316ab",
          "blockNumber": "0xf4444a",
          "transactionHash": "0x135491a23c0901b32df1e3c3a28b14c5e9a23ff43d87c78329e74919d5d31345",
          "transactionIndex": "0x3d",
          "logIndex": "0xbd",
          "removed": false
        }
      ],
      "logsBloom": "0x00000000000000000000000000000080000000000000000000000008000000000000000000000000000000000000000000008000000000000000000000200000000000000000000000000000000000000000000000000000000002000000000000000000000000000000000000000000000000000000000000000000000000000000000000000000000000000000000000000000000000000000000000000000020000000000000000000000000000000001000000000000000000000000000000000000000000000000000000000000000000000000000000000000000000000010000001000000100000200000000004000000000000000000000000000000",
      "type": "0x2",
      "transactionHash": "0x135491a23c0901b32df1e3c3a28b14c5e9a23ff43d87c78329e74919d5d31345",
      "transactionIndex": "0x3d",
      "blockHash": "0x9e27f828a6224629fa01cef88ceb57461d5b782b31982680377e4702549316ab",
      "blockNumber": "0xf4444a",
      "gasUsed": "0xc7fe",
      "effectiveGasPrice": "0x159a3c6",
      "from": "0xa9bbbdde822789f123667044443dc7001fb43c01",
      "to": "0x2ae3f1ec7f1f5012cfeab0185bfc7aa3cf0dec22",
      "contractAddress": null,
      "l1Fee": "0x5e988ffbc",
      "l1GasPrice": "0x23cc9bdb8",
      "l1GasUsed": "0x960"
    },
    {
      "status": "0x1",
      "cumulativeGasUsed": "0xd43799",
      "logs": [
        {
          "address": "0xbbbbbbbbbb9cc5e90e3b3af64bdaf62c37eeffcb",
          "topics": [
            "0xa3b9472a1399e17e123f3c2e6586c23e504184d504de59cdaa2b375e880c6184",
            "0xfba4338b51c9d9b00023dd66a7e62a2d58b815ca15a998b49771591a815a41b2",
            "0x000000000000000000000000a9bbbdde822789f123667044443dc7001fb43c01",
            "0x000000000000000000000000a9bbbdde822789f123667044443dc7001fb43c01"
          ],
          "data": "0x00000000000000000000000000000000000000000000000000071afd498d0000",
          "blockHash": "0x5617c726ea24419c16e52ebf00b42b3d77cb1b9f0a6f2667120fe6d7501eb6dd",
          "blockNumber": "0xf4444d",
          "transactionHash": "0xb4d801e3744bdb37deb2391cdb091ba9dd2511e2673af2797bb1ad8f667588f3",
          "transactionIndex": "0x37",
          "logIndex": "0x198",
          "removed": false
        },
        {
          "address": "0x2ae3f1ec7f1f5012cfeab0185bfc7aa3cf0dec22",
          "topics": [
            "0x8c5be1e5ebec7d5bd14f71427d1e84f3dd0314c0f7b2291e5b200ac8c7c3b925",
            "0x000000000000000000000000a9bbbdde822789f123667044443dc7001fb43c01",
            "0x000000000000000000000000bbbbbbbbbb9cc5e90e3b3af64bdaf62c37eeffcb"
          ],
          "data": "0x0000000000000000000000000000000000000000000000000000000000000000",
          "blockHash": "0x5617c726ea24419c16e52ebf00b42b3d77cb1b9f0a6f2667120fe6d7501eb6dd",
          "blockNumber": "0xf4444d",
          "transactionHash": "0xb4d801e3744bdb37deb2391cdb091ba9dd2511e2673af2797bb1ad8f667588f3",
          "transactionIndex": "0x37",
          "logIndex": "0x199",
          "removed": false
        },
        {
          "address": "0x2ae3f1ec7f1f5012cfeab0185bfc7aa3cf0dec22",
          "topics": [
            "0xddf252ad1be2c89b69c2b068fc378daa952ba7f163c4a11628f55a4df523b3ef",
            "0x000000000000000000000000a9bbbdde822789f123667044443dc7001fb43c01",
            "0x000000000000000000000000bbbbbbbbbb9cc5e90e3b3af64bdaf62c37eeffcb"
          ],
          "data": "0x00000000000000000000000000000000000000000000000000071afd498d0000",
          "blockHash": "0x5617c726ea24419c16e52ebf00b42b3d77cb1b9f0a6f2667120fe6d7501eb6dd",
          "blockNumber": "0xf4444d",
          "transactionHash": "0xb4d801e3744bdb37deb2391cdb091ba9dd2511e2673af2797bb1ad8f667588f3",
          "transactionIndex": "0x37",
          "logIndex": "0x19a",
          "removed": false
        }
      ],
      "logsBloom": "0x00000000000000000000000000000080000000000000000000000008000000000000000000000000000000000000000000008000000000000000000000200000000000000010000000000008000000000000000000000000000002000000000000000000000000002000000000000000000000000000000000000010000000000000008000000008000000000000000000000000000000000000000000000000020000000000000000000000000000000001000000000000000000000000000020000002000008000000000000000000000040000000000400000000000000000010000001000000100000200000200004000000000000000000000000000000",
      "type": "0x2",
      "transactionHash": "0xb4d801e3744bdb37deb2391cdb091ba9dd2511e2673af2797bb1ad8f667588f3",
      "transactionIndex": "0x37",
      "blockHash": "0x5617c726ea24419c16e52ebf00b42b3d77cb1b9f0a6f2667120fe6d7501eb6dd",
      "blockNumber": "0xf4444d",
      "gasUsed": "0x1299f",
      "effectiveGasPrice": "0x15a3684",
      "from": "0xa9bbbdde822789f123667044443dc7001fb43c01",
      "to": "0xbbbbbbbbbb9cc5e90e3b3af64bdaf62c37eeffcb",
      "contractAddress": null,
      "l1Fee": "0xab6056c51",
      "l1GasPrice": "0x23cc9bdb8",
      "l1GasUsed": "0x10fc"
    },
    {
      "status": "0x1",
      "cumulativeGasUsed": "0xdc0318",
      "logs": [
        {
          "address": "0x46415998764c29ab2a25cbea6254146d50d22687",
          "topics": [
            "0x7120161a7b3d31251e01294ab351ef15a41b91659a36032e4641bb89b121e321",
            "0xfba4338b51c9d9b00023dd66a7e62a2d58b815ca15a998b49771591a815a41b2"
          ],
          "data": "0x0000000000000000000000000000000000000000000000000000000012e652b9000000000000000000000000000000000000000000000000000000004b98f47e",
          "blockHash": "0x152650aaa269fcd253d4b502e9a9e0db4d5cf443b03b2adf4061c485bea206f9",
          "blockNumber": "0xf44451",
          "transactionHash": "0x856aab6bae28b9051043482e16e52a1bc0128522f50a40d59619baf4287c18bc",
          "transactionIndex": "0x36",
          "logIndex": "0x185",
          "removed": false
        },
        {
          "address": "0xbbbbbbbbbb9cc5e90e3b3af64bdaf62c37eeffcb",
          "topics": [
            "0x9d9bd501d0657d7dfe415f779a620a62b78bc508ddc0891fbbd8b7ac0f8fce87",
            "0xfba4338b51c9d9b00023dd66a7e62a2d58b815ca15a998b49771591a815a41b2"
          ],
          "data": "0x0000000000000000000000000000000000000000000000000000000012e652b900000000000000000000000000000000000000000000000000000000000000000000000000000000000000000000000000000000000000000000000000000000",
          "blockHash": "0x152650aaa269fcd253d4b502e9a9e0db4d5cf443b03b2adf4061c485bea206f9",
          "blockNumber": "0xf44451",
          "transactionHash": "0x856aab6bae28b9051043482e16e52a1bc0128522f50a40d59619baf4287c18bc",
          "transactionIndex": "0x36",
          "logIndex": "0x186",
          "removed": false
        },
        {
          "address": "0xbbbbbbbbbb9cc5e90e3b3af64bdaf62c37eeffcb",
          "topics": [
            "0x570954540bed6b1304a87dfe815a5eda4a648f7097a16240dcd85c9b5fd42a43",
            "0xfba4338b51c9d9b00023dd66a7e62a2d58b815ca15a998b49771591a815a41b2",
            "0x000000000000000000000000a9bbbdde822789f123667044443dc7001fb43c01",
            "0x000000000000000000000000a9bbbdde822789f123667044443dc7001fb43c01"
          ],
          "data": "0x000000000000000000000000a9bbbdde822789f123667044443dc7001fb43c010000000000000000000000000000000000000000000000000c7d713b49da000000000000000000000000000000000000000000000000be951906eba2aa800000",
          "blockHash": "0x152650aaa269fcd253d4b502e9a9e0db4d5cf443b03b2adf4061c485bea206f9",
          "blockNumber": "0xf44451",
          "transactionHash": "0x856aab6bae28b9051043482e16e52a1bc0128522f50a40d59619baf4287c18bc",
          "transactionIndex": "0x36",
          "logIndex": "0x187",
          "removed": false
        },
        {
          "address": "0x0000206329b97db379d5e1bf586bbdb969c63274",
          "topics": [
            "0xddf252ad1be2c89b69c2b068fc378daa952ba7f163c4a11628f55a4df523b3ef",
            "0x000000000000000000000000bbbbbbbbbb9cc5e90e3b3af64bdaf62c37eeffcb",
            "0x000000000000000000000000a9bbbdde822789f123667044443dc7001fb43c01"
          ],
          "data": "0x0000000000000000000000000000000000000000000000000c7d713b49da0000",
          "blockHash": "0x152650aaa269fcd253d4b502e9a9e0db4d5cf443b03b2adf4061c485bea206f9",
          "blockNumber": "0xf44451",
          "transactionHash": "0x856aab6bae28b9051043482e16e52a1bc0128522f50a40d59619baf4287c18bc",
          "transactionIndex": "0x36",
          "logIndex": "0x188",
          "removed": false
        }
      ],
      "logsBloom": "0x00000000000000000002000000000080000000000000000000000008000000000000400000000100000000000000000000008000000000000000000020804000000000000010000000000008000004000000000000000000000002080000000000000000000000002000000000000000000000000000000000000010000000000000000000000008000000000000000000000000000000000008000000000000000000000000000000000000000000000000000000000000000000000000000020000002000008000000000000000000000140004000000000000000000000000000004001000008000000200001000000000000000000000000000000004000",
      "type": "0x2",
      "transactionHash": "0x856aab6bae28b9051043482e16e52a1bc0128522f50a40d59619baf4287c18bc",
      "transactionIndex": "0x36",
      "blockHash": "0x152650aaa269fcd253d4b502e9a9e0db4d5cf443b03b2adf4061c485bea206f9",
      "blockNumber": "0xf44451",
      "gasUsed": "0x24d8d",
      "effectiveGasPrice": "0x15af4eb",
      "from": "0xa9bbbdde822789f123667044443dc7001fb43c01",
      "to": "0xbbbbbbbbbb9cc5e90e3b3af64bdaf62c37eeffcb",
      "contractAddress": null,
      "l1Fee": "0xb3112a3e0",
      "l1GasPrice": "0x238ac318d",
      "l1GasUsed": "0x11e0"
    },
    {
      "status": "0x1",
      "cumulativeGasUsed": "0x1007cb3",
      "logs": [
        {
          "address": "0xbbbbbbbbbb9cc5e90e3b3af64bdaf62c37eeffcb",
          "topics": [
            "0xac4b2400f169220b0c0afdde7a0b32e775ba727ea1cb30b35f935cdaab8683ac",
            "0x2e211437b3f7efbd1c016b9d492899735e831b8dd16cc5d58c66f1252693dd0a"
          ],
          "data": "0x0000000000000000000000000000206329b97db379d5e1bf586bbdb969c632740000000000000000000000002416092f143378750bb29b79ed961ab195cceea50000000000000000000000004b5086653f9db675df31a618971e0ec26f6f081f00000000000000000000000046415998764c29ab2a25cbea6254146d50d226870000000000000000000000000000000000000000000000000bef55718ad60000",
          "blockHash": "0x3a90c347b03eded2e6368691cfbb39f9e1be9376fa962578a03a54b4d928ec37",
          "blockNumber": "0xf44454",
          "transactionHash": "0xa8e8b2ccbad36f5e052973db069724a80885ec4d342bb873e5d83d5680099c47",
          "transactionIndex": "0x34",
          "logIndex": "0x198",
          "removed": false
        },
        {
          "address": "0x46415998764c29ab2a25cbea6254146d50d22687",
          "topics": [
            "0x7120161a7b3d31251e01294ab351ef15a41b91659a36032e4641bb89b121e321",
            "0x2e211437b3f7efbd1c016b9d492899735e831b8dd16cc5d58c66f1252693dd0a"
          ],
          "data": "0x0000000000000000000000000000000000000000000000000000000012e687bf000000000000000000000000000000000000000000000000000000004b9a1eff",
          "blockHash": "0x3a90c347b03eded2e6368691cfbb39f9e1be9376fa962578a03a54b4d928ec37",
          "blockNumber": "0xf44454",
          "transactionHash": "0xa8e8b2ccbad36f5e052973db069724a80885ec4d342bb873e5d83d5680099c47",
          "transactionIndex": "0x34",
          "logIndex": "0x199",
          "removed": false
        }
      ],
      "logsBloom": "0x00000000000000000000000000000800000000000000000000000000000000000000000000000100000000000000000000000000000000000000000000804000000000000010000000000000000000000000000000000000000000000000000000000000000000000000000000000000000000400000000000000040000000000000000000000008000000000000000000000000000000000008000000000000000000000000000000000000000000000000000000000000000000000000000020000000000000000000000000000000000100000000000000000000400000000000000000400000000000000001000000000000000000000000000000000010",
      "type": "0x2",
      "transactionHash": "0xa8e8b2ccbad36f5e052973db069724a80885ec4d342bb873e5d83d5680099c47",
      "transactionIndex": "0x34",
      "blockHash": "0x3a90c347b03eded2e6368691cfbb39f9e1be9376fa962578a03a54b4d928ec37",
      "blockNumber": "0xf44454",
      "gasUsed": "0x303d5",
      "effectiveGasPrice": "0x15c27e2",
      "from": "0xa9bbbdde822789f123667044443dc7001fb43c01",
      "to": "0xbbbbbbbbbb9cc5e90e3b3af64bdaf62c37eeffcb",
      "contractAddress": null,
      "l1Fee": "0x89be6f436",
      "l1GasPrice": "0x238ac318d",
      "l1GasUsed": "0xdc0"
    },
    {
      "status": "0x1",
      "cumulativeGasUsed": "0xfd2485",
      "logs": [
        {
          "address": "0x0000206329b97db379d5e1bf586bbdb969c63274",
          "topics": [
            "0x8c5be1e5ebec7d5bd14f71427d1e84f3dd0314c0f7b2291e5b200ac8c7c3b925",
            "0x000000000000000000000000a9bbbdde822789f123667044443dc7001fb43c01",
            "0x000000000000000000000000bbbbbbbbbb9cc5e90e3b3af64bdaf62c37eeffcb"
          ],
          "data": "0x0000000000000000000000000000000000000000000000000de0b6b3a7640000",
          "blockHash": "0xcdcc29710310a2b084eb6f3a6d314d223a2dbe76a3622e2a6a4267edd5da1203",
          "blockNumber": "0xf44458",
          "transactionHash": "0x337af0c05f0b3341c21acb0b92213dbba8f1a792f7cce4fc619d2c573a0d51fb",
          "transactionIndex": "0x3b",
          "logIndex": "0x179",
          "removed": false
        }
      ],
      "logsBloom": "0x00000000000000000000000000000080000000000000000000000008000000000000000000000000000000000000000000008000000000000000000000200000000000000000000000000000000004000000000000000000000002000000000000000000000000000000000000000000000000000000000000000000000000000000000000000000000000000000000000000000000000000000000000000000020000000000000000000000000000000000000000000000000000000000000000000000000000000000000000000000000000004000000000000000000000000010000001000000000000200000000000000000000000000000000000004000",
      "type": "0x2",
      "transactionHash": "0x337af0c05f0b3341c21acb0b92213dbba8f1a792f7cce4fc619d2c573a0d51fb",
      "transactionIndex": "0x3b",
      "blockHash": "0xcdcc29710310a2b084eb6f3a6d314d223a2dbe76a3622e2a6a4267edd5da1203",
      "blockNumber": "0xf44458",
      "gasUsed": "0xd09e",
      "effectiveGasPrice": "0x15c95f8",
      "from": "0xa9bbbdde822789f123667044443dc7001fb43c01",
      "to": "0x0000206329b97db379d5e1bf586bbdb969c63274",
      "contractAddress": null,
      "l1Fee": "0x5ccedbf95",
      "l1GasPrice": "0x234c93a69",
      "l1GasUsed": "0x954"
    },
    {
      "status": "0x1",
      "cumulativeGasUsed": "0x110206d",
      "logs": [
        {
          "address": "0x46415998764c29ab2a25cbea6254146d50d22687",
          "topics": [
            "0x7120161a7b3d31251e01294ab351ef15a41b91659a36032e4641bb89b121e321",
            "0x2e211437b3f7efbd1c016b9d492899735e831b8dd16cc5d58c66f1252693dd0a"
          ],
          "data": "0x0000000000000000000000000000000000000000000000000000000012e67809000000000000000000000000000000000000000000000000000000004b99a14f",
          "blockHash": "0xddb1bd07437d6bc049c2d5e3ed493978b351746cd0dd30299879ee4b400f623b",
          "blockNumber": "0xf4445c",
          "transactionHash": "0x9c2aabf64903fe9f8aa0554faddba3a9878d5a2ea1471fef0e0e10505208e1b7",
          "transactionIndex": "0x51",
          "logIndex": "0x297",
          "removed": false
        },
        {
          "address": "0xbbbbbbbbbb9cc5e90e3b3af64bdaf62c37eeffcb",
          "topics": [
            "0x9d9bd501d0657d7dfe415f779a620a62b78bc508ddc0891fbbd8b7ac0f8fce87",
            "0x2e211437b3f7efbd1c016b9d492899735e831b8dd16cc5d58c66f1252693dd0a"
          ],
          "data": "0x0000000000000000000000000000000000000000000000000000000012e6780900000000000000000000000000000000000000000000000000000000000000000000000000000000000000000000000000000000000000000000000000000000",
          "blockHash": "0xddb1bd07437d6bc049c2d5e3ed493978b351746cd0dd30299879ee4b400f623b",
          "blockNumber": "0xf4445c",
          "transactionHash": "0x9c2aabf64903fe9f8aa0554faddba3a9878d5a2ea1471fef0e0e10505208e1b7",
          "transactionIndex": "0x51",
          "logIndex": "0x298",
          "removed": false
        },
        {
          "address": "0xbbbbbbbbbb9cc5e90e3b3af64bdaf62c37eeffcb",
          "topics": [
            "0xedf8870433c83823eb071d3df1caa8d008f12f6440918c20d75a3602cda30fe0",
            "0x2e211437b3f7efbd1c016b9d492899735e831b8dd16cc5d58c66f1252693dd0a",
            "0x000000000000000000000000a9bbbdde822789f123667044443dc7001fb43c01",
            "0x000000000000000000000000a9bbbdde822789f123667044443dc7001fb43c01"
          ],
          "data": "0x0000000000000000000000000000000000000000000000000de0b6b3a764000000000000000000000000000000000000000000000000d3c21bcecceda1000000",
          "blockHash": "0xddb1bd07437d6bc049c2d5e3ed493978b351746cd0dd30299879ee4b400f623b",
          "blockNumber": "0xf4445c",
          "transactionHash": "0x9c2aabf64903fe9f8aa0554faddba3a9878d5a2ea1471fef0e0e10505208e1b7",
          "transactionIndex": "0x51",
          "logIndex": "0x299",
          "removed": false
        },
        {
          "address": "0x0000206329b97db379d5e1bf586bbdb969c63274",
          "topics": [
            "0x8c5be1e5ebec7d5bd14f71427d1e84f3dd0314c0f7b2291e5b200ac8c7c3b925",
            "0x000000000000000000000000a9bbbdde822789f123667044443dc7001fb43c01",
            "0x000000000000000000000000bbbbbbbbbb9cc5e90e3b3af64bdaf62c37eeffcb"
          ],
          "data": "0x0000000000000000000000000000000000000000000000000000000000000000",
          "blockHash": "0xddb1bd07437d6bc049c2d5e3ed493978b351746cd0dd30299879ee4b400f623b",
          "blockNumber": "0xf4445c",
          "transactionHash": "0x9c2aabf64903fe9f8aa0554faddba3a9878d5a2ea1471fef0e0e10505208e1b7",
          "transactionIndex": "0x51",
          "logIndex": "0x29a",
          "removed": false
        },
        {
          "address": "0x0000206329b97db379d5e1bf586bbdb969c63274",
          "topics": [
            "0xddf252ad1be2c89b69c2b068fc378daa952ba7f163c4a11628f55a4df523b3ef",
            "0x000000000000000000000000a9bbbdde822789f123667044443dc7001fb43c01",
            "0x000000000000000000000000bbbbbbbbbb9cc5e90e3b3af64bdaf62c37eeffcb"
          ],
          "data": "0x0000000000000000000000000000000000000000000000000de0b6b3a7640000",
          "blockHash": "0xddb1bd07437d6bc049c2d5e3ed493978b351746cd0dd30299879ee4b400f623b",
          "blockNumber": "0xf4445c",
          "transactionHash": "0x9c2aabf64903fe9f8aa0554faddba3a9878d5a2ea1471fef0e0e10505208e1b7",
          "transactionIndex": "0x51",
          "logIndex": "0x29b",
          "removed": false
        }
      ],
      "logsBloom": "0x00000000000000000000000000000080000000000000000000000008000000000000400000000100000000000000000000008000000000000000000020a04000000000000010000000000008800004000000000800000000000002080000000000000000000000000000000000000000000000400000000000000010000000000000000000000008000000000000000000000000000000000008000000000000020000000000000000000000000000000000000000000000000000000000000020000002000000000000000000000000000100004000000000000000400000400010000001400000000000200001000000000000000000000000000000004000",
      "type": "0x2",
      "transactionHash": "0x9c2aabf64903fe9f8aa0554faddba3a9878d5a2ea1471fef0e0e10505208e1b7",
      "transactionIndex": "0x51",
      "blockHash": "0xddb1bd07437d6bc049c2d5e3ed493978b351746cd0dd30299879ee4b400f623b",
      "blockNumber": "0xf4445c",
      "gasUsed": "0x1eb37",
      "effectiveGasPrice": "0x15d89e3",
      "from": "0xa9bbbdde822789f123667044443dc7001fb43c01",
      "to": "0xbbbbbbbbbb9cc5e90e3b3af64bdaf62c37eeffcb",
      "contractAddress": null,
      "l1Fee": "0xaf36a975c",
      "l1GasPrice": "0x235d514aa",
      "l1GasUsed": "0x1194"
    },
    {
      "status": "0x1",
      "cumulativeGasUsed": "0xda54dd",
      "logs": [
        {
          "address": "0x2416092f143378750bb29b79ed961ab195cceea5",
          "topics": [
            "0x8c5be1e5ebec7d5bd14f71427d1e84f3dd0314c0f7b2291e5b200ac8c7c3b925",
            "0x000000000000000000000000a9bbbdde822789f123667044443dc7001fb43c01",
            "0x000000000000000000000000bbbbbbbbbb9cc5e90e3b3af64bdaf62c37eeffcb"
          ],
          "data": "0x00000000000000000000000000000000000000000000000000071afd498d0000",
          "blockHash": "0x0528e9ae299bc308538b8fe5b6f6064f78387f95075c3fef214b29ea946d6454",
          "blockNumber": "0xf44460",
          "transactionHash": "0xeedcf47f18b42dcca7bf9ff8c5587df4c469615b15c73628fb62fccc6fb78403",
          "transactionIndex": "0x36",
          "logIndex": "0x17b",
          "removed": false
        }
      ],
      "logsBloom": "0x00000000000000000000000000000080000000000000000000000008000000040000000000000080000000000000000000008000000000000000000000200000000000000400000000000000000000000000000000000000000002000000000000000000000000000000000000000000000000000000000000000000000000000000000000000000000000000000000000000000000000000000000000000000020000000000000000000000000000000000000000000000000000000000000000000000000000000000000000000000000000000000000000000000000000000010000001000000000000200000000000000000000000000000000000000000",
      "type": "0x2",
      "transactionHash": "0xeedcf47f18b42dcca7bf9ff8c5587df4c469615b15c73628fb62fccc6fb78403",
      "transactionIndex": "0x36",
      "blockHash": "0x0528e9ae299bc308538b8fe5b6f6064f78387f95075c3fef214b29ea946d6454",
      "blockNumber": "0xf44460",
      "gasUsed": "0xd0d2",
      "effectiveGasPrice": "0x15ded8a",
      "from": "0xa9bbbdde822789f123667044443dc7001fb43c01",
      "to": "0x2416092f143378750bb29b79ed961ab195cceea5",
      "contractAddress": null,
      "l1Fee": "0x5dea194b6",
      "l1GasPrice": "0x235d514aa",
      "l1GasUsed": "0x96c"
    },
    {
      "status": "0x1",
      "cumulativeGasUsed": "0x91179d",
      "logs": [
        {
          "address": "0xbbbbbbbbbb9cc5e90e3b3af64bdaf62c37eeffcb",
          "topics": [
            "0xa3b9472a1399e17e123f3c2e6586c23e504184d504de59cdaa2b375e880c6184",
            "0x2e211437b3f7efbd1c016b9d492899735e831b8dd16cc5d58c66f1252693dd0a",
            "0x000000000000000000000000a9bbbdde822789f123667044443dc7001fb43c01",
            "0x000000000000000000000000a9bbbdde822789f123667044443dc7001fb43c01"
          ],
          "data": "0x00000000000000000000000000000000000000000000000000071afd498d0000",
          "blockHash": "0x9f2cfede88c5ffb6c411ef53cc97a92080791c84f4440fab949d05732d267597",
          "blockNumber": "0xf44463",
          "transactionHash": "0xb70eb8779ddcb0e0bcebde4377f0e1ef6cb383bb40b1a145c08438afa0134e94",
          "transactionIndex": "0x35",
          "logIndex": "0xc0",
          "removed": false
        },
        {
          "address": "0x2416092f143378750bb29b79ed961ab195cceea5",
          "topics": [
            "0x8c5be1e5ebec7d5bd14f71427d1e84f3dd0314c0f7b2291e5b200ac8c7c3b925",
            "0x000000000000000000000000a9bbbdde822789f123667044443dc7001fb43c01",
            "0x000000000000000000000000bbbbbbbbbb9cc5e90e3b3af64bdaf62c37eeffcb"
          ],
          "data": "0x0000000000000000000000000000000000000000000000000000000000000000",
          "blockHash": "0x9f2cfede88c5ffb6c411ef53cc97a92080791c84f4440fab949d05732d267597",
          "blockNumber": "0xf44463",
          "transactionHash": "0xb70eb8779ddcb0e0bcebde4377f0e1ef6cb383bb40b1a145c08438afa0134e94",
          "transactionIndex": "0x35",
          "logIndex": "0xc1",
          "removed": false
        },
        {
          "address": "0x2416092f143378750bb29b79ed961ab195cceea5",
          "topics": [
            "0xddf252ad1be2c89b69c2b068fc378daa952ba7f163c4a11628f55a4df523b3ef",
            "0x000000000000000000000000a9bbbdde822789f123667044443dc7001fb43c01",
            "0x000000000000000000000000bbbbbbbbbb9cc5e90e3b3af64bdaf62c37eeffcb"
          ],
          "data": "0x00000000000000000000000000000000000000000000000000071afd498d0000",
          "blockHash": "0x9f2cfede88c5ffb6c411ef53cc97a92080791c84f4440fab949d05732d267597",
          "blockNumber": "0xf44463",
          "transactionHash": "0xb70eb8779ddcb0e0bcebde4377f0e1ef6cb383bb40b1a145c08438afa0134e94",
          "transactionIndex": "0x35",
          "logIndex": "0xc2",
          "removed": false
        }
      ],
      "logsBloom": "0x00000000000000000000000000000080000000000000000000000008000000040000000000000080000000000000000000008000000000000000000000200000000000000410000000000008000000000000000000000000000002000000000000000000000000000000000000000000000000400000000000000010000000000000008000000008000000000000000000000000000000000000000000000000020000000000000000000000000000000000000000000000000000000000000020000002000000000000000000000000000000000000000400000000400000000010000001400000000000200000200000000000000000000000000000000000",
      "type": "0x2",
      "transactionHash": "0xb70eb8779ddcb0e0bcebde4377f0e1ef6cb383bb40b1a145c08438afa0134e94",
      "transactionIndex": "0x35",
      "blockHash": "0x9f2cfede88c5ffb6c411ef53cc97a92080791c84f4440fab949d05732d267597",
      "blockNumber": "0xf44463",
      "gasUsed": "0x132a1",
      "effectiveGasPrice": "0x15e0db7",
      "from": "0xa9bbbdde822789f123667044443dc7001fb43c01",
      "to": "0xbbbbbbbbbb9cc5e90e3b3af64bdaf62c37eeffcb",
      "contractAddress": null,
      "l1Fee": "0xa274b5928",
      "l1GasPrice": "0x22079e54f",
      "l1GasUsed": "0x10f0"
    },
    {
      "status": "0x1",
      "cumulativeGasUsed": "0xb4cca4",
      "logs": [
        {
          "address": "0x46415998764c29ab2a25cbea6254146d50d22687",
          "topics": [
            "0x7120161a7b3d31251e01294ab351ef15a41b91659a36032e4641bb89b121e321",
            "0x2e211437b3f7efbd1c016b9d492899735e831b8dd16cc5d58c66f1252693dd0a"
          ],
          "data": "0x0000000000000000000000000000000000000000000000000000000012e654b0000000000000000000000000000000000000000000000000000000004b990434",
          "blockHash": "0x32e33fc93751cd237001b374ffdcc1910e38b17c0f055671f74fc1a818bf2da7",
          "blockNumber": "0xf44466",
          "transactionHash": "0xcc7e662c481abaf2384c4120af62017da69b1c0168495c0ca78129e4af081374",
          "transactionIndex": "0x38",
          "logIndex": "0x15f",
          "removed": false
        },
        {
          "address": "0xbbbbbbbbbb9cc5e90e3b3af64bdaf62c37eeffcb",
          "topics": [
            "0x9d9bd501d0657d7dfe415f779a620a62b78bc508ddc0891fbbd8b7ac0f8fce87",
            "0x2e211437b3f7efbd1c016b9d492899735e831b8dd16cc5d58c66f1252693dd0a"
          ],
          "data": "0x0000000000000000000000000000000000000000000000000000000012e654b000000000000000000000000000000000000000000000000000000000000000000000000000000000000000000000000000000000000000000000000000000000",
          "blockHash": "0x32e33fc93751cd237001b374ffdcc1910e38b17c0f055671f74fc1a818bf2da7",
          "blockNumber": "0xf44466",
          "transactionHash": "0xcc7e662c481abaf2384c4120af62017da69b1c0168495c0ca78129e4af081374",
          "transactionIndex": "0x38",
          "logIndex": "0x160",
          "removed": false
        },
        {
          "address": "0xbbbbbbbbbb9cc5e90e3b3af64bdaf62c37eeffcb",
          "topics": [
            "0x570954540bed6b1304a87dfe815a5eda4a648f7097a16240dcd85c9b5fd42a43",
            "0x2e211437b3f7efbd1c016b9d492899735e831b8dd16cc5d58c66f1252693dd0a",
            "0x000000000000000000000000a9bbbdde822789f123667044443dc7001fb43c01",
            "0x000000000000000000000000a9bbbdde822789f123667044443dc7001fb43c01"
          ],
          "data": "0x000000000000000000000000a9bbbdde822789f123667044443dc7001fb43c010000000000000000000000000000000000000000000000000c7d713b49da000000000000000000000000000000000000000000000000be951906eba2aa800000",
          "blockHash": "0x32e33fc93751cd237001b374ffdcc1910e38b17c0f055671f74fc1a818bf2da7",
          "blockNumber": "0xf44466",
          "transactionHash": "0xcc7e662c481abaf2384c4120af62017da69b1c0168495c0ca78129e4af081374",
          "transactionIndex": "0x38",
          "logIndex": "0x161",
          "removed": false
        },
        {
          "address": "0x0000206329b97db379d5e1bf586bbdb969c63274",
          "topics": [
            "0xddf252ad1be2c89b69c2b068fc378daa952ba7f163c4a11628f55a4df523b3ef",
            "0x000000000000000000000000bbbbbbbbbb9cc5e90e3b3af64bdaf62c37eeffcb",
            "0x000000000000000000000000a9bbbdde822789f123667044443dc7001fb43c01"
          ],
          "data": "0x0000000000000000000000000000000000000000000000000c7d713b49da0000",
          "blockHash": "0x32e33fc93751cd237001b374ffdcc1910e38b17c0f055671f74fc1a818bf2da7",
          "blockNumber": "0xf44466",
          "transactionHash": "0xcc7e662c481abaf2384c4120af62017da69b1c0168495c0ca78129e4af081374",
          "transactionIndex": "0x38",
          "logIndex": "0x162",
          "removed": false
        }
      ],
      "logsBloom": "0x00000000000000000002000000000080000000000000000000000008000000000000400000000100000000000000000000008000000000000000000020804000000000000010000000000008000004000000000000000000000002080000000000000000000000000000000000000000000000400000000000000010000000000000000000000008000000000000000000000000000000000008000000000000000000000000000000000000000000000000000000000000000000000000000020000002000000000000000000000000000100004000000000000000400000000000004001400008000000200001000000000000000000000000000000004000",
      "type": "0x2",
      "transactionHash": "0xcc7e662c481abaf2384c4120af62017da69b1c0168495c0ca78129e4af081374",
      "transactionIndex": "0x38",
      "blockHash": "0x32e33fc93751cd237001b374ffdcc1910e38b17c0f055671f74fc1a818bf2da7",
      "blockNumber": "0xf44466",
      "gasUsed": "0x24d8d",
      "effectiveGasPrice": "0x15e357d",
      "from": "0xa9bbbdde822789f123667044443dc7001fb43c01",
      "to": "0xbbbbbbbbbb9cc5e90e3b3af64bdaf62c37eeffcb",
      "contractAddress": null,
      "l1Fee": "0xab72aad71",
      "l1GasPrice": "0x22079e54f",
      "l1GasUsed": "0x11e0"
    },
    {
      "status": "0x1",
      "cumulativeGasUsed": "0x123b6df",
      "logs": [
        {
          "address": "0xbbbbbbbbbb9cc5e90e3b3af64bdaf62c37eeffcb",
          "topics": [
            "0xac4b2400f169220b0c0afdde7a0b32e775ba727ea1cb30b35f935cdaab8683ac",
            "0x72defbe3b6b9f9799801c74b727bc614d81ede34761c967e2f32da7ddec8a1ce"
          ],
          "data": "0x0000000000000000000000000000206329b97db379d5e1bf586bbdb969c63274000000000000000000000000c1cba3fcea344f92d9239c08c0568f6f2f0ee452000000000000000000000000040ba460ed355833a0693348421c7f1fd831d0c700000000000000000000000046415998764c29ab2a25cbea6254146d50d226870000000000000000000000000000000000000000000000000bef55718ad60000",
          "blockHash": "0x0a799870678969e9fc0a0651c934b4c77c7cd662ed88fe0a23a8e8c00a669556",
          "blockNumber": "0xf4446a",
          "transactionHash": "0x5250c36999550591f53ddbb1f6e773bebef16879c02079c76345190645ec0db9",
          "transactionIndex": "0x49",
          "logIndex": "0x1f5",
          "removed": false
        },
        {
          "address": "0x46415998764c29ab2a25cbea6254146d50d22687",
          "topics": [
            "0x7120161a7b3d31251e01294ab351ef15a41b91659a36032e4641bb89b121e321",
            "0x72defbe3b6b9f9799801c74b727bc614d81ede34761c967e2f32da7ddec8a1ce"
          ],
          "data": "0x0000000000000000000000000000000000000000000000000000000012e687bf000000000000000000000000000000000000000000000000000000004b9a1eff",
          "blockHash": "0x0a799870678969e9fc0a0651c934b4c77c7cd662ed88fe0a23a8e8c00a669556",
          "blockNumber": "0xf4446a",
          "transactionHash": "0x5250c36999550591f53ddbb1f6e773bebef16879c02079c76345190645ec0db9",
          "transactionIndex": "0x49",
          "logIndex": "0x1f6",
          "removed": false
        }
      ],
      "logsBloom": "0x00000000000000000000000000000800000000000000000000000200000000000000000000000100000000000000000000000000000000000000000000804000000000000010000000000000000000000000000000000000000000000000000000000000000000000000000000000000000000000000000000000040000000000000000000000008000000000000000000000000000000000008000000000000000000000000000000000000000000000000000000000000000000000000000020000000000000000000000000000000000110000000000000000000000000000000000000000040000000000001000000000000000000000000000000000010",
      "type": "0x2",
      "transactionHash": "0x5250c36999550591f53ddbb1f6e773bebef16879c02079c76345190645ec0db9",
      "transactionIndex": "0x49",
      "blockHash": "0x0a799870678969e9fc0a0651c934b4c77c7cd662ed88fe0a23a8e8c00a669556",
      "blockNumber": "0xf4446a",
      "gasUsed": "0x303d5",
      "effectiveGasPrice": "0x15e5daa",
      "from": "0xa9bbbdde822789f123667044443dc7001fb43c01",
      "to": "0xbbbbbbbbbb9cc5e90e3b3af64bdaf62c37eeffcb",
      "contractAddress": null,
      "l1Fee": "0x839b57541",
      "l1GasPrice": "0x21f55f7df",
      "l1GasUsed": "0xdc0"
    },
    {
      "status": "0x1",
      "cumulativeGasUsed": "0xda39c0",
      "logs": [
        {
          "address": "0x0000206329b97db379d5e1bf586bbdb969c63274",
          "topics": [
            "0x8c5be1e5ebec7d5bd14f71427d1e84f3dd0314c0f7b2291e5b200ac8c7c3b925",
            "0x000000000000000000000000a9bbbdde822789f123667044443dc7001fb43c01",
            "0x000000000000000000000000bbbbbbbbbb9cc5e90e3b3af64bdaf62c37eeffcb"
          ],
          "data": "0x0000000000000000000000000000000000000000000000000de0b6b3a7640000",
          "blockHash": "0xdd26e16b069401796e4b0e05033216120e184f0d7c3de81ecc5c50040b592827",
          "blockNumber": "0xf4446e",
          "transactionHash": "0x32c86c9b7ea052f32394029959824bcab18e50075af2694c5529d129430a6b63",
          "transactionIndex": "0x3d",
          "logIndex": "0x188",
          "removed": false
        }
      ],
      "logsBloom": "0x00000000000000000000000000000080000000000000000000000008000000000000000000000000000000000000000000008000000000000000000000200000000000000000000000000000000004000000000000000000000002000000000000000000000000000000000000000000000000000000000000000000000000000000000000000000000000000000000000000000000000000000000000000000020000000000000000000000000000000000000000000000000000000000000000000000000000000000000000000000000000004000000000000000000000000010000001000000000000200000000000000000000000000000000000004000",
      "type": "0x2",
      "transactionHash": "0x32c86c9b7ea052f32394029959824bcab18e50075af2694c5529d129430a6b63",
      "transactionIndex": "0x3d",
      "blockHash": "0xdd26e16b069401796e4b0e05033216120e184f0d7c3de81ecc5c50040b592827",
      "blockNumber": "0xf4446e",
      "gasUsed": "0xd09e",
      "effectiveGasPrice": "0x15f38e5",
      "from": "0xa9bbbdde822789f123667044443dc7001fb43c01",
      "to": "0x0000206329b97db379d5e1bf586bbdb969c63274",
      "contractAddress": null,
      "l1Fee": "0x5ec367dff",
      "l1GasPrice": "0x23dcd296a",
      "l1GasUsed": "0x960"
    },
    {
      "status": "0x1",
      "cumulativeGasUsed": "0xa263da",
      "logs": [
        {
          "address": "0x46415998764c29ab2a25cbea6254146d50d22687",
          "topics": [
            "0x7120161a7b3d31251e01294ab351ef15a41b91659a36032e4641bb89b121e321",
            "0x72defbe3b6b9f9799801c74b727bc614d81ede34761c967e2f32da7ddec8a1ce"
          ],
          "data": "0x0000000000000000000000000000000000000000000000000000000012e67a00000000000000000000000000000000000000000000000000000000004b99b105",
          "blockHash": "0x48bb8c0d7cd115b1fbb9fd238d5cfe9316c574d09fa0d40b8be7c8bc7d5a5e16",
          "blockNumber": "0xf44471",
          "transactionHash": "0xbf78e12b7c9681d4f2351023e3b3f24d054243a199f280146a56c857af5e810f",
          "transactionIndex": "0x33",
          "logIndex": "0x9c",
          "removed": false
        },
        {
          "address": "0xbbbbbbbbbb9cc5e90e3b3af64bdaf62c37eeffcb",
          "topics": [
            "0x9d9bd501d0657d7dfe415f779a620a62b78bc508ddc0891fbbd8b7ac0f8fce87",
            "0x72defbe3b6b9f9799801c74b727bc614d81ede34761c967e2f32da7ddec8a1ce"
          ],
          "data": "0x0000000000000000000000000000000000000000000000000000000012e67a0000000000000000000000000000000000000000000000000000000000000000000000000000000000000000000000000000000000000000000000000000000000",
          "blockHash": "0x48bb8c0d7cd115b1fbb9fd238d5cfe9316c574d09fa0d40b8be7c8bc7d5a5e16",
          "blockNumber": "0xf44471",
          "transactionHash": "0xbf78e12b7c9681d4f2351023e3b3f24d054243a199f280146a56c857af5e810f",
          "transactionIndex": "0x33",
          "logIndex": "0x9d",
          "removed": false
        },
        {
          "address": "0xbbbbbbbbbb9cc5e90e3b3af64bdaf62c37eeffcb",
          "topics": [
            "0xedf8870433c83823eb071d3df1caa8d008f12f6440918c20d75a3602cda30fe0",
            "0x72defbe3b6b9f9799801c74b727bc614d81ede34761c967e2f32da7ddec8a1ce",
            "0x000000000000000000000000a9bbbdde822789f123667044443dc7001fb43c01",
            "0x000000000000000000000000a9bbbdde822789f123667044443dc7001fb43c01"
          ],
          "data": "0x0000000000000000000000000000000000000000000000000de0b6b3a764000000000000000000000000000000000000000000000000d3c21bcecceda1000000",
          "blockHash": "0x48bb8c0d7cd115b1fbb9fd238d5cfe9316c574d09fa0d40b8be7c8bc7d5a5e16",
          "blockNumber": "0xf44471",
          "transactionHash": "0xbf78e12b7c9681d4f2351023e3b3f24d054243a199f280146a56c857af5e810f",
          "transactionIndex": "0x33",
          "logIndex": "0x9e",
          "removed": false
        },
        {
          "address": "0x0000206329b97db379d5e1bf586bbdb969c63274",
          "topics": [
            "0x8c5be1e5ebec7d5bd14f71427d1e84f3dd0314c0f7b2291e5b200ac8c7c3b925",
            "0x000000000000000000000000a9bbbdde822789f123667044443dc7001fb43c01",
            "0x000000000000000000000000bbbbbbbbbb9cc5e90e3b3af64bdaf62c37eeffcb"
          ],
          "data": "0x0000000000000000000000000000000000000000000000000000000000000000",
          "blockHash": "0x48bb8c0d7cd115b1fbb9fd238d5cfe9316c574d09fa0d40b8be7c8bc7d5a5e16",
          "blockNumber": "0xf44471",
          "transactionHash": "0xbf78e12b7c9681d4f2351023e3b3f24d054243a199f280146a56c857af5e810f",
          "transactionIndex": "0x33",
          "logIndex": "0x9f",
          "removed": false
        },
        {
          "address": "0x0000206329b97db379d5e1bf586bbdb969c63274",
          "topics": [
            "0xddf252ad1be2c89b69c2b068fc378daa952ba7f163c4a11628f55a4df523b3ef",
            "0x000000000000000000000000a9bbbdde822789f123667044443dc7001fb43c01",
            "0x000000000000000000000000bbbbbbbbbb9cc5e90e3b3af64bdaf62c37eeffcb"
          ],
          "data": "0x0000000000000000000000000000000000000000000000000de0b6b3a7640000",
          "blockHash": "0x48bb8c0d7cd115b1fbb9fd238d5cfe9316c574d09fa0d40b8be7c8bc7d5a5e16",
          "blockNumber": "0xf44471",
          "transactionHash": "0xbf78e12b7c9681d4f2351023e3b3f24d054243a199f280146a56c857af5e810f",
          "transactionIndex": "0x33",
          "logIndex": "0xa0",
          "removed": false
        }
      ],
      "logsBloom": "0x00000000000000000000000000000080000000000000000000000208000000000000400000000100000000000000000000008000000000000000000020a04000000000000010000000000008800004000000000800000000000002080000000000000000000000000000000000000000000000000000000000000010000000000000000000000008000000000000000000000000000000000008000000000000020000000000000000000000000000000000000000000000000000000000000020000002000000000000000000000000000110004000000000000000000000400010000001000040000000200001000000000000000000000000000000004000",
      "type": "0x2",
      "transactionHash": "0xbf78e12b7c9681d4f2351023e3b3f24d054243a199f280146a56c857af5e810f",
      "transactionIndex": "0x33",
      "blockHash": "0x48bb8c0d7cd115b1fbb9fd238d5cfe9316c574d09fa0d40b8be7c8bc7d5a5e16",
      "blockNumber": "0xf44471",
      "gasUsed": "0x1eb37",
      "effectiveGasPrice": "0x15f1a83",
      "from": "0xa9bbbdde822789f123667044443dc7001fb43c01",
      "to": "0xbbbbbbbbbb9cc5e90e3b3af64bdaf62c37eeffcb",
      "contractAddress": null,
      "l1Fee": "0xb1ae62c3f",
      "l1GasPrice": "0x23dcd296a",
      "l1GasUsed": "0x1194"
    },
    {
      "status": "0x1",
      "cumulativeGasUsed": "0x119bf59",
      "logs": [
        {
          "address": "0xc1cba3fcea344f92d9239c08c0568f6f2f0ee452",
          "topics": [
            "0x8c5be1e5ebec7d5bd14f71427d1e84f3dd0314c0f7b2291e5b200ac8c7c3b925",
            "0x000000000000000000000000a9bbbdde822789f123667044443dc7001fb43c01",
            "0x000000000000000000000000bbbbbbbbbb9cc5e90e3b3af64bdaf62c37eeffcb"
          ],
          "data": "0x00000000000000000000000000000000000000000000000000071afd498d0000",
          "blockHash": "0xb6965d17e55cfadf0c5cef9194e8eb5924a9e6bead51e8d8c82007ed89101886",
          "blockNumber": "0xf44475",
          "transactionHash": "0x0daa710fb288c97e24a969e8b7062912ad74a7856c389dd3c263bac8bb1707c8",
          "transactionIndex": "0x38",
          "logIndex": "0x18c",
          "removed": false
        }
      ],
      "logsBloom": "0x00000000000000000000000000000080000000000000000000000008000000000000000000000000000000000000000000008000000000000000000000200000000000000000000000000000400000000000000000000000000002000000000000000000000000000000000000000000000000000000000000000000000000000000000000000000000000000000000000000000000000000000000000000000020000000000000000000000000000000000000000000000000000000000000040000000000000000000000000000000000000000000000000000000000000000010000001000000000000200000000000000080000000000000000000000000",
      "type": "0x2",
      "transactionHash": "0x0daa710fb288c97e24a969e8b7062912ad74a7856c389dd3c263bac8bb1707c8",
      "transactionIndex": "0x38",
      "blockHash": "0xb6965d17e55cfadf0c5cef9194e8eb5924a9e6bead51e8d8c82007ed89101886",
      "blockNumber": "0xf44475",
      "gasUsed": "0xc84b",
      "effectiveGasPrice": "0x15e9cf7",
      "from": "0xa9bbbdde822789f123667044443dc7001fb43c01",
      "to": "0xc1cba3fcea344f92d9239c08c0568f6f2f0ee452",
      "contractAddress": null,
      "l1Fee": "0x5d169f365",
      "l1GasPrice": "0x230daeffd",
      "l1GasUsed": "0x96c"
    },
    {
      "status": "0x1",
      "cumulativeGasUsed": "0xacb2e7",
      "logs": [
        {
          "address": "0xbbbbbbbbbb9cc5e90e3b3af64bdaf62c37eeffcb",
          "topics": [
            "0xa3b9472a1399e17e123f3c2e6586c23e504184d504de59cdaa2b375e880c6184",
            "0x72defbe3b6b9f9799801c74b727bc614d81ede34761c967e2f32da7ddec8a1ce",
            "0x000000000000000000000000a9bbbdde822789f123667044443dc7001fb43c01",
            "0x000000000000000000000000a9bbbdde822789f123667044443dc7001fb43c01"
          ],
          "data": "0x00000000000000000000000000000000000000000000000000071afd498d0000",
          "blockHash": "0x77ec08c7a0080d2425caaf3ef748d827206baa8454032432be5bc555200050a0",
          "blockNumber": "0xf44478",
          "transactionHash": "0x31fcb171cd9cc12fc5841474c909e3613ef848946e76ecd3525bbed4ef4b904f",
          "transactionIndex": "0x4c",
          "logIndex": "0x11b",
          "removed": false
        },
        {
          "address": "0xc1cba3fcea344f92d9239c08c0568f6f2f0ee452",
          "topics": [
            "0x8c5be1e5ebec7d5bd14f71427d1e84f3dd0314c0f7b2291e5b200ac8c7c3b925",
            "0x000000000000000000000000a9bbbdde822789f123667044443dc7001fb43c01",
            "0x000000000000000000000000bbbbbbbbbb9cc5e90e3b3af64bdaf62c37eeffcb"
          ],
          "data": "0x0000000000000000000000000000000000000000000000000000000000000000",
          "blockHash": "0x77ec08c7a0080d2425caaf3ef748d827206baa8454032432be5bc555200050a0",
          "blockNumber": "0xf44478",
          "transactionHash": "0x31fcb171cd9cc12fc5841474c909e3613ef848946e76ecd3525bbed4ef4b904f",
          "transactionIndex": "0x4c",
          "logIndex": "0x11c",
          "removed": false
        },
        {
          "address": "0xc1cba3fcea344f92d9239c08c0568f6f2f0ee452",
          "topics": [
            "0xddf252ad1be2c89b69c2b068fc378daa952ba7f163c4a11628f55a4df523b3ef",
            "0x000000000000000000000000a9bbbdde822789f123667044443dc7001fb43c01",
            "0x000000000000000000000000bbbbbbbbbb9cc5e90e3b3af64bdaf62c37eeffcb"
          ],
          "data": "0x00000000000000000000000000000000000000000000000000071afd498d0000",
          "blockHash": "0x77ec08c7a0080d2425caaf3ef748d827206baa8454032432be5bc555200050a0",
          "blockNumber": "0xf44478",
          "transactionHash": "0x31fcb171cd9cc12fc5841474c909e3613ef848946e76ecd3525bbed4ef4b904f",
          "transactionIndex": "0x4c",
          "logIndex": "0x11d",
          "removed": false
        }
      ],
      "logsBloom": "0x00000000000000000000000000000080000000000000000000000208000000000000000000000000000000000000000000008000000000000000000000200000000000000010000000000008400000000000000000000000000002000000000000000000000000000000000000000000000000000000000000000010000000000000008000000008000000000000000000000000000000000000000000000000020000000000000000000000000000000000000000000000000000000000000060000002000000000000000000000000000010000000000400000000000000000010000001000040000000200000200000000080000000000000000000000000",
      "type": "0x2",
      "transactionHash": "0x31fcb171cd9cc12fc5841474c909e3613ef848946e76ecd3525bbed4ef4b904f",
      "transactionIndex": "0x4c",
      "blockHash": "0x77ec08c7a0080d2425caaf3ef748d827206baa8454032432be5bc555200050a0",
      "blockNumber": "0xf44478",
      "gasUsed": "0x12a12",
      "effectiveGasPrice": "0x15e9bad",
      "from": "0xa9bbbdde822789f123667044443dc7001fb43c01",
      "to": "0xbbbbbbbbbb9cc5e90e3b3af64bdaf62c37eeffcb",
      "contractAddress": null,
      "l1Fee": "0xa7ce5a042",
      "l1GasPrice": "0x230daeffd",
      "l1GasUsed": "0x10fc"
    },
    {
      "status": "0x1",
      "cumulativeGasUsed": "0xc4681c",
      "logs": [
        {
          "address": "0x46415998764c29ab2a25cbea6254146d50d22687",
          "topics": [
            "0x7120161a7b3d31251e01294ab351ef15a41b91659a36032e4641bb89b121e321",
            "0x72defbe3b6b9f9799801c74b727bc614d81ede34761c967e2f32da7ddec8a1ce"
          ],
          "data": "0x0000000000000000000000000000000000000000000000000000000012e656a7000000000000000000000000000000000000000000000000000000004b990434",
          "blockHash": "0xe6608992980b10adc158f1f7033a123b27413fa7947741fa895c5adb1e141bcc",
          "blockNumber": "0xf4447c",
          "transactionHash": "0xd4a4a43a8de21ec9a7c69588164e19174228e927a07fe2db7584e700ae05f01a",
          "transactionIndex": "0x32",
          "logIndex": "0xec",
          "removed": false
        },
        {
          "address": "0xbbbbbbbbbb9cc5e90e3b3af64bdaf62c37eeffcb",
          "topics": [
            "0x9d9bd501d0657d7dfe415f779a620a62b78bc508ddc0891fbbd8b7ac0f8fce87",
            "0x72defbe3b6b9f9799801c74b727bc614d81ede34761c967e2f32da7ddec8a1ce"
          ],
          "data": "0x0000000000000000000000000000000000000000000000000000000012e656a700000000000000000000000000000000000000000000000000000000000000000000000000000000000000000000000000000000000000000000000000000000",
          "blockHash": "0xe6608992980b10adc158f1f7033a123b27413fa7947741fa895c5adb1e141bcc",
          "blockNumber": "0xf4447c",
          "transactionHash": "0xd4a4a43a8de21ec9a7c69588164e19174228e927a07fe2db7584e700ae05f01a",
          "transactionIndex": "0x32",
          "logIndex": "0xed",
          "removed": false
        },
        {
          "address": "0xbbbbbbbbbb9cc5e90e3b3af64bdaf62c37eeffcb",
          "topics": [
            "0x570954540bed6b1304a87dfe815a5eda4a648f7097a16240dcd85c9b5fd42a43",
            "0x72defbe3b6b9f9799801c74b727bc614d81ede34761c967e2f32da7ddec8a1ce",
            "0x000000000000000000000000a9bbbdde822789f123667044443dc7001fb43c01",
            "0x000000000000000000000000a9bbbdde822789f123667044443dc7001fb43c01"
          ],
          "data": "0x000000000000000000000000a9bbbdde822789f123667044443dc7001fb43c010000000000000000000000000000000000000000000000000c7d713b49da000000000000000000000000000000000000000000000000be951906eba2aa800000",
          "blockHash": "0xe6608992980b10adc158f1f7033a123b27413fa7947741fa895c5adb1e141bcc",
          "blockNumber": "0xf4447c",
          "transactionHash": "0xd4a4a43a8de21ec9a7c69588164e19174228e927a07fe2db7584e700ae05f01a",
          "transactionIndex": "0x32",
          "logIndex": "0xee",
          "removed": false
        },
        {
          "address": "0x0000206329b97db379d5e1bf586bbdb969c63274",
          "topics": [
            "0xddf252ad1be2c89b69c2b068fc378daa952ba7f163c4a11628f55a4df523b3ef",
            "0x000000000000000000000000bbbbbbbbbb9cc5e90e3b3af64bdaf62c37eeffcb",
            "0x000000000000000000000000a9bbbdde822789f123667044443dc7001fb43c01"
          ],
          "data": "0x0000000000000000000000000000000000000000000000000c7d713b49da0000",
          "blockHash": "0xe6608992980b10adc158f1f7033a123b27413fa7947741fa895c5adb1e141bcc",
          "blockNumber": "0xf4447c",
          "transactionHash": "0xd4a4a43a8de21ec9a7c69588164e19174228e927a07fe2db7584e700ae05f01a",
          "transactionIndex": "0x32",
          "logIndex": "0xef",
          "removed": false
        }
      ],
      "logsBloom": "0x00000000000000000002000000000080000000000000000000000208000000000000400000000100000000000000000000008000000000000000000020804000000000000010000000000008000004000000000000000000000002080000000000000000000000000000000000000000000000000000000000000010000000000000000000000008000000000000000000000000000000000008000000000000000000000000000000000000000000000000000000000000000000000000000020000002000000000000000000000000000110004000000000000000000000000000004001000048000000200001000000000000000000000000000000004000",
      "type": "0x2",
      "transactionHash": "0xd4a4a43a8de21ec9a7c69588164e19174228e927a07fe2db7584e700ae05f01a",
      "transactionIndex": "0x32",
      "blockHash": "0xe6608992980b10adc158f1f7033a123b27413fa7947741fa895c5adb1e141bcc",
      "blockNumber": "0xf4447c",
      "gasUsed": "0x24ec1",
      "effectiveGasPrice": "0x15edb07",
      "from": "0xa9bbbdde822789f123667044443dc7001fb43c01",
      "to": "0xbbbbbbbbbb9cc5e90e3b3af64bdaf62c37eeffcb",
      "contractAddress": null,
      "l1Fee": "0xab7bad056",
      "l1GasPrice": "0x22096812b",
      "l1GasUsed": "0x11e0"
    }
  ],
  "libraries": [],
  "pending": [],
  "returns": {},
  "timestamp": 1718805986,
  "chain": 8453,
  "commit": "0489249"
}