{
  "transactions": [
    {
      "hash": "0x188bb28a05e86738e69778cd3b48d300169afc674b888878471cd12f9e5b3ad9",
      "transactionType": "CALL",
      "contractName": null,
      "contractAddress": "0x2dc205f24bcb6b311e5cdf0745b0741648aebd3d",
      "function": "createMorphoChainlinkOracleV2(address,uint256,address,address,uint256,address,uint256,address,address,uint256,bytes32)",
      "arguments": [
        "0x0000000000000000000000000000000000000000",
        "1",
        "0x806b4Ac04501c29769051e42783cF04dCE41440b",
        "0x71041dddad3595F9CEd3DcCFBe3D1F4b0a16Bb70",
        "18",
        "0x0000000000000000000000000000000000000000",
        "1",
        "0x0000000000000000000000000000000000000000",
        "0x0000000000000000000000000000000000000000",
        "18",
        "0x0000000000000000000000000000000000000000000000000000000000000000"
      ],
      "transaction": {
        "from": "0xa9bbbdde822789f123667044443dc7001fb43c01",
        "to": "0x2dc205f24bcb6b311e5cdf0745b0741648aebd3d",
        "gas": "0xd16f2",
        "value": "0x0",
        "input": "0xb32cddf400000000000000000000000000000000000000000000000000000000000000000000000000000000000000000000000000000000000000000000000000000001000000000000000000000000806b4ac04501c29769051e42783cf04dce41440b00000000000000000000000071041dddad3595f9ced3dccfbe3d1f4b0a16bb700000000000000000000000000000000000000000000000000000000000000012000000000000000000000000000000000000000000000000000000000000000000000000000000000000000000000000000000000000000000000000000000010000000000000000000000000000000000000000000000000000000000000000000000000000000000000000000000000000000000000000000000000000000000000000000000000000000000000000000000000000000000000000000000120000000000000000000000000000000000000000000000000000000000000000",
        "nonce": "0x13",
        "chainId": "0x2105"
      },
      "additionalContracts": [
        {
          "transactionType": "CREATE2",
          "address": "0x826943587ffdaa11c3bfd730644d6dc299e51278",
          "initCode": "0x6101a08060405234620002fa578062000f1e803803809162000022828562000331565b833961014092839181010312620002fa576200003e8162000355565b91602082015190620000536040840162000355565b90620000626060850162000355565b926080850151956200007760a0870162000355565b9060c0870151956200008c60e0890162000355565b95610100996200009e8b8b0162000355565b6101209a8b0151956001600160a01b0386811615801590620002ef575b620000d190620000ca6200036a565b90620003bf565b811615801590620002e4575b620000ec90620000ca6200036a565b8715956200015a6040516200010181620002ff565b601f8152620001397f7661756c7420636f6e76657273696f6e2073616d706c65206973207a65726f00918260208201528a15620003bf565b604051906200014882620002ff565b601f825260208201528d1515620003bf565b6080528760a05260c0528960e052828c52838b5288885261016098818a52602496870190818811620002cf57620001bd620001ca94620001c4620001bd95620001b6620001bd620001d19b9a97620001b6620001ca986200045b565b9062000429565b916200045b565b6200044d565b906200044d565b604d8111620002ba57600a0a868102968188041490151715620002a5576200029157506101809304835260405193610a269586620004f8873960805186818161014b0152610304015260a0518681816102e301526105b9015260c0518681816103ac0152610560015260e05186818161038b01526104f301525185818160d9015261032d0152518481816101b9015261035c0152518381816103d5015261049a01525182818161027f01526103fe01525181818161021201526104250152f35b634e487b7160e01b60009081526012600452fd5b50634e487b7160e01b60009081526011600452fd5b82634e487b7160e01b60005260116004526000fd5b87634e487b7160e01b60005260116004526000fd5b5060018b14620000dd565b5060018914620000bb565b600080fd5b604081019081106001600160401b038211176200031b57604052565b634e487b7160e01b600052604160045260246000fd5b601f909101601f19168101906001600160401b038211908210176200031b57604052565b51906001600160a01b0382168203620002fa57565b60405190606082016001600160401b038111838210176200031b5760405260228252616e6560f01b6040837f7661756c7420636f6e76657273696f6e2073616d706c65206973206e6f74206f60208201520152565b15620003c85750565b6040519062461bcd60e51b82528160208060048301528251908160248401526000935b8285106200040f575050604492506000838284010152601f80199101168101030190fd5b8481018201518686016044015293810193859350620003eb565b919082018092116200043757565b634e487b7160e01b600052601160045260246000fd5b919082039182116200043757565b6001600160a01b03168015620004f15760206004916040519283809263313ce56760e01b82525afa908115620004e5576000916200049b575b5060ff1690565b6020813d8211620004dc575b81620004b66020938362000331565b81010312620004d857519060ff82168203620004d5575060ff62000494565b80fd5b5080fd5b3d9150620004a7565b6040513d6000823e3d90fd5b5060009056fe60806040818152600436101561001457600080fd5b600091823560e01c908163054f7ac014610584575080632e6f20a614610516578063461739d2146104be57806356095e1114610450578063a035b1fe146102a3578063acfbd39e14610235578063ce4b5bbe146101dd578063dc53858c1461016f578063eaa2d7b4146101015763f50a47181461009057600080fd5b346100fd57817ffffffffffffffffffffffffffffffffffffffffffffffffffffffffffffffffc3601126100fd576020905173ffffffffffffffffffffffffffffffffffffffff7f0000000000000000000000000000000000000000000000000000000000000000168152f35b5080fd5b50346100fd57817ffffffffffffffffffffffffffffffffffffffffffffffffffffffffffffffffc3601126100fd576020905173ffffffffffffffffffffffffffffffffffffffff7f0000000000000000000000000000000000000000000000000000000000000000168152f35b50346100fd57817ffffffffffffffffffffffffffffffffffffffffffffffffffffffffffffffffc3601126100fd576020905173ffffffffffffffffffffffffffffffffffffffff7f0000000000000000000000000000000000000000000000000000000000000000168152f35b50346100fd57817ffffffffffffffffffffffffffffffffffffffffffffffffffffffffffffffffc3601126100fd57602090517f00000000000000000000000000000000000000000000000000000000000000008152f35b50346100fd57817ffffffffffffffffffffffffffffffffffffffffffffffffffffffffffffffffc3601126100fd576020905173ffffffffffffffffffffffffffffffffffffffff7f0000000000000000000000000000000000000000000000000000000000000000168152f35b50346100fd57817ffffffffffffffffffffffffffffffffffffffffffffffffffffffffffffffffc3601126100fd576020906104496103806103576103287f00000000000000000000000000000000000000000000000000000000000000007f000000000000000000000000000000000000000000000000000000000000000061094a565b6103517f00000000000000000000000000000000000000000000000000000000000000006107a5565b906105dc565b6103517f00000000000000000000000000000000000000000000000000000000000000006107a5565b6104226103f96103d07f00000000000000000000000000000000000000000000000000000000000000007f000000000000000000000000000000000000000000000000000000000000000061094a565b6103517f00000000000000000000000000000000000000000000000000000000000000006107a5565b6103517f00000000000000000000000000000000000000000000000000000000000000006107a5565b907f000000000000000000000000000000000000000000000000000000000000000061061e565b9051908152f35b50346100fd57817ffffffffffffffffffffffffffffffffffffffffffffffffffffffffffffffffc3601126100fd576020905173ffffffffffffffffffffffffffffffffffffffff7f0000000000000000000000000000000000000000000000000000000000000000168152f35b50346100fd57817ffffffffffffffffffffffffffffffffffffffffffffffffffffffffffffffffc3601126100fd57602090517f00000000000000000000000000000000000000000000000000000000000000008152f35b50346100fd57817ffffffffffffffffffffffffffffffffffffffffffffffffffffffffffffffffc3601126100fd576020905173ffffffffffffffffffffffffffffffffffffffff7f0000000000000000000000000000000000000000000000000000000000000000168152f35b8390346100fd57817ffffffffffffffffffffffffffffffffffffffffffffffffffffffffffffffffc3601126100fd576020907f00000000000000000000000000000000000000000000000000000000000000008152f35b818102929181159184041417156105ef57565b7f4e487b7100000000000000000000000000000000000000000000000000000000600052601160045260246000fd5b9091828202917fffffffffffffffffffffffffffffffffffffffffffffffffffffffffffffffff848209938380861095039480860395146106dc57848311156106b25782910981600003821680920460028082600302188083028203028083028203028083028203028083028203028083028203028092029003029360018380600003040190848311900302920304170290565b60046040517f227bc153000000000000000000000000000000000000000000000000000000008152fd5b5050809250156106ea570490565b7f4e487b7100000000000000000000000000000000000000000000000000000000600052601260045260246000fd5b90601f7fffffffffffffffffffffffffffffffffffffffffffffffffffffffffffffffe0910116810190811067ffffffffffffffff82111761075a57604052565b7f4e487b7100000000000000000000000000000000000000000000000000000000600052604160045260246000fd5b519069ffffffffffffffffffff821682036107a057565b600080fd5b73ffffffffffffffffffffffffffffffffffffffff1680156109445760049060a06040918251938480927ffeaf968c0000000000000000000000000000000000000000000000000000000082525afa918215610939576000926108e8575b50805181810181811067ffffffffffffffff82111761075a578252600f81526020917f6e6567617469766520616e73776572000000000000000000000000000000000083830152600084126108585750505090565b5180927f08c379a000000000000000000000000000000000000000000000000000000000825280600483015282519283602484015260005b8481106108d1575050507fffffffffffffffffffffffffffffffffffffffffffffffffffffffffffffffe0601f836000604480968601015201168101030190fd5b818101830151868201604401528593508201610890565b909160a0823d8211610931575b8161090260a09383610719565b8101031261092e575061091481610789565b50610926608060208301519201610789565b509038610803565b80fd5b3d91506108f5565b50513d6000823e3d90fd5b50600190565b73ffffffffffffffffffffffffffffffffffffffff169081156109e9576020906024604051809481937f07a2d13a00000000000000000000000000000000000000000000000000000000835260048301525afa9081156109dd576000916109af575090565b906020823d82116109d5575b816109c860209383610719565b8101031261092e57505190565b3d91506109bb565b6040513d6000823e3d90fd5b505060019056fea2646970667358221220de25ff8dd5708a691db44b0da1e6e734e7659c3f9a1801595bc1fa7bf902c00564736f6c6343000815003300000000000000000000000000000000000000000000000000000000000000000000000000000000000000000000000000000000000000000000000000000001000000000000000000000000806b4ac04501c29769051e42783cf04dce41440b00000000000000000000000071041dddad3595f9ced3dccfbe3d1f4b0a16bb70000000000000000000000000000000000000000000000000000000000000001200000000000000000000000000000000000000000000000000000000000000000000000000000000000000000000000000000000000000000000000000000001000000000000000000000000000000000000000000000000000000000000000000000000000000000000000000000000000000000000000000000000000000000000000000000000000000000000000000000000000000000000000000000012"
        }
      ],
      "isFixedGasLimit": false
    },
    {
      "hash": "0x57dce85da73dcff80a7f232ef54ab7b6d437bbcf01b888ac6567d0532767f4ef",
      "transactionType": "CALL",
      "contractName": null,
      "contractAddress": "0xbbbbbbbbbb9cc5e90e3b3af64bdaf62c37eeffcb",
      "function": "createMarket((address,address,address,address,uint256))",
      "arguments": [
        "(0x0000206329b97DB379d5E1Bf586BbDB969C63274, 0x2Ae3F1Ec7F1F5012CFEab0185bfc7aa3cf0DEc22, 0x826943587FfdAA11c3BFd730644d6dc299E51278, 0x46415998764C29aB2a25CbeA6254146D50D22687, 860000000000000000)"
      ],
      "transaction": {
        "from": "0xa9bbbdde822789f123667044443dc7001fb43c01",
        "to": "0xbbbbbbbbbb9cc5e90e3b3af64bdaf62c37eeffcb",
        "gas": "0x42a17",
        "value": "0x0",
        "input": "0x8c1358a20000000000000000000000000000206329b97db379d5e1bf586bbdb969c632740000000000000000000000002ae3f1ec7f1f5012cfeab0185bfc7aa3cf0dec22000000000000000000000000826943587ffdaa11c3bfd730644d6dc299e5127800000000000000000000000046415998764c29ab2a25cbea6254146d50d226870000000000000000000000000000000000000000000000000bef55718ad60000",
        "nonce": "0x14",
        "chainId": "0x2105"
      },
      "additionalContracts": [],
      "isFixedGasLimit": false
    },
    {
      "hash": "0xdc111a42c1ef7dde5be372ab3cc3faa996c6437b31821f785a42b375cbe0f4f0",
      "transactionType": "CALL",
      "contractName": null,
      "contractAddress": "0x0000206329b97db379d5e1bf586bbdb969c63274",
      "function": "approve(address,uint256)",
      "arguments": [
        "0xBBBBBbbBBb9cC5e90e3b3Af64bdAF62C37EEFFCb",
        "1000000000000000000"
      ],
      "transaction": {
        "from": "0xa9bbbdde822789f123667044443dc7001fb43c01",
        "to": "0x0000206329b97db379d5e1bf586bbdb969c63274",
        "gas": "0x12025",
        "value": "0x0",
        "input": "0x095ea7b3000000000000000000000000bbbbbbbbbb9cc5e90e3b3af64bdaf62c37eeffcb0000000000000000000000000000000000000000000000000de0b6b3a7640000",
        "nonce": "0x15",
        "chainId": "0x2105"
      },
      "additionalContracts": [],
      "isFixedGasLimit": false
    },
    {
      "hash": "0x105e68163a79e66fb5fdadf7c41e1439062a8ce5f0b1ba8195292d8633bea83e",
      "transactionType": "CALL",
      "contractName": null,
      "contractAddress": "0xbbbbbbbbbb9cc5e90e3b3af64bdaf62c37eeffcb",
      "function": "supply((address,address,address,address,uint256),uint256,uint256,address,bytes)",
      "arguments": [
        "(0x0000206329b97DB379d5E1Bf586BbDB969C63274, 0x2Ae3F1Ec7F1F5012CFEab0185bfc7aa3cf0DEc22, 0x826943587FfdAA11c3BFd730644d6dc299E51278, 0x46415998764C29aB2a25CbeA6254146D50D22687, 860000000000000000)",
        "1000000000000000000",
        "0",
        "0xa9bbbDDe822789F123667044443dc7001fb43C01",
        "0x"
      ],
      "transaction": {
        "from": "0xa9bbbdde822789f123667044443dc7001fb43c01",
        "to": "0xbbbbbbbbbb9cc5e90e3b3af64bdaf62c37eeffcb",
        "gas": "0x28766",
        "value": "0x0",
        "input": "0xa99aad890000000000000000000000000000206329b97db379d5e1bf586bbdb969c632740000000000000000000000002ae3f1ec7f1f5012cfeab0185bfc7aa3cf0dec22000000000000000000000000826943587ffdaa11c3bfd730644d6dc299e5127800000000000000000000000046415998764c29ab2a25cbea6254146d50d226870000000000000000000000000000000000000000000000000bef55718ad600000000000000000000000000000000000000000000000000000de0b6b3a76400000000000000000000000000000000000000000000000000000000000000000000000000000000000000000000a9bbbdde822789f123667044443dc7001fb43c0100000000000000000000000000000000000000000000000000000000000001200000000000000000000000000000000000000000000000000000000000000000",
        "nonce": "0x16",
        "chainId": "0x2105"
      },
      "additionalContracts": [],
      "isFixedGasLimit": false
    },
    {
      "hash": "0xd7c5bf905669b7460a73db353bf998a8d7f6b5475bf4ec5273ec7ac3a6639d46",
      "transactionType": "CALL",
      "contractName": null,
      "contractAddress": "0x2ae3f1ec7f1f5012cfeab0185bfc7aa3cf0dec22",
      "function": "approve(address,uint256)",
      "arguments": [
        "0xBBBBBbbBBb9cC5e90e3b3Af64bdAF62C37EEFFCb",
        "2000000000000000"
      ],
      "transaction": {
        "from": "0xa9bbbdde822789f123667044443dc7001fb43c01",
        "to": "0x2ae3f1ec7f1f5012cfeab0185bfc7aa3cf0dec22",
        "gas": "0x1143c",
        "value": "0x0",
        "input": "0x095ea7b3000000000000000000000000bbbbbbbbbb9cc5e90e3b3af64bdaf62c37eeffcb00000000000000000000000000000000000000000000000000071afd498d0000",
        "nonce": "0x17",
        "chainId": "0x2105"
      },
      "additionalContracts": [],
      "isFixedGasLimit": false
    },
    {
      "hash": "0x2244cc669794096a2ee3c86bb156e8d81ac345e7b45434a6cb58c900467e9df6",
      "transactionType": "CALL",
      "contractName": null,
      "contractAddress": "0xbbbbbbbbbb9cc5e90e3b3af64bdaf62c37eeffcb",
      "function": "supplyCollateral((address,address,address,address,uint256),uint256,address,bytes)",
      "arguments": [
        "(0x0000206329b97DB379d5E1Bf586BbDB969C63274, 0x2Ae3F1Ec7F1F5012CFEab0185bfc7aa3cf0DEc22, 0x826943587FfdAA11c3BFd730644d6dc299E51278, 0x46415998764C29aB2a25CbeA6254146D50D22687, 860000000000000000)",
        "2000000000000000",
        "0xa9bbbDDe822789F123667044443dc7001fb43C01",
        "0x"
      ],
      "transaction": {
        "from": "0xa9bbbdde822789f123667044443dc7001fb43c01",
        "to": "0xbbbbbbbbbb9cc5e90e3b3af64bdaf62c37eeffcb",
        "gas": "0x19b15",
        "value": "0x0",
        "input": "0x238d65790000000000000000000000000000206329b97db379d5e1bf586bbdb969c632740000000000000000000000002ae3f1ec7f1f5012cfeab0185bfc7aa3cf0dec22000000000000000000000000826943587ffdaa11c3bfd730644d6dc299e5127800000000000000000000000046415998764c29ab2a25cbea6254146d50d226870000000000000000000000000000000000000000000000000bef55718ad6000000000000000000000000000000000000000000000000000000071afd498d0000000000000000000000000000a9bbbdde822789f123667044443dc7001fb43c0100000000000000000000000000000000000000000000000000000000000001000000000000000000000000000000000000000000000000000000000000000000",
        "nonce": "0x18",
        "chainId": "0x2105"
      },
      "additionalContracts": [],
      "isFixedGasLimit": false
    },
    {
      "hash": "0xca6f557753064b9f70497fb9a15c191f9cf73de07da848cb836bd43f9150540e",
      "transactionType": "CALL",
      "contractName": null,
      "contractAddress": "0xbbbbbbbbbb9cc5e90e3b3af64bdaf62c37eeffcb",
      "function": "borrow((address,address,address,address,uint256),uint256,uint256,address,address)",
      "arguments": [
        "(0x0000206329b97DB379d5E1Bf586BbDB969C63274, 0x2Ae3F1Ec7F1F5012CFEab0185bfc7aa3cf0DEc22, 0x826943587FfdAA11c3BFd730644d6dc299E51278, 0x46415998764C29aB2a25CbeA6254146D50D22687, 860000000000000000)",
        "900000000000000000",
        "0",
        "0xa9bbbDDe822789F123667044443dc7001fb43C01",
        "0xa9bbbDDe822789F123667044443dc7001fb43C01"
      ],
      "transaction": {
        "from": "0xa9bbbdde822789f123667044443dc7001fb43c01",
        "to": "0xbbbbbbbbbb9cc5e90e3b3af64bdaf62c37eeffcb",
        "gas": "0x2bd4f",
        "value": "0x0",
        "input": "0x50d8cd4b0000000000000000000000000000206329b97db379d5e1bf586bbdb969c632740000000000000000000000002ae3f1ec7f1f5012cfeab0185bfc7aa3cf0dec22000000000000000000000000826943587ffdaa11c3bfd730644d6dc299e5127800000000000000000000000046415998764c29ab2a25cbea6254146d50d226870000000000000000000000000000000000000000000000000bef55718ad600000000000000000000000000000000000000000000000000000c7d713b49da00000000000000000000000000000000000000000000000000000000000000000000000000000000000000000000a9bbbdde822789f123667044443dc7001fb43c01000000000000000000000000a9bbbdde822789f123667044443dc7001fb43c01",
        "nonce": "0x19",
        "chainId": "0x2105"
      },
      "additionalContracts": [],
      "isFixedGasLimit": false
    },
    {
      "hash": "0x1f2519c535ed8e2c6516381b8b77ee3e14e3a8a72df75acb8773623420da27fb",
      "transactionType": "CALL",
      "contractName": null,
      "contractAddress": "0x2dc205f24bcb6b311e5cdf0745b0741648aebd3d",
      "function": "createMorphoChainlinkOracleV2(address,uint256,address,address,uint256,address,uint256,address,address,uint256,bytes32)",
      "arguments": [
        "0x0000000000000000000000000000000000000000",
        "1",
        "0xFC1415403EbB0c693f9a7844b92aD2Ff24775C65",
        "0x71041dddad3595F9CEd3DcCFBe3D1F4b0a16Bb70",
        "18",
        "0x0000000000000000000000000000000000000000",
        "1",
        "0x0000000000000000000000000000000000000000",
        "0x0000000000000000000000000000000000000000",
        "18",
        "0x0000000000000000000000000000000000000000000000000000000000000000"
      ],
      "transaction": {
        "from": "0xa9bbbdde822789f123667044443dc7001fb43c01",
        "to": "0x2dc205f24bcb6b311e5cdf0745b0741648aebd3d",
        "gas": "0xd16f2",
        "value": "0x0",
        "input": "0xb32cddf400000000000000000000000000000000000000000000000000000000000000000000000000000000000000000000000000000000000000000000000000000001000000000000000000000000fc1415403ebb0c693f9a7844b92ad2ff24775c6500000000000000000000000071041dddad3595f9ced3dccfbe3d1f4b0a16bb700000000000000000000000000000000000000000000000000000000000000012000000000000000000000000000000000000000000000000000000000000000000000000000000000000000000000000000000000000000000000000000000010000000000000000000000000000000000000000000000000000000000000000000000000000000000000000000000000000000000000000000000000000000000000000000000000000000000000000000000000000000000000000000000120000000000000000000000000000000000000000000000000000000000000000",
        "nonce": "0x1a",
        "chainId": "0x2105"
      },
      "additionalContracts": [
        {
          "transactionType": "CREATE2",
          "address": "0xf5169264192d5844d2504a5791825ae756f73c36",
          "initCode": "0x6101a08060405234620002fa578062000f1e803803809162000022828562000331565b833961014092839181010312620002fa576200003e8162000355565b91602082015190620000536040840162000355565b90620000626060850162000355565b926080850151956200007760a0870162000355565b9060c0870151956200008c60e0890162000355565b95610100996200009e8b8b0162000355565b6101209a8b0151956001600160a01b0386811615801590620002ef575b620000d190620000ca6200036a565b90620003bf565b811615801590620002e4575b620000ec90620000ca6200036a565b8715956200015a6040516200010181620002ff565b601f8152620001397f7661756c7420636f6e76657273696f6e2073616d706c65206973207a65726f00918260208201528a15620003bf565b604051906200014882620002ff565b601f825260208201528d1515620003bf565b6080528760a05260c0528960e052828c52838b5288885261016098818a52602496870190818811620002cf57620001bd620001ca94620001c4620001bd95620001b6620001bd620001d19b9a97620001b6620001ca986200045b565b9062000429565b916200045b565b6200044d565b906200044d565b604d8111620002ba57600a0a868102968188041490151715620002a5576200029157506101809304835260405193610a269586620004f8873960805186818161014b0152610304015260a0518681816102e301526105b9015260c0518681816103ac0152610560015260e05186818161038b01526104f301525185818160d9015261032d0152518481816101b9015261035c0152518381816103d5015261049a01525182818161027f01526103fe01525181818161021201526104250152f35b634e487b7160e01b60009081526012600452fd5b50634e487b7160e01b60009081526011600452fd5b82634e487b7160e01b60005260116004526000fd5b87634e487b7160e01b60005260116004526000fd5b5060018b14620000dd565b5060018914620000bb565b600080fd5b604081019081106001600160401b038211176200031b57604052565b634e487b7160e01b600052604160045260246000fd5b601f909101601f19168101906001600160401b038211908210176200031b57604052565b51906001600160a01b0382168203620002fa57565b60405190606082016001600160401b038111838210176200031b5760405260228252616e6560f01b6040837f7661756c7420636f6e76657273696f6e2073616d706c65206973206e6f74206f60208201520152565b15620003c85750565b6040519062461bcd60e51b82528160208060048301528251908160248401526000935b8285106200040f575050604492506000838284010152601f80199101168101030190fd5b8481018201518686016044015293810193859350620003eb565b919082018092116200043757565b634e487b7160e01b600052601160045260246000fd5b919082039182116200043757565b6001600160a01b03168015620004f15760206004916040519283809263313ce56760e01b82525afa908115620004e5576000916200049b575b5060ff1690565b6020813d8211620004dc575b81620004b66020938362000331565b81010312620004d857519060ff82168203620004d5575060ff62000494565b80fd5b5080fd5b3d9150620004a7565b6040513d6000823e3d90fd5b5060009056fe60806040818152600436101561001457600080fd5b600091823560e01c908163054f7ac014610584575080632e6f20a614610516578063461739d2146104be57806356095e1114610450578063a035b1fe146102a3578063acfbd39e14610235578063ce4b5bbe146101dd578063dc53858c1461016f578063eaa2d7b4146101015763f50a47181461009057600080fd5b346100fd57817ffffffffffffffffffffffffffffffffffffffffffffffffffffffffffffffffc3601126100fd576020905173ffffffffffffffffffffffffffffffffffffffff7f0000000000000000000000000000000000000000000000000000000000000000168152f35b5080fd5b50346100fd57817ffffffffffffffffffffffffffffffffffffffffffffffffffffffffffffffffc3601126100fd576020905173ffffffffffffffffffffffffffffffffffffffff7f0000000000000000000000000000000000000000000000000000000000000000168152f35b50346100fd57817ffffffffffffffffffffffffffffffffffffffffffffffffffffffffffffffffc3601126100fd576020905173ffffffffffffffffffffffffffffffffffffffff7f0000000000000000000000000000000000000000000000000000000000000000168152f35b50346100fd57817ffffffffffffffffffffffffffffffffffffffffffffffffffffffffffffffffc3601126100fd57602090517f00000000000000000000000000000000000000000000000000000000000000008152f35b50346100fd57817ffffffffffffffffffffffffffffffffffffffffffffffffffffffffffffffffc3601126100fd576020905173ffffffffffffffffffffffffffffffffffffffff7f0000000000000000000000000000000000000000000000000000000000000000168152f35b50346100fd57817ffffffffffffffffffffffffffffffffffffffffffffffffffffffffffffffffc3601126100fd576020906104496103806103576103287f00000000000000000000000000000000000000000000000000000000000000007f000000000000000000000000000000000000000000000000000000000000000061094a565b6103517f00000000000000000000000000000000000000000000000000000000000000006107a5565b906105dc565b6103517f00000000000000000000000000000000000000000000000000000000000000006107a5565b6104226103f96103d07f00000000000000000000000000000000000000000000000000000000000000007f000000000000000000000000000000000000000000000000000000000000000061094a565b6103517f00000000000000000000000000000000000000000000000000000000000000006107a5565b6103517f00000000000000000000000000000000000000000000000000000000000000006107a5565b907f000000000000000000000000000000000000000000000000000000000000000061061e565b9051908152f35b50346100fd57817ffffffffffffffffffffffffffffffffffffffffffffffffffffffffffffffffc3601126100fd576020905173ffffffffffffffffffffffffffffffffffffffff7f0000000000000000000000000000000000000000000000000000000000000000168152f35b50346100fd57817ffffffffffffffffffffffffffffffffffffffffffffffffffffffffffffffffc3601126100fd57602090517f00000000000000000000000000000000000000000000000000000000000000008152f35b50346100fd57817ffffffffffffffffffffffffffffffffffffffffffffffffffffffffffffffffc3601126100fd576020905173ffffffffffffffffffffffffffffffffffffffff7f0000000000000000000000000000000000000000000000000000000000000000168152f35b8390346100fd57817ffffffffffffffffffffffffffffffffffffffffffffffffffffffffffffffffc3601126100fd576020907f00000000000000000000000000000000000000000000000000000000000000008152f35b818102929181159184041417156105ef57565b7f4e487b7100000000000000000000000000000000000000000000000000000000600052601160045260246000fd5b9091828202917fffffffffffffffffffffffffffffffffffffffffffffffffffffffffffffffff848209938380861095039480860395146106dc57848311156106b25782910981600003821680920460028082600302188083028203028083028203028083028203028083028203028083028203028092029003029360018380600003040190848311900302920304170290565b60046040517f227bc153000000000000000000000000000000000000000000000000000000008152fd5b5050809250156106ea570490565b7f4e487b7100000000000000000000000000000000000000000000000000000000600052601260045260246000fd5b90601f7fffffffffffffffffffffffffffffffffffffffffffffffffffffffffffffffe0910116810190811067ffffffffffffffff82111761075a57604052565b7f4e487b7100000000000000000000000000000000000000000000000000000000600052604160045260246000fd5b519069ffffffffffffffffffff821682036107a057565b600080fd5b73ffffffffffffffffffffffffffffffffffffffff1680156109445760049060a06040918251938480927ffeaf968c0000000000000000000000000000000000000000000000000000000082525afa918215610939576000926108e8575b50805181810181811067ffffffffffffffff82111761075a578252600f81526020917f6e6567617469766520616e73776572000000000000000000000000000000000083830152600084126108585750505090565b5180927f08c379a000000000000000000000000000000000000000000000000000000000825280600483015282519283602484015260005b8481106108d1575050507fffffffffffffffffffffffffffffffffffffffffffffffffffffffffffffffe0601f836000604480968601015201168101030190fd5b818101830151868201604401528593508201610890565b909160a0823d8211610931575b8161090260a09383610719565b8101031261092e575061091481610789565b50610926608060208301519201610789565b509038610803565b80fd5b3d91506108f5565b50513d6000823e3d90fd5b50600190565b73ffffffffffffffffffffffffffffffffffffffff169081156109e9576020906024604051809481937f07a2d13a00000000000000000000000000000000000000000000000000000000835260048301525afa9081156109dd576000916109af575090565b906020823d82116109d5575b816109c860209383610719565b8101031261092e57505190565b3d91506109bb565b6040513d6000823e3d90fd5b505060019056fea2646970667358221220de25ff8dd5708a691db44b0da1e6e734e7659c3f9a1801595bc1fa7bf902c00564736f6c6343000815003300000000000000000000000000000000000000000000000000000000000000000000000000000000000000000000000000000000000000000000000000000001000000000000000000000000fc1415403ebb0c693f9a7844b92ad2ff24775c6500000000000000000000000071041dddad3595f9ced3dccfbe3d1f4b0a16bb70000000000000000000000000000000000000000000000000000000000000001200000000000000000000000000000000000000000000000000000000000000000000000000000000000000000000000000000000000000000000000000000001000000000000000000000000000000000000000000000000000000000000000000000000000000000000000000000000000000000000000000000000000000000000000000000000000000000000000000000000000000000000000000000012"
        }
      ],
      "isFixedGasLimit": false
    },
    {
      "hash": "0xa6b8acedd527fa22d597c7b4da341c978e68a25a38c8c03b9a365e1b3c2a6a8d",
      "transactionType": "CALL",
      "contractName": null,
      "contractAddress": "0xbbbbbbbbbb9cc5e90e3b3af64bdaf62c37eeffcb",
      "function": "createMarket((address,address,address,address,uint256))",
      "arguments": [
        "(0x0000206329b97DB379d5E1Bf586BbDB969C63274, 0x04C0599Ae5A44757c0af6F9eC3b93da8976c150A, 0xf5169264192D5844d2504A5791825AE756f73c36, 0x46415998764C29aB2a25CbeA6254146D50D22687, 860000000000000000)"
      ],
      "transaction": {
        "from": "0xa9bbbdde822789f123667044443dc7001fb43c01",
        "to": "0xbbbbbbbbbb9cc5e90e3b3af64bdaf62c37eeffcb",
        "gas": "0x42a17",
        "value": "0x0",
        "input": "0x8c1358a20000000000000000000000000000206329b97db379d5e1bf586bbdb969c6327400000000000000000000000004c0599ae5a44757c0af6f9ec3b93da8976c150a000000000000000000000000f5169264192d5844d2504a5791825ae756f73c3600000000000000000000000046415998764c29ab2a25cbea6254146d50d226870000000000000000000000000000000000000000000000000bef55718ad60000",
        "nonce": "0x1b",
        "chainId": "0x2105"
      },
      "additionalContracts": [],
      "isFixedGasLimit": false
    },
    {
      "hash": "0xfb0e701712441907dec6cfecd66f06dfc09ea70560be4960ca4de5240a72696b",
      "transactionType": "CALL",
      "contractName": null,
      "contractAddress": "0x0000206329b97db379d5e1bf586bbdb969c63274",
      "function": "approve(address,uint256)",
      "arguments": [
        "0xBBBBBbbBBb9cC5e90e3b3Af64bdAF62C37EEFFCb",
        "1000000000000000000"
      ],
      "transaction": {
        "from": "0xa9bbbdde822789f123667044443dc7001fb43c01",
        "to": "0x0000206329b97db379d5e1bf586bbdb969c63274",
        "gas": "0x12025",
        "value": "0x0",
        "input": "0x095ea7b3000000000000000000000000bbbbbbbbbb9cc5e90e3b3af64bdaf62c37eeffcb0000000000000000000000000000000000000000000000000de0b6b3a7640000",
        "nonce": "0x1c",
        "chainId": "0x2105"
      },
      "additionalContracts": [],
      "isFixedGasLimit": false
    },
    {
      "hash": "0xc54f62f32ce1b6f103b4f9503c1647274d8afe53ece6a4a309b4917a1d315e35",
      "transactionType": "CALL",
      "contractName": null,
      "contractAddress": "0xbbbbbbbbbb9cc5e90e3b3af64bdaf62c37eeffcb",
      "function": "supply((address,address,address,address,uint256),uint256,uint256,address,bytes)",
      "arguments": [
        "(0x0000206329b97DB379d5E1Bf586BbDB969C63274, 0x04C0599Ae5A44757c0af6F9eC3b93da8976c150A, 0xf5169264192D5844d2504A5791825AE756f73c36, 0x46415998764C29aB2a25CbeA6254146D50D22687, 860000000000000000)",
        "1000000000000000000",
        "0",
        "0xa9bbbDDe822789F123667044443dc7001fb43C01",
        "0x"
      ],
      "transaction": {
        "from": "0xa9bbbdde822789f123667044443dc7001fb43c01",
        "to": "0xbbbbbbbbbb9cc5e90e3b3af64bdaf62c37eeffcb",
        "gas": "0x24bcb",
        "value": "0x0",
        "input": "0xa99aad890000000000000000000000000000206329b97db379d5e1bf586bbdb969c6327400000000000000000000000004c0599ae5a44757c0af6f9ec3b93da8976c150a000000000000000000000000f5169264192d5844d2504a5791825ae756f73c3600000000000000000000000046415998764c29ab2a25cbea6254146d50d226870000000000000000000000000000000000000000000000000bef55718ad600000000000000000000000000000000000000000000000000000de0b6b3a76400000000000000000000000000000000000000000000000000000000000000000000000000000000000000000000a9bbbdde822789f123667044443dc7001fb43c0100000000000000000000000000000000000000000000000000000000000001200000000000000000000000000000000000000000000000000000000000000000",
        "nonce": "0x1d",
        "chainId": "0x2105"
      },
      "additionalContracts": [],
      "isFixedGasLimit": false
    },
    {
      "hash": "0x85ae8a6de3bbca506a462e4c80ca93397e2e68c6121003dc2b0855655e45228e",
      "transactionType": "CALL",
      "contractName": null,
      "contractAddress": "0x04c0599ae5a44757c0af6f9ec3b93da8976c150a",
      "function": "approve(address,uint256)",
      "arguments": [
        "0xBBBBBbbBBb9cC5e90e3b3Af64bdAF62C37EEFFCb",
        "2000000000000000"
      ],
      "transaction": {
        "from": "0xa9bbbdde822789f123667044443dc7001fb43c01",
        "to": "0x04c0599ae5a44757c0af6f9ec3b93da8976c150a",
        "gas": "0x11572",
        "value": "0x0",
        "input": "0x095ea7b3000000000000000000000000bbbbbbbbbb9cc5e90e3b3af64bdaf62c37eeffcb00000000000000000000000000000000000000000000000000071afd498d0000",
        "nonce": "0x1e",
        "chainId": "0x2105"
      },
      "additionalContracts": [],
      "isFixedGasLimit": false
    },
    {
      "hash": "0x94a01fbc7bb45fa86c75b5e20d76ffa4cca1c5262983b16fb72cb7e997187ccb",
      "transactionType": "CALL",
      "contractName": null,
      "contractAddress": "0xbbbbbbbbbb9cc5e90e3b3af64bdaf62c37eeffcb",
      "function": "supplyCollateral((address,address,address,address,uint256),uint256,address,bytes)",
      "arguments": [
        "(0x0000206329b97DB379d5E1Bf586BbDB969C63274, 0x04C0599Ae5A44757c0af6F9eC3b93da8976c150A, 0xf5169264192D5844d2504A5791825AE756f73c36, 0x46415998764C29aB2a25CbeA6254146D50D22687, 860000000000000000)",
        "2000000000000000",
        "0xa9bbbDDe822789F123667044443dc7001fb43C01",
        "0x"
      ],
      "transaction": {
        "from": "0xa9bbbdde822789f123667044443dc7001fb43c01",
        "to": "0xbbbbbbbbbb9cc5e90e3b3af64bdaf62c37eeffcb",
        "gas": "0x19388",
        "value": "0x0",
        "input": "0x238d65790000000000000000000000000000206329b97db379d5e1bf586bbdb969c6327400000000000000000000000004c0599ae5a44757c0af6f9ec3b93da8976c150a000000000000000000000000f5169264192d5844d2504a5791825ae756f73c3600000000000000000000000046415998764c29ab2a25cbea6254146d50d226870000000000000000000000000000000000000000000000000bef55718ad6000000000000000000000000000000000000000000000000000000071afd498d0000000000000000000000000000a9bbbdde822789f123667044443dc7001fb43c0100000000000000000000000000000000000000000000000000000000000001000000000000000000000000000000000000000000000000000000000000000000",
        "nonce": "0x1f",
        "chainId": "0x2105"
      },
      "additionalContracts": [],
      "isFixedGasLimit": false
    },
    {
      "hash": "0xa4dc630bad95125a178bf8a930266d6d613ff9ddbcd0ef007ddafd7fa07459fd",
      "transactionType": "CALL",
      "contractName": null,
      "contractAddress": "0xbbbbbbbbbb9cc5e90e3b3af64bdaf62c37eeffcb",
      "function": "borrow((address,address,address,address,uint256),uint256,uint256,address,address)",
      "arguments": [
        "(0x0000206329b97DB379d5E1Bf586BbDB969C63274, 0x04C0599Ae5A44757c0af6F9eC3b93da8976c150A, 0xf5169264192D5844d2504A5791825AE756f73c36, 0x46415998764C29aB2a25CbeA6254146D50D22687, 860000000000000000)",
        "900000000000000000",
        "0",
        "0xa9bbbDDe822789F123667044443dc7001fb43C01",
        "0xa9bbbDDe822789F123667044443dc7001fb43C01"
      ],
      "transaction": {
        "from": "0xa9bbbdde822789f123667044443dc7001fb43c01",
        "to": "0xbbbbbbbbbb9cc5e90e3b3af64bdaf62c37eeffcb",
        "gas": "0x2bd4f",
        "value": "0x0",
        "input": "0x50d8cd4b0000000000000000000000000000206329b97db379d5e1bf586bbdb969c6327400000000000000000000000004c0599ae5a44757c0af6f9ec3b93da8976c150a000000000000000000000000f5169264192d5844d2504a5791825ae756f73c3600000000000000000000000046415998764c29ab2a25cbea6254146d50d226870000000000000000000000000000000000000000000000000bef55718ad600000000000000000000000000000000000000000000000000000c7d713b49da00000000000000000000000000000000000000000000000000000000000000000000000000000000000000000000a9bbbdde822789f123667044443dc7001fb43c01000000000000000000000000a9bbbdde822789f123667044443dc7001fb43c01",
        "nonce": "0x20",
        "chainId": "0x2105"
      },
      "additionalContracts": [],
      "isFixedGasLimit": false
    },
    {
      "hash": "0x57775f085534aa656811aef39bbdbb20d13167d909242cd72f27e7daabb394f4",
      "transactionType": "CALL",
      "contractName": null,
      "contractAddress": "0xbbbbbbbbbb9cc5e90e3b3af64bdaf62c37eeffcb",
      "function": "createMarket((address,address,address,address,uint256))",
      "arguments": [
        "(0x0000206329b97DB379d5E1Bf586BbDB969C63274, 0x2416092f143378750bb29b79eD961ab195CcEea5, 0x4B5086653F9db675df31a618971e0EC26f6f081F, 0x46415998764C29aB2a25CbeA6254146D50D22687, 860000000000000000)"
      ],
      "transaction": {
        "from": "0xa9bbbdde822789f123667044443dc7001fb43c01",
        "to": "0xbbbbbbbbbb9cc5e90e3b3af64bdaf62c37eeffcb",
        "gas": "0x42a17",
        "value": "0x0",
        "input": "0x8c1358a20000000000000000000000000000206329b97db379d5e1bf586bbdb969c632740000000000000000000000002416092f143378750bb29b79ed961ab195cceea50000000000000000000000004b5086653f9db675df31a618971e0ec26f6f081f00000000000000000000000046415998764c29ab2a25cbea6254146d50d226870000000000000000000000000000000000000000000000000bef55718ad60000",
        "nonce": "0x21",
        "chainId": "0x2105"
      },
      "additionalContracts": [],
      "isFixedGasLimit": false
    },
    {
      "hash": "0x995f239bd5e7b6cd55d1a2126c6a097c66aa8078c5686e2d83afe5cbc8156278",
      "transactionType": "CALL",
      "contractName": null,
      "contractAddress": "0x0000206329b97db379d5e1bf586bbdb969c63274",
      "function": "approve(address,uint256)",
      "arguments": [
        "0xBBBBBbbBBb9cC5e90e3b3Af64bdAF62C37EEFFCb",
        "1000000000000000000"
      ],
      "transaction": {
        "from": "0xa9bbbdde822789f123667044443dc7001fb43c01",
        "to": "0x0000206329b97db379d5e1bf586bbdb969c63274",
        "gas": "0x12025",
        "value": "0x0",
        "input": "0x095ea7b3000000000000000000000000bbbbbbbbbb9cc5e90e3b3af64bdaf62c37eeffcb0000000000000000000000000000000000000000000000000de0b6b3a7640000",
        "nonce": "0x22",
        "chainId": "0x2105"
      },
      "additionalContracts": [],
      "isFixedGasLimit": false
    },
    {
      "hash": "0xfa22ab4a316e4db3dff627b262785407f9a0845d5c9cca6015a39e6074b00dd3",
      "transactionType": "CALL",
      "contractName": null,
      "contractAddress": "0xbbbbbbbbbb9cc5e90e3b3af64bdaf62c37eeffcb",
      "function": "supply((address,address,address,address,uint256),uint256,uint256,address,bytes)",
      "arguments": [
        "(0x0000206329b97DB379d5E1Bf586BbDB969C63274, 0x2416092f143378750bb29b79eD961ab195CcEea5, 0x4B5086653F9db675df31a618971e0EC26f6f081F, 0x46415998764C29aB2a25CbeA6254146D50D22687, 860000000000000000)",
        "1000000000000000000",
        "0",
        "0xa9bbbDDe822789F123667044443dc7001fb43C01",
        "0x"
      ],
      "transaction": {
        "from": "0xa9bbbdde822789f123667044443dc7001fb43c01",
        "to": "0xbbbbbbbbbb9cc5e90e3b3af64bdaf62c37eeffcb",
        "gas": "0x24bcb",
        "value": "0x0",
        "input": "0xa99aad890000000000000000000000000000206329b97db379d5e1bf586bbdb969c632740000000000000000000000002416092f143378750bb29b79ed961ab195cceea50000000000000000000000004b5086653f9db675df31a618971e0ec26f6f081f00000000000000000000000046415998764c29ab2a25cbea6254146d50d226870000000000000000000000000000000000000000000000000bef55718ad600000000000000000000000000000000000000000000000000000de0b6b3a76400000000000000000000000000000000000000000000000000000000000000000000000000000000000000000000a9bbbdde822789f123667044443dc7001fb43c0100000000000000000000000000000000000000000000000000000000000001200000000000000000000000000000000000000000000000000000000000000000",
        "nonce": "0x23",
        "chainId": "0x2105"
      },
      "additionalContracts": [],
      "isFixedGasLimit": false
    },
    {
      "hash": "0x95691cfcc062b7572643a8453f761b3ef7ef912abb67ac4cbf1ef5e367fe5fdf",
      "transactionType": "CALL",
      "contractName": null,
      "contractAddress": "0x2416092f143378750bb29b79ed961ab195cceea5",
      "function": "approve(address,uint256)",
      "arguments": [
        "0xBBBBBbbBBb9cC5e90e3b3Af64bdAF62C37EEFFCb",
        "2000000000000000"
      ],
      "transaction": {
        "from": "0xa9bbbdde822789f123667044443dc7001fb43c01",
        "to": "0x2416092f143378750bb29b79ed961ab195cceea5",
        "gas": "0x13166",
        "value": "0x0",
        "input": "0x095ea7b3000000000000000000000000bbbbbbbbbb9cc5e90e3b3af64bdaf62c37eeffcb00000000000000000000000000000000000000000000000000071afd498d0000",
        "nonce": "0x24",
        "chainId": "0x2105"
      },
      "additionalContracts": [],
      "isFixedGasLimit": false
    },
    {
      "hash": "0xdcb03ddcf5e5199bb07df7df19e1377c780112bf6cb723490437ce43fff71298",
      "transactionType": "CALL",
      "contractName": null,
      "contractAddress": "0xbbbbbbbbbb9cc5e90e3b3af64bdaf62c37eeffcb",
      "function": "supplyCollateral((address,address,address,address,uint256),uint256,address,bytes)",
      "arguments": [
        "(0x0000206329b97DB379d5E1Bf586BbDB969C63274, 0x2416092f143378750bb29b79eD961ab195CcEea5, 0x4B5086653F9db675df31a618971e0EC26f6f081F, 0x46415998764C29aB2a25CbeA6254146D50D22687, 860000000000000000)",
        "2000000000000000",
        "0xa9bbbDDe822789F123667044443dc7001fb43C01",
        "0x"
      ],
      "transaction": {
        "from": "0xa9bbbdde822789f123667044443dc7001fb43c01",
        "to": "0xbbbbbbbbbb9cc5e90e3b3af64bdaf62c37eeffcb",
        "gas": "0x1c071",
        "value": "0x0",
        "input": "0x238d65790000000000000000000000000000206329b97db379d5e1bf586bbdb969c632740000000000000000000000002416092f143378750bb29b79ed961ab195cceea50000000000000000000000004b5086653f9db675df31a618971e0ec26f6f081f00000000000000000000000046415998764c29ab2a25cbea6254146d50d226870000000000000000000000000000000000000000000000000bef55718ad6000000000000000000000000000000000000000000000000000000071afd498d0000000000000000000000000000a9bbbdde822789f123667044443dc7001fb43c0100000000000000000000000000000000000000000000000000000000000001000000000000000000000000000000000000000000000000000000000000000000",
        "nonce": "0x25",
        "chainId": "0x2105"
      },
      "additionalContracts": [],
      "isFixedGasLimit": false
    },
    {
      "hash": "0xd4089b10d2d36493ff7002f32ecb0135d0ed0fbbfdd124f746e05bff48f22b49",
      "transactionType": "CALL",
      "contractName": null,
      "contractAddress": "0xbbbbbbbbbb9cc5e90e3b3af64bdaf62c37eeffcb",
      "function": "borrow((address,address,address,address,uint256),uint256,uint256,address,address)",
      "arguments": [
        "(0x0000206329b97DB379d5E1Bf586BbDB969C63274, 0x2416092f143378750bb29b79eD961ab195CcEea5, 0x4B5086653F9db675df31a618971e0EC26f6f081F, 0x46415998764C29aB2a25CbeA6254146D50D22687, 860000000000000000)",
        "900000000000000000",
        "0",
        "0xa9bbbDDe822789F123667044443dc7001fb43C01",
        "0xa9bbbDDe822789F123667044443dc7001fb43C01"
      ],
      "transaction": {
        "from": "0xa9bbbdde822789f123667044443dc7001fb43c01",
        "to": "0xbbbbbbbbbb9cc5e90e3b3af64bdaf62c37eeffcb",
        "gas": "0x2bd4f",
        "value": "0x0",
        "input": "0x50d8cd4b0000000000000000000000000000206329b97db379d5e1bf586bbdb969c632740000000000000000000000002416092f143378750bb29b79ed961ab195cceea50000000000000000000000004b5086653f9db675df31a618971e0ec26f6f081f00000000000000000000000046415998764c29ab2a25cbea6254146d50d226870000000000000000000000000000000000000000000000000bef55718ad600000000000000000000000000000000000000000000000000000c7d713b49da00000000000000000000000000000000000000000000000000000000000000000000000000000000000000000000a9bbbdde822789f123667044443dc7001fb43c01000000000000000000000000a9bbbdde822789f123667044443dc7001fb43c01",
        "nonce": "0x26",
        "chainId": "0x2105"
      },
      "additionalContracts": [],
      "isFixedGasLimit": false
    },
    {
      "hash": "0x74f74a58fd2ff66a7a011d03fa485358e3cfbb1e8339ab0b13e01b268d632fcc",
      "transactionType": "CALL",
      "contractName": null,
      "contractAddress": "0xbbbbbbbbbb9cc5e90e3b3af64bdaf62c37eeffcb",
      "function": "createMarket((address,address,address,address,uint256))",
      "arguments": [
        "(0x0000206329b97DB379d5E1Bf586BbDB969C63274, 0xc1CBa3fCea344f92D9239c08C0568f6F2F0ee452, 0x040ba460Ed355833a0693348421C7f1fd831D0c7, 0x46415998764C29aB2a25CbeA6254146D50D22687, 860000000000000000)"
      ],
      "transaction": {
        "from": "0xa9bbbdde822789f123667044443dc7001fb43c01",
        "to": "0xbbbbbbbbbb9cc5e90e3b3af64bdaf62c37eeffcb",
        "gas": "0x42a17",
        "value": "0x0",
        "input": "0x8c1358a20000000000000000000000000000206329b97db379d5e1bf586bbdb969c63274000000000000000000000000c1cba3fcea344f92d9239c08c0568f6f2f0ee452000000000000000000000000040ba460ed355833a0693348421c7f1fd831d0c700000000000000000000000046415998764c29ab2a25cbea6254146d50d226870000000000000000000000000000000000000000000000000bef55718ad60000",
        "nonce": "0x27",
        "chainId": "0x2105"
      },
      "additionalContracts": [],
      "isFixedGasLimit": false
    },
    {
      "hash": "0x19474929851fcec967fd2ef56f58a1d20f5092c9560cb7ac50c38881fc6b062d",
      "transactionType": "CALL",
      "contractName": null,
      "contractAddress": "0x0000206329b97db379d5e1bf586bbdb969c63274",
      "function": "approve(address,uint256)",
      "arguments": [
        "0xBBBBBbbBBb9cC5e90e3b3Af64bdAF62C37EEFFCb",
        "1000000000000000000"
      ],
      "transaction": {
        "from": "0xa9bbbdde822789f123667044443dc7001fb43c01",
        "to": "0x0000206329b97db379d5e1bf586bbdb969c63274",
        "gas": "0x12025",
        "value": "0x0",
        "input": "0x095ea7b3000000000000000000000000bbbbbbbbbb9cc5e90e3b3af64bdaf62c37eeffcb0000000000000000000000000000000000000000000000000de0b6b3a7640000",
        "nonce": "0x28",
        "chainId": "0x2105"
      },
      "additionalContracts": [],
      "isFixedGasLimit": false
    },
    {
      "hash": "0x96280226d7bef4c2ce627f3617a46c4d3a77e95abf2db862e862055d3bf68839",
      "transactionType": "CALL",
      "contractName": null,
      "contractAddress": "0xbbbbbbbbbb9cc5e90e3b3af64bdaf62c37eeffcb",
      "function": "supply((address,address,address,address,uint256),uint256,uint256,address,bytes)",
      "arguments": [
        "(0x0000206329b97DB379d5E1Bf586BbDB969C63274, 0xc1CBa3fCea344f92D9239c08C0568f6F2F0ee452, 0x040ba460Ed355833a0693348421C7f1fd831D0c7, 0x46415998764C29aB2a25CbeA6254146D50D22687, 860000000000000000)",
        "1000000000000000000",
        "0",
        "0xa9bbbDDe822789F123667044443dc7001fb43C01",
        "0x"
      ],
      "transaction": {
        "from": "0xa9bbbdde822789f123667044443dc7001fb43c01",
        "to": "0xbbbbbbbbbb9cc5e90e3b3af64bdaf62c37eeffcb",
        "gas": "0x24bcb",
        "value": "0x0",
        "input": "0xa99aad890000000000000000000000000000206329b97db379d5e1bf586bbdb969c63274000000000000000000000000c1cba3fcea344f92d9239c08c0568f6f2f0ee452000000000000000000000000040ba460ed355833a0693348421c7f1fd831d0c700000000000000000000000046415998764c29ab2a25cbea6254146d50d226870000000000000000000000000000000000000000000000000bef55718ad600000000000000000000000000000000000000000000000000000de0b6b3a76400000000000000000000000000000000000000000000000000000000000000000000000000000000000000000000a9bbbdde822789f123667044443dc7001fb43c0100000000000000000000000000000000000000000000000000000000000001200000000000000000000000000000000000000000000000000000000000000000",
        "nonce": "0x29",
        "chainId": "0x2105"
      },
      "additionalContracts": [],
      "isFixedGasLimit": false
    },
    {
      "hash": "0x28887e2669288854fb8a2d8a496760cf92f47e56c28654e9dc3d157dec9e2fa9",
      "transactionType": "CALL",
      "contractName": null,
      "contractAddress": "0xc1cba3fcea344f92d9239c08c0568f6f2f0ee452",
      "function": "approve(address,uint256)",
      "arguments": [
        "0xBBBBBbbBBb9cC5e90e3b3Af64bdAF62C37EEFFCb",
        "2000000000000000"
      ],
      "transaction": {
        "from": "0xa9bbbdde822789f123667044443dc7001fb43c01",
        "to": "0xc1cba3fcea344f92d9239c08c0568f6f2f0ee452",
        "gas": "0x124ed",
        "value": "0x0",
        "input": "0x095ea7b3000000000000000000000000bbbbbbbbbb9cc5e90e3b3af64bdaf62c37eeffcb00000000000000000000000000000000000000000000000000071afd498d0000",
        "nonce": "0x2a",
        "chainId": "0x2105"
      },
      "additionalContracts": [],
      "isFixedGasLimit": false
    },
    {
      "hash": "0x9b208fbfe3e85cbe65e853d1273c1e6b92a02316f19298cd7c958d36720cfcb1",
      "transactionType": "CALL",
      "contractName": null,
      "contractAddress": "0xbbbbbbbbbb9cc5e90e3b3af64bdaf62c37eeffcb",
      "function": "supplyCollateral((address,address,address,address,uint256),uint256,address,bytes)",
      "arguments": [
        "(0x0000206329b97DB379d5E1Bf586BbDB969C63274, 0xc1CBa3fCea344f92D9239c08C0568f6F2F0ee452, 0x040ba460Ed355833a0693348421C7f1fd831D0c7, 0x46415998764C29aB2a25CbeA6254146D50D22687, 860000000000000000)",
        "2000000000000000",
        "0xa9bbbDDe822789F123667044443dc7001fb43C01",
        "0x"
      ],
      "transaction": {
        "from": "0xa9bbbdde822789f123667044443dc7001fb43c01",
        "to": "0xbbbbbbbbbb9cc5e90e3b3af64bdaf62c37eeffcb",
        "gas": "0x1b3ed",
        "value": "0x0",
        "input": "0x238d65790000000000000000000000000000206329b97db379d5e1bf586bbdb969c63274000000000000000000000000c1cba3fcea344f92d9239c08c0568f6f2f0ee452000000000000000000000000040ba460ed355833a0693348421c7f1fd831d0c700000000000000000000000046415998764c29ab2a25cbea6254146d50d226870000000000000000000000000000000000000000000000000bef55718ad6000000000000000000000000000000000000000000000000000000071afd498d0000000000000000000000000000a9bbbdde822789f123667044443dc7001fb43c0100000000000000000000000000000000000000000000000000000000000001000000000000000000000000000000000000000000000000000000000000000000",
        "nonce": "0x2b",
        "chainId": "0x2105"
      },
      "additionalContracts": [],
      "isFixedGasLimit": false
    },
    {
      "hash": "0x3d1aa1357c3ef96a85ded5e8aaccc19830e654173a158b8a816a76bd4406457c",
      "transactionType": "CALL",
      "contractName": null,
      "contractAddress": "0xbbbbbbbbbb9cc5e90e3b3af64bdaf62c37eeffcb",
      "function": "borrow((address,address,address,address,uint256),uint256,uint256,address,address)",
      "arguments": [
        "(0x0000206329b97DB379d5E1Bf586BbDB969C63274, 0xc1CBa3fCea344f92D9239c08C0568f6F2F0ee452, 0x040ba460Ed355833a0693348421C7f1fd831D0c7, 0x46415998764C29aB2a25CbeA6254146D50D22687, 860000000000000000)",
        "900000000000000000",
        "0",
        "0xa9bbbDDe822789F123667044443dc7001fb43C01",
        "0xa9bbbDDe822789F123667044443dc7001fb43C01"
      ],
      "transaction": {
        "from": "0xa9bbbdde822789f123667044443dc7001fb43c01",
        "to": "0xbbbbbbbbbb9cc5e90e3b3af64bdaf62c37eeffcb",
        "gas": "0x2e853",
        "value": "0x0",
        "input": "0x50d8cd4b0000000000000000000000000000206329b97db379d5e1bf586bbdb969c63274000000000000000000000000c1cba3fcea344f92d9239c08c0568f6f2f0ee452000000000000000000000000040ba460ed355833a0693348421c7f1fd831d0c700000000000000000000000046415998764c29ab2a25cbea6254146d50d226870000000000000000000000000000000000000000000000000bef55718ad600000000000000000000000000000000000000000000000000000c7d713b49da00000000000000000000000000000000000000000000000000000000000000000000000000000000000000000000a9bbbdde822789f123667044443dc7001fb43c01000000000000000000000000a9bbbdde822789f123667044443dc7001fb43c01",
        "nonce": "0x2c",
        "chainId": "0x2105"
      },
      "additionalContracts": [],
      "isFixedGasLimit": false
    }
  ],
  "receipts": [
    {
      "status": "0x1",
      "cumulativeGasUsed": "0x97a07",
      "logs": [
        {
          "address": "0x2dc205f24bcb6b311e5cdf0745b0741648aebd3d",
          "topics": [
            "0x6436acb89463dbc9036f1e52aebf32ac0bf5f69e3987c067110c3ac403ebda33"
          ],
          "data": "0x000000000000000000000000a9bbbdde822789f123667044443dc7001fb43c01000000000000000000000000826943587ffdaa11c3bfd730644d6dc299e51278",
          "blockHash": "0x332c66b6569d68acb1bfc085627540220c29b5ec888b6fa3137794959062ee01",
          "blockNumber": "0xf43b60",
          "blockTimestamp": "0x6672d865",
          "transactionHash": "0x188bb28a05e86738e69778cd3b48d300169afc674b888878471cd12f9e5b3ad9",
          "transactionIndex": "0x0",
          "logIndex": "0x0",
          "removed": false
        }
      ],
      "logsBloom": "0x00000000000000000000000000000000000000000000000000000000000200000000000000000000000000000000000000000000000000000000000000000000000000000000000000000000000000000000000000000000000000000000000000000000000000000000000000000000000000000000000000000000000000000000000000000000000000000000000000002000000000000000000000000000000000000000000000000000000000000000000000000000000000000000000000000000000000000000004000000000000000000000000000000000000000000000000000000080000000002000000000000040000000000000000000000000",
      "type": "0x2",
      "transactionHash": "0x188bb28a05e86738e69778cd3b48d300169afc674b888878471cd12f9e5b3ad9",
      "transactionIndex": "0x0",
      "blockHash": "0x332c66b6569d68acb1bfc085627540220c29b5ec888b6fa3137794959062ee01",
      "blockNumber": "0xf43b60",
      "gasUsed": "0x97a07",
      "effectiveGasPrice": "0xe281c2",
      "blobGasPrice": "0x1",
      "from": "0xa9bbbdde822789f123667044443dc7001fb43c01",
      "to": "0x2dc205f24bcb6b311e5cdf0745b0741648aebd3d",
      "contractAddress": null,
      "root": "0x0000000000000000000000000000000000000000000000000000000000000000"
    },
    {
      "status": "0x1",
      "cumulativeGasUsed": "0x303d5",
      "logs": [
        {
          "address": "0xbbbbbbbbbb9cc5e90e3b3af64bdaf62c37eeffcb",
          "topics": [
            "0xac4b2400f169220b0c0afdde7a0b32e775ba727ea1cb30b35f935cdaab8683ac",
            "0xfba4338b51c9d9b00023dd66a7e62a2d58b815ca15a998b49771591a815a41b2"
          ],
          "data": "0x0000000000000000000000000000206329b97db379d5e1bf586bbdb969c632740000000000000000000000002ae3f1ec7f1f5012cfeab0185bfc7aa3cf0dec22000000000000000000000000826943587ffdaa11c3bfd730644d6dc299e5127800000000000000000000000046415998764c29ab2a25cbea6254146d50d226870000000000000000000000000000000000000000000000000bef55718ad60000",
          "blockHash": "0x0fd93db06bea69121a4dd761adf69e39cc9f95520fd7f8ee6c3125fb064ec727",
          "blockNumber": "0xf43b61",
          "blockTimestamp": "0x6672d866",
          "transactionHash": "0x57dce85da73dcff80a7f232ef54ab7b6d437bbcf01b888ac6567d0532767f4ef",
          "transactionIndex": "0x0",
          "logIndex": "0x0",
          "removed": false
        },
        {
          "address": "0x46415998764c29ab2a25cbea6254146d50d22687",
          "topics": [
            "0x7120161a7b3d31251e01294ab351ef15a41b91659a36032e4641bb89b121e321",
            "0xfba4338b51c9d9b00023dd66a7e62a2d58b815ca15a998b49771591a815a41b2"
          ],
          "data": "0x0000000000000000000000000000000000000000000000000000000012e687bf000000000000000000000000000000000000000000000000000000004b9a1eff",
          "blockHash": "0x0fd93db06bea69121a4dd761adf69e39cc9f95520fd7f8ee6c3125fb064ec727",
          "blockNumber": "0xf43b61",
          "blockTimestamp": "0x6672d866",
          "transactionHash": "0x57dce85da73dcff80a7f232ef54ab7b6d437bbcf01b888ac6567d0532767f4ef",
          "transactionIndex": "0x0",
          "logIndex": "0x1",
          "removed": false
        }
      ],
      "logsBloom": "0x00000000000000000000000000000800000000000000000000000000000000000000000000000100000000000000000000000000000000000000000000804000000000000010000000000000000000000000000000000000000000000000000000000000000000002000000000000000000000000000000000000040000000000000000000000008000000000000000000000000000000000008000000000000000000000000000000000000000000000000000000000000000000000000000020000000000008000000000000000000000140000000000000000000000000000000000000000000000000000001000000000000000000000000000000000010",
      "type": "0x2",
      "transactionHash": "0x57dce85da73dcff80a7f232ef54ab7b6d437bbcf01b888ac6567d0532767f4ef",
      "transactionIndex": "0x0",
      "blockHash": "0x0fd93db06bea69121a4dd761adf69e39cc9f95520fd7f8ee6c3125fb064ec727",
      "blockNumber": "0xf43b61",
      "gasUsed": "0x303d5",
      "effectiveGasPrice": "0xc6ff4c",
      "blobGasPrice": "0x1",
      "from": "0xa9bbbdde822789f123667044443dc7001fb43c01",
      "to": "0xbbbbbbbbbb9cc5e90e3b3af64bdaf62c37eeffcb",
      "contractAddress": null,
      "root": "0x0000000000000000000000000000000000000000000000000000000000000000"
    },
    {
      "status": "0x1",
      "cumulativeGasUsed": "0xd09e",
      "logs": [
        {
          "address": "0x0000206329b97db379d5e1bf586bbdb969c63274",
          "topics": [
            "0x8c5be1e5ebec7d5bd14f71427d1e84f3dd0314c0f7b2291e5b200ac8c7c3b925",
            "0x000000000000000000000000a9bbbdde822789f123667044443dc7001fb43c01",
            "0x000000000000000000000000bbbbbbbbbb9cc5e90e3b3af64bdaf62c37eeffcb"
          ],
          "data": "0x0000000000000000000000000000000000000000000000000de0b6b3a7640000",
          "blockHash": "0x8d8adfff8a8f99294f8b62030b0aa9dcdd8a2ca42e7eff5d7c33b24e8c47925f",
          "blockNumber": "0xf43b62",
          "blockTimestamp": "0x6672d867",
          "transactionHash": "0xdc111a42c1ef7dde5be372ab3cc3faa996c6437b31821f785a42b375cbe0f4f0",
          "transactionIndex": "0x0",
          "logIndex": "0x0",
          "removed": false
        }
      ],
      "logsBloom": "0x00000000000000000000000000000080000000000000000000000008000000000000000000000000000000000000000000008000000000000000000000200000000000000000000000000000000004000000000000000000000002000000000000000000000000000000000000000000000000000000000000000000000000000000000000000000000000000000000000000000000000000000000000000000020000000000000000000000000000000000000000000000000000000000000000000000000000000000000000000000000000004000000000000000000000000010000001000000000000200000000000000000000000000000000000004000",
      "type": "0x2",
      "transactionHash": "0xdc111a42c1ef7dde5be372ab3cc3faa996c6437b31821f785a42b375cbe0f4f0",
      "transactionIndex": "0x0",
      "blockHash": "0x8d8adfff8a8f99294f8b62030b0aa9dcdd8a2ca42e7eff5d7c33b24e8c47925f",
      "blockNumber": "0xf43b62",
      "gasUsed": "0xd09e",
      "effectiveGasPrice": "0xaeab9c",
      "blobGasPrice": "0x1",
      "from": "0xa9bbbdde822789f123667044443dc7001fb43c01",
      "to": "0x0000206329b97db379d5e1bf586bbdb969c63274",
      "contractAddress": null,
      "root": "0x0000000000000000000000000000000000000000000000000000000000000000"
    },
    {
      "status": "0x1",
      "cumulativeGasUsed": "0x22e03",
      "logs": [
        {
          "address": "0x46415998764c29ab2a25cbea6254146d50d22687",
          "topics": [
            "0x7120161a7b3d31251e01294ab351ef15a41b91659a36032e4641bb89b121e321",
            "0xfba4338b51c9d9b00023dd66a7e62a2d58b815ca15a998b49771591a815a41b2"
          ],
          "data": "0x0000000000000000000000000000000000000000000000000000000012e685c8000000000000000000000000000000000000000000000000000000004b9a0f48",
          "blockHash": "0x2db7192d8bf346e7622f44ab791a71b229142cd058e36ea16bbad3f9edb3cc83",
          "blockNumber": "0xf43b63",
          "blockTimestamp": "0x6672d868",
          "transactionHash": "0x105e68163a79e66fb5fdadf7c41e1439062a8ce5f0b1ba8195292d8633bea83e",
          "transactionIndex": "0x0",
          "logIndex": "0x0",
          "removed": false
        },
        {
          "address": "0xbbbbbbbbbb9cc5e90e3b3af64bdaf62c37eeffcb",
          "topics": [
            "0x9d9bd501d0657d7dfe415f779a620a62b78bc508ddc0891fbbd8b7ac0f8fce87",
            "0xfba4338b51c9d9b00023dd66a7e62a2d58b815ca15a998b49771591a815a41b2"
          ],
          "data": "0x0000000000000000000000000000000000000000000000000000000012e685c800000000000000000000000000000000000000000000000000000000000000000000000000000000000000000000000000000000000000000000000000000000",
          "blockHash": "0x2db7192d8bf346e7622f44ab791a71b229142cd058e36ea16bbad3f9edb3cc83",
          "blockNumber": "0xf43b63",
          "blockTimestamp": "0x6672d868",
          "transactionHash": "0x105e68163a79e66fb5fdadf7c41e1439062a8ce5f0b1ba8195292d8633bea83e",
          "transactionIndex": "0x0",
          "logIndex": "0x1",
          "removed": false
        },
        {
          "address": "0xbbbbbbbbbb9cc5e90e3b3af64bdaf62c37eeffcb",
          "topics": [
            "0xedf8870433c83823eb071d3df1caa8d008f12f6440918c20d75a3602cda30fe0",
            "0xfba4338b51c9d9b00023dd66a7e62a2d58b815ca15a998b49771591a815a41b2",
            "0x000000000000000000000000a9bbbdde822789f123667044443dc7001fb43c01",
            "0x000000000000000000000000a9bbbdde822789f123667044443dc7001fb43c01"
          ],
          "data": "0x0000000000000000000000000000000000000000000000000de0b6b3a764000000000000000000000000000000000000000000000000d3c21bcecceda1000000",
          "blockHash": "0x2db7192d8bf346e7622f44ab791a71b229142cd058e36ea16bbad3f9edb3cc83",
          "blockNumber": "0xf43b63",
          "blockTimestamp": "0x6672d868",
          "transactionHash": "0x105e68163a79e66fb5fdadf7c41e1439062a8ce5f0b1ba8195292d8633bea83e",
          "transactionIndex": "0x0",
          "logIndex": "0x2",
          "removed": false
        },
        {
          "address": "0x0000206329b97db379d5e1bf586bbdb969c63274",
          "topics": [
            "0x8c5be1e5ebec7d5bd14f71427d1e84f3dd0314c0f7b2291e5b200ac8c7c3b925",
            "0x000000000000000000000000a9bbbdde822789f123667044443dc7001fb43c01",
            "0x000000000000000000000000bbbbbbbbbb9cc5e90e3b3af64bdaf62c37eeffcb"
          ],
          "data": "0x0000000000000000000000000000000000000000000000000000000000000000",
          "blockHash": "0x2db7192d8bf346e7622f44ab791a71b229142cd058e36ea16bbad3f9edb3cc83",
          "blockNumber": "0xf43b63",
          "blockTimestamp": "0x6672d868",
          "transactionHash": "0x105e68163a79e66fb5fdadf7c41e1439062a8ce5f0b1ba8195292d8633bea83e",
          "transactionIndex": "0x0",
          "logIndex": "0x3",
          "removed": false
        },
        {
          "address": "0x0000206329b97db379d5e1bf586bbdb969c63274",
          "topics": [
            "0xddf252ad1be2c89b69c2b068fc378daa952ba7f163c4a11628f55a4df523b3ef",
            "0x000000000000000000000000a9bbbdde822789f123667044443dc7001fb43c01",
            "0x000000000000000000000000bbbbbbbbbb9cc5e90e3b3af64bdaf62c37eeffcb"
          ],
          "data": "0x0000000000000000000000000000000000000000000000000de0b6b3a7640000",
          "blockHash": "0x2db7192d8bf346e7622f44ab791a71b229142cd058e36ea16bbad3f9edb3cc83",
          "blockNumber": "0xf43b63",
          "blockTimestamp": "0x6672d868",
          "transactionHash": "0x105e68163a79e66fb5fdadf7c41e1439062a8ce5f0b1ba8195292d8633bea83e",
          "transactionIndex": "0x0",
          "logIndex": "0x4",
          "removed": false
        }
      ],
      "logsBloom": "0x00000000000000000000000000000080000000000000000000000008000000000000400000000100000000000000000000008000000000000000000020a04000000000000010000000000008800004000000000800000000000002080000000000000000000000002000000000000000000000000000000000000010000000000000000000000008000000000000000000000000000000000008000000000000020000000000000000000000000000000000000000000000000000000000000020000002000008000000000000000000000140004000000000000000000000400010000001000000000000200001000000000000000000000000000000004000",
      "type": "0x2",
      "transactionHash": "0x105e68163a79e66fb5fdadf7c41e1439062a8ce5f0b1ba8195292d8633bea83e",
      "transactionIndex": "0x0",
      "blockHash": "0x2db7192d8bf346e7622f44ab791a71b229142cd058e36ea16bbad3f9edb3cc83",
      "blockNumber": "0xf43b63",
      "gasUsed": "0x22e03",
      "effectiveGasPrice": "0x994f09",
      "blobGasPrice": "0x1",
      "from": "0xa9bbbdde822789f123667044443dc7001fb43c01",
      "to": "0xbbbbbbbbbb9cc5e90e3b3af64bdaf62c37eeffcb",
      "contractAddress": null,
      "root": "0x0000000000000000000000000000000000000000000000000000000000000000"
    },
    {
      "status": "0x1",
      "cumulativeGasUsed": "0xc7fe",
      "logs": [
        {
          "address": "0x2ae3f1ec7f1f5012cfeab0185bfc7aa3cf0dec22",
          "topics": [
            "0x8c5be1e5ebec7d5bd14f71427d1e84f3dd0314c0f7b2291e5b200ac8c7c3b925",
            "0x000000000000000000000000a9bbbdde822789f123667044443dc7001fb43c01",
            "0x000000000000000000000000bbbbbbbbbb9cc5e90e3b3af64bdaf62c37eeffcb"
          ],
          "data": "0x00000000000000000000000000000000000000000000000000071afd498d0000",
          "blockHash": "0xe759ec29216cd7ad31760f54cfffc18713cec5a4a1b9f8d77dbff94c9d690be6",
          "blockNumber": "0xf43b64",
          "blockTimestamp": "0x6672d869",
          "transactionHash": "0xd7c5bf905669b7460a73db353bf998a8d7f6b5475bf4ec5273ec7ac3a6639d46",
          "transactionIndex": "0x0",
          "logIndex": "0x0",
          "removed": false
        }
      ],
      "logsBloom": "0x00000000000000000000000000000080000000000000000000000008000000000000000000000000000000000000000000008000000000000000000000200000000000000000000000000000000000000000000000000000000002000000000000000000000000000000000000000000000000000000000000000000000000000000000000000000000000000000000000000000000000000000000000000000020000000000000000000000000000000001000000000000000000000000000000000000000000000000000000000000000000000000000000000000000000000010000001000000100000200000000004000000000000000000000000000000",
      "type": "0x2",
      "transactionHash": "0xd7c5bf905669b7460a73db353bf998a8d7f6b5475bf4ec5273ec7ac3a6639d46",
      "transactionIndex": "0x0",
      "blockHash": "0xe759ec29216cd7ad31760f54cfffc18713cec5a4a1b9f8d77dbff94c9d690be6",
      "blockNumber": "0xf43b64",
      "gasUsed": "0xc7fe",
      "effectiveGasPrice": "0x86a613",
      "blobGasPrice": "0x1",
      "from": "0xa9bbbdde822789f123667044443dc7001fb43c01",
      "to": "0x2ae3f1ec7f1f5012cfeab0185bfc7aa3cf0dec22",
      "contractAddress": null,
      "root": "0x0000000000000000000000000000000000000000000000000000000000000000"
    },
    {
      "status": "0x1",
      "cumulativeGasUsed": "0x1299f",
      "logs": [
        {
          "address": "0xbbbbbbbbbb9cc5e90e3b3af64bdaf62c37eeffcb",
          "topics": [
            "0xa3b9472a1399e17e123f3c2e6586c23e504184d504de59cdaa2b375e880c6184",
            "0xfba4338b51c9d9b00023dd66a7e62a2d58b815ca15a998b49771591a815a41b2",
            "0x000000000000000000000000a9bbbdde822789f123667044443dc7001fb43c01",
            "0x000000000000000000000000a9bbbdde822789f123667044443dc7001fb43c01"
          ],
          "data": "0x00000000000000000000000000000000000000000000000000071afd498d0000",
          "blockHash": "0x7b24eebe0925ab21519bd182add6904973361d9dd160a626b08b9e823faabf8c",
          "blockNumber": "0xf43b65",
          "blockTimestamp": "0x6672d86a",
          "transactionHash": "0x2244cc669794096a2ee3c86bb156e8d81ac345e7b45434a6cb58c900467e9df6",
          "transactionIndex": "0x0",
          "logIndex": "0x0",
          "removed": false
        },
        {
          "address": "0x2ae3f1ec7f1f5012cfeab0185bfc7aa3cf0dec22",
          "topics": [
            "0x8c5be1e5ebec7d5bd14f71427d1e84f3dd0314c0f7b2291e5b200ac8c7c3b925",
            "0x000000000000000000000000a9bbbdde822789f123667044443dc7001fb43c01",
            "0x000000000000000000000000bbbbbbbbbb9cc5e90e3b3af64bdaf62c37eeffcb"
          ],
          "data": "0x0000000000000000000000000000000000000000000000000000000000000000",
          "blockHash": "0x7b24eebe0925ab21519bd182add6904973361d9dd160a626b08b9e823faabf8c",
          "blockNumber": "0xf43b65",
          "blockTimestamp": "0x6672d86a",
          "transactionHash": "0x2244cc669794096a2ee3c86bb156e8d81ac345e7b45434a6cb58c900467e9df6",
          "transactionIndex": "0x0",
          "logIndex": "0x1",
          "removed": false
        },
        {
          "address": "0x2ae3f1ec7f1f5012cfeab0185bfc7aa3cf0dec22",
          "topics": [
            "0xddf252ad1be2c89b69c2b068fc378daa952ba7f163c4a11628f55a4df523b3ef",
            "0x000000000000000000000000a9bbbdde822789f123667044443dc7001fb43c01",
            "0x000000000000000000000000bbbbbbbbbb9cc5e90e3b3af64bdaf62c37eeffcb"
          ],
          "data": "0x00000000000000000000000000000000000000000000000000071afd498d0000",
          "blockHash": "0x7b24eebe0925ab21519bd182add6904973361d9dd160a626b08b9e823faabf8c",
          "blockNumber": "0xf43b65",
          "blockTimestamp": "0x6672d86a",
          "transactionHash": "0x2244cc669794096a2ee3c86bb156e8d81ac345e7b45434a6cb58c900467e9df6",
          "transactionIndex": "0x0",
          "logIndex": "0x2",
          "removed": false
        }
      ],
      "logsBloom": "0x00000000000000000000000000000080000000000000000000000008000000000000000000000000000000000000000000008000000000000000000000200000000000000010000000000008000000000000000000000000000002000000000000000000000000002000000000000000000000000000000000000010000000000000008000000008000000000000000000000000000000000000000000000000020000000000000000000000000000000001000000000000000000000000000020000002000008000000000000000000000040000000000400000000000000000010000001000000100000200000200004000000000000000000000000000000",
      "type": "0x2",
      "transactionHash": "0x2244cc669794096a2ee3c86bb156e8d81ac345e7b45434a6cb58c900467e9df6",
      "transactionIndex": "0x0",
      "blockHash": "0x7b24eebe0925ab21519bd182add6904973361d9dd160a626b08b9e823faabf8c",
      "blockNumber": "0xf43b65",
      "gasUsed": "0x1299f",
      "effectiveGasPrice": "0x76489a",
      "blobGasPrice": "0x1",
      "from": "0xa9bbbdde822789f123667044443dc7001fb43c01",
      "to": "0xbbbbbbbbbb9cc5e90e3b3af64bdaf62c37eeffcb",
      "contractAddress": null,
      "root": "0x0000000000000000000000000000000000000000000000000000000000000000"
    },
    {
      "status": "0x1",
      "cumulativeGasUsed": "0x24d8d",
      "logs": [
        {
          "address": "0x46415998764c29ab2a25cbea6254146d50d22687",
          "topics": [
            "0x7120161a7b3d31251e01294ab351ef15a41b91659a36032e4641bb89b121e321",
            "0xfba4338b51c9d9b00023dd66a7e62a2d58b815ca15a998b49771591a815a41b2"
          ],
          "data": "0x0000000000000000000000000000000000000000000000000000000012e680df000000000000000000000000000000000000000000000000000000004b99f7b6",
          "blockHash": "0x72c2ea1992187d362f65f4588735056a0ec57c6c1536b8f5cbe61bea799689e8",
          "blockNumber": "0xf43b66",
          "blockTimestamp": "0x6672d86b",
          "transactionHash": "0xca6f557753064b9f70497fb9a15c191f9cf73de07da848cb836bd43f9150540e",
          "transactionIndex": "0x0",
          "logIndex": "0x0",
          "removed": false
        },
        {
          "address": "0xbbbbbbbbbb9cc5e90e3b3af64bdaf62c37eeffcb",
          "topics": [
            "0x9d9bd501d0657d7dfe415f779a620a62b78bc508ddc0891fbbd8b7ac0f8fce87",
            "0xfba4338b51c9d9b00023dd66a7e62a2d58b815ca15a998b49771591a815a41b2"
          ],
          "data": "0x0000000000000000000000000000000000000000000000000000000012e680df00000000000000000000000000000000000000000000000000000000000000000000000000000000000000000000000000000000000000000000000000000000",
          "blockHash": "0x72c2ea1992187d362f65f4588735056a0ec57c6c1536b8f5cbe61bea799689e8",
          "blockNumber": "0xf43b66",
          "blockTimestamp": "0x6672d86b",
          "transactionHash": "0xca6f557753064b9f70497fb9a15c191f9cf73de07da848cb836bd43f9150540e",
          "transactionIndex": "0x0",
          "logIndex": "0x1",
          "removed": false
        },
        {
          "address": "0xbbbbbbbbbb9cc5e90e3b3af64bdaf62c37eeffcb",
          "topics": [
            "0x570954540bed6b1304a87dfe815a5eda4a648f7097a16240dcd85c9b5fd42a43",
            "0xfba4338b51c9d9b00023dd66a7e62a2d58b815ca15a998b49771591a815a41b2",
            "0x000000000000000000000000a9bbbdde822789f123667044443dc7001fb43c01",
            "0x000000000000000000000000a9bbbdde822789f123667044443dc7001fb43c01"
          ],
          "data": "0x000000000000000000000000a9bbbdde822789f123667044443dc7001fb43c010000000000000000000000000000000000000000000000000c7d713b49da000000000000000000000000000000000000000000000000be951906eba2aa800000",
          "blockHash": "0x72c2ea1992187d362f65f4588735056a0ec57c6c1536b8f5cbe61bea799689e8",
          "blockNumber": "0xf43b66",
          "blockTimestamp": "0x6672d86b",
          "transactionHash": "0xca6f557753064b9f70497fb9a15c191f9cf73de07da848cb836bd43f9150540e",
          "transactionIndex": "0x0",
          "logIndex": "0x2",
          "removed": false
        },
        {
          "address": "0x0000206329b97db379d5e1bf586bbdb969c63274",
          "topics": [
            "0xddf252ad1be2c89b69c2b068fc378daa952ba7f163c4a11628f55a4df523b3ef",
            "0x000000000000000000000000bbbbbbbbbb9cc5e90e3b3af64bdaf62c37eeffcb",
            "0x000000000000000000000000a9bbbdde822789f123667044443dc7001fb43c01"
          ],
          "data": "0x0000000000000000000000000000000000000000000000000c7d713b49da0000",
          "blockHash": "0x72c2ea1992187d362f65f4588735056a0ec57c6c1536b8f5cbe61bea799689e8",
          "blockNumber": "0xf43b66",
          "blockTimestamp": "0x6672d86b",
          "transactionHash": "0xca6f557753064b9f70497fb9a15c191f9cf73de07da848cb836bd43f9150540e",
          "transactionIndex": "0x0",
          "logIndex": "0x3",
          "removed": false
        }
      ],
      "logsBloom": "0x00000000000000000002000000000080000000000000000000000008000000000000400000000100000000000000000000008000000000000000000020804000000000000010000000000008000004000000000000000000000002080000000000000000000000002000000000000000000000000000000000000010000000000000000000000008000000000000000000000000000000000008000000000000000000000000000000000000000000000000000000000000000000000000000020000002000008000000000000000000000140004000000000000000000000000000004001000008000000200001000000000000000000000000000000004000",
      "type": "0x2",
      "transactionHash": "0xca6f557753064b9f70497fb9a15c191f9cf73de07da848cb836bd43f9150540e",
      "transactionIndex": "0x0",
      "blockHash": "0x72c2ea1992187d362f65f4588735056a0ec57c6c1536b8f5cbe61bea799689e8",
      "blockNumber": "0xf43b66",
      "gasUsed": "0x24d8d",
      "effectiveGasPrice": "0x67f825",
      "blobGasPrice": "0x1",
      "from": "0xa9bbbdde822789f123667044443dc7001fb43c01",
      "to": "0xbbbbbbbbbb9cc5e90e3b3af64bdaf62c37eeffcb",
      "contractAddress": null,
      "root": "0x0000000000000000000000000000000000000000000000000000000000000000"
    },
    {
      "status": "0x1",
      "cumulativeGasUsed": "0x97a07",
      "logs": [
        {
          "address": "0x2dc205f24bcb6b311e5cdf0745b0741648aebd3d",
          "topics": [
            "0x6436acb89463dbc9036f1e52aebf32ac0bf5f69e3987c067110c3ac403ebda33"
          ],
          "data": "0x000000000000000000000000a9bbbdde822789f123667044443dc7001fb43c01000000000000000000000000f5169264192d5844d2504a5791825ae756f73c36",
          "blockHash": "0x65f4db7e80f468a9ebf30e0db9dc8d1b6efa7ad6b25f7c9c1237a6e94f7789ae",
          "blockNumber": "0xf43b67",
          "blockTimestamp": "0x6672d86c",
          "transactionHash": "0x1f2519c535ed8e2c6516381b8b77ee3e14e3a8a72df75acb8773623420da27fb",
          "transactionIndex": "0x0",
          "logIndex": "0x0",
          "removed": false
        }
      ],
      "logsBloom": "0x00000000000000000000000000000000000000000000000000000000000200000000000000000000000000000000000000000000000000000000000000000000000000000000000000000000000000000000000000000000000000000000000000000000000000000000000000000000000000000000000000000000000000000000000000000000000000000000000000002000000000000000000000000000000000000000000000000000000000000000000000000000000000000000000000000000000000000000004000000000000000000000000000000000000000000000000000000080000000002000000000000040000000000000000000000000",
      "type": "0x2",
      "transactionHash": "0x1f2519c535ed8e2c6516381b8b77ee3e14e3a8a72df75acb8773623420da27fb",
      "transactionIndex": "0x0",
      "blockHash": "0x65f4db7e80f468a9ebf30e0db9dc8d1b6efa7ad6b25f7c9c1237a6e94f7789ae",
      "blockNumber": "0xf43b67",
      "gasUsed": "0x97a07",
      "effectiveGasPrice": "0x5b75f4",
      "blobGasPrice": "0x1",
      "from": "0xa9bbbdde822789f123667044443dc7001fb43c01",
      "to": "0x2dc205f24bcb6b311e5cdf0745b0741648aebd3d",
      "contractAddress": null,
      "root": "0x0000000000000000000000000000000000000000000000000000000000000000"
    },
    {
      "status": "0x1",
      "cumulativeGasUsed": "0x303d5",
      "logs": [
        {
          "address": "0xbbbbbbbbbb9cc5e90e3b3af64bdaf62c37eeffcb",
          "topics": [
            "0xac4b2400f169220b0c0afdde7a0b32e775ba727ea1cb30b35f935cdaab8683ac",
            "0xa075f0e1b45f9e4151180fb0a870c8b922efca96f879a4819123c3698c0b867e"
          ],
          "data": "0x0000000000000000000000000000206329b97db379d5e1bf586bbdb969c6327400000000000000000000000004c0599ae5a44757c0af6f9ec3b93da8976c150a000000000000000000000000f5169264192d5844d2504a5791825ae756f73c3600000000000000000000000046415998764c29ab2a25cbea6254146d50d226870000000000000000000000000000000000000000000000000bef55718ad60000",
          "blockHash": "0xc606785cc633cf142e1dbdf2bebcc70ac42ac0499d7cdacdef4f625be397215d",
          "blockNumber": "0xf43b68",
          "blockTimestamp": "0x6672d86d",
          "transactionHash": "0xa6b8acedd527fa22d597c7b4da341c978e68a25a38c8c03b9a365e1b3c2a6a8d",
          "transactionIndex": "0x0",
          "logIndex": "0x0",
          "removed": false
        },
        {
          "address": "0x46415998764c29ab2a25cbea6254146d50d22687",
          "topics": [
            "0x7120161a7b3d31251e01294ab351ef15a41b91659a36032e4641bb89b121e321",
            "0xa075f0e1b45f9e4151180fb0a870c8b922efca96f879a4819123c3698c0b867e"
          ],
          "data": "0x0000000000000000000000000000000000000000000000000000000012e687bf000000000000000000000000000000000000000000000000000000004b9a1eff",
          "blockHash": "0xc606785cc633cf142e1dbdf2bebcc70ac42ac0499d7cdacdef4f625be397215d",
          "blockNumber": "0xf43b68",
          "blockTimestamp": "0x6672d86d",
          "transactionHash": "0xa6b8acedd527fa22d597c7b4da341c978e68a25a38c8c03b9a365e1b3c2a6a8d",
          "transactionIndex": "0x0",
          "logIndex": "0x1",
          "removed": false
        }
      ],
      "logsBloom": "0x00000000000000000000004000000800000000000000000000000000000000000000000000000100000000000000000000000000000000000000000000804000000000000010000000000100000000000000000000000000000000000000000000000040000000000000000000000000000000000000000000000040000000000000000000000008000000000000000000000000000000000008000000000000000000000000000000000000000000000000000000000000000000000000000020000000000000000000000000000000000100000000000000000000000000000000000000000000000000000001000000000000000000000000000000000010",
      "type": "0x2",
      "transactionHash": "0xa6b8acedd527fa22d597c7b4da341c978e68a25a38c8c03b9a365e1b3c2a6a8d",
      "transactionIndex": "0x0",
      "blockHash": "0xc606785cc633cf142e1dbdf2bebcc70ac42ac0499d7cdacdef4f625be397215d",
      "blockNumber": "0xf43b68",
      "gasUsed": "0x303d5",
      "effectiveGasPrice": "0x509dea",
      "blobGasPrice": "0x1",
      "from": "0xa9bbbdde822789f123667044443dc7001fb43c01",
      "to": "0xbbbbbbbbbb9cc5e90e3b3af64bdaf62c37eeffcb",
      "contractAddress": null,
      "root": "0x0000000000000000000000000000000000000000000000000000000000000000"
    },
    {
      "status": "0x1",
      "cumulativeGasUsed": "0xd09e",
      "logs": [
        {
          "address": "0x0000206329b97db379d5e1bf586bbdb969c63274",
          "topics": [
            "0x8c5be1e5ebec7d5bd14f71427d1e84f3dd0314c0f7b2291e5b200ac8c7c3b925",
            "0x000000000000000000000000a9bbbdde822789f123667044443dc7001fb43c01",
            "0x000000000000000000000000bbbbbbbbbb9cc5e90e3b3af64bdaf62c37eeffcb"
          ],
          "data": "0x0000000000000000000000000000000000000000000000000de0b6b3a7640000",
          "blockHash": "0xd2dae7aa176f1682c262331aa9ef3c0b05444a7bc90223c777dc3cffa6851340",
          "blockNumber": "0xf43b69",
          "blockTimestamp": "0x6672d86e",
          "transactionHash": "0xfb0e701712441907dec6cfecd66f06dfc09ea70560be4960ca4de5240a72696b",
          "transactionIndex": "0x0",
          "logIndex": "0x0",
          "removed": false
        }
      ],
      "logsBloom": "0x00000000000000000000000000000080000000000000000000000008000000000000000000000000000000000000000000008000000000000000000000200000000000000000000000000000000004000000000000000000000002000000000000000000000000000000000000000000000000000000000000000000000000000000000000000000000000000000000000000000000000000000000000000000020000000000000000000000000000000000000000000000000000000000000000000000000000000000000000000000000000004000000000000000000000000010000001000000000000200000000000000000000000000000000000004000",
      "type": "0x2",
      "transactionHash": "0xfb0e701712441907dec6cfecd66f06dfc09ea70560be4960ca4de5240a72696b",
      "transactionIndex": "0x0",
      "blockHash": "0xd2dae7aa176f1682c262331aa9ef3c0b05444a7bc90223c777dc3cffa6851340",
      "blockNumber": "0xf43b69",
      "gasUsed": "0xd09e",
      "effectiveGasPrice": "0x47070c",
      "blobGasPrice": "0x1",
      "from": "0xa9bbbdde822789f123667044443dc7001fb43c01",
      "to": "0x0000206329b97db379d5e1bf586bbdb969c63274",
      "contractAddress": null,
      "root": "0x0000000000000000000000000000000000000000000000000000000000000000"
    },
    {
      "status": "0x1",
      "cumulativeGasUsed": "0x1eb37",
      "logs": [
        {
          "address": "0x46415998764c29ab2a25cbea6254146d50d22687",
          "topics": [
            "0x7120161a7b3d31251e01294ab351ef15a41b91659a36032e4641bb89b121e321",
            "0xa075f0e1b45f9e4151180fb0a870c8b922efca96f879a4819123c3698c0b867e"
          ],
          "data": "0x0000000000000000000000000000000000000000000000000000000012e685c8000000000000000000000000000000000000000000000000000000004b9a0f48",
          "blockHash": "0xed9c0d3f4383f7481b17c37435c76095c2c0652ad327d87d9253b02e5bac0e5b",
          "blockNumber": "0xf43b6a",
          "blockTimestamp": "0x6672d86f",
          "transactionHash": "0xc54f62f32ce1b6f103b4f9503c1647274d8afe53ece6a4a309b4917a1d315e35",
          "transactionIndex": "0x0",
          "logIndex": "0x0",
          "removed": false
        },
        {
          "address": "0xbbbbbbbbbb9cc5e90e3b3af64bdaf62c37eeffcb",
          "topics": [
            "0x9d9bd501d0657d7dfe415f779a620a62b78bc508ddc0891fbbd8b7ac0f8fce87",
            "0xa075f0e1b45f9e4151180fb0a870c8b922efca96f879a4819123c3698c0b867e"
          ],
          "data": "0x0000000000000000000000000000000000000000000000000000000012e685c800000000000000000000000000000000000000000000000000000000000000000000000000000000000000000000000000000000000000000000000000000000",
          "blockHash": "0xed9c0d3f4383f7481b17c37435c76095c2c0652ad327d87d9253b02e5bac0e5b",
          "blockNumber": "0xf43b6a",
          "blockTimestamp": "0x6672d86f",
          "transactionHash": "0xc54f62f32ce1b6f103b4f9503c1647274d8afe53ece6a4a309b4917a1d315e35",
          "transactionIndex": "0x0",
          "logIndex": "0x1",
          "removed": false
        },
        {
          "address": "0xbbbbbbbbbb9cc5e90e3b3af64bdaf62c37eeffcb",
          "topics": [
            "0xedf8870433c83823eb071d3df1caa8d008f12f6440918c20d75a3602cda30fe0",
            "0xa075f0e1b45f9e4151180fb0a870c8b922efca96f879a4819123c3698c0b867e",
            "0x000000000000000000000000a9bbbdde822789f123667044443dc7001fb43c01",
            "0x000000000000000000000000a9bbbdde822789f123667044443dc7001fb43c01"
          ],
          "data": "0x0000000000000000000000000000000000000000000000000de0b6b3a764000000000000000000000000000000000000000000000000d3c21bcecceda1000000",
          "blockHash": "0xed9c0d3f4383f7481b17c37435c76095c2c0652ad327d87d9253b02e5bac0e5b",
          "blockNumber": "0xf43b6a",
          "blockTimestamp": "0x6672d86f",
          "transactionHash": "0xc54f62f32ce1b6f103b4f9503c1647274d8afe53ece6a4a309b4917a1d315e35",
          "transactionIndex": "0x0",
          "logIndex": "0x2",
          "removed": false
        },
        {
          "address": "0x0000206329b97db379d5e1bf586bbdb969c63274",
          "topics": [
            "0x8c5be1e5ebec7d5bd14f71427d1e84f3dd0314c0f7b2291e5b200ac8c7c3b925",
            "0x000000000000000000000000a9bbbdde822789f123667044443dc7001fb43c01",
            "0x000000000000000000000000bbbbbbbbbb9cc5e90e3b3af64bdaf62c37eeffcb"
          ],
          "data": "0x0000000000000000000000000000000000000000000000000000000000000000",
          "blockHash": "0xed9c0d3f4383f7481b17c37435c76095c2c0652ad327d87d9253b02e5bac0e5b",
          "blockNumber": "0xf43b6a",
          "blockTimestamp": "0x6672d86f",
          "transactionHash": "0xc54f62f32ce1b6f103b4f9503c1647274d8afe53ece6a4a309b4917a1d315e35",
          "transactionIndex": "0x0",
          "logIndex": "0x3",
          "removed": false
        },
        {
          "address": "0x0000206329b97db379d5e1bf586bbdb969c63274",
          "topics": [
            "0xddf252ad1be2c89b69c2b068fc378daa952ba7f163c4a11628f55a4df523b3ef",
            "0x000000000000000000000000a9bbbdde822789f123667044443dc7001fb43c01",
            "0x000000000000000000000000bbbbbbbbbb9cc5e90e3b3af64bdaf62c37eeffcb"
          ],
          "data": "0x0000000000000000000000000000000000000000000000000de0b6b3a7640000",
          "blockHash": "0xed9c0d3f4383f7481b17c37435c76095c2c0652ad327d87d9253b02e5bac0e5b",
          "blockNumber": "0xf43b6a",
          "blockTimestamp": "0x6672d86f",
          "transactionHash": "0xc54f62f32ce1b6f103b4f9503c1647274d8afe53ece6a4a309b4917a1d315e35",
          "transactionIndex": "0x0",
          "logIndex": "0x4",
          "removed": false
        }
      ],
      "logsBloom": "0x00000000000000000000004000000080000000000000000000000008000000000000400000000100000000000000000000008000000000000000000020a04000000000000010000000000108800004000000000800000000000002080000000000000040000000000000000000000000000000000000000000000010000000000000000000000008000000000000000000000000000000000008000000000000020000000000000000000000000000000000000000000000000000000000000020000002000000000000000000000000000100004000000000000000000000400010000001000000000000200001000000000000000000000000000000004000",
      "type": "0x2",
      "transactionHash": "0xc54f62f32ce1b6f103b4f9503c1647274d8afe53ece6a4a309b4917a1d315e35",
      "transactionIndex": "0x0",
      "blockHash": "0xed9c0d3f4383f7481b17c37435c76095c2c0652ad327d87d9253b02e5bac0e5b",
      "blockNumber": "0xf43b6a",
      "gasUsed": "0x1eb37",
      "effectiveGasPrice": "0x3e9b69",
      "blobGasPrice": "0x1",
      "from": "0xa9bbbdde822789f123667044443dc7001fb43c01",
      "to": "0xbbbbbbbbbb9cc5e90e3b3af64bdaf62c37eeffcb",
      "contractAddress": null,
      "root": "0x0000000000000000000000000000000000000000000000000000000000000000"
    },
    {
      "status": "0x1",
      "cumulativeGasUsed": "0xc8df",
      "logs": [
        {
          "address": "0x04c0599ae5a44757c0af6f9ec3b93da8976c150a",
          "topics": [
            "0x8c5be1e5ebec7d5bd14f71427d1e84f3dd0314c0f7b2291e5b200ac8c7c3b925",
            "0x000000000000000000000000a9bbbdde822789f123667044443dc7001fb43c01",
            "0x000000000000000000000000bbbbbbbbbb9cc5e90e3b3af64bdaf62c37eeffcb"
          ],
          "data": "0x00000000000000000000000000000000000000000000000000071afd498d0000",
          "blockHash": "0xdebe3f431ea39eeae0fb273a559b634301e76ae1a1d428ca0494d54968101103",
          "blockNumber": "0xf43b6b",
          "blockTimestamp": "0x6672d870",
          "transactionHash": "0x85ae8a6de3bbca506a462e4c80ca93397e2e68c6121003dc2b0855655e45228e",
          "transactionIndex": "0x0",
          "logIndex": "0x0",
          "removed": false
        }
      ],
      "logsBloom": "0x00000000000000000000000000000080000000000000000000000008000000104000000000000000000000000000000000008000000000000000000000200000000000000000000000000000000000000000000000000000000002000000000000000000000000000000000000000000000000000000000000000000000000000000000000000000000000000000000100000000000000000000000000000000020000000000000000000000000000000000000000000000000000000000000000000000000000000000000000000000000000000000000000000000000000000010000001000000000000200000000000000000000000000000000000000000",
      "type": "0x2",
      "transactionHash": "0x85ae8a6de3bbca506a462e4c80ca93397e2e68c6121003dc2b0855655e45228e",
      "transactionIndex": "0x0",
      "blockHash": "0xdebe3f431ea39eeae0fb273a559b634301e76ae1a1d428ca0494d54968101103",
      "blockNumber": "0xf43b6b",
      "gasUsed": "0xc8df",
      "effectiveGasPrice": "0x373fbc",
      "blobGasPrice": "0x1",
      "from": "0xa9bbbdde822789f123667044443dc7001fb43c01",
      "to": "0x04c0599ae5a44757c0af6f9ec3b93da8976c150a",
      "contractAddress": null,
      "root": "0x0000000000000000000000000000000000000000000000000000000000000000"
    },
    {
      "status": "0x1",
      "cumulativeGasUsed": "0x12427",
      "logs": [
        {
          "address": "0xbbbbbbbbbb9cc5e90e3b3af64bdaf62c37eeffcb",
          "topics": [
            "0xa3b9472a1399e17e123f3c2e6586c23e504184d504de59cdaa2b375e880c6184",
            "0xa075f0e1b45f9e4151180fb0a870c8b922efca96f879a4819123c3698c0b867e",
            "0x000000000000000000000000a9bbbdde822789f123667044443dc7001fb43c01",
            "0x000000000000000000000000a9bbbdde822789f123667044443dc7001fb43c01"
          ],
          "data": "0x00000000000000000000000000000000000000000000000000071afd498d0000",
          "blockHash": "0x3e45d252516d5bb200d2946c561140080e59ed5367ef1d6596b0c5e5d4bf43d6",
          "blockNumber": "0xf43b6c",
          "blockTimestamp": "0x6672d871",
          "transactionHash": "0x94a01fbc7bb45fa86c75b5e20d76ffa4cca1c5262983b16fb72cb7e997187ccb",
          "transactionIndex": "0x0",
          "logIndex": "0x0",
          "removed": false
        },
        {
          "address": "0x04c0599ae5a44757c0af6f9ec3b93da8976c150a",
          "topics": [
            "0xddf252ad1be2c89b69c2b068fc378daa952ba7f163c4a11628f55a4df523b3ef",
            "0x000000000000000000000000a9bbbdde822789f123667044443dc7001fb43c01",
            "0x000000000000000000000000bbbbbbbbbb9cc5e90e3b3af64bdaf62c37eeffcb"
          ],
          "data": "0x00000000000000000000000000000000000000000000000000071afd498d0000",
          "blockHash": "0x3e45d252516d5bb200d2946c561140080e59ed5367ef1d6596b0c5e5d4bf43d6",
          "blockNumber": "0xf43b6c",
          "blockTimestamp": "0x6672d871",
          "transactionHash": "0x94a01fbc7bb45fa86c75b5e20d76ffa4cca1c5262983b16fb72cb7e997187ccb",
          "transactionIndex": "0x0",
          "logIndex": "0x1",
          "removed": false
        }
      ],
      "logsBloom": "0x00000000000000000000004000000080000000000000000000000008000000104000000000000000000000000000000000008000000000000000000000000000000000000010000000000108000000000000000000000000000002000000000000000040000000000000000000000000000000000000000000000010000000000000008000000008000000000000000100000000000000000000000000000000000000000000000000000000000000000000000000000000000000000000000020000002000000000000000000000000000000000000000400000000000000000000000001000000000000200000200000000000000000000000000000000000",
      "type": "0x2",
      "transactionHash": "0x94a01fbc7bb45fa86c75b5e20d76ffa4cca1c5262983b16fb72cb7e997187ccb",
      "transactionIndex": "0x0",
      "blockHash": "0x3e45d252516d5bb200d2946c561140080e59ed5367ef1d6596b0c5e5d4bf43d6",
      "blockNumber": "0xf43b6c",
      "gasUsed": "0x12427",
      "effectiveGasPrice": "0x30cc64",
      "blobGasPrice": "0x1",
      "from": "0xa9bbbdde822789f123667044443dc7001fb43c01",
      "to": "0xbbbbbbbbbb9cc5e90e3b3af64bdaf62c37eeffcb",
      "contractAddress": null,
      "root": "0x0000000000000000000000000000000000000000000000000000000000000000"
    },
    {
      "status": "0x1",
      "cumulativeGasUsed": "0x24d8d",
      "logs": [
        {
          "address": "0x46415998764c29ab2a25cbea6254146d50d22687",
          "topics": [
            "0x7120161a7b3d31251e01294ab351ef15a41b91659a36032e4641bb89b121e321",
            "0xa075f0e1b45f9e4151180fb0a870c8b922efca96f879a4819123c3698c0b867e"
          ],
          "data": "0x0000000000000000000000000000000000000000000000000000000012e680df000000000000000000000000000000000000000000000000000000004b99f7b6",
          "blockHash": "0xdc6d06f22b448e278fe7f115b6cad0bed22e287af6cc6f6574507c18c06b74f8",
          "blockNumber": "0xf43b6d",
          "blockTimestamp": "0x6672d872",
          "transactionHash": "0xa4dc630bad95125a178bf8a930266d6d613ff9ddbcd0ef007ddafd7fa07459fd",
          "transactionIndex": "0x0",
          "logIndex": "0x0",
          "removed": false
        },
        {
          "address": "0xbbbbbbbbbb9cc5e90e3b3af64bdaf62c37eeffcb",
          "topics": [
            "0x9d9bd501d0657d7dfe415f779a620a62b78bc508ddc0891fbbd8b7ac0f8fce87",
            "0xa075f0e1b45f9e4151180fb0a870c8b922efca96f879a4819123c3698c0b867e"
          ],
          "data": "0x0000000000000000000000000000000000000000000000000000000012e680df00000000000000000000000000000000000000000000000000000000000000000000000000000000000000000000000000000000000000000000000000000000",
          "blockHash": "0xdc6d06f22b448e278fe7f115b6cad0bed22e287af6cc6f6574507c18c06b74f8",
          "blockNumber": "0xf43b6d",
          "blockTimestamp": "0x6672d872",
          "transactionHash": "0xa4dc630bad95125a178bf8a930266d6d613ff9ddbcd0ef007ddafd7fa07459fd",
          "transactionIndex": "0x0",
          "logIndex": "0x1",
          "removed": false
        },
        {
          "address": "0xbbbbbbbbbb9cc5e90e3b3af64bdaf62c37eeffcb",
          "topics": [
            "0x570954540bed6b1304a87dfe815a5eda4a648f7097a16240dcd85c9b5fd42a43",
            "0xa075f0e1b45f9e4151180fb0a870c8b922efca96f879a4819123c3698c0b867e",
            "0x000000000000000000000000a9bbbdde822789f123667044443dc7001fb43c01",
            "0x000000000000000000000000a9bbbdde822789f123667044443dc7001fb43c01"
          ],
          "data": "0x000000000000000000000000a9bbbdde822789f123667044443dc7001fb43c010000000000000000000000000000000000000000000000000c7d713b49da000000000000000000000000000000000000000000000000be951906eba2aa800000",
          "blockHash": "0xdc6d06f22b448e278fe7f115b6cad0bed22e287af6cc6f6574507c18c06b74f8",
          "blockNumber": "0xf43b6d",
          "blockTimestamp": "0x6672d872",
          "transactionHash": "0xa4dc630bad95125a178bf8a930266d6d613ff9ddbcd0ef007ddafd7fa07459fd",
          "transactionIndex": "0x0",
          "logIndex": "0x2",
          "removed": false
        },
        {
          "address": "0x0000206329b97db379d5e1bf586bbdb969c63274",
          "topics": [
            "0xddf252ad1be2c89b69c2b068fc378daa952ba7f163c4a11628f55a4df523b3ef",
            "0x000000000000000000000000bbbbbbbbbb9cc5e90e3b3af64bdaf62c37eeffcb",
            "0x000000000000000000000000a9bbbdde822789f123667044443dc7001fb43c01"
          ],
          "data": "0x0000000000000000000000000000000000000000000000000c7d713b49da0000",
          "blockHash": "0xdc6d06f22b448e278fe7f115b6cad0bed22e287af6cc6f6574507c18c06b74f8",
          "blockNumber": "0xf43b6d",
          "blockTimestamp": "0x6672d872",
          "transactionHash": "0xa4dc630bad95125a178bf8a930266d6d613ff9ddbcd0ef007ddafd7fa07459fd",
          "transactionIndex": "0x0",
          "logIndex": "0x3",
          "removed": false
        }
      ],
      "logsBloom": "0x00000000000000000002004000000080000000000000000000000008000000000000400000000100000000000000000000008000000000000000000020804000000000000010000000000108000004000000000000000000000002080000000000000040000000000000000000000000000000000000000000000010000000000000000000000008000000000000000000000000000000000008000000000000000000000000000000000000000000000000000000000000000000000000000020000002000000000000000000000000000100004000000000000000000000000000004001000008000000200001000000000000000000000000000000004000",
      "type": "0x2",
      "transactionHash": "0xa4dc630bad95125a178bf8a930266d6d613ff9ddbcd0ef007ddafd7fa07459fd",
      "transactionIndex": "0x0",
      "blockHash": "0xdc6d06f22b448e278fe7f115b6cad0bed22e287af6cc6f6574507c18c06b74f8",
      "blockNumber": "0xf43b6d",
      "gasUsed": "0x24d8d",
      "effectiveGasPrice": "0x2b27f1",
      "blobGasPrice": "0x1",
      "from": "0xa9bbbdde822789f123667044443dc7001fb43c01",
      "to": "0xbbbbbbbbbb9cc5e90e3b3af64bdaf62c37eeffcb",
      "contractAddress": null,
      "root": "0x0000000000000000000000000000000000000000000000000000000000000000"
    },
    {
      "status": "0x1",
      "cumulativeGasUsed": "0x303d5",
      "logs": [
        {
          "address": "0xbbbbbbbbbb9cc5e90e3b3af64bdaf62c37eeffcb",
          "topics": [
            "0xac4b2400f169220b0c0afdde7a0b32e775ba727ea1cb30b35f935cdaab8683ac",
            "0x2e211437b3f7efbd1c016b9d492899735e831b8dd16cc5d58c66f1252693dd0a"
          ],
          "data": "0x0000000000000000000000000000206329b97db379d5e1bf586bbdb969c632740000000000000000000000002416092f143378750bb29b79ed961ab195cceea50000000000000000000000004b5086653f9db675df31a618971e0ec26f6f081f00000000000000000000000046415998764c29ab2a25cbea6254146d50d226870000000000000000000000000000000000000000000000000bef55718ad60000",
          "blockHash": "0xf442e39a05dea07597c2f8b8a8e5e3dee3a9ffce831fea8635b08b037fdc857a",
          "blockNumber": "0xf43b6e",
          "blockTimestamp": "0x6672d873",
          "transactionHash": "0x57775f085534aa656811aef39bbdbb20d13167d909242cd72f27e7daabb394f4",
          "transactionIndex": "0x0",
          "logIndex": "0x0",
          "removed": false
        },
        {
          "address": "0x46415998764c29ab2a25cbea6254146d50d22687",
          "topics": [
            "0x7120161a7b3d31251e01294ab351ef15a41b91659a36032e4641bb89b121e321",
            "0x2e211437b3f7efbd1c016b9d492899735e831b8dd16cc5d58c66f1252693dd0a"
          ],
          "data": "0x0000000000000000000000000000000000000000000000000000000012e687bf000000000000000000000000000000000000000000000000000000004b9a1eff",
          "blockHash": "0xf442e39a05dea07597c2f8b8a8e5e3dee3a9ffce831fea8635b08b037fdc857a",
          "blockNumber": "0xf43b6e",
          "blockTimestamp": "0x6672d873",
          "transactionHash": "0x57775f085534aa656811aef39bbdbb20d13167d909242cd72f27e7daabb394f4",
          "transactionIndex": "0x0",
          "logIndex": "0x1",
          "removed": false
        }
      ],
      "logsBloom": "0x00000000000000000000000000000800000000000000000000000000000000000000000000000100000000000000000000000000000000000000000000804000000000000010000000000000000000000000000000000000000000000000000000000000000000000000000000000000000000400000000000000040000000000000000000000008000000000000000000000000000000000008000000000000000000000000000000000000000000000000000000000000000000000000000020000000000000000000000000000000000100000000000000000000400000000000000000400000000000000001000000000000000000000000000000000010",
      "type": "0x2",
      "transactionHash": "0x57775f085534aa656811aef39bbdbb20d13167d909242cd72f27e7daabb394f4",
      "transactionIndex": "0x0",
      "blockHash": "0xf442e39a05dea07597c2f8b8a8e5e3dee3a9ffce831fea8635b08b037fdc857a",
      "blockNumber": "0xf43b6e",
      "gasUsed": "0x303d5",
      "effectiveGasPrice": "0x2639c0",
      "blobGasPrice": "0x1",
      "from": "0xa9bbbdde822789f123667044443dc7001fb43c01",
      "to": "0xbbbbbbbbbb9cc5e90e3b3af64bdaf62c37eeffcb",
      "contractAddress": null,
      "root": "0x0000000000000000000000000000000000000000000000000000000000000000"
    },
    {
      "status": "0x1",
      "cumulativeGasUsed": "0xd09e",
      "logs": [
        {
          "address": "0x0000206329b97db379d5e1bf586bbdb969c63274",
          "topics": [
            "0x8c5be1e5ebec7d5bd14f71427d1e84f3dd0314c0f7b2291e5b200ac8c7c3b925",
            "0x000000000000000000000000a9bbbdde822789f123667044443dc7001fb43c01",
            "0x000000000000000000000000bbbbbbbbbb9cc5e90e3b3af64bdaf62c37eeffcb"
          ],
          "data": "0x0000000000000000000000000000000000000000000000000de0b6b3a7640000",
          "blockHash": "0x5b308f735b09b806e111a8ef9d9f01238797a9e640831abec49b21f6f069b0d3",
          "blockNumber": "0xf43b6f",
          "blockTimestamp": "0x6672d874",
          "transactionHash": "0x995f239bd5e7b6cd55d1a2126c6a097c66aa8078c5686e2d83afe5cbc8156278",
          "transactionIndex": "0x0",
          "logIndex": "0x0",
          "removed": false
        }
      ],
      "logsBloom": "0x00000000000000000000000000000080000000000000000000000008000000000000000000000000000000000000000000008000000000000000000000200000000000000000000000000000000004000000000000000000000002000000000000000000000000000000000000000000000000000000000000000000000000000000000000000000000000000000000000000000000000000000000000000000020000000000000000000000000000000000000000000000000000000000000000000000000000000000000000000000000000004000000000000000000000000010000001000000000000200000000000000000000000000000000000004000",
      "type": "0x2",
      "transactionHash": "0x995f239bd5e7b6cd55d1a2126c6a097c66aa8078c5686e2d83afe5cbc8156278",
      "transactionIndex": "0x0",
      "blockHash": "0x5b308f735b09b806e111a8ef9d9f01238797a9e640831abec49b21f6f069b0d3",
      "blockNumber": "0xf43b6f",
      "gasUsed": "0xd09e",
      "effectiveGasPrice": "0x21e9e8",
      "blobGasPrice": "0x1",
      "from": "0xa9bbbdde822789f123667044443dc7001fb43c01",
      "to": "0x0000206329b97db379d5e1bf586bbdb969c63274",
      "contractAddress": null,
      "root": "0x0000000000000000000000000000000000000000000000000000000000000000"
    },
    {
      "status": "0x1",
      "cumulativeGasUsed": "0x1eb37",
      "logs": [
        {
          "address": "0x46415998764c29ab2a25cbea6254146d50d22687",
          "topics": [
            "0x7120161a7b3d31251e01294ab351ef15a41b91659a36032e4641bb89b121e321",
            "0x2e211437b3f7efbd1c016b9d492899735e831b8dd16cc5d58c66f1252693dd0a"
          ],
          "data": "0x0000000000000000000000000000000000000000000000000000000012e685c8000000000000000000000000000000000000000000000000000000004b9a0f48",
          "blockHash": "0x17ddfdbfc6d84f90c928fb5c866596c53f96bf36b0e4cf23d28b7dc803f65cde",
          "blockNumber": "0xf43b70",
          "blockTimestamp": "0x6672d875",
          "transactionHash": "0xfa22ab4a316e4db3dff627b262785407f9a0845d5c9cca6015a39e6074b00dd3",
          "transactionIndex": "0x0",
          "logIndex": "0x0",
          "removed": false
        },
        {
          "address": "0xbbbbbbbbbb9cc5e90e3b3af64bdaf62c37eeffcb",
          "topics": [
            "0x9d9bd501d0657d7dfe415f779a620a62b78bc508ddc0891fbbd8b7ac0f8fce87",
            "0x2e211437b3f7efbd1c016b9d492899735e831b8dd16cc5d58c66f1252693dd0a"
          ],
          "data": "0x0000000000000000000000000000000000000000000000000000000012e685c800000000000000000000000000000000000000000000000000000000000000000000000000000000000000000000000000000000000000000000000000000000",
          "blockHash": "0x17ddfdbfc6d84f90c928fb5c866596c53f96bf36b0e4cf23d28b7dc803f65cde",
          "blockNumber": "0xf43b70",
          "blockTimestamp": "0x6672d875",
          "transactionHash": "0xfa22ab4a316e4db3dff627b262785407f9a0845d5c9cca6015a39e6074b00dd3",
          "transactionIndex": "0x0",
          "logIndex": "0x1",
          "removed": false
        },
        {
          "address": "0xbbbbbbbbbb9cc5e90e3b3af64bdaf62c37eeffcb",
          "topics": [
            "0xedf8870433c83823eb071d3df1caa8d008f12f6440918c20d75a3602cda30fe0",
            "0x2e211437b3f7efbd1c016b9d492899735e831b8dd16cc5d58c66f1252693dd0a",
            "0x000000000000000000000000a9bbbdde822789f123667044443dc7001fb43c01",
            "0x000000000000000000000000a9bbbdde822789f123667044443dc7001fb43c01"
          ],
          "data": "0x0000000000000000000000000000000000000000000000000de0b6b3a764000000000000000000000000000000000000000000000000d3c21bcecceda1000000",
          "blockHash": "0x17ddfdbfc6d84f90c928fb5c866596c53f96bf36b0e4cf23d28b7dc803f65cde",
          "blockNumber": "0xf43b70",
          "blockTimestamp": "0x6672d875",
          "transactionHash": "0xfa22ab4a316e4db3dff627b262785407f9a0845d5c9cca6015a39e6074b00dd3",
          "transactionIndex": "0x0",
          "logIndex": "0x2",
          "removed": false
        },
        {
          "address": "0x0000206329b97db379d5e1bf586bbdb969c63274",
          "topics": [
            "0x8c5be1e5ebec7d5bd14f71427d1e84f3dd0314c0f7b2291e5b200ac8c7c3b925",
            "0x000000000000000000000000a9bbbdde822789f123667044443dc7001fb43c01",
            "0x000000000000000000000000bbbbbbbbbb9cc5e90e3b3af64bdaf62c37eeffcb"
          ],
          "data": "0x0000000000000000000000000000000000000000000000000000000000000000",
          "blockHash": "0x17ddfdbfc6d84f90c928fb5c866596c53f96bf36b0e4cf23d28b7dc803f65cde",
          "blockNumber": "0xf43b70",
          "blockTimestamp": "0x6672d875",
          "transactionHash": "0xfa22ab4a316e4db3dff627b262785407f9a0845d5c9cca6015a39e6074b00dd3",
          "transactionIndex": "0x0",
          "logIndex": "0x3",
          "removed": false
        },
        {
          "address": "0x0000206329b97db379d5e1bf586bbdb969c63274",
          "topics": [
            "0xddf252ad1be2c89b69c2b068fc378daa952ba7f163c4a11628f55a4df523b3ef",
            "0x000000000000000000000000a9bbbdde822789f123667044443dc7001fb43c01",
            "0x000000000000000000000000bbbbbbbbbb9cc5e90e3b3af64bdaf62c37eeffcb"
          ],
          "data": "0x0000000000000000000000000000000000000000000000000de0b6b3a7640000",
          "blockHash": "0x17ddfdbfc6d84f90c928fb5c866596c53f96bf36b0e4cf23d28b7dc803f65cde",
          "blockNumber": "0xf43b70",
          "blockTimestamp": "0x6672d875",
          "transactionHash": "0xfa22ab4a316e4db3dff627b262785407f9a0845d5c9cca6015a39e6074b00dd3",
          "transactionIndex": "0x0",
          "logIndex": "0x4",
          "removed": false
        }
      ],
      "logsBloom": "0x00000000000000000000000000000080000000000000000000000008000000000000400000000100000000000000000000008000000000000000000020a04000000000000010000000000008800004000000000800000000000002080000000000000000000000000000000000000000000000400000000000000010000000000000000000000008000000000000000000000000000000000008000000000000020000000000000000000000000000000000000000000000000000000000000020000002000000000000000000000000000100004000000000000000400000400010000001400000000000200001000000000000000000000000000000004000",
      "type": "0x2",
      "transactionHash": "0xfa22ab4a316e4db3dff627b262785407f9a0845d5c9cca6015a39e6074b00dd3",
      "transactionIndex": "0x0",
      "blockHash": "0x17ddfdbfc6d84f90c928fb5c866596c53f96bf36b0e4cf23d28b7dc803f65cde",
      "blockNumber": "0xf43b70",
      "gasUsed": "0x1eb37",
      "effectiveGasPrice": "0x1e209d",
      "blobGasPrice": "0x1",
      "from": "0xa9bbbdde822789f123667044443dc7001fb43c01",
      "to": "0xbbbbbbbbbb9cc5e90e3b3af64bdaf62c37eeffcb",
      "contractAddress": null,
      "root": "0x0000000000000000000000000000000000000000000000000000000000000000"
    },
    {
      "status": "0x1",
      "cumulativeGasUsed": "0xd0d2",
      "logs": [
        {
          "address": "0x2416092f143378750bb29b79ed961ab195cceea5",
          "topics": [
            "0x8c5be1e5ebec7d5bd14f71427d1e84f3dd0314c0f7b2291e5b200ac8c7c3b925",
            "0x000000000000000000000000a9bbbdde822789f123667044443dc7001fb43c01",
            "0x000000000000000000000000bbbbbbbbbb9cc5e90e3b3af64bdaf62c37eeffcb"
          ],
          "data": "0x00000000000000000000000000000000000000000000000000071afd498d0000",
          "blockHash": "0x5971d2eaf253bb630514484bccbbb03d7ce5caa8c3011443b9f96dcac2a519dc",
          "blockNumber": "0xf43b71",
          "blockTimestamp": "0x6672d876",
          "transactionHash": "0x95691cfcc062b7572643a8453f761b3ef7ef912abb67ac4cbf1ef5e367fe5fdf",
          "transactionIndex": "0x0",
          "logIndex": "0x0",
          "removed": false
        }
      ],
      "logsBloom": "0x00000000000000000000000000000080000000000000000000000008000000040000000000000080000000000000000000008000000000000000000000200000000000000400000000000000000000000000000000000000000002000000000000000000000000000000000000000000000000000000000000000000000000000000000000000000000000000000000000000000000000000000000000000000020000000000000000000000000000000000000000000000000000000000000000000000000000000000000000000000000000000000000000000000000000000010000001000000000000200000000000000000000000000000000000000000",
      "type": "0x2",
      "transactionHash": "0x95691cfcc062b7572643a8453f761b3ef7ef912abb67ac4cbf1ef5e367fe5fdf",
      "transactionIndex": "0x0",
      "blockHash": "0x5971d2eaf253bb630514484bccbbb03d7ce5caa8c3011443b9f96dcac2a519dc",
      "blockNumber": "0xf43b71",
      "gasUsed": "0xd0d2",
      "effectiveGasPrice": "0x1ad19c",
      "blobGasPrice": "0x1",
      "from": "0xa9bbbdde822789f123667044443dc7001fb43c01",
      "to": "0x2416092f143378750bb29b79ed961ab195cceea5",
      "contractAddress": null,
      "root": "0x0000000000000000000000000000000000000000000000000000000000000000"
    },
    {
      "status": "0x1",
      "cumulativeGasUsed": "0x132a1",
      "logs": [
        {
          "address": "0xbbbbbbbbbb9cc5e90e3b3af64bdaf62c37eeffcb",
          "topics": [
            "0xa3b9472a1399e17e123f3c2e6586c23e504184d504de59cdaa2b375e880c6184",
            "0x2e211437b3f7efbd1c016b9d492899735e831b8dd16cc5d58c66f1252693dd0a",
            "0x000000000000000000000000a9bbbdde822789f123667044443dc7001fb43c01",
            "0x000000000000000000000000a9bbbdde822789f123667044443dc7001fb43c01"
          ],
          "data": "0x00000000000000000000000000000000000000000000000000071afd498d0000",
          "blockHash": "0x383585940b631e16ea6ee4050bd679b11a1a7e53bed5de97814c54845dde3213",
          "blockNumber": "0xf43b72",
          "blockTimestamp": "0x6672d877",
          "transactionHash": "0xdcb03ddcf5e5199bb07df7df19e1377c780112bf6cb723490437ce43fff71298",
          "transactionIndex": "0x0",
          "logIndex": "0x0",
          "removed": false
        },
        {
          "address": "0x2416092f143378750bb29b79ed961ab195cceea5",
          "topics": [
            "0x8c5be1e5ebec7d5bd14f71427d1e84f3dd0314c0f7b2291e5b200ac8c7c3b925",
            "0x000000000000000000000000a9bbbdde822789f123667044443dc7001fb43c01",
            "0x000000000000000000000000bbbbbbbbbb9cc5e90e3b3af64bdaf62c37eeffcb"
          ],
          "data": "0x0000000000000000000000000000000000000000000000000000000000000000",
          "blockHash": "0x383585940b631e16ea6ee4050bd679b11a1a7e53bed5de97814c54845dde3213",
          "blockNumber": "0xf43b72",
          "blockTimestamp": "0x6672d877",
          "transactionHash": "0xdcb03ddcf5e5199bb07df7df19e1377c780112bf6cb723490437ce43fff71298",
          "transactionIndex": "0x0",
          "logIndex": "0x1",
          "removed": false
        },
        {
          "address": "0x2416092f143378750bb29b79ed961ab195cceea5",
          "topics": [
            "0xddf252ad1be2c89b69c2b068fc378daa952ba7f163c4a11628f55a4df523b3ef",
            "0x000000000000000000000000a9bbbdde822789f123667044443dc7001fb43c01",
            "0x000000000000000000000000bbbbbbbbbb9cc5e90e3b3af64bdaf62c37eeffcb"
          ],
          "data": "0x00000000000000000000000000000000000000000000000000071afd498d0000",
          "blockHash": "0x383585940b631e16ea6ee4050bd679b11a1a7e53bed5de97814c54845dde3213",
          "blockNumber": "0xf43b72",
          "blockTimestamp": "0x6672d877",
          "transactionHash": "0xdcb03ddcf5e5199bb07df7df19e1377c780112bf6cb723490437ce43fff71298",
          "transactionIndex": "0x0",
          "logIndex": "0x2",
          "removed": false
        }
      ],
      "logsBloom": "0x00000000000000000000000000000080000000000000000000000008000000040000000000000080000000000000000000008000000000000000000000200000000000000410000000000008000000000000000000000000000002000000000000000000000000000000000000000000000000400000000000000010000000000000008000000008000000000000000000000000000000000000000000000000020000000000000000000000000000000000000000000000000000000000000020000002000000000000000000000000000000000000000400000000400000000010000001400000000000200000200000000000000000000000000000000000",
      "type": "0x2",
      "transactionHash": "0xdcb03ddcf5e5199bb07df7df19e1377c780112bf6cb723490437ce43fff71298",
      "transactionIndex": "0x0",
      "blockHash": "0x383585940b631e16ea6ee4050bd679b11a1a7e53bed5de97814c54845dde3213",
      "blockNumber": "0xf43b72",
      "gasUsed": "0x132a1",
      "effectiveGasPrice": "0x17eb1b",
      "blobGasPrice": "0x1",
      "from": "0xa9bbbdde822789f123667044443dc7001fb43c01",
      "to": "0xbbbbbbbbbb9cc5e90e3b3af64bdaf62c37eeffcb",
      "contractAddress": null,
      "root": "0x0000000000000000000000000000000000000000000000000000000000000000"
    },
    {
      "status": "0x1",
      "cumulativeGasUsed": "0x24d8d",
      "logs": [
        {
          "address": "0x46415998764c29ab2a25cbea6254146d50d22687",
          "topics": [
            "0x7120161a7b3d31251e01294ab351ef15a41b91659a36032e4641bb89b121e321",
            "0x2e211437b3f7efbd1c016b9d492899735e831b8dd16cc5d58c66f1252693dd0a"
          ],
          "data": "0x0000000000000000000000000000000000000000000000000000000012e680df000000000000000000000000000000000000000000000000000000004b99f7b6",
          "blockHash": "0xbd695881cb5dee4e8440e3a6225e577d00e17db5f8651d1d7d4b7524adf858bc",
          "blockNumber": "0xf43b73",
          "blockTimestamp": "0x6672d878",
          "transactionHash": "0xd4089b10d2d36493ff7002f32ecb0135d0ed0fbbfdd124f746e05bff48f22b49",
          "transactionIndex": "0x0",
          "logIndex": "0x0",
          "removed": false
        },
        {
          "address": "0xbbbbbbbbbb9cc5e90e3b3af64bdaf62c37eeffcb",
          "topics": [
            "0x9d9bd501d0657d7dfe415f779a620a62b78bc508ddc0891fbbd8b7ac0f8fce87",
            "0x2e211437b3f7efbd1c016b9d492899735e831b8dd16cc5d58c66f1252693dd0a"
          ],
          "data": "0x0000000000000000000000000000000000000000000000000000000012e680df00000000000000000000000000000000000000000000000000000000000000000000000000000000000000000000000000000000000000000000000000000000",
          "blockHash": "0xbd695881cb5dee4e8440e3a6225e577d00e17db5f8651d1d7d4b7524adf858bc",
          "blockNumber": "0xf43b73",
          "blockTimestamp": "0x6672d878",
          "transactionHash": "0xd4089b10d2d36493ff7002f32ecb0135d0ed0fbbfdd124f746e05bff48f22b49",
          "transactionIndex": "0x0",
          "logIndex": "0x1",
          "removed": false
        },
        {
          "address": "0xbbbbbbbbbb9cc5e90e3b3af64bdaf62c37eeffcb",
          "topics": [
            "0x570954540bed6b1304a87dfe815a5eda4a648f7097a16240dcd85c9b5fd42a43",
            "0x2e211437b3f7efbd1c016b9d492899735e831b8dd16cc5d58c66f1252693dd0a",
            "0x000000000000000000000000a9bbbdde822789f123667044443dc7001fb43c01",
            "0x000000000000000000000000a9bbbdde822789f123667044443dc7001fb43c01"
          ],
          "data": "0x000000000000000000000000a9bbbdde822789f123667044443dc7001fb43c010000000000000000000000000000000000000000000000000c7d713b49da000000000000000000000000000000000000000000000000be951906eba2aa800000",
          "blockHash": "0xbd695881cb5dee4e8440e3a6225e577d00e17db5f8651d1d7d4b7524adf858bc",
          "blockNumber": "0xf43b73",
          "blockTimestamp": "0x6672d878",
          "transactionHash": "0xd4089b10d2d36493ff7002f32ecb0135d0ed0fbbfdd124f746e05bff48f22b49",
          "transactionIndex": "0x0",
          "logIndex": "0x2",
          "removed": false
        },
        {
          "address": "0x0000206329b97db379d5e1bf586bbdb969c63274",
          "topics": [
            "0xddf252ad1be2c89b69c2b068fc378daa952ba7f163c4a11628f55a4df523b3ef",
            "0x000000000000000000000000bbbbbbbbbb9cc5e90e3b3af64bdaf62c37eeffcb",
            "0x000000000000000000000000a9bbbdde822789f123667044443dc7001fb43c01"
          ],
          "data": "0x0000000000000000000000000000000000000000000000000c7d713b49da0000",
          "blockHash": "0xbd695881cb5dee4e8440e3a6225e577d00e17db5f8651d1d7d4b7524adf858bc",
          "blockNumber": "0xf43b73",
          "blockTimestamp": "0x6672d878",
          "transactionHash": "0xd4089b10d2d36493ff7002f32ecb0135d0ed0fbbfdd124f746e05bff48f22b49",
          "transactionIndex": "0x0",
          "logIndex": "0x3",
          "removed": false
        }
      ],
      "logsBloom": "0x00000000000000000002000000000080000000000000000000000008000000000000400000000100000000000000000000008000000000000000000020804000000000000010000000000008000004000000000000000000000002080000000000000000000000000000000000000000000000400000000000000010000000000000000000000008000000000000000000000000000000000008000000000000000000000000000000000000000000000000000000000000000000000000000020000002000000000000000000000000000100004000000000000000400000000000004001400008000000200001000000000000000000000000000000004000",
      "type": "0x2",
      "transactionHash": "0xd4089b10d2d36493ff7002f32ecb0135d0ed0fbbfdd124f746e05bff48f22b49",
      "transactionIndex": "0x0",
      "blockHash": "0xbd695881cb5dee4e8440e3a6225e577d00e17db5f8651d1d7d4b7524adf858bc",
      "blockNumber": "0xf43b73",
      "gasUsed": "0x24d8d",
      "effectiveGasPrice": "0x1561a5",
      "blobGasPrice": "0x1",
      "from": "0xa9bbbdde822789f123667044443dc7001fb43c01",
      "to": "0xbbbbbbbbbb9cc5e90e3b3af64bdaf62c37eeffcb",
      "contractAddress": null,
      "root": "0x0000000000000000000000000000000000000000000000000000000000000000"
    },
    {
      "status": "0x1",
      "cumulativeGasUsed": "0x303d5",
      "logs": [
        {
          "address": "0xbbbbbbbbbb9cc5e90e3b3af64bdaf62c37eeffcb",
          "topics": [
            "0xac4b2400f169220b0c0afdde7a0b32e775ba727ea1cb30b35f935cdaab8683ac",
            "0x72defbe3b6b9f9799801c74b727bc614d81ede34761c967e2f32da7ddec8a1ce"
          ],
          "data": "0x0000000000000000000000000000206329b97db379d5e1bf586bbdb969c63274000000000000000000000000c1cba3fcea344f92d9239c08c0568f6f2f0ee452000000000000000000000000040ba460ed355833a0693348421c7f1fd831d0c700000000000000000000000046415998764c29ab2a25cbea6254146d50d226870000000000000000000000000000000000000000000000000bef55718ad60000",
          "blockHash": "0xdba9628b4f802afdaed1fd2460c6611cf6f42a41d877fc7afabdd18e4c952740",
          "blockNumber": "0xf43b74",
          "blockTimestamp": "0x6672d879",
          "transactionHash": "0x74f74a58fd2ff66a7a011d03fa485358e3cfbb1e8339ab0b13e01b268d632fcc",
          "transactionIndex": "0x0",
          "logIndex": "0x0",
          "removed": false
        },
        {
          "address": "0x46415998764c29ab2a25cbea6254146d50d22687",
          "topics": [
            "0x7120161a7b3d31251e01294ab351ef15a41b91659a36032e4641bb89b121e321",
            "0x72defbe3b6b9f9799801c74b727bc614d81ede34761c967e2f32da7ddec8a1ce"
          ],
          "data": "0x0000000000000000000000000000000000000000000000000000000012e687bf000000000000000000000000000000000000000000000000000000004b9a1eff",
          "blockHash": "0xdba9628b4f802afdaed1fd2460c6611cf6f42a41d877fc7afabdd18e4c952740",
          "blockNumber": "0xf43b74",
          "blockTimestamp": "0x6672d879",
          "transactionHash": "0x74f74a58fd2ff66a7a011d03fa485358e3cfbb1e8339ab0b13e01b268d632fcc",
          "transactionIndex": "0x0",
          "logIndex": "0x1",
          "removed": false
        }
      ],
      "logsBloom": "0x00000000000000000000000000000800000000000000000000000200000000000000000000000100000000000000000000000000000000000000000000804000000000000010000000000000000000000000000000000000000000000000000000000000000000000000000000000000000000000000000000000040000000000000000000000008000000000000000000000000000000000008000000000000000000000000000000000000000000000000000000000000000000000000000020000000000000000000000000000000000110000000000000000000000000000000000000000040000000000001000000000000000000000000000000000010",
      "type": "0x2",
      "transactionHash": "0x74f74a58fd2ff66a7a011d03fa485358e3cfbb1e8339ab0b13e01b268d632fcc",
      "transactionIndex": "0x0",
      "blockHash": "0xdba9628b4f802afdaed1fd2460c6611cf6f42a41d877fc7afabdd18e4c952740",
      "blockNumber": "0xf43b74",
      "gasUsed": "0x303d5",
      "effectiveGasPrice": "0x132a15",
      "blobGasPrice": "0x1",
      "from": "0xa9bbbdde822789f123667044443dc7001fb43c01",
      "to": "0xbbbbbbbbbb9cc5e90e3b3af64bdaf62c37eeffcb",
      "contractAddress": null,
      "root": "0x0000000000000000000000000000000000000000000000000000000000000000"
    },
    {
      "status": "0x1",
      "cumulativeGasUsed": "0xd09e",
      "logs": [
        {
          "address": "0x0000206329b97db379d5e1bf586bbdb969c63274",
          "topics": [
            "0x8c5be1e5ebec7d5bd14f71427d1e84f3dd0314c0f7b2291e5b200ac8c7c3b925",
            "0x000000000000000000000000a9bbbdde822789f123667044443dc7001fb43c01",
            "0x000000000000000000000000bbbbbbbbbb9cc5e90e3b3af64bdaf62c37eeffcb"
          ],
          "data": "0x0000000000000000000000000000000000000000000000000de0b6b3a7640000",
          "blockHash": "0x814295a5b64f8c78ff1f00f797b6de8b515a1c65f3a5846321c28bf6afa854e8",
          "blockNumber": "0xf43b75",
          "blockTimestamp": "0x6672d87a",
          "transactionHash": "0x19474929851fcec967fd2ef56f58a1d20f5092c9560cb7ac50c38881fc6b062d",
          "transactionIndex": "0x0",
          "logIndex": "0x0",
          "removed": false
        }
      ],
      "logsBloom": "0x00000000000000000000000000000080000000000000000000000008000000000000000000000000000000000000000000008000000000000000000000200000000000000000000000000000000004000000000000000000000002000000000000000000000000000000000000000000000000000000000000000000000000000000000000000000000000000000000000000000000000000000000000000000020000000000000000000000000000000000000000000000000000000000000000000000000000000000000000000000000000004000000000000000000000000010000001000000000000200000000000000000000000000000000000004000",
      "type": "0x2",
      "transactionHash": "0x19474929851fcec967fd2ef56f58a1d20f5092c9560cb7ac50c38881fc6b062d",
      "transactionIndex": "0x0",
      "blockHash": "0x814295a5b64f8c78ff1f00f797b6de8b515a1c65f3a5846321c28bf6afa854e8",
      "blockNumber": "0xf43b75",
      "gasUsed": "0xd09e",
      "effectiveGasPrice": "0x1139b9",
      "blobGasPrice": "0x1",
      "from": "0xa9bbbdde822789f123667044443dc7001fb43c01",
      "to": "0x0000206329b97db379d5e1bf586bbdb969c63274",
      "contractAddress": null,
      "root": "0x0000000000000000000000000000000000000000000000000000000000000000"
    },
    {
      "status": "0x1",
      "cumulativeGasUsed": "0x1eb37",
      "logs": [
        {
          "address": "0x46415998764c29ab2a25cbea6254146d50d22687",
          "topics": [
            "0x7120161a7b3d31251e01294ab351ef15a41b91659a36032e4641bb89b121e321",
            "0x72defbe3b6b9f9799801c74b727bc614d81ede34761c967e2f32da7ddec8a1ce"
          ],
          "data": "0x0000000000000000000000000000000000000000000000000000000012e685c8000000000000000000000000000000000000000000000000000000004b9a0f48",
          "blockHash": "0x87faffd86c77da3b676274b07dac036aca0231d3d5e3e6d93141d93494a27d54",
          "blockNumber": "0xf43b76",
          "blockTimestamp": "0x6672d87b",
          "transactionHash": "0x96280226d7bef4c2ce627f3617a46c4d3a77e95abf2db862e862055d3bf68839",
          "transactionIndex": "0x0",
          "logIndex": "0x0",
          "removed": false
        },
        {
          "address": "0xbbbbbbbbbb9cc5e90e3b3af64bdaf62c37eeffcb",
          "topics": [
            "0x9d9bd501d0657d7dfe415f779a620a62b78bc508ddc0891fbbd8b7ac0f8fce87",
            "0x72defbe3b6b9f9799801c74b727bc614d81ede34761c967e2f32da7ddec8a1ce"
          ],
          "data": "0x0000000000000000000000000000000000000000000000000000000012e685c800000000000000000000000000000000000000000000000000000000000000000000000000000000000000000000000000000000000000000000000000000000",
          "blockHash": "0x87faffd86c77da3b676274b07dac036aca0231d3d5e3e6d93141d93494a27d54",
          "blockNumber": "0xf43b76",
          "blockTimestamp": "0x6672d87b",
          "transactionHash": "0x96280226d7bef4c2ce627f3617a46c4d3a77e95abf2db862e862055d3bf68839",
          "transactionIndex": "0x0",
          "logIndex": "0x1",
          "removed": false
        },
        {
          "address": "0xbbbbbbbbbb9cc5e90e3b3af64bdaf62c37eeffcb",
          "topics": [
            "0xedf8870433c83823eb071d3df1caa8d008f12f6440918c20d75a3602cda30fe0",
            "0x72defbe3b6b9f9799801c74b727bc614d81ede34761c967e2f32da7ddec8a1ce",
            "0x000000000000000000000000a9bbbdde822789f123667044443dc7001fb43c01",
            "0x000000000000000000000000a9bbbdde822789f123667044443dc7001fb43c01"
          ],
          "data": "0x0000000000000000000000000000000000000000000000000de0b6b3a764000000000000000000000000000000000000000000000000d3c21bcecceda1000000",
          "blockHash": "0x87faffd86c77da3b676274b07dac036aca0231d3d5e3e6d93141d93494a27d54",
          "blockNumber": "0xf43b76",
          "blockTimestamp": "0x6672d87b",
          "transactionHash": "0x96280226d7bef4c2ce627f3617a46c4d3a77e95abf2db862e862055d3bf68839",
          "transactionIndex": "0x0",
          "logIndex": "0x2",
          "removed": false
        },
        {
          "address": "0x0000206329b97db379d5e1bf586bbdb969c63274",
          "topics": [
            "0x8c5be1e5ebec7d5bd14f71427d1e84f3dd0314c0f7b2291e5b200ac8c7c3b925",
            "0x000000000000000000000000a9bbbdde822789f123667044443dc7001fb43c01",
            "0x000000000000000000000000bbbbbbbbbb9cc5e90e3b3af64bdaf62c37eeffcb"
          ],
          "data": "0x0000000000000000000000000000000000000000000000000000000000000000",
          "blockHash": "0x87faffd86c77da3b676274b07dac036aca0231d3d5e3e6d93141d93494a27d54",
          "blockNumber": "0xf43b76",
          "blockTimestamp": "0x6672d87b",
          "transactionHash": "0x96280226d7bef4c2ce627f3617a46c4d3a77e95abf2db862e862055d3bf68839",
          "transactionIndex": "0x0",
          "logIndex": "0x3",
          "removed": false
        },
        {
          "address": "0x0000206329b97db379d5e1bf586bbdb969c63274",
          "topics": [
            "0xddf252ad1be2c89b69c2b068fc378daa952ba7f163c4a11628f55a4df523b3ef",
            "0x000000000000000000000000a9bbbdde822789f123667044443dc7001fb43c01",
            "0x000000000000000000000000bbbbbbbbbb9cc5e90e3b3af64bdaf62c37eeffcb"
          ],
          "data": "0x0000000000000000000000000000000000000000000000000de0b6b3a7640000",
          "blockHash": "0x87faffd86c77da3b676274b07dac036aca0231d3d5e3e6d93141d93494a27d54",
          "blockNumber": "0xf43b76",
          "blockTimestamp": "0x6672d87b",
          "transactionHash": "0x96280226d7bef4c2ce627f3617a46c4d3a77e95abf2db862e862055d3bf68839",
          "transactionIndex": "0x0",
          "logIndex": "0x4",
          "removed": false
        }
      ],
      "logsBloom": "0x00000000000000000000000000000080000000000000000000000208000000000000400000000100000000000000000000008000000000000000000020a04000000000000010000000000008800004000000000800000000000002080000000000000000000000000000000000000000000000000000000000000010000000000000000000000008000000000000000000000000000000000008000000000000020000000000000000000000000000000000000000000000000000000000000020000002000000000000000000000000000110004000000000000000000000400010000001000040000000200001000000000000000000000000000000004000",
      "type": "0x2",
      "transactionHash": "0x96280226d7bef4c2ce627f3617a46c4d3a77e95abf2db862e862055d3bf68839",
      "transactionIndex": "0x0",
      "blockHash": "0x87faffd86c77da3b676274b07dac036aca0231d3d5e3e6d93141d93494a27d54",
      "blockNumber": "0xf43b76",
      "gasUsed": "0x1eb37",
      "effectiveGasPrice": "0xf85de",
      "blobGasPrice": "0x1",
      "from": "0xa9bbbdde822789f123667044443dc7001fb43c01",
      "to": "0xbbbbbbbbbb9cc5e90e3b3af64bdaf62c37eeffcb",
      "contractAddress": null,
      "root": "0x0000000000000000000000000000000000000000000000000000000000000000"
    },
    {
      "status": "0x1",
      "cumulativeGasUsed": "0xc84b",
      "logs": [
        {
          "address": "0xc1cba3fcea344f92d9239c08c0568f6f2f0ee452",
          "topics": [
            "0x8c5be1e5ebec7d5bd14f71427d1e84f3dd0314c0f7b2291e5b200ac8c7c3b925",
            "0x000000000000000000000000a9bbbdde822789f123667044443dc7001fb43c01",
            "0x000000000000000000000000bbbbbbbbbb9cc5e90e3b3af64bdaf62c37eeffcb"
          ],
          "data": "0x00000000000000000000000000000000000000000000000000071afd498d0000",
          "blockHash": "0x34125dfdcd991948612ca948718380b2af337b1e50287fa634d05c98050541ce",
          "blockNumber": "0xf43b77",
          "blockTimestamp": "0x6672d87c",
          "transactionHash": "0x28887e2669288854fb8a2d8a496760cf92f47e56c28654e9dc3d157dec9e2fa9",
          "transactionIndex": "0x0",
          "logIndex": "0x0",
          "removed": false
        }
      ],
      "logsBloom": "0x00000000000000000000000000000080000000000000000000000008000000000000000000000000000000000000000000008000000000000000000000200000000000000000000000000000400000000000000000000000000002000000000000000000000000000000000000000000000000000000000000000000000000000000000000000000000000000000000000000000000000000000000000000000020000000000000000000000000000000000000000000000000000000000000040000000000000000000000000000000000000000000000000000000000000000010000001000000000000200000000000000080000000000000000000000000",
      "type": "0x2",
      "transactionHash": "0x28887e2669288854fb8a2d8a496760cf92f47e56c28654e9dc3d157dec9e2fa9",
      "transactionIndex": "0x0",
      "blockHash": "0x34125dfdcd991948612ca948718380b2af337b1e50287fa634d05c98050541ce",
      "blockNumber": "0xf43b77",
      "gasUsed": "0xc84b",
      "effectiveGasPrice": "0xe0900",
      "blobGasPrice": "0x1",
      "from": "0xa9bbbdde822789f123667044443dc7001fb43c01",
      "to": "0xc1cba3fcea344f92d9239c08c0568f6f2f0ee452",
      "contractAddress": null,
      "root": "0x0000000000000000000000000000000000000000000000000000000000000000"
    },
    {
      "status": "0x1",
      "cumulativeGasUsed": "0x12a12",
      "logs": [
        {
          "address": "0xbbbbbbbbbb9cc5e90e3b3af64bdaf62c37eeffcb",
          "topics": [
            "0xa3b9472a1399e17e123f3c2e6586c23e504184d504de59cdaa2b375e880c6184",
            "0x72defbe3b6b9f9799801c74b727bc614d81ede34761c967e2f32da7ddec8a1ce",
            "0x000000000000000000000000a9bbbdde822789f123667044443dc7001fb43c01",
            "0x000000000000000000000000a9bbbdde822789f123667044443dc7001fb43c01"
          ],
          "data": "0x00000000000000000000000000000000000000000000000000071afd498d0000",
          "blockHash": "0xd3c57db0cecd1a532637f9643e5c93e6ab175ec1d338db76918e02041d9acf28",
          "blockNumber": "0xf43b78",
          "blockTimestamp": "0x6672d87d",
          "transactionHash": "0x9b208fbfe3e85cbe65e853d1273c1e6b92a02316f19298cd7c958d36720cfcb1",
          "transactionIndex": "0x0",
          "logIndex": "0x0",
          "removed": false
        },
        {
          "address": "0xc1cba3fcea344f92d9239c08c0568f6f2f0ee452",
          "topics": [
            "0x8c5be1e5ebec7d5bd14f71427d1e84f3dd0314c0f7b2291e5b200ac8c7c3b925",
            "0x000000000000000000000000a9bbbdde822789f123667044443dc7001fb43c01",
            "0x000000000000000000000000bbbbbbbbbb9cc5e90e3b3af64bdaf62c37eeffcb"
          ],
          "data": "0x0000000000000000000000000000000000000000000000000000000000000000",
          "blockHash": "0xd3c57db0cecd1a532637f9643e5c93e6ab175ec1d338db76918e02041d9acf28",
          "blockNumber": "0xf43b78",
          "blockTimestamp": "0x6672d87d",
          "transactionHash": "0x9b208fbfe3e85cbe65e853d1273c1e6b92a02316f19298cd7c958d36720cfcb1",
          "transactionIndex": "0x0",
          "logIndex": "0x1",
          "removed": false
        },
        {
          "address": "0xc1cba3fcea344f92d9239c08c0568f6f2f0ee452",
          "topics": [
            "0xddf252ad1be2c89b69c2b068fc378daa952ba7f163c4a11628f55a4df523b3ef",
            "0x000000000000000000000000a9bbbdde822789f123667044443dc7001fb43c01",
            "0x000000000000000000000000bbbbbbbbbb9cc5e90e3b3af64bdaf62c37eeffcb"
          ],
          "data": "0x00000000000000000000000000000000000000000000000000071afd498d0000",
          "blockHash": "0xd3c57db0cecd1a532637f9643e5c93e6ab175ec1d338db76918e02041d9acf28",
          "blockNumber": "0xf43b78",
          "blockTimestamp": "0x6672d87d",
          "transactionHash": "0x9b208fbfe3e85cbe65e853d1273c1e6b92a02316f19298cd7c958d36720cfcb1",
          "transactionIndex": "0x0",
          "logIndex": "0x2",
          "removed": false
        }
      ],
      "logsBloom": "0x00000000000000000000000000000080000000000000000000000208000000000000000000000000000000000000000000008000000000000000000000200000000000000010000000000008400000000000000000000000000002000000000000000000000000000000000000000000000000000000000000000010000000000000008000000008000000000000000000000000000000000000000000000000020000000000000000000000000000000000000000000000000000000000000060000002000000000000000000000000000010000000000400000000000000000010000001000040000000200000200000000080000000000000000000000000",
      "type": "0x2",
      "transactionHash": "0x9b208fbfe3e85cbe65e853d1273c1e6b92a02316f19298cd7c958d36720cfcb1",
      "transactionIndex": "0x0",
      "blockHash": "0xd3c57db0cecd1a532637f9643e5c93e6ab175ec1d338db76918e02041d9acf28",
      "blockNumber": "0xf43b78",
      "gasUsed": "0x12a12",
      "effectiveGasPrice": "0xcbb1b",
      "blobGasPrice": "0x1",
      "from": "0xa9bbbdde822789f123667044443dc7001fb43c01",
      "to": "0xbbbbbbbbbb9cc5e90e3b3af64bdaf62c37eeffcb",
      "contractAddress": null,
      "root": "0x0000000000000000000000000000000000000000000000000000000000000000"
    },
    {
      "status": "0x1",
      "cumulativeGasUsed": "0x24ec1",
      "logs": [
        {
          "address": "0x46415998764c29ab2a25cbea6254146d50d22687",
          "topics": [
            "0x7120161a7b3d31251e01294ab351ef15a41b91659a36032e4641bb89b121e321",
            "0x72defbe3b6b9f9799801c74b727bc614d81ede34761c967e2f32da7ddec8a1ce"
          ],
          "data": "0x0000000000000000000000000000000000000000000000000000000012e680df000000000000000000000000000000000000000000000000000000004b99f7b6",
          "blockHash": "0x5f94cae1929b2680f4691ce783e5d3f3aadcc2093bb4cca754814f1f590ee442",
          "blockNumber": "0xf43b79",
          "blockTimestamp": "0x6672d87e",
          "transactionHash": "0x3d1aa1357c3ef96a85ded5e8aaccc19830e654173a158b8a816a76bd4406457c",
          "transactionIndex": "0x0",
          "logIndex": "0x0",
          "removed": false
        },
        {
          "address": "0xbbbbbbbbbb9cc5e90e3b3af64bdaf62c37eeffcb",
          "topics": [
            "0x9d9bd501d0657d7dfe415f779a620a62b78bc508ddc0891fbbd8b7ac0f8fce87",
            "0x72defbe3b6b9f9799801c74b727bc614d81ede34761c967e2f32da7ddec8a1ce"
          ],
          "data": "0x0000000000000000000000000000000000000000000000000000000012e680df00000000000000000000000000000000000000000000000000000000000000000000000000000000000000000000000000000000000000000000000000000000",
          "blockHash": "0x5f94cae1929b2680f4691ce783e5d3f3aadcc2093bb4cca754814f1f590ee442",
          "blockNumber": "0xf43b79",
          "blockTimestamp": "0x6672d87e",
          "transactionHash": "0x3d1aa1357c3ef96a85ded5e8aaccc19830e654173a158b8a816a76bd4406457c",
          "transactionIndex": "0x0",
          "logIndex": "0x1",
          "removed": false
        },
        {
          "address": "0xbbbbbbbbbb9cc5e90e3b3af64bdaf62c37eeffcb",
          "topics": [
            "0x570954540bed6b1304a87dfe815a5eda4a648f7097a16240dcd85c9b5fd42a43",
            "0x72defbe3b6b9f9799801c74b727bc614d81ede34761c967e2f32da7ddec8a1ce",
            "0x000000000000000000000000a9bbbdde822789f123667044443dc7001fb43c01",
            "0x000000000000000000000000a9bbbdde822789f123667044443dc7001fb43c01"
          ],
          "data": "0x000000000000000000000000a9bbbdde822789f123667044443dc7001fb43c010000000000000000000000000000000000000000000000000c7d713b49da000000000000000000000000000000000000000000000000be951906eba2aa800000",
          "blockHash": "0x5f94cae1929b2680f4691ce783e5d3f3aadcc2093bb4cca754814f1f590ee442",
          "blockNumber": "0xf43b79",
          "blockTimestamp": "0x6672d87e",
          "transactionHash": "0x3d1aa1357c3ef96a85ded5e8aaccc19830e654173a158b8a816a76bd4406457c",
          "transactionIndex": "0x0",
          "logIndex": "0x2",
          "removed": false
        },
        {
          "address": "0x0000206329b97db379d5e1bf586bbdb969c63274",
          "topics": [
            "0xddf252ad1be2c89b69c2b068fc378daa952ba7f163c4a11628f55a4df523b3ef",
            "0x000000000000000000000000bbbbbbbbbb9cc5e90e3b3af64bdaf62c37eeffcb",
            "0x000000000000000000000000a9bbbdde822789f123667044443dc7001fb43c01"
          ],
          "data": "0x0000000000000000000000000000000000000000000000000c7d713b49da0000",
          "blockHash": "0x5f94cae1929b2680f4691ce783e5d3f3aadcc2093bb4cca754814f1f590ee442",
          "blockNumber": "0xf43b79",
          "blockTimestamp": "0x6672d87e",
          "transactionHash": "0x3d1aa1357c3ef96a85ded5e8aaccc19830e654173a158b8a816a76bd4406457c",
          "transactionIndex": "0x0",
          "logIndex": "0x3",
          "removed": false
        }
      ],
      "logsBloom": "0x00000000000000000002000000000080000000000000000000000208000000000000400000000100000000000000000000008000000000000000000020804000000000000010000000000008000004000000000000000000000002080000000000000000000000000000000000000000000000000000000000000010000000000000000000000008000000000000000000000000000000000008000000000000000000000000000000000000000000000000000000000000000000000000000020000002000000000000000000000000000110004000000000000000000000000000004001000048000000200001000000000000000000000000000000004000",
      "type": "0x2",
      "transactionHash": "0x3d1aa1357c3ef96a85ded5e8aaccc19830e654173a158b8a816a76bd4406457c",
      "transactionIndex": "0x0",
      "blockHash": "0x5f94cae1929b2680f4691ce783e5d3f3aadcc2093bb4cca754814f1f590ee442",
      "blockNumber": "0xf43b79",
      "gasUsed": "0x24ec1",
      "effectiveGasPrice": "0xb970e",
      "blobGasPrice": "0x1",
      "from": "0xa9bbbdde822789f123667044443dc7001fb43c01",
      "to": "0xbbbbbbbbbb9cc5e90e3b3af64bdaf62c37eeffcb",
      "contractAddress": null,
      "root": "0x0000000000000000000000000000000000000000000000000000000000000000"
    }
  ],
  "libraries": [],
  "pending": [],
  "returns": {},
  "timestamp": 1718802537,
  "chain": 8453,
  "commit": "0489249"
}