{
  "transactions": [
    {
      "hash": "0x1b8981e3ccdda8d4c6634933f22595b81f0d43b2c26176a10384799fe36ea084",
      "transactionType": "CALL",
      "contractName": null,
      "contractAddress": "0x4B1b4fEc85e265cE8b152fB233512FE4002fDEC3",
      "function": "liquidate((address,address,address,address,uint256),address,uint256,bytes)",
      "arguments": [
        "(0x0000206329b97DB379d5E1Bf586BbDB969C63274, 0xdd0f28e19C1780eb6396170735D45153D261490d, 0x4D7d8eF974428a7D73C90B0249003D30cf97239E, 0x870aC11D48B15DB9a138Cf899d20F13F79Ba00BC, 860000000000000000)",
        "0xA9DdD91249DFdd450E81E1c56Ab60E1A62651701",
        "50000000000000000000",
        "0x000000000000000000000000dd0f28e19c1780eb6396170735d45153d261490d0000000000000000000000000000206329b97db379d5e1bf586bbdb969c63274000000000000000000000000000000000000000000000002b5e3af16b1880000000000000000000000000000000000000000000000000000000000000000008000000000000000000000000000000000000000000000000000000000000005c0000000000000000000000000a9bbbdde822789f123667044443dc7001fb43c01000000000000000000000000000000000000000000000001158e460913df423e0000000000000000000000000000000000000000000000000000000000000003000000000000000000000000000000000000000000000000000000000000008000000000000000000000000000000000000000000000000000000000000005200000000000000000000000000000000000000000000000000000000000000000000000000000000000000000a9bbbdde822789f123667044443dc7001fb43c01000000000000000000000000000000000000000000000000000000000000006000000000000000000000000000000000000000000000000000000000000004a0000000000000000000000000000000000000000000000002b26b8169c7af0000000000000000000000000000000000000000000000000002b26b8169c7af000000000000000000000000000000000000000000000000000000000000000000a000000000000000000000000000000000000000000000000000000000000000e000000000000000000000000000000000000000000000000000000000000004600000000000000000000000000000000000000000000000000000000000000001000000000000000000000000a0b86991c6218b36c1d19d4a2e9eb0ce3606eb48000000000000000000000000000000000000000000000000000000000000000100000000000000000000000000000000000000000000000000000000000000200000000000000000000000000000000000000000000000000000000000000320000000000000000000000000a0b86991c6218b36c1d19d4a2e9eb0ce3606eb480000000000000000000000000000000000000000000000000000000008e15d620000000000000000000000000000000000000000000000000000000000000060000000000000000000000000000000000000000000000000000000000000028807ed2379000000000000000000000000e37e799d5077682fa0a244d46e5649f71457bd09000000000000000000000000a0b86991c6218b36c1d19d4a2e9eb0ce3606eb480000000000000000000000000000206329b97db379d5e1bf586bbdb969c63274000000000000000000000000e37e799d5077682fa0a244d46e5649f71457bd090000000000000000000000004b1b4fec85e265ce8b152fb233512fe4002fdec30000000000000000000000000000000000000000000000000000000002fd7154000000000000000000000000000000000000000000000002b134541e4aae700000000000000000000000000000000000000000000000000000000000000000000000000000000000000000000000000000000000000000000000000000000120000000000000000000000000000000000000000000000000000000000000013c00000000000000000000000000000000000000000000000000011e0000f05120222222fd79264bbe280b4986f6fefbc3524d0137a0b86991c6218b36c1d19d4a2e9eb0ce3606eb4800043b6a1fe000000000000000000000000000000000000000000000000000000000000000000000000000000000000000000000000000000000000000000000000000000000000000000000000000000000a0b86991c6218b36c1d19d4a2e9eb0ce3606eb480000000000000000000000000000206329b97db379d5e1bf586bbdb969c63274000000000000000000000000111111125421ca6dc452d289314280a0f8842a6500000000000000000000000000000000000000000000000000000000000000000020d6bdbf780000206329b97db379d5e1bf586bbdb969c63274111111125421ca6dc452d289314280a0f8842a6500000000f737be4600000000000000000000000000000000000000000000000000000000000000000000000000000000000000000000000000000000000000200000000000000000000000000000000000000000000000000000000002fd7154"
      ],
      "transaction": {
        "type": "0x02",
        "from": "0xa9bbbdde822789f123667044443dc7001fb43c01",
        "to": "0x4b1b4fec85e265ce8b152fb233512fe4002fdec3",
        "gas": "0xdc7a6",
        "value": "0x0",
        "data": "0x87cb0f510000000000000000000000000000206329b97db379d5e1bf586bbdb969c63274000000000000000000000000dd0f28e19c1780eb6396170735d45153d261490d0000000000000000000000004d7d8ef974428a7d73c90b0249003d30cf97239e000000000000000000000000870ac11d48b15db9a138cf899d20f13f79ba00bc0000000000000000000000000000000000000000000000000bef55718ad60000000000000000000000000000a9ddd91249dfdd450e81e1c56ab60e1a62651701000000000000000000000000000000000000000000000002b5e3af16b188000000000000000000000000000000000000000000000000000000000000000001000000000000000000000000000000000000000000000000000000000000000660000000000000000000000000dd0f28e19c1780eb6396170735d45153d261490d0000000000000000000000000000206329b97db379d5e1bf586bbdb969c63274000000000000000000000000000000000000000000000002b5e3af16b1880000000000000000000000000000000000000000000000000000000000000000008000000000000000000000000000000000000000000000000000000000000005c0000000000000000000000000a9bbbdde822789f123667044443dc7001fb43c01000000000000000000000000000000000000000000000001158e460913df423e0000000000000000000000000000000000000000000000000000000000000003000000000000000000000000000000000000000000000000000000000000008000000000000000000000000000000000000000000000000000000000000005200000000000000000000000000000000000000000000000000000000000000000000000000000000000000000a9bbbdde822789f123667044443dc7001fb43c01000000000000000000000000000000000000000000000000000000000000006000000000000000000000000000000000000000000000000000000000000004a0000000000000000000000000000000000000000000000002b26b8169c7af0000000000000000000000000000000000000000000000000002b26b8169c7af000000000000000000000000000000000000000000000000000000000000000000a000000000000000000000000000000000000000000000000000000000000000e000000000000000000000000000000000000000000000000000000000000004600000000000000000000000000000000000000000000000000000000000000001000000000000000000000000a0b86991c6218b36c1d19d4a2e9eb0ce3606eb48000000000000000000000000000000000000000000000000000000000000000100000000000000000000000000000000000000000000000000000000000000200000000000000000000000000000000000000000000000000000000000000320000000000000000000000000a0b86991c6218b36c1d19d4a2e9eb0ce3606eb480000000000000000000000000000000000000000000000000000000008e15d620000000000000000000000000000000000000000000000000000000000000060000000000000000000000000000000000000000000000000000000000000028807ed2379000000000000000000000000e37e799d5077682fa0a244d46e5649f71457bd09000000000000000000000000a0b86991c6218b36c1d19d4a2e9eb0ce3606eb480000000000000000000000000000206329b97db379d5e1bf586bbdb969c63274000000000000000000000000e37e799d5077682fa0a244d46e5649f71457bd090000000000000000000000004b1b4fec85e265ce8b152fb233512fe4002fdec30000000000000000000000000000000000000000000000000000000002fd7154000000000000000000000000000000000000000000000002b134541e4aae700000000000000000000000000000000000000000000000000000000000000000000000000000000000000000000000000000000000000000000000000000000120000000000000000000000000000000000000000000000000000000000000013c00000000000000000000000000000000000000000000000000011e0000f05120222222fd79264bbe280b4986f6fefbc3524d0137a0b86991c6218b36c1d19d4a2e9eb0ce3606eb4800043b6a1fe000000000000000000000000000000000000000000000000000000000000000000000000000000000000000000000000000000000000000000000000000000000000000000000000000000000a0b86991c6218b36c1d19d4a2e9eb0ce3606eb480000000000000000000000000000206329b97db379d5e1bf586bbdb969c63274000000000000000000000000111111125421ca6dc452d289314280a0f8842a6500000000000000000000000000000000000000000000000000000000000000000020d6bdbf780000206329b97db379d5e1bf586bbdb969c63274111111125421ca6dc452d289314280a0f8842a6500000000f737be4600000000000000000000000000000000000000000000000000000000000000000000000000000000000000000000000000000000000000200000000000000000000000000000000000000000000000000000000002fd7154",
        "nonce": "0x23",
        "accessList": []
      },
      "additionalContracts": [],
      "isFixedGasLimit": false
    }
  ],
  "receipts": [
    {
      "transactionHash": "0x1b8981e3ccdda8d4c6634933f22595b81f0d43b2c26176a10384799fe36ea084",
      "transactionIndex": "0x0",
      "blockHash": "0x6dd02a2c4ff840e053cef24eef2106c7dfee379030c352b71e0f537804ddec5e",
      "blockNumber": "0x12cf5c6",
      "from": "0xa9bbbDDe822789F123667044443dc7001fb43C01",
      "to": "0x4B1b4fEc85e265cE8b152fB233512FE4002fDEC3",
      "cumulativeGasUsed": "0xa4eff",
      "gasUsed": "0xa4eff",
      "contractAddress": null,
      "logs": [
        {
          "address": "0x870aC11D48B15DB9a138Cf899d20F13F79Ba00BC",
          "topics": [
            "0x7120161a7b3d31251e01294ab351ef15a41b91659a36032e4641bb89b121e321",
            "0x5a33a197ea467d9cabb578d4664610c2d842a5cb81f2e5d126e2313e484e0f22"
          ],
          "data": "0x0000000000000000000000000000000000000000000000000000000036d9f84f000000000000000000000000000000000000000000000000000000004b76da7b",
          "blockHash": "0x6dd02a2c4ff840e053cef24eef2106c7dfee379030c352b71e0f537804ddec5e",
          "blockNumber": "0x12cf5c6",
          "transactionHash": "0x1b8981e3ccdda8d4c6634933f22595b81f0d43b2c26176a10384799fe36ea084",
          "transactionIndex": "0x0",
          "logIndex": "0x0",
          "removed": false
        },
        {
          "address": "0xBBBBBbbBBb9cC5e90e3b3Af64bdAF62C37EEFFCb",
          "topics": [
            "0x9d9bd501d0657d7dfe415f779a620a62b78bc508ddc0891fbbd8b7ac0f8fce87",
            "0x5a33a197ea467d9cabb578d4664610c2d842a5cb81f2e5d126e2313e484e0f22"
          ],
          "data": "0x0000000000000000000000000000000000000000000000000000000036d9f84f000000000000000000000000000000000000000000000000000034bee7159c8c0000000000000000000000000000000000000000000000000000000000000000",
          "blockHash": "0x6dd02a2c4ff840e053cef24eef2106c7dfee379030c352b71e0f537804ddec5e",
          "blockNumber": "0x12cf5c6",
          "transactionHash": "0x1b8981e3ccdda8d4c6634933f22595b81f0d43b2c26176a10384799fe36ea084",
          "transactionIndex": "0x0",
          "logIndex": "0x1",
          "removed": false
        },
        {
          "address": "0xBBBBBbbBBb9cC5e90e3b3Af64bdAF62C37EEFFCb",
          "topics": [
            "0xa4946ede45d0c6f06a0f5ce92c9ad3b4751452d2fe0e25010783bcab57a67e41",
            "0x5a33a197ea467d9cabb578d4664610c2d842a5cb81f2e5d126e2313e484e0f22",
            "0x0000000000000000000000004b1b4fec85e265ce8b152fb233512fe4002fdec3",
            "0x000000000000000000000000a9ddd91249dfdd450e81e1c56ab60e1a62651701"
          ],
          "data": "0x000000000000000000000000000000000000000000000000431812d8256b0ce400000000000000000000000000000000000000000003ffc552fcdc7e9961b473000000000000000000000000000000000000000000000002b5e3af16b1880000000000000000000000000000000000000000000000000000d27667efd57a8fa80000000000000000000000000000000000000000000c8b64d92b2611fa9e4b8d",
          "blockHash": "0x6dd02a2c4ff840e053cef24eef2106c7dfee379030c352b71e0f537804ddec5e",
          "blockNumber": "0x12cf5c6",
          "transactionHash": "0x1b8981e3ccdda8d4c6634933f22595b81f0d43b2c26176a10384799fe36ea084",
          "transactionIndex": "0x0",
          "logIndex": "0x2",
          "removed": false
        },
        {
          "address": "0xdd0f28e19C1780eb6396170735D45153D261490d",
          "topics": [
            "0xddf252ad1be2c89b69c2b068fc378daa952ba7f163c4a11628f55a4df523b3ef",
            "0x000000000000000000000000bbbbbbbbbb9cc5e90e3b3af64bdaf62c37eeffcb",
            "0x0000000000000000000000004b1b4fec85e265ce8b152fb233512fe4002fdec3"
          ],
          "data": "0x000000000000000000000000000000000000000000000002b5e3af16b1880000",
          "blockHash": "0x6dd02a2c4ff840e053cef24eef2106c7dfee379030c352b71e0f537804ddec5e",
          "blockNumber": "0x12cf5c6",
          "transactionHash": "0x1b8981e3ccdda8d4c6634933f22595b81f0d43b2c26176a10384799fe36ea084",
          "transactionIndex": "0x0",
          "logIndex": "0x3",
          "removed": false
        },
        {
          "address": "0xdd0f28e19C1780eb6396170735D45153D261490d",
          "topics": [
            "0xf66f28b40975dbb933913542c7e6a0f50a1d0f20aa74ea6e0efe65ab616323ec"
          ],
          "data": "0x0000000000000000000000000000000000000000000000000000073851f847c50000000000000000000000000000000000000000000000000000000000000000",
          "blockHash": "0x6dd02a2c4ff840e053cef24eef2106c7dfee379030c352b71e0f537804ddec5e",
          "blockNumber": "0x12cf5c6",
          "transactionHash": "0x1b8981e3ccdda8d4c6634933f22595b81f0d43b2c26176a10384799fe36ea084",
          "transactionIndex": "0x0",
          "logIndex": "0x4",
          "removed": false
        },
        {
          "address": "0xdd0f28e19C1780eb6396170735D45153D261490d",
          "topics": [
            "0x15c027cc4fd826d986cad358803439f7326d3aa4ed969ff90dbee4bc150f68e9"
          ],
          "data": "0x000000000000000000000000000000000000000000000000000007384efa1209",
          "blockHash": "0x6dd02a2c4ff840e053cef24eef2106c7dfee379030c352b71e0f537804ddec5e",
          "blockNumber": "0x12cf5c6",
          "transactionHash": "0x1b8981e3ccdda8d4c6634933f22595b81f0d43b2c26176a10384799fe36ea084",
          "transactionIndex": "0x0",
          "logIndex": "0x5",
          "removed": false
        },
        {
          "address": "0x870aC11D48B15DB9a138Cf899d20F13F79Ba00BC",
          "topics": [
            "0x7120161a7b3d31251e01294ab351ef15a41b91659a36032e4641bb89b121e321",
            "0xb323495f7e4148be5643a4ea4a8221eef163e4bccfdedc2a6f4696baacbc86cc"
          ],
          "data": "0x00000000000000000000000000000000000000000000000000000000905fb82e00000000000000000000000000000000000000000000000000000000704004fd",
          "blockHash": "0x6dd02a2c4ff840e053cef24eef2106c7dfee379030c352b71e0f537804ddec5e",
          "blockNumber": "0x12cf5c6",
          "transactionHash": "0x1b8981e3ccdda8d4c6634933f22595b81f0d43b2c26176a10384799fe36ea084",
          "transactionIndex": "0x0",
          "logIndex": "0x6",
          "removed": false
        },
        {
          "address": "0xBBBBBbbBBb9cC5e90e3b3Af64bdAF62C37EEFFCb",
          "topics": [
            "0x9d9bd501d0657d7dfe415f779a620a62b78bc508ddc0891fbbd8b7ac0f8fce87",
            "0xb323495f7e4148be5643a4ea4a8221eef163e4bccfdedc2a6f4696baacbc86cc"
          ],
          "data": "0x00000000000000000000000000000000000000000000000000000000905fb82e000000000000000000000000000000000000000000000000000000000d3b3d460000000000000000000000000000000000000000000000000000000000000000",
          "blockHash": "0x6dd02a2c4ff840e053cef24eef2106c7dfee379030c352b71e0f537804ddec5e",
          "blockNumber": "0x12cf5c6",
          "transactionHash": "0x1b8981e3ccdda8d4c6634933f22595b81f0d43b2c26176a10384799fe36ea084",
          "transactionIndex": "0x0",
          "logIndex": "0x7",
          "removed": false
        },
        {
          "address": "0xBBBBBbbBBb9cC5e90e3b3Af64bdAF62C37EEFFCb",
          "topics": [
            "0xa56fc0ad5702ec05ce63666221f796fb62437c32db1aa1aa075fc6484cf58fbf",
            "0xb323495f7e4148be5643a4ea4a8221eef163e4bccfdedc2a6f4696baacbc86cc",
            "0x000000000000000000000000dd0f28e19c1780eb6396170735d45153d261490d",
            "0x000000000000000000000000dd0f28e19c1780eb6396170735d45153d261490d"
          ],
          "data": "0x000000000000000000000000dd0f28e19c1780eb6396170735d45153d261490d0000000000000000000000000000000000000000000000000000000002fe35bc00000000000000000000000000000000000000000000000000002cbce92511ac",
          "blockHash": "0x6dd02a2c4ff840e053cef24eef2106c7dfee379030c352b71e0f537804ddec5e",
          "blockNumber": "0x12cf5c6",
          "transactionHash": "0x1b8981e3ccdda8d4c6634933f22595b81f0d43b2c26176a10384799fe36ea084",
          "transactionIndex": "0x0",
          "logIndex": "0x8",
          "removed": false
        },
        {
          "address": "0xA0b86991c6218b36c1d19D4a2e9Eb0cE3606eB48",
          "topics": [
            "0xddf252ad1be2c89b69c2b068fc378daa952ba7f163c4a11628f55a4df523b3ef",
            "0x000000000000000000000000bbbbbbbbbb9cc5e90e3b3af64bdaf62c37eeffcb",
            "0x000000000000000000000000dd0f28e19c1780eb6396170735d45153d261490d"
          ],
          "data": "0x0000000000000000000000000000000000000000000000000000000002fe35bc",
          "blockHash": "0x6dd02a2c4ff840e053cef24eef2106c7dfee379030c352b71e0f537804ddec5e",
          "blockNumber": "0x12cf5c6",
          "transactionHash": "0x1b8981e3ccdda8d4c6634933f22595b81f0d43b2c26176a10384799fe36ea084",
          "transactionIndex": "0x0",
          "logIndex": "0x9",
          "removed": false
        },
        {
          "address": "0xdd0f28e19C1780eb6396170735D45153D261490d",
          "topics": [
            "0xddf252ad1be2c89b69c2b068fc378daa952ba7f163c4a11628f55a4df523b3ef",
            "0x0000000000000000000000004b1b4fec85e265ce8b152fb233512fe4002fdec3",
            "0x0000000000000000000000000000000000000000000000000000000000000000"
          ],
          "data": "0x000000000000000000000000000000000000000000000002b26b8169c7af0000",
          "blockHash": "0x6dd02a2c4ff840e053cef24eef2106c7dfee379030c352b71e0f537804ddec5e",
          "blockNumber": "0x12cf5c6",
          "transactionHash": "0x1b8981e3ccdda8d4c6634933f22595b81f0d43b2c26176a10384799fe36ea084",
          "transactionIndex": "0x0",
          "logIndex": "0xa",
          "removed": false
        },
        {
          "address": "0xA0b86991c6218b36c1d19D4a2e9Eb0cE3606eB48",
          "topics": [
            "0xddf252ad1be2c89b69c2b068fc378daa952ba7f163c4a11628f55a4df523b3ef",
            "0x000000000000000000000000dd0f28e19c1780eb6396170735d45153d261490d",
            "0x0000000000000000000000004b1b4fec85e265ce8b152fb233512fe4002fdec3"
          ],
          "data": "0x0000000000000000000000000000000000000000000000000000000002fe35bc",
          "blockHash": "0x6dd02a2c4ff840e053cef24eef2106c7dfee379030c352b71e0f537804ddec5e",
          "blockNumber": "0x12cf5c6",
          "transactionHash": "0x1b8981e3ccdda8d4c6634933f22595b81f0d43b2c26176a10384799fe36ea084",
          "transactionIndex": "0x0",
          "logIndex": "0xb",
          "removed": false
        },
        {
          "address": "0xdd0f28e19C1780eb6396170735D45153D261490d",
          "topics": [
            "0xfbde797d201c681b91056529119e0b02407c7bb96a4a2c75c01fc9667232c8db",
            "0x0000000000000000000000004b1b4fec85e265ce8b152fb233512fe4002fdec3",
            "0x0000000000000000000000004b1b4fec85e265ce8b152fb233512fe4002fdec3",
            "0x0000000000000000000000004b1b4fec85e265ce8b152fb233512fe4002fdec3"
          ],
          "data": "0x0000000000000000000000000000000000000000000000000000000002fe35bc000000000000000000000000000000000000000000000002b26b8169c7af0000",
          "blockHash": "0x6dd02a2c4ff840e053cef24eef2106c7dfee379030c352b71e0f537804ddec5e",
          "blockNumber": "0x12cf5c6",
          "transactionHash": "0x1b8981e3ccdda8d4c6634933f22595b81f0d43b2c26176a10384799fe36ea084",
          "transactionIndex": "0x0",
          "logIndex": "0xc",
          "removed": false
        },
        {
          "address": "0xA0b86991c6218b36c1d19D4a2e9Eb0cE3606eB48",
          "topics": [
            "0x8c5be1e5ebec7d5bd14f71427d1e84f3dd0314c0f7b2291e5b200ac8c7c3b925",
            "0x0000000000000000000000004b1b4fec85e265ce8b152fb233512fe4002fdec3",
            "0x000000000000000000000000111111125421ca6dc452d289314280a0f8842a65"
          ],
          "data": "0xffffffffffffffffffffffffffffffffffffffffffffffffffffffffffffffff",
          "blockHash": "0x6dd02a2c4ff840e053cef24eef2106c7dfee379030c352b71e0f537804ddec5e",
          "blockNumber": "0x12cf5c6",
          "transactionHash": "0x1b8981e3ccdda8d4c6634933f22595b81f0d43b2c26176a10384799fe36ea084",
          "transactionIndex": "0x0",
          "logIndex": "0xd",
          "removed": false
        },
        {
          "address": "0xA0b86991c6218b36c1d19D4a2e9Eb0cE3606eB48",
          "topics": [
            "0xddf252ad1be2c89b69c2b068fc378daa952ba7f163c4a11628f55a4df523b3ef",
            "0x0000000000000000000000004b1b4fec85e265ce8b152fb233512fe4002fdec3",
            "0x000000000000000000000000e37e799d5077682fa0a244d46e5649f71457bd09"
          ],
          "data": "0x0000000000000000000000000000000000000000000000000000000002fd7154",
          "blockHash": "0x6dd02a2c4ff840e053cef24eef2106c7dfee379030c352b71e0f537804ddec5e",
          "blockNumber": "0x12cf5c6",
          "transactionHash": "0x1b8981e3ccdda8d4c6634933f22595b81f0d43b2c26176a10384799fe36ea084",
          "transactionIndex": "0x0",
          "logIndex": "0xe",
          "removed": false
        },
        {
          "address": "0xA0b86991c6218b36c1d19D4a2e9Eb0cE3606eB48",
          "topics": [
            "0x8c5be1e5ebec7d5bd14f71427d1e84f3dd0314c0f7b2291e5b200ac8c7c3b925",
            "0x000000000000000000000000e37e799d5077682fa0a244d46e5649f71457bd09",
            "0x000000000000000000000000222222fd79264bbe280b4986f6fefbc3524d0137"
          ],
          "data": "0x0000000000000000000000000000000000000000000000000000000002fd7154",
          "blockHash": "0x6dd02a2c4ff840e053cef24eef2106c7dfee379030c352b71e0f537804ddec5e",
          "blockNumber": "0x12cf5c6",
          "transactionHash": "0x1b8981e3ccdda8d4c6634933f22595b81f0d43b2c26176a10384799fe36ea084",
          "transactionIndex": "0x0",
          "logIndex": "0xf",
          "removed": false
        },
        {
          "address": "0xA0b86991c6218b36c1d19D4a2e9Eb0cE3606eB48",
          "topics": [
            "0xddf252ad1be2c89b69c2b068fc378daa952ba7f163c4a11628f55a4df523b3ef",
            "0x000000000000000000000000e37e799d5077682fa0a244d46e5649f71457bd09",
            "0x000000000000000000000000222222fd79264bbe280b4986f6fefbc3524d0137"
          ],
          "data": "0x0000000000000000000000000000000000000000000000000000000002fd7154",
          "blockHash": "0x6dd02a2c4ff840e053cef24eef2106c7dfee379030c352b71e0f537804ddec5e",
          "blockNumber": "0x12cf5c6",
          "transactionHash": "0x1b8981e3ccdda8d4c6634933f22595b81f0d43b2c26176a10384799fe36ea084",
          "transactionIndex": "0x0",
          "logIndex": "0x10",
          "removed": false
        },
        {
          "address": "0x0000206329b97DB379d5E1Bf586BbDB969C63274",
          "topics": [
            "0xddf252ad1be2c89b69c2b068fc378daa952ba7f163c4a11628f55a4df523b3ef",
            "0x0000000000000000000000000000000000000000000000000000000000000000",
            "0x000000000000000000000000111111125421ca6dc452d289314280a0f8842a65"
          ],
          "data": "0x000000000000000000000000000000000000000000000002b82a838372394000",
          "blockHash": "0x6dd02a2c4ff840e053cef24eef2106c7dfee379030c352b71e0f537804ddec5e",
          "blockNumber": "0x12cf5c6",
          "transactionHash": "0x1b8981e3ccdda8d4c6634933f22595b81f0d43b2c26176a10384799fe36ea084",
          "transactionIndex": "0x0",
          "logIndex": "0x11",
          "removed": false
        },
        {
          "address": "0x222222fD79264BBE280b4986F6FEfBC3524d0137",
          "topics": [
            "0x73adcdbf2d8fee0c1221daefef436a92c3c640e97ff2941e744bf5eef1ab346f",
            "0x000000000000000000000000a0b86991c6218b36c1d19d4a2e9eb0ce3606eb48",
            "0x0000000000000000000000000000206329b97db379d5e1bf586bbdb969c63274",
            "0x000000000000000000000000e37e799d5077682fa0a244d46e5649f71457bd09"
          ],
          "data": "0x0000000000000000000000000000000000000000000000000000000002fd7154000000000000000000000000000000000000000000000002b82a838372394000000000000000000000000000111111125421ca6dc452d289314280a0f8842a65",
          "blockHash": "0x6dd02a2c4ff840e053cef24eef2106c7dfee379030c352b71e0f537804ddec5e",
          "blockNumber": "0x12cf5c6",
          "transactionHash": "0x1b8981e3ccdda8d4c6634933f22595b81f0d43b2c26176a10384799fe36ea084",
          "transactionIndex": "0x0",
          "logIndex": "0x12",
          "removed": false
        },
        {
          "address": "0x0000206329b97DB379d5E1Bf586BbDB969C63274",
          "topics": [
            "0xddf252ad1be2c89b69c2b068fc378daa952ba7f163c4a11628f55a4df523b3ef",
            "0x000000000000000000000000111111125421ca6dc452d289314280a0f8842a65",
            "0x0000000000000000000000004b1b4fec85e265ce8b152fb233512fe4002fdec3"
          ],
          "data": "0x000000000000000000000000000000000000000000000002b82a838372394000",
          "blockHash": "0x6dd02a2c4ff840e053cef24eef2106c7dfee379030c352b71e0f537804ddec5e",
          "blockNumber": "0x12cf5c6",
          "transactionHash": "0x1b8981e3ccdda8d4c6634933f22595b81f0d43b2c26176a10384799fe36ea084",
          "transactionIndex": "0x0",
          "logIndex": "0x13",
          "removed": false
        },
        {
          "address": "0xA0b86991c6218b36c1d19D4a2e9Eb0cE3606eB48",
          "topics": [
            "0xddf252ad1be2c89b69c2b068fc378daa952ba7f163c4a11628f55a4df523b3ef",
            "0x0000000000000000000000004b1b4fec85e265ce8b152fb233512fe4002fdec3",
            "0x000000000000000000000000a9bbbdde822789f123667044443dc7001fb43c01"
          ],
          "data": "0x000000000000000000000000000000000000000000000000000000000000c468",
          "blockHash": "0x6dd02a2c4ff840e053cef24eef2106c7dfee379030c352b71e0f537804ddec5e",
          "blockNumber": "0x12cf5c6",
          "transactionHash": "0x1b8981e3ccdda8d4c6634933f22595b81f0d43b2c26176a10384799fe36ea084",
          "transactionIndex": "0x0",
          "logIndex": "0x14",
          "removed": false
        },
        {
          "address": "0x0000206329b97DB379d5E1Bf586BbDB969C63274",
          "topics": [
            "0xddf252ad1be2c89b69c2b068fc378daa952ba7f163c4a11628f55a4df523b3ef",
            "0x0000000000000000000000004b1b4fec85e265ce8b152fb233512fe4002fdec3",
            "0x000000000000000000000000a9bbbdde822789f123667044443dc7001fb43c01"
          ],
          "data": "0x000000000000000000000000000000000000000000000002751270ab4cce331c",
          "blockHash": "0x6dd02a2c4ff840e053cef24eef2106c7dfee379030c352b71e0f537804ddec5e",
          "blockNumber": "0x12cf5c6",
          "transactionHash": "0x1b8981e3ccdda8d4c6634933f22595b81f0d43b2c26176a10384799fe36ea084",
          "transactionIndex": "0x0",
          "logIndex": "0x15",
          "removed": false
        },
        {
          "address": "0xdd0f28e19C1780eb6396170735D45153D261490d",
          "topics": [
            "0xddf252ad1be2c89b69c2b068fc378daa952ba7f163c4a11628f55a4df523b3ef",
            "0x0000000000000000000000004b1b4fec85e265ce8b152fb233512fe4002fdec3",
            "0x000000000000000000000000a9bbbdde822789f123667044443dc7001fb43c01"
          ],
          "data": "0x00000000000000000000000000000000000000000000000003782dace9d90000",
          "blockHash": "0x6dd02a2c4ff840e053cef24eef2106c7dfee379030c352b71e0f537804ddec5e",
          "blockNumber": "0x12cf5c6",
          "transactionHash": "0x1b8981e3ccdda8d4c6634933f22595b81f0d43b2c26176a10384799fe36ea084",
          "transactionIndex": "0x0",
          "logIndex": "0x16",
          "removed": false
        },
        {
          "address": "0x0000206329b97DB379d5E1Bf586BbDB969C63274",
          "topics": [
            "0x8c5be1e5ebec7d5bd14f71427d1e84f3dd0314c0f7b2291e5b200ac8c7c3b925",
            "0x0000000000000000000000004b1b4fec85e265ce8b152fb233512fe4002fdec3",
            "0x000000000000000000000000bbbbbbbbbb9cc5e90e3b3af64bdaf62c37eeffcb"
          ],
          "data": "0x000000000000000000000000000000000000000000000000431812d8256b0ce4",
          "blockHash": "0x6dd02a2c4ff840e053cef24eef2106c7dfee379030c352b71e0f537804ddec5e",
          "blockNumber": "0x12cf5c6",
          "transactionHash": "0x1b8981e3ccdda8d4c6634933f22595b81f0d43b2c26176a10384799fe36ea084",
          "transactionIndex": "0x0",
          "logIndex": "0x17",
          "removed": false
        },
        {
          "address": "0x0000206329b97DB379d5E1Bf586BbDB969C63274",
          "topics": [
            "0x8c5be1e5ebec7d5bd14f71427d1e84f3dd0314c0f7b2291e5b200ac8c7c3b925",
            "0x0000000000000000000000004b1b4fec85e265ce8b152fb233512fe4002fdec3",
            "0x000000000000000000000000bbbbbbbbbb9cc5e90e3b3af64bdaf62c37eeffcb"
          ],
          "data": "0x0000000000000000000000000000000000000000000000000000000000000000",
          "blockHash": "0x6dd02a2c4ff840e053cef24eef2106c7dfee379030c352b71e0f537804ddec5e",
          "blockNumber": "0x12cf5c6",
          "transactionHash": "0x1b8981e3ccdda8d4c6634933f22595b81f0d43b2c26176a10384799fe36ea084",
          "transactionIndex": "0x0",
          "logIndex": "0x18",
          "removed": false
        },
        {
          "address": "0x0000206329b97DB379d5E1Bf586BbDB969C63274",
          "topics": [
            "0xddf252ad1be2c89b69c2b068fc378daa952ba7f163c4a11628f55a4df523b3ef",
            "0x0000000000000000000000004b1b4fec85e265ce8b152fb233512fe4002fdec3",
            "0x000000000000000000000000bbbbbbbbbb9cc5e90e3b3af64bdaf62c37eeffcb"
          ],
          "data": "0x000000000000000000000000000000000000000000000000431812d8256b0ce4",
          "blockHash": "0x6dd02a2c4ff840e053cef24eef2106c7dfee379030c352b71e0f537804ddec5e",
          "blockNumber": "0x12cf5c6",
          "transactionHash": "0x1b8981e3ccdda8d4c6634933f22595b81f0d43b2c26176a10384799fe36ea084",
          "transactionIndex": "0x0",
          "logIndex": "0x19",
          "removed": false
        }
      ],
      "status": "0x1",
      "logsBloom": "0x00000080000001400000080000000080000082000000000000000008000000000000400000000000400002002002000000408000000000000000000020a6400000200400001000000800000800002400000000400020000000800208050000000000000002400000000000000000080000000001000000001000001440000002000800000000020a000000000000000200000100010000000020000000040400820000000020200000080002000000020000100004000000800000080000000820000002020000000001000000000000000000084402000008000000000020020010080001000000000000200001000004000000000000000000000000004000",
      "type": "0x2",
      "effectiveGasPrice": "0x2a59d8a2c"
    }
  ],
  "libraries": [],
  "pending": [],
  "returns": {},
  "timestamp": 1713946460,
  "chain": 1,
  "multi": false,
  "commit": "2355add"
}