{
  "transactions": [
    {
      "hash": null,
      "transactionType": "CALL",
      "contractName": null,
      "contractAddress": "0xE161ea4516b8Df0ef7B8d59c9fEF5Ae5839F826f",
      "function": "setMaxImpliedRate(uint256)",
      "arguments": [
        "999999990000000000"
      ],
      "transaction": {
        "type": "0x02",
        "from": "0x0c2553e4b9dfa9f83b1a6d3eab96c4baab42d430",
        "to": "0xe161ea4516b8df0ef7b8d59c9fef5ae5839f826f",
        "gas": "0xe538",
        "value": "0x0",
        "data": "0x3406b6d10000000000000000000000000000000000000000000000000de0b6b153581c00",
        "nonce": "0x1",
        "accessList": []
      },
      "additionalContracts": [],
      "isFixedGasLimit": false
    }
  ],
  "receipts": [],
  "libraries": [],
  "pending": [],
  "returns": {},
  "timestamp": 1712927577,
  "chain": 1,
  "multi": false,
  "commit": "afccf93"
}