{
  "transactions": [
    {
      "hash": "0xdafbfd6b367b3323674bec68911a3f7843d72c99694eba7143e5289bea9aa356",
      "transactionType": "CALL",
      "contractName": null,
      "contractAddress": "0x0000206329b97db379d5e1bf586bbdb969c63274",
      "function": "approve(address,uint256)",
      "arguments": [
        "0xBBBBBbbBBb9cC5e90e3b3Af64bdAF62C37EEFFCb",
        "5000000000000000000"
      ],
      "transaction": {
        "from": "0xa9bbbdde822789f123667044443dc7001fb43c01",
        "to": "0x0000206329b97db379d5e1bf586bbdb969c63274",
        "gas": "0x13108",
        "value": "0x0",
        "input": "0x095ea7b3000000000000000000000000bbbbbbbbbb9cc5e90e3b3af64bdaf62c37eeffcb0000000000000000000000000000000000000000000000004563918244f40000",
        "nonce": "0x54",
        "chainId": "0x1"
      },
      "additionalContracts": [],
      "isFixedGasLimit": false
    },
    {
      "hash": "0xbdee414800977d74354a87bd4630048a2b5a4d0b3083f64720ed06c8293fb928",
      "transactionType": "CALL",
      "contractName": null,
      "contractAddress": "0xbbbbbbbbbb9cc5e90e3b3af64bdaf62c37eeffcb",
      "function": "supply((address,address,address,address,uint256),uint256,uint256,address,bytes)",
      "arguments": [
        "(0x0000206329b97DB379d5E1Bf586BbDB969C63274, 0x6ee2b5E19ECBa773a352E5B21415Dc419A700d1d, 0x1620AcF8cF042C23CEeA0c6356E14e54D37CE8FF, 0x870aC11D48B15DB9a138Cf899d20F13F79Ba00BC, 860000000000000000)",
        "5000000000000000000",
        "0",
        "0xa9bbbDDe822789F123667044443dc7001fb43C01",
        "0x"
      ],
      "transaction": {
        "from": "0xa9bbbdde822789f123667044443dc7001fb43c01",
        "to": "0xbbbbbbbbbb9cc5e90e3b3af64bdaf62c37eeffcb",
        "gas": "0x2e030",
        "value": "0x0",
        "input": "0xa99aad890000000000000000000000000000206329b97db379d5e1bf586bbdb969c632740000000000000000000000006ee2b5e19ecba773a352e5b21415dc419a700d1d0000000000000000000000001620acf8cf042c23ceea0c6356e14e54d37ce8ff000000000000000000000000870ac11d48b15db9a138cf899d20f13f79ba00bc0000000000000000000000000000000000000000000000000bef55718ad600000000000000000000000000000000000000000000000000004563918244f400000000000000000000000000000000000000000000000000000000000000000000000000000000000000000000a9bbbdde822789f123667044443dc7001fb43c0100000000000000000000000000000000000000000000000000000000000001200000000000000000000000000000000000000000000000000000000000000000",
        "nonce": "0x55",
        "chainId": "0x1"
      },
      "additionalContracts": [],
      "isFixedGasLimit": false
    },
    {
      "hash": "0x0d6a3fb8e66c1188407363548f5acddd5162f29d5f653d2b8b5f68a124e016a9",
      "transactionType": "CALL",
      "contractName": null,
      "contractAddress": "0x6ee2b5e19ecba773a352e5b21415dc419a700d1d",
      "function": "approve(address,uint256)",
      "arguments": [
        "0xBBBBBbbBBb9cC5e90e3b3Af64bdAF62C37EEFFCb",
        "10000000000000000"
      ],
      "transaction": {
        "from": "0xa9bbbdde822789f123667044443dc7001fb43c01",
        "to": "0x6ee2b5e19ecba773a352e5b21415dc419a700d1d",
        "gas": "0xf814",
        "value": "0x0",
        "input": "0x095ea7b3000000000000000000000000bbbbbbbbbb9cc5e90e3b3af64bdaf62c37eeffcb000000000000000000000000000000000000000000000000002386f26fc10000",
        "nonce": "0x56",
        "chainId": "0x1"
      },
      "additionalContracts": [],
      "isFixedGasLimit": false
    },
    {
      "hash": "0x8fae2fd18744ab62521079be9403d6123a0410556cd77a07af2df63b321b6109",
      "transactionType": "CALL",
      "contractName": null,
      "contractAddress": "0xbbbbbbbbbb9cc5e90e3b3af64bdaf62c37eeffcb",
      "function": "supplyCollateral((address,address,address,address,uint256),uint256,address,bytes)",
      "arguments": [
        "(0x0000206329b97DB379d5E1Bf586BbDB969C63274, 0x6ee2b5E19ECBa773a352E5B21415Dc419A700d1d, 0x1620AcF8cF042C23CEeA0c6356E14e54D37CE8FF, 0x870aC11D48B15DB9a138Cf899d20F13F79Ba00BC, 860000000000000000)",
        "10000000000000000",
        "0xa9bbbDDe822789F123667044443dc7001fb43C01",
        "0x"
      ],
      "transaction": {
        "from": "0xa9bbbdde822789f123667044443dc7001fb43c01",
        "to": "0xbbbbbbbbbb9cc5e90e3b3af64bdaf62c37eeffcb",
        "gas": "0x1e859",
        "value": "0x0",
        "input": "0x238d65790000000000000000000000000000206329b97db379d5e1bf586bbdb969c632740000000000000000000000006ee2b5e19ecba773a352e5b21415dc419a700d1d0000000000000000000000001620acf8cf042c23ceea0c6356e14e54d37ce8ff000000000000000000000000870ac11d48b15db9a138cf899d20f13f79ba00bc0000000000000000000000000000000000000000000000000bef55718ad60000000000000000000000000000000000000000000000000000002386f26fc10000000000000000000000000000a9bbbdde822789f123667044443dc7001fb43c0100000000000000000000000000000000000000000000000000000000000001000000000000000000000000000000000000000000000000000000000000000000",
        "nonce": "0x57",
        "chainId": "0x1"
      },
      "additionalContracts": [],
      "isFixedGasLimit": false
    },
    {
      "hash": "0xfc132b77a4800062991f34dbd89793cb3cab208ee9023c95ab063a83db5cdab8",
      "transactionType": "CALL",
      "contractName": null,
      "contractAddress": "0xbbbbbbbbbb9cc5e90e3b3af64bdaf62c37eeffcb",
      "function": "borrow((address,address,address,address,uint256),uint256,uint256,address,address)",
      "arguments": [
        "(0x0000206329b97DB379d5E1Bf586BbDB969C63274, 0x6ee2b5E19ECBa773a352E5B21415Dc419A700d1d, 0x1620AcF8cF042C23CEeA0c6356E14e54D37CE8FF, 0x870aC11D48B15DB9a138Cf899d20F13F79Ba00BC, 860000000000000000)",
        "4500000000000000000",
        "0",
        "0xa9bbbDDe822789F123667044443dc7001fb43C01",
        "0xa9bbbDDe822789F123667044443dc7001fb43C01"
      ],
      "transaction": {
        "from": "0xa9bbbdde822789f123667044443dc7001fb43c01",
        "to": "0xbbbbbbbbbb9cc5e90e3b3af64bdaf62c37eeffcb",
        "gas": "0x47869",
        "value": "0x0",
        "input": "0x50d8cd4b0000000000000000000000000000206329b97db379d5e1bf586bbdb969c632740000000000000000000000006ee2b5e19ecba773a352e5b21415dc419a700d1d0000000000000000000000001620acf8cf042c23ceea0c6356e14e54d37ce8ff000000000000000000000000870ac11d48b15db9a138cf899d20f13f79ba00bc0000000000000000000000000000000000000000000000000bef55718ad600000000000000000000000000000000000000000000000000003e733628714200000000000000000000000000000000000000000000000000000000000000000000000000000000000000000000a9bbbdde822789f123667044443dc7001fb43c01000000000000000000000000a9bbbdde822789f123667044443dc7001fb43c01",
        "nonce": "0x58",
        "chainId": "0x1"
      },
      "additionalContracts": [],
      "isFixedGasLimit": false
    },
    {
      "hash": "0x27ebf82c31b7761cc1c34d37e84dd907514baca6eee876dbcaa6e9f204707119",
      "transactionType": "CALL",
      "contractName": null,
      "contractAddress": "0x0000206329b97db379d5e1bf586bbdb969c63274",
      "function": "approve(address,uint256)",
      "arguments": [
        "0xBBBBBbbBBb9cC5e90e3b3Af64bdAF62C37EEFFCb",
        "5000000000000000000"
      ],
      "transaction": {
        "from": "0xa9bbbdde822789f123667044443dc7001fb43c01",
        "to": "0x0000206329b97db379d5e1bf586bbdb969c63274",
        "gas": "0x13108",
        "value": "0x0",
        "input": "0x095ea7b3000000000000000000000000bbbbbbbbbb9cc5e90e3b3af64bdaf62c37eeffcb0000000000000000000000000000000000000000000000004563918244f40000",
        "nonce": "0x59",
        "chainId": "0x1"
      },
      "additionalContracts": [],
      "isFixedGasLimit": false
    },
    {
      "hash": "0xe110ae632647a7d60bf6c4ca1765ae1474f467bad735636850fe192e66a80217",
      "transactionType": "CALL",
      "contractName": null,
      "contractAddress": "0xbbbbbbbbbb9cc5e90e3b3af64bdaf62c37eeffcb",
      "function": "supply((address,address,address,address,uint256),uint256,uint256,address,bytes)",
      "arguments": [
        "(0x0000206329b97DB379d5E1Bf586BbDB969C63274, 0xf7906F274c174A52d444175729E3fa98f9bde285, 0xfE63A66aec4e39eE4c959eB7E2ed55Af8a0aB248, 0x870aC11D48B15DB9a138Cf899d20F13F79Ba00BC, 860000000000000000)",
        "5000000000000000000",
        "0",
        "0xa9bbbDDe822789F123667044443dc7001fb43C01",
        "0x"
      ],
      "transaction": {
        "from": "0xa9bbbdde822789f123667044443dc7001fb43c01",
        "to": "0xbbbbbbbbbb9cc5e90e3b3af64bdaf62c37eeffcb",
        "gas": "0x2e030",
        "value": "0x0",
        "input": "0xa99aad890000000000000000000000000000206329b97db379d5e1bf586bbdb969c63274000000000000000000000000f7906f274c174a52d444175729e3fa98f9bde285000000000000000000000000fe63a66aec4e39ee4c959eb7e2ed55af8a0ab248000000000000000000000000870ac11d48b15db9a138cf899d20f13f79ba00bc0000000000000000000000000000000000000000000000000bef55718ad600000000000000000000000000000000000000000000000000004563918244f400000000000000000000000000000000000000000000000000000000000000000000000000000000000000000000a9bbbdde822789f123667044443dc7001fb43c0100000000000000000000000000000000000000000000000000000000000001200000000000000000000000000000000000000000000000000000000000000000",
        "nonce": "0x5a",
        "chainId": "0x1"
      },
      "additionalContracts": [],
      "isFixedGasLimit": false
    },
    {
      "hash": "0xe394452cf9736d678829a6d74956764d8999b0c81f2c06dc56f5e37314f079ec",
      "transactionType": "CALL",
      "contractName": null,
      "contractAddress": "0xf7906f274c174a52d444175729e3fa98f9bde285",
      "function": "approve(address,uint256)",
      "arguments": [
        "0xBBBBBbbBBb9cC5e90e3b3Af64bdAF62C37EEFFCb",
        "10000000000000000"
      ],
      "transaction": {
        "from": "0xa9bbbdde822789f123667044443dc7001fb43c01",
        "to": "0xf7906f274c174a52d444175729e3fa98f9bde285",
        "gas": "0xf814",
        "value": "0x0",
        "input": "0x095ea7b3000000000000000000000000bbbbbbbbbb9cc5e90e3b3af64bdaf62c37eeffcb000000000000000000000000000000000000000000000000002386f26fc10000",
        "nonce": "0x5b",
        "chainId": "0x1"
      },
      "additionalContracts": [],
      "isFixedGasLimit": false
    },
    {
      "hash": "0xdb4c43f3c27d47ba0dfcfee70b45b72aedd9c3177ec78bdff515b9303d13a3b0",
      "transactionType": "CALL",
      "contractName": null,
      "contractAddress": "0xbbbbbbbbbb9cc5e90e3b3af64bdaf62c37eeffcb",
      "function": "supplyCollateral((address,address,address,address,uint256),uint256,address,bytes)",
      "arguments": [
        "(0x0000206329b97DB379d5E1Bf586BbDB969C63274, 0xf7906F274c174A52d444175729E3fa98f9bde285, 0xfE63A66aec4e39eE4c959eB7E2ed55Af8a0aB248, 0x870aC11D48B15DB9a138Cf899d20F13F79Ba00BC, 860000000000000000)",
        "10000000000000000",
        "0xa9bbbDDe822789F123667044443dc7001fb43C01",
        "0x"
      ],
      "transaction": {
        "from": "0xa9bbbdde822789f123667044443dc7001fb43c01",
        "to": "0xbbbbbbbbbb9cc5e90e3b3af64bdaf62c37eeffcb",
        "gas": "0x1e859",
        "value": "0x0",
        "input": "0x238d65790000000000000000000000000000206329b97db379d5e1bf586bbdb969c63274000000000000000000000000f7906f274c174a52d444175729e3fa98f9bde285000000000000000000000000fe63a66aec4e39ee4c959eb7e2ed55af8a0ab248000000000000000000000000870ac11d48b15db9a138cf899d20f13f79ba00bc0000000000000000000000000000000000000000000000000bef55718ad60000000000000000000000000000000000000000000000000000002386f26fc10000000000000000000000000000a9bbbdde822789f123667044443dc7001fb43c0100000000000000000000000000000000000000000000000000000000000001000000000000000000000000000000000000000000000000000000000000000000",
        "nonce": "0x5c",
        "chainId": "0x1"
      },
      "additionalContracts": [],
      "isFixedGasLimit": false
    },
    {
      "hash": "0x86ee3ee8006b28de670e57bbc908a1290063730659d06e833fd9d9db1df94ee4",
      "transactionType": "CALL",
      "contractName": null,
      "contractAddress": "0xbbbbbbbbbb9cc5e90e3b3af64bdaf62c37eeffcb",
      "function": "borrow((address,address,address,address,uint256),uint256,uint256,address,address)",
      "arguments": [
        "(0x0000206329b97DB379d5E1Bf586BbDB969C63274, 0xf7906F274c174A52d444175729E3fa98f9bde285, 0xfE63A66aec4e39eE4c959eB7E2ed55Af8a0aB248, 0x870aC11D48B15DB9a138Cf899d20F13F79Ba00BC, 860000000000000000)",
        "4500000000000000000",
        "0",
        "0xa9bbbDDe822789F123667044443dc7001fb43C01",
        "0xa9bbbDDe822789F123667044443dc7001fb43C01"
      ],
      "transaction": {
        "from": "0xa9bbbdde822789f123667044443dc7001fb43c01",
        "to": "0xbbbbbbbbbb9cc5e90e3b3af64bdaf62c37eeffcb",
        "gas": "0x50bf7",
        "value": "0x0",
        "input": "0x50d8cd4b0000000000000000000000000000206329b97db379d5e1bf586bbdb969c63274000000000000000000000000f7906f274c174a52d444175729e3fa98f9bde285000000000000000000000000fe63a66aec4e39ee4c959eb7e2ed55af8a0ab248000000000000000000000000870ac11d48b15db9a138cf899d20f13f79ba00bc0000000000000000000000000000000000000000000000000bef55718ad600000000000000000000000000000000000000000000000000003e733628714200000000000000000000000000000000000000000000000000000000000000000000000000000000000000000000a9bbbdde822789f123667044443dc7001fb43c01000000000000000000000000a9bbbdde822789f123667044443dc7001fb43c01",
        "nonce": "0x5d",
        "chainId": "0x1"
      },
      "additionalContracts": [],
      "isFixedGasLimit": false
    }
  ],
  "receipts": [
    {
      "status": "0x1",
      "cumulativeGasUsed": "0xd092",
      "logs": [
        {
          "address": "0x0000206329b97db379d5e1bf586bbdb969c63274",
          "topics": [
            "0x8c5be1e5ebec7d5bd14f71427d1e84f3dd0314c0f7b2291e5b200ac8c7c3b925",
            "0x000000000000000000000000a9bbbdde822789f123667044443dc7001fb43c01",
            "0x000000000000000000000000bbbbbbbbbb9cc5e90e3b3af64bdaf62c37eeffcb"
          ],
          "data": "0x0000000000000000000000000000000000000000000000004563918244f40000",
          "blockHash": "0xece6eac48802da76cf4162370d77636f8b209a3a94d0bdc205eecffafb5dfa6b",
          "blockNumber": "0x13317c8",
          "blockTimestamp": "0x6672c80e",
          "transactionHash": "0xdafbfd6b367b3323674bec68911a3f7843d72c99694eba7143e5289bea9aa356",
          "transactionIndex": "0x0",
          "logIndex": "0x0",
          "removed": false
        }
      ],
      "logsBloom": "0x00000000000000000000000000000080000000000000000000000008000000000000000000000000000000000000000000008000000000000000000000200000000000000000000000000000000004000000000000000000000002000000000000000000000000000000000000000000000000000000000000000000000000000000000000000000000000000000000000000000000000000000000000000000020000000000000000000000000000000000000000000000000000000000000000000000000000000000000000000000000000004000000000000000000000000010000001000000000000200000000000000000000000000000000000004000",
      "type": "0x2",
      "transactionHash": "0xdafbfd6b367b3323674bec68911a3f7843d72c99694eba7143e5289bea9aa356",
      "transactionIndex": "0x0",
      "blockHash": "0xece6eac48802da76cf4162370d77636f8b209a3a94d0bdc205eecffafb5dfa6b",
      "blockNumber": "0x13317c8",
      "gasUsed": "0xd092",
      "effectiveGasPrice": "0x11a6eda03",
      "blobGasPrice": "0x1",
      "from": "0xa9bbbdde822789f123667044443dc7001fb43c01",
      "to": "0x0000206329b97db379d5e1bf586bbdb969c63274",
      "contractAddress": null,
      "root": "0x0000000000000000000000000000000000000000000000000000000000000000"
    },
    {
      "status": "0x1",
      "cumulativeGasUsed": "0x1f761",
      "logs": [
        {
          "address": "0x870ac11d48b15db9a138cf899d20f13f79ba00bc",
          "topics": [
            "0x7120161a7b3d31251e01294ab351ef15a41b91659a36032e4641bb89b121e321",
            "0xb6c1599ac357c1b23fcd46f4ef69495fb11d91bc0fa90c7c3e6ab644592c8017"
          ],
          "data": "0x0000000000000000000000000000000000000000000000000000000011746d360000000000000000000000000000000000000000000000000000000040498526",
          "blockHash": "0x9277a04783eaed2a338c13080a8c12e5a08a89c09e7fb862ad4cf387f204cb60",
          "blockNumber": "0x13317c9",
          "blockTimestamp": "0x6672c80f",
          "transactionHash": "0xbdee414800977d74354a87bd4630048a2b5a4d0b3083f64720ed06c8293fb928",
          "transactionIndex": "0x0",
          "logIndex": "0x0",
          "removed": false
        },
        {
          "address": "0xbbbbbbbbbb9cc5e90e3b3af64bdaf62c37eeffcb",
          "topics": [
            "0x9d9bd501d0657d7dfe415f779a620a62b78bc508ddc0891fbbd8b7ac0f8fce87",
            "0xb6c1599ac357c1b23fcd46f4ef69495fb11d91bc0fa90c7c3e6ab644592c8017"
          ],
          "data": "0x0000000000000000000000000000000000000000000000000000000011746d3600000000000000000000000000000000000000000000000000000000000000000000000000000000000000000000000000000000000000000000000000000000",
          "blockHash": "0x9277a04783eaed2a338c13080a8c12e5a08a89c09e7fb862ad4cf387f204cb60",
          "blockNumber": "0x13317c9",
          "blockTimestamp": "0x6672c80f",
          "transactionHash": "0xbdee414800977d74354a87bd4630048a2b5a4d0b3083f64720ed06c8293fb928",
          "transactionIndex": "0x0",
          "logIndex": "0x1",
          "removed": false
        },
        {
          "address": "0xbbbbbbbbbb9cc5e90e3b3af64bdaf62c37eeffcb",
          "topics": [
            "0xedf8870433c83823eb071d3df1caa8d008f12f6440918c20d75a3602cda30fe0",
            "0xb6c1599ac357c1b23fcd46f4ef69495fb11d91bc0fa90c7c3e6ab644592c8017",
            "0x000000000000000000000000a9bbbdde822789f123667044443dc7001fb43c01",
            "0x000000000000000000000000a9bbbdde822789f123667044443dc7001fb43c01"
          ],
          "data": "0x0000000000000000000000000000000000000000000000004563918244f400000000000000000000000000000000000000000000000422ca8b0a00a425000000",
          "blockHash": "0x9277a04783eaed2a338c13080a8c12e5a08a89c09e7fb862ad4cf387f204cb60",
          "blockNumber": "0x13317c9",
          "blockTimestamp": "0x6672c80f",
          "transactionHash": "0xbdee414800977d74354a87bd4630048a2b5a4d0b3083f64720ed06c8293fb928",
          "transactionIndex": "0x0",
          "logIndex": "0x2",
          "removed": false
        },
        {
          "address": "0x0000206329b97db379d5e1bf586bbdb969c63274",
          "topics": [
            "0x8c5be1e5ebec7d5bd14f71427d1e84f3dd0314c0f7b2291e5b200ac8c7c3b925",
            "0x000000000000000000000000a9bbbdde822789f123667044443dc7001fb43c01",
            "0x000000000000000000000000bbbbbbbbbb9cc5e90e3b3af64bdaf62c37eeffcb"
          ],
          "data": "0x0000000000000000000000000000000000000000000000000000000000000000",
          "blockHash": "0x9277a04783eaed2a338c13080a8c12e5a08a89c09e7fb862ad4cf387f204cb60",
          "blockNumber": "0x13317c9",
          "blockTimestamp": "0x6672c80f",
          "transactionHash": "0xbdee414800977d74354a87bd4630048a2b5a4d0b3083f64720ed06c8293fb928",
          "transactionIndex": "0x0",
          "logIndex": "0x3",
          "removed": false
        },
        {
          "address": "0x0000206329b97db379d5e1bf586bbdb969c63274",
          "topics": [
            "0xddf252ad1be2c89b69c2b068fc378daa952ba7f163c4a11628f55a4df523b3ef",
            "0x000000000000000000000000a9bbbdde822789f123667044443dc7001fb43c01",
            "0x000000000000000000000000bbbbbbbbbb9cc5e90e3b3af64bdaf62c37eeffcb"
          ],
          "data": "0x0000000000000000000000000000000000000000000000004563918244f40000",
          "blockHash": "0x9277a04783eaed2a338c13080a8c12e5a08a89c09e7fb862ad4cf387f204cb60",
          "blockNumber": "0x13317c9",
          "blockTimestamp": "0x6672c80f",
          "transactionHash": "0xbdee414800977d74354a87bd4630048a2b5a4d0b3083f64720ed06c8293fb928",
          "transactionIndex": "0x0",
          "logIndex": "0x4",
          "removed": false
        }
      ],
      "logsBloom": "0x00000000000000000000000000000080000000000000000000000008000000000000400000000000000000000000000000008000000000000000000020a44000000000084010000000000008800004000000000800200000000002080000000000000000000000000000000000000000000000000000000000000010000000000000000100000008000000000000000000000000000000000000000000000000020000000000000000000000000000000000000000000000000000000000000020000002000000000001000000000000000000004000000000000000000000400010000001000000000000200001000000000000000000000000000000004000",
      "type": "0x2",
      "transactionHash": "0xbdee414800977d74354a87bd4630048a2b5a4d0b3083f64720ed06c8293fb928",
      "transactionIndex": "0x0",
      "blockHash": "0x9277a04783eaed2a338c13080a8c12e5a08a89c09e7fb862ad4cf387f204cb60",
      "blockNumber": "0x13317c9",
      "gasUsed": "0x1f761",
      "effectiveGasPrice": "0xf7ff38e5",
      "blobGasPrice": "0x1",
      "from": "0xa9bbbdde822789f123667044443dc7001fb43c01",
      "to": "0xbbbbbbbbbb9cc5e90e3b3af64bdaf62c37eeffcb",
      "contractAddress": null,
      "root": "0x0000000000000000000000000000000000000000000000000000000000000000"
    },
    {
      "status": "0x1",
      "cumulativeGasUsed": "0xb39c",
      "logs": [
        {
          "address": "0x6ee2b5e19ecba773a352e5b21415dc419a700d1d",
          "topics": [
            "0x8c5be1e5ebec7d5bd14f71427d1e84f3dd0314c0f7b2291e5b200ac8c7c3b925",
            "0x000000000000000000000000a9bbbdde822789f123667044443dc7001fb43c01",
            "0x000000000000000000000000bbbbbbbbbb9cc5e90e3b3af64bdaf62c37eeffcb"
          ],
          "data": "0x000000000000000000000000000000000000000000000000002386f26fc10000",
          "blockHash": "0xc1ef12c425e233016bb814a5a918726050c4b25177057ea44b15442e1118e556",
          "blockNumber": "0x13317ca",
          "blockTimestamp": "0x6672c810",
          "transactionHash": "0x0d6a3fb8e66c1188407363548f5acddd5162f29d5f653d2b8b5f68a124e016a9",
          "transactionIndex": "0x0",
          "logIndex": "0x0",
          "removed": false
        }
      ],
      "logsBloom": "0x00000000000000000000000000000080000000000000000000000008000000000000000000000000000000000000000000008000000000000000000000200000000000000000000000000000000000000000000000000400000002000000000000000000000000000000000000000000000000000000000000000000000000000000000000000000000000000100000000000000000000000000000000000000020000000000000000000000000000000000000000000000000000000000000000000000000000000000000200000000000000000000000000000000000000000010000001000000000000200000000000000000000000000000000000000000",
      "type": "0x2",
      "transactionHash": "0x0d6a3fb8e66c1188407363548f5acddd5162f29d5f653d2b8b5f68a124e016a9",
      "transactionIndex": "0x0",
      "blockHash": "0xc1ef12c425e233016bb814a5a918726050c4b25177057ea44b15442e1118e556",
      "blockNumber": "0x13317ca",
      "gasUsed": "0xb39c",
      "effectiveGasPrice": "0xda0097d4",
      "blobGasPrice": "0x1",
      "from": "0xa9bbbdde822789f123667044443dc7001fb43c01",
      "to": "0x6ee2b5e19ecba773a352e5b21415dc419a700d1d",
      "contractAddress": null,
      "root": "0x0000000000000000000000000000000000000000000000000000000000000000"
    },
    {
      "status": "0x1",
      "cumulativeGasUsed": "0x1618f",
      "logs": [
        {
          "address": "0xbbbbbbbbbb9cc5e90e3b3af64bdaf62c37eeffcb",
          "topics": [
            "0xa3b9472a1399e17e123f3c2e6586c23e504184d504de59cdaa2b375e880c6184",
            "0xb6c1599ac357c1b23fcd46f4ef69495fb11d91bc0fa90c7c3e6ab644592c8017",
            "0x000000000000000000000000a9bbbdde822789f123667044443dc7001fb43c01",
            "0x000000000000000000000000a9bbbdde822789f123667044443dc7001fb43c01"
          ],
          "data": "0x000000000000000000000000000000000000000000000000002386f26fc10000",
          "blockHash": "0x184d48ecfb00cf2730b47c50f700d8e56f8c2648b731db2dac9e47ed81cff197",
          "blockNumber": "0x13317cb",
          "blockTimestamp": "0x6672c811",
          "transactionHash": "0x8fae2fd18744ab62521079be9403d6123a0410556cd77a07af2df63b321b6109",
          "transactionIndex": "0x0",
          "logIndex": "0x0",
          "removed": false
        },
        {
          "address": "0x6ee2b5e19ecba773a352e5b21415dc419a700d1d",
          "topics": [
            "0x8c5be1e5ebec7d5bd14f71427d1e84f3dd0314c0f7b2291e5b200ac8c7c3b925",
            "0x000000000000000000000000a9bbbdde822789f123667044443dc7001fb43c01",
            "0x000000000000000000000000bbbbbbbbbb9cc5e90e3b3af64bdaf62c37eeffcb"
          ],
          "data": "0x0000000000000000000000000000000000000000000000000000000000000000",
          "blockHash": "0x184d48ecfb00cf2730b47c50f700d8e56f8c2648b731db2dac9e47ed81cff197",
          "blockNumber": "0x13317cb",
          "blockTimestamp": "0x6672c811",
          "transactionHash": "0x8fae2fd18744ab62521079be9403d6123a0410556cd77a07af2df63b321b6109",
          "transactionIndex": "0x0",
          "logIndex": "0x1",
          "removed": false
        },
        {
          "address": "0x6ee2b5e19ecba773a352e5b21415dc419a700d1d",
          "topics": [
            "0xddf252ad1be2c89b69c2b068fc378daa952ba7f163c4a11628f55a4df523b3ef",
            "0x000000000000000000000000a9bbbdde822789f123667044443dc7001fb43c01",
            "0x000000000000000000000000bbbbbbbbbb9cc5e90e3b3af64bdaf62c37eeffcb"
          ],
          "data": "0x000000000000000000000000000000000000000000000000002386f26fc10000",
          "blockHash": "0x184d48ecfb00cf2730b47c50f700d8e56f8c2648b731db2dac9e47ed81cff197",
          "blockNumber": "0x13317cb",
          "blockTimestamp": "0x6672c811",
          "transactionHash": "0x8fae2fd18744ab62521079be9403d6123a0410556cd77a07af2df63b321b6109",
          "transactionIndex": "0x0",
          "logIndex": "0x2",
          "removed": false
        }
      ],
      "logsBloom": "0x00000000000000000000000000000080000000000000000000000008000000000000000000000000000000000000000000008000000000000000000000200000000000084010000000000008000000000000000000000400000002000000000000000000000000000000000000000000000000000000000000000010000000000000008100000008000000000100000000000000000000000000000000000000020000000000000000000000000000000000000000000000000000000000000020000002000000000000000200000000000000000000000400000000000000000010000001000000000000200000200000000000000000000000000000000000",
      "type": "0x2",
      "transactionHash": "0x8fae2fd18744ab62521079be9403d6123a0410556cd77a07af2df63b321b6109",
      "transactionIndex": "0x0",
      "blockHash": "0x184d48ecfb00cf2730b47c50f700d8e56f8c2648b731db2dac9e47ed81cff197",
      "blockNumber": "0x13317cb",
      "gasUsed": "0x1618f",
      "effectiveGasPrice": "0xbf940d9b",
      "blobGasPrice": "0x1",
      "from": "0xa9bbbdde822789f123667044443dc7001fb43c01",
      "to": "0xbbbbbbbbbb9cc5e90e3b3af64bdaf62c37eeffcb",
      "contractAddress": null,
      "root": "0x0000000000000000000000000000000000000000000000000000000000000000"
    },
    {
      "status": "0x1",
      "cumulativeGasUsed": "0x36d44",
      "logs": [
        {
          "address": "0x870ac11d48b15db9a138cf899d20f13f79ba00bc",
          "topics": [
            "0x7120161a7b3d31251e01294ab351ef15a41b91659a36032e4641bb89b121e321",
            "0xb6c1599ac357c1b23fcd46f4ef69495fb11d91bc0fa90c7c3e6ab644592c8017"
          ],
          "data": "0x0000000000000000000000000000000000000000000000000000000010125ec8000000000000000000000000000000000000000000000000000000004049711b",
          "blockHash": "0xe2095e658abdbb6d3538e13ce8d56a7f852b266802867b52e2dfec313dcdba55",
          "blockNumber": "0x13317cc",
          "blockTimestamp": "0x6672c812",
          "transactionHash": "0xfc132b77a4800062991f34dbd89793cb3cab208ee9023c95ab063a83db5cdab8",
          "transactionIndex": "0x0",
          "logIndex": "0x0",
          "removed": false
        },
        {
          "address": "0xbbbbbbbbbb9cc5e90e3b3af64bdaf62c37eeffcb",
          "topics": [
            "0x9d9bd501d0657d7dfe415f779a620a62b78bc508ddc0891fbbd8b7ac0f8fce87",
            "0xb6c1599ac357c1b23fcd46f4ef69495fb11d91bc0fa90c7c3e6ab644592c8017"
          ],
          "data": "0x0000000000000000000000000000000000000000000000000000000010125ec800000000000000000000000000000000000000000000000000000000000000000000000000000000000000000000000000000000000000000000000000000000",
          "blockHash": "0xe2095e658abdbb6d3538e13ce8d56a7f852b266802867b52e2dfec313dcdba55",
          "blockNumber": "0x13317cc",
          "blockTimestamp": "0x6672c812",
          "transactionHash": "0xfc132b77a4800062991f34dbd89793cb3cab208ee9023c95ab063a83db5cdab8",
          "transactionIndex": "0x0",
          "logIndex": "0x1",
          "removed": false
        },
        {
          "address": "0xbbbbbbbbbb9cc5e90e3b3af64bdaf62c37eeffcb",
          "topics": [
            "0x570954540bed6b1304a87dfe815a5eda4a648f7097a16240dcd85c9b5fd42a43",
            "0xb6c1599ac357c1b23fcd46f4ef69495fb11d91bc0fa90c7c3e6ab644592c8017",
            "0x000000000000000000000000a9bbbdde822789f123667044443dc7001fb43c01",
            "0x000000000000000000000000a9bbbdde822789f123667044443dc7001fb43c01"
          ],
          "data": "0x000000000000000000000000a9bbbdde822789f123667044443dc7001fb43c010000000000000000000000000000000000000000000000003e7336287142000000000000000000000000000000000000000000000003b8e97d229a2d54800000",
          "blockHash": "0xe2095e658abdbb6d3538e13ce8d56a7f852b266802867b52e2dfec313dcdba55",
          "blockNumber": "0x13317cc",
          "blockTimestamp": "0x6672c812",
          "transactionHash": "0xfc132b77a4800062991f34dbd89793cb3cab208ee9023c95ab063a83db5cdab8",
          "transactionIndex": "0x0",
          "logIndex": "0x2",
          "removed": false
        },
        {
          "address": "0x0000206329b97db379d5e1bf586bbdb969c63274",
          "topics": [
            "0xddf252ad1be2c89b69c2b068fc378daa952ba7f163c4a11628f55a4df523b3ef",
            "0x000000000000000000000000bbbbbbbbbb9cc5e90e3b3af64bdaf62c37eeffcb",
            "0x000000000000000000000000a9bbbdde822789f123667044443dc7001fb43c01"
          ],
          "data": "0x0000000000000000000000000000000000000000000000003e73362871420000",
          "blockHash": "0xe2095e658abdbb6d3538e13ce8d56a7f852b266802867b52e2dfec313dcdba55",
          "blockNumber": "0x13317cc",
          "blockTimestamp": "0x6672c812",
          "transactionHash": "0xfc132b77a4800062991f34dbd89793cb3cab208ee9023c95ab063a83db5cdab8",
          "transactionIndex": "0x0",
          "logIndex": "0x3",
          "removed": false
        }
      ],
      "logsBloom": "0x00000000000000000002000000000080000000000000000000000008000000000000400000000000000000000000000000008000000000000000000020844000000000084010000000000008000004000000000000200000000002080000000000000000000000000000000000000000000000000000000000000010000000000000000100000008000000000000000000000000000000000000000000000000000000000000000000000000000000000000000000000000000000000000000020000002000000000001000000000000000000004000000000000000000000000000004001000008000000200001000000000000000000000000000000004000",
      "type": "0x2",
      "transactionHash": "0xfc132b77a4800062991f34dbd89793cb3cab208ee9023c95ab063a83db5cdab8",
      "transactionIndex": "0x0",
      "blockHash": "0xe2095e658abdbb6d3538e13ce8d56a7f852b266802867b52e2dfec313dcdba55",
      "blockNumber": "0x13317cc",
      "gasUsed": "0x36d44",
      "effectiveGasPrice": "0xa8841f53",
      "blobGasPrice": "0x1",
      "from": "0xa9bbbdde822789f123667044443dc7001fb43c01",
      "to": "0xbbbbbbbbbb9cc5e90e3b3af64bdaf62c37eeffcb",
      "contractAddress": null,
      "root": "0x0000000000000000000000000000000000000000000000000000000000000000"
    },
    {
      "status": "0x1",
      "cumulativeGasUsed": "0xd092",
      "logs": [
        {
          "address": "0x0000206329b97db379d5e1bf586bbdb969c63274",
          "topics": [
            "0x8c5be1e5ebec7d5bd14f71427d1e84f3dd0314c0f7b2291e5b200ac8c7c3b925",
            "0x000000000000000000000000a9bbbdde822789f123667044443dc7001fb43c01",
            "0x000000000000000000000000bbbbbbbbbb9cc5e90e3b3af64bdaf62c37eeffcb"
          ],
          "data": "0x0000000000000000000000000000000000000000000000004563918244f40000",
          "blockHash": "0x4bdebe35c7164ad9997f975b9af51e501863da4389939fcce2a4e58036f7f3b0",
          "blockNumber": "0x13317cd",
          "blockTimestamp": "0x6672c813",
          "transactionHash": "0x27ebf82c31b7761cc1c34d37e84dd907514baca6eee876dbcaa6e9f204707119",
          "transactionIndex": "0x0",
          "logIndex": "0x0",
          "removed": false
        }
      ],
      "logsBloom": "0x00000000000000000000000000000080000000000000000000000008000000000000000000000000000000000000000000008000000000000000000000200000000000000000000000000000000004000000000000000000000002000000000000000000000000000000000000000000000000000000000000000000000000000000000000000000000000000000000000000000000000000000000000000000020000000000000000000000000000000000000000000000000000000000000000000000000000000000000000000000000000004000000000000000000000000010000001000000000000200000000000000000000000000000000000004000",
      "type": "0x2",
      "transactionHash": "0x27ebf82c31b7761cc1c34d37e84dd907514baca6eee876dbcaa6e9f204707119",
      "transactionIndex": "0x0",
      "blockHash": "0x4bdebe35c7164ad9997f975b9af51e501863da4389939fcce2a4e58036f7f3b0",
      "blockNumber": "0x13317cd",
      "gasUsed": "0xd092",
      "effectiveGasPrice": "0x94803916",
      "blobGasPrice": "0x1",
      "from": "0xa9bbbdde822789f123667044443dc7001fb43c01",
      "to": "0x0000206329b97db379d5e1bf586bbdb969c63274",
      "contractAddress": null,
      "root": "0x0000000000000000000000000000000000000000000000000000000000000000"
    },
    {
      "status": "0x1",
      "cumulativeGasUsed": "0x1f761",
      "logs": [
        {
          "address": "0x870ac11d48b15db9a138cf899d20f13f79ba00bc",
          "topics": [
            "0x7120161a7b3d31251e01294ab351ef15a41b91659a36032e4641bb89b121e321",
            "0xed9e817ac29464b3cc520bf124fb333c330021a8ae768889f414d21df35686e0"
          ],
          "data": "0x0000000000000000000000000000000000000000000000000000000011747d9700000000000000000000000000000000000000000000000000000000404a0217",
          "blockHash": "0x8d81da9c22b4722e06d57fe0f8605136e0ca0d21a148c0a0f74a952d3f99e9cf",
          "blockNumber": "0x13317ce",
          "blockTimestamp": "0x6672c814",
          "transactionHash": "0xe110ae632647a7d60bf6c4ca1765ae1474f467bad735636850fe192e66a80217",
          "transactionIndex": "0x0",
          "logIndex": "0x0",
          "removed": false
        },
        {
          "address": "0xbbbbbbbbbb9cc5e90e3b3af64bdaf62c37eeffcb",
          "topics": [
            "0x9d9bd501d0657d7dfe415f779a620a62b78bc508ddc0891fbbd8b7ac0f8fce87",
            "0xed9e817ac29464b3cc520bf124fb333c330021a8ae768889f414d21df35686e0"
          ],
          "data": "0x0000000000000000000000000000000000000000000000000000000011747d9700000000000000000000000000000000000000000000000000000000000000000000000000000000000000000000000000000000000000000000000000000000",
          "blockHash": "0x8d81da9c22b4722e06d57fe0f8605136e0ca0d21a148c0a0f74a952d3f99e9cf",
          "blockNumber": "0x13317ce",
          "blockTimestamp": "0x6672c814",
          "transactionHash": "0xe110ae632647a7d60bf6c4ca1765ae1474f467bad735636850fe192e66a80217",
          "transactionIndex": "0x0",
          "logIndex": "0x1",
          "removed": false
        },
        {
          "address": "0xbbbbbbbbbb9cc5e90e3b3af64bdaf62c37eeffcb",
          "topics": [
            "0xedf8870433c83823eb071d3df1caa8d008f12f6440918c20d75a3602cda30fe0",
            "0xed9e817ac29464b3cc520bf124fb333c330021a8ae768889f414d21df35686e0",
            "0x000000000000000000000000a9bbbdde822789f123667044443dc7001fb43c01",
            "0x000000000000000000000000a9bbbdde822789f123667044443dc7001fb43c01"
          ],
          "data": "0x0000000000000000000000000000000000000000000000004563918244f400000000000000000000000000000000000000000000000422ca8b0a00a425000000",
          "blockHash": "0x8d81da9c22b4722e06d57fe0f8605136e0ca0d21a148c0a0f74a952d3f99e9cf",
          "blockNumber": "0x13317ce",
          "blockTimestamp": "0x6672c814",
          "transactionHash": "0xe110ae632647a7d60bf6c4ca1765ae1474f467bad735636850fe192e66a80217",
          "transactionIndex": "0x0",
          "logIndex": "0x2",
          "removed": false
        },
        {
          "address": "0x0000206329b97db379d5e1bf586bbdb969c63274",
          "topics": [
            "0x8c5be1e5ebec7d5bd14f71427d1e84f3dd0314c0f7b2291e5b200ac8c7c3b925",
            "0x000000000000000000000000a9bbbdde822789f123667044443dc7001fb43c01",
            "0x000000000000000000000000bbbbbbbbbb9cc5e90e3b3af64bdaf62c37eeffcb"
          ],
          "data": "0x0000000000000000000000000000000000000000000000000000000000000000",
          "blockHash": "0x8d81da9c22b4722e06d57fe0f8605136e0ca0d21a148c0a0f74a952d3f99e9cf",
          "blockNumber": "0x13317ce",
          "blockTimestamp": "0x6672c814",
          "transactionHash": "0xe110ae632647a7d60bf6c4ca1765ae1474f467bad735636850fe192e66a80217",
          "transactionIndex": "0x0",
          "logIndex": "0x3",
          "removed": false
        },
        {
          "address": "0x0000206329b97db379d5e1bf586bbdb969c63274",
          "topics": [
            "0xddf252ad1be2c89b69c2b068fc378daa952ba7f163c4a11628f55a4df523b3ef",
            "0x000000000000000000000000a9bbbdde822789f123667044443dc7001fb43c01",
            "0x000000000000000000000000bbbbbbbbbb9cc5e90e3b3af64bdaf62c37eeffcb"
          ],
          "data": "0x0000000000000000000000000000000000000000000000004563918244f40000",
          "blockHash": "0x8d81da9c22b4722e06d57fe0f8605136e0ca0d21a148c0a0f74a952d3f99e9cf",
          "blockNumber": "0x13317ce",
          "blockTimestamp": "0x6672c814",
          "transactionHash": "0xe110ae632647a7d60bf6c4ca1765ae1474f467bad735636850fe192e66a80217",
          "transactionIndex": "0x0",
          "logIndex": "0x4",
          "removed": false
        }
      ],
      "logsBloom": "0x00000000000000000000000000000080000000000000000000000008000000000000400000000000000000000000000000008000000000000000000020a44000000000000010000000000008800004000000000800200000000002080000000000200000000000000000000000000000000000000000000000000010000000000000000000400008000000000000000000000000000000000000000000000000020000000000000000200000000000000000000000000000000000000000000020000002000000000001000000000000000000004000000000000000000000400010000001000000000000200001000000000000000000000000000000004000",
      "type": "0x2",
      "transactionHash": "0xe110ae632647a7d60bf6c4ca1765ae1474f467bad735636850fe192e66a80217",
      "transactionIndex": "0x0",
      "blockHash": "0x8d81da9c22b4722e06d57fe0f8605136e0ca0d21a148c0a0f74a952d3f99e9cf",
      "blockNumber": "0x13317ce",
      "gasUsed": "0x1f761",
      "effectiveGasPrice": "0x82bf2a97",
      "blobGasPrice": "0x1",
      "from": "0xa9bbbdde822789f123667044443dc7001fb43c01",
      "to": "0xbbbbbbbbbb9cc5e90e3b3af64bdaf62c37eeffcb",
      "contractAddress": null,
      "root": "0x0000000000000000000000000000000000000000000000000000000000000000"
    },
    {
      "status": "0x1",
      "cumulativeGasUsed": "0xb39c",
      "logs": [
        {
          "address": "0xf7906f274c174a52d444175729e3fa98f9bde285",
          "topics": [
            "0x8c5be1e5ebec7d5bd14f71427d1e84f3dd0314c0f7b2291e5b200ac8c7c3b925",
            "0x000000000000000000000000a9bbbdde822789f123667044443dc7001fb43c01",
            "0x000000000000000000000000bbbbbbbbbb9cc5e90e3b3af64bdaf62c37eeffcb"
          ],
          "data": "0x000000000000000000000000000000000000000000000000002386f26fc10000",
          "blockHash": "0xba8aa2743813684992f2d154dcee51f8b9b1234e1e22ed6daa2960b273fdeccb",
          "blockNumber": "0x13317cf",
          "blockTimestamp": "0x6672c815",
          "transactionHash": "0xe394452cf9736d678829a6d74956764d8999b0c81f2c06dc56f5e37314f079ec",
          "transactionIndex": "0x0",
          "logIndex": "0x0",
          "removed": false
        }
      ],
      "logsBloom": "0x00000000000000000000000000000080000000000000000000000008000000000000000000002020000000000000000000008000000000000000000000200000000000000000000000000000000000000000000000000000000002000000000000000000000000000000000000000000000000000000000000000000000000000000000000000000000000000000000000000000000000000000000000000000020000000000000000000000000000000000000000002000000000000000000000000000000000000000000000000000000000000000000000000000000000000010000001000000000000200000000000000000000000000000000000000000",
      "type": "0x2",
      "transactionHash": "0xe394452cf9736d678829a6d74956764d8999b0c81f2c06dc56f5e37314f079ec",
      "transactionIndex": "0x0",
      "blockHash": "0xba8aa2743813684992f2d154dcee51f8b9b1234e1e22ed6daa2960b273fdeccb",
      "blockNumber": "0x13317cf",
      "gasUsed": "0xb39c",
      "effectiveGasPrice": "0x73484f89",
      "blobGasPrice": "0x1",
      "from": "0xa9bbbdde822789f123667044443dc7001fb43c01",
      "to": "0xf7906f274c174a52d444175729e3fa98f9bde285",
      "contractAddress": null,
      "root": "0x0000000000000000000000000000000000000000000000000000000000000000"
    },
    {
      "status": "0x1",
      "cumulativeGasUsed": "0x1618f",
      "logs": [
        {
          "address": "0xbbbbbbbbbb9cc5e90e3b3af64bdaf62c37eeffcb",
          "topics": [
            "0xa3b9472a1399e17e123f3c2e6586c23e504184d504de59cdaa2b375e880c6184",
            "0xed9e817ac29464b3cc520bf124fb333c330021a8ae768889f414d21df35686e0",
            "0x000000000000000000000000a9bbbdde822789f123667044443dc7001fb43c01",
            "0x000000000000000000000000a9bbbdde822789f123667044443dc7001fb43c01"
          ],
          "data": "0x000000000000000000000000000000000000000000000000002386f26fc10000",
          "blockHash": "0x2dc5eb80e7a5da5181d2026cf48b7ed40d6d278ff03d3ad423c733e0ca2e8146",
          "blockNumber": "0x13317d0",
          "blockTimestamp": "0x6672c816",
          "transactionHash": "0xdb4c43f3c27d47ba0dfcfee70b45b72aedd9c3177ec78bdff515b9303d13a3b0",
          "transactionIndex": "0x0",
          "logIndex": "0x0",
          "removed": false
        },
        {
          "address": "0xf7906f274c174a52d444175729e3fa98f9bde285",
          "topics": [
            "0x8c5be1e5ebec7d5bd14f71427d1e84f3dd0314c0f7b2291e5b200ac8c7c3b925",
            "0x000000000000000000000000a9bbbdde822789f123667044443dc7001fb43c01",
            "0x000000000000000000000000bbbbbbbbbb9cc5e90e3b3af64bdaf62c37eeffcb"
          ],
          "data": "0x0000000000000000000000000000000000000000000000000000000000000000",
          "blockHash": "0x2dc5eb80e7a5da5181d2026cf48b7ed40d6d278ff03d3ad423c733e0ca2e8146",
          "blockNumber": "0x13317d0",
          "blockTimestamp": "0x6672c816",
          "transactionHash": "0xdb4c43f3c27d47ba0dfcfee70b45b72aedd9c3177ec78bdff515b9303d13a3b0",
          "transactionIndex": "0x0",
          "logIndex": "0x1",
          "removed": false
        },
        {
          "address": "0xf7906f274c174a52d444175729e3fa98f9bde285",
          "topics": [
            "0xddf252ad1be2c89b69c2b068fc378daa952ba7f163c4a11628f55a4df523b3ef",
            "0x000000000000000000000000a9bbbdde822789f123667044443dc7001fb43c01",
            "0x000000000000000000000000bbbbbbbbbb9cc5e90e3b3af64bdaf62c37eeffcb"
          ],
          "data": "0x000000000000000000000000000000000000000000000000002386f26fc10000",
          "blockHash": "0x2dc5eb80e7a5da5181d2026cf48b7ed40d6d278ff03d3ad423c733e0ca2e8146",
          "blockNumber": "0x13317d0",
          "blockTimestamp": "0x6672c816",
          "transactionHash": "0xdb4c43f3c27d47ba0dfcfee70b45b72aedd9c3177ec78bdff515b9303d13a3b0",
          "transactionIndex": "0x0",
          "logIndex": "0x2",
          "removed": false
        }
      ],
      "logsBloom": "0x00000000000000000000000000000080000000000000000000000008000000000000000000002020000000000000000000008000000000000000000000200000000000000010000000000008000000000000000000000000000002000000000000200000000000000000000000000000000000000000000000000010000000000000008000400008000000000000000000000000000000000000000000000000020000000000000000200000000000000000000000002000000000000000000020000002000000000000000000000000000000000000000400000000000000000010000001000000000000200000200000000000000000000000000000000000",
      "type": "0x2",
      "transactionHash": "0xdb4c43f3c27d47ba0dfcfee70b45b72aedd9c3177ec78bdff515b9303d13a3b0",
      "transactionIndex": "0x0",
      "blockHash": "0x2dc5eb80e7a5da5181d2026cf48b7ed40d6d278ff03d3ad423c733e0ca2e8146",
      "blockNumber": "0x13317d0",
      "gasUsed": "0x1618f",
      "effectiveGasPrice": "0x65a8baee",
      "blobGasPrice": "0x1",
      "from": "0xa9bbbdde822789f123667044443dc7001fb43c01",
      "to": "0xbbbbbbbbbb9cc5e90e3b3af64bdaf62c37eeffcb",
      "contractAddress": null,
      "root": "0x0000000000000000000000000000000000000000000000000000000000000000"
    },
    {
      "status": "0x1",
      "cumulativeGasUsed": "0x405b4",
      "logs": [
        {
          "address": "0x870ac11d48b15db9a138cf899d20f13f79ba00bc",
          "topics": [
            "0x7120161a7b3d31251e01294ab351ef15a41b91659a36032e4641bb89b121e321",
            "0xed9e817ac29464b3cc520bf124fb333c330021a8ae768889f414d21df35686e0"
          ],
          "data": "0x0000000000000000000000000000000000000000000000000000000010127e04000000000000000000000000000000000000000000000000000000004049ee0c",
          "blockHash": "0x567e8a4b8b9f2185f18fffe94c68d7165065218ab9cd0c214057e8a7818d4512",
          "blockNumber": "0x13317d1",
          "blockTimestamp": "0x6672c817",
          "transactionHash": "0x86ee3ee8006b28de670e57bbc908a1290063730659d06e833fd9d9db1df94ee4",
          "transactionIndex": "0x0",
          "logIndex": "0x0",
          "removed": false
        },
        {
          "address": "0xbbbbbbbbbb9cc5e90e3b3af64bdaf62c37eeffcb",
          "topics": [
            "0x9d9bd501d0657d7dfe415f779a620a62b78bc508ddc0891fbbd8b7ac0f8fce87",
            "0xed9e817ac29464b3cc520bf124fb333c330021a8ae768889f414d21df35686e0"
          ],
          "data": "0x0000000000000000000000000000000000000000000000000000000010127e0400000000000000000000000000000000000000000000000000000000000000000000000000000000000000000000000000000000000000000000000000000000",
          "blockHash": "0x567e8a4b8b9f2185f18fffe94c68d7165065218ab9cd0c214057e8a7818d4512",
          "blockNumber": "0x13317d1",
          "blockTimestamp": "0x6672c817",
          "transactionHash": "0x86ee3ee8006b28de670e57bbc908a1290063730659d06e833fd9d9db1df94ee4",
          "transactionIndex": "0x0",
          "logIndex": "0x1",
          "removed": false
        },
        {
          "address": "0xbbbbbbbbbb9cc5e90e3b3af64bdaf62c37eeffcb",
          "topics": [
            "0x570954540bed6b1304a87dfe815a5eda4a648f7097a16240dcd85c9b5fd42a43",
            "0xed9e817ac29464b3cc520bf124fb333c330021a8ae768889f414d21df35686e0",
            "0x000000000000000000000000a9bbbdde822789f123667044443dc7001fb43c01",
            "0x000000000000000000000000a9bbbdde822789f123667044443dc7001fb43c01"
          ],
          "data": "0x000000000000000000000000a9bbbdde822789f123667044443dc7001fb43c010000000000000000000000000000000000000000000000003e7336287142000000000000000000000000000000000000000000000003b8e97d229a2d54800000",
          "blockHash": "0x567e8a4b8b9f2185f18fffe94c68d7165065218ab9cd0c214057e8a7818d4512",
          "blockNumber": "0x13317d1",
          "blockTimestamp": "0x6672c817",
          "transactionHash": "0x86ee3ee8006b28de670e57bbc908a1290063730659d06e833fd9d9db1df94ee4",
          "transactionIndex": "0x0",
          "logIndex": "0x2",
          "removed": false
        },
        {
          "address": "0x0000206329b97db379d5e1bf586bbdb969c63274",
          "topics": [
            "0xddf252ad1be2c89b69c2b068fc378daa952ba7f163c4a11628f55a4df523b3ef",
            "0x000000000000000000000000bbbbbbbbbb9cc5e90e3b3af64bdaf62c37eeffcb",
            "0x000000000000000000000000a9bbbdde822789f123667044443dc7001fb43c01"
          ],
          "data": "0x0000000000000000000000000000000000000000000000003e73362871420000",
          "blockHash": "0x567e8a4b8b9f2185f18fffe94c68d7165065218ab9cd0c214057e8a7818d4512",
          "blockNumber": "0x13317d1",
          "blockTimestamp": "0x6672c817",
          "transactionHash": "0x86ee3ee8006b28de670e57bbc908a1290063730659d06e833fd9d9db1df94ee4",
          "transactionIndex": "0x0",
          "logIndex": "0x3",
          "removed": false
        }
      ],
      "logsBloom": "0x00000000000000000002000000000080000000000000000000000008000000000000400000000000000000000000000000008000000000000000000020844000000000000010000000000008000004000000000000200000000002080000000000200000000000000000000000000000000000000000000000000010000000000000000000400008000000000000000000000000000000000000000000000000000000000000000000200000000000000000000000000000000000000000000020000002000000000001000000000000000000004000000000000000000000000000004001000008000000200001000000000000000000000000000000004000",
      "type": "0x2",
      "transactionHash": "0x86ee3ee8006b28de670e57bbc908a1290063730659d06e833fd9d9db1df94ee4",
      "transactionIndex": "0x0",
      "blockHash": "0x567e8a4b8b9f2185f18fffe94c68d7165065218ab9cd0c214057e8a7818d4512",
      "blockNumber": "0x13317d1",
      "gasUsed": "0x405b4",
      "effectiveGasPrice": "0x59c4da2d",
      "blobGasPrice": "0x1",
      "from": "0xa9bbbdde822789f123667044443dc7001fb43c01",
      "to": "0xbbbbbbbbbb9cc5e90e3b3af64bdaf62c37eeffcb",
      "contractAddress": null,
      "root": "0x0000000000000000000000000000000000000000000000000000000000000000"
    }
  ],
  "libraries": [],
  "pending": [],
  "returns": {},
  "timestamp": 1718798365,
  "chain": 1,
  "commit": "0489249"
}