{
  "transactions": [
    {
      "hash": "0xb2bf7e68c8910b0163686620c4d2b8d5c1bd4085d4171d0ea3a5f51e9a4006e1",
      "transactionType": "CALL",
      "contractName": null,
      "contractAddress": "0x3a7bb36ee3f3ee32a60e9f2b33c1e5f2e83ad766",
      "function": "createMorphoChainlinkOracleV2(address,uint256,address,address,uint256,address,uint256,address,address,uint256,bytes32)",
      "arguments": [
        "0x0000000000000000000000000000000000000000",
        "1",
        "0x31dA7F6Cfc470abcc5388b6Ab5EB29df39cE0e26",
        "0x5f4eC3Df9cbd43714FE2740f5E3616155c5b8419",
        "18",
        "0x0000000000000000000000000000000000000000",
        "1",
        "0x0000000000000000000000000000000000000000",
        "0x0000000000000000000000000000000000000000",
        "18",
        "0x0000000000000000000000000000000000000000000000000000000000000000"
      ],
      "transaction": {
        "from": "0xa9ddd91249dfdd450e81e1c56ab60e1a62651701",
        "to": "0x3a7bb36ee3f3ee32a60e9f2b33c1e5f2e83ad766",
        "gas": "0xcf9f2",
        "value": "0x0",
        "input": "0xb32cddf40000000000000000000000000000000000000000000000000000000000000000000000000000000000000000000000000000000000000000000000000000000100000000000000000000000031da7f6cfc470abcc5388b6ab5eb29df39ce0e260000000000000000000000005f4ec3df9cbd43714fe2740f5e3616155c5b84190000000000000000000000000000000000000000000000000000000000000012000000000000000000000000000000000000000000000000000000000000000000000000000000000000000000000000000000000000000000000000000000010000000000000000000000000000000000000000000000000000000000000000000000000000000000000000000000000000000000000000000000000000000000000000000000000000000000000000000000000000000000000000000000120000000000000000000000000000000000000000000000000000000000000000",
        "nonce": "0x1b8",
        "chainId": "0x1"
      },
      "additionalContracts": [
        {
          "transactionType": "CREATE2",
          "address": "0x1620acf8cf042c23ceea0c6356e14e54d37ce8ff",
          "initCode": "0x6101a08060405234620002fa578062000f1e803803809162000022828562000331565b833961014092839181010312620002fa576200003e8162000355565b91602082015190620000536040840162000355565b90620000626060850162000355565b926080850151956200007760a0870162000355565b9060c0870151956200008c60e0890162000355565b95610100996200009e8b8b0162000355565b6101209a8b0151956001600160a01b0386811615801590620002ef575b620000d190620000ca6200036a565b90620003bf565b811615801590620002e4575b620000ec90620000ca6200036a565b8715956200015a6040516200010181620002ff565b601f8152620001397f7661756c7420636f6e76657273696f6e2073616d706c65206973207a65726f00918260208201528a15620003bf565b604051906200014882620002ff565b601f825260208201528d1515620003bf565b6080528760a05260c0528960e052828c52838b5288885261016098818a52602496870190818811620002cf57620001bd620001ca94620001c4620001bd95620001b6620001bd620001d19b9a97620001b6620001ca986200045b565b9062000429565b916200045b565b6200044d565b906200044d565b604d8111620002ba57600a0a868102968188041490151715620002a5576200029157506101809304835260405193610a269586620004f8873960805186818161014b0152610304015260a0518681816102e301526105b9015260c0518681816103ac0152610560015260e05186818161038b01526104f301525185818160d9015261032d0152518481816101b9015261035c0152518381816103d5015261049a01525182818161027f01526103fe01525181818161021201526104250152f35b634e487b7160e01b60009081526012600452fd5b50634e487b7160e01b60009081526011600452fd5b82634e487b7160e01b60005260116004526000fd5b87634e487b7160e01b60005260116004526000fd5b5060018b14620000dd565b5060018914620000bb565b600080fd5b604081019081106001600160401b038211176200031b57604052565b634e487b7160e01b600052604160045260246000fd5b601f909101601f19168101906001600160401b038211908210176200031b57604052565b51906001600160a01b0382168203620002fa57565b60405190606082016001600160401b038111838210176200031b5760405260228252616e6560f01b6040837f7661756c7420636f6e76657273696f6e2073616d706c65206973206e6f74206f60208201520152565b15620003c85750565b6040519062461bcd60e51b82528160208060048301528251908160248401526000935b8285106200040f575050604492506000838284010152601f80199101168101030190fd5b8481018201518686016044015293810193859350620003eb565b919082018092116200043757565b634e487b7160e01b600052601160045260246000fd5b919082039182116200043757565b6001600160a01b03168015620004f15760206004916040519283809263313ce56760e01b82525afa908115620004e5576000916200049b575b5060ff1690565b6020813d8211620004dc575b81620004b66020938362000331565b81010312620004d857519060ff82168203620004d5575060ff62000494565b80fd5b5080fd5b3d9150620004a7565b6040513d6000823e3d90fd5b5060009056fe60806040818152600436101561001457600080fd5b600091823560e01c908163054f7ac014610584575080632e6f20a614610516578063461739d2146104be57806356095e1114610450578063a035b1fe146102a3578063acfbd39e14610235578063ce4b5bbe146101dd578063dc53858c1461016f578063eaa2d7b4146101015763f50a47181461009057600080fd5b346100fd57817ffffffffffffffffffffffffffffffffffffffffffffffffffffffffffffffffc3601126100fd576020905173ffffffffffffffffffffffffffffffffffffffff7f0000000000000000000000000000000000000000000000000000000000000000168152f35b5080fd5b50346100fd57817ffffffffffffffffffffffffffffffffffffffffffffffffffffffffffffffffc3601126100fd576020905173ffffffffffffffffffffffffffffffffffffffff7f0000000000000000000000000000000000000000000000000000000000000000168152f35b50346100fd57817ffffffffffffffffffffffffffffffffffffffffffffffffffffffffffffffffc3601126100fd576020905173ffffffffffffffffffffffffffffffffffffffff7f0000000000000000000000000000000000000000000000000000000000000000168152f35b50346100fd57817ffffffffffffffffffffffffffffffffffffffffffffffffffffffffffffffffc3601126100fd57602090517f00000000000000000000000000000000000000000000000000000000000000008152f35b50346100fd57817ffffffffffffffffffffffffffffffffffffffffffffffffffffffffffffffffc3601126100fd576020905173ffffffffffffffffffffffffffffffffffffffff7f0000000000000000000000000000000000000000000000000000000000000000168152f35b50346100fd57817ffffffffffffffffffffffffffffffffffffffffffffffffffffffffffffffffc3601126100fd576020906104496103806103576103287f00000000000000000000000000000000000000000000000000000000000000007f000000000000000000000000000000000000000000000000000000000000000061094a565b6103517f00000000000000000000000000000000000000000000000000000000000000006107a5565b906105dc565b6103517f00000000000000000000000000000000000000000000000000000000000000006107a5565b6104226103f96103d07f00000000000000000000000000000000000000000000000000000000000000007f000000000000000000000000000000000000000000000000000000000000000061094a565b6103517f00000000000000000000000000000000000000000000000000000000000000006107a5565b6103517f00000000000000000000000000000000000000000000000000000000000000006107a5565b907f000000000000000000000000000000000000000000000000000000000000000061061e565b9051908152f35b50346100fd57817ffffffffffffffffffffffffffffffffffffffffffffffffffffffffffffffffc3601126100fd576020905173ffffffffffffffffffffffffffffffffffffffff7f0000000000000000000000000000000000000000000000000000000000000000168152f35b50346100fd57817ffffffffffffffffffffffffffffffffffffffffffffffffffffffffffffffffc3601126100fd57602090517f00000000000000000000000000000000000000000000000000000000000000008152f35b50346100fd57817ffffffffffffffffffffffffffffffffffffffffffffffffffffffffffffffffc3601126100fd576020905173ffffffffffffffffffffffffffffffffffffffff7f0000000000000000000000000000000000000000000000000000000000000000168152f35b8390346100fd57817ffffffffffffffffffffffffffffffffffffffffffffffffffffffffffffffffc3601126100fd576020907f00000000000000000000000000000000000000000000000000000000000000008152f35b818102929181159184041417156105ef57565b7f4e487b7100000000000000000000000000000000000000000000000000000000600052601160045260246000fd5b9091828202917fffffffffffffffffffffffffffffffffffffffffffffffffffffffffffffffff848209938380861095039480860395146106dc57848311156106b25782910981600003821680920460028082600302188083028203028083028203028083028203028083028203028083028203028092029003029360018380600003040190848311900302920304170290565b60046040517f227bc153000000000000000000000000000000000000000000000000000000008152fd5b5050809250156106ea570490565b7f4e487b7100000000000000000000000000000000000000000000000000000000600052601260045260246000fd5b90601f7fffffffffffffffffffffffffffffffffffffffffffffffffffffffffffffffe0910116810190811067ffffffffffffffff82111761075a57604052565b7f4e487b7100000000000000000000000000000000000000000000000000000000600052604160045260246000fd5b519069ffffffffffffffffffff821682036107a057565b600080fd5b73ffffffffffffffffffffffffffffffffffffffff1680156109445760049060a06040918251938480927ffeaf968c0000000000000000000000000000000000000000000000000000000082525afa918215610939576000926108e8575b50805181810181811067ffffffffffffffff82111761075a578252600f81526020917f6e6567617469766520616e73776572000000000000000000000000000000000083830152600084126108585750505090565b5180927f08c379a000000000000000000000000000000000000000000000000000000000825280600483015282519283602484015260005b8481106108d1575050507fffffffffffffffffffffffffffffffffffffffffffffffffffffffffffffffe0601f836000604480968601015201168101030190fd5b818101830151868201604401528593508201610890565b909160a0823d8211610931575b8161090260a09383610719565b8101031261092e575061091481610789565b50610926608060208301519201610789565b509038610803565b80fd5b3d91506108f5565b50513d6000823e3d90fd5b50600190565b73ffffffffffffffffffffffffffffffffffffffff169081156109e9576020906024604051809481937f07a2d13a00000000000000000000000000000000000000000000000000000000835260048301525afa9081156109dd576000916109af575090565b906020823d82116109d5575b816109c860209383610719565b8101031261092e57505190565b3d91506109bb565b6040513d6000823e3d90fd5b505060019056fea2646970667358221220de25ff8dd5708a691db44b0da1e6e734e7659c3f9a1801595bc1fa7bf902c00564736f6c634300081500330000000000000000000000000000000000000000000000000000000000000000000000000000000000000000000000000000000000000000000000000000000100000000000000000000000031da7f6cfc470abcc5388b6ab5eb29df39ce0e260000000000000000000000005f4ec3df9cbd43714fe2740f5e3616155c5b8419000000000000000000000000000000000000000000000000000000000000001200000000000000000000000000000000000000000000000000000000000000000000000000000000000000000000000000000000000000000000000000000001000000000000000000000000000000000000000000000000000000000000000000000000000000000000000000000000000000000000000000000000000000000000000000000000000000000000000000000000000000000000000000000012"
        }
      ],
      "isFixedGasLimit": false
    },
    {
      "hash": "0x9a6bc0834955a45f93ba1f14a8e8480a21aff5266844b7a52ec8c7646494938c",
      "transactionType": "CALL",
      "contractName": null,
      "contractAddress": "0xbbbbbbbbbb9cc5e90e3b3af64bdaf62c37eeffcb",
      "function": "createMarket((address,address,address,address,uint256))",
      "arguments": [
        "(0x0000206329b97DB379d5E1Bf586BbDB969C63274, 0x6ee2b5E19ECBa773a352E5B21415Dc419A700d1d, 0x1620AcF8cF042C23CEeA0c6356E14e54D37CE8FF, 0x870aC11D48B15DB9a138Cf899d20F13F79Ba00BC, 860000000000000000)"
      ],
      "transaction": {
        "from": "0xa9ddd91249dfdd450e81e1c56ab60e1a62651701",
        "to": "0xbbbbbbbbbb9cc5e90e3b3af64bdaf62c37eeffcb",
        "gas": "0x47336",
        "value": "0x0",
        "input": "0x8c1358a20000000000000000000000000000206329b97db379d5e1bf586bbdb969c632740000000000000000000000006ee2b5e19ecba773a352e5b21415dc419a700d1d0000000000000000000000001620acf8cf042c23ceea0c6356e14e54d37ce8ff000000000000000000000000870ac11d48b15db9a138cf899d20f13f79ba00bc0000000000000000000000000000000000000000000000000bef55718ad60000",
        "nonce": "0x1b9",
        "chainId": "0x1"
      },
      "additionalContracts": [],
      "isFixedGasLimit": false
    },
    {
      "hash": "0x897b49e44b14192c36f7939c72592778a7b3b739b56420c41888a3f88894370e",
      "transactionType": "CALL",
      "contractName": null,
      "contractAddress": "0x3a7bb36ee3f3ee32a60e9f2b33c1e5f2e83ad766",
      "function": "createMorphoChainlinkOracleV2(address,uint256,address,address,uint256,address,uint256,address,address,uint256,bytes32)",
      "arguments": [
        "0x0000000000000000000000000000000000000000",
        "1",
        "0x86F5CEC63eDF19209c460853B0b509C12918dB19",
        "0x5f4eC3Df9cbd43714FE2740f5E3616155c5b8419",
        "18",
        "0x0000000000000000000000000000000000000000",
        "1",
        "0x0000000000000000000000000000000000000000",
        "0x0000000000000000000000000000000000000000",
        "18",
        "0x0000000000000000000000000000000000000000000000000000000000000000"
      ],
      "transaction": {
        "from": "0xa9ddd91249dfdd450e81e1c56ab60e1a62651701",
        "to": "0x3a7bb36ee3f3ee32a60e9f2b33c1e5f2e83ad766",
        "gas": "0xcf9f2",
        "value": "0x0",
        "input": "0xb32cddf40000000000000000000000000000000000000000000000000000000000000000000000000000000000000000000000000000000000000000000000000000000100000000000000000000000086f5cec63edf19209c460853b0b509c12918db190000000000000000000000005f4ec3df9cbd43714fe2740f5e3616155c5b84190000000000000000000000000000000000000000000000000000000000000012000000000000000000000000000000000000000000000000000000000000000000000000000000000000000000000000000000000000000000000000000000010000000000000000000000000000000000000000000000000000000000000000000000000000000000000000000000000000000000000000000000000000000000000000000000000000000000000000000000000000000000000000000000120000000000000000000000000000000000000000000000000000000000000000",
        "nonce": "0x1ba",
        "chainId": "0x1"
      },
      "additionalContracts": [
        {
          "transactionType": "CREATE2",
          "address": "0xfe63a66aec4e39ee4c959eb7e2ed55af8a0ab248",
          "initCode": "0x6101a08060405234620002fa578062000f1e803803809162000022828562000331565b833961014092839181010312620002fa576200003e8162000355565b91602082015190620000536040840162000355565b90620000626060850162000355565b926080850151956200007760a0870162000355565b9060c0870151956200008c60e0890162000355565b95610100996200009e8b8b0162000355565b6101209a8b0151956001600160a01b0386811615801590620002ef575b620000d190620000ca6200036a565b90620003bf565b811615801590620002e4575b620000ec90620000ca6200036a565b8715956200015a6040516200010181620002ff565b601f8152620001397f7661756c7420636f6e76657273696f6e2073616d706c65206973207a65726f00918260208201528a15620003bf565b604051906200014882620002ff565b601f825260208201528d1515620003bf565b6080528760a05260c0528960e052828c52838b5288885261016098818a52602496870190818811620002cf57620001bd620001ca94620001c4620001bd95620001b6620001bd620001d19b9a97620001b6620001ca986200045b565b9062000429565b916200045b565b6200044d565b906200044d565b604d8111620002ba57600a0a868102968188041490151715620002a5576200029157506101809304835260405193610a269586620004f8873960805186818161014b0152610304015260a0518681816102e301526105b9015260c0518681816103ac0152610560015260e05186818161038b01526104f301525185818160d9015261032d0152518481816101b9015261035c0152518381816103d5015261049a01525182818161027f01526103fe01525181818161021201526104250152f35b634e487b7160e01b60009081526012600452fd5b50634e487b7160e01b60009081526011600452fd5b82634e487b7160e01b60005260116004526000fd5b87634e487b7160e01b60005260116004526000fd5b5060018b14620000dd565b5060018914620000bb565b600080fd5b604081019081106001600160401b038211176200031b57604052565b634e487b7160e01b600052604160045260246000fd5b601f909101601f19168101906001600160401b038211908210176200031b57604052565b51906001600160a01b0382168203620002fa57565b60405190606082016001600160401b038111838210176200031b5760405260228252616e6560f01b6040837f7661756c7420636f6e76657273696f6e2073616d706c65206973206e6f74206f60208201520152565b15620003c85750565b6040519062461bcd60e51b82528160208060048301528251908160248401526000935b8285106200040f575050604492506000838284010152601f80199101168101030190fd5b8481018201518686016044015293810193859350620003eb565b919082018092116200043757565b634e487b7160e01b600052601160045260246000fd5b919082039182116200043757565b6001600160a01b03168015620004f15760206004916040519283809263313ce56760e01b82525afa908115620004e5576000916200049b575b5060ff1690565b6020813d8211620004dc575b81620004b66020938362000331565b81010312620004d857519060ff82168203620004d5575060ff62000494565b80fd5b5080fd5b3d9150620004a7565b6040513d6000823e3d90fd5b5060009056fe60806040818152600436101561001457600080fd5b600091823560e01c908163054f7ac014610584575080632e6f20a614610516578063461739d2146104be57806356095e1114610450578063a035b1fe146102a3578063acfbd39e14610235578063ce4b5bbe146101dd578063dc53858c1461016f578063eaa2d7b4146101015763f50a47181461009057600080fd5b346100fd57817ffffffffffffffffffffffffffffffffffffffffffffffffffffffffffffffffc3601126100fd576020905173ffffffffffffffffffffffffffffffffffffffff7f0000000000000000000000000000000000000000000000000000000000000000168152f35b5080fd5b50346100fd57817ffffffffffffffffffffffffffffffffffffffffffffffffffffffffffffffffc3601126100fd576020905173ffffffffffffffffffffffffffffffffffffffff7f0000000000000000000000000000000000000000000000000000000000000000168152f35b50346100fd57817ffffffffffffffffffffffffffffffffffffffffffffffffffffffffffffffffc3601126100fd576020905173ffffffffffffffffffffffffffffffffffffffff7f0000000000000000000000000000000000000000000000000000000000000000168152f35b50346100fd57817ffffffffffffffffffffffffffffffffffffffffffffffffffffffffffffffffc3601126100fd57602090517f00000000000000000000000000000000000000000000000000000000000000008152f35b50346100fd57817ffffffffffffffffffffffffffffffffffffffffffffffffffffffffffffffffc3601126100fd576020905173ffffffffffffffffffffffffffffffffffffffff7f0000000000000000000000000000000000000000000000000000000000000000168152f35b50346100fd57817ffffffffffffffffffffffffffffffffffffffffffffffffffffffffffffffffc3601126100fd576020906104496103806103576103287f00000000000000000000000000000000000000000000000000000000000000007f000000000000000000000000000000000000000000000000000000000000000061094a565b6103517f00000000000000000000000000000000000000000000000000000000000000006107a5565b906105dc565b6103517f00000000000000000000000000000000000000000000000000000000000000006107a5565b6104226103f96103d07f00000000000000000000000000000000000000000000000000000000000000007f000000000000000000000000000000000000000000000000000000000000000061094a565b6103517f00000000000000000000000000000000000000000000000000000000000000006107a5565b6103517f00000000000000000000000000000000000000000000000000000000000000006107a5565b907f000000000000000000000000000000000000000000000000000000000000000061061e565b9051908152f35b50346100fd57817ffffffffffffffffffffffffffffffffffffffffffffffffffffffffffffffffc3601126100fd576020905173ffffffffffffffffffffffffffffffffffffffff7f0000000000000000000000000000000000000000000000000000000000000000168152f35b50346100fd57817ffffffffffffffffffffffffffffffffffffffffffffffffffffffffffffffffc3601126100fd57602090517f00000000000000000000000000000000000000000000000000000000000000008152f35b50346100fd57817ffffffffffffffffffffffffffffffffffffffffffffffffffffffffffffffffc3601126100fd576020905173ffffffffffffffffffffffffffffffffffffffff7f0000000000000000000000000000000000000000000000000000000000000000168152f35b8390346100fd57817ffffffffffffffffffffffffffffffffffffffffffffffffffffffffffffffffc3601126100fd576020907f00000000000000000000000000000000000000000000000000000000000000008152f35b818102929181159184041417156105ef57565b7f4e487b7100000000000000000000000000000000000000000000000000000000600052601160045260246000fd5b9091828202917fffffffffffffffffffffffffffffffffffffffffffffffffffffffffffffffff848209938380861095039480860395146106dc57848311156106b25782910981600003821680920460028082600302188083028203028083028203028083028203028083028203028083028203028092029003029360018380600003040190848311900302920304170290565b60046040517f227bc153000000000000000000000000000000000000000000000000000000008152fd5b5050809250156106ea570490565b7f4e487b7100000000000000000000000000000000000000000000000000000000600052601260045260246000fd5b90601f7fffffffffffffffffffffffffffffffffffffffffffffffffffffffffffffffe0910116810190811067ffffffffffffffff82111761075a57604052565b7f4e487b7100000000000000000000000000000000000000000000000000000000600052604160045260246000fd5b519069ffffffffffffffffffff821682036107a057565b600080fd5b73ffffffffffffffffffffffffffffffffffffffff1680156109445760049060a06040918251938480927ffeaf968c0000000000000000000000000000000000000000000000000000000082525afa918215610939576000926108e8575b50805181810181811067ffffffffffffffff82111761075a578252600f81526020917f6e6567617469766520616e73776572000000000000000000000000000000000083830152600084126108585750505090565b5180927f08c379a000000000000000000000000000000000000000000000000000000000825280600483015282519283602484015260005b8481106108d1575050507fffffffffffffffffffffffffffffffffffffffffffffffffffffffffffffffe0601f836000604480968601015201168101030190fd5b818101830151868201604401528593508201610890565b909160a0823d8211610931575b8161090260a09383610719565b8101031261092e575061091481610789565b50610926608060208301519201610789565b509038610803565b80fd5b3d91506108f5565b50513d6000823e3d90fd5b50600190565b73ffffffffffffffffffffffffffffffffffffffff169081156109e9576020906024604051809481937f07a2d13a00000000000000000000000000000000000000000000000000000000835260048301525afa9081156109dd576000916109af575090565b906020823d82116109d5575b816109c860209383610719565b8101031261092e57505190565b3d91506109bb565b6040513d6000823e3d90fd5b505060019056fea2646970667358221220de25ff8dd5708a691db44b0da1e6e734e7659c3f9a1801595bc1fa7bf902c00564736f6c634300081500330000000000000000000000000000000000000000000000000000000000000000000000000000000000000000000000000000000000000000000000000000000100000000000000000000000086f5cec63edf19209c460853b0b509c12918db190000000000000000000000005f4ec3df9cbd43714fe2740f5e3616155c5b8419000000000000000000000000000000000000000000000000000000000000001200000000000000000000000000000000000000000000000000000000000000000000000000000000000000000000000000000000000000000000000000000001000000000000000000000000000000000000000000000000000000000000000000000000000000000000000000000000000000000000000000000000000000000000000000000000000000000000000000000000000000000000000000000012"
        }
      ],
      "isFixedGasLimit": false
    },
    {
      "hash": "0xad5f21be43235c4843a3119b0836a8bf16cfd4563ec6a75f7b09d92c2d6ad9e4",
      "transactionType": "CALL",
      "contractName": null,
      "contractAddress": "0xbbbbbbbbbb9cc5e90e3b3af64bdaf62c37eeffcb",
      "function": "createMarket((address,address,address,address,uint256))",
      "arguments": [
        "(0x0000206329b97DB379d5E1Bf586BbDB969C63274, 0xf7906F274c174A52d444175729E3fa98f9bde285, 0xfE63A66aec4e39eE4c959eB7E2ed55Af8a0aB248, 0x870aC11D48B15DB9a138Cf899d20F13F79Ba00BC, 860000000000000000)"
      ],
      "transaction": {
        "from": "0xa9ddd91249dfdd450e81e1c56ab60e1a62651701",
        "to": "0xbbbbbbbbbb9cc5e90e3b3af64bdaf62c37eeffcb",
        "gas": "0x47336",
        "value": "0x0",
        "input": "0x8c1358a20000000000000000000000000000206329b97db379d5e1bf586bbdb969c63274000000000000000000000000f7906f274c174a52d444175729e3fa98f9bde285000000000000000000000000fe63a66aec4e39ee4c959eb7e2ed55af8a0ab248000000000000000000000000870ac11d48b15db9a138cf899d20f13f79ba00bc0000000000000000000000000000000000000000000000000bef55718ad60000",
        "nonce": "0x1bb",
        "chainId": "0x1"
      },
      "additionalContracts": [],
      "isFixedGasLimit": false
    }
  ],
  "receipts": [
    {
      "status": "0x1",
      "cumulativeGasUsed": "0xad0c8e",
      "logs": [
        {
          "address": "0x3a7bb36ee3f3ee32a60e9f2b33c1e5f2e83ad766",
          "topics": [
            "0x6436acb89463dbc9036f1e52aebf32ac0bf5f69e3987c067110c3ac403ebda33"
          ],
          "data": "0x000000000000000000000000a9ddd91249dfdd450e81e1c56ab60e1a626517010000000000000000000000001620acf8cf042c23ceea0c6356e14e54d37ce8ff",
          "blockHash": "0x3736fd13701c589ab77e0cc964a1f50be662005cac03e357087b6eb8082c72ae",
          "blockNumber": "0x132f6a1",
          "transactionHash": "0xb2bf7e68c8910b0163686620c4d2b8d5c1bd4085d4171d0ea3a5f51e9a4006e1",
          "transactionIndex": "0xa4",
          "logIndex": "0x11d",
          "removed": false
        }
      ],
      "logsBloom": "0x00000000000000000000000000000000000000000000000000000000000000000000000000000000000000000000000000000000000000000000000000000000000000000000000000000000000000000000000000000000000000000000000000000000000000000000000000000000000000000000000000000000000000000000000000000000000000000000000000002000000000000000000000000000000000000000000000000000010000000000000000100000000000000000000000000000000000000000000000000000000000000000000000000000000000000000000000000080000000006000000000000000000000000000000000000000",
      "type": "0x2",
      "transactionHash": "0xb2bf7e68c8910b0163686620c4d2b8d5c1bd4085d4171d0ea3a5f51e9a4006e1",
      "transactionIndex": "0xa4",
      "blockHash": "0x3736fd13701c589ab77e0cc964a1f50be662005cac03e357087b6eb8082c72ae",
      "blockNumber": "0x132f6a1",
      "gasUsed": "0x96508",
      "effectiveGasPrice": "0x103360cb7",
      "from": "0xa9ddd91249dfdd450e81e1c56ab60e1a62651701",
      "to": "0x3a7bb36ee3f3ee32a60e9f2b33c1e5f2e83ad766",
      "contractAddress": null
    },
    {
      "status": "0x1",
      "cumulativeGasUsed": "0x8c8dc8",
      "logs": [
        {
          "address": "0xbbbbbbbbbb9cc5e90e3b3af64bdaf62c37eeffcb",
          "topics": [
            "0xac4b2400f169220b0c0afdde7a0b32e775ba727ea1cb30b35f935cdaab8683ac",
            "0xb6c1599ac357c1b23fcd46f4ef69495fb11d91bc0fa90c7c3e6ab644592c8017"
          ],
          "data": "0x0000000000000000000000000000206329b97db379d5e1bf586bbdb969c632740000000000000000000000006ee2b5e19ecba773a352e5b21415dc419a700d1d0000000000000000000000001620acf8cf042c23ceea0c6356e14e54d37ce8ff000000000000000000000000870ac11d48b15db9a138cf899d20f13f79ba00bc0000000000000000000000000000000000000000000000000bef55718ad60000",
          "blockHash": "0xdda9f75c7d0d954e5abb61283af7d9597d5498366c5eb8a4cdd10418884f004e",
          "blockNumber": "0x132f6a2",
          "transactionHash": "0x9a6bc0834955a45f93ba1f14a8e8480a21aff5266844b7a52ec8c7646494938c",
          "transactionIndex": "0x72",
          "logIndex": "0xe2",
          "removed": false
        },
        {
          "address": "0x870ac11d48b15db9a138cf899d20f13f79ba00bc",
          "topics": [
            "0x7120161a7b3d31251e01294ab351ef15a41b91659a36032e4641bb89b121e321",
            "0xb6c1599ac357c1b23fcd46f4ef69495fb11d91bc0fa90c7c3e6ab644592c8017"
          ],
          "data": "0x0000000000000000000000000000000000000000000000000000000012e687bf000000000000000000000000000000000000000000000000000000004b9a1eff",
          "blockHash": "0xdda9f75c7d0d954e5abb61283af7d9597d5498366c5eb8a4cdd10418884f004e",
          "blockNumber": "0x132f6a2",
          "transactionHash": "0x9a6bc0834955a45f93ba1f14a8e8480a21aff5266844b7a52ec8c7646494938c",
          "transactionIndex": "0x72",
          "logIndex": "0xe3",
          "removed": false
        }
      ],
      "logsBloom": "0x00000000000000000000000000000800000000000000000000000000000000000000000000000000000000000000000000000000000000000000000000844000000000084010000000000000000000000000000000200000000000000000000000000000000000000000000000000000000000000000000000000040000000000000000100000008000000000000000000000000000000000000000000000000000000000000000000000000000000000000000000000000000000000000000020000000000000000001000000000000000000000000000000000000000000000000000000000000000000000001000000000000000000000000000000000010",
      "type": "0x2",
      "transactionHash": "0x9a6bc0834955a45f93ba1f14a8e8480a21aff5266844b7a52ec8c7646494938c",
      "transactionIndex": "0x72",
      "blockHash": "0xdda9f75c7d0d954e5abb61283af7d9597d5498366c5eb8a4cdd10418884f004e",
      "blockNumber": "0x132f6a2",
      "gasUsed": "0x30af3",
      "effectiveGasPrice": "0xff4c7448",
      "from": "0xa9ddd91249dfdd450e81e1c56ab60e1a62651701",
      "to": "0xbbbbbbbbbb9cc5e90e3b3af64bdaf62c37eeffcb",
      "contractAddress": null
    },
    {
      "status": "0x1",
      "cumulativeGasUsed": "0xf0d7aa",
      "logs": [
        {
          "address": "0x3a7bb36ee3f3ee32a60e9f2b33c1e5f2e83ad766",
          "topics": [
            "0x6436acb89463dbc9036f1e52aebf32ac0bf5f69e3987c067110c3ac403ebda33"
          ],
          "data": "0x000000000000000000000000a9ddd91249dfdd450e81e1c56ab60e1a62651701000000000000000000000000fe63a66aec4e39ee4c959eb7e2ed55af8a0ab248",
          "blockHash": "0x507b18e1b51db08fa0c28af613264fa4dfb079b7b4186816cbfd8bb1e6243c00",
          "blockNumber": "0x132f6a3",
          "transactionHash": "0x897b49e44b14192c36f7939c72592778a7b3b739b56420c41888a3f88894370e",
          "transactionIndex": "0xae",
          "logIndex": "0x174",
          "removed": false
        }
      ],
      "logsBloom": "0x00000000000000000000000000000000000000000000000000000000000000000000000000000000000000000000000000000000000000000000000000000000000000000000000000000000000000000000000000000000000000000000000000000000000000000000000000000000000000000000000000000000000000000000000000000000000000000000000000002000000000000000000000000000000000000000000000000000010000000000000000100000000000000000000000000000000000000000000000000000000000000000000000000000000000000000000000000080000000006000000000000000000000000000000000000000",
      "type": "0x2",
      "transactionHash": "0x897b49e44b14192c36f7939c72592778a7b3b739b56420c41888a3f88894370e",
      "transactionIndex": "0xae",
      "blockHash": "0x507b18e1b51db08fa0c28af613264fa4dfb079b7b4186816cbfd8bb1e6243c00",
      "blockNumber": "0x132f6a3",
      "gasUsed": "0x96508",
      "effectiveGasPrice": "0xfce89f49",
      "from": "0xa9ddd91249dfdd450e81e1c56ab60e1a62651701",
      "to": "0x3a7bb36ee3f3ee32a60e9f2b33c1e5f2e83ad766",
      "contractAddress": null
    },
    {
      "status": "0x1",
      "cumulativeGasUsed": "0xa7ec39",
      "logs": [
        {
          "address": "0xbbbbbbbbbb9cc5e90e3b3af64bdaf62c37eeffcb",
          "topics": [
            "0xac4b2400f169220b0c0afdde7a0b32e775ba727ea1cb30b35f935cdaab8683ac",
            "0xed9e817ac29464b3cc520bf124fb333c330021a8ae768889f414d21df35686e0"
          ],
          "data": "0x0000000000000000000000000000206329b97db379d5e1bf586bbdb969c63274000000000000000000000000f7906f274c174a52d444175729e3fa98f9bde285000000000000000000000000fe63a66aec4e39ee4c959eb7e2ed55af8a0ab248000000000000000000000000870ac11d48b15db9a138cf899d20f13f79ba00bc0000000000000000000000000000000000000000000000000bef55718ad60000",
          "blockHash": "0x522d0c81f3b003ece9f08a43f13b53e285526f5c712a4dc48fade9f4320be5e8",
          "blockNumber": "0x132f6a4",
          "transactionHash": "0xad5f21be43235c4843a3119b0836a8bf16cfd4563ec6a75f7b09d92c2d6ad9e4",
          "transactionIndex": "0x78",
          "logIndex": "0x14e",
          "removed": false
        },
        {
          "address": "0x870ac11d48b15db9a138cf899d20f13f79ba00bc",
          "topics": [
            "0x7120161a7b3d31251e01294ab351ef15a41b91659a36032e4641bb89b121e321",
            "0xed9e817ac29464b3cc520bf124fb333c330021a8ae768889f414d21df35686e0"
          ],
          "data": "0x0000000000000000000000000000000000000000000000000000000012e687bf000000000000000000000000000000000000000000000000000000004b9a1eff",
          "blockHash": "0x522d0c81f3b003ece9f08a43f13b53e285526f5c712a4dc48fade9f4320be5e8",
          "blockNumber": "0x132f6a4",
          "transactionHash": "0xad5f21be43235c4843a3119b0836a8bf16cfd4563ec6a75f7b09d92c2d6ad9e4",
          "transactionIndex": "0x78",
          "logIndex": "0x14f",
          "removed": false
        }
      ],
      "logsBloom": "0x00000000000000000000000000000800000000000000000000000000000000000000000000000000000000000000000000000000000000000000000000844000000000000010000000000000000000000000000000200000000000000000000000200000000000000000000000000000000000000000000000000040000000000000000000400008000000000000000000000000000000000000000000000000000000000000000000200000000000000000000000000000000000000000000020000000000000000001000000000000000000000000000000000000000000000000000000000000000000000001000000000000000000000000000000000010",
      "type": "0x2",
      "transactionHash": "0xad5f21be43235c4843a3119b0836a8bf16cfd4563ec6a75f7b09d92c2d6ad9e4",
      "transactionIndex": "0x78",
      "blockHash": "0x522d0c81f3b003ece9f08a43f13b53e285526f5c712a4dc48fade9f4320be5e8",
      "blockNumber": "0x132f6a4",
      "gasUsed": "0x30af3",
      "effectiveGasPrice": "0x103b933b0",
      "from": "0xa9ddd91249dfdd450e81e1c56ab60e1a62651701",
      "to": "0xbbbbbbbbbb9cc5e90e3b3af64bdaf62c37eeffcb",
      "contractAddress": null
    }
  ],
  "libraries": [],
  "pending": [],
  "returns": {},
  "timestamp": 1718695612,
  "chain": 1,
  "commit": "940e4b8"
}