{
  "transactions": [
    {
      "hash": "0xeb50db93fe9738ab91f773118f5a083e777ae16a0c9e9df2fa69d161590c99fc",
      "transactionType": "CALL",
      "contractName": null,
      "contractAddress": "0x0000206329b97db379d5e1bf586bbdb969c63274",
      "function": "approve(address,uint256)",
      "arguments": [
        "0xBBBBBbbBBb9cC5e90e3b3Af64bdAF62C37EEFFCb",
        "5000000000000000000"
      ],
      "transaction": {
        "from": "0xa9bbbdde822789f123667044443dc7001fb43c01",
        "to": "0x0000206329b97db379d5e1bf586bbdb969c63274",
        "gas": "0x13108",
        "value": "0x0",
        "input": "0x095ea7b3000000000000000000000000bbbbbbbbbb9cc5e90e3b3af64bdaf62c37eeffcb0000000000000000000000000000000000000000000000004563918244f40000",
        "nonce": "0x54",
        "chainId": "0x1"
      },
      "additionalContracts": [],
      "isFixedGasLimit": false
    },
    {
      "hash": "0x11ceb884d7ac470907ce416dd3c84f6268420cbc494c8e3cd9b78aac63c3f2ef",
      "transactionType": "CALL",
      "contractName": null,
      "contractAddress": "0xbbbbbbbbbb9cc5e90e3b3af64bdaf62c37eeffcb",
      "function": "supply((address,address,address,address,uint256),uint256,uint256,address,bytes)",
      "arguments": [
        "(0x0000206329b97DB379d5E1Bf586BbDB969C63274, 0x6ee2b5E19ECBa773a352E5B21415Dc419A700d1d, 0x1620AcF8cF042C23CEeA0c6356E14e54D37CE8FF, 0x870aC11D48B15DB9a138Cf899d20F13F79Ba00BC, 860000000000000000)",
        "5000000000000000000",
        "0",
        "0xa9bbbDDe822789F123667044443dc7001fb43C01",
        "0x"
      ],
      "transaction": {
        "from": "0xa9bbbdde822789f123667044443dc7001fb43c01",
        "to": "0xbbbbbbbbbb9cc5e90e3b3af64bdaf62c37eeffcb",
        "gas": "0x2e030",
        "value": "0x0",
        "input": "0xa99aad890000000000000000000000000000206329b97db379d5e1bf586bbdb969c632740000000000000000000000006ee2b5e19ecba773a352e5b21415dc419a700d1d0000000000000000000000001620acf8cf042c23ceea0c6356e14e54d37ce8ff000000000000000000000000870ac11d48b15db9a138cf899d20f13f79ba00bc0000000000000000000000000000000000000000000000000bef55718ad600000000000000000000000000000000000000000000000000004563918244f400000000000000000000000000000000000000000000000000000000000000000000000000000000000000000000a9bbbdde822789f123667044443dc7001fb43c0100000000000000000000000000000000000000000000000000000000000001200000000000000000000000000000000000000000000000000000000000000000",
        "nonce": "0x55",
        "chainId": "0x1"
      },
      "additionalContracts": [],
      "isFixedGasLimit": false
    },
    {
      "hash": "0x116d18979a34569eac5f03d21f22156bb528ab7eb2bae613d7d68ec0e6a7fa32",
      "transactionType": "CALL",
      "contractName": null,
      "contractAddress": "0x6ee2b5e19ecba773a352e5b21415dc419a700d1d",
      "function": "approve(address,uint256)",
      "arguments": [
        "0xBBBBBbbBBb9cC5e90e3b3Af64bdAF62C37EEFFCb",
        "10000000000000000"
      ],
      "transaction": {
        "from": "0xa9bbbdde822789f123667044443dc7001fb43c01",
        "to": "0x6ee2b5e19ecba773a352e5b21415dc419a700d1d",
        "gas": "0xf814",
        "value": "0x0",
        "input": "0x095ea7b3000000000000000000000000bbbbbbbbbb9cc5e90e3b3af64bdaf62c37eeffcb000000000000000000000000000000000000000000000000002386f26fc10000",
        "nonce": "0x56",
        "chainId": "0x1"
      },
      "additionalContracts": [],
      "isFixedGasLimit": false
    },
    {
      "hash": "0x27b2b91646e4f79fb5c390b079c967cb0551fbbce7cebeeef606dcdfff343546",
      "transactionType": "CALL",
      "contractName": null,
      "contractAddress": "0xbbbbbbbbbb9cc5e90e3b3af64bdaf62c37eeffcb",
      "function": "supplyCollateral((address,address,address,address,uint256),uint256,address,bytes)",
      "arguments": [
        "(0x0000206329b97DB379d5E1Bf586BbDB969C63274, 0x6ee2b5E19ECBa773a352E5B21415Dc419A700d1d, 0x1620AcF8cF042C23CEeA0c6356E14e54D37CE8FF, 0x870aC11D48B15DB9a138Cf899d20F13F79Ba00BC, 860000000000000000)",
        "10000000000000000",
        "0xa9bbbDDe822789F123667044443dc7001fb43C01",
        "0x"
      ],
      "transaction": {
        "from": "0xa9bbbdde822789f123667044443dc7001fb43c01",
        "to": "0xbbbbbbbbbb9cc5e90e3b3af64bdaf62c37eeffcb",
        "gas": "0x1e859",
        "value": "0x0",
        "input": "0x238d65790000000000000000000000000000206329b97db379d5e1bf586bbdb969c632740000000000000000000000006ee2b5e19ecba773a352e5b21415dc419a700d1d0000000000000000000000001620acf8cf042c23ceea0c6356e14e54d37ce8ff000000000000000000000000870ac11d48b15db9a138cf899d20f13f79ba00bc0000000000000000000000000000000000000000000000000bef55718ad60000000000000000000000000000000000000000000000000000002386f26fc10000000000000000000000000000a9bbbdde822789f123667044443dc7001fb43c0100000000000000000000000000000000000000000000000000000000000001000000000000000000000000000000000000000000000000000000000000000000",
        "nonce": "0x57",
        "chainId": "0x1"
      },
      "additionalContracts": [],
      "isFixedGasLimit": false
    },
    {
      "hash": "0xe75879a100404aa00dac82d0adcd31857d8a1f63c6b6874ab4dea4311e8367c4",
      "transactionType": "CALL",
      "contractName": null,
      "contractAddress": "0xbbbbbbbbbb9cc5e90e3b3af64bdaf62c37eeffcb",
      "function": "borrow((address,address,address,address,uint256),uint256,uint256,address,address)",
      "arguments": [
        "(0x0000206329b97DB379d5E1Bf586BbDB969C63274, 0x6ee2b5E19ECBa773a352E5B21415Dc419A700d1d, 0x1620AcF8cF042C23CEeA0c6356E14e54D37CE8FF, 0x870aC11D48B15DB9a138Cf899d20F13F79Ba00BC, 860000000000000000)",
        "4500000000000000000",
        "0",
        "0xa9bbbDDe822789F123667044443dc7001fb43C01",
        "0xa9bbbDDe822789F123667044443dc7001fb43C01"
      ],
      "transaction": {
        "from": "0xa9bbbdde822789f123667044443dc7001fb43c01",
        "to": "0xbbbbbbbbbb9cc5e90e3b3af64bdaf62c37eeffcb",
        "gas": "0x438a2",
        "value": "0x0",
        "input": "0x50d8cd4b0000000000000000000000000000206329b97db379d5e1bf586bbdb969c632740000000000000000000000006ee2b5e19ecba773a352e5b21415dc419a700d1d0000000000000000000000001620acf8cf042c23ceea0c6356e14e54d37ce8ff000000000000000000000000870ac11d48b15db9a138cf899d20f13f79ba00bc0000000000000000000000000000000000000000000000000bef55718ad600000000000000000000000000000000000000000000000000003e733628714200000000000000000000000000000000000000000000000000000000000000000000000000000000000000000000a9bbbdde822789f123667044443dc7001fb43c01000000000000000000000000a9bbbdde822789f123667044443dc7001fb43c01",
        "nonce": "0x58",
        "chainId": "0x1"
      },
      "additionalContracts": [],
      "isFixedGasLimit": false
    },
    {
      "hash": "0xc842353988782a58ab4616c76398622ae5df34b2d9441baac19e0389085c332c",
      "transactionType": "CALL",
      "contractName": null,
      "contractAddress": "0x0000206329b97db379d5e1bf586bbdb969c63274",
      "function": "approve(address,uint256)",
      "arguments": [
        "0xBBBBBbbBBb9cC5e90e3b3Af64bdAF62C37EEFFCb",
        "5000000000000000000"
      ],
      "transaction": {
        "from": "0xa9bbbdde822789f123667044443dc7001fb43c01",
        "to": "0x0000206329b97db379d5e1bf586bbdb969c63274",
        "gas": "0x13108",
        "value": "0x0",
        "input": "0x095ea7b3000000000000000000000000bbbbbbbbbb9cc5e90e3b3af64bdaf62c37eeffcb0000000000000000000000000000000000000000000000004563918244f40000",
        "nonce": "0x59",
        "chainId": "0x1"
      },
      "additionalContracts": [],
      "isFixedGasLimit": false
    },
    {
      "hash": "0xdf3a466f9d73c2666e2d54ff8d09259aeb3799875b943bf74575a122e5d2a6aa",
      "transactionType": "CALL",
      "contractName": null,
      "contractAddress": "0xbbbbbbbbbb9cc5e90e3b3af64bdaf62c37eeffcb",
      "function": "supply((address,address,address,address,uint256),uint256,uint256,address,bytes)",
      "arguments": [
        "(0x0000206329b97DB379d5E1Bf586BbDB969C63274, 0xf7906F274c174A52d444175729E3fa98f9bde285, 0xfE63A66aec4e39eE4c959eB7E2ed55Af8a0aB248, 0x870aC11D48B15DB9a138Cf899d20F13F79Ba00BC, 860000000000000000)",
        "5000000000000000000",
        "0",
        "0xa9bbbDDe822789F123667044443dc7001fb43C01",
        "0x"
      ],
      "transaction": {
        "from": "0xa9bbbdde822789f123667044443dc7001fb43c01",
        "to": "0xbbbbbbbbbb9cc5e90e3b3af64bdaf62c37eeffcb",
        "gas": "0x2e030",
        "value": "0x0",
        "input": "0xa99aad890000000000000000000000000000206329b97db379d5e1bf586bbdb969c63274000000000000000000000000f7906f274c174a52d444175729e3fa98f9bde285000000000000000000000000fe63a66aec4e39ee4c959eb7e2ed55af8a0ab248000000000000000000000000870ac11d48b15db9a138cf899d20f13f79ba00bc0000000000000000000000000000000000000000000000000bef55718ad600000000000000000000000000000000000000000000000000004563918244f400000000000000000000000000000000000000000000000000000000000000000000000000000000000000000000a9bbbdde822789f123667044443dc7001fb43c0100000000000000000000000000000000000000000000000000000000000001200000000000000000000000000000000000000000000000000000000000000000",
        "nonce": "0x5a",
        "chainId": "0x1"
      },
      "additionalContracts": [],
      "isFixedGasLimit": false
    },
    {
      "hash": "0x891668b4ad2bed19cd24ae3dd6079f9dbeafee89647aa65161120258ec9cff59",
      "transactionType": "CALL",
      "contractName": null,
      "contractAddress": "0xf7906f274c174a52d444175729e3fa98f9bde285",
      "function": "approve(address,uint256)",
      "arguments": [
        "0xBBBBBbbBBb9cC5e90e3b3Af64bdAF62C37EEFFCb",
        "10000000000000000"
      ],
      "transaction": {
        "from": "0xa9bbbdde822789f123667044443dc7001fb43c01",
        "to": "0xf7906f274c174a52d444175729e3fa98f9bde285",
        "gas": "0xf814",
        "value": "0x0",
        "input": "0x095ea7b3000000000000000000000000bbbbbbbbbb9cc5e90e3b3af64bdaf62c37eeffcb000000000000000000000000000000000000000000000000002386f26fc10000",
        "nonce": "0x5b",
        "chainId": "0x1"
      },
      "additionalContracts": [],
      "isFixedGasLimit": false
    },
    {
      "hash": "0xd5676eb31a6d3aadaf82148fc8ca9f9762d287e628391f7a49c5450b413cc3ce",
      "transactionType": "CALL",
      "contractName": null,
      "contractAddress": "0xbbbbbbbbbb9cc5e90e3b3af64bdaf62c37eeffcb",
      "function": "supplyCollateral((address,address,address,address,uint256),uint256,address,bytes)",
      "arguments": [
        "(0x0000206329b97DB379d5E1Bf586BbDB969C63274, 0xf7906F274c174A52d444175729E3fa98f9bde285, 0xfE63A66aec4e39eE4c959eB7E2ed55Af8a0aB248, 0x870aC11D48B15DB9a138Cf899d20F13F79Ba00BC, 860000000000000000)",
        "10000000000000000",
        "0xa9bbbDDe822789F123667044443dc7001fb43C01",
        "0x"
      ],
      "transaction": {
        "from": "0xa9bbbdde822789f123667044443dc7001fb43c01",
        "to": "0xbbbbbbbbbb9cc5e90e3b3af64bdaf62c37eeffcb",
        "gas": "0x1e859",
        "value": "0x0",
        "input": "0x238d65790000000000000000000000000000206329b97db379d5e1bf586bbdb969c63274000000000000000000000000f7906f274c174a52d444175729e3fa98f9bde285000000000000000000000000fe63a66aec4e39ee4c959eb7e2ed55af8a0ab248000000000000000000000000870ac11d48b15db9a138cf899d20f13f79ba00bc0000000000000000000000000000000000000000000000000bef55718ad60000000000000000000000000000000000000000000000000000002386f26fc10000000000000000000000000000a9bbbdde822789f123667044443dc7001fb43c0100000000000000000000000000000000000000000000000000000000000001000000000000000000000000000000000000000000000000000000000000000000",
        "nonce": "0x5c",
        "chainId": "0x1"
      },
      "additionalContracts": [],
      "isFixedGasLimit": false
    },
    {
      "hash": "0x78b8459698ae29cb0d7364d3264ecf87038c08461ab155ea4f70a1291b7be967",
      "transactionType": "CALL",
      "contractName": null,
      "contractAddress": "0xbbbbbbbbbb9cc5e90e3b3af64bdaf62c37eeffcb",
      "function": "borrow((address,address,address,address,uint256),uint256,uint256,address,address)",
      "arguments": [
        "(0x0000206329b97DB379d5E1Bf586BbDB969C63274, 0xf7906F274c174A52d444175729E3fa98f9bde285, 0xfE63A66aec4e39eE4c959eB7E2ed55Af8a0aB248, 0x870aC11D48B15DB9a138Cf899d20F13F79Ba00BC, 860000000000000000)",
        "4500000000000000000",
        "0",
        "0xa9bbbDDe822789F123667044443dc7001fb43C01",
        "0xa9bbbDDe822789F123667044443dc7001fb43C01"
      ],
      "transaction": {
        "from": "0xa9bbbdde822789f123667044443dc7001fb43c01",
        "to": "0xbbbbbbbbbb9cc5e90e3b3af64bdaf62c37eeffcb",
        "gas": "0x557c3",
        "value": "0x0",
        "input": "0x50d8cd4b0000000000000000000000000000206329b97db379d5e1bf586bbdb969c63274000000000000000000000000f7906f274c174a52d444175729e3fa98f9bde285000000000000000000000000fe63a66aec4e39ee4c959eb7e2ed55af8a0ab248000000000000000000000000870ac11d48b15db9a138cf899d20f13f79ba00bc0000000000000000000000000000000000000000000000000bef55718ad600000000000000000000000000000000000000000000000000003e733628714200000000000000000000000000000000000000000000000000000000000000000000000000000000000000000000a9bbbdde822789f123667044443dc7001fb43c01000000000000000000000000a9bbbdde822789f123667044443dc7001fb43c01",
        "nonce": "0x5d",
        "chainId": "0x1"
      },
      "additionalContracts": [],
      "isFixedGasLimit": false
    }
  ],
  "receipts": [
    {
      "status": "0x1",
      "cumulativeGasUsed": "0xc61351",
      "logs": [
        {
          "address": "0x0000206329b97db379d5e1bf586bbdb969c63274",
          "topics": [
            "0x8c5be1e5ebec7d5bd14f71427d1e84f3dd0314c0f7b2291e5b200ac8c7c3b925",
            "0x000000000000000000000000a9bbbdde822789f123667044443dc7001fb43c01",
            "0x000000000000000000000000bbbbbbbbbb9cc5e90e3b3af64bdaf62c37eeffcb"
          ],
          "data": "0x0000000000000000000000000000000000000000000000004563918244f40000",
          "blockHash": "0x83df5232f5b6e86cc58dd0e406bc6905aa501678918924fed3a6532b63438971",
          "blockNumber": "0x13317cf",
          "transactionHash": "0xeb50db93fe9738ab91f773118f5a083e777ae16a0c9e9df2fa69d161590c99fc",
          "transactionIndex": "0x7e",
          "logIndex": "0x104",
          "removed": false
        }
      ],
      "logsBloom": "0x00000000000000000000000000000080000000000000000000000008000000000000000000000000000000000000000000008000000000000000000000200000000000000000000000000000000004000000000000000000000002000000000000000000000000000000000000000000000000000000000000000000000000000000000000000000000000000000000000000000000000000000000000000000020000000000000000000000000000000000000000000000000000000000000000000000000000000000000000000000000000004000000000000000000000000010000001000000000000200000000000000000000000000000000000004000",
      "type": "0x2",
      "transactionHash": "0xeb50db93fe9738ab91f773118f5a083e777ae16a0c9e9df2fa69d161590c99fc",
      "transactionIndex": "0x7e",
      "blockHash": "0x83df5232f5b6e86cc58dd0e406bc6905aa501678918924fed3a6532b63438971",
      "blockNumber": "0x13317cf",
      "gasUsed": "0xd092",
      "effectiveGasPrice": "0x1173ab615",
      "from": "0xa9bbbdde822789f123667044443dc7001fb43c01",
      "to": "0x0000206329b97db379d5e1bf586bbdb969c63274",
      "contractAddress": null
    },
    {
      "status": "0x1",
      "cumulativeGasUsed": "0xafc3ed",
      "logs": [
        {
          "address": "0x870ac11d48b15db9a138cf899d20f13f79ba00bc",
          "topics": [
            "0x7120161a7b3d31251e01294ab351ef15a41b91659a36032e4641bb89b121e321",
            "0xb6c1599ac357c1b23fcd46f4ef69495fb11d91bc0fa90c7c3e6ab644592c8017"
          ],
          "data": "0x00000000000000000000000000000000000000000000000000000000117424d00000000000000000000000000000000000000000000000000000000040475cd8",
          "blockHash": "0xa49fd0519cc98c4d6d51f6396e7f22cced88dc02c9fafe48c15774158b99252f",
          "blockNumber": "0x13317d0",
          "transactionHash": "0x11ceb884d7ac470907ce416dd3c84f6268420cbc494c8e3cd9b78aac63c3f2ef",
          "transactionIndex": "0xb1",
          "logIndex": "0xde",
          "removed": false
        },
        {
          "address": "0xbbbbbbbbbb9cc5e90e3b3af64bdaf62c37eeffcb",
          "topics": [
            "0x9d9bd501d0657d7dfe415f779a620a62b78bc508ddc0891fbbd8b7ac0f8fce87",
            "0xb6c1599ac357c1b23fcd46f4ef69495fb11d91bc0fa90c7c3e6ab644592c8017"
          ],
          "data": "0x00000000000000000000000000000000000000000000000000000000117424d000000000000000000000000000000000000000000000000000000000000000000000000000000000000000000000000000000000000000000000000000000000",
          "blockHash": "0xa49fd0519cc98c4d6d51f6396e7f22cced88dc02c9fafe48c15774158b99252f",
          "blockNumber": "0x13317d0",
          "transactionHash": "0x11ceb884d7ac470907ce416dd3c84f6268420cbc494c8e3cd9b78aac63c3f2ef",
          "transactionIndex": "0xb1",
          "logIndex": "0xdf",
          "removed": false
        },
        {
          "address": "0xbbbbbbbbbb9cc5e90e3b3af64bdaf62c37eeffcb",
          "topics": [
            "0xedf8870433c83823eb071d3df1caa8d008f12f6440918c20d75a3602cda30fe0",
            "0xb6c1599ac357c1b23fcd46f4ef69495fb11d91bc0fa90c7c3e6ab644592c8017",
            "0x000000000000000000000000a9bbbdde822789f123667044443dc7001fb43c01",
            "0x000000000000000000000000a9bbbdde822789f123667044443dc7001fb43c01"
          ],
          "data": "0x0000000000000000000000000000000000000000000000004563918244f400000000000000000000000000000000000000000000000422ca8b0a00a425000000",
          "blockHash": "0xa49fd0519cc98c4d6d51f6396e7f22cced88dc02c9fafe48c15774158b99252f",
          "blockNumber": "0x13317d0",
          "transactionHash": "0x11ceb884d7ac470907ce416dd3c84f6268420cbc494c8e3cd9b78aac63c3f2ef",
          "transactionIndex": "0xb1",
          "logIndex": "0xe0",
          "removed": false
        },
        {
          "address": "0x0000206329b97db379d5e1bf586bbdb969c63274",
          "topics": [
            "0x8c5be1e5ebec7d5bd14f71427d1e84f3dd0314c0f7b2291e5b200ac8c7c3b925",
            "0x000000000000000000000000a9bbbdde822789f123667044443dc7001fb43c01",
            "0x000000000000000000000000bbbbbbbbbb9cc5e90e3b3af64bdaf62c37eeffcb"
          ],
          "data": "0x0000000000000000000000000000000000000000000000000000000000000000",
          "blockHash": "0xa49fd0519cc98c4d6d51f6396e7f22cced88dc02c9fafe48c15774158b99252f",
          "blockNumber": "0x13317d0",
          "transactionHash": "0x11ceb884d7ac470907ce416dd3c84f6268420cbc494c8e3cd9b78aac63c3f2ef",
          "transactionIndex": "0xb1",
          "logIndex": "0xe1",
          "removed": false
        },
        {
          "address": "0x0000206329b97db379d5e1bf586bbdb969c63274",
          "topics": [
            "0xddf252ad1be2c89b69c2b068fc378daa952ba7f163c4a11628f55a4df523b3ef",
            "0x000000000000000000000000a9bbbdde822789f123667044443dc7001fb43c01",
            "0x000000000000000000000000bbbbbbbbbb9cc5e90e3b3af64bdaf62c37eeffcb"
          ],
          "data": "0x0000000000000000000000000000000000000000000000004563918244f40000",
          "blockHash": "0xa49fd0519cc98c4d6d51f6396e7f22cced88dc02c9fafe48c15774158b99252f",
          "blockNumber": "0x13317d0",
          "transactionHash": "0x11ceb884d7ac470907ce416dd3c84f6268420cbc494c8e3cd9b78aac63c3f2ef",
          "transactionIndex": "0xb1",
          "logIndex": "0xe2",
          "removed": false
        }
      ],
      "logsBloom": "0x00000000000000000000000000000080000000000000000000000008000000000000400000000000000000000000000000008000000000000000000020a44000000000084010000000000008800004000000000800200000000002080000000000000000000000000000000000000000000000000000000000000010000000000000000100000008000000000000000000000000000000000000000000000000020000000000000000000000000000000000000000000000000000000000000020000002000000000001000000000000000000004000000000000000000000400010000001000000000000200001000000000000000000000000000000004000",
      "type": "0x2",
      "transactionHash": "0x11ceb884d7ac470907ce416dd3c84f6268420cbc494c8e3cd9b78aac63c3f2ef",
      "transactionIndex": "0xb1",
      "blockHash": "0xa49fd0519cc98c4d6d51f6396e7f22cced88dc02c9fafe48c15774158b99252f",
      "blockNumber": "0x13317d0",
      "gasUsed": "0x1f761",
      "effectiveGasPrice": "0x135da834b",
      "from": "0xa9bbbdde822789f123667044443dc7001fb43c01",
      "to": "0xbbbbbbbbbb9cc5e90e3b3af64bdaf62c37eeffcb",
      "contractAddress": null
    },
    {
      "status": "0x1",
      "cumulativeGasUsed": "0xc2a772",
      "logs": [
        {
          "address": "0x6ee2b5e19ecba773a352e5b21415dc419a700d1d",
          "topics": [
            "0x8c5be1e5ebec7d5bd14f71427d1e84f3dd0314c0f7b2291e5b200ac8c7c3b925",
            "0x000000000000000000000000a9bbbdde822789f123667044443dc7001fb43c01",
            "0x000000000000000000000000bbbbbbbbbb9cc5e90e3b3af64bdaf62c37eeffcb"
          ],
          "data": "0x000000000000000000000000000000000000000000000000002386f26fc10000",
          "blockHash": "0x956071f19208ff64956c65b8c4c32273e2b2e777aa01c01e48d90c50c78967b3",
          "blockNumber": "0x13317d2",
          "transactionHash": "0x116d18979a34569eac5f03d21f22156bb528ab7eb2bae613d7d68ec0e6a7fa32",
          "transactionIndex": "0x8c",
          "logIndex": "0x146",
          "removed": false
        }
      ],
      "logsBloom": "0x00000000000000000000000000000080000000000000000000000008000000000000000000000000000000000000000000008000000000000000000000200000000000000000000000000000000000000000000000000400000002000000000000000000000000000000000000000000000000000000000000000000000000000000000000000000000000000100000000000000000000000000000000000000020000000000000000000000000000000000000000000000000000000000000000000000000000000000000200000000000000000000000000000000000000000010000001000000000000200000000000000000000000000000000000000000",
      "type": "0x2",
      "transactionHash": "0x116d18979a34569eac5f03d21f22156bb528ab7eb2bae613d7d68ec0e6a7fa32",
      "transactionIndex": "0x8c",
      "blockHash": "0x956071f19208ff64956c65b8c4c32273e2b2e777aa01c01e48d90c50c78967b3",
      "blockNumber": "0x13317d2",
      "gasUsed": "0xb39c",
      "effectiveGasPrice": "0x13b53ca30",
      "from": "0xa9bbbdde822789f123667044443dc7001fb43c01",
      "to": "0x6ee2b5e19ecba773a352e5b21415dc419a700d1d",
      "contractAddress": null
    },
    {
      "status": "0x1",
      "cumulativeGasUsed": "0x14a61f7",
      "logs": [
        {
          "address": "0xbbbbbbbbbb9cc5e90e3b3af64bdaf62c37eeffcb",
          "topics": [
            "0xa3b9472a1399e17e123f3c2e6586c23e504184d504de59cdaa2b375e880c6184",
            "0xb6c1599ac357c1b23fcd46f4ef69495fb11d91bc0fa90c7c3e6ab644592c8017",
            "0x000000000000000000000000a9bbbdde822789f123667044443dc7001fb43c01",
            "0x000000000000000000000000a9bbbdde822789f123667044443dc7001fb43c01"
          ],
          "data": "0x000000000000000000000000000000000000000000000000002386f26fc10000",
          "blockHash": "0x4be47e024428adbcc67d771e6eec0d72f8d3542c366540528d8886da524ffe3d",
          "blockNumber": "0x13317d3",
          "transactionHash": "0x27b2b91646e4f79fb5c390b079c967cb0551fbbce7cebeeef606dcdfff343546",
          "transactionIndex": "0xb5",
          "logIndex": "0x1b6",
          "removed": false
        },
        {
          "address": "0x6ee2b5e19ecba773a352e5b21415dc419a700d1d",
          "topics": [
            "0x8c5be1e5ebec7d5bd14f71427d1e84f3dd0314c0f7b2291e5b200ac8c7c3b925",
            "0x000000000000000000000000a9bbbdde822789f123667044443dc7001fb43c01",
            "0x000000000000000000000000bbbbbbbbbb9cc5e90e3b3af64bdaf62c37eeffcb"
          ],
          "data": "0x0000000000000000000000000000000000000000000000000000000000000000",
          "blockHash": "0x4be47e024428adbcc67d771e6eec0d72f8d3542c366540528d8886da524ffe3d",
          "blockNumber": "0x13317d3",
          "transactionHash": "0x27b2b91646e4f79fb5c390b079c967cb0551fbbce7cebeeef606dcdfff343546",
          "transactionIndex": "0xb5",
          "logIndex": "0x1b7",
          "removed": false
        },
        {
          "address": "0x6ee2b5e19ecba773a352e5b21415dc419a700d1d",
          "topics": [
            "0xddf252ad1be2c89b69c2b068fc378daa952ba7f163c4a11628f55a4df523b3ef",
            "0x000000000000000000000000a9bbbdde822789f123667044443dc7001fb43c01",
            "0x000000000000000000000000bbbbbbbbbb9cc5e90e3b3af64bdaf62c37eeffcb"
          ],
          "data": "0x000000000000000000000000000000000000000000000000002386f26fc10000",
          "blockHash": "0x4be47e024428adbcc67d771e6eec0d72f8d3542c366540528d8886da524ffe3d",
          "blockNumber": "0x13317d3",
          "transactionHash": "0x27b2b91646e4f79fb5c390b079c967cb0551fbbce7cebeeef606dcdfff343546",
          "transactionIndex": "0xb5",
          "logIndex": "0x1b8",
          "removed": false
        }
      ],
      "logsBloom": "0x00000000000000000000000000000080000000000000000000000008000000000000000000000000000000000000000000008000000000000000000000200000000000084010000000000008000000000000000000000400000002000000000000000000000000000000000000000000000000000000000000000010000000000000008100000008000000000100000000000000000000000000000000000000020000000000000000000000000000000000000000000000000000000000000020000002000000000000000200000000000000000000000400000000000000000010000001000000000000200000200000000000000000000000000000000000",
      "type": "0x2",
      "transactionHash": "0x27b2b91646e4f79fb5c390b079c967cb0551fbbce7cebeeef606dcdfff343546",
      "transactionIndex": "0xb5",
      "blockHash": "0x4be47e024428adbcc67d771e6eec0d72f8d3542c366540528d8886da524ffe3d",
      "blockNumber": "0x13317d3",
      "gasUsed": "0x1618f",
      "effectiveGasPrice": "0x13bf90d29",
      "from": "0xa9bbbdde822789f123667044443dc7001fb43c01",
      "to": "0xbbbbbbbbbb9cc5e90e3b3af64bdaf62c37eeffcb",
      "contractAddress": null
    },
    {
      "status": "0x1",
      "cumulativeGasUsed": "0xb0a7a7",
      "logs": [
        {
          "address": "0x870ac11d48b15db9a138cf899d20f13f79ba00bc",
          "topics": [
            "0x7120161a7b3d31251e01294ab351ef15a41b91659a36032e4641bb89b121e321",
            "0xb6c1599ac357c1b23fcd46f4ef69495fb11d91bc0fa90c7c3e6ab644592c8017"
          ],
          "data": "0x000000000000000000000000000000000000000000000000000000001011af230000000000000000000000000000000000000000000000000000000040461c43",
          "blockHash": "0x6d23c2c68b038fbafde161d88d91a7ba9034d735a16110dbfbc40e58b5560cd7",
          "blockNumber": "0x13317d4",
          "transactionHash": "0xe75879a100404aa00dac82d0adcd31857d8a1f63c6b6874ab4dea4311e8367c4",
          "transactionIndex": "0x5a",
          "logIndex": "0x125",
          "removed": false
        },
        {
          "address": "0xbbbbbbbbbb9cc5e90e3b3af64bdaf62c37eeffcb",
          "topics": [
            "0x9d9bd501d0657d7dfe415f779a620a62b78bc508ddc0891fbbd8b7ac0f8fce87",
            "0xb6c1599ac357c1b23fcd46f4ef69495fb11d91bc0fa90c7c3e6ab644592c8017"
          ],
          "data": "0x000000000000000000000000000000000000000000000000000000001011af2300000000000000000000000000000000000000000000000000000000000000000000000000000000000000000000000000000000000000000000000000000000",
          "blockHash": "0x6d23c2c68b038fbafde161d88d91a7ba9034d735a16110dbfbc40e58b5560cd7",
          "blockNumber": "0x13317d4",
          "transactionHash": "0xe75879a100404aa00dac82d0adcd31857d8a1f63c6b6874ab4dea4311e8367c4",
          "transactionIndex": "0x5a",
          "logIndex": "0x126",
          "removed": false
        },
        {
          "address": "0xbbbbbbbbbb9cc5e90e3b3af64bdaf62c37eeffcb",
          "topics": [
            "0x570954540bed6b1304a87dfe815a5eda4a648f7097a16240dcd85c9b5fd42a43",
            "0xb6c1599ac357c1b23fcd46f4ef69495fb11d91bc0fa90c7c3e6ab644592c8017",
            "0x000000000000000000000000a9bbbdde822789f123667044443dc7001fb43c01",
            "0x000000000000000000000000a9bbbdde822789f123667044443dc7001fb43c01"
          ],
          "data": "0x000000000000000000000000a9bbbdde822789f123667044443dc7001fb43c010000000000000000000000000000000000000000000000003e7336287142000000000000000000000000000000000000000000000003b8e97d229a2d54800000",
          "blockHash": "0x6d23c2c68b038fbafde161d88d91a7ba9034d735a16110dbfbc40e58b5560cd7",
          "blockNumber": "0x13317d4",
          "transactionHash": "0xe75879a100404aa00dac82d0adcd31857d8a1f63c6b6874ab4dea4311e8367c4",
          "transactionIndex": "0x5a",
          "logIndex": "0x127",
          "removed": false
        },
        {
          "address": "0x0000206329b97db379d5e1bf586bbdb969c63274",
          "topics": [
            "0xddf252ad1be2c89b69c2b068fc378daa952ba7f163c4a11628f55a4df523b3ef",
            "0x000000000000000000000000bbbbbbbbbb9cc5e90e3b3af64bdaf62c37eeffcb",
            "0x000000000000000000000000a9bbbdde822789f123667044443dc7001fb43c01"
          ],
          "data": "0x0000000000000000000000000000000000000000000000003e73362871420000",
          "blockHash": "0x6d23c2c68b038fbafde161d88d91a7ba9034d735a16110dbfbc40e58b5560cd7",
          "blockNumber": "0x13317d4",
          "transactionHash": "0xe75879a100404aa00dac82d0adcd31857d8a1f63c6b6874ab4dea4311e8367c4",
          "transactionIndex": "0x5a",
          "logIndex": "0x128",
          "removed": false
        }
      ],
      "logsBloom": "0x00000000000000000002000000000080000000000000000000000008000000000000400000000000000000000000000000008000000000000000000020844000000000084010000000000008000004000000000000200000000002080000000000000000000000000000000000000000000000000000000000000010000000000000000100000008000000000000000000000000000000000000000000000000000000000000000000000000000000000000000000000000000000000000000020000002000000000001000000000000000000004000000000000000000000000000004001000008000000200001000000000000000000000000000000004000",
      "type": "0x2",
      "transactionHash": "0xe75879a100404aa00dac82d0adcd31857d8a1f63c6b6874ab4dea4311e8367c4",
      "transactionIndex": "0x5a",
      "blockHash": "0x6d23c2c68b038fbafde161d88d91a7ba9034d735a16110dbfbc40e58b5560cd7",
      "blockNumber": "0x13317d4",
      "gasUsed": "0x36cf4",
      "effectiveGasPrice": "0x155404dd2",
      "from": "0xa9bbbdde822789f123667044443dc7001fb43c01",
      "to": "0xbbbbbbbbbb9cc5e90e3b3af64bdaf62c37eeffcb",
      "contractAddress": null
    },
    {
      "status": "0x1",
      "cumulativeGasUsed": "0x10f19b3",
      "logs": [
        {
          "address": "0x0000206329b97db379d5e1bf586bbdb969c63274",
          "topics": [
            "0x8c5be1e5ebec7d5bd14f71427d1e84f3dd0314c0f7b2291e5b200ac8c7c3b925",
            "0x000000000000000000000000a9bbbdde822789f123667044443dc7001fb43c01",
            "0x000000000000000000000000bbbbbbbbbb9cc5e90e3b3af64bdaf62c37eeffcb"
          ],
          "data": "0x0000000000000000000000000000000000000000000000004563918244f40000",
          "blockHash": "0x3b0b6a3c8d08e999f2b27bcb72f04e56287d61340dec6a804b3a4c9150d855f1",
          "blockNumber": "0x13317d5",
          "transactionHash": "0xc842353988782a58ab4616c76398622ae5df34b2d9441baac19e0389085c332c",
          "transactionIndex": "0x87",
          "logIndex": "0x139",
          "removed": false
        }
      ],
      "logsBloom": "0x00000000000000000000000000000080000000000000000000000008000000000000000000000000000000000000000000008000000000000000000000200000000000000000000000000000000004000000000000000000000002000000000000000000000000000000000000000000000000000000000000000000000000000000000000000000000000000000000000000000000000000000000000000000020000000000000000000000000000000000000000000000000000000000000000000000000000000000000000000000000000004000000000000000000000000010000001000000000000200000000000000000000000000000000000004000",
      "type": "0x2",
      "transactionHash": "0xc842353988782a58ab4616c76398622ae5df34b2d9441baac19e0389085c332c",
      "transactionIndex": "0x87",
      "blockHash": "0x3b0b6a3c8d08e999f2b27bcb72f04e56287d61340dec6a804b3a4c9150d855f1",
      "blockNumber": "0x13317d5",
      "gasUsed": "0xd092",
      "effectiveGasPrice": "0x168523471",
      "from": "0xa9bbbdde822789f123667044443dc7001fb43c01",
      "to": "0x0000206329b97db379d5e1bf586bbdb969c63274",
      "contractAddress": null
    },
    {
      "status": "0x1",
      "cumulativeGasUsed": "0xb31226",
      "logs": [
        {
          "address": "0x870ac11d48b15db9a138cf899d20f13f79ba00bc",
          "topics": [
            "0x7120161a7b3d31251e01294ab351ef15a41b91659a36032e4641bb89b121e321",
            "0xed9e817ac29464b3cc520bf124fb333c330021a8ae768889f414d21df35686e0"
          ],
          "data": "0x000000000000000000000000000000000000000000000000000000001173fb720000000000000000000000000000000000000000000000000000000040462148",
          "blockHash": "0x392ddf558443725624b0ff7b8a2c67833c70c4b8f5b39d7a2c9eeb634e04f990",
          "blockNumber": "0x13317d6",
          "transactionHash": "0xdf3a466f9d73c2666e2d54ff8d09259aeb3799875b943bf74575a122e5d2a6aa",
          "transactionIndex": "0x6f",
          "logIndex": "0x11b",
          "removed": false
        },
        {
          "address": "0xbbbbbbbbbb9cc5e90e3b3af64bdaf62c37eeffcb",
          "topics": [
            "0x9d9bd501d0657d7dfe415f779a620a62b78bc508ddc0891fbbd8b7ac0f8fce87",
            "0xed9e817ac29464b3cc520bf124fb333c330021a8ae768889f414d21df35686e0"
          ],
          "data": "0x000000000000000000000000000000000000000000000000000000001173fb7200000000000000000000000000000000000000000000000000000000000000000000000000000000000000000000000000000000000000000000000000000000",
          "blockHash": "0x392ddf558443725624b0ff7b8a2c67833c70c4b8f5b39d7a2c9eeb634e04f990",
          "blockNumber": "0x13317d6",
          "transactionHash": "0xdf3a466f9d73c2666e2d54ff8d09259aeb3799875b943bf74575a122e5d2a6aa",
          "transactionIndex": "0x6f",
          "logIndex": "0x11c",
          "removed": false
        },
        {
          "address": "0xbbbbbbbbbb9cc5e90e3b3af64bdaf62c37eeffcb",
          "topics": [
            "0xedf8870433c83823eb071d3df1caa8d008f12f6440918c20d75a3602cda30fe0",
            "0xed9e817ac29464b3cc520bf124fb333c330021a8ae768889f414d21df35686e0",
            "0x000000000000000000000000a9bbbdde822789f123667044443dc7001fb43c01",
            "0x000000000000000000000000a9bbbdde822789f123667044443dc7001fb43c01"
          ],
          "data": "0x0000000000000000000000000000000000000000000000004563918244f400000000000000000000000000000000000000000000000422ca8b0a00a425000000",
          "blockHash": "0x392ddf558443725624b0ff7b8a2c67833c70c4b8f5b39d7a2c9eeb634e04f990",
          "blockNumber": "0x13317d6",
          "transactionHash": "0xdf3a466f9d73c2666e2d54ff8d09259aeb3799875b943bf74575a122e5d2a6aa",
          "transactionIndex": "0x6f",
          "logIndex": "0x11d",
          "removed": false
        },
        {
          "address": "0x0000206329b97db379d5e1bf586bbdb969c63274",
          "topics": [
            "0x8c5be1e5ebec7d5bd14f71427d1e84f3dd0314c0f7b2291e5b200ac8c7c3b925",
            "0x000000000000000000000000a9bbbdde822789f123667044443dc7001fb43c01",
            "0x000000000000000000000000bbbbbbbbbb9cc5e90e3b3af64bdaf62c37eeffcb"
          ],
          "data": "0x0000000000000000000000000000000000000000000000000000000000000000",
          "blockHash": "0x392ddf558443725624b0ff7b8a2c67833c70c4b8f5b39d7a2c9eeb634e04f990",
          "blockNumber": "0x13317d6",
          "transactionHash": "0xdf3a466f9d73c2666e2d54ff8d09259aeb3799875b943bf74575a122e5d2a6aa",
          "transactionIndex": "0x6f",
          "logIndex": "0x11e",
          "removed": false
        },
        {
          "address": "0x0000206329b97db379d5e1bf586bbdb969c63274",
          "topics": [
            "0xddf252ad1be2c89b69c2b068fc378daa952ba7f163c4a11628f55a4df523b3ef",
            "0x000000000000000000000000a9bbbdde822789f123667044443dc7001fb43c01",
            "0x000000000000000000000000bbbbbbbbbb9cc5e90e3b3af64bdaf62c37eeffcb"
          ],
          "data": "0x0000000000000000000000000000000000000000000000004563918244f40000",
          "blockHash": "0x392ddf558443725624b0ff7b8a2c67833c70c4b8f5b39d7a2c9eeb634e04f990",
          "blockNumber": "0x13317d6",
          "transactionHash": "0xdf3a466f9d73c2666e2d54ff8d09259aeb3799875b943bf74575a122e5d2a6aa",
          "transactionIndex": "0x6f",
          "logIndex": "0x11f",
          "removed": false
        }
      ],
      "logsBloom": "0x00000000000000000000000000000080000000000000000000000008000000000000400000000000000000000000000000008000000000000000000020a44000000000000010000000000008800004000000000800200000000002080000000000200000000000000000000000000000000000000000000000000010000000000000000000400008000000000000000000000000000000000000000000000000020000000000000000200000000000000000000000000000000000000000000020000002000000000001000000000000000000004000000000000000000000400010000001000000000000200001000000000000000000000000000000004000",
      "type": "0x2",
      "transactionHash": "0xdf3a466f9d73c2666e2d54ff8d09259aeb3799875b943bf74575a122e5d2a6aa",
      "transactionIndex": "0x6f",
      "blockHash": "0x392ddf558443725624b0ff7b8a2c67833c70c4b8f5b39d7a2c9eeb634e04f990",
      "blockNumber": "0x13317d6",
      "gasUsed": "0x1f761",
      "effectiveGasPrice": "0x17a0212a8",
      "from": "0xa9bbbdde822789f123667044443dc7001fb43c01",
      "to": "0xbbbbbbbbbb9cc5e90e3b3af64bdaf62c37eeffcb",
      "contractAddress": null
    },
    {
      "status": "0x1",
      "cumulativeGasUsed": "0x8d4ea2",
      "logs": [
        {
          "address": "0xf7906f274c174a52d444175729e3fa98f9bde285",
          "topics": [
            "0x8c5be1e5ebec7d5bd14f71427d1e84f3dd0314c0f7b2291e5b200ac8c7c3b925",
            "0x000000000000000000000000a9bbbdde822789f123667044443dc7001fb43c01",
            "0x000000000000000000000000bbbbbbbbbb9cc5e90e3b3af64bdaf62c37eeffcb"
          ],
          "data": "0x000000000000000000000000000000000000000000000000002386f26fc10000",
          "blockHash": "0xcf192863ae181cf3dee42a6530f6e6d4e7dd0774ceec2fab7c15b80aab853162",
          "blockNumber": "0x13317d7",
          "transactionHash": "0x891668b4ad2bed19cd24ae3dd6079f9dbeafee89647aa65161120258ec9cff59",
          "transactionIndex": "0x64",
          "logIndex": "0xd1",
          "removed": false
        }
      ],
      "logsBloom": "0x00000000000000000000000000000080000000000000000000000008000000000000000000002020000000000000000000008000000000000000000000200000000000000000000000000000000000000000000000000000000002000000000000000000000000000000000000000000000000000000000000000000000000000000000000000000000000000000000000000000000000000000000000000000020000000000000000000000000000000000000000002000000000000000000000000000000000000000000000000000000000000000000000000000000000000010000001000000000000200000000000000000000000000000000000000000",
      "type": "0x2",
      "transactionHash": "0x891668b4ad2bed19cd24ae3dd6079f9dbeafee89647aa65161120258ec9cff59",
      "transactionIndex": "0x64",
      "blockHash": "0xcf192863ae181cf3dee42a6530f6e6d4e7dd0774ceec2fab7c15b80aab853162",
      "blockNumber": "0x13317d7",
      "gasUsed": "0xb39c",
      "effectiveGasPrice": "0x175240690",
      "from": "0xa9bbbdde822789f123667044443dc7001fb43c01",
      "to": "0xf7906f274c174a52d444175729e3fa98f9bde285",
      "contractAddress": null
    },
    {
      "status": "0x1",
      "cumulativeGasUsed": "0xa887a6",
      "logs": [
        {
          "address": "0xbbbbbbbbbb9cc5e90e3b3af64bdaf62c37eeffcb",
          "topics": [
            "0xa3b9472a1399e17e123f3c2e6586c23e504184d504de59cdaa2b375e880c6184",
            "0xed9e817ac29464b3cc520bf124fb333c330021a8ae768889f414d21df35686e0",
            "0x000000000000000000000000a9bbbdde822789f123667044443dc7001fb43c01",
            "0x000000000000000000000000a9bbbdde822789f123667044443dc7001fb43c01"
          ],
          "data": "0x000000000000000000000000000000000000000000000000002386f26fc10000",
          "blockHash": "0xbbbc854a3265a4957c6752ced6e0935d33d3e0f286e0e759910b8a52a810a0e1",
          "blockNumber": "0x13317d8",
          "transactionHash": "0xd5676eb31a6d3aadaf82148fc8ca9f9762d287e628391f7a49c5450b413cc3ce",
          "transactionIndex": "0x84",
          "logIndex": "0x140",
          "removed": false
        },
        {
          "address": "0xf7906f274c174a52d444175729e3fa98f9bde285",
          "topics": [
            "0x8c5be1e5ebec7d5bd14f71427d1e84f3dd0314c0f7b2291e5b200ac8c7c3b925",
            "0x000000000000000000000000a9bbbdde822789f123667044443dc7001fb43c01",
            "0x000000000000000000000000bbbbbbbbbb9cc5e90e3b3af64bdaf62c37eeffcb"
          ],
          "data": "0x0000000000000000000000000000000000000000000000000000000000000000",
          "blockHash": "0xbbbc854a3265a4957c6752ced6e0935d33d3e0f286e0e759910b8a52a810a0e1",
          "blockNumber": "0x13317d8",
          "transactionHash": "0xd5676eb31a6d3aadaf82148fc8ca9f9762d287e628391f7a49c5450b413cc3ce",
          "transactionIndex": "0x84",
          "logIndex": "0x141",
          "removed": false
        },
        {
          "address": "0xf7906f274c174a52d444175729e3fa98f9bde285",
          "topics": [
            "0xddf252ad1be2c89b69c2b068fc378daa952ba7f163c4a11628f55a4df523b3ef",
            "0x000000000000000000000000a9bbbdde822789f123667044443dc7001fb43c01",
            "0x000000000000000000000000bbbbbbbbbb9cc5e90e3b3af64bdaf62c37eeffcb"
          ],
          "data": "0x000000000000000000000000000000000000000000000000002386f26fc10000",
          "blockHash": "0xbbbc854a3265a4957c6752ced6e0935d33d3e0f286e0e759910b8a52a810a0e1",
          "blockNumber": "0x13317d8",
          "transactionHash": "0xd5676eb31a6d3aadaf82148fc8ca9f9762d287e628391f7a49c5450b413cc3ce",
          "transactionIndex": "0x84",
          "logIndex": "0x142",
          "removed": false
        }
      ],
      "logsBloom": "0x00000000000000000000000000000080000000000000000000000008000000000000000000002020000000000000000000008000000000000000000000200000000000000010000000000008000000000000000000000000000002000000000000200000000000000000000000000000000000000000000000000010000000000000008000400008000000000000000000000000000000000000000000000000020000000000000000200000000000000000000000002000000000000000000020000002000000000000000000000000000000000000000400000000000000000010000001000000000000200000200000000000000000000000000000000000",
      "type": "0x2",
      "transactionHash": "0xd5676eb31a6d3aadaf82148fc8ca9f9762d287e628391f7a49c5450b413cc3ce",
      "transactionIndex": "0x84",
      "blockHash": "0xbbbc854a3265a4957c6752ced6e0935d33d3e0f286e0e759910b8a52a810a0e1",
      "blockNumber": "0x13317d8",
      "gasUsed": "0x1618f",
      "effectiveGasPrice": "0x1753e5a27",
      "from": "0xa9bbbdde822789f123667044443dc7001fb43c01",
      "to": "0xbbbbbbbbbb9cc5e90e3b3af64bdaf62c37eeffcb",
      "contractAddress": null
    },
    {
      "status": "0x1",
      "cumulativeGasUsed": "0x9a9b97",
      "logs": [
        {
          "address": "0x870ac11d48b15db9a138cf899d20f13f79ba00bc",
          "topics": [
            "0x7120161a7b3d31251e01294ab351ef15a41b91659a36032e4641bb89b121e321",
            "0xed9e817ac29464b3cc520bf124fb333c330021a8ae768889f414d21df35686e0"
          ],
          "data": "0x0000000000000000000000000000000000000000000000000000000010116a4400000000000000000000000000000000000000000000000000000000404530dc",
          "blockHash": "0x699c4b7e6de0759697b4746d9aa992c698d6065d54c5bc17d1288824ca51ff0e",
          "blockNumber": "0x13317d9",
          "transactionHash": "0x78b8459698ae29cb0d7364d3264ecf87038c08461ab155ea4f70a1291b7be967",
          "transactionIndex": "0x58",
          "logIndex": "0x104",
          "removed": false
        },
        {
          "address": "0xbbbbbbbbbb9cc5e90e3b3af64bdaf62c37eeffcb",
          "topics": [
            "0x9d9bd501d0657d7dfe415f779a620a62b78bc508ddc0891fbbd8b7ac0f8fce87",
            "0xed9e817ac29464b3cc520bf124fb333c330021a8ae768889f414d21df35686e0"
          ],
          "data": "0x0000000000000000000000000000000000000000000000000000000010116a4400000000000000000000000000000000000000000000000000000000000000000000000000000000000000000000000000000000000000000000000000000000",
          "blockHash": "0x699c4b7e6de0759697b4746d9aa992c698d6065d54c5bc17d1288824ca51ff0e",
          "blockNumber": "0x13317d9",
          "transactionHash": "0x78b8459698ae29cb0d7364d3264ecf87038c08461ab155ea4f70a1291b7be967",
          "transactionIndex": "0x58",
          "logIndex": "0x105",
          "removed": false
        },
        {
          "address": "0xbbbbbbbbbb9cc5e90e3b3af64bdaf62c37eeffcb",
          "topics": [
            "0x570954540bed6b1304a87dfe815a5eda4a648f7097a16240dcd85c9b5fd42a43",
            "0xed9e817ac29464b3cc520bf124fb333c330021a8ae768889f414d21df35686e0",
            "0x000000000000000000000000a9bbbdde822789f123667044443dc7001fb43c01",
            "0x000000000000000000000000a9bbbdde822789f123667044443dc7001fb43c01"
          ],
          "data": "0x000000000000000000000000a9bbbdde822789f123667044443dc7001fb43c010000000000000000000000000000000000000000000000003e7336287142000000000000000000000000000000000000000000000003b8e97d229a2d54800000",
          "blockHash": "0x699c4b7e6de0759697b4746d9aa992c698d6065d54c5bc17d1288824ca51ff0e",
          "blockNumber": "0x13317d9",
          "transactionHash": "0x78b8459698ae29cb0d7364d3264ecf87038c08461ab155ea4f70a1291b7be967",
          "transactionIndex": "0x58",
          "logIndex": "0x106",
          "removed": false
        },
        {
          "address": "0x0000206329b97db379d5e1bf586bbdb969c63274",
          "topics": [
            "0xddf252ad1be2c89b69c2b068fc378daa952ba7f163c4a11628f55a4df523b3ef",
            "0x000000000000000000000000bbbbbbbbbb9cc5e90e3b3af64bdaf62c37eeffcb",
            "0x000000000000000000000000a9bbbdde822789f123667044443dc7001fb43c01"
          ],
          "data": "0x0000000000000000000000000000000000000000000000003e73362871420000",
          "blockHash": "0x699c4b7e6de0759697b4746d9aa992c698d6065d54c5bc17d1288824ca51ff0e",
          "blockNumber": "0x13317d9",
          "transactionHash": "0x78b8459698ae29cb0d7364d3264ecf87038c08461ab155ea4f70a1291b7be967",
          "transactionIndex": "0x58",
          "logIndex": "0x107",
          "removed": false
        }
      ],
      "logsBloom": "0x00000000000000000002000000000080000000000000000000000008000000000000400000000000000000000000000000008000000000000000000020844000000000000010000000000008000004000000000000200000000002080000000000200000000000000000000000000000000000000000000000000010000000000000000000400008000000000000000000000000000000000000000000000000000000000000000000200000000000000000000000000000000000000000000020000002000000000001000000000000000000004000000000000000000000000000004001000008000000200001000000000000000000000000000000004000",
      "type": "0x2",
      "transactionHash": "0x78b8459698ae29cb0d7364d3264ecf87038c08461ab155ea4f70a1291b7be967",
      "transactionIndex": "0x58",
      "blockHash": "0x699c4b7e6de0759697b4746d9aa992c698d6065d54c5bc17d1288824ca51ff0e",
      "blockNumber": "0x13317d9",
      "gasUsed": "0x405f8",
      "effectiveGasPrice": "0x172f9bc41",
      "from": "0xa9bbbdde822789f123667044443dc7001fb43c01",
      "to": "0xbbbbbbbbbb9cc5e90e3b3af64bdaf62c37eeffcb",
      "contractAddress": null
    }
  ],
  "libraries": [],
  "pending": [],
  "returns": {},
  "timestamp": 1718798547,
  "chain": 1,
  "commit": "0489249"
}