{
  "transactions": [
    {
      "hash": "0x683d77088a2b40481ab9b3bd87483c39c1d4f2d47aceeceb79928257b02862a9",
      "transactionType": "CALL",
      "contractName": null,
      "contractAddress": "0x0000206329b97DB379d5E1Bf586BbDB969C63274",
      "function": "approve(address,uint256)",
      "arguments": [
        "0xBBBBBbbBBb9cC5e90e3b3Af64bdAF62C37EEFFCb",
        "1000000000000000000"
      ],
      "transaction": {
        "type": "0x02",
        "from": "0xa9ddd91249dfdd450e81e1c56ab60e1a62651701",
        "to": "0x0000206329b97db379d5e1bf586bbdb969c63274",
        "gas": "0x13108",
        "value": "0x0",
        "data": "0x095ea7b3000000000000000000000000bbbbbbbbbb9cc5e90e3b3af64bdaf62c37eeffcb0000000000000000000000000000000000000000000000000de0b6b3a7640000",
        "nonce": "0xe2",
        "accessList": []
      },
      "additionalContracts": [],
      "isFixedGasLimit": false
    },
    {
      "hash": "0xb6ac56b886539b35e10c67bd417787c1e29775431e0b731e3cb6bd52e52e7aa8",
      "transactionType": "CALL",
      "contractName": null,
      "contractAddress": "0xBBBBBbbBBb9cC5e90e3b3Af64bdAF62C37EEFFCb",
      "function": null,
      "arguments": null,
      "transaction": {
        "type": "0x02",
        "from": "0xa9ddd91249dfdd450e81e1c56ab60e1a62651701",
        "to": "0xbbbbbbbbbb9cc5e90e3b3af64bdaf62c37eeffcb",
        "gas": "0x2285c",
        "value": "0x0",
        "data": "0x20b76e810000000000000000000000000000206329b97db379d5e1bf586bbdb969c6327400000000000000000000000095eef579155cd2c5510f312c8fa39208c3be01a80000000000000000000000001f083a4c51e6caa627a8cbe7452bf3d6eb815f57000000000000000000000000870ac11d48b15db9a138cf899d20f13f79ba00bc0000000000000000000000000000000000000000000000000cb2bba6f17b80000000000000000000000000000000000000000000000000000186cc6acd4b00000000000000000000000000000000000000000000000000000000000000000000000000000000000000000000a9ddd91249dfdd450e81e1c56ab60e1a6265170100000000000000000000000000000000000000000000000000000000000001200000000000000000000000000000000000000000000000000000000000000000",
        "nonce": "0xe3",
        "accessList": []
      },
      "additionalContracts": [],
      "isFixedGasLimit": false
    },
    {
      "hash": "0x58ffd8ba26a45a541078da88c46bb3898381211f47ab9fe7cf946da4fda717ea",
      "transactionType": "CALL",
      "contractName": null,
      "contractAddress": "0xBBBBBbbBBb9cC5e90e3b3Af64bdAF62C37EEFFCb",
      "function": null,
      "arguments": null,
      "transaction": {
        "type": "0x02",
        "from": "0xa9ddd91249dfdd450e81e1c56ab60e1a62651701",
        "to": "0xbbbbbbbbbb9cc5e90e3b3af64bdaf62c37eeffcb",
        "gas": "0x248c9",
        "value": "0x0",
        "data": "0x20b76e810000000000000000000000000000206329b97db379d5e1bf586bbdb969c6327400000000000000000000000078fc2c2ed1a4cdb5402365934ae5648adad094d000000000000000000000000076052a2a28fdcb8124f4686c63c68355b142de3b000000000000000000000000870ac11d48b15db9a138cf899d20f13f79ba00bc0000000000000000000000000000000000000000000000000bef55718ad600000000000000000000000000000000000000000000000000000186cc6acd4b00000000000000000000000000000000000000000000000000000000000000000000000000000000000000000000a9ddd91249dfdd450e81e1c56ab60e1a6265170100000000000000000000000000000000000000000000000000000000000001200000000000000000000000000000000000000000000000000000000000000000",
        "nonce": "0xe4",
        "accessList": []
      },
      "additionalContracts": [],
      "isFixedGasLimit": false
    },
    {
      "hash": "0x98054195af08703a02b9722c77187c824522d3755a65c937548bb6d5bb586eab",
      "transactionType": "CALL",
      "contractName": null,
      "contractAddress": "0xBBBBBbbBBb9cC5e90e3b3Af64bdAF62C37EEFFCb",
      "function": null,
      "arguments": null,
      "transaction": {
        "type": "0x02",
        "from": "0xa9ddd91249dfdd450e81e1c56ab60e1a62651701",
        "to": "0xbbbbbbbbbb9cc5e90e3b3af64bdaf62c37eeffcb",
        "gas": "0x248c9",
        "value": "0x0",
        "data": "0x20b76e810000000000000000000000000000206329b97db379d5e1bf586bbdb969c63274000000000000000000000000dd0f28e19c1780eb6396170735d45153d261490d0000000000000000000000003b8c4a340336941524de276ff730b3be71157b55000000000000000000000000870ac11d48b15db9a138cf899d20f13f79ba00bc0000000000000000000000000000000000000000000000000bef55718ad600000000000000000000000000000000000000000000000000000186cc6acd4b00000000000000000000000000000000000000000000000000000000000000000000000000000000000000000000a9ddd91249dfdd450e81e1c56ab60e1a6265170100000000000000000000000000000000000000000000000000000000000001200000000000000000000000000000000000000000000000000000000000000000",
        "nonce": "0xe5",
        "accessList": []
      },
      "additionalContracts": [],
      "isFixedGasLimit": false
    },
    {
      "hash": "0x10f2a9d7e7d75f8223d2c36f90f803d7cced2be8235dbcf95b3fd22a1f6b7740",
      "transactionType": "CALL",
      "contractName": null,
      "contractAddress": "0xBBBBBbbBBb9cC5e90e3b3Af64bdAF62C37EEFFCb",
      "function": null,
      "arguments": null,
      "transaction": {
        "type": "0x02",
        "from": "0xa9ddd91249dfdd450e81e1c56ab60e1a62651701",
        "to": "0xbbbbbbbbbb9cc5e90e3b3af64bdaf62c37eeffcb",
        "gas": "0x248c9",
        "value": "0x0",
        "data": "0x20b76e810000000000000000000000000000206329b97db379d5e1bf586bbdb969c632740000000000000000000000002371e134e3455e0593363cbf89d3b6cf53740618000000000000000000000000e4ccaa1849e9058f77f555c0fcca4925efd37d8e000000000000000000000000870ac11d48b15db9a138cf899d20f13f79ba00bc0000000000000000000000000000000000000000000000000aaf96eb9d0d00000000000000000000000000000000000000000000000000000186cc6acd4b00000000000000000000000000000000000000000000000000000000000000000000000000000000000000000000a9ddd91249dfdd450e81e1c56ab60e1a6265170100000000000000000000000000000000000000000000000000000000000001200000000000000000000000000000000000000000000000000000000000000000",
        "nonce": "0xe6",
        "accessList": []
      },
      "additionalContracts": [],
      "isFixedGasLimit": false
    }
  ],
  "receipts": [
    {
      "transactionHash": "0x683d77088a2b40481ab9b3bd87483c39c1d4f2d47aceeceb79928257b02862a9",
      "transactionIndex": "0x0",
      "blockHash": "0xd6731761e4d091e2d44c2fc16e95abd1ebac08d74e4eb28e203ced42bfe598d4",
      "blockNumber": "0x12d37c9",
      "from": "0xA9DdD91249DFdd450E81E1c56Ab60E1A62651701",
      "to": "0x0000206329b97DB379d5E1Bf586BbDB969C63274",
      "cumulativeGasUsed": "0xd092",
      "gasUsed": "0xd092",
      "contractAddress": null,
      "logs": [
        {
          "address": "0x0000206329b97DB379d5E1Bf586BbDB969C63274",
          "topics": [
            "0x8c5be1e5ebec7d5bd14f71427d1e84f3dd0314c0f7b2291e5b200ac8c7c3b925",
            "0x000000000000000000000000a9ddd91249dfdd450e81e1c56ab60e1a62651701",
            "0x000000000000000000000000bbbbbbbbbb9cc5e90e3b3af64bdaf62c37eeffcb"
          ],
          "data": "0x0000000000000000000000000000000000000000000000000de0b6b3a7640000",
          "blockHash": "0xd6731761e4d091e2d44c2fc16e95abd1ebac08d74e4eb28e203ced42bfe598d4",
          "blockNumber": "0x12d37c9",
          "transactionHash": "0x683d77088a2b40481ab9b3bd87483c39c1d4f2d47aceeceb79928257b02862a9",
          "transactionIndex": "0x0",
          "logIndex": "0x0",
          "removed": false
        }
      ],
      "status": "0x1",
      "logsBloom": "0x00000000000000000000000000000080000000000000000000000000000000000000000000000000000000000000000000000000000000000000000000200000000000000000000000000000000004000000000000000000000000000000000000000000000000000000000000000000000000000000000000000000000000000000000000000000000000000000000000000000000000000000000000000000820000000000000000000000000000000000000000000000800000080000000000000000000000000000000000000000000000004000000000000000000000000010000001000000000000200000000000000000000000000000000000004000",
      "type": "0x2",
      "effectiveGasPrice": "0x2ce5f0b01"
    },
    {
      "transactionHash": "0xb6ac56b886539b35e10c67bd417787c1e29775431e0b731e3cb6bd52e52e7aa8",
      "transactionIndex": "0x0",
      "blockHash": "0xda1856cd1f7b2bff4cc5bc9f0dfd6c33f63995363f018f214855443a2f3c80b3",
      "blockNumber": "0x12d37ca",
      "from": "0xA9DdD91249DFdd450E81E1c56Ab60E1A62651701",
      "to": "0xBBBBBbbBBb9cC5e90e3b3Af64bdAF62C37EEFFCb",
      "cumulativeGasUsed": "0x18fe7",
      "gasUsed": "0x18fe7",
      "contractAddress": null,
      "logs": [
        {
          "address": "0x870aC11D48B15DB9a138Cf899d20F13F79Ba00BC",
          "topics": [
            "0x7120161a7b3d31251e01294ab351ef15a41b91659a36032e4641bb89b121e321",
            "0x5d09770b08517329e25b7dff8f32ad7098c8b6fd075660cdabec3e717ca8068f"
          ],
          "data": "0x0000000000000000000000000000000000000000000000000000000211a02b0000000000000000000000000000000000000000000000000000000000cc86220b",
          "blockHash": "0xda1856cd1f7b2bff4cc5bc9f0dfd6c33f63995363f018f214855443a2f3c80b3",
          "blockNumber": "0x12d37ca",
          "transactionHash": "0xb6ac56b886539b35e10c67bd417787c1e29775431e0b731e3cb6bd52e52e7aa8",
          "transactionIndex": "0x0",
          "logIndex": "0x0",
          "removed": false
        },
        {
          "address": "0xBBBBBbbBBb9cC5e90e3b3Af64bdAF62C37EEFFCb",
          "topics": [
            "0x9d9bd501d0657d7dfe415f779a620a62b78bc508ddc0891fbbd8b7ac0f8fce87",
            "0x5d09770b08517329e25b7dff8f32ad7098c8b6fd075660cdabec3e717ca8068f"
          ],
          "data": "0x0000000000000000000000000000000000000000000000000000000211a02b000000000000000000000000000000000000000000000000000013f2db1e1d63a00000000000000000000000000000000000000000000000000000000000000000",
          "blockHash": "0xda1856cd1f7b2bff4cc5bc9f0dfd6c33f63995363f018f214855443a2f3c80b3",
          "blockNumber": "0x12d37ca",
          "transactionHash": "0xb6ac56b886539b35e10c67bd417787c1e29775431e0b731e3cb6bd52e52e7aa8",
          "transactionIndex": "0x0",
          "logIndex": "0x1",
          "removed": false
        },
        {
          "address": "0xBBBBBbbBBb9cC5e90e3b3Af64bdAF62C37EEFFCb",
          "topics": [
            "0x52acb05cebbd3cd39715469f22afbf5a17496295ef3bc9bb5944056c63ccaa09",
            "0x5d09770b08517329e25b7dff8f32ad7098c8b6fd075660cdabec3e717ca8068f",
            "0x000000000000000000000000a9ddd91249dfdd450e81e1c56ab60e1a62651701",
            "0x000000000000000000000000a9ddd91249dfdd450e81e1c56ab60e1a62651701"
          ],
          "data": "0x0000000000000000000000000000000000000000000000000186cc6acd4b0000000000000000000000000000000000000000000000001729d0d51aa15cac26d2",
          "blockHash": "0xda1856cd1f7b2bff4cc5bc9f0dfd6c33f63995363f018f214855443a2f3c80b3",
          "blockNumber": "0x12d37ca",
          "transactionHash": "0xb6ac56b886539b35e10c67bd417787c1e29775431e0b731e3cb6bd52e52e7aa8",
          "transactionIndex": "0x0",
          "logIndex": "0x2",
          "removed": false
        },
        {
          "address": "0x0000206329b97DB379d5E1Bf586BbDB969C63274",
          "topics": [
            "0x8c5be1e5ebec7d5bd14f71427d1e84f3dd0314c0f7b2291e5b200ac8c7c3b925",
            "0x000000000000000000000000a9ddd91249dfdd450e81e1c56ab60e1a62651701",
            "0x000000000000000000000000bbbbbbbbbb9cc5e90e3b3af64bdaf62c37eeffcb"
          ],
          "data": "0x0000000000000000000000000000000000000000000000000c59ea48da190000",
          "blockHash": "0xda1856cd1f7b2bff4cc5bc9f0dfd6c33f63995363f018f214855443a2f3c80b3",
          "blockNumber": "0x12d37ca",
          "transactionHash": "0xb6ac56b886539b35e10c67bd417787c1e29775431e0b731e3cb6bd52e52e7aa8",
          "transactionIndex": "0x0",
          "logIndex": "0x3",
          "removed": false
        },
        {
          "address": "0x0000206329b97DB379d5E1Bf586BbDB969C63274",
          "topics": [
            "0xddf252ad1be2c89b69c2b068fc378daa952ba7f163c4a11628f55a4df523b3ef",
            "0x000000000000000000000000a9ddd91249dfdd450e81e1c56ab60e1a62651701",
            "0x000000000000000000000000bbbbbbbbbb9cc5e90e3b3af64bdaf62c37eeffcb"
          ],
          "data": "0x0000000000000000000000000000000000000000000000000186cc6acd4b0000",
          "blockHash": "0xda1856cd1f7b2bff4cc5bc9f0dfd6c33f63995363f018f214855443a2f3c80b3",
          "blockNumber": "0x12d37ca",
          "transactionHash": "0xb6ac56b886539b35e10c67bd417787c1e29775431e0b731e3cb6bd52e52e7aa8",
          "transactionIndex": "0x0",
          "logIndex": "0x4",
          "removed": false
        }
      ],
      "status": "0x1",
      "logsBloom": "0x00000000000000000000000000000080000000000000000000000000000000000000400000000000000000000000000000000000000000000000000020a44000000000000010000000000008000004002020000000200000000000080000000000000000000000000000000000000000000000000000002000000010000000000000000000000008000000000000000000000000000000000000000000000000820000000000000000000000000000000000000000000000a00000080000000020000002000000000001080000000010000000004000000000000000000000000010000001000000000000200001000000000000000000000000000000004000",
      "type": "0x2",
      "effectiveGasPrice": "0x28b2aab01"
    },
    {
      "transactionHash": "0x58ffd8ba26a45a541078da88c46bb3898381211f47ab9fe7cf946da4fda717ea",
      "transactionIndex": "0x0",
      "blockHash": "0xc706bb2942e1851483fecfe62af8601066a4bcd49a269916a304051bc318bceb",
      "blockNumber": "0x12d37cb",
      "from": "0xA9DdD91249DFdd450E81E1c56Ab60E1A62651701",
      "to": "0xBBBBBbbBBb9cC5e90e3b3Af64bdAF62C37EEFFCb",
      "cumulativeGasUsed": "0x18fdb",
      "gasUsed": "0x18fdb",
      "contractAddress": null,
      "logs": [
        {
          "address": "0x870aC11D48B15DB9a138Cf899d20F13F79Ba00BC",
          "topics": [
            "0x7120161a7b3d31251e01294ab351ef15a41b91659a36032e4641bb89b121e321",
            "0x540266e1879fff261908dcd4f4c623ce99dcd4c9ae7004e9c97ed80bfcb9ea21"
          ],
          "data": "0x000000000000000000000000000000000000000000000000000000021212ee6800000000000000000000000000000000000000000000000000000000cccc7d23",
          "blockHash": "0xc706bb2942e1851483fecfe62af8601066a4bcd49a269916a304051bc318bceb",
          "blockNumber": "0x12d37cb",
          "transactionHash": "0x58ffd8ba26a45a541078da88c46bb3898381211f47ab9fe7cf946da4fda717ea",
          "transactionIndex": "0x0",
          "logIndex": "0x0",
          "removed": false
        },
        {
          "address": "0xBBBBBbbBBb9cC5e90e3b3Af64bdAF62C37EEFFCb",
          "topics": [
            "0x9d9bd501d0657d7dfe415f779a620a62b78bc508ddc0891fbbd8b7ac0f8fce87",
            "0x540266e1879fff261908dcd4f4c623ce99dcd4c9ae7004e9c97ed80bfcb9ea21"
          ],
          "data": "0x000000000000000000000000000000000000000000000000000000021212ee680000000000000000000000000000000000000000000000000013fe39f4c01e530000000000000000000000000000000000000000000000000000000000000000",
          "blockHash": "0xc706bb2942e1851483fecfe62af8601066a4bcd49a269916a304051bc318bceb",
          "blockNumber": "0x12d37cb",
          "transactionHash": "0x58ffd8ba26a45a541078da88c46bb3898381211f47ab9fe7cf946da4fda717ea",
          "transactionIndex": "0x0",
          "logIndex": "0x1",
          "removed": false
        },
        {
          "address": "0xBBBBBbbBBb9cC5e90e3b3Af64bdAF62C37EEFFCb",
          "topics": [
            "0x52acb05cebbd3cd39715469f22afbf5a17496295ef3bc9bb5944056c63ccaa09",
            "0x540266e1879fff261908dcd4f4c623ce99dcd4c9ae7004e9c97ed80bfcb9ea21",
            "0x000000000000000000000000a9ddd91249dfdd450e81e1c56ab60e1a62651701",
            "0x000000000000000000000000a9ddd91249dfdd450e81e1c56ab60e1a62651701"
          ],
          "data": "0x0000000000000000000000000000000000000000000000000186cc6acd4b0000000000000000000000000000000000000000000000001729bdf5d3bfdfb454cf",
          "blockHash": "0xc706bb2942e1851483fecfe62af8601066a4bcd49a269916a304051bc318bceb",
          "blockNumber": "0x12d37cb",
          "transactionHash": "0x58ffd8ba26a45a541078da88c46bb3898381211f47ab9fe7cf946da4fda717ea",
          "transactionIndex": "0x0",
          "logIndex": "0x2",
          "removed": false
        },
        {
          "address": "0x0000206329b97DB379d5E1Bf586BbDB969C63274",
          "topics": [
            "0x8c5be1e5ebec7d5bd14f71427d1e84f3dd0314c0f7b2291e5b200ac8c7c3b925",
            "0x000000000000000000000000a9ddd91249dfdd450e81e1c56ab60e1a62651701",
            "0x000000000000000000000000bbbbbbbbbb9cc5e90e3b3af64bdaf62c37eeffcb"
          ],
          "data": "0x0000000000000000000000000000000000000000000000000ad31dde0cce0000",
          "blockHash": "0xc706bb2942e1851483fecfe62af8601066a4bcd49a269916a304051bc318bceb",
          "blockNumber": "0x12d37cb",
          "transactionHash": "0x58ffd8ba26a45a541078da88c46bb3898381211f47ab9fe7cf946da4fda717ea",
          "transactionIndex": "0x0",
          "logIndex": "0x3",
          "removed": false
        },
        {
          "address": "0x0000206329b97DB379d5E1Bf586BbDB969C63274",
          "topics": [
            "0xddf252ad1be2c89b69c2b068fc378daa952ba7f163c4a11628f55a4df523b3ef",
            "0x000000000000000000000000a9ddd91249dfdd450e81e1c56ab60e1a62651701",
            "0x000000000000000000000000bbbbbbbbbb9cc5e90e3b3af64bdaf62c37eeffcb"
          ],
          "data": "0x0000000000000000000000000000000000000000000000000186cc6acd4b0000",
          "blockHash": "0xc706bb2942e1851483fecfe62af8601066a4bcd49a269916a304051bc318bceb",
          "blockNumber": "0x12d37cb",
          "transactionHash": "0x58ffd8ba26a45a541078da88c46bb3898381211f47ab9fe7cf946da4fda717ea",
          "transactionIndex": "0x0",
          "logIndex": "0x4",
          "removed": false
        }
      ],
      "status": "0x1",
      "logsBloom": "0x00000000000000000000000000000080000000000000000000000000000000000000400000000000000000000000000000000000000000000000000020a44000000000000010000000000008000004002000000000200000000000080000000000000000000000000000000000000000000000000002002000000010000000000000000000000008000000000000000000000000000000000000000000000000824000000002000000000000000000000000000000000000a00000080000000020000002000000000001000000000000000000004000000000000000000000000010000001000000000000200001000000000000000000000000000000004000",
      "type": "0x2",
      "effectiveGasPrice": "0x250868ad0"
    },
    {
      "transactionHash": "0x98054195af08703a02b9722c77187c824522d3755a65c937548bb6d5bb586eab",
      "transactionIndex": "0x0",
      "blockHash": "0xb18163813cba26af3b73b5f7b74240da2fbdc3e1e9c1894396972ee599e691cf",
      "blockNumber": "0x12d37cc",
      "from": "0xA9DdD91249DFdd450E81E1c56Ab60E1A62651701",
      "to": "0xBBBBBbbBBb9cC5e90e3b3Af64bdAF62C37EEFFCb",
      "cumulativeGasUsed": "0x18fdb",
      "gasUsed": "0x18fdb",
      "contractAddress": null,
      "logs": [
        {
          "address": "0x870aC11D48B15DB9a138Cf899d20F13F79Ba00BC",
          "topics": [
            "0x7120161a7b3d31251e01294ab351ef15a41b91659a36032e4641bb89b121e321",
            "0x7f2eec1f78d0412e61fa3be531e36052460583e7f9b5c1efc1407f10c48a775d"
          ],
          "data": "0x000000000000000000000000000000000000000000000000000000020ec011a800000000000000000000000000000000000000000000000000000000cb34c585",
          "blockHash": "0xb18163813cba26af3b73b5f7b74240da2fbdc3e1e9c1894396972ee599e691cf",
          "blockNumber": "0x12d37cc",
          "transactionHash": "0x98054195af08703a02b9722c77187c824522d3755a65c937548bb6d5bb586eab",
          "transactionIndex": "0x0",
          "logIndex": "0x0",
          "removed": false
        },
        {
          "address": "0xBBBBBbbBBb9cC5e90e3b3Af64bdAF62C37EEFFCb",
          "topics": [
            "0x9d9bd501d0657d7dfe415f779a620a62b78bc508ddc0891fbbd8b7ac0f8fce87",
            "0x7f2eec1f78d0412e61fa3be531e36052460583e7f9b5c1efc1407f10c48a775d"
          ],
          "data": "0x000000000000000000000000000000000000000000000000000000020ec011a80000000000000000000000000000000000000000000000000013c8b7038085dd0000000000000000000000000000000000000000000000000000000000000000",
          "blockHash": "0xb18163813cba26af3b73b5f7b74240da2fbdc3e1e9c1894396972ee599e691cf",
          "blockNumber": "0x12d37cc",
          "transactionHash": "0x98054195af08703a02b9722c77187c824522d3755a65c937548bb6d5bb586eab",
          "transactionIndex": "0x0",
          "logIndex": "0x1",
          "removed": false
        },
        {
          "address": "0xBBBBBbbBBb9cC5e90e3b3Af64bdAF62C37EEFFCb",
          "topics": [
            "0x52acb05cebbd3cd39715469f22afbf5a17496295ef3bc9bb5944056c63ccaa09",
            "0x7f2eec1f78d0412e61fa3be531e36052460583e7f9b5c1efc1407f10c48a775d",
            "0x000000000000000000000000a9ddd91249dfdd450e81e1c56ab60e1a62651701",
            "0x000000000000000000000000a9ddd91249dfdd450e81e1c56ab60e1a62651701"
          ],
          "data": "0x0000000000000000000000000000000000000000000000000186cc6acd4b000000000000000000000000000000000000000000000000172a16c7c134a95ffc54",
          "blockHash": "0xb18163813cba26af3b73b5f7b74240da2fbdc3e1e9c1894396972ee599e691cf",
          "blockNumber": "0x12d37cc",
          "transactionHash": "0x98054195af08703a02b9722c77187c824522d3755a65c937548bb6d5bb586eab",
          "transactionIndex": "0x0",
          "logIndex": "0x2",
          "removed": false
        },
        {
          "address": "0x0000206329b97DB379d5E1Bf586BbDB969C63274",
          "topics": [
            "0x8c5be1e5ebec7d5bd14f71427d1e84f3dd0314c0f7b2291e5b200ac8c7c3b925",
            "0x000000000000000000000000a9ddd91249dfdd450e81e1c56ab60e1a62651701",
            "0x000000000000000000000000bbbbbbbbbb9cc5e90e3b3af64bdaf62c37eeffcb"
          ],
          "data": "0x000000000000000000000000000000000000000000000000094c51733f830000",
          "blockHash": "0xb18163813cba26af3b73b5f7b74240da2fbdc3e1e9c1894396972ee599e691cf",
          "blockNumber": "0x12d37cc",
          "transactionHash": "0x98054195af08703a02b9722c77187c824522d3755a65c937548bb6d5bb586eab",
          "transactionIndex": "0x0",
          "logIndex": "0x3",
          "removed": false
        },
        {
          "address": "0x0000206329b97DB379d5E1Bf586BbDB969C63274",
          "topics": [
            "0xddf252ad1be2c89b69c2b068fc378daa952ba7f163c4a11628f55a4df523b3ef",
            "0x000000000000000000000000a9ddd91249dfdd450e81e1c56ab60e1a62651701",
            "0x000000000000000000000000bbbbbbbbbb9cc5e90e3b3af64bdaf62c37eeffcb"
          ],
          "data": "0x0000000000000000000000000000000000000000000000000186cc6acd4b0000",
          "blockHash": "0xb18163813cba26af3b73b5f7b74240da2fbdc3e1e9c1894396972ee599e691cf",
          "blockNumber": "0x12d37cc",
          "transactionHash": "0x98054195af08703a02b9722c77187c824522d3755a65c937548bb6d5bb586eab",
          "transactionIndex": "0x0",
          "logIndex": "0x4",
          "removed": false
        }
      ],
      "status": "0x1",
      "logsBloom": "0x00000000000000000000000000000080000000000000000000000000000000000000400000000000000000000000000000000000000000000000000020a44000000000000010000000000008000004002000000000200000000000080000000000000000000000000000000000000000000000000000002000000010000000000000000000000008000000000000000000000000010000000000000000000000820000000000000000000000000000000000000000000000a00000080000000020000002000000000001000000000000000000004000000000000000000000000010000001000000000000200001000000000000000000000040000000004000",
      "type": "0x2",
      "effectiveGasPrice": "0x21d2a1d49"
    },
    {
      "transactionHash": "0x10f2a9d7e7d75f8223d2c36f90f803d7cced2be8235dbcf95b3fd22a1f6b7740",
      "transactionIndex": "0x0",
      "blockHash": "0xc8aa4e8274415e1095ed32f32531fbb2855711829d2e8992c17669d1dd2264ed",
      "blockNumber": "0x12d37cd",
      "from": "0xA9DdD91249DFdd450E81E1c56Ab60E1A62651701",
      "to": "0xBBBBBbbBBb9cC5e90e3b3Af64bdAF62C37EEFFCb",
      "cumulativeGasUsed": "0x18fdb",
      "gasUsed": "0x18fdb",
      "contractAddress": null,
      "logs": [
        {
          "address": "0x870aC11D48B15DB9a138Cf899d20F13F79Ba00BC",
          "topics": [
            "0x7120161a7b3d31251e01294ab351ef15a41b91659a36032e4641bb89b121e321",
            "0xdfd730c597116b2ab4b5ec2a10fef3e6bc1e8c9ae495ca7d2a351704592d6bbe"
          ],
          "data": "0x00000000000000000000000000000000000000000000000000000002121c889800000000000000000000000000000000000000000000000000000000ccd26d05",
          "blockHash": "0xc8aa4e8274415e1095ed32f32531fbb2855711829d2e8992c17669d1dd2264ed",
          "blockNumber": "0x12d37cd",
          "transactionHash": "0x10f2a9d7e7d75f8223d2c36f90f803d7cced2be8235dbcf95b3fd22a1f6b7740",
          "transactionIndex": "0x0",
          "logIndex": "0x0",
          "removed": false
        },
        {
          "address": "0xBBBBBbbBBb9cC5e90e3b3Af64bdAF62C37EEFFCb",
          "topics": [
            "0x9d9bd501d0657d7dfe415f779a620a62b78bc508ddc0891fbbd8b7ac0f8fce87",
            "0xdfd730c597116b2ab4b5ec2a10fef3e6bc1e8c9ae495ca7d2a351704592d6bbe"
          ],
          "data": "0x00000000000000000000000000000000000000000000000000000002121c88980000000000000000000000000000000000000000000000000013ff3107ee6c280000000000000000000000000000000000000000000000000000000000000000",
          "blockHash": "0xc8aa4e8274415e1095ed32f32531fbb2855711829d2e8992c17669d1dd2264ed",
          "blockNumber": "0x12d37cd",
          "transactionHash": "0x10f2a9d7e7d75f8223d2c36f90f803d7cced2be8235dbcf95b3fd22a1f6b7740",
          "transactionIndex": "0x0",
          "logIndex": "0x1",
          "removed": false
        },
        {
          "address": "0xBBBBBbbBBb9cC5e90e3b3Af64bdAF62C37EEFFCb",
          "topics": [
            "0x52acb05cebbd3cd39715469f22afbf5a17496295ef3bc9bb5944056c63ccaa09",
            "0xdfd730c597116b2ab4b5ec2a10fef3e6bc1e8c9ae495ca7d2a351704592d6bbe",
            "0x000000000000000000000000a9ddd91249dfdd450e81e1c56ab60e1a62651701",
            "0x000000000000000000000000a9ddd91249dfdd450e81e1c56ab60e1a62651701"
          ],
          "data": "0x0000000000000000000000000000000000000000000000000186cc6acd4b0000000000000000000000000000000000000000000000001729bc5bbfbd57074d98",
          "blockHash": "0xc8aa4e8274415e1095ed32f32531fbb2855711829d2e8992c17669d1dd2264ed",
          "blockNumber": "0x12d37cd",
          "transactionHash": "0x10f2a9d7e7d75f8223d2c36f90f803d7cced2be8235dbcf95b3fd22a1f6b7740",
          "transactionIndex": "0x0",
          "logIndex": "0x2",
          "removed": false
        },
        {
          "address": "0x0000206329b97DB379d5E1Bf586BbDB969C63274",
          "topics": [
            "0x8c5be1e5ebec7d5bd14f71427d1e84f3dd0314c0f7b2291e5b200ac8c7c3b925",
            "0x000000000000000000000000a9ddd91249dfdd450e81e1c56ab60e1a62651701",
            "0x000000000000000000000000bbbbbbbbbb9cc5e90e3b3af64bdaf62c37eeffcb"
          ],
          "data": "0x00000000000000000000000000000000000000000000000007c5850872380000",
          "blockHash": "0xc8aa4e8274415e1095ed32f32531fbb2855711829d2e8992c17669d1dd2264ed",
          "blockNumber": "0x12d37cd",
          "transactionHash": "0x10f2a9d7e7d75f8223d2c36f90f803d7cced2be8235dbcf95b3fd22a1f6b7740",
          "transactionIndex": "0x0",
          "logIndex": "0x3",
          "removed": false
        },
        {
          "address": "0x0000206329b97DB379d5E1Bf586BbDB969C63274",
          "topics": [
            "0xddf252ad1be2c89b69c2b068fc378daa952ba7f163c4a11628f55a4df523b3ef",
            "0x000000000000000000000000a9ddd91249dfdd450e81e1c56ab60e1a62651701",
            "0x000000000000000000000000bbbbbbbbbb9cc5e90e3b3af64bdaf62c37eeffcb"
          ],
          "data": "0x0000000000000000000000000000000000000000000000000186cc6acd4b0000",
          "blockHash": "0xc8aa4e8274415e1095ed32f32531fbb2855711829d2e8992c17669d1dd2264ed",
          "blockNumber": "0x12d37cd",
          "transactionHash": "0x10f2a9d7e7d75f8223d2c36f90f803d7cced2be8235dbcf95b3fd22a1f6b7740",
          "transactionIndex": "0x0",
          "logIndex": "0x4",
          "removed": false
        }
      ],
      "status": "0x1",
      "logsBloom": "0x00000000000000000000000000000080000000000000000000000000000000000000400000000000000000000000000000000000000000000000000020a44800000000000010000000000008000004002000000000200000000000080000000000000000000000000000000000000000000000000000002000000010000000000000000000000008000000000000000000000000000000000000000000000000820000000000000000008000000000000000000000000000a00000080000000020080002000000000001000000000000000000004000000000000000000000000010000001000000000000200001000000000000000000000000000000004000",
      "type": "0x2",
      "effectiveGasPrice": "0x1f02e062b"
    }
  ],
  "libraries": [],
  "pending": [],
  "returns": {},
  "timestamp": 1714149600,
  "chain": 1,
  "multi": false,
  "commit": "48455d7"
}