{
  "transactions": [
    {
      "hash": "0x1e5cccee0d3902a1d089a371d4c5ec537791d06539cf40066d52043a21dc9835",
      "transactionType": "CALL",
      "contractName": null,
      "contractAddress": "0x0000206329b97DB379d5E1Bf586BbDB969C63274",
      "function": "approve(address,uint256)",
      "arguments": [
        "0xBBBBBbbBBb9cC5e90e3b3Af64bdAF62C37EEFFCb",
        "1000000000000000000"
      ],
      "transaction": {
        "type": "0x02",
        "from": "0xa9ddd91249dfdd450e81e1c56ab60e1a62651701",
        "to": "0x0000206329b97db379d5e1bf586bbdb969c63274",
        "gas": "0x13108",
        "value": "0x0",
        "data": "0x095ea7b3000000000000000000000000bbbbbbbbbb9cc5e90e3b3af64bdaf62c37eeffcb0000000000000000000000000000000000000000000000000de0b6b3a7640000",
        "nonce": "0xe2",
        "accessList": []
      },
      "additionalContracts": [],
      "isFixedGasLimit": false
    },
    {
      "hash": "0x8b7ca3da94cf3b9ff69e9e7816528458549a24bceac5f6e9cc5ccc31454dafef",
      "transactionType": "CALL",
      "contractName": null,
      "contractAddress": "0xBBBBBbbBBb9cC5e90e3b3Af64bdAF62C37EEFFCb",
      "function": null,
      "arguments": null,
      "transaction": {
        "type": "0x02",
        "from": "0xa9ddd91249dfdd450e81e1c56ab60e1a62651701",
        "to": "0xbbbbbbbbbb9cc5e90e3b3af64bdaf62c37eeffcb",
        "gas": "0x2285c",
        "value": "0x0",
        "data": "0x20b76e810000000000000000000000000000206329b97db379d5e1bf586bbdb969c6327400000000000000000000000095eef579155cd2c5510f312c8fa39208c3be01a80000000000000000000000001f083a4c51e6caa627a8cbe7452bf3d6eb815f57000000000000000000000000870ac11d48b15db9a138cf899d20f13f79ba00bc0000000000000000000000000000000000000000000000000cb2bba6f17b80000000000000000000000000000000000000000000000000000186cc6acd4b00000000000000000000000000000000000000000000000000000000000000000000000000000000000000000000a9ddd91249dfdd450e81e1c56ab60e1a6265170100000000000000000000000000000000000000000000000000000000000001200000000000000000000000000000000000000000000000000000000000000000",
        "nonce": "0xe3",
        "accessList": []
      },
      "additionalContracts": [],
      "isFixedGasLimit": false
    },
    {
      "hash": "0xd99cd086eb1f520cc3daf201396647234fa8b8c2c1d098176a60a2f2b605ff61",
      "transactionType": "CALL",
      "contractName": null,
      "contractAddress": "0xBBBBBbbBBb9cC5e90e3b3Af64bdAF62C37EEFFCb",
      "function": null,
      "arguments": null,
      "transaction": {
        "type": "0x02",
        "from": "0xa9ddd91249dfdd450e81e1c56ab60e1a62651701",
        "to": "0xbbbbbbbbbb9cc5e90e3b3af64bdaf62c37eeffcb",
        "gas": "0x248c9",
        "value": "0x0",
        "data": "0x20b76e810000000000000000000000000000206329b97db379d5e1bf586bbdb969c6327400000000000000000000000078fc2c2ed1a4cdb5402365934ae5648adad094d000000000000000000000000076052a2a28fdcb8124f4686c63c68355b142de3b000000000000000000000000870ac11d48b15db9a138cf899d20f13f79ba00bc0000000000000000000000000000000000000000000000000bef55718ad600000000000000000000000000000000000000000000000000000186cc6acd4b00000000000000000000000000000000000000000000000000000000000000000000000000000000000000000000a9ddd91249dfdd450e81e1c56ab60e1a6265170100000000000000000000000000000000000000000000000000000000000001200000000000000000000000000000000000000000000000000000000000000000",
        "nonce": "0xe4",
        "accessList": []
      },
      "additionalContracts": [],
      "isFixedGasLimit": false
    },
    {
      "hash": "0xe79dab7b7d77595cb67ffa2587a6b089da0f363e42975452c59c66afacdadc40",
      "transactionType": "CALL",
      "contractName": null,
      "contractAddress": "0xBBBBBbbBBb9cC5e90e3b3Af64bdAF62C37EEFFCb",
      "function": null,
      "arguments": null,
      "transaction": {
        "type": "0x02",
        "from": "0xa9ddd91249dfdd450e81e1c56ab60e1a62651701",
        "to": "0xbbbbbbbbbb9cc5e90e3b3af64bdaf62c37eeffcb",
        "gas": "0x248c9",
        "value": "0x0",
        "data": "0x20b76e810000000000000000000000000000206329b97db379d5e1bf586bbdb969c63274000000000000000000000000dd0f28e19c1780eb6396170735d45153d261490d0000000000000000000000003b8c4a340336941524de276ff730b3be71157b55000000000000000000000000870ac11d48b15db9a138cf899d20f13f79ba00bc0000000000000000000000000000000000000000000000000bef55718ad600000000000000000000000000000000000000000000000000000186cc6acd4b00000000000000000000000000000000000000000000000000000000000000000000000000000000000000000000a9ddd91249dfdd450e81e1c56ab60e1a6265170100000000000000000000000000000000000000000000000000000000000001200000000000000000000000000000000000000000000000000000000000000000",
        "nonce": "0xe5",
        "accessList": []
      },
      "additionalContracts": [],
      "isFixedGasLimit": false
    },
    {
      "hash": "0xacc287309c854f4a55e890ba8d3964a15797f32ffa8a4a77ea1c5f97472faa20",
      "transactionType": "CALL",
      "contractName": null,
      "contractAddress": "0xBBBBBbbBBb9cC5e90e3b3Af64bdAF62C37EEFFCb",
      "function": null,
      "arguments": null,
      "transaction": {
        "type": "0x02",
        "from": "0xa9ddd91249dfdd450e81e1c56ab60e1a62651701",
        "to": "0xbbbbbbbbbb9cc5e90e3b3af64bdaf62c37eeffcb",
        "gas": "0x248c9",
        "value": "0x0",
        "data": "0x20b76e810000000000000000000000000000206329b97db379d5e1bf586bbdb969c632740000000000000000000000002371e134e3455e0593363cbf89d3b6cf53740618000000000000000000000000e4ccaa1849e9058f77f555c0fcca4925efd37d8e000000000000000000000000870ac11d48b15db9a138cf899d20f13f79ba00bc0000000000000000000000000000000000000000000000000aaf96eb9d0d00000000000000000000000000000000000000000000000000000186cc6acd4b00000000000000000000000000000000000000000000000000000000000000000000000000000000000000000000a9ddd91249dfdd450e81e1c56ab60e1a6265170100000000000000000000000000000000000000000000000000000000000001200000000000000000000000000000000000000000000000000000000000000000",
        "nonce": "0xe6",
        "accessList": []
      },
      "additionalContracts": [],
      "isFixedGasLimit": false
    }
  ],
  "receipts": [
    {
      "transactionHash": "0x1e5cccee0d3902a1d089a371d4c5ec537791d06539cf40066d52043a21dc9835",
      "transactionIndex": "0x6",
      "blockHash": "0x2f9ec64df51a15a60545d42d21c20474c58cd8a0a517d7bfadbe5a29591a0231",
      "blockNumber": "0x12d3876",
      "from": "0xA9DdD91249DFdd450E81E1c56Ab60E1A62651701",
      "to": "0x0000206329b97DB379d5E1Bf586BbDB969C63274",
      "cumulativeGasUsed": "0x3b6f1",
      "gasUsed": "0xd092",
      "contractAddress": null,
      "logs": [
        {
          "address": "0x0000206329b97DB379d5E1Bf586BbDB969C63274",
          "topics": [
            "0x8c5be1e5ebec7d5bd14f71427d1e84f3dd0314c0f7b2291e5b200ac8c7c3b925",
            "0x000000000000000000000000a9ddd91249dfdd450e81e1c56ab60e1a62651701",
            "0x000000000000000000000000bbbbbbbbbb9cc5e90e3b3af64bdaf62c37eeffcb"
          ],
          "data": "0x0000000000000000000000000000000000000000000000000de0b6b3a7640000",
          "blockHash": "0x2f9ec64df51a15a60545d42d21c20474c58cd8a0a517d7bfadbe5a29591a0231",
          "blockNumber": "0x12d3876",
          "transactionHash": "0x1e5cccee0d3902a1d089a371d4c5ec537791d06539cf40066d52043a21dc9835",
          "transactionIndex": "0x6",
          "logIndex": "0x3",
          "removed": false
        }
      ],
      "status": "0x1",
      "logsBloom": "0x00000000000000000000000000000080000000000000000000000000000000000000000000000000000000000000000000000000000000000000000000200000000000000000000000000000000004000000000000000000000000000000000000000000000000000000000000000000000000000000000000000000000000000000000000000000000000000000000000000000000000000000000000000000820000000000000000000000000000000000000000000000800000080000000000000000000000000000000000000000000000004000000000000000000000000010000001000000000000200000000000000000000000000000000000004000",
      "type": "0x2",
      "effectiveGasPrice": "0x1f6053cb9"
    },
    {
      "transactionHash": "0x8b7ca3da94cf3b9ff69e9e7816528458549a24bceac5f6e9cc5ccc31454dafef",
      "transactionIndex": "0x24",
      "blockHash": "0x9ae3a5f8d10c1de9918da50fea9d230a8cb572b5930208128be085da017efa91",
      "blockNumber": "0x12d3877",
      "from": "0xA9DdD91249DFdd450E81E1c56Ab60E1A62651701",
      "to": "0xBBBBBbbBBb9cC5e90e3b3Af64bdAF62C37EEFFCb",
      "cumulativeGasUsed": "0x5cc133",
      "gasUsed": "0x18fe7",
      "contractAddress": null,
      "logs": [
        {
          "address": "0x870aC11D48B15DB9a138Cf899d20F13F79Ba00BC",
          "topics": [
            "0x7120161a7b3d31251e01294ab351ef15a41b91659a36032e4641bb89b121e321",
            "0x5d09770b08517329e25b7dff8f32ad7098c8b6fd075660cdabec3e717ca8068f"
          ],
          "data": "0x0000000000000000000000000000000000000000000000000000000211bdba0400000000000000000000000000000000000000000000000000000000cc98685d",
          "blockHash": "0x9ae3a5f8d10c1de9918da50fea9d230a8cb572b5930208128be085da017efa91",
          "blockNumber": "0x12d3877",
          "transactionHash": "0x8b7ca3da94cf3b9ff69e9e7816528458549a24bceac5f6e9cc5ccc31454dafef",
          "transactionIndex": "0x24",
          "logIndex": "0xe7",
          "removed": false
        },
        {
          "address": "0xBBBBBbbBBb9cC5e90e3b3Af64bdAF62C37EEFFCb",
          "topics": [
            "0x9d9bd501d0657d7dfe415f779a620a62b78bc508ddc0891fbbd8b7ac0f8fce87",
            "0x5d09770b08517329e25b7dff8f32ad7098c8b6fd075660cdabec3e717ca8068f"
          ],
          "data": "0x0000000000000000000000000000000000000000000000000000000211bdba040000000000000000000000000000000000000000000000000013f5d3622813f20000000000000000000000000000000000000000000000000000000000000000",
          "blockHash": "0x9ae3a5f8d10c1de9918da50fea9d230a8cb572b5930208128be085da017efa91",
          "blockNumber": "0x12d3877",
          "transactionHash": "0x8b7ca3da94cf3b9ff69e9e7816528458549a24bceac5f6e9cc5ccc31454dafef",
          "transactionIndex": "0x24",
          "logIndex": "0xe8",
          "removed": false
        },
        {
          "address": "0xBBBBBbbBBb9cC5e90e3b3Af64bdAF62C37EEFFCb",
          "topics": [
            "0x52acb05cebbd3cd39715469f22afbf5a17496295ef3bc9bb5944056c63ccaa09",
            "0x5d09770b08517329e25b7dff8f32ad7098c8b6fd075660cdabec3e717ca8068f",
            "0x000000000000000000000000a9ddd91249dfdd450e81e1c56ab60e1a62651701",
            "0x000000000000000000000000a9ddd91249dfdd450e81e1c56ab60e1a62651701"
          ],
          "data": "0x0000000000000000000000000000000000000000000000000186cc6acd4b0000000000000000000000000000000000000000000000001729cbe73cea18bd4a5d",
          "blockHash": "0x9ae3a5f8d10c1de9918da50fea9d230a8cb572b5930208128be085da017efa91",
          "blockNumber": "0x12d3877",
          "transactionHash": "0x8b7ca3da94cf3b9ff69e9e7816528458549a24bceac5f6e9cc5ccc31454dafef",
          "transactionIndex": "0x24",
          "logIndex": "0xe9",
          "removed": false
        },
        {
          "address": "0x0000206329b97DB379d5E1Bf586BbDB969C63274",
          "topics": [
            "0x8c5be1e5ebec7d5bd14f71427d1e84f3dd0314c0f7b2291e5b200ac8c7c3b925",
            "0x000000000000000000000000a9ddd91249dfdd450e81e1c56ab60e1a62651701",
            "0x000000000000000000000000bbbbbbbbbb9cc5e90e3b3af64bdaf62c37eeffcb"
          ],
          "data": "0x0000000000000000000000000000000000000000000000000c59ea48da190000",
          "blockHash": "0x9ae3a5f8d10c1de9918da50fea9d230a8cb572b5930208128be085da017efa91",
          "blockNumber": "0x12d3877",
          "transactionHash": "0x8b7ca3da94cf3b9ff69e9e7816528458549a24bceac5f6e9cc5ccc31454dafef",
          "transactionIndex": "0x24",
          "logIndex": "0xea",
          "removed": false
        },
        {
          "address": "0x0000206329b97DB379d5E1Bf586BbDB969C63274",
          "topics": [
            "0xddf252ad1be2c89b69c2b068fc378daa952ba7f163c4a11628f55a4df523b3ef",
            "0x000000000000000000000000a9ddd91249dfdd450e81e1c56ab60e1a62651701",
            "0x000000000000000000000000bbbbbbbbbb9cc5e90e3b3af64bdaf62c37eeffcb"
          ],
          "data": "0x0000000000000000000000000000000000000000000000000186cc6acd4b0000",
          "blockHash": "0x9ae3a5f8d10c1de9918da50fea9d230a8cb572b5930208128be085da017efa91",
          "blockNumber": "0x12d3877",
          "transactionHash": "0x8b7ca3da94cf3b9ff69e9e7816528458549a24bceac5f6e9cc5ccc31454dafef",
          "transactionIndex": "0x24",
          "logIndex": "0xeb",
          "removed": false
        }
      ],
      "status": "0x1",
      "logsBloom": "0x00000000000000000000000000000080000000000000000000000000000000000000400000000000000000000000000000000000000000000000000020a44000000000000010000000000008000004002020000000200000000000080000000000000000000000000000000000000000000000000000002000000010000000000000000000000008000000000000000000000000000000000000000000000000820000000000000000000000000000000000000000000000a00000080000000020000002000000000001080000000010000000004000000000000000000000000010000001000000000000200001000000000000000000000000000000004000",
      "type": "0x2",
      "effectiveGasPrice": "0x21e643d15"
    },
    {
      "transactionHash": "0xd99cd086eb1f520cc3daf201396647234fa8b8c2c1d098176a60a2f2b605ff61",
      "transactionIndex": "0xc",
      "blockHash": "0x5807f713f0e5d59766b7a37119a6e4a38aceace8e554e326a41c26917250c9b1",
      "blockNumber": "0x12d3878",
      "from": "0xA9DdD91249DFdd450E81E1c56Ab60E1A62651701",
      "to": "0xBBBBBbbBBb9cC5e90e3b3Af64bdAF62C37EEFFCb",
      "cumulativeGasUsed": "0xd1662",
      "gasUsed": "0x18fdb",
      "contractAddress": null,
      "logs": [
        {
          "address": "0x870aC11D48B15DB9a138Cf899d20F13F79Ba00BC",
          "topics": [
            "0x7120161a7b3d31251e01294ab351ef15a41b91659a36032e4641bb89b121e321",
            "0x540266e1879fff261908dcd4f4c623ce99dcd4c9ae7004e9c97ed80bfcb9ea21"
          ],
          "data": "0x000000000000000000000000000000000000000000000000000000021231f26c00000000000000000000000000000000000000000000000000000000ccdfaa71",
          "blockHash": "0x5807f713f0e5d59766b7a37119a6e4a38aceace8e554e326a41c26917250c9b1",
          "blockNumber": "0x12d3878",
          "transactionHash": "0xd99cd086eb1f520cc3daf201396647234fa8b8c2c1d098176a60a2f2b605ff61",
          "transactionIndex": "0xc",
          "logIndex": "0x12",
          "removed": false
        },
        {
          "address": "0xBBBBBbbBBb9cC5e90e3b3Af64bdAF62C37EEFFCb",
          "topics": [
            "0x9d9bd501d0657d7dfe415f779a620a62b78bc508ddc0891fbbd8b7ac0f8fce87",
            "0x540266e1879fff261908dcd4f4c623ce99dcd4c9ae7004e9c97ed80bfcb9ea21"
          ],
          "data": "0x000000000000000000000000000000000000000000000000000000021231f26c000000000000000000000000000000000000000000000000001401580c6cc7100000000000000000000000000000000000000000000000000000000000000000",
          "blockHash": "0x5807f713f0e5d59766b7a37119a6e4a38aceace8e554e326a41c26917250c9b1",
          "blockNumber": "0x12d3878",
          "transactionHash": "0xd99cd086eb1f520cc3daf201396647234fa8b8c2c1d098176a60a2f2b605ff61",
          "transactionIndex": "0xc",
          "logIndex": "0x13",
          "removed": false
        },
        {
          "address": "0xBBBBBbbBBb9cC5e90e3b3Af64bdAF62C37EEFFCb",
          "topics": [
            "0x52acb05cebbd3cd39715469f22afbf5a17496295ef3bc9bb5944056c63ccaa09",
            "0x540266e1879fff261908dcd4f4c623ce99dcd4c9ae7004e9c97ed80bfcb9ea21",
            "0x000000000000000000000000a9ddd91249dfdd450e81e1c56ab60e1a62651701",
            "0x000000000000000000000000a9ddd91249dfdd450e81e1c56ab60e1a62651701"
          ],
          "data": "0x0000000000000000000000000000000000000000000000000186cc6acd4b0000000000000000000000000000000000000000000000001729b8c935eb9d5fcf23",
          "blockHash": "0x5807f713f0e5d59766b7a37119a6e4a38aceace8e554e326a41c26917250c9b1",
          "blockNumber": "0x12d3878",
          "transactionHash": "0xd99cd086eb1f520cc3daf201396647234fa8b8c2c1d098176a60a2f2b605ff61",
          "transactionIndex": "0xc",
          "logIndex": "0x14",
          "removed": false
        },
        {
          "address": "0x0000206329b97DB379d5E1Bf586BbDB969C63274",
          "topics": [
            "0x8c5be1e5ebec7d5bd14f71427d1e84f3dd0314c0f7b2291e5b200ac8c7c3b925",
            "0x000000000000000000000000a9ddd91249dfdd450e81e1c56ab60e1a62651701",
            "0x000000000000000000000000bbbbbbbbbb9cc5e90e3b3af64bdaf62c37eeffcb"
          ],
          "data": "0x0000000000000000000000000000000000000000000000000ad31dde0cce0000",
          "blockHash": "0x5807f713f0e5d59766b7a37119a6e4a38aceace8e554e326a41c26917250c9b1",
          "blockNumber": "0x12d3878",
          "transactionHash": "0xd99cd086eb1f520cc3daf201396647234fa8b8c2c1d098176a60a2f2b605ff61",
          "transactionIndex": "0xc",
          "logIndex": "0x15",
          "removed": false
        },
        {
          "address": "0x0000206329b97DB379d5E1Bf586BbDB969C63274",
          "topics": [
            "0xddf252ad1be2c89b69c2b068fc378daa952ba7f163c4a11628f55a4df523b3ef",
            "0x000000000000000000000000a9ddd91249dfdd450e81e1c56ab60e1a62651701",
            "0x000000000000000000000000bbbbbbbbbb9cc5e90e3b3af64bdaf62c37eeffcb"
          ],
          "data": "0x0000000000000000000000000000000000000000000000000186cc6acd4b0000",
          "blockHash": "0x5807f713f0e5d59766b7a37119a6e4a38aceace8e554e326a41c26917250c9b1",
          "blockNumber": "0x12d3878",
          "transactionHash": "0xd99cd086eb1f520cc3daf201396647234fa8b8c2c1d098176a60a2f2b605ff61",
          "transactionIndex": "0xc",
          "logIndex": "0x16",
          "removed": false
        }
      ],
      "status": "0x1",
      "logsBloom": "0x00000000000000000000000000000080000000000000000000000000000000000000400000000000000000000000000000000000000000000000000020a44000000000000010000000000008000004002000000000200000000000080000000000000000000000000000000000000000000000000002002000000010000000000000000000000008000000000000000000000000000000000000000000000000824000000002000000000000000000000000000000000000a00000080000000020000002000000000001000000000000000000004000000000000000000000000010000001000000000000200001000000000000000000000000000000004000",
      "type": "0x2",
      "effectiveGasPrice": "0x24a21e451"
    },
    {
      "transactionHash": "0xe79dab7b7d77595cb67ffa2587a6b089da0f363e42975452c59c66afacdadc40",
      "transactionIndex": "0x7",
      "blockHash": "0x7ad88c6f0039d38d66ab4fd404f6f67b0fd1f3f7100335cad4523cf63e5d4685",
      "blockNumber": "0x12d3879",
      "from": "0xA9DdD91249DFdd450E81E1c56Ab60E1A62651701",
      "to": "0xBBBBBbbBBb9cC5e90e3b3Af64bdAF62C37EEFFCb",
      "cumulativeGasUsed": "0x72846",
      "gasUsed": "0x18fdb",
      "contractAddress": null,
      "logs": [
        {
          "address": "0x870aC11D48B15DB9a138Cf899d20F13F79Ba00BC",
          "topics": [
            "0x7120161a7b3d31251e01294ab351ef15a41b91659a36032e4641bb89b121e321",
            "0x7f2eec1f78d0412e61fa3be531e36052460583e7f9b5c1efc1407f10c48a775d"
          ],
          "data": "0x000000000000000000000000000000000000000000000000000000020ee04b6400000000000000000000000000000000000000000000000000000000cb48b121",
          "blockHash": "0x7ad88c6f0039d38d66ab4fd404f6f67b0fd1f3f7100335cad4523cf63e5d4685",
          "blockNumber": "0x12d3879",
          "transactionHash": "0xe79dab7b7d77595cb67ffa2587a6b089da0f363e42975452c59c66afacdadc40",
          "transactionIndex": "0x7",
          "logIndex": "0x8",
          "removed": false
        },
        {
          "address": "0xBBBBBbbBBb9cC5e90e3b3Af64bdAF62C37EEFFCb",
          "topics": [
            "0x9d9bd501d0657d7dfe415f779a620a62b78bc508ddc0891fbbd8b7ac0f8fce87",
            "0x7f2eec1f78d0412e61fa3be531e36052460583e7f9b5c1efc1407f10c48a775d"
          ],
          "data": "0x000000000000000000000000000000000000000000000000000000020ee04b640000000000000000000000000000000000000000000000000013cbf31e3be1c20000000000000000000000000000000000000000000000000000000000000000",
          "blockHash": "0x7ad88c6f0039d38d66ab4fd404f6f67b0fd1f3f7100335cad4523cf63e5d4685",
          "blockNumber": "0x12d3879",
          "transactionHash": "0xe79dab7b7d77595cb67ffa2587a6b089da0f363e42975452c59c66afacdadc40",
          "transactionIndex": "0x7",
          "logIndex": "0x9",
          "removed": false
        },
        {
          "address": "0xBBBBBbbBBb9cC5e90e3b3Af64bdAF62C37EEFFCb",
          "topics": [
            "0x52acb05cebbd3cd39715469f22afbf5a17496295ef3bc9bb5944056c63ccaa09",
            "0x7f2eec1f78d0412e61fa3be531e36052460583e7f9b5c1efc1407f10c48a775d",
            "0x000000000000000000000000a9ddd91249dfdd450e81e1c56ab60e1a62651701",
            "0x000000000000000000000000a9ddd91249dfdd450e81e1c56ab60e1a62651701"
          ],
          "data": "0x0000000000000000000000000000000000000000000000000186cc6acd4b000000000000000000000000000000000000000000000000172a11692a75b4cb9fe1",
          "blockHash": "0x7ad88c6f0039d38d66ab4fd404f6f67b0fd1f3f7100335cad4523cf63e5d4685",
          "blockNumber": "0x12d3879",
          "transactionHash": "0xe79dab7b7d77595cb67ffa2587a6b089da0f363e42975452c59c66afacdadc40",
          "transactionIndex": "0x7",
          "logIndex": "0xa",
          "removed": false
        },
        {
          "address": "0x0000206329b97DB379d5E1Bf586BbDB969C63274",
          "topics": [
            "0x8c5be1e5ebec7d5bd14f71427d1e84f3dd0314c0f7b2291e5b200ac8c7c3b925",
            "0x000000000000000000000000a9ddd91249dfdd450e81e1c56ab60e1a62651701",
            "0x000000000000000000000000bbbbbbbbbb9cc5e90e3b3af64bdaf62c37eeffcb"
          ],
          "data": "0x000000000000000000000000000000000000000000000000094c51733f830000",
          "blockHash": "0x7ad88c6f0039d38d66ab4fd404f6f67b0fd1f3f7100335cad4523cf63e5d4685",
          "blockNumber": "0x12d3879",
          "transactionHash": "0xe79dab7b7d77595cb67ffa2587a6b089da0f363e42975452c59c66afacdadc40",
          "transactionIndex": "0x7",
          "logIndex": "0xb",
          "removed": false
        },
        {
          "address": "0x0000206329b97DB379d5E1Bf586BbDB969C63274",
          "topics": [
            "0xddf252ad1be2c89b69c2b068fc378daa952ba7f163c4a11628f55a4df523b3ef",
            "0x000000000000000000000000a9ddd91249dfdd450e81e1c56ab60e1a62651701",
            "0x000000000000000000000000bbbbbbbbbb9cc5e90e3b3af64bdaf62c37eeffcb"
          ],
          "data": "0x0000000000000000000000000000000000000000000000000186cc6acd4b0000",
          "blockHash": "0x7ad88c6f0039d38d66ab4fd404f6f67b0fd1f3f7100335cad4523cf63e5d4685",
          "blockNumber": "0x12d3879",
          "transactionHash": "0xe79dab7b7d77595cb67ffa2587a6b089da0f363e42975452c59c66afacdadc40",
          "transactionIndex": "0x7",
          "logIndex": "0xc",
          "removed": false
        }
      ],
      "status": "0x1",
      "logsBloom": "0x00000000000000000000000000000080000000000000000000000000000000000000400000000000000000000000000000000000000000000000000020a44000000000000010000000000008000004002000000000200000000000080000000000000000000000000000000000000000000000000000002000000010000000000000000000000008000000000000000000000000010000000000000000000000820000000000000000000000000000000000000000000000a00000080000000020000002000000000001000000000000000000004000000000000000000000000010000001000000000000200001000000000000000000000040000000004000",
      "type": "0x2",
      "effectiveGasPrice": "0x2448afb5f"
    },
    {
      "transactionHash": "0xacc287309c854f4a55e890ba8d3964a15797f32ffa8a4a77ea1c5f97472faa20",
      "transactionIndex": "0x28",
      "blockHash": "0xa9282f522fcff0a2aba9c3632f282eb863c2ee5f3bdc830cf1645af6c0140b22",
      "blockNumber": "0x12d387a",
      "from": "0xA9DdD91249DFdd450E81E1c56Ab60E1A62651701",
      "to": "0xBBBBBbbBBb9cC5e90e3b3Af64bdAF62C37EEFFCb",
      "cumulativeGasUsed": "0x3fb448",
      "gasUsed": "0x18fdb",
      "contractAddress": null,
      "logs": [
        {
          "address": "0x870aC11D48B15DB9a138Cf899d20F13F79Ba00BC",
          "topics": [
            "0x7120161a7b3d31251e01294ab351ef15a41b91659a36032e4641bb89b121e321",
            "0xdfd730c597116b2ab4b5ec2a10fef3e6bc1e8c9ae495ca7d2a351704592d6bbe"
          ],
          "data": "0x00000000000000000000000000000000000000000000000000000002123e685000000000000000000000000000000000000000000000000000000000cce75ec7",
          "blockHash": "0xa9282f522fcff0a2aba9c3632f282eb863c2ee5f3bdc830cf1645af6c0140b22",
          "blockNumber": "0x12d387a",
          "transactionHash": "0xacc287309c854f4a55e890ba8d3964a15797f32ffa8a4a77ea1c5f97472faa20",
          "transactionIndex": "0x28",
          "logIndex": "0x94",
          "removed": false
        },
        {
          "address": "0xBBBBBbbBBb9cC5e90e3b3Af64bdAF62C37EEFFCb",
          "topics": [
            "0x9d9bd501d0657d7dfe415f779a620a62b78bc508ddc0891fbbd8b7ac0f8fce87",
            "0xdfd730c597116b2ab4b5ec2a10fef3e6bc1e8c9ae495ca7d2a351704592d6bbe"
          ],
          "data": "0x00000000000000000000000000000000000000000000000000000002123e685000000000000000000000000000000000000000000000000000140298b5666c9b0000000000000000000000000000000000000000000000000000000000000000",
          "blockHash": "0xa9282f522fcff0a2aba9c3632f282eb863c2ee5f3bdc830cf1645af6c0140b22",
          "blockNumber": "0x12d387a",
          "transactionHash": "0xacc287309c854f4a55e890ba8d3964a15797f32ffa8a4a77ea1c5f97472faa20",
          "transactionIndex": "0x28",
          "logIndex": "0x95",
          "removed": false
        },
        {
          "address": "0xBBBBBbbBBb9cC5e90e3b3Af64bdAF62C37EEFFCb",
          "topics": [
            "0x52acb05cebbd3cd39715469f22afbf5a17496295ef3bc9bb5944056c63ccaa09",
            "0xdfd730c597116b2ab4b5ec2a10fef3e6bc1e8c9ae495ca7d2a351704592d6bbe",
            "0x000000000000000000000000a9ddd91249dfdd450e81e1c56ab60e1a62651701",
            "0x000000000000000000000000a9ddd91249dfdd450e81e1c56ab60e1a62651701"
          ],
          "data": "0x0000000000000000000000000000000000000000000000000186cc6acd4b0000000000000000000000000000000000000000000000001729b6b501311944856e",
          "blockHash": "0xa9282f522fcff0a2aba9c3632f282eb863c2ee5f3bdc830cf1645af6c0140b22",
          "blockNumber": "0x12d387a",
          "transactionHash": "0xacc287309c854f4a55e890ba8d3964a15797f32ffa8a4a77ea1c5f97472faa20",
          "transactionIndex": "0x28",
          "logIndex": "0x96",
          "removed": false
        },
        {
          "address": "0x0000206329b97DB379d5E1Bf586BbDB969C63274",
          "topics": [
            "0x8c5be1e5ebec7d5bd14f71427d1e84f3dd0314c0f7b2291e5b200ac8c7c3b925",
            "0x000000000000000000000000a9ddd91249dfdd450e81e1c56ab60e1a62651701",
            "0x000000000000000000000000bbbbbbbbbb9cc5e90e3b3af64bdaf62c37eeffcb"
          ],
          "data": "0x00000000000000000000000000000000000000000000000007c5850872380000",
          "blockHash": "0xa9282f522fcff0a2aba9c3632f282eb863c2ee5f3bdc830cf1645af6c0140b22",
          "blockNumber": "0x12d387a",
          "transactionHash": "0xacc287309c854f4a55e890ba8d3964a15797f32ffa8a4a77ea1c5f97472faa20",
          "transactionIndex": "0x28",
          "logIndex": "0x97",
          "removed": false
        },
        {
          "address": "0x0000206329b97DB379d5E1Bf586BbDB969C63274",
          "topics": [
            "0xddf252ad1be2c89b69c2b068fc378daa952ba7f163c4a11628f55a4df523b3ef",
            "0x000000000000000000000000a9ddd91249dfdd450e81e1c56ab60e1a62651701",
            "0x000000000000000000000000bbbbbbbbbb9cc5e90e3b3af64bdaf62c37eeffcb"
          ],
          "data": "0x0000000000000000000000000000000000000000000000000186cc6acd4b0000",
          "blockHash": "0xa9282f522fcff0a2aba9c3632f282eb863c2ee5f3bdc830cf1645af6c0140b22",
          "blockNumber": "0x12d387a",
          "transactionHash": "0xacc287309c854f4a55e890ba8d3964a15797f32ffa8a4a77ea1c5f97472faa20",
          "transactionIndex": "0x28",
          "logIndex": "0x98",
          "removed": false
        }
      ],
      "status": "0x1",
      "logsBloom": "0x00000000000000000000000000000080000000000000000000000000000000000000400000000000000000000000000000000000000000000000000020a44800000000000010000000000008000004002000000000200000000000080000000000000000000000000000000000000000000000000000002000000010000000000000000000000008000000000000000000000000000000000000000000000000820000000000000000008000000000000000000000000000a00000080000000020080002000000000001000000000000000000004000000000000000000000000010000001000000000000200001000000000000000000000000000000004000",
      "type": "0x2",
      "effectiveGasPrice": "0x21a753677"
    }
  ],
  "libraries": [],
  "pending": [],
  "returns": {},
  "timestamp": 1714149859,
  "chain": 1,
  "multi": false,
  "commit": "48455d7"
}