{
  "transactions": [
    {
      "hash": "0x5cca4e0b57e4cedc568ea04ada90ad483c2fcdd0457d08756b51e55a9d20a1f8",
      "transactionType": "CALL",
      "contractName": null,
      "contractAddress": "0xc9dfd5c18f12a3ba6293001700810602efe0c45b",
      "function": "setMaxImpliedRate(uint256)",
      "arguments": [
        "1000000000000000000000"
      ],
      "transaction": {
        "from": "0x0c2553e4b9dfa9f83b1a6d3eab96c4baab42d430",
        "to": "0xc9dfd5c18f12a3ba6293001700810602efe0c45b",
        "gas": "0xe58b",
        "value": "0x0",
        "input": "0x3406b6d100000000000000000000000000000000000000000000003635c9adc5dea00000",
        "nonce": "0x1",
        "chainId": "0x1"
      },
      "additionalContracts": [],
      "isFixedGasLimit": false
    }
  ],
  "receipts": [
    {
      "status": "0x1",
      "cumulativeGasUsed": "0xa630",
      "logs": [
        {
          "address": "0xc9dfd5c18f12a3ba6293001700810602efe0c45b",
          "topics": [
            "0x1693f12ff158ba72b61d65dce0487c8c9166916e22e284990a7e42b5f38b080a"
          ],
          "data": "0x00000000000000000000000000000000000000000000003635c9adc5dea00000",
          "blockHash": "0x0335e45dc28df8a6a1ad682618a9d3c57425a580df0611dd10be3d68ffe4655a",
          "blockNumber": "0x1333002",
          "blockTimestamp": "0x6673edf0",
          "transactionHash": "0x5cca4e0b57e4cedc568ea04ada90ad483c2fcdd0457d08756b51e55a9d20a1f8",
          "transactionIndex": "0x0",
          "logIndex": "0x0",
          "removed": false
        }
      ],
      "logsBloom": "0x00000000000000080000000000000000000000000000000000000000000000000400000000000000000000000000000000000000000000000000000000000000000000000000000000000000000000000000000000000000000000000000000000000000000000000000000000000001000000000000000000000000000000000000000000000000000000000000000000000000000000000000000000000000000000000002000000000000008000400000000000000000000000000000000000000000000000000000000000000000000000000000000000000000000000000000000000000000000000000000000000000000000000000000000000000000",
      "type": "0x2",
      "transactionHash": "0x5cca4e0b57e4cedc568ea04ada90ad483c2fcdd0457d08756b51e55a9d20a1f8",
      "transactionIndex": "0x0",
      "blockHash": "0x0335e45dc28df8a6a1ad682618a9d3c57425a580df0611dd10be3d68ffe4655a",
      "blockNumber": "0x1333002",
      "gasUsed": "0xa630",
      "effectiveGasPrice": "0x3426eb458",
      "blobGasPrice": "0x9",
      "from": "0x0c2553e4b9dfa9f83b1a6d3eab96c4baab42d430",
      "to": "0xc9dfd5c18f12a3ba6293001700810602efe0c45b",
      "contractAddress": null,
      "root": "0x0000000000000000000000000000000000000000000000000000000000000000"
    }
  ],
  "libraries": [],
  "pending": [],
  "returns": {},
  "timestamp": 1718873598,
  "chain": 1,
  "commit": "371fb94"
}