{
  "transactions": [
    {
      "hash": null,
      "transactionType": "CALL",
      "contractName": null,
      "contractAddress": "0xc9dfd5c18f12a3ba6293001700810602efe0c45b",
      "function": "setMaxImpliedRate(uint256)",
      "arguments": [
        "1000000000000000000000"
      ],
      "transaction": {
        "from": "0x0c2553e4b9dfa9f83b1a6d3eab96c4baab42d430",
        "to": "0xc9dfd5c18f12a3ba6293001700810602efe0c45b",
        "gas": "0xe58b",
        "value": "0x0",
        "input": "0x3406b6d100000000000000000000000000000000000000000000003635c9adc5dea00000",
        "nonce": "0x1",
        "chainId": "0x1"
      },
      "additionalContracts": [],
      "isFixedGasLimit": false
    }
  ],
  "receipts": [],
  "libraries": [],
  "pending": [],
  "returns": {},
  "timestamp": 1718279406,
  "chain": 1,
  "commit": "c0232d4"
}