{
  "transactions": [
    {
      "hash": "0x4fed3cbfe1b35f9c1199c47365eec5fd9f6d184054215a92c4cd9bb94743506d",
      "transactionType": "CALL",
      "contractName": null,
      "contractAddress": "0x0000206329b97DB379d5E1Bf586BbDB969C63274",
      "function": "approve(address,uint256)",
      "arguments": [
        "0xBBBBBbbBBb9cC5e90e3b3Af64bdAF62C37EEFFCb",
        "1000000000000000000"
      ],
      "transaction": {
        "type": "0x02",
        "from": "0xa9ddd91249dfdd450e81e1c56ab60e1a62651701",
        "to": "0x0000206329b97db379d5e1bf586bbdb969c63274",
        "gas": "0x13108",
        "value": "0x0",
        "data": "0x095ea7b3000000000000000000000000bbbbbbbbbb9cc5e90e3b3af64bdaf62c37eeffcb0000000000000000000000000000000000000000000000000de0b6b3a7640000",
        "nonce": "0xe2",
        "accessList": []
      },
      "additionalContracts": [],
      "isFixedGasLimit": false
    },
    {
      "hash": "0xd69d55763a571b7dbe810dfec59066011d4c3047db91aab0d97a841e60c9bc97",
      "transactionType": "CALL",
      "contractName": null,
      "contractAddress": "0xBBBBBbbBBb9cC5e90e3b3Af64bdAF62C37EEFFCb",
      "function": null,
      "arguments": null,
      "transaction": {
        "type": "0x02",
        "from": "0xa9ddd91249dfdd450e81e1c56ab60e1a62651701",
        "to": "0xbbbbbbbbbb9cc5e90e3b3af64bdaf62c37eeffcb",
        "gas": "0x2285c",
        "value": "0x0",
        "data": "0x20b76e810000000000000000000000000000206329b97db379d5e1bf586bbdb969c6327400000000000000000000000095eef579155cd2c5510f312c8fa39208c3be01a80000000000000000000000001f083a4c51e6caa627a8cbe7452bf3d6eb815f57000000000000000000000000870ac11d48b15db9a138cf899d20f13f79ba00bc0000000000000000000000000000000000000000000000000cb2bba6f17b80000000000000000000000000000000000000000000000000000186cc6acd4b00000000000000000000000000000000000000000000000000000000000000000000000000000000000000000000a9ddd91249dfdd450e81e1c56ab60e1a6265170100000000000000000000000000000000000000000000000000000000000001200000000000000000000000000000000000000000000000000000000000000000",
        "nonce": "0xe3",
        "accessList": []
      },
      "additionalContracts": [],
      "isFixedGasLimit": false
    },
    {
      "hash": "0xcc668982ed5f2c52078a31464fffdbacbb8917415bea96e137d4ca042665bb14",
      "transactionType": "CALL",
      "contractName": null,
      "contractAddress": "0xBBBBBbbBBb9cC5e90e3b3Af64bdAF62C37EEFFCb",
      "function": null,
      "arguments": null,
      "transaction": {
        "type": "0x02",
        "from": "0xa9ddd91249dfdd450e81e1c56ab60e1a62651701",
        "to": "0xbbbbbbbbbb9cc5e90e3b3af64bdaf62c37eeffcb",
        "gas": "0x248c9",
        "value": "0x0",
        "data": "0x20b76e810000000000000000000000000000206329b97db379d5e1bf586bbdb969c6327400000000000000000000000078fc2c2ed1a4cdb5402365934ae5648adad094d000000000000000000000000076052a2a28fdcb8124f4686c63c68355b142de3b000000000000000000000000870ac11d48b15db9a138cf899d20f13f79ba00bc0000000000000000000000000000000000000000000000000bef55718ad600000000000000000000000000000000000000000000000000000186cc6acd4b00000000000000000000000000000000000000000000000000000000000000000000000000000000000000000000a9ddd91249dfdd450e81e1c56ab60e1a6265170100000000000000000000000000000000000000000000000000000000000001200000000000000000000000000000000000000000000000000000000000000000",
        "nonce": "0xe4",
        "accessList": []
      },
      "additionalContracts": [],
      "isFixedGasLimit": false
    },
    {
      "hash": "0xcde4b60ef1f48a33d51cb6cd89c802a976a26cc1b9d2996f1069e84e14a97846",
      "transactionType": "CALL",
      "contractName": null,
      "contractAddress": "0xBBBBBbbBBb9cC5e90e3b3Af64bdAF62C37EEFFCb",
      "function": null,
      "arguments": null,
      "transaction": {
        "type": "0x02",
        "from": "0xa9ddd91249dfdd450e81e1c56ab60e1a62651701",
        "to": "0xbbbbbbbbbb9cc5e90e3b3af64bdaf62c37eeffcb",
        "gas": "0x248c9",
        "value": "0x0",
        "data": "0x20b76e810000000000000000000000000000206329b97db379d5e1bf586bbdb969c63274000000000000000000000000dd0f28e19c1780eb6396170735d45153d261490d0000000000000000000000003b8c4a340336941524de276ff730b3be71157b55000000000000000000000000870ac11d48b15db9a138cf899d20f13f79ba00bc0000000000000000000000000000000000000000000000000bef55718ad600000000000000000000000000000000000000000000000000000186cc6acd4b00000000000000000000000000000000000000000000000000000000000000000000000000000000000000000000a9ddd91249dfdd450e81e1c56ab60e1a6265170100000000000000000000000000000000000000000000000000000000000001200000000000000000000000000000000000000000000000000000000000000000",
        "nonce": "0xe5",
        "accessList": []
      },
      "additionalContracts": [],
      "isFixedGasLimit": false
    },
    {
      "hash": "0xe32e734f0c5b6dabc66d26ba60ff8c88cd240a0cfc2c0c41844afb3bdc6696be",
      "transactionType": "CALL",
      "contractName": null,
      "contractAddress": "0xBBBBBbbBBb9cC5e90e3b3Af64bdAF62C37EEFFCb",
      "function": null,
      "arguments": null,
      "transaction": {
        "type": "0x02",
        "from": "0xa9ddd91249dfdd450e81e1c56ab60e1a62651701",
        "to": "0xbbbbbbbbbb9cc5e90e3b3af64bdaf62c37eeffcb",
        "gas": "0x248c9",
        "value": "0x0",
        "data": "0x20b76e810000000000000000000000000000206329b97db379d5e1bf586bbdb969c632740000000000000000000000002371e134e3455e0593363cbf89d3b6cf53740618000000000000000000000000e4ccaa1849e9058f77f555c0fcca4925efd37d8e000000000000000000000000870ac11d48b15db9a138cf899d20f13f79ba00bc0000000000000000000000000000000000000000000000000aaf96eb9d0d00000000000000000000000000000000000000000000000000000186cc6acd4b00000000000000000000000000000000000000000000000000000000000000000000000000000000000000000000a9ddd91249dfdd450e81e1c56ab60e1a6265170100000000000000000000000000000000000000000000000000000000000001200000000000000000000000000000000000000000000000000000000000000000",
        "nonce": "0xe6",
        "accessList": []
      },
      "additionalContracts": [],
      "isFixedGasLimit": false
    }
  ],
  "receipts": [
    {
      "transactionHash": "0x4fed3cbfe1b35f9c1199c47365eec5fd9f6d184054215a92c4cd9bb94743506d",
      "transactionIndex": "0x0",
      "blockHash": "0x245d8834d989fc103565fa0a767f9916f6a131e0d67e7335824d8025081ca3a1",
      "blockNumber": "0x12d386f",
      "from": "0xA9DdD91249DFdd450E81E1c56Ab60E1A62651701",
      "to": "0x0000206329b97DB379d5E1Bf586BbDB969C63274",
      "cumulativeGasUsed": "0xd092",
      "gasUsed": "0xd092",
      "contractAddress": null,
      "logs": [
        {
          "address": "0x0000206329b97DB379d5E1Bf586BbDB969C63274",
          "topics": [
            "0x8c5be1e5ebec7d5bd14f71427d1e84f3dd0314c0f7b2291e5b200ac8c7c3b925",
            "0x000000000000000000000000a9ddd91249dfdd450e81e1c56ab60e1a62651701",
            "0x000000000000000000000000bbbbbbbbbb9cc5e90e3b3af64bdaf62c37eeffcb"
          ],
          "data": "0x0000000000000000000000000000000000000000000000000de0b6b3a7640000",
          "blockHash": "0x245d8834d989fc103565fa0a767f9916f6a131e0d67e7335824d8025081ca3a1",
          "blockNumber": "0x12d386f",
          "transactionHash": "0x4fed3cbfe1b35f9c1199c47365eec5fd9f6d184054215a92c4cd9bb94743506d",
          "transactionIndex": "0x0",
          "logIndex": "0x0",
          "removed": false
        }
      ],
      "status": "0x1",
      "logsBloom": "0x00000000000000000000000000000080000000000000000000000000000000000000000000000000000000000000000000000000000000000000000000200000000000000000000000000000000004000000000000000000000000000000000000000000000000000000000000000000000000000000000000000000000000000000000000000000000000000000000000000000000000000000000000000000820000000000000000000000000000000000000000000000800000080000000000000000000000000000000000000000000000004000000000000000000000000010000001000000000000200000000000000000000000000000000000004000",
      "type": "0x2",
      "effectiveGasPrice": "0x2462976f1"
    },
    {
      "transactionHash": "0xd69d55763a571b7dbe810dfec59066011d4c3047db91aab0d97a841e60c9bc97",
      "transactionIndex": "0x0",
      "blockHash": "0x70105c39c95f138abb3692eca12b21627c9f19f1c8f7517ff3e5f50f33cce6ae",
      "blockNumber": "0x12d3870",
      "from": "0xA9DdD91249DFdd450E81E1c56Ab60E1A62651701",
      "to": "0xBBBBBbbBBb9cC5e90e3b3Af64bdAF62C37EEFFCb",
      "cumulativeGasUsed": "0x18fe7",
      "gasUsed": "0x18fe7",
      "contractAddress": null,
      "logs": [
        {
          "address": "0x870aC11D48B15DB9a138Cf899d20F13F79Ba00BC",
          "topics": [
            "0x7120161a7b3d31251e01294ab351ef15a41b91659a36032e4641bb89b121e321",
            "0x5d09770b08517329e25b7dff8f32ad7098c8b6fd075660cdabec3e717ca8068f"
          ],
          "data": "0x0000000000000000000000000000000000000000000000000000000211b20ed000000000000000000000000000000000000000000000000000000000cc913181",
          "blockHash": "0x70105c39c95f138abb3692eca12b21627c9f19f1c8f7517ff3e5f50f33cce6ae",
          "blockNumber": "0x12d3870",
          "transactionHash": "0xd69d55763a571b7dbe810dfec59066011d4c3047db91aab0d97a841e60c9bc97",
          "transactionIndex": "0x0",
          "logIndex": "0x0",
          "removed": false
        },
        {
          "address": "0xBBBBBbbBBb9cC5e90e3b3Af64bdAF62C37EEFFCb",
          "topics": [
            "0x9d9bd501d0657d7dfe415f779a620a62b78bc508ddc0891fbbd8b7ac0f8fce87",
            "0x5d09770b08517329e25b7dff8f32ad7098c8b6fd075660cdabec3e717ca8068f"
          ],
          "data": "0x0000000000000000000000000000000000000000000000000000000211b20ed00000000000000000000000000000000000000000000000000013f4a73ebcef580000000000000000000000000000000000000000000000000000000000000000",
          "blockHash": "0x70105c39c95f138abb3692eca12b21627c9f19f1c8f7517ff3e5f50f33cce6ae",
          "blockNumber": "0x12d3870",
          "transactionHash": "0xd69d55763a571b7dbe810dfec59066011d4c3047db91aab0d97a841e60c9bc97",
          "transactionIndex": "0x0",
          "logIndex": "0x1",
          "removed": false
        },
        {
          "address": "0xBBBBBbbBBb9cC5e90e3b3Af64bdAF62C37EEFFCb",
          "topics": [
            "0x52acb05cebbd3cd39715469f22afbf5a17496295ef3bc9bb5944056c63ccaa09",
            "0x5d09770b08517329e25b7dff8f32ad7098c8b6fd075660cdabec3e717ca8068f",
            "0x000000000000000000000000a9ddd91249dfdd450e81e1c56ab60e1a62651701",
            "0x000000000000000000000000a9ddd91249dfdd450e81e1c56ab60e1a62651701"
          ],
          "data": "0x0000000000000000000000000000000000000000000000000186cc6acd4b0000000000000000000000000000000000000000000000001729cdd965c25ac67a89",
          "blockHash": "0x70105c39c95f138abb3692eca12b21627c9f19f1c8f7517ff3e5f50f33cce6ae",
          "blockNumber": "0x12d3870",
          "transactionHash": "0xd69d55763a571b7dbe810dfec59066011d4c3047db91aab0d97a841e60c9bc97",
          "transactionIndex": "0x0",
          "logIndex": "0x2",
          "removed": false
        },
        {
          "address": "0x0000206329b97DB379d5E1Bf586BbDB969C63274",
          "topics": [
            "0x8c5be1e5ebec7d5bd14f71427d1e84f3dd0314c0f7b2291e5b200ac8c7c3b925",
            "0x000000000000000000000000a9ddd91249dfdd450e81e1c56ab60e1a62651701",
            "0x000000000000000000000000bbbbbbbbbb9cc5e90e3b3af64bdaf62c37eeffcb"
          ],
          "data": "0x0000000000000000000000000000000000000000000000000c59ea48da190000",
          "blockHash": "0x70105c39c95f138abb3692eca12b21627c9f19f1c8f7517ff3e5f50f33cce6ae",
          "blockNumber": "0x12d3870",
          "transactionHash": "0xd69d55763a571b7dbe810dfec59066011d4c3047db91aab0d97a841e60c9bc97",
          "transactionIndex": "0x0",
          "logIndex": "0x3",
          "removed": false
        },
        {
          "address": "0x0000206329b97DB379d5E1Bf586BbDB969C63274",
          "topics": [
            "0xddf252ad1be2c89b69c2b068fc378daa952ba7f163c4a11628f55a4df523b3ef",
            "0x000000000000000000000000a9ddd91249dfdd450e81e1c56ab60e1a62651701",
            "0x000000000000000000000000bbbbbbbbbb9cc5e90e3b3af64bdaf62c37eeffcb"
          ],
          "data": "0x0000000000000000000000000000000000000000000000000186cc6acd4b0000",
          "blockHash": "0x70105c39c95f138abb3692eca12b21627c9f19f1c8f7517ff3e5f50f33cce6ae",
          "blockNumber": "0x12d3870",
          "transactionHash": "0xd69d55763a571b7dbe810dfec59066011d4c3047db91aab0d97a841e60c9bc97",
          "transactionIndex": "0x0",
          "logIndex": "0x4",
          "removed": false
        }
      ],
      "status": "0x1",
      "logsBloom": "0x00000000000000000000000000000080000000000000000000000000000000000000400000000000000000000000000000000000000000000000000020a44000000000000010000000000008000004002020000000200000000000080000000000000000000000000000000000000000000000000000002000000010000000000000000000000008000000000000000000000000000000000000000000000000820000000000000000000000000000000000000000000000a00000080000000020000002000000000001080000000010000000004000000000000000000000000010000001000000000000200001000000000000000000000000000000004000",
      "type": "0x2",
      "effectiveGasPrice": "0x213ec458d"
    },
    {
      "transactionHash": "0xcc668982ed5f2c52078a31464fffdbacbb8917415bea96e137d4ca042665bb14",
      "transactionIndex": "0x0",
      "blockHash": "0x950cc3bf0c03c9f97ac86a3d121a65c46e88077617a37ec48d0666a4ad30239f",
      "blockNumber": "0x12d3871",
      "from": "0xA9DdD91249DFdd450E81E1c56Ab60E1A62651701",
      "to": "0xBBBBBbbBBb9cC5e90e3b3Af64bdAF62C37EEFFCb",
      "cumulativeGasUsed": "0x18fdb",
      "gasUsed": "0x18fdb",
      "contractAddress": null,
      "logs": [
        {
          "address": "0x870aC11D48B15DB9a138Cf899d20F13F79Ba00BC",
          "topics": [
            "0x7120161a7b3d31251e01294ab351ef15a41b91659a36032e4641bb89b121e321",
            "0x540266e1879fff261908dcd4f4c623ce99dcd4c9ae7004e9c97ed80bfcb9ea21"
          ],
          "data": "0x000000000000000000000000000000000000000000000000000000021224d6c400000000000000000000000000000000000000000000000000000000ccd78fa0",
          "blockHash": "0x950cc3bf0c03c9f97ac86a3d121a65c46e88077617a37ec48d0666a4ad30239f",
          "blockNumber": "0x12d3871",
          "transactionHash": "0xcc668982ed5f2c52078a31464fffdbacbb8917415bea96e137d4ca042665bb14",
          "transactionIndex": "0x0",
          "logIndex": "0x0",
          "removed": false
        },
        {
          "address": "0xBBBBBbbBBb9cC5e90e3b3Af64bdAF62C37EEFFCb",
          "topics": [
            "0x9d9bd501d0657d7dfe415f779a620a62b78bc508ddc0891fbbd8b7ac0f8fce87",
            "0x540266e1879fff261908dcd4f4c623ce99dcd4c9ae7004e9c97ed80bfcb9ea21"
          ],
          "data": "0x000000000000000000000000000000000000000000000000000000021224d6c400000000000000000000000000000000000000000000000000140006bde02e6e0000000000000000000000000000000000000000000000000000000000000000",
          "blockHash": "0x950cc3bf0c03c9f97ac86a3d121a65c46e88077617a37ec48d0666a4ad30239f",
          "blockNumber": "0x12d3871",
          "transactionHash": "0xcc668982ed5f2c52078a31464fffdbacbb8917415bea96e137d4ca042665bb14",
          "transactionIndex": "0x0",
          "logIndex": "0x1",
          "removed": false
        },
        {
          "address": "0xBBBBBbbBBb9cC5e90e3b3Af64bdAF62C37EEFFCb",
          "topics": [
            "0x52acb05cebbd3cd39715469f22afbf5a17496295ef3bc9bb5944056c63ccaa09",
            "0x540266e1879fff261908dcd4f4c623ce99dcd4c9ae7004e9c97ed80bfcb9ea21",
            "0x000000000000000000000000a9ddd91249dfdd450e81e1c56ab60e1a62651701",
            "0x000000000000000000000000a9ddd91249dfdd450e81e1c56ab60e1a62651701"
          ],
          "data": "0x0000000000000000000000000000000000000000000000000186cc6acd4b0000000000000000000000000000000000000000000000001729baf90c127450e943",
          "blockHash": "0x950cc3bf0c03c9f97ac86a3d121a65c46e88077617a37ec48d0666a4ad30239f",
          "blockNumber": "0x12d3871",
          "transactionHash": "0xcc668982ed5f2c52078a31464fffdbacbb8917415bea96e137d4ca042665bb14",
          "transactionIndex": "0x0",
          "logIndex": "0x2",
          "removed": false
        },
        {
          "address": "0x0000206329b97DB379d5E1Bf586BbDB969C63274",
          "topics": [
            "0x8c5be1e5ebec7d5bd14f71427d1e84f3dd0314c0f7b2291e5b200ac8c7c3b925",
            "0x000000000000000000000000a9ddd91249dfdd450e81e1c56ab60e1a62651701",
            "0x000000000000000000000000bbbbbbbbbb9cc5e90e3b3af64bdaf62c37eeffcb"
          ],
          "data": "0x0000000000000000000000000000000000000000000000000ad31dde0cce0000",
          "blockHash": "0x950cc3bf0c03c9f97ac86a3d121a65c46e88077617a37ec48d0666a4ad30239f",
          "blockNumber": "0x12d3871",
          "transactionHash": "0xcc668982ed5f2c52078a31464fffdbacbb8917415bea96e137d4ca042665bb14",
          "transactionIndex": "0x0",
          "logIndex": "0x3",
          "removed": false
        },
        {
          "address": "0x0000206329b97DB379d5E1Bf586BbDB969C63274",
          "topics": [
            "0xddf252ad1be2c89b69c2b068fc378daa952ba7f163c4a11628f55a4df523b3ef",
            "0x000000000000000000000000a9ddd91249dfdd450e81e1c56ab60e1a62651701",
            "0x000000000000000000000000bbbbbbbbbb9cc5e90e3b3af64bdaf62c37eeffcb"
          ],
          "data": "0x0000000000000000000000000000000000000000000000000186cc6acd4b0000",
          "blockHash": "0x950cc3bf0c03c9f97ac86a3d121a65c46e88077617a37ec48d0666a4ad30239f",
          "blockNumber": "0x12d3871",
          "transactionHash": "0xcc668982ed5f2c52078a31464fffdbacbb8917415bea96e137d4ca042665bb14",
          "transactionIndex": "0x0",
          "logIndex": "0x4",
          "removed": false
        }
      ],
      "status": "0x1",
      "logsBloom": "0x00000000000000000000000000000080000000000000000000000000000000000000400000000000000000000000000000000000000000000000000020a44000000000000010000000000008000004002000000000200000000000080000000000000000000000000000000000000000000000000002002000000010000000000000000000000008000000000000000000000000000000000000000000000000824000000002000000000000000000000000000000000000a00000080000000020000002000000000001000000000000000000004000000000000000000000000010000001000000000000200001000000000000000000000000000000004000",
      "type": "0x2",
      "effectiveGasPrice": "0x1e815e713"
    },
    {
      "transactionHash": "0xcde4b60ef1f48a33d51cb6cd89c802a976a26cc1b9d2996f1069e84e14a97846",
      "transactionIndex": "0x0",
      "blockHash": "0x3a7285748b29cb57e4fa9dbad5dd40a8fb5a34910396ed034f37313305a9f432",
      "blockNumber": "0x12d3872",
      "from": "0xA9DdD91249DFdd450E81E1c56Ab60E1A62651701",
      "to": "0xBBBBBbbBBb9cC5e90e3b3Af64bdAF62C37EEFFCb",
      "cumulativeGasUsed": "0x18fdb",
      "gasUsed": "0x18fdb",
      "contractAddress": null,
      "logs": [
        {
          "address": "0x870aC11D48B15DB9a138Cf899d20F13F79Ba00BC",
          "topics": [
            "0x7120161a7b3d31251e01294ab351ef15a41b91659a36032e4641bb89b121e321",
            "0x7f2eec1f78d0412e61fa3be531e36052460583e7f9b5c1efc1407f10c48a775d"
          ],
          "data": "0x000000000000000000000000000000000000000000000000000000020ed1db3c00000000000000000000000000000000000000000000000000000000cb3fc450",
          "blockHash": "0x3a7285748b29cb57e4fa9dbad5dd40a8fb5a34910396ed034f37313305a9f432",
          "blockNumber": "0x12d3872",
          "transactionHash": "0xcde4b60ef1f48a33d51cb6cd89c802a976a26cc1b9d2996f1069e84e14a97846",
          "transactionIndex": "0x0",
          "logIndex": "0x0",
          "removed": false
        },
        {
          "address": "0xBBBBBbbBBb9cC5e90e3b3Af64bdAF62C37EEFFCb",
          "topics": [
            "0x9d9bd501d0657d7dfe415f779a620a62b78bc508ddc0891fbbd8b7ac0f8fce87",
            "0x7f2eec1f78d0412e61fa3be531e36052460583e7f9b5c1efc1407f10c48a775d"
          ],
          "data": "0x000000000000000000000000000000000000000000000000000000020ed1db3c0000000000000000000000000000000000000000000000000013ca80160562100000000000000000000000000000000000000000000000000000000000000000",
          "blockHash": "0x3a7285748b29cb57e4fa9dbad5dd40a8fb5a34910396ed034f37313305a9f432",
          "blockNumber": "0x12d3872",
          "transactionHash": "0xcde4b60ef1f48a33d51cb6cd89c802a976a26cc1b9d2996f1069e84e14a97846",
          "transactionIndex": "0x0",
          "logIndex": "0x1",
          "removed": false
        },
        {
          "address": "0xBBBBBbbBBb9cC5e90e3b3Af64bdAF62C37EEFFCb",
          "topics": [
            "0x52acb05cebbd3cd39715469f22afbf5a17496295ef3bc9bb5944056c63ccaa09",
            "0x7f2eec1f78d0412e61fa3be531e36052460583e7f9b5c1efc1407f10c48a775d",
            "0x000000000000000000000000a9ddd91249dfdd450e81e1c56ab60e1a62651701",
            "0x000000000000000000000000a9ddd91249dfdd450e81e1c56ab60e1a62651701"
          ],
          "data": "0x0000000000000000000000000000000000000000000000000186cc6acd4b000000000000000000000000000000000000000000000000172a13d10c8c6c6e6ae8",
          "blockHash": "0x3a7285748b29cb57e4fa9dbad5dd40a8fb5a34910396ed034f37313305a9f432",
          "blockNumber": "0x12d3872",
          "transactionHash": "0xcde4b60ef1f48a33d51cb6cd89c802a976a26cc1b9d2996f1069e84e14a97846",
          "transactionIndex": "0x0",
          "logIndex": "0x2",
          "removed": false
        },
        {
          "address": "0x0000206329b97DB379d5E1Bf586BbDB969C63274",
          "topics": [
            "0x8c5be1e5ebec7d5bd14f71427d1e84f3dd0314c0f7b2291e5b200ac8c7c3b925",
            "0x000000000000000000000000a9ddd91249dfdd450e81e1c56ab60e1a62651701",
            "0x000000000000000000000000bbbbbbbbbb9cc5e90e3b3af64bdaf62c37eeffcb"
          ],
          "data": "0x000000000000000000000000000000000000000000000000094c51733f830000",
          "blockHash": "0x3a7285748b29cb57e4fa9dbad5dd40a8fb5a34910396ed034f37313305a9f432",
          "blockNumber": "0x12d3872",
          "transactionHash": "0xcde4b60ef1f48a33d51cb6cd89c802a976a26cc1b9d2996f1069e84e14a97846",
          "transactionIndex": "0x0",
          "logIndex": "0x3",
          "removed": false
        },
        {
          "address": "0x0000206329b97DB379d5E1Bf586BbDB969C63274",
          "topics": [
            "0xddf252ad1be2c89b69c2b068fc378daa952ba7f163c4a11628f55a4df523b3ef",
            "0x000000000000000000000000a9ddd91249dfdd450e81e1c56ab60e1a62651701",
            "0x000000000000000000000000bbbbbbbbbb9cc5e90e3b3af64bdaf62c37eeffcb"
          ],
          "data": "0x0000000000000000000000000000000000000000000000000186cc6acd4b0000",
          "blockHash": "0x3a7285748b29cb57e4fa9dbad5dd40a8fb5a34910396ed034f37313305a9f432",
          "blockNumber": "0x12d3872",
          "transactionHash": "0xcde4b60ef1f48a33d51cb6cd89c802a976a26cc1b9d2996f1069e84e14a97846",
          "transactionIndex": "0x0",
          "logIndex": "0x4",
          "removed": false
        }
      ],
      "status": "0x1",
      "logsBloom": "0x00000000000000000000000000000080000000000000000000000000000000000000400000000000000000000000000000000000000000000000000020a44000000000000010000000000008000004002000000000200000000000080000000000000000000000000000000000000000000000000000002000000010000000000000000000000008000000000000000000000000010000000000000000000000820000000000000000000000000000000000000000000000a00000080000000020000002000000000001000000000000000000004000000000000000000000000010000001000000000000200001000000000000000000000040000000004000",
      "type": "0x2",
      "effectiveGasPrice": "0x1c1b0bf6a"
    },
    {
      "transactionHash": "0xe32e734f0c5b6dabc66d26ba60ff8c88cd240a0cfc2c0c41844afb3bdc6696be",
      "transactionIndex": "0x0",
      "blockHash": "0xba9c4ec7379689d90171bec8df4899edf35b5eceb0570e84ca5e730091cca85b",
      "blockNumber": "0x12d3873",
      "from": "0xA9DdD91249DFdd450E81E1c56Ab60E1A62651701",
      "to": "0xBBBBBbbBBb9cC5e90e3b3Af64bdAF62C37EEFFCb",
      "cumulativeGasUsed": "0x18fdb",
      "gasUsed": "0x18fdb",
      "contractAddress": null,
      "logs": [
        {
          "address": "0x870aC11D48B15DB9a138Cf899d20F13F79Ba00BC",
          "topics": [
            "0x7120161a7b3d31251e01294ab351ef15a41b91659a36032e4641bb89b121e321",
            "0xdfd730c597116b2ab4b5ec2a10fef3e6bc1e8c9ae495ca7d2a351704592d6bbe"
          ],
          "data": "0x00000000000000000000000000000000000000000000000000000002122e715400000000000000000000000000000000000000000000000000000000ccdd7fc3",
          "blockHash": "0xba9c4ec7379689d90171bec8df4899edf35b5eceb0570e84ca5e730091cca85b",
          "blockNumber": "0x12d3873",
          "transactionHash": "0xe32e734f0c5b6dabc66d26ba60ff8c88cd240a0cfc2c0c41844afb3bdc6696be",
          "transactionIndex": "0x0",
          "logIndex": "0x0",
          "removed": false
        },
        {
          "address": "0xBBBBBbbBBb9cC5e90e3b3Af64bdAF62C37EEFFCb",
          "topics": [
            "0x9d9bd501d0657d7dfe415f779a620a62b78bc508ddc0891fbbd8b7ac0f8fce87",
            "0xdfd730c597116b2ab4b5ec2a10fef3e6bc1e8c9ae495ca7d2a351704592d6bbe"
          ],
          "data": "0x00000000000000000000000000000000000000000000000000000002122e7154000000000000000000000000000000000000000000000000001400fddf396bba0000000000000000000000000000000000000000000000000000000000000000",
          "blockHash": "0xba9c4ec7379689d90171bec8df4899edf35b5eceb0570e84ca5e730091cca85b",
          "blockNumber": "0x12d3873",
          "transactionHash": "0xe32e734f0c5b6dabc66d26ba60ff8c88cd240a0cfc2c0c41844afb3bdc6696be",
          "transactionIndex": "0x0",
          "logIndex": "0x1",
          "removed": false
        },
        {
          "address": "0xBBBBBbbBBb9cC5e90e3b3Af64bdAF62C37EEFFCb",
          "topics": [
            "0x52acb05cebbd3cd39715469f22afbf5a17496295ef3bc9bb5944056c63ccaa09",
            "0xdfd730c597116b2ab4b5ec2a10fef3e6bc1e8c9ae495ca7d2a351704592d6bbe",
            "0x000000000000000000000000a9ddd91249dfdd450e81e1c56ab60e1a62651701",
            "0x000000000000000000000000a9ddd91249dfdd450e81e1c56ab60e1a62651701"
          ],
          "data": "0x0000000000000000000000000000000000000000000000000186cc6acd4b0000000000000000000000000000000000000000000000001729b95ee0f5fcef6fc0",
          "blockHash": "0xba9c4ec7379689d90171bec8df4899edf35b5eceb0570e84ca5e730091cca85b",
          "blockNumber": "0x12d3873",
          "transactionHash": "0xe32e734f0c5b6dabc66d26ba60ff8c88cd240a0cfc2c0c41844afb3bdc6696be",
          "transactionIndex": "0x0",
          "logIndex": "0x2",
          "removed": false
        },
        {
          "address": "0x0000206329b97DB379d5E1Bf586BbDB969C63274",
          "topics": [
            "0x8c5be1e5ebec7d5bd14f71427d1e84f3dd0314c0f7b2291e5b200ac8c7c3b925",
            "0x000000000000000000000000a9ddd91249dfdd450e81e1c56ab60e1a62651701",
            "0x000000000000000000000000bbbbbbbbbb9cc5e90e3b3af64bdaf62c37eeffcb"
          ],
          "data": "0x00000000000000000000000000000000000000000000000007c5850872380000",
          "blockHash": "0xba9c4ec7379689d90171bec8df4899edf35b5eceb0570e84ca5e730091cca85b",
          "blockNumber": "0x12d3873",
          "transactionHash": "0xe32e734f0c5b6dabc66d26ba60ff8c88cd240a0cfc2c0c41844afb3bdc6696be",
          "transactionIndex": "0x0",
          "logIndex": "0x3",
          "removed": false
        },
        {
          "address": "0x0000206329b97DB379d5E1Bf586BbDB969C63274",
          "topics": [
            "0xddf252ad1be2c89b69c2b068fc378daa952ba7f163c4a11628f55a4df523b3ef",
            "0x000000000000000000000000a9ddd91249dfdd450e81e1c56ab60e1a62651701",
            "0x000000000000000000000000bbbbbbbbbb9cc5e90e3b3af64bdaf62c37eeffcb"
          ],
          "data": "0x0000000000000000000000000000000000000000000000000186cc6acd4b0000",
          "blockHash": "0xba9c4ec7379689d90171bec8df4899edf35b5eceb0570e84ca5e730091cca85b",
          "blockNumber": "0x12d3873",
          "transactionHash": "0xe32e734f0c5b6dabc66d26ba60ff8c88cd240a0cfc2c0c41844afb3bdc6696be",
          "transactionIndex": "0x0",
          "logIndex": "0x4",
          "removed": false
        }
      ],
      "status": "0x1",
      "logsBloom": "0x00000000000000000000000000000080000000000000000000000000000000000000400000000000000000000000000000000000000000000000000020a44800000000000010000000000008000004002000000000200000000000080000000000000000000000000000000000000000000000000000002000000010000000000000000000000008000000000000000000000000000000000000000000000000820000000000000000008000000000000000000000000000a00000080000000020080002000000000001000000000000000000004000000000000000000000000010000001000000000000200001000000000000000000000000000000004000",
      "type": "0x2",
      "effectiveGasPrice": "0x1a00fda47"
    }
  ],
  "libraries": [],
  "pending": [],
  "returns": {},
  "timestamp": 1714149732,
  "chain": 1,
  "multi": false,
  "commit": "48455d7"
}