{
  "transactions": [
    {
      "hash": "0xee2262bb2e6d19bf28b8cd90068d93587245d814bedc7b60630fc84a2c69c398",
      "transactionType": "CALL",
      "contractName": null,
      "contractAddress": "0xc9dfd5c18f12a3ba6293001700810602efe0c45b",
      "function": "setMaxImpliedRate(uint256)",
      "arguments": [
        "90000000000000000000"
      ],
      "transaction": {
        "from": "0x0c2553e4b9dfa9f83b1a6d3eab96c4baab42d430",
        "to": "0xc9dfd5c18f12a3ba6293001700810602efe0c45b",
        "gas": "0xe57b",
        "value": "0x0",
        "input": "0x3406b6d1000000000000000000000000000000000000000000000004e1003b28d9280000",
        "nonce": "0x7",
        "chainId": "0x1"
      },
      "additionalContracts": [],
      "isFixedGasLimit": false
    }
  ],
  "receipts": [
    {
      "status": "0x1",
      "cumulativeGasUsed": "0xa624",
      "logs": [
        {
          "address": "0xc9dfd5c18f12a3ba6293001700810602efe0c45b",
          "topics": [
            "0x1693f12ff158ba72b61d65dce0487c8c9166916e22e284990a7e42b5f38b080a"
          ],
          "data": "0x000000000000000000000000000000000000000000000004e1003b28d9280000",
          "blockHash": "0x539468cb9e0dc7d9708029eaad469efecf6952e55f9cbfb2b895ea1c0a7005a4",
          "blockNumber": "0x132702a",
          "blockTimestamp": "0x666c442f",
          "transactionHash": "0xee2262bb2e6d19bf28b8cd90068d93587245d814bedc7b60630fc84a2c69c398",
          "transactionIndex": "0x0",
          "logIndex": "0x0",
          "removed": false
        }
      ],
      "logsBloom": "0x00000000000000080000000000000000000000000000000000000000000000000400000000000000000000000000000000000000000000000000000000000000000000000000000000000000000000000000000000000000000000000000000000000000000000000000000000000001000000000000000000000000000000000000000000000000000000000000000000000000000000000000000000000000000000000002000000000000008000400000000000000000000000000000000000000000000000000000000000000000000000000000000000000000000000000000000000000000000000000000000000000000000000000000000000000000",
      "type": "0x2",
      "transactionHash": "0xee2262bb2e6d19bf28b8cd90068d93587245d814bedc7b60630fc84a2c69c398",
      "transactionIndex": "0x0",
      "blockHash": "0x539468cb9e0dc7d9708029eaad469efecf6952e55f9cbfb2b895ea1c0a7005a4",
      "blockNumber": "0x132702a",
      "gasUsed": "0xa624",
      "effectiveGasPrice": "0xe9352dcf",
      "blobGasPrice": "0x1",
      "from": "0x0c2553e4b9dfa9f83b1a6d3eab96c4baab42d430",
      "to": "0xc9dfd5c18f12a3ba6293001700810602efe0c45b",
      "contractAddress": null,
      "root": "0x0000000000000000000000000000000000000000000000000000000000000000"
    }
  ],
  "libraries": [],
  "pending": [],
  "returns": {},
  "timestamp": 1718284984,
  "chain": 1,
  "commit": "c0232d4"
}