{
  "transactions": [
    {
      "hash": "0x29912f3b3164c7a8d030100eaa89f21d068561fac892165f1b78591d1484826b",
      "transactionType": "CALL",
      "contractName": null,
      "contractAddress": "0xc9dfd5c18f12a3ba6293001700810602efe0c45b",
      "function": "setMaxImpliedRate(uint256)",
      "arguments": [
        "70000000000000000000"
      ],
      "transaction": {
        "from": "0x0c2553e4b9dfa9f83b1a6d3eab96c4baab42d430",
        "to": "0xc9dfd5c18f12a3ba6293001700810602efe0c45b",
        "gas": "0xe58b",
        "value": "0x0",
        "input": "0x3406b6d1000000000000000000000000000000000000000000000003cb71f51fc5580000",
        "nonce": "0x6",
        "chainId": "0x1"
      },
      "additionalContracts": [],
      "isFixedGasLimit": false
    }
  ],
  "receipts": [
    {
      "status": "0x1",
      "cumulativeGasUsed": "0xa630",
      "logs": [
        {
          "address": "0xc9dfd5c18f12a3ba6293001700810602efe0c45b",
          "topics": [
            "0x1693f12ff158ba72b61d65dce0487c8c9166916e22e284990a7e42b5f38b080a"
          ],
          "data": "0x000000000000000000000000000000000000000000000003cb71f51fc5580000",
          "blockHash": "0xb7a0feb5b5423c5dc452fdd096d12511eb92498a16fd5b7fdf211be62c9f5c74",
          "blockNumber": "0x1327029",
          "blockTimestamp": "0x666c43ed",
          "transactionHash": "0x29912f3b3164c7a8d030100eaa89f21d068561fac892165f1b78591d1484826b",
          "transactionIndex": "0x0",
          "logIndex": "0x0",
          "removed": false
        }
      ],
      "logsBloom": "0x00000000000000080000000000000000000000000000000000000000000000000400000000000000000000000000000000000000000000000000000000000000000000000000000000000000000000000000000000000000000000000000000000000000000000000000000000000001000000000000000000000000000000000000000000000000000000000000000000000000000000000000000000000000000000000002000000000000008000400000000000000000000000000000000000000000000000000000000000000000000000000000000000000000000000000000000000000000000000000000000000000000000000000000000000000000",
      "type": "0x2",
      "transactionHash": "0x29912f3b3164c7a8d030100eaa89f21d068561fac892165f1b78591d1484826b",
      "transactionIndex": "0x0",
      "blockHash": "0xb7a0feb5b5423c5dc452fdd096d12511eb92498a16fd5b7fdf211be62c9f5c74",
      "blockNumber": "0x1327029",
      "gasUsed": "0xa630",
      "effectiveGasPrice": "0x10a6a48d6",
      "blobGasPrice": "0x1",
      "from": "0x0c2553e4b9dfa9f83b1a6d3eab96c4baab42d430",
      "to": "0xc9dfd5c18f12a3ba6293001700810602efe0c45b",
      "contractAddress": null,
      "root": "0x0000000000000000000000000000000000000000000000000000000000000000"
    }
  ],
  "libraries": [],
  "pending": [],
  "returns": {},
  "timestamp": 1718284918,
  "chain": 1,
  "commit": "c0232d4"
}