{
  "transactions": [
    {
      "hash": "0x041482f25616e693ac67cf84187e5e52ea92bdcceafd1104270817de16e8e4b7",
      "transactionType": "CALL",
      "contractName": null,
      "contractAddress": "0xc9dfd5c18f12a3ba6293001700810602efe0c45b",
      "function": "setMaxImpliedRate(uint256)",
      "arguments": [
        "50000000000000000000"
      ],
      "transaction": {
        "from": "0x0c2553e4b9dfa9f83b1a6d3eab96c4baab42d430",
        "to": "0xc9dfd5c18f12a3ba6293001700810602efe0c45b",
        "gas": "0xe58b",
        "value": "0x0",
        "input": "0x3406b6d1000000000000000000000000000000000000000000000002b5e3af16b1880000",
        "nonce": "0x5",
        "chainId": "0x1"
      },
      "additionalContracts": [],
      "isFixedGasLimit": false
    }
  ],
  "receipts": [
    {
      "status": "0x1",
      "cumulativeGasUsed": "0xa630",
      "logs": [
        {
          "address": "0xc9dfd5c18f12a3ba6293001700810602efe0c45b",
          "topics": [
            "0x1693f12ff158ba72b61d65dce0487c8c9166916e22e284990a7e42b5f38b080a"
          ],
          "data": "0x000000000000000000000000000000000000000000000002b5e3af16b1880000",
          "blockHash": "0xded8724fb63d6af808b70ea6280534bff81c0eaa2e693c84bea7f1c010d8daa3",
          "blockNumber": "0x1327028",
          "blockTimestamp": "0x666c43bf",
          "transactionHash": "0x041482f25616e693ac67cf84187e5e52ea92bdcceafd1104270817de16e8e4b7",
          "transactionIndex": "0x0",
          "logIndex": "0x0",
          "removed": false
        }
      ],
      "logsBloom": "0x00000000000000080000000000000000000000000000000000000000000000000400000000000000000000000000000000000000000000000000000000000000000000000000000000000000000000000000000000000000000000000000000000000000000000000000000000000001000000000000000000000000000000000000000000000000000000000000000000000000000000000000000000000000000000000002000000000000008000400000000000000000000000000000000000000000000000000000000000000000000000000000000000000000000000000000000000000000000000000000000000000000000000000000000000000000",
      "type": "0x2",
      "transactionHash": "0x041482f25616e693ac67cf84187e5e52ea92bdcceafd1104270817de16e8e4b7",
      "transactionIndex": "0x0",
      "blockHash": "0xded8724fb63d6af808b70ea6280534bff81c0eaa2e693c84bea7f1c010d8daa3",
      "blockNumber": "0x1327028",
      "gasUsed": "0xa630",
      "effectiveGasPrice": "0x13059e616",
      "blobGasPrice": "0x1",
      "from": "0x0c2553e4b9dfa9f83b1a6d3eab96c4baab42d430",
      "to": "0xc9dfd5c18f12a3ba6293001700810602efe0c45b",
      "contractAddress": null,
      "root": "0x0000000000000000000000000000000000000000000000000000000000000000"
    }
  ],
  "libraries": [],
  "pending": [],
  "returns": {},
  "timestamp": 1718284872,
  "chain": 1,
  "commit": "c0232d4"
}