{
  "transactions": [
    {
      "hash": "0xf9228dc6dbddb39c1c0889fb32e0b7d8c29e3c36a2f9af07f31cf0c88376c7e6",
      "transactionType": "CALL",
      "contractName": null,
      "contractAddress": "0xc9dfd5c18f12a3ba6293001700810602efe0c45b",
      "function": "setMaxImpliedRate(uint256)",
      "arguments": [
        "100000000000000000000"
      ],
      "transaction": {
        "from": "0x0c2553e4b9dfa9f83b1a6d3eab96c4baab42d430",
        "to": "0xc9dfd5c18f12a3ba6293001700810602efe0c45b",
        "gas": "0xe58b",
        "value": "0x0",
        "input": "0x3406b6d10000000000000000000000000000000000000000000000056bc75e2d63100000",
        "nonce": "0x3",
        "chainId": "0x1"
      },
      "additionalContracts": [],
      "isFixedGasLimit": false
    }
  ],
  "receipts": [
    {
      "status": "0x1",
      "cumulativeGasUsed": "0xa630",
      "logs": [
        {
          "address": "0xc9dfd5c18f12a3ba6293001700810602efe0c45b",
          "topics": [
            "0x1693f12ff158ba72b61d65dce0487c8c9166916e22e284990a7e42b5f38b080a"
          ],
          "data": "0x0000000000000000000000000000000000000000000000056bc75e2d63100000",
          "blockHash": "0x13c169a7c50c6757ce90af757766d69f33f1a58e5dc2def1dec0cf7b01e5e291",
          "blockNumber": "0x1327026",
          "blockTimestamp": "0x666c3fe1",
          "transactionHash": "0xf9228dc6dbddb39c1c0889fb32e0b7d8c29e3c36a2f9af07f31cf0c88376c7e6",
          "transactionIndex": "0x0",
          "logIndex": "0x0",
          "removed": false
        }
      ],
      "logsBloom": "0x00000000000000080000000000000000000000000000000000000000000000000400000000000000000000000000000000000000000000000000000000000000000000000000000000000000000000000000000000000000000000000000000000000000000000000000000000000001000000000000000000000000000000000000000000000000000000000000000000000000000000000000000000000000000000000002000000000000008000400000000000000000000000000000000000000000000000000000000000000000000000000000000000000000000000000000000000000000000000000000000000000000000000000000000000000000",
      "type": "0x2",
      "transactionHash": "0xf9228dc6dbddb39c1c0889fb32e0b7d8c29e3c36a2f9af07f31cf0c88376c7e6",
      "transactionIndex": "0x0",
      "blockHash": "0x13c169a7c50c6757ce90af757766d69f33f1a58e5dc2def1dec0cf7b01e5e291",
      "blockNumber": "0x1327026",
      "gasUsed": "0xa630",
      "effectiveGasPrice": "0x18d32affa",
      "blobGasPrice": "0x1",
      "from": "0x0c2553e4b9dfa9f83b1a6d3eab96c4baab42d430",
      "to": "0xc9dfd5c18f12a3ba6293001700810602efe0c45b",
      "contractAddress": null,
      "root": "0x0000000000000000000000000000000000000000000000000000000000000000"
    }
  ],
  "libraries": [],
  "pending": [],
  "returns": {},
  "timestamp": 1718283882,
  "chain": 1,
  "commit": "c0232d4"
}