{
  "transactions": [
    {
      "hash": "0x8110db0962294ba8e33152873a609e62b25eb506351df866942c21d805bac537",
      "transactionType": "CALL",
      "contractName": null,
      "contractAddress": "0xc9dfd5c18f12a3ba6293001700810602efe0c45b",
      "function": "setMaxImpliedRate(uint256)",
      "arguments": [
        "1000000000000000000000"
      ],
      "transaction": {
        "from": "0x0c2553e4b9dfa9f83b1a6d3eab96c4baab42d430",
        "to": "0xc9dfd5c18f12a3ba6293001700810602efe0c45b",
        "gas": "0xe58b",
        "value": "0x0",
        "input": "0x3406b6d100000000000000000000000000000000000000000000003635c9adc5dea00000",
        "nonce": "0x9",
        "chainId": "0x1"
      },
      "additionalContracts": [],
      "isFixedGasLimit": false
    }
  ],
  "receipts": [
    {
      "status": "0x1",
      "cumulativeGasUsed": "0xa630",
      "logs": [
        {
          "address": "0xc9dfd5c18f12a3ba6293001700810602efe0c45b",
          "topics": [
            "0x1693f12ff158ba72b61d65dce0487c8c9166916e22e284990a7e42b5f38b080a"
          ],
          "data": "0x00000000000000000000000000000000000000000000003635c9adc5dea00000",
          "blockHash": "0xd9f75cf3f3b5c081ae472177f0dae02d4bfd236cff9f8de579735232f8f6ac25",
          "blockNumber": "0x132702c",
          "blockTimestamp": "0x666c5127",
          "transactionHash": "0x8110db0962294ba8e33152873a609e62b25eb506351df866942c21d805bac537",
          "transactionIndex": "0x0",
          "logIndex": "0x0",
          "removed": false
        }
      ],
      "logsBloom": "0x00000000000000080000000000000000000000000000000000000000000000000400000000000000000000000000000000000000000000000000000000000000000000000000000000000000000000000000000000000000000000000000000000000000000000000000000000000001000000000000000000000000000000000000000000000000000000000000000000000000000000000000000000000000000000000002000000000000008000400000000000000000000000000000000000000000000000000000000000000000000000000000000000000000000000000000000000000000000000000000000000000000000000000000000000000000",
      "type": "0x2",
      "transactionHash": "0x8110db0962294ba8e33152873a609e62b25eb506351df866942c21d805bac537",
      "transactionIndex": "0x0",
      "blockHash": "0xd9f75cf3f3b5c081ae472177f0dae02d4bfd236cff9f8de579735232f8f6ac25",
      "blockNumber": "0x132702c",
      "gasUsed": "0xa630",
      "effectiveGasPrice": "0xb2b1c20d",
      "blobGasPrice": "0x1",
      "from": "0x0c2553e4b9dfa9f83b1a6d3eab96c4baab42d430",
      "to": "0xc9dfd5c18f12a3ba6293001700810602efe0c45b",
      "contractAddress": null,
      "root": "0x0000000000000000000000000000000000000000000000000000000000000000"
    }
  ],
  "libraries": [],
  "pending": [],
  "returns": {},
  "timestamp": 1718288304,
  "chain": 1,
  "commit": "c0232d4"
}