{
  "transactions": [
    {
      "hash": "0x765fd6a691e06b2265e090883579a83c72ec5070022d9fc19d9f19bcc987f795",
      "transactionType": "CALL",
      "contractName": null,
      "contractAddress": "0x9c3C929884a5579f258e22408F2601c5e60e144A",
      "function": "setMaxImpliedRate(uint256)",
      "arguments": [
        "1000000000000000000000"
      ],
      "transaction": {
        "type": "0x02",
        "from": "0x0c2553e4b9dfa9f83b1a6d3eab96c4baab42d430",
        "to": "0x9c3c929884a5579f258e22408f2601c5e60e144a",
        "gas": "0xe585",
        "value": "0x0",
        "data": "0x3406b6d100000000000000000000000000000000000000000000003635c9adc5dea00000",
        "nonce": "0x1",
        "accessList": []
      },
      "additionalContracts": [],
      "isFixedGasLimit": false
    }
  ],
  "receipts": [
    {
      "transactionHash": "0x765fd6a691e06b2265e090883579a83c72ec5070022d9fc19d9f19bcc987f795",
      "transactionIndex": "0x0",
      "blockHash": "0xd220fd524574b13a32fa4a304451267b356149b6a11cedb7fa14180aa28524d6",
      "blockNumber": "0x12d8679",
      "from": "0x0C2553e4B9dFA9f83b1A6D3EAB96c4bAaB42d430",
      "to": "0x9c3C929884a5579f258e22408F2601c5e60e144A",
      "cumulativeGasUsed": "0xa62c",
      "gasUsed": "0xa62c",
      "contractAddress": null,
      "logs": [
        {
          "address": "0x9c3C929884a5579f258e22408F2601c5e60e144A",
          "topics": [
            "0x1693f12ff158ba72b61d65dce0487c8c9166916e22e284990a7e42b5f38b080a"
          ],
          "data": "0x00000000000000000000000000000000000000000000003635c9adc5dea00000",
          "blockHash": "0xd220fd524574b13a32fa4a304451267b356149b6a11cedb7fa14180aa28524d6",
          "blockNumber": "0x12d8679",
          "transactionHash": "0x765fd6a691e06b2265e090883579a83c72ec5070022d9fc19d9f19bcc987f795",
          "transactionIndex": "0x0",
          "logIndex": "0x0",
          "removed": false
        }
      ],
      "status": "0x1",
      "logsBloom": "0x00000000020000000000000000000000000000000000000000000000000000000400000000000000000000000000000000000000000000000000000000000000000000000000000000000000000000000000000000000000000000000000040000000000000000000000000000000000000000000000000000000000000000000000000000000000000000000000000000000000000000020000000000000000000000000002000000000000000000400000000000000000000000000000000000000000000000000000000000000000000000000000000000000000000000000000000000000000000000000000000000000000000000000000000000000000",
      "type": "0x2",
      "effectiveGasPrice": "0x161bfa02f"
    }
  ],
  "libraries": [],
  "pending": [],
  "returns": {},
  "timestamp": 1714405323,
  "chain": 1,
  "multi": false,
  "commit": "c07cb00"
}