{
  "transactions": [
    {
      "hash": "0xa0ba5ac7c37e7279cb90fae73a9a0a3d871731919bc3d562cde65ab3843ed02b",
      "transactionType": "CALL",
      "contractName": null,
      "contractAddress": "0xc9dfd5c18f12a3ba6293001700810602efe0c45b",
      "function": "setMaxImpliedRate(uint256)",
      "arguments": [
        "1000000000000000000000"
      ],
      "transaction": {
        "from": "0x0c2553e4b9dfa9f83b1a6d3eab96c4baab42d430",
        "to": "0xc9dfd5c18f12a3ba6293001700810602efe0c45b",
        "gas": "0xd670",
        "value": "0x0",
        "input": "0x3406b6d100000000000000000000000000000000000000000000003635c9adc5dea00000",
        "nonce": "0x2",
        "chainId": "0x1"
      },
      "additionalContracts": [],
      "isFixedGasLimit": false
    }
  ],
  "receipts": [
    {
      "status": "0x1",
      "cumulativeGasUsed": "0x9b40",
      "logs": [
        {
          "address": "0xc9dfd5c18f12a3ba6293001700810602efe0c45b",
          "topics": [
            "0x1693f12ff158ba72b61d65dce0487c8c9166916e22e284990a7e42b5f38b080a"
          ],
          "data": "0x00000000000000000000000000000000000000000000003635c9adc5dea00000",
          "blockHash": "0x0ce1e88d2744e4c6d83e04b9074f17aea7a9df3d0544da111846477b260ca5a1",
          "blockNumber": "0x1327024",
          "blockTimestamp": "0x666ae89f",
          "transactionHash": "0xa0ba5ac7c37e7279cb90fae73a9a0a3d871731919bc3d562cde65ab3843ed02b",
          "transactionIndex": "0x0",
          "logIndex": "0x0",
          "removed": false
        }
      ],
      "logsBloom": "0x00000000000000080000000000000000000000000000000000000000000000000400000000000000000000000000000000000000000000000000000000000000000000000000000000000000000000000000000000000000000000000000000000000000000000000000000000000001000000000000000000000000000000000000000000000000000000000000000000000000000000000000000000000000000000000002000000000000008000400000000000000000000000000000000000000000000000000000000000000000000000000000000000000000000000000000000000000000000000000000000000000000000000000000000000000000",
      "type": "0x2",
      "transactionHash": "0xa0ba5ac7c37e7279cb90fae73a9a0a3d871731919bc3d562cde65ab3843ed02b",
      "transactionIndex": "0x0",
      "blockHash": "0x0ce1e88d2744e4c6d83e04b9074f17aea7a9df3d0544da111846477b260ca5a1",
      "blockNumber": "0x1327024",
      "gasUsed": "0x9b40",
      "effectiveGasPrice": "0x20697ca09",
      "blobGasPrice": "0x1",
      "from": "0x0c2553e4b9dfa9f83b1a6d3eab96c4baab42d430",
      "to": "0xc9dfd5c18f12a3ba6293001700810602efe0c45b",
      "contractAddress": null,
      "root": "0x0000000000000000000000000000000000000000000000000000000000000000"
    }
  ],
  "libraries": [],
  "pending": [],
  "returns": {},
  "timestamp": 1718282408,
  "chain": 1,
  "commit": "c0232d4"
}